:024317003BE188
:0243190043BEA1
:02431B0044DA82
:02431D0042BAA2
:02432100426FE9
:02432500430152
:024327003CFB5D
:0243290041034E
:0A3529004205B600004205B800009C
:103BE100123B877F04123D6A7F01121AED7F031297
:103BF1001AED7F05121AED7F07121AED7F08121ACE
:0B3C0100ED7F09121AEDE4FF021B76B4
:1043BE00E49002BCF0E4FBFA7D287F80121BFF80A4
:0143CE00F4FA
:0144DA0022BF
:1042BA00900349740AF0900349E004F0E4FBFA7DA4
:0842CA00C87F80121BFF80EE8B
:10426F0090034A120E9A000000001238F5E4FBFA90
:09427F007D027F80121BFF80F11B
:104301007F08123FCB50031244C6E4FBFA7D0A7FBB
:0643110080121BFF80EA90
:103CFB00D20812362AE4FBFA79487842120A9E500F
:103D0B00051244C680031244CBE4FBFA7D017F808D
:053D1B00121BFF80DB1C
:10410300D20812362A9003777401F0123AF0E4FBD6
:0A411300FA7D287F80121BFF80E672
:103BB50090029E7440F0A37402F0A3120E8E900240
:103BC500A57401F0E4A3F0A304F0A3F0E4A3F0A32B
:0C3BD500F07B017A02799E7F01020F0153
:103B87007F007EC27D017C00123BB5123C0C123FC8
:103B970013E4FD7F011240781240221240E87B6453
:0E3BA7007D0F7C00E4FF123B29E4FF02400585
:0144DB0022BE
:0144DC0022BD
:0144DD0022BC
:0144DE0022BB
:0144DF0022BA
:03000B0002198057
:10197B00C2AF80FE3212197F85D00B75D008AAE05A
:10198B00C28CE58A2443F58AE58C34F6F58CD28C2F
:10199B00EC240FF8E6BC090274FFC39581B4140064
:1019AB0040CE790A782216E608700BC2AFE630E11A
:1019BB00034418F6D2AF08D9EDEA8BD030090122D7
:1019CB00D50DFCC0E0C0D0C0F0C083C082C000C049
:1019DB0001C002C003C004C005C006C007E50C234C
:1019EB002423F87440C2AF46F6D2AFD209E50CFF00
:1019FB00232423F80F0808BF0A047F007823E6305E
:101A0B00E4F200E50CC39F5020050C740E250CF876
:101A1B00E6FDA68108E6AE0CBE090274FFCDF8E820
:101A2B006D60E008E6C0E080F6E50CD39F4027E54B
:101A3B000C240FF8E6AE0CBE090274FFFD18E6CDC0
:101A4B00F8E5816D6006D0E0F61880F5E50C240E04
:101A5B00C8F6150C80D3750D0AE50C232423F87FEB
:101A6B0004C2AFE610E61E30E00310E20C7F00303C
:101A7B00E10730E3047F0854F4547CC6D2AF5480A2
:101A8B004207C20922F6D2AFD007D006D005D00448
:101A9B00D003D002D001D000D082D083D0F0D0D0F0
:0E1AAB00D0E0C20922780EA68174096006FF01
:101AB9000876FFDFFB7F0AE47822F608F608DFFAEA
:101AC90078237630904317740193C0E0E493C0E023
:101AD900750D0A438901758A3C758CF6D28CD2AF93
:041AE900D2A9220953
:102A6600AB07EB75F039A424A0F582E43403F583B3
:102A7600120E9A00000000EB75F039A424A4F5822A
:102A8600E43403F583120E9A00000000EB75F0396A
:102A9600A424B8F582E43403F583120E9A000000EC
:102AA60000EB75F039A424B4F582E43403F58312FF
:102AB6000E9A00000000900557E0FCA3E0FDA3E09D
:102AC600FEA3E0FFEB75F039A424A8F582E43403F5
:102AD600F583120E8E90055BE0FCA3E0FDA3E0FEFD
:102AE600A3E0FFEB75F039A424ACF582E43403F5DA
:102AF60083120E8E90055FE0FCA3E0FDA3E0FEA32B
:102B0600E0FFEB75F039A424B0F582E43403F583D5
:102B1600120E8EEB75F039A424A8F582E43403F581
:102B260083E0FCA3E0FDA3E0FEA3E0FFEB75F03934
:102B3600A424C0F582E43403F583120E8EEB75F0FF
:102B460039A424ACF582E43403F583E0FCA3E0FD6C
:102B5600A3E0FEA3E0FFEB75F039A424BCF582E404
:102B66003403F583120E8EEB75F039A424B0F5828A
:102B7600E43403F583E0FCA3E0FDA3E0FEA3E0FF5D
:102B8600EB75F039A424C4F582E43403F583020E10
:012B96008EB0
:10436400EF75F039A424D0F582E43403F5837401A5
:02437400F02235
:1043CF00EF75F039A424D0F582E43403F583E4F0DB
:0143DF0022BB
:101E91009005CEEFF075F039A424D0F582E4340337
:101EA100F583E0700302206A9005CEE0FF75F039FA
:101EB100A4249CF582E43403F583E0F8A3E0F9A3BC
:101EC100E0FAA3E0FBEF75F039A42498F582E4343D
:101ED10003F583E0FCA3E0FDA3E0FEA3E0FF12080D
:101EE100039005CEE0FB75F039A424A0F582E4341B
:101EF10003F583120E8EEB75F039A424B4F582E458
:101F01003403F583C083C082E0FCA3E0FDA3E0FEBF
:101F1100A3E0FF9005CEE075F039A424A0F582E49A
:101F21003403F583E0F8A3E0F9A3E0FAA3E0FB12A0
:101F31000807D082D083120E8E9005CEE0FF75F097
:101F410039A424B4F582E43403F583E0F8A3E0F97D
:101F5100A3E0FAA3E0FBEF75F039A424ACF582E429
:101F61003403F583E0FCA3E0FDA3E0FEA3E0FF1250
:101F710008F8C004C005C006C0079005CEE0FF7593
:101F8100F039A424A0F582E43403F583E0F8A3E05A
:101F9100F9A3E0FAA3E0FBEF75F039A424A8F582D8
:101FA100E43403F583E0FCA3E0FDA3E0FEA3E0FF3E
:101FB1001208F8D003D002D001D000120807C004E3
:101FC100C005C006C0079005CEE0FF75F039A42416
:101FD100A4F582E43403F583E0F8A3E0F9A3E0FA81
:101FE100A3E0FBEF75F039A424A0F582E43403F5F6
:101FF10083E0FCA3E0FDA3E0FEA3E0FF1208039051
:1020010005CEE075F039A424B0F582E43403F583FC
:10201100E0F8A3E0F9A3E0FAA3E0FB1208F8D0038B
:10202100D002D001D0001208079005CEE0FB75F078
:1020310039A424B8F582E43403F583120E8EEB75CE
:10204100F039A424A0F582E43403F583E0FCA3E095
:10205100FDA3E0FEA3E0FFEB75F039A424A4F58213
:0A206100E43403F583120E8ED3223F
:103D8C00AB0790058AE0FCA3E0FDA3E0FEA3E0FFF7
:103D9C00EB75F039A424CCF582E43403F583020EE0
:013DAC008E88
:103DAD00AB0790058FE0FCA3E0FDA3E0FEA3E0FFD1
:103DBD00EB75F039A424C8F582E43403F583020EC3
:013DCD008E67
:103DCE00AB07900594E0FCA3E0FDA3E0FEA3E0FFAB
:103DDE00EB75F039A4249CF582E43403F583020ECE
:013DEE008E46
:103DEF00AB07900599E0FCA3E0FDA3E0FEA3E0FF85
:103DFF00EB75F039A424ACF582E43403F583020E9D
:013E0F008E24
:103E1000AB0790059EE0FCA3E0FDA3E0FEA3E0FF5E
:103E2000EB75F039A424A8F582E43403F583020E7F
:013E30008E03
:103E3100AB079005A3E0FCA3E0FDA3E0FEA3E0FF38
:103E4100EB75F039A424B0F582E43403F583020E56
:013E51008EE2
:103E5200AB079005A8E0FCA3E0FDA3E0FEA3E0FF12
:103E6200EB75F039A42498F582E43403F583020E4D
:013E72008EC1
:10411D00EF75F039A42498F582E43403F583E0FCBF
:0A412D00A3E0FDA3E0FEA3E0FF22E3
:10413700EF75F039A424A0F582E43403F583E0FC9D
:0A414700A3E0FDA3E0FEA3E0FF22C9
:10415100EF75F039A424A4F582E43403F583E0FC7F
:0A416100A3E0FDA3E0FEA3E0FF22AF
:10416B00EF75F039A424A8F582E43403F583E0FC61
:0A417B00A3E0FDA3E0FEA3E0FF2295
:10418500EF75F039A424ACF582E43403F583E0FC43
:0A419500A3E0FDA3E0FEA3E0FF227B
:10419F00EF75F039A424B0F582E43403F583E0FC25
:0A41AF00A3E0FDA3E0FEA3E0FF2261
:1041B900EF75F039A424B8F582E43403F583E0FC03
:0A41C900A3E0FDA3E0FEA3E0FF2247
:1041D300EF75F039A424B4F582E43403F583E0FCED
:0A41E300A3E0FDA3E0FEA3E0FF222D
:0527FC0090038BEDF0DD
:10280100E4900392F0A3F090038EE0FFA3E0900325
:1028110094CFF0A3EFF090038CE0FFA3E090039638
:10282100CFF0A3EFF0E4900390F0A3F090038BE0DE
:10283100FF900390E0FCA3E0FDC39F7480F8EC647B
:10284100809840030228F6ED25E0FFEC338F82F5F6
:1028510083120CD7FFC3900395E09F900394E095FA
:10286100F0501D900391E025E0FF900390E0338F3D
:1028710082F583120CD7FF900394E5F0F0A3EFF0FB
:10288100900391E025E0FF900390E0338F82F58380
:10289100120CD7FFD3900397E09F900396E095F039
:1028A100401D900391E025E0FF900390E0338F827B
:1028B100F583120CD7FF900396E5F0F0A3EFF090AB
:1028C1000391E025E0FF900390E0338F82F58312BE
:1028D1000CD7FFAEF0900393E02FF0900392E03E0F
:1028E100F0900391E004F0600302282D900390E042
:1028F10004F002282D900396E0FEA3E0FF900395DB
:10290100E02FFF900394E03EFEC3900393E09FFF0E
:10291100900392E09EFEF0A3EFF090038BE024FE83
:10292100FDE434FFFC120C56900392EEF0A3EFF09D
:012931002283
:10353300602A04A300000000000000000000000057
:103543000000000000000000000000000000000078
:0E35530000000000000000000000000000006A
:102EBE00900385EBF0A3EAF0A3E9F0900003120B68
:102ECE00E3FF900381E0FBA3E0FAA3E0F9A3E0FEA9
:102EDE00F582758300EF120C22900385E0FBA3E0D0
:102EEE00FAA3E0F9900002120BE3FFEE2401FDE4D9
:102EFE0033FC900381E0FBA3E0FAA3E0F98D828C12
:102F0E0083EF120C22900385E0FBA3E0FAA3E0F915
:102F1E00900001120BE3FFEE2402FDE433FC90035C
:102F2E0081E0FBA3E0FAA3E0F98D828C83EF120C13
:102F3E0022900385E0FBA3E0FAA3E0F9120BCAFF8F
:102F4E00EE2403FDE433FC900381E0FBA3E0FAA33F
:0A2F5E00E0F98D828C83EF020C2253
:103AF000900377E090037DF0122932E4900378F090
:103B0000900377E0FF123011900378E0FEC39F50DE
:103B10001774A32EF582E43404F583E0FF123CD43D
:083B2000900378E004F080D866
:013B2800227A
:10293200900379120E8E90037DE0FFD3940A400338
:10294200022A65EF7003022A65EF14B40A004003FD
:10295200022A6590296375F003A4C58325F0C58317
:10296200730229810229970229AE0229C50229DCB4
:102972000229F2022A08022A1E022A34022A4A9054
:1029820003817401F0A37404F0A374A3F0A374018F
:10299200F0FB022A5E9003817401F0A37404F0A399
:1029A20074A3F0A37405F07B01022A5E9003817484
:1029B20001F0A37404F0A374A3F0A37409F07B01E3
:1029C200022A5E9003817401F0A37404F0A374A33D
:1029D200F0A3740DF07B01022A5E9003817401F072
:1029E200A37404F0A374A3F0A37411F07B01806CB0
:1029F2009003817401F0A37404F0A374A3F0A37490
:102A020015F07B0180569003817401F0A37404F0E9
:102A1200A374A3F0A37419F07B0180409003817426
:102A220001F0A37404F0A374A3F0A3741DF07B015E
:102A3200802A9003817401F0A37404F0A374A3F0BC
:102A4200A37421F07B0180149003817401F0A374BC
:102A520004F0A374A3F0A37425F07B017A037979BF
:042A6200122EBE2250
:10301100EFD3940A5003EF70037F00229004A3744E
:1030210024F0EF14B40A0040030230B390303B7532
:10303100F003A4C58325F0C58373023059023062C1
:1030410002306B02307402307D02308602308F0212
:1030510030980230A10230AA9004A87405F07F06CE
:10306100229004AC7409F07F0A229004B0740DF030
:103071007F0E229004B47411F07F12229004B87470
:1030810015F07F16229004BC7419F07F1A22900467
:10309100C0741DF07F1E229004C47421F07F22228F
:1030A1009004C87425F07F26229004CC7429F07F07
:0530B1002A227F00222D
:104376009005ACEEF0A3EFF0A3EBF0A3EAF0A3E90F
:02438600F02223
:08356100C100C101C102C10358
:103F130090029F7478F0E490029EF07B017A02791C
:0E3F23009E7F0212206BD2A3D2A4D2A5D2A6FA
:013F3100226D
:0A447800EF4E7005EE4F24FFB32253
:103FCB00EF24F0600F24F0600E24E0600D243870B5
:0D3FDB000BA20022A20122A20222A20322B8
:1038F500A2A3E4FE33FF124478500EA2A3E433FFE3
:103905001244785006D2008002C200A2A4E4FE331D
:10391500FF1244785007200106D2018002C201A29D
:10392500A5E4FE33FF1244785007200206D2028038
:1039350002C202A2A6E4FE33FF1244785006200319
:0739450005D20322C2032298
:02356900C10A95
:103C0C0090029F7405F0E490029EF07B017A027999
:103C1C009E7F0512206B1244C67FC81244231244A7
:073C2C00CB7FC8124423D333
:013C3300226E
:0544C600C2CDD20A2264
:0544CB00D2CDC20A225F
:103D6A0090028CEFF090028CE0FF14F0EF601212D8
:103D7A0044C67FC81244231244CB7FC8124423800E
:023D8A00E42231
:0344D400A20A2217
:0644A8009005CFEFF022A9
:1031F2009005B1EFF07F337E337D737C3FA3E0F81F
:10320200A3E0F9A3E0FAA3E0FB120A9E600C400AD5
:103212009005B2120E9A3F7333337FCD7ECC7D4C34
:103222007C3D9005B2E0F8A3E0F9A3E0FAA3E0FB4D
:10323200120A9E500A9005B2120E9A3D4CCCCD90C5
:1032420005B1E02404FFC007A3E0FCA3E0FDA3E076
:10325200FEA3E0FF9002B1120E8ED007122B9790C0
:1032620005B2E0FCA3E0FDA3E0FEA3E0FF120B49E0
:103272009005B1E025E024BBF582E43405F583EF47
:02328200F02238
:103F8F009005D0EFF02404FF123C349005D0E025CB
:0E3F9F00E024BAF582E43405F5837401F022C3
:103FE8009005D1EFF02404FF123D209005D1E02583
:0D3FF800E024BAF582E43405F583E4F022FC
:10441300EF25E024BAF582E43405F583E024FF2296
:1036A400E4900533F0A37408F07B017A0579337F45
:1036B4000212206B9005347404F07B017A0579338F
:1036C4007F0212206BD2A2D2A343BA80E4900535C4
:1036D400F0A3F0A3F0A304F0E4A3F0A3F0A3F0A3F9
:1036E400F0A3F0A3F0A3F0A3F0A3F0A3F0A3F0A33E
:1036F400F07B017A0579357F021215E17B017A05A9
:0A37040079357F031215E153BA7FF7
:01370E002298
:05222F009004CDEFF06A
:10223400E49004DCF0A37480F07B017A0479DC7F01
:102244000312206BD2B743BA80E49004DEF0A3F00B
:10225400A3F0A304F0E4A3F0A3F0A3F0A3F0A3F08D
:10226400A3F0A3740FF0E4A3F0A3F0A3F0A3F0A3EE
:10227400F07B017A0479DEFF1215E153BA7F7D10F9
:10228400E4FF1243F17D327C00E4FF1237DC90045A
:10229400CEE0FCA3E0FDA3E0FEA3E0FF9004CDE0CC
:1022A400FB75F01FA4240FF582E43404F583120EA9
:1022B4008E9004D2E0FCA3E0FDA3E0FEA3E0FFEBDC
:1022C40075F01FA42413F582E43404F583120E8EF2
:1022D4009004D6E0FCA3E0FDA3E0FEA3E0FFEB75D1
:1022E400F01FA4241FF582E43404F583120E8E90AB
:1022F40004DAE0FEA3E0FFEB75F01FA42419F582D5
:10230400E43404F583EEF0A3EFF0EB75F01FA4249E
:102314000FF582E43404F583E0F8A3E0F9A3E0FACE
:10232400A3E0FB9004CDE075F01FA42413F582E430
:102334003404F583E0FCA3E0FDA3E0FEA3E0FF1278
:102344000803120B497C037DE8120C449004CDE091
:10235400FB75F01FA42419F582E43404F583E0FC32
:10236400A3E0FD120C56EB75F01FA42417F582E4CC
:102374003404F583EEF0A3EFF09004CDE075F01F84
:10238400A42419F582E43404F583E0FCA3E0FDE41D
:10239400120B10A804A905AA06AB079004CDE0759A
:1023A400F01FA4241FF582E43404F583E0FCA3E0C9
:1023B400FDA3E0FEA3E0FF120A019004CDE0FB754B
:1023C400F01FA42423F582E43404F583120E8EEB6B
:1023D40075F01FA4241BF582E43404F583120E9ACD
:0423E40000000000F5
:0123E80022D2
:052C8B00900563EFF06D
:102C9000A3E0FCA3E0FDA3E0FEA3E0FF900563E05A
:102CA000FB75F01FA4240AF582E43404F583120EA8
:102CB0008EEB75F01FA42423F582E43404F583E041
:102CC000F8A3E0F9A3E0FAA3E0FB900564E0FCA31D
:102CD000E0FDA3E0FEA3E0FF120A01120B499005FC
:102CE00063E075F01FA42417F582E43404F583E053
:102CF000FCA3E0FD120C44AC06AD07E4120B10E49B
:102D0000FBFAF9783F120807E4FBFA79A078411240
:102D10000A01900568120E8E900568E0FCA3E0FDA4
:102D2000A3E0FEA3E0FF9002B1120E8EE4FF122B8F
:102D300097900563E0FB75F01FA4240AF582E43444
:102D400004F583E0FCA3E0FDA3E0FEA3E0FFEB7548
:0F2D5000F01FA4241BF582E43404F583020E8ED9
:1041ED00EF75F01FA4241BF582E43404F583E0FC85
:0A41FD00A3E0FDA3E0FEA3E0FF2213
:103E73009005D2EFF0123C349005D2E075F01FA408
:103E83002427F582E43404F583E4F0A304F0D32279
:103F32009005D3EFF0123D209005D3E075F01FA459
:0F3F42002427F582E43404F583E4F0A3F0D322BE
:1031590090029FEFF075F00DA424F9F582E4340490
:10316900F583E0FEA3E0FF7C007D63120C56EF249B
:1031790001FFE43EFE9002A4E0FD7C00120C44AA8B
:1031890006AB0790029FE075F00DA424F9F582E4DF
:103199003404F583E0FEA3E0FF7D63120C56C3EB14
:1031A9009FFDEA9EFCC004C0059004F8E0FCE4120F
:1031B9000B159002A0E0F8A3E0F9A3E0FAA3E0FB65
:1031C9001208F89004F4E0F8A3E0F9A3E0FAA3E008
:1031D900FB120A01120B49AB07AA0690029FE0FFF6
:0931E900D005D00412389BD3225A
:103B290090029EEBF0C007AE04AF057C017D6812E0
:103B39000C44AC06AD07E4120B109002A0120E8ED5
:0F3B490090029EE09002A4F0D007123159D322CF
:10438800EF75F00DA424F0F582E43404F583E024FD
:02439800FF2202
:10405C009005D4EFF0123EB39005D4E075F00DA4AA
:0C406C0024F0F582E43404F583E4F02233
:1040050090029EEFF0123E9390029EE075F00DA493
:0D40150024F0F582E43404F5837401F022F8
:1040E8009004F4120E9A3FE666669004F87408F09D
:0B40F800A3741AF0A37486F002370FC7
:0F44330074C22FF582E43405F5837401F0D322AF
:0E44420074C22FF582E43405F583E4F0D32232
:0144E00022B9
:1040780090029EEFF0A3EDF0A37401F0E4A3F0A387
:0C408800F0A3F07B017A02799E02394C13
:10362A00E4900387F0300863F0E4FF12383D90031A
:10363A0087E025E02473F582E43403F583EEF0A3F2
:10364A00EFF0900387E004F0E0C3940A40DB7B01CB
:10365A007A03797390038C7404F0A3E4F0A3F0A3C3
:10366A00F07D0A1227FCAC06AD07E4120B10900598
:10367A006C120E8E90056CE0FCA3E0FDA3E0FEA3A5
:10368A00E0FFA3120E8E90056C8003900570E0FC9B
:09369A00A3E0FDA3E0FEA3E0FFA4
:0136A3002204
:104094009005D5EFF0D2C87F011244239005D5E0F6
:0C40A400F5C0D2CA7F01124423C2CA2218
:103B58009005C5EBF0A3EAF0A3E9F09005C5E0FBFA
:103B6800A3E0FAA3E0F9120BCAFFD39400400F12A6
:0F3B780040949005C6E475F001120CAB80DD227D
:10402200123FADD2CCC2CAC2C97F381240B07F0C97
:0D4032001240B07F061240B07F010240B086
:1040B00090029EEFF0C2C87F01124423D2CA900240
:0C40C0009EE0F5C07F01124423C2CA221A
:103FAD0053C9EF43CA1053C9FE53CAFE53C9FD533B
:0E3FBD00CAFD53C9FB53CAFBE4F5B3F5B422A9
:084288009005BEECF0A3EDF07F
:10429000E4A3F0A3EFF07B017A0579C0E4FF0220EC
:0142A0006BB2
:0543E0009005D6EFF08E
:0B43E500E4FF00000FEFB408F9000037
:0143F00022AA
:05356B004205740000A0
:10389B009002A5EFF0A3ECF0A3EDF0A3EAF0A3EBFD
:1038AB00F09002A6E0FCA3E0FD7F051237DC90024E
:1038BB00A6E0FEA3E0FF9002A5E0FD75F005A424B1
:1038CB0078F582E43405F583EEF0A3EFF09002A8CF
:1038DB00E0FEA3E0FFED75F005A42476F582E43459
:0A38EB0005F583EEF0A3EFF0D32201
:103E930090029FEFF07F05123C3490029FE075F093
:103EA30005A4247AF582E43405F5837401F0D32262
:103EB3009005D7EFF02405FF123D209005D7E0755C
:103EC300F005A4247AF582E43405F583E4F0D322E3
:10439A00EF75F005A4247AF582E43405F583E02468
:0243AA00FF22F0
:10370F00E490029EF0A37480F07B017A02799E7F91
:10371F000112206BD2979002B1120E9A3F00000057
:10372F007F05122B9743BA80E49002A0F0A3F0A379
:10373F00F0A304F0E4A3F0A3F0A3F0A3F0A3F0A38D
:10374F00F0A3740FF0E4A3F0A304F0E4A3F0A30438
:10375F00F0E4A3F07B017A0279A07F051215E15303
:09376F00BA7F7D107F050243F1D1
:0300B30002377899
:10377800C0E0C0F0C083C082C0D075D000C000C017
:1037880001C002C003C004C005C006C00753F6BF8D
:10379800E5F6602553F6DF900574E475F001120C28
:1037A800C1FED3900577E095F0900576E09E50092C
:1037B800E4F0A3F07F05123D20D007D006D005D055
:1037C80004D003D002D001D000D0D0D082D083D092
:0437D800F0D0E0321B
:10394C00120BCAF59D900001120BE3FFE5BC549FCE
:10395C004FF5BC900002120BE3B4010543BC808010
:10396C000353BC7F900003120BE3B4010543972073
:10397C0080035397DF900005120BE3B40104D2AD22
:10398C008002C2AD900004120BE3B40103D2BD223D
:03399C00C2BD2287
:0C446C00EFB4010443BC802253BC7F224B
:10383D00EFD3940740028051E4F5BDF5BEE5BC54CD
:10384D00E044084FF5BC00000000E4FBE5BC30E4AB
:10385D003353BCEFE59730E509E5BD5403ADBEFC30
:10386D00801DAFBD7C00AD07ED7E007802C333CE69
:10387D0033CED8F9FFE5BE5403FDEEFCEF4DFDAFA1
:0D388D0005AE04220BEBB4FAC37E047F00ED
:01389A00220B
:03002B000244D0BC
:0444D00053BCEF32B8
:0F4423007D367C07ED1D70011C144C70F7DFF126
:014432002267
:0344D700A20B2213
:10206B00EFD3940540037F0122120BCAFED39403D6
:10207B0040037F0222EF7041EE700B900001120BB8
:10208B00E3F452935294120BCAB4010B9000011259
:10209B000BE34293F45294120BCAFEB4020A900063
:1020AB0001120BE342934294EEB4030D9000011224
:1020BB000BE3FEF45293EE4294EF64017043120B68
:1020CB00CAFE700B900001120BE3F452915292EE88
:1020DB00B4010B900001120BE34291F45292120BDC
:1020EB00CAB4020A900001120BE342914292120B06
:1020FB00CAB4030D900001120BE3FEF45291EE42B1
:10210B0092EF64027043120BCAFE700B9000011227
:10211B000BE3F452955296EEB4010B900001120BA7
:10212B00E34295F45296120BCAB4020A90000112C4
:10213B000BE342954296120BCAB4030D90000112A9
:10214B000BE3FEF45295EE4296EF64037043120BD1
:10215B00CAFE700B900001120BE3F452B152B2EEB7
:10216B00B4010B900001120BE342B1F452B2120B0B
:10217B00CAB4020A900001120BE342B142B2120B35
:10218B00CAB4030D900001120BE3FEF452B1EE4200
:10219B00B2EF64047043120BCAFE700B9000011275
:1021AB000BE3F452B352B4EEB4010B900001120BDB
:1021BB00E342B3F452B4120BCAB4020A90000112F8
:1021CB000BE342B342B4120BCAB4030D90000112DD
:1021DB000BE3FEF452B3EE42B4EF64057043120B03
:1021EB00CAFF700B900001120BE3F452C952CAEFF5
:1021FB00B4010B900001120BE342C9F452CA120B4B
:10220B00CAB4020A900001120BE342C942CA120B74
:10221B00CAB4030D900001120BE3FFF452C9EF4255
:04222B00CA7F002244
:102E1000EF7034D3ED9498EC940340047C037D98D8
:102E2000C3ED9450EC940050047C007D50C2DE90C1
:102E30000527ECF0A3EDF0C374E89D900522F07433
:102E4000039C9005218073EF64017034D3ED946886
:102E5000EC940B40047C0B7D68C3ED9450EC940023
:102E600050047C007D50C2DE900529ECF0A3EDF00B
:102E7000C374B89D900524F0740B9C900523803A90
:102E8000EF64027038D3ED9480EC940740047C0723
:102E90007D80C3ED9450EC940050047C007D50C2C2
:102EA000DE90052BECF0A3EDF0AE04FFC374D09FD1
:0E2EB000900526F074079E900525F0D2DE22D4
:1023E9009005C8EBF0A3EAF0A3E9F0AD07EDD394AB
:1023F900034003022587ED6403704CC2DEF5F9F54D
:10240900E99005C8E0FBA3E0FAA3E0F9120BCAFFC3
:10241900E5A254CF4FF5A2900001120BE3FFE5D9D5
:1024290054F14FF5D9900004120BE35401FFE5D99B
:1024390054FE4FF5D9900005120BE3B40104D2BF45
:102449008002C2BFD2DE229005C8E0FBA3E0FAA356
:10245900E02404F9E43AFA120BCA5431120C109030
:1024690005C8E0FBA3E0FAA3E0F9900002120BE330
:10247900C39448400FE92404F9E43AFA120BCA5408
:10248900CF120C10ED704F9005C8E0FBA3E0FAA342
:10249900E0F9900004120BE3FF900002120BE3FE37
:1024A9004FF5DA900003120BE3FFE5F2543F4FF5C5
:1024B900F2900006120CD7FBAAF0900527EAF0A3C8
:1024C900EBF0C20490051EEEF090052DEAF0A3EBA7
:1024D900F0F5EAEAF5FAED6401704F9005C8E0FB02
:1024E900A3E0FAA3E0F9900004120BE3FF900002C5
:1024F900120BE3FE4FF5DB900003120BE3FFE5F34C
:10250900543F4FF5F3900006120CD7FBAAF0900543
:1025190029EAF0A3EBF0C20590051FEEF090052F14
:10252900EAF0A3EBF0F5EBEAF5FBED6402704F90EE
:1025390005C8E0FBA3E0FAA3E0F9900004120BE35D
:10254900FF900002120BE3FE4FF5DC900003120B23
:10255900E3FFE5F4543F4FF5F4900006120CD7FD64
:10256900ACF090052BECF0A3EDF0C206900520EE3F
:0F257900F0900531ECF0A3EDF0F5ECECF5FC2261
:102588009005CCECF0A3EDF09005CBEFF0705ED3A6
:10259800EB9464EA940040047A007B64C3EB9401F2
:1025A800EA940050047A007B01C2DE9005CCE0FE7C
:1025B800A3E0FFAD03AC02120C447C007D64120C56
:1025C80056900527EEF0A3EFF07C007D64AF03AED4
:1025D80002120C56C374019FFFE49EFE9005CCE0E6
:1025E800FCA3E0FD120C449005210226BD9005CB0A
:1025F800E06401705DD3EB9464EA940040047A00CF
:102608007B64C3EB9401EA940050047A007B01C216
:10261800DE7C007D64AF03AE02120C569005CCE060
:10262800FCA3E0FD120C44900529EEF0A3EFF07C2A
:10263800007D64AF03AE02120C56C374019FFFE421
:102648009EFE9005CCE0FCA3E0FD120C449005230F
:1026580080639005CBE064027062D3EB9464EA94E3
:102668000040047A007B64C3EB9401EA94005004B0
:102678007A007B01C2DE7C007D64AF03AE02120CDF
:10268800569005CCE0FCA3E0FD120C4490052BEE1F
:10269800F0A3EFF0AE02AF037C007D64120C56C3CA
:1026A80074019FFFE49EFE9005CCE0FCA3E0FD12C0
:0D26B8000C44900525EEF0A3EFF0D2DE22D9
:03003B000230B6DA
:1030B600C0E0C083C082C0D075D000C006C0073053
:1030C600D82AC2D830A5059005278003900521E0AF
:1030D600FEA3E0FF90052EE02FF090052DE03EF0D8
:1030E60090052DE0FEA3E0F5EAEEF5FA30D92AC206
:1030F600D930A6059005298003900523E0FEA3E0BC
:10310600FF900530E02FF090052FE03EF090052F60
:10311600E0FEA3E0F5EBEEF5FB30DA2AC2DA30A7E3
:103126000590052B8003900525E0FEA3E0FF9005A2
:1031360032E02FF0900531E03EF0900531E0FEA33D
:10314600E0F5ECEEF5FCD007D006D0D0D082D083E7
:03315600D0E03294
:0515E1009002B0EFF0E4
:1015E600E4A3F09002B1E0FFC39406505AEF75F001
:1015F6000AA42467F582E43404F583120E9A0000E7
:1016060000009002B1E0FF75F00AA4246BF582E4B5
:101616003404F583E4F0EF75F00AA4246CF582E453
:101626003404F583120E9A000000009002B1E075B2
:10163600F00AA42470F582E43404F5837401F09072
:1016460002B1E004F0809C43BA80120BCAB40105D3
:1016560043F180800353F17F900001120BE3B40144
:10166600149002B0E0FF7401A807088002C333D8C3
:10167600FC42F180139002B0E0FF7401A8070880D5
:1016860002C333D8FCF452F1900002120BE3B4010A
:101696000543F540800353F5BF900003120BE3B4F6
:1016A60001149002B0E0FF7401A807088002C3335A
:1016B600D8FC42F580139002B0E0FF7401A8070839
:1016C6008002C333D8FCF452F5900004120BE3B445
:1016D600010575F720800353F7DF900005120BE331
:1016E600B4010575F710800353F7EF900006120B4F
:1016F600E3B4010575F708800353F7F79000071266
:101706000BE3B4010575F704800353F7FB9000085B
:10171600120BE3B4010575F702800353F7FD900041
:1017260009120BE390FFF27006E054EFF08004E03C
:101736004410F090FFF2C083C082E0FF90000A12CE
:101746000BE3FEEF4ED082D083F09002B0E014603F
:101756007214700302181C14700302186F147003BD
:101766000218C21470030219132405600302196AD1
:1017760090000B120BE390FF047006E054F7F08024
:1017860004E04408F090000C120BE390FF04B4014F
:1017960006E04404F08004E054FBF090000D120BC8
:1017A600E390FF04B40106E04402F08004E054FD37
:1017B600F090000E120BE390FF04B40103021960CF
:1017C60002196690000B120BE390FF147006E054AA
:1017D600F7F08004E04408F090000C120BE390FF51
:1017E60014B40106E04404F08004E054FBF09000D9
:1017F6000D120BE390FF14B40106E04402F08004DE
:10180600E054FDF090000E120BE390FF14B40103B8
:1018160002196002196690000B120BE390FF247008
:1018260006E054F7F08004E04408F090000C120B38
:10183600E390FF24B40106E04404F08004E054FB86
:10184600F090000D120BE390FF24B40106E0440271
:10185600F08004E054FDF090000E120BE390FF249C
:10186600B4010302196002196690000B120BE39093
:10187600FF347006E054F7F08004E04408F090006E
:101886000C120BE390FF34B40106E04404F080042C
:10189600E054FBF090000D120BE390FF34B4010608
:1018A600E04402F08004E054FDF090000E120BE3D9
:1018B60090FF34B4010302196002196690000B12FE
:1018C6000BE390FF447006E054F7F08004E0440810
:1018D600F090000C120BE390FF44B40106E04404C0
:1018E600F08004E054FBF090000D120BE390FF44EF
:1018F600B40106E04402F08004E054FDF090000ECE
:10190600120BE390FF44B40102804F805390000B0A
:10191600120BE390FF547006E054F7F08004E044A5
:1019260008F090000C120BE390FF54B40106E0445B
:1019360004F08004E054FBF090000D120BE390FFDE
:1019460054B40106E04402F08004E054FDF0900037
:101956000E120BE390FF54B40106E04401F080043C
:10196600E054FEF090000F120BE3B4010443F5803F
:041976002253F57F84
:01197A00224A
:10420700EF75F00AA42467F582E43404F583E0FC33
:0A421700A3E0FDA3E0FEA3E0FF22F8
:10422100EF75F00AA4246CF582E43404F583E0FC14
:0A423100A3E0FDA3E0FEA3E0FF22DE
:1037DC009002AAECF0A3EDF0AB079002AAE0FEA3D6
:1037EC00E0FFE4FCFDEB75F00AA42467F582E434F9
:1037FC0004F583120E8E43BA8053F57FEB75F00AF5
:10380C00A42470F582E43404F583E0FF7E0090027A
:10381C00AAE0FCA3E0FD120C44AB07AA06E4F9F8FD
:10382C00FF7E367D6E7C01123A2E1242D253BA7F45
:01383C002269
:102B97009002B0EFF07F337E337D737C3FA3E0F884
:102BA700A3E0F9A3E0FAA3E0FB120A9E600C400A37
:102BB7009002B1120E9A3F7333337FCD7ECC7D4C9A
:102BC7007C3D9002B1E0F8A3E0F9A3E0FAA3E0FBB3
:102BD700120A9E500A9002B1120E9A3D4CCCCD902B
:102BE70002B1E0FCA3E0FDA3E0FEA3E0FF9002B08A
:102BF700E0FB75F00AA4246CF582E43404F5831233
:102C07000E8E43BA80AF03C007EB75F00AA4247099
:102C1700F582E43404F583E0FFE4FCFDFEEB75F098
:102C27000AA42467F582E43404F583E0F8A3E0F905
:102C3700A3E0FAA3E0FB120D0FA804A905AA06ABAF
:102C4700077F007E367D6E7C01120D9AE4120B0B16
:102C57009002B0E075F00AA4246CF582E43404F520
:102C670083E0F8A3E0F9A3E0FAA3E0FB1208F81267
:102C77000B499002B8120E8ED007E4FDFC1226C550
:042C870053BA7F229B
:1043F100EF75F00AA42470F582E43404F583EDF03E
:014401002298
:10440200EF75F00AA42470F582E43404F583E0FF2A
:014412002287
:0A44820043BA8043F58053BA7F224D
:0A448C0043BA8053F57F53BA7F2234
:103C340043BA807401A807088002C333D8FC42F554
:103C4400EF75F00AA4246BF582E43404F58374015F
:083C5400F043F58053BA7F2212
:103D200043BA807401A807088002C333D8FCF45258
:103D3000F5EF75F00AA4246BF582E43404F583E40E
:053D4000F053BA7F22E0
:1043AC00EF75F00AA4246BF582E43404F583E02461
:0243BC00FF22DE
:1042D200D3E49F74809E400D90FFF1EFF0EE90FFCB
:0842E200F0F07F00227F0122B1
:1026C500EF14604A14607514700302276F147003C9
:1026D50002279C1470030227C9240560030227F909
:1026E50090FF01EDF0EC90FF00F09002B8A3A3A3DA
:1026F500E090FF03F09002B8E0FCA3E0FDA3E0FE4C
:10270500A3E0FF7808120E4B90FF020227F490FF1A
:1027150011EDF0EC90FF10F09002B8A3A3A3E090A8
:10272500FF13F09002B8E0FCA3E0FDA3E0FEA3E0F8
:10273500FF7808120E4B90FF120227F490FF21ED4F
:10274500F0EC90FF20F09002B8A3A3A3E090FF2344
:10275500F09002B8E0FCA3E0FDA3E0FEA3E0FF7863
:1027650008120E4B90FF220227F490FF31EDF0EC9A
:1027750090FF30F09002B8A3A3A3E090FF33F09050
:1027850002B8E0FCA3E0FDA3E0FEA3E0FF78081299
:102795000E4B90FF32805890FF41EDF0EC90FF40DA
:1027A500F09002B8A3A3A3E090FF43F09002B8E035
:1027B500FCA3E0FDA3E0FEA3E0FF7808120E4B901A
:1027C500FF42802B90FF51EDF0EC90FF50F090020E
:1027D500B8A3A3A3E090FF53F09002B8E0FCA3E0F8
:1027E500FDA3E0FEA3E0FF7808120E4B90FF52EF29
:0727F500F07F00227F0122AA
:102D5F0054696D65723120696E697469616C697A45
:102D6F00696E672073756363656564200A00546933
:102D7F006D65723120696E697469616C697A696E0B
:102D8F0067206661696C6564200A0054696D65721D
:102D9F003320696E697469616C697A696E67207333
:102DAF00756363656564200A0054696D657233202D
:102DBF00696E697469616C697A696E6720666169A9
:102DCF006C6564200A0054696D65723420696E6900
:102DDF007469616C697A696E672073756363656581
:102DEF0064200A0054696D65723420696E697469D4
:102DFF00616C697A696E67206661696C6564200A27
:012E0F0000C2
:1035700041050F02410510024205110000420513EA
:10358000000042050B0000420509000041051D0036
:103590004105080041050E0041050D0044051500D8
:0A35A00000000044051900000000BF
:102F6800E4900555F0900545F0A3F0A304F0E4A320
:102F7800F0A3F090054CF090054A74A2F0A37440B9
:102F8800F0E490054DF0A3F0A304F0E4A3F0A3F05F
:102F980090055404F090055274FFF0A37410F07F6C
:102FA80001121C5E900555EFF070087BFF7A2D79B1
:102FB8005F800A900555E07BFF7A2D797D1242EA01
:102FC8007F03121C5E900555EFF070087BFF7A2D89
:102FD800799A800A900555E07BFF7A2D79B81242DC
:102FE800EA7B017A05794D7F04121C64900555EF40
:102FF800F070087BFF7A2D79D5800A900555E07B23
:08300800FF7A2D79F31242EA70
:01301000229D
:103D450090050FE0601EA3E0601AEF24FE600B04EF
:103D55007012900515ECF0A3EDF0AF05900519EC88
:053D6500F0A3EFF022C5
:10423B00EF24FE600804700E90051580039005199D
:0A424B00E0FEA3E0FF22E4FEFF22E4
:1040CC00EF24FE600C047013900517ECF0A3EDF0D8
:0C40DC0022AF0590051BECF0A3EFF022D2
:10425500EF24FE600804700E900517800390051B7F
:0A426500E0FEA3E0FF22E4FEFF22CA
:1042A100EF24FE600A047010C28E90050F80065341
:0942B100D1F79005107402F0220F
:10403F00EF24FE600D04701490050FE07002D32280
:0D404F00C322900510E07003D38001C3224E
:103F5100EF24FE600E04701690050FE0B40102D349
:0F3F610022C322900510E0B40103D38001C322D4
:103F7000EF24FE600E04701690050FE0B40202D329
:0F3F800022C322900510E0B40203D38001C322B4
:103ED300AE0712403F4018EF24FE600B047010D26F
:103EE3008EE490050FF02243D108E4900510F022F0
:0E445000AE07123F515005123ED3D322C322B5
:0944960090050BE0FEA3E0FF22FB
:09449F00900509E0FEA3E0FF22F4
:0644AE0090051DE0FF2255
:0644B400900508E0FF2264
:0644BA0090050EE0FF2258
:0644C00090050DE0FF2253
:03001B000239E7C0
:1039E700C0E0C0F0C083C082C0D075D000C000C0A6
:1039F70006900511E475F001120CABFED390051685
:103A0700E095F0900515E09E500EC28E900511E4EA
:103A1700F0A3F090050F04F0D006D000D0D0D082EC
:073A2700D083D0F0D0E032A3
:03009B0002399F88
:10399F00C0E0C0F0C083C082C0D075D000C000C0EE
:1039AF0006900513E475F001120CABFED390051AC7
:1039BF00E095F0900519E09E500F53D1F790051345
:1039CF00E4F0A3F090051004F0D006D000D0D0D0D2
:0839DF0082D083D0F0D0E03269
:0300A30002331015
:10331000C0E0C0F0C083C082C0D075D000C000C083
:1033200006C2AF90050BE475F00A120CABFEC3E5C4
:10333000F094E8EE9403405190050BE4F0A3F09074
:10334000050975F001120CABFEC3E5F094E8EE94AC
:10335000034036900509E4F0A3F090051DE004F069
:10336000943C4025E4F0900508E004F0943C4019BA
:10337000E4F090050EE004F09418400DE4F09005A0
:103380000DE004F0B4FF02E4F0D2AFD006D000D0DC
:0A339000D0D082D083D0F0D0E0321C
:061C5E007B017A057945C7
:101C6400AD07EDD3940440037F0122ED7073120B92
:101C7400CAFED3940340037F0222C28CC2A9C2B914
:101C84005389F0538E7F538FFE900002120BE3B4FE
:101C94000102D2A9900001120BE3B40102D2B9EE01
:101CA4004289900003120BE3FF7003438E80EFB46C
:101CB4000203438904900004120BE3B40103438F2D
:101CC40001900005120CD7E5F0F58C900005120C7C
:101CD400D7F58A900007120BE3B40102D28C7F007F
:101CE40022ED64017076120BCAFEC3940340037F95
:101CF4000222C28EC2ABC2BB53890F538EBF538F15
:101D0400FD900002120BE3B40102D2AB9000011269
:101D14000BE3B40102D2BBEEC454F0428990000339
:101D2400120BE3FF7003438E40EFB4020343894078
:101D3400900004120BE3B40103438F0290000512D8
:101D44000CD7E5F0F58D900005120CD7F58B9000BB
:101D540007120BE3B40102D28E7F0022ED640270FD
:101D640063900003120BE3FED3940240037F02222C
:101D7400538EE353AFFB538FFB900002120BE3B47B
:101D8400010343AF04EE7003438E04900003120B6F
:101D9400E3B40203438E08900004120BE3B401037E
:101DA400438F04900005120CD7E5F0F5D69000059A
:101DB400120CD7F5D7900007120BE3B40103438E3E
:101DC400107F0022ED64037060900003120BE3FEA9
:101DD400D3940240037F022253D1F053AFDF90002B
:101DE40002120BE3B4010343AF20EE700343D102AC
:101DF400900003120BE3B4020343D10690000412D3
:101E04000BE3B4010343D101900005120CD7E5F0B4
:101E1400F5D4900005120CD7F5D5900007120BE30A
:101E2400B4010343D1087F0022ED6404705C900088
:101E340003120BE3FED3940240037F022253D10F1B
:101E440053AFBF900002120BE3B4010343AF40EE63
:101E5400700343D120900003120BE3B4020343D177
:101E640060900004120BE3B4010343D11090000509
:101E7400120CD7FDACF0ECF5D28DD3900007120B09
:0D1E8400E3B4010343D1807F00227F0222DE
:100F01009002ACEBF0A3EAF0A3E9F09002ABEFF0B2
:100F11006401600302111390000004F0E4A3F0A344
:100F2100F0A3F0A3F0A3F0A3F09002AFF09002AF12
:100F3100E0FFC39480501474382FF582E43401F536
:100F410083E4F09002AFE004F080E2E49002AFF0BD
:100F51009002AFE0FFC394805014741C2FF582E41B
:100F61003400F583E4F09002AFE004F080E29002F7
:100F7100ACE0FBA3E0FAA3E0F9120BCAD394C040A2
:100F8100037F022290000A120BE3B40104D2BC8059
:100F910002C2BC120BCAFFE598543F4FF598EF64AB
:100FA100C06008EF6440600302108D900002120ED1
:100FB1005E7F807E8D7D5B7C00120D9A9002B01267
:100FC1000E8EE4FFFE7D01FC9002B0E0F8A3E0F993
:100FD100A3E0FAA3E0FBC3120E3A40037F02229082
:100FE10002B0E0F8A3E0F9A3E0FAA3E0FBC3E49BBD
:100FF100FFE49AFE740199FDE498FC9002B0120E90
:101001008E9002ACE0FBA3E0FAA3E0F9900001129C
:101011000BE3FB64017038C28E538EFE5389BF53BC
:1010210089CF438E409002B0E0FCA3E0FDA3E0FE37
:10103100A3E0FF7808120E4B8F8D9002B0A3A3A3FB
:10104100E0F58BC2AB5389BF538FFDD28E8076EB17
:1010510064027035538EEF438E01538EF7438E0435
:101061009002B0E0FCA3E0FDA3E0FEA3E0FF78085E
:10107100120E4B8FD69002B0A3A3A3E0F5D753AFC6
:10108100FB538EF7438E10803C7F02229002ACE02E
:10109100FBA3E0FAA3E0F9120BCAFF70139000085A
:1010A100120BE3B40105438E20801A538EDF8015A5
:1010B100EFB48011900008120BE3B401054387805F
:1010C100800353877F9002ACE0FBA3E0FAA3E0F931
:1010D100900009120BE3B40104D2AC8002C2AC90BF
:1010E1000007120BE3B40104D29C8002C29C900061
:1010F1000B120BE354C0FFE5A2543F4FF5A2900041
:101101000C120BE3B4010543971080035397EF7F53
:1011110000229002ABE064026003021275900007A6
:101121007402F0E4A3F0A3F0A3F0A3F0A3F0A3F002
:101131009002AFF09002AFE0FFC39480501474D4DA
:101141002FF582E43401F583E4F09002AFE004F07E
:1011510080E2E49002AFF09002AFE0FFC3948050D0
:1011610014749C2FF582E43400F583E4F09002AF0F
:10117100E004F080E29002ACE0FBA3E0FAA3E0F926
:10118100120BCAFF64C06008EF64406003021235AD
:1011910090000A120BE3B4010543B501800353B576
:1011A100FE120BCAB4C005439A808003539A7F9004
:1011B1000002120E5E7F807E8D7D5B7C00120D9A97
:1011C1009002B0120E8EE4FFFE7D01FC9002B0E0B1
:1011D100F8A3E0F9A3E0FAA3E0FBC3120E3A40033F
:1011E1007F02229002B0E0F8A3E0F9A3E0FAA3E0C5
:1011F100FBC3E49BFFE49AFE740199FDE498FC9023
:1012010002B0120E8E538EEF538EF7438E0490026E
:10121100B0E0FCA3E0FDA3E0FEA3E0FF7808120E1E
:101221004B8FD69002B0A3A3A3E0F5D753AFFB43F6
:101231008E1080037F02229002ACE0FBA3E0FAA3B0
:10124100E0F9900009120BE3B4010543AF018003FB
:1012510053AFFE900007120BE3B40105439A1080CF
:1012610003539AEF90000B120BE35401FFE5BA54BC
:10127100FE4FF5BA9002ABE06403600302142890BC
:10128100000E7402F0E4A3F0A3F0A3F0A3F0A3F026
:10129100A3F09002AFF09002AFE0FFC3941C501492
:1012A10074542FF582E43402F583E4F09002AFE048
:1012B10004F080E2E49002AFF09002AFE0FFC3944B
:1012C1001C5014741C2FF582E43401F583E4F09072
:1012D10002AFE004F080E29002ACE0FBA3E0FAA3ED
:1012E100E0F9120BCAFF64C06008EF6440600302BA
:1012F10013E853ACDFEFB4C00543AC80800353ACBB
:101301007F9002ACE0FBA3E0FAA3E0F990000212A7
:101311000E5E7F807E8D7D5B7C00120D9A9002B007
:10132100120E8EE4FFFE7D01FC9002B0E0F8A3E016
:10133100F9A3E0FAA3E0FBC3120E3A40037F0222B5
:101341009002B0E0F8A3E0F9A3E0FAA3E0FBC3E464
:101351009BFFE49AFE740199FDE498FC9002B0129F
:101361000E8E9002ACE0FBA3E0FAA3E0F99000013D
:10137100120BE3FB6402703253ACBF538EEF538EFA
:10138100F7438E049002B0E0FCA3E0FDA3E0FEA3CE
:10139100E0FF7808120E4B8FD69002B0A3A3A3E012
:1013A100F5D753AFFB438E108040EB64017035439A
:1013B100AC4053D1F053AFDF43D10253D1FB53D1F2
:1013C100FE9002B0E0FCA3E0FDA3E0FEA3E0FF7805
:1013D10008120E4B8FD49002B0A3A3A3E0F5D5431E
:1013E100D10880067F02227F02229002ACE0FBA39B
:1013F100E0FAA3E0F9900009120BE3B4010543AF51
:1014010008800353AFF7900007120BE3B4010543C3
:10141100AC10800353ACEF90000B120BE35402FFAE
:10142100E5BA54FD0215D89002ABE06404600302F2
:1014310015DE9000157402F0E4A3F0A3F0A3F0A36D
:10144100F0A3F0A3F09002AFF09002AFE0FFC394DD
:101451001C501474702FF582E43402F583E4F0908B
:1014610002AFE004F080E2E49002AFF09002AFE05E
:10147100FFC3941C501474B82FF582E43401F58332
:10148100E4F09002AFE004F080E29002ACE0FBA354
:10149100E0FAA3E0F9120BCAFF64C06008EF6440F0
:1014A100600302159B5384DFEFB4C0054384808041
:1014B1000353847F9002ACE0FBA3E0FAA3E0F99030
:1014C1000002120E5E7F807E8D7D5B7C00120D9A84
:1014D1009002B0120E8EE4FFFE7D01FC9002B0E09E
:1014E100F8A3E0F9A3E0FAA3E0FBC3120E3A40032C
:1014F1007F02229002B0E0F8A3E0F9A3E0FAA3E0B2
:10150100FBC3E49BFFE49AFE740199FDE498FC900F
:1015110002B0120E8E9002ACE0FBA3E0FAA3E0F958
:10152100900001120BE3FB640270325384BF538EAF
:10153100EF538EF7438E049002B0E0FCA3E0FDA3CD
:10154100E0FEA3E0FF7808120E4B8FD69002B0A305
:10155100A3A3E0F5D753AFFB438E108040EB6402A9
:10156100703543844053D10F53AFBF43D12053D182
:10157100BF53D1EF9002B0E0FCA3E0FDA3E0FEA3D6
:10158100E0FF7808120E4B8FD29002B0A3A3A3E024
:10159100F5D343D18080067F02227F02229002ACE4
:1015A100E0FBA3E0FAA3E0F9900009120BE3B40118
:1015B1000543AF10800353AFEF900007120BE3B464
:1015C100010543841080035384EF90000B120BE359
:0F15D1005404FFE5BA54FB4FF5BA7F00227F03A5
:0115E00022E8
:103CD400900002E02438F582E43401F583EFF0909B
:103CE4000002E004F0C394804002E4F0900003E09A
:073CF400700404F0D29922D4
:103C5C00900009E024D4F582E43401F583EFF09070
:103C6C000009E004F0C394804002E4F090000AE004
:083C7C00700504F0439A0222D6
:103C8400900010E02454F582E43402F583EFF090C0
:103C94000010E004F0C3941C4002E4F0900011E032
:083CA400700504F043AC02229C
:103CAC00900017E02470F582E43402F583EFF09075
:103CBC000017E004F0C3941C4002E4F0900018E0FC
:083CCC00700504F0438402229C
:1042EA00C2AF120BCAFF600C123CD4740129F9E464
:0742FA003AFA80EED2AF2278
:10432B00120BCAFF600C123C5C740129F9E43AFAD7
:03433B0080EE22EF
:10433E00120BCAFF600C123C84740129F9E43AFA9C
:03434E0080EE22DC
:10435100120BCAFF600C123CAC740129F9E43AFA61
:0343610080EE22C9
:030023000235ABF8
:1035AB00C0E0C083C082C0D075D000C006C0073059
:1035BB00982DC298900006E07025900004E0C3940B
:1035CB00804002E4F0900004E0FF04F0741C2FF53F
:1035DB0082E43400F583E599F09000057405F03032
:1035EB009930C299900002E0FF900001E0FE6F60FD
:1035FB001C74382EF582E43401F583E0F5999000C4
:10360B0001E004F0C394804009E4F08005900003CE
:0F361B00E4F0D007D006D0D0D082D083D0E032F8
:0300430002339AEB
:10339A00C0E0C083C082C0D075D000C006C007E5B7
:1033AA009A30E02E539AFE90000DE0702590000BA3
:1033BA00E0C394804002E4F090000BE0FF04F07454
:1033CA009C2FF582E43400F583E59BF090000C74A1
:1033DA0005F0E59A30E131539AFD900009E0FF903B
:1033EA000008E0FE6F601C74D42EF582E43401F507
:1033FA0083E0F59B900008E004F0C394804009E460
:10340A00F0800590000AE4F0D007D006D0D0D08230
:05341A00D083D0E03278
:03008B0002341F1D
:10341F00C0E0C083C082C0D075D000C006C007E531
:10342F00AC30E02E53ACFE900014E07025900012EB
:10343F00E0C3941C4002E4F0900012E0FF04F0742B
:10344F001C2FF582E43401F583E5ADF09000137481
:10345F0005F0E5AC30E13153ACFD900010E0FF908A
:10346F00000FE0FE6F601C74542EF582E43402F5F9
:10347F0083E0F5AD90000FE004F0C3941C4009E425
:10348F00F08005900011E4F0D007D006D0D0D082A4
:05349F00D083D0E032F3
:030093000234A490
:1034A400C0E0C083C082C0D075D000C006C007E5AC
:1034B4008430E02E5384FE90001BE07025900019A8
:1034C400E0C3941C4002E4F0900019E0FF04F0749F
:1034D400B82FF582E43401F583E585F090001A7481
:1034E40005F0E58430E1315384FD900017E0FF904E
:1034F4000016E0FE6F601C74542EF582E43402F56D
:1035040083E0F585900016E004F0C3941C4009E4C0
:10351400F08005900018E4F0D007D006D0D0D08217
:05352400D083D0E0326D
:0E445E00E4F5C7F5C5F5C675C3FF75C4FF22AA
:103A7200AD07AC06C2AF75C78075C501ECF5C3AF23
:103A8200058FC475C65A75C6A500E5C2120C100D85
:103A9200BD00010C740129F9E43AFA90058074FF23
:0F3AA200F5F0120CAB45F070D312445ED2AF2298
:103EF300AD07AC06C2AFECF5C3AF058FC475C78081
:103F030075C50375C65A75C6A50012445ED2AF22A5
:103AB100AD07AC06C2AF75C78075C502ECF5C3AFE3
:103AC100058FC4120BCAF5C275C65A75C6A5000D7D
:103AD100BD00010C740129F9E43AFA90058774FFDD
:0F3AE100F5F0120CAB45F070D312445ED2AF2259
:101AED00EFD3940940037FFF2274232F2FF8E620B4
:101AFD00E5F4C2AFE64430F6D2AFAE0CEEC39F5064
:101B0D00210E740E2EF8E6F908E618BE090274FFD0
:101B1D00FDED69600909E71919F7090980F3161632
:101B2D0080DAEED39F400405810581EED39F4022DC
:101B3D00740E2EF808E6F9EEB50C02A9811806060A
:101B4D00E6FDED6960091919E70909F71980F31E1A
:101B5D0080D9EF240EF8E604F8EF2F049043179385
:091B6D00F608EF2F93F67F002229
:101B7600EFD3940940037FFF22EF232423F8E630B6
:101B8600E5F4C2AFE6548CF6D2AFE50CB5070A749D
:101B96000E2FF8E6F5810219F6502E740F2FF8E68F
:101BA600BF090274FFFD18E6F9740E2FF8FBE6FC78
:101BB600E96C6008A805E7F61D1980F4A803A605D8
:101BC6001FE50CB507E37F0022740F2FF8E6FD181A
:101BD60086010F740E2FF8A601088604E50CB507DA
:101BE60002AC81ED6C60080D09A805E6F780F4E506
:091BF6000CB507DE89817F002295
:101BFF008FF0E4FFFEE50C232422F8C2A930F70D85
:101C0F007F08E6600B2DF660325030800730F1060A
:101C1F00EDF660277E020830F010C2AFE610E72520
:101C2F000E30E20CD2AF7F048014C2AFE610E7157E
:101C3F0054EC4EF6D2AFD2A90219F67F0808EF4442
:0F1C4F0083F4C2AF56C6D2AFD2A954804FFF2242
:10080000020BB5E86480F8E933E83360110460F066
:10081000ED33EC337009E8FCE9FDEAFEEBFF22045E
:1008200060DED3EB9FEA9EE99DE8C2E78CF0C2F759
:1008300095F0400CE8CCF8E9CDF9EACEFAEBCFFB25
:10084000120B8085D0F05804700320D5B3E80470F3
:10085000075002B2D5020BBF92D5EC0460F7E4CC8E
:10086000C0E0C398F8603B94186008400DD0E0FBEE
:10087000020B97E4FBFAC9FC8028E830E406E4C9DF
:10088000FBE4CAFCE830E305E4C9CACBFCE8540742
:100890006010F8C3E913F9EA13FAEB13FBEC13FC4D
:1008A000D8F130F52FC3E49CFCEF9BFFEE9AFEEDF0
:1008B00099FDD0E0FBEF4E4D4C701222DB03020B92
:1008C000BCEC2CFCEF33FFEE33FEED33FDED30E7F7
:1008D000EB020B97EF2BFFEE3AFEED39FDD0E0FB7C
:1008E00050130BBB0003020BBFED13FDEE13FEEF25
:0808F00013FFEC13FC020B974F
:1008F800EC4D6011E8497017ED33EC3304600DE4FA
:10090800FCFFFEFD22E933E8330470F8020BB51250
:100918000B8058046009E4CC248150062850090251
:100928000BBF284003020BBCC0E0EB4A7044B980FF
:1009380006D0E0FB020BABEF4E701CBD8008EBFF4E
:10094800EAFEE9FD80EBE98DF0A4FEE5F00209E19D
:10095800E9CDF9EAFEEBFFEF89F0A4FCE5F0CE89DA
:10096800F0A42EFFE435F0CD89F0A42DFEE435F097
:100978008067EF4E7005BD80D780C3EF8BF0A4ACC5
:10098800F0EE8BF0A42CFCE435F0F8EF8AF0A42C00
:10099800E5F038FCE433CB8DF0A42CFCE5F03BF813
:1009A800EE8AF0A42CFCE5F038F8E433CF89F0A403
:1009B8002CFCE5F038CF3400CE89F0A42FFFE5F009
:1009C8003EFEE433C98DF0A42EFEE5F039CD8AF061
:1009D800A42FFFE5F03EFEE43DFD33D0E0FB5007D9
:1009E8000BBB000F020BBFEC2CFCEF33FFEE33FE0A
:0609F800ED33FD020B9738
:1009FE00020BBFEC5D046005E859047003020BB5F1
:100A0E00120B80580460F6EC4860F2EC7004FDFEA8
:100A1E00FF22C860DB2481C85009C39860025006CB
:100A2E00020BBC9850CAF582E9294B4A7005AB827D
:100A3E00020BAB75F0007C1A7880C3EF9BEE9AED3B
:100A4E0099400DC3EF9BFFEE9AFEED99FDE842F043
:100A5E00DC23ACF0D0E0FFD0E0FED0E0FDAB822096
:100A6E00E7101BEB60BAEC2CFCEF33FFEE33FEED20
:100A7E0033FD020B97E803F830E705C0F075F00080
:100A8E00EF2FFFEE33FEED33FD40B830E7C280AA04
:100A9E0074F8CC6480CCC86480C8F582046043C30B
:100AAE00EB9FF5F0EA9E42F0E99D42F0E89C45F09E
:100ABE0060305018E5825FFFE582F42B5582FB50C3
:100ACE00210ABA001D09B90019088016E5825BFBE0
:100ADE00E582F42F5582FF50090EBE00050DBD00B4
:100AEE00010CC3EB9FF5F0EA9E42F0E99D42F0E85F
:0D0AFE009C45F06007CC4820E701B3EC22D6
:100B0B0075F020800E75F010800575F0087D007E65
:100B1B00007F003392D530D503120E2CEC334010EE
:100B2B00EF33FFEE33FEED33FDEC33FCD5F0ED226E
:0E0B3B00E5F0247EA2D513CC92E7CDCEFF22AA
:100B4900EDD2E7CD33EC3392D524814006E4FFFEA4
:100B5900FDFC22FCE4CFCECDCC24E0501174FF8003
:100B6900EDC3CC13CCCD13CDCE13CECF13CF0470A0
:070B7900F030D5DE020E2C66
:100B8000E9D2E7C933E833F892D5EDD2E7CD33ECBB
:070B900033FC5002B2D52234
:100B9700EC30E7100FBF000C0EBE00080DBD0004BF
:100BA7000BEB6014A2D5EB13FCED92E7FD2274FF6B
:100BB700FCFDFEFF22E480F8A2D574FF13FC7D80C4
:030BC700E480EFD8
:0300000002328445
:0C328400787FE4F6D8FD7581350232CB6E
:100BCA00BB010689828A83E0225002E722BBFE0229
:090BDA00E32289828A83E493225C
:100BE300BB010CE58229F582E5833AF583E02250C7
:100BF30006E92582F8E622BBFE06E92582F8E22211
:0D0C0300E58229F582E5833AF583E493222A
:100C1000BB010689828A83F0225002F722BBFE01C3
:020C2000F322BD
:100C2200F8BB010DE58229F582E5833AF583E8F008
:100C3200225006E92582C8F622BBFE05E92582C8B4
:020C4200F2229C
:100C4400EF8DF0A4A8F0CF8CF0A428CE8DF0A42EC4
:020C5400FE227E
:100C5600BC000BBE0029EF8DF084FFADF022E4CC82
:100C6600F875F008EF2FFFEE33FEEC33FCEE9DEC4B
:100C7600984005FCEE9DFE0FD5F0E9E4CEFD22ED91
:100C8600F8F5F0EE8420D21CFEADF075F008EF2FDB
:100C9600FFED33FD4007985006D5F0F222C398FDCC
:050CA6000FD5F0EA2269
:100CAB00C5F0F8A3E028F0C5F0F8E58215827002D4
:060CBB001583E038F02271
:100CC100A3F8E0C5F025F0F0E582158270021583E6
:060CD100E0C838F0E82243
:100CD700BB0110E58229F582E5833AF583E0F5F05B
:100CE700A3E0225009E92582F886F008E622BBFE38
:100CF7000AE92582F8E2F5F008E222E5832AF5837E
:080D0700E993F5F0A3E9932242
:100D0F00E88FF0A4CC8BF0A42CFCE98EF0A42CFC83
:100D1F008AF0EDA42CFCEA8EF0A4CDA8F08BF0A401
:100D2F002DCC3825F0FDE98FF0A42CCD35F0FCEB60
:100D3F008EF0A4FEA9F0EB8FF0A4CFC5F02ECD3925
:0F0D4F00FEE43CFCEAA42DCE35F0FDE43CFC2292
:100D5E0075F008758200EF2FFFEE33FECD33CDCC4C
:100D6E0033CCC58233C5829BED9AEC99E5829840CF
:100D7E000CF582EE9BFEED9AFDEC99FC0FD5F0D6AC
:100D8E00E4CEFBE4CDFAE4CCF9A88222B800C1B9D6
:100D9E000059BA002DEC8BF084CFCECDFCE5F0CB14
:100DAE00F97818EF2FFFEE33FEED33FDEC33FCEB4D
:100DBE0033FB10D703994004EB99FB0FD8E5E4F908
:100DCE00FA227818EF2FFFEE33FEED33FDEC33FCF5
:100DDE00C933C910D7059BE99A4007EC9BFCE99AE9
:100DEE00F90FD8E0E4C9FAE4CCFB2275F010EF2F2E
:100DFE00FFEE33FEED33FDCC33CCC833C810D7072E
:100E0E009BEC9AE899400AED9BFDEC9AFCE899F868
:0E0E1E000FD5F0DAE4CDFBE4CCFAE4C8F922FB
:103A2E00C2D5E830E70FB2D5E4C39BFBE49AFAE4C3
:103A3E0099F9E498F8EC30E717B2D5123A64120D02
:103A4E009AE4C39BFBE49AFAE499F9E498F88003AC
:103A5E00120D9A30D50DE4C39FFFE49EFEE49DFD4A
:043A6E00E49CFC22B6
:0E0E2C00C3E49FFFE49EFEE49DFDE49CFC22D7
:100E3A00EB9FF5F0EA9E42F0E99D42F0E89C45F00E
:010E4A002285
:100E4B00E8600FECC313FCED13FDEE13FEEF13FF85
:030E5B00D8F122A9
:100E5E00BB010DE58229F582E5833AF583020ED8B2
:100E6E005007E92582F8020ECBBBFE07E92582F872
:100E7E00020EE4E58229F582E5833AF583020EF14E
:0C0E8E00ECF0A3EDF0A3EEF0A3EFF022D7
:100E9A00A8828583F0D083D082120EB1120EB112CD
:100EAA000EB1120EB1E473E493A3C583C5F0C583F2
:100EBA00C8C582C8F0A3C583C5F0C583C8C582C8A2
:010ECA002205
:10329000021AB0E493A3F8E493A34003F68001F28A
:1032A00008DFF48029E493A3F85407240CC8C3333F
:1032B000C4540F4420C8834004F456800146F6DF0E
:1032C000E4800B0102040810204080903529E47E40
:1032D000019360BCA3FF543F30E509541FFEE49303
:1032E000A360010ECF54C025E060A840B8E493A3CA
:1032F000FAE493A3F8E493A3C8C582C8CAC583CAF5
:10330000F0A3C8C582C8CAC583CADFE9DEE780BEAC
:0135AA000020
:0D0ECB00E6FB08E6F908E6FA08E6CBF82297
:0C0ED800E0F8A3E0F9A3E0FAA3E0FB229D
:0D0EE400E2FB08E2F908E2FA08E2CBF8228E
:100EF100E493F8740193F9740293FA740393FB2257
:00000001FF
