:023D7E003E0FF6
:023D80003B0AFC
:023D82003E29D8
:023D84003655B2
:023D880038C63B
:023D8A00352BD7
:023D8C003C8277
:023D8E003901F9
:023D90003C4AAB
:1034B8004D494C4C4953206973202564200A2073D8
:1034C80065636F6E6473206973202564200A206D1C
:1034D800696E757465732069732025640A00636FCB
:1034E800756E74313D25642C0A20636F756E7432D5
:1034F8003D25642C0A20636F756E74333D25642C5A
:103508000A20636F756E74353D25642C0A200054BB
:1035180061736B2025642069732072756E6E696E05
:03352800670A002F
:10306D004205B800004205BA00004205BC0000420E
:10307D0005BE00004205C000004205B40000420537
:03308D00B600008A
:0D3E0F00123D397F03122105E4FF02218ED0
:103B0A009005B8E475F001120E5DAFF0FEE4FCFD1D
:103B1A00FBFA7901F8D3120F8750E5E49005B8F063
:043B2A00A3F080DCA8
:0C3E29007F04123B527F0212218E80F4B5
:10365500123E73C007C006123E97C007C006123E51
:103665009D900267EEF0A3EFF0900265D0E0F0A325
:10367500D0E0F0900263D0E0F0A3D0E0F0900260DB
:1036850074FFF0A37434F0A374B8F07B017A007969
:103695003F1217EF7B017A00793F123D67E4FBFA91
:0936A5007D0A7F8012221A80A721
:1038C6009000D3120FFD000000009005C0E475F0D3
:1038D60001120E5DAFF0FEE4FCFDFBFA7901F8D3B0
:1038E600120F875007E49005C0F0A3F01235F8E4F4
:0B38F600FBFA7D057F8012221A80CFB4
:10352B00E4900203F0A3F090026074FFF0A37434F4
:10353B00F0A374E6F09005B8E0FFA3E0900263CF30
:10354B00F0A3EFF09005BAE0FFA3E0900265CFF097
:10355B00A3EFF09005BCE0FFA3E0900267CFF0A3D0
:10356B00EFF09005C0E0FFA3E0900269CFF0A3EF6E
:10357B00F07B017A0079D71217EF7B017A0079D7AC
:0F358B00123D67E4FBFA7DE87F8012221A8098D8
:103C82007F08123C105005123EAF8003123EB4E48E
:0B3C9200FBFA7D0A7F8012221A80E5F9
:10390100122217900263EFF090026074FFF0A3742B
:1039110035F0A37417F07B017A0279351217EF7B2A
:10392100017A027935123D67E4FBFA7D0A7F801244
:04393100221A80CC0A
:103C4A00123EAFE4FBFA7DE87F8012221A123EB4DC
:0C3C5A00E4FBFA7D647F8012221A80E4F3
:1036AE009005D77401F07F337E337DF77C42122A6A
:1036BE00839005D77402F07F007EC07D0D7C44128E
:1036CE002A837F02122F259005EBEFF0E49005EA96
:1036DE00F09005EBE0FF9005EAE0FEC39F501774F3
:1036EE004F2EF582E43405F583E0FF123A2890055B
:0636FE00EAE004F080DBAD
:0137040022A2
:103935009000007440F0A37402F0A3120FF1900000
:10394500077401F0E4A3F0A304F0A3F0E4A3F0A34B
:0C395500F07B017A0079007F010210AACB
:103D39007F007EC27D017C00123935122E7C12393A
:073D490061123B94D2AF228E
:013EC30022DC
:013EC40022DB
:013EC50022DA
:013EC60022D9
:013EC70022D8
:03000B00021F9839
:101F9300C2AF80FE32121F9785D00B75D008AAE01E
:101FA300C28CE58A24F7F58AE58C34D8F58CD28C7B
:101FB300EC247AF8E6BC090274FFC39581B41400DB
:101FC30040CE790A786516E608700BC2AFE630E1B9
:101FD300034418F6D2AF08D9EDEA8BD030220122A0
:101FE300D50DFCC0E0C0D0C0F0C083C082C000C02B
:101FF30001C002C003C004C005C006C007E50C232E
:102003002466F87440C2AF46F6D2AFD222E50CFF85
:10201300232466F80F0808BF0A047F007866E630B9
:10202300E4F200E50CC39F5020050C7479250CF8ED
:10203300E6FDA68108E6AE0CBE090274FFCDF8E802
:102043006D60E008E6C0E080F6E50CD39F4027E52D
:102053000C247AF8E6AE0CBE090274FFFD18E6CD37
:10206300F8E5816D6006D0E0F61880F5E50C24797B
:10207300C8F6150C80D3750D05E50C232466F87F8F
:1020830004C2AFE610E61E30E00310E20C7F00301E
:10209300E10730E3047F0854F4547CC6D2AF548084
:1020A3004207C22222F6D2AFD007D006D005D00411
:1020B300D003D002D001D000D082D083D0F0D0D0D2
:0E20C300D0E0C222227879A68174096006FF5F
:1020D1000876FFDFFB7F0AE47865F608F608DFFA89
:1020E10078667630903D7E740193C0E0E493C0E061
:1020F100750D05438901758AF0758CD8D28CD2AFE4
:04210100D2A9220934
:10309000602A054F00000000000000000000000052
:1030A0000000000000000000000000000000000020
:0E30B000000000000000000000000000000012
:102DD2009005C9EBF0A3EAF0A3E9F0900003120D0D
:102DE20095FF9005C5E0FBA3E0FAA3E0F9A3E0FE9E
:102DF200F582758300EF120DD49005C9E0FBA3E0C4
:102E0200FAA3E0F9900002120D95FFEE2401FDE411
:102E120033FC9005C5E0FBA3E0FAA3E0F98D828CB8
:102E220083EF120DD49005C9E0FBA3E0FAA3E0F909
:102E3200900001120D95FFEE2402FDE433FC900593
:102E4200C5E0FBA3E0FAA3E0F98D828C83EF120DBB
:102E5200D49005C9E0FBA3E0FAA3E0F9120D7CFFD0
:102E6200EE2403FDE433FC9005C5E0FBA3E0FAA3E6
:0A2E7200E0F98D828C83EF020DD48D
:102A83009005D3120FF19005D7E0FFD3940A4003CA
:102A9300022BB6EF7003022BB6EF14B40A00400307
:102AA300022BB6902AB475F003A4C58325F0C58321
:102AB30073022AD2022AE8022AFF022B16022B2DC6
:102AC300022B43022B59022B6F022B85022B9B9067
:102AD30005C57401F0A37405F0A3744FF0A374014A
:102AE300F0FB022BAF9005C57401F0A37405F0A3AE
:102AF300744FF0A37405F07B01022BAF9005C574EE
:102B030001F0A37405F0A3744FF0A37409F07B01E3
:102B1300022BAF9005C57401F0A37405F0A3744FA5
:102B2300F0A3740DF07B01022BAF9005C57401F087
:102B3300A37405F0A3744FF0A37411F07B01806CB0
:102B43009005C57401F0A37405F0A3744FF0A3744A
:102B530015F07B0180569005C57401F0A37405F050
:102B6300A3744FF0A37419F07B0180409005C574E2
:102B730001F0A37405F0A3744FF0A3741DF07B015F
:102B8300802A9005C57401F0A37405F0A3744FF077
:102B9300A37421F07B0180149005C57401F0A37424
:102BA30005F0A3744FF0A37425F07B017A0579D364
:042BB300122DD222EB
:102F2500EFD3940A5003EF70037F002290054F748E
:102F350024F0EF14B40A004003022FC7902F4F75F9
:102F4500F003A4C58325F0C58373022F6D022F7688
:102F5500022F7F022F88022F91022F9A022FA302A0
:102F65002FAC022FB5022FBE9005547405F07F06D5
:102F7500229005587409F07F0A2290055C740DF0C3
:102F85007F0E229005607411F07F12229005647403
:102F950015F07F16229005687419F07F1A229005A6
:102FA5006C741DF07F1E229005707421F07F222223
:102FB5009005747425F07F26229005787429F07F9A
:052FC5002A227F00221A
:0830BE00C11BC11CC11DC11E94
:103B94009000017478F0E4900000F07B017A0079E1
:0E3BA400007F021224ACD2A3D2A4D2A5D2A6D6
:013BB20022F0
:0A3E4C00EF4E7005EE4F24FFB32285
:103C1000EF24F0600F24F0600E24E0600D24387073
:0D3C20000BA21B22A21C22A21D22A21E220A
:1035F800A2A3E4FE33FF123E4C50147F0A123DF1A1
:10360800A2A3E4FE33FF123E4C5006D21B8002C236
:103618001BA2A4E4FE33FF123E4C5007201C06D226
:103628001C8002C21CA2A5E4FE33FF123E4C5007C8
:10363800201D06D21D8002C21DA2A6E4FE33FF1281
:0D3648003E4C5006201E05D21E22C21E223E
:0230C600C12324
:103961009000017405F0E4900000F07B017A007989
:10397100007F051224AC123EAF7FC8123DF1123E0A
:07398100B47FC8123DF1D331
:01398800221C
:053EAF00C2CDD2232268
:053EB400D2CDC2232263
:103B520090003EEFF090003EE0FF14F0EF60121292
:103B62003EAF7FC8123DF1123EB47FC8123DF180D4
:023B7200E4224B
:033EBD00A223221B
:063E91009005EEEFF022A7
:0D3E1C009005E1EDF0A3EAF0A3EBF0D32256
:073E7C009005EFEFF0D322E7
:073E83009005F0EFF0D322DF
:073E8A009005F1EFF0D322D7
:0300B300023EC842
:013EC80032C7
:0300BB00023EC939
:013EC90032C6
:10383C0043BA80E49005A4F0A3F0A3F0A304F0E451
:10384C00A3F0A3F0A3F0A3F0A3F0A3F0A3F0A3F0D4
:10385C00A304F0E4A3F0A304F0E4A3F07B017A0545
:10386C0079A47F04121C0D7B017A0579A47F0512C3
:05387C001C0D53BA7F92
:013881002224
:10375A00120D7CF59D900001120D95FFE5BC549F5A
:10376A004FF5BC900002120D95B4010543BC808050
:10377A000353BC7F900003120D95B40105439720B3
:10378A0080035397DF900005120D95B40104D2AD62
:10379A008002C2AD900004120D95B40103D2BD227D
:0337AA00C2BD227B
:0C3E3500EFB4010443BC802253BC7F2288
:10359A00EFD3940740028051E4F5BDF5BEE5BC5473
:1035AA00E044084FF5BC00000000E4FBE5BC30E451
:1035BA003353BCEFE59730E509E5BD5403ADBEFCD6
:1035CA00801DAFBD7C00AD07ED7E007802C333CE0F
:1035DA0033CED8F9FFE5BE5403FDEEFCEF4DFDAF47
:0D35EA0005AE04220BEBB4FAC37E047F0093
:0135F70022B1
:03002B00023EB9D9
:043EB90053BCEF32D5
:0F3DF1007D037C09ED1D70011C144C70F7DFF190
:013E0000229F
:033EC000A2242217
:1024AC00EFD3940540037F0122120D7CFED39403DD
:1024BC0040037F0222EF7041EE700B900001120D71
:1024CC0095F452935294120D7CB4010B90000112AE
:1024DC000D954293F45294120D7CFEB4020A9000B6
:1024EC0001120D9542934294EEB4030D900001122B
:1024FC000D95FEF45293EE4294EF64017043120D6D
:10250C007CFE700B900001120D95F452915292EEDC
:10251C00B4010B900001120D954291F45292120DE0
:10252C007CB4020A900001120D9542914292120D58
:10253C007CB4030D900001120D95FEF45291EE4205
:10254C0092EF64027043120D7CFE700B900001122E
:10255C000D95F452955296EEB4010B900001120DAC
:10256C00954295F45296120D7CB4020A9000011219
:10257C000D9542954296120D7CB4030D90000112FC
:10258C000D95FEF45295EE4296EF64037043120DD6
:10259C007CFE700B900001120D95F452B152B2EE0C
:1025AC00B4010B900001120D9542B1F452B2120D10
:1025BC007CB4020A900001120D9542B142B2120D88
:1025CC007CB4030D900001120D95FEF452B1EE4255
:1025DC00B2EF64047043120D7CFE700B900001127C
:1025EC000D95F452B352B4EEB4010B900001120DE0
:1025FC009542B3F452B4120D7CB4020A900001124D
:10260C000D9542B342B4120D7CB4030D900001122F
:10261C000D95FEF452B3EE42B4EF64057043120D07
:10262C007CFF700B900001120D95F452C952CAEF49
:10263C00B4010B900001120D9542C9F452CA120D4F
:10264C007CB4020A900001120D9542C942CA120DC7
:10265C007CB4030D900001120D95FFF452C9EF42AA
:04266C00CA7F0022FF
:102D2400EF7034D3ED9498EC940340047C037D98C5
:102D3400C3ED9450EC940050047C007D50C2DE90AE
:102D44000598ECF0A3EDF0C374E89D900593F0743E
:102D5400039C9005928073EF64017034D3ED946802
:102D6400EC940B40047C0B7D68C3ED9450EC940010
:102D740050047C007D50C2DE90059AECF0A3EDF087
:102D8400C374B89D900595F0740B9C900594803A9B
:102D9400EF64027038D3ED9480EC940740047C0710
:102DA4007D80C3ED9450EC940050047C007D50C2AF
:102DB400DE90059CECF0A3EDF0AE04FFC374D09F4D
:0E2DC400900597F074079E900596F0D2DE22DF
:102670009005E4EBF0A3EAF0A3E9F0AD07EDD39405
:1026800003400302280EED6403704CC2DEF5F9F539
:10269000E99005E4E0FBA3E0FAA3E0F9120D7CFF6A
:1026A000E5A254CF4FF5A2900001120D95FFE5D998
:1026B00054F14FF5D9900004120D955401FFE5D95E
:1026C00054FE4FF5D9900005120D95B40104D2BF08
:1026D0008002C2BFD2DE229005E4E0FBA3E0FAA3B1
:1026E000E02404F9E43AFA120D7C5431120DC29040
:1026F00005E4E0FBA3E0FAA3E0F9900002120D95D7
:10270000C39448400FE92404F9E43AFA120D7C54CA
:10271000CF120DC2ED704F9005E4E0FBA3E0FAA3E9
:10272000E0F9900004120D95FF900002120D95FE45
:102730004FF5DA900003120D95FFE5F2543F4FF587
:10274000F2900006120E73FBAAF0900598EAF0A32F
:10275000EBF0C21F90058FEEF090059EEAF0A3EB20
:10276000F0F5EAEAF5FAED6401704F9005E4E0FB5C
:10277000A3E0FAA3E0F9900004120D95FF90000287
:10278000120D95FE4FF5DB900003120D95FFE5F35A
:10279000543F4FF5F3900006120E73FBAAF090051C
:1027A0009AEAF0A3EBF0C220900590EEF09005A01D
:1027B000EAF0A3EBF0F5EBEAF5FBED6402704F9065
:1027C00005E4E0FBA3E0FAA3E0F9900004120D9504
:1027D000FF900002120D95FE4FF5DC900003120DE4
:1027E00095FFE5F4543F4FF5F4900006120E73FD8B
:1027F000ACF090059CECF0A3EDF0C221900591EEB9
:0F280000F09005A2ECF0A3EDF0F5ECECF5FC2266
:10280F009005E8ECF0A3EDF09005E7EFF0705ED3E4
:10281F00EB9464EA940040047A007B64C3EB940168
:10282F00EA940050047A007B01C2DE9005E8E0FED6
:10283F00A3E0FFAD03AC02120DF67C007D64120E17
:10284F0008900598EEF0A3EFF07C007D64AF03AE27
:10285F0002120E08C374019FFFE49EFE9005E8E08C
:10286F00FCA3E0FD120DF69005920229449005E7B6
:10287F00E06401705DD3EB9464EA940040047A0045
:10288F007B64C3EB9401EA940050047A007B01C28D
:10289F00DE7C007D64AF03AE02120E089005E8E007
:1028AF00FCA3E0FD120DF690059AEEF0A3EFF07C7D
:1028BF00007D64AF03AE02120E08C374019FFFE4E4
:1028CF009EFE9005E8E0FCA3E0FD120DF690059446
:1028DF0080639005E7E064027062D3EB9464EA943E
:1028EF000040047A007B64C3EB9401EA9400500427
:1028FF007A007B01C2DE7C007D64AF03AE02120E54
:10290F00089005E8E0FCA3E0FD120DF690059CEEA3
:10291F00F0A3EFF0AE02AF037C007D64120E08C38C
:10292F0074019FFFE49EFE9005E8E0FCA3E0FD121A
:0D293F000DF6900596EEF0A3EFF0D2DE222B
:03003B00022FCAC7
:102FCA00C0E0C083C082C0D075D000C006C0073040
:102FDA00D82AC2D830A5059005988003900592E0BA
:102FEA00FEA3E0FF90059FE02FF090059EE03EF0E3
:102FFA0090059EE0FEA3E0F5EAEEF5FA30D92AC282
:10300A00D930A60590059A8003900594E0FEA3E0C6
:10301A00FF9005A1E02FF09005A0E03EF09005A0FA
:10302A00E0FEA3E0F5EBEEF5FB30DA2AC2DA30A7D0
:10303A000590059C8003900596E0FEA3E0FF9005AD
:10304A00A3E02FF09005A2E03EF09005A2E0FEA3D7
:10305A00E0F5ECEEF5FCD007D006D0D0D082D083D4
:03306A00D0E03281
:051C0D009005ECEFF072
:101C1200E4A3F09005EDE0FFC394065046EF75F0A3
:101C220009A42419F582E43405F583120FFD00009E
:101C320000009005EDE0FF75F009A4241DF582E493
:101C42003405F583E4F0EF75F009A4241EF582E46F
:101C52003405F583120FFD000000009005EDE0044D
:101C6200F080B043BA80120D7CB4010543F180804C
:101C72000353F17F900001120D95B401149005EC0D
:101C8200E0FF7401A807088002C333D8FC42F18048
:101C9200139005ECE0FF7401A807088002C333D853
:101CA200FCF452F1900002120D95B4010543F54087
:101CB200800353F5BF900003120D95B401149005F3
:101CC200ECE0FF7401A807088002C333D8FC42F598
:101CD20080139005ECE0FF7401A807088002C3336B
:101CE200D8FCF452F5900004120D95B4010575F775
:101CF20020800353F7DF900005120D95B40105759E
:101D0200F710800353F7EF900006120D95B401050A
:101D120075F708800353F7F7900007120D95B40189
:101D22000575F704800353F7FB900008120D95B474
:101D3200010575F702800353F7FD900009120D9516
:101D420090FFF27006E054EFF08004E04410F0904F
:101D5200FFF2C083C082E0FF90000A120D95FEEFF1
:101D62004ED082D083F09005ECE0146072147003C0
:101D7200021E34147003021E87147003021EDA144A
:101D82007003021F2B24056003021F8290000B12B6
:101D92000D9590FF047006E054F7F08004E04408CB
:101DA200F090000C120D9590FF04B40106E044047B
:101DB200F08004E054FBF090000D120D9590FF04AA
:101DC200B40106E04402F08004E054FDF090000EFD
:101DD200120D9590FF04B40103021F78021F7E903A
:101DE200000B120D9590FF147006E054F7F080047A
:101DF200E04408F090000C120D9590FF14B4010617
:101E0200E04404F08004E054FBF090000D120D95C4
:101E120090FF14B40106E04402F08004E054FDF0A7
:101E220090000E120D9590FF14B40103021F780268
:101E32001F7E90000B120D9590FF247006E054F760
:101E4200F08004E04408F090000C120D9590FF24FD
:101E5200B40106E04404F08004E054FBF090000D6D
:101E6200120D9590FF24B40106E04402F08004E0D4
:101E720054FDF090000E120D9590FF24B401030260
:101E82001F78021F7E90000B120D9590FF34700692
:101E9200E054F7F08004E04408F090000C120D9535
:101EA20090FF34B40106E04404F08004E054FBF0F7
:101EB20090000D120D9590FF34B40106E04402F03B
:101EC2008004E054FDF090000E120D9590FF34B4A2
:101ED2000103021F78021F7E90000B120D9590FFE6
:101EE200447006E054F7F08004E04408F090000CDF
:101EF200120D9590FF44B40106E04404F08004E022
:101F020054FBF090000D120D9590FF44B40106E0D1
:101F12004402F08004E054FDF090000E120D959002
:101F2200FF44B40102804F805390000B120D959034
:101F3200FF547006E054F7F08004E04408F090008B
:101F42000C120D9590FF54B40106E04404F0800495
:101F5200E054FBF090000D120D9590FF54B4010671
:101F6200E04402F08004E054FDF090000E120D9562
:101F720090FF54B40106E04401F08004E054FEF006
:101F820090000F120D95B4010443F5802253F57FA2
:011F9200222C
:10294C00EF14604A1460751470030229F6147003B6
:10295C00022A23147003022A5024056003022A80E1
:10296C0090FF01EDF0EC90FF00F09005CFA3A3A336
:10297C00E090FF03F09005CFE0FCA3E0FDA3E0FEA8
:10298C00A3E0FF7808120FAE90FF02022A7B90FFA3
:10299C0011EDF0EC90FF10F09005CFA3A3A3E09005
:1029AC00FF13F09005CFE0FCA3E0FDA3E0FEA3E055
:1029BC00FF7808120FAE90FF12022A7B90FF21EDD8
:1029CC00F0EC90FF20F09005CFA3A3A3E090FF23A1
:1029DC00F09005CFE0FCA3E0FDA3E0FEA3E0FF78C0
:1029EC0008120FAE90FF22022A7B90FF31EDF0EC23
:1029FC0090FF30F09005CFA3A3A3E090FF33F090AD
:102A0C0005CFE0FCA3E0FDA3E0FEA3E0FF780812F5
:102A1C000FAE90FF32805890FF41EDF0EC90FF40EC
:102A2C00F09005CFA3A3A3E090FF43F09005CFE077
:102A3C00FCA3E0FDA3E0FEA3E0FF7808120FAE902C
:102A4C00FF42802B90FF51EDF0EC90FF50F0900581
:102A5C00CFA3A3A3E090FF53F09005CFE0FCA3E03D
:102A6C00FDA3E0FEA3E0FF7808120FAE90FF52EF3B
:072A7C00F07F00227F012220
:103CB800EF75F009A42419F582E43405F583E0FCD6
:0A3CC800A3E0FDA3E0FEA3E0FF224D
:103CD200EF75F009A4241EF582E43405F583E0FCB7
:0A3CE200A3E0FDA3E0FEA3E0FF2233
:103A7600AB07AA06D3E49B74809A4016E4FCFD903B
:103A86000519120FF190FFF1EBF0EA90FFF0F07FCD
:053A960000227F012267
:103A9B00AB07AA06E4FCFD900519120FF143BA809F
:103AAB00E4F9F87F807EC37DC97C01123882123A1B
:053ABB007653BA7F22E2
:102BB7009005D8EFF07F337E337D737C3FA3E0F839
:102BC700A3E0F9A3E0FAA3E0FB120906600C400AB0
:102BD7009005D9120FFD3F7333337FCD7ECC7D4CEB
:102BE7007C3D9005D9E0F8A3E0F9A3E0FAA3E0FB68
:102BF700120906500A9005D9120FFD3D4CCCCD9015
:102C070005D9E0FCA3E0FDA3E0FEA3E0FF9005D813
:102C1700E0FB75F009A4241EF582E43405F5831260
:102C27000FF143BA80AF03C007EB75F009A424196D
:102C3700F582E43405F583E0FCA3E0FDA3E0FEA301
:102C4700E0FFE41209739005D9E0F8A3E0F9A3E0E7
:102C5700FAA3E0FB1208001209B19005CF120FF199
:0C2C6700D007E4FDFC12294C53BA7F2278
:0A3E560043BA8043F58053BA7F227F
:0A3E600043BA8053F57F53BA7F2266
:103AC00043BA807401A807088002C333D8FC42F5CA
:103AD000EF75F009A4241DF582E43405F583740123
:053AE000F053BA7F2243
:103D500043BA80EF75F009A4241DF582E43405F51B
:073D600083E4F053BA7F2257
:103DDF00EF75F009A4241DF582E43405F583E02482
:023DEF00FF22B1
:10310300900001120D95B4010553CE7F800343CE89
:1031130080120D7CB4010543CE40800353CEBF9093
:103123000002120D95B4010543CE20800353CEDF78
:10313300900003120D95700553CEEF800343CE101C
:10314300900004120D95B4010543CE08800353CEBD
:10315300F7900005120D95700543CE04800353CEFE
:10316300FB900006120D95B4010543AF0280035393
:10317300AFFD900007120D955403FFE5CE54FC4FAD
:10318300F5CE900008120D95FFE5A254F34FF5A27A
:013193002219
:0B3E4100EF700453CEEF2243CE10229E
:103D92009005E0E02445F8A607E004F0C394204033
:043DA20002E4F02225
:103BB300EDD394205018E4FEEEC39D5011120D7CFA
:0E3BC300FF123D92740129F9E43AFA0E80EAED
:013BD10022D1
:103A01009005E0E0FF9005DEE06F601A7F01123E55
:103A1100419005DEE02445F8E6FFE004F0C3942080
:063A21004002E4F08FCF2B
:013A2700227C
:103B2E009005DFE0FF9005DDE0FEB507037F002284
:103B3E0074252EF8E6FF9005DDE004F0C3942040D6
:033B4E0002E4F09E
:013B51002251
:103C9D00AD07EDD3942040037F0022EDD394014076
:0A3CAD0006123B2E1D80F4123B2E80
:013CB70022EA
:03004B0002370574
:10370500C0E0C083C082C0D075D000C000C006C074
:10371500079005E0E0FF9005DEE0FE6F6025A3E081
:103725002425F8A6CFE004F0C394204002E4F07409
:10373500452EF8E6F5CF9005DEE004F0C394204071
:1037450002E4F075CDC0D007D006D000D0D0D0822D
:05375500D083D0E0323A
:102C730054696D65723120696E697469616C697A32
:102C8300696E672073756363656564200A00546920
:102C93006D65723120696E697469616C697A696EF8
:102CA30067206661696C6564200A0054696D65720A
:102CB3003320696E697469616C697A696E67207320
:102CC300756363656564200A0054696D657233201A
:102CD300696E697469616C697A696E672066616996
:102CE3006C6564200A0054696D65723420696E69ED
:102CF3007469616C697A696E67207375636365656E
:102D030064200A0054696D65723420696E697469C0
:102D1300616C697A696E67206661696C6564200A13
:012D230000AF
:1030C80041058002410581024205820000420584D3
:1030D800000042057C000042057A000041058E0090
:1030E8004105790041057F0041057E0044058600C1
:0A30F80000000044058A00000000FB
:093E6A0090057CE0FEA3E0FF22BC
:093E730090057AE0FEA3E0FF22B5
:063E970090058EE0FF2201
:063E9D00900579E0FF2210
:063EA30090057FE0FF2204
:063EA90090057EE0FF22FF
:102E7C00E4900010F0900000F0A3F0A304F0E4A3A1
:102E8C00F0A3F0900007F0900005748AF0A374D0C2
:102E9C00F0E4900008F0A3F0A304F0E4A3F0A3F096
:102EAC0090000F04F090000D74FEF0A374D4F07F2A
:102EBC0001122279900010EFF070087BFF7A2C79C8
:102ECC0073800A900010E07BFF7A2C7991123D6799
:102EDC007F03122279900010EFF070087BFF7A2CA0
:102EEC0079AE800A900010E07BFF7A2C79CC123DF1
:102EFC00677B017A0079087F0412227F900010EF23
:102F0C00F070087BFF7A2C79E9800A900010E07B46
:082F1C00FF7A2D7907123D67D1
:012F2400228A
:103C6600EF24FE600C047013900588ECF0A3EDF0D1
:0C3C760022AF0590058CECF0A3EFF022CB
:103CEC00EF24FE600804700E900588800390058C0C
:0A3CFC00E0FEA3E0FF22E4FEFF2239
:103AE500900580E0601EA3E0601AEF24FE600B04E1
:103AF5007012900586ECF0A3EDF0AF0590058AEC09
:053B0500F0A3EFF02227
:103D0600EF24FE600804700E900586800390058AF5
:0A3D1600E0FEA3E0FF22E4FEFF221E
:103D2000EF24FE600A047010C28E90058080065356
:093D3000D1F79005817402F02224
:103C2D00EF24FE600D047014900580E07002D32225
:0D3C3D00C322900581E07003D38001C322F3
:103BD200EF24FE600E047016900580E0B40102D35B
:0F3BE20022C322900581E0B40103D38001C322E6
:103BF100EF24FE600E047016900580E0B40202D33B
:0F3C010022C322900581E0B40203D38001C322C5
:103B7400AE07123C2D4018EF24FE600B047010D2E7
:103B84008EE4900580F02243D108E4900581F02270
:0E3E0100AE07123BD25005123B74D322C322EF
:03001B000237F5B4
:1037F500C0E0C0F0C083C082C0D075D000C000C09A
:1038050006900582E475F001120E5DFED3900587E2
:10381500E095F0900586E09E500EC28E900582E4FC
:10382500F0A3F090058004F0D006D000D0D0D0826F
:07383500D083D0F0D0E03297
:03009B000237AD7C
:1037AD00C0E0C0F0C083C082C0D075D000C000C0E2
:1037BD0006900584E475F001120E5DFED390058B25
:1037CD00E095F090058AE09E500F53D1F790058457
:1037DD00E4F0A3F090058104F0D006D000D0D0D055
:0837ED0082D083D0F0D0E0325D
:0300A30002322006
:10322000C0E0C0F0C083C082C0D075D000C000C074
:1032300006C2AF90057CE475F00A120E5DFEC3E590
:10324000F094E8EE9403405190057CE4F0A3F090F4
:10325000057A75F001120E5DFEC3E5F094E8EE9478
:1032600003403690057AE4F0A3F090058EE004F078
:10327000943C4025E4F0900579E004F0943C40193A
:10328000E4F090057FE004F09418400DE4F0900520
:103290007EE004F0B4FF02E4F0D2AFD006D000D05C
:0A32A000D0D082D083D0F0D0E0320D
:062279007B017A007900F0
:10227F00AD07EDD3940440037F0122ED7073120D6F
:10228F007CFED3940340037F0222C28CC2A9C2B941
:10229F005389F0538E7F538FFE900002120D95B429
:1022AF000102D2A9900001120D95B40102D2B9EE2C
:1022BF004289900003120D95FF7003438E80EFB497
:1022CF000203438904900004120D95B40103438F58
:1022DF0001900005120E73E5F0F58C900005120EBB
:1022EF0073F58A900007120D95B40102D28C7F000E
:1022FF0022ED64017076120D7CFEC3940340037FC0
:10230F000222C28EC2ABC2BB53890F538EBF538FF3
:10231F00FD900002120D95B40102D2AB9000011294
:10232F000D95B40102D2BBEEC454F0428990000364
:10233F00120D95FF7003438E40EFB40203438940A3
:10234F00900004120D95B40103438F029000051203
:10235F000E73E5F0F58D900005120E73F58B90005E
:10236F0007120D95B40102D28E7F0022ED64027028
:10237F0063900003120D95FED3940240037F022257
:10238F00538EE353AFFB538FFB900002120D95B4A6
:10239F00010343AF04EE7003438E04900003120D4C
:1023AF0095B40203438E08900004120D95B40103F7
:1023BF00438F04900005120E73E5F0F5D6900005DB
:1023CF00120E73F5D7900007120D95B40103438ECB
:1023DF00107F0022ED64037060900003120D95FED4
:1023EF00D3940240037F022253D1F053AFDF90000A
:1023FF0002120D95B4010343AF20EE700343D102D7
:10240F00900003120D95B4020343D10690000412FD
:10241F000D95B4010343D101900005120E73E5F041
:10242F00F5D4900005120E73F5D5900007120D9597
:10243F00B4010343D1087F0022ED6404705C900067
:10244F0003120D95FED3940240037F022253D10F46
:10245F0053AFBF900002120D95B4010343AF40EE8E
:10246F00700343D120900003120D95B4020343D1A2
:10247F0060900004120D95B4010343D11090000534
:10248F00120E73FDACF0ECF5D28DD3900007120D48
:0D249F0095B4010343D1807F00227F02220B
:1010AA0090000EEBF0A3EAF0A3E9F090000DEFF048
:1010BA00640160030212BC90028D04F0E4A3F0A361
:1010CA00F0A3F0A3F0A3F0A3F0900011F0900011A8
:1010DA00E0FFC39480501474C52FF582E43403F5FD
:1010EA0083E4F0900011E004F080E2E4900011F053
:1010FA00900011E0FFC39480501474A92FF582E484
:10110A003402F583E4F0900011E004F080E29000EC
:10111A000EE0FBA3E0FAA3E0F9120D7CD394C040E1
:10112A00037F022290000A120D95B40104D2BC80FA
:10113A0002C2BC120D7CFFE598543F4FF598EF644C
:10114A00C06008EF64406003021236900002120F7A
:10115A00C17FE07E707D727C00120EE79000121251
:10116A000FF1E4FFFE7D01FC900012E0F8A3E0F924
:10117A00A3E0FAA3E0FBC3120F9D40037F02229073
:10118A000012E0F8A3E0F9A3E0FAA3E0FBC3E49BB2
:10119A00FFE49AFE740199FDE498FC900012120F84
:1011AA00F190000EE0FBA3E0FAA3E0F9900001122F
:1011BA000D95FB64017038C28E538EFE5389BF535E
:1011CA0089CF438E40900012E0FCA3E0FDA3E0FE2D
:1011DA00A3E0FF7808120FAE8F8D900012A3A3A38D
:1011EA00E0F58BC2AB5389BF538FFDD28E8076EB6D
:1011FA0064027035538EEF438E01538EF7438E048B
:10120A00900012E0FCA3E0FDA3E0FEA3E0FF780853
:10121A00120FAE8FD6900012A3A3A3E0F5D753AF57
:10122A00FB538EF7438E10803C7F022290000EE023
:10123A00FBA3E0FAA3E0F9120D7CFF7013900008FB
:10124A00120D95B40105438E20801A538EDF801546
:10125A00EFB48011900008120D95B4010543878000
:10126A00800353877F90000EE0FBA3E0FAA3E0F926
:10127A00900009120D95B40104D2AC8002C2AC9060
:10128A000007120D95B40104D29C8002C29C900002
:10129A000B120D9554C0FFE5A2543F4FF5A29000E2
:1012AA000C120D95B4010543971080035397EF7FF5
:1012BA00002290000DE06402600302141E90029462
:1012CA007402F0E4A3F0A3F0A3F0A3F0A3F0A3F058
:1012DA00900011F0900011E0FFC3948050147461E3
:1012EA002FF582E43404F583E4F0900011E004F071
:1012FA0080E2E4900011F0900011E0FFC394805066
:10130A001474292FF582E43403F583E4F090001174
:10131A00E004F080E290000EE0FBA3E0FAA3E0F91B
:10132A00120D7CFF64C06008EF644060030213DEA4
:10133A0090000A120D95B4010543B501800353B517
:10134A00FE120D7CB4C005439A808003539A7F90A5
:10135A000002120FC17FE07E707D727C00120EE7E0
:10136A00900012120FF1E4FFFE7D01FC900012E0E2
:10137A00F8A3E0F9A3E0FAA3E0FBC3120F9D400330
:10138A007F0222900012E0F8A3E0F9A3E0FAA3E0BA
:10139A00FBC3E49BFFE49AFE740199FDE498FC9078
:1013AA000012120FF1538EEF538EF7438E04900002
:1013BA0012E0FCA3E0FDA3E0FEA3E0FF7808120F11
:1013CA00AE8FD6900012A3A3A3E0F5D753AFFB4389
:1013DA008E1080037F022290000EE0FBA3E0FAA3A6
:1013EA00E0F9900009120D95B4010543AF0180039D
:1013FA0053AFFE900007120D95B40105439A108071
:10140A0003539AEF90000B120D955401FFE5BA545D
:10141A00FE4FF5BA90000DE0640360030215D19007
:10142A00029B7402F0E4A3F0A3F0A3F0A3F0A3F0EC
:10143A00A3F0900011F0900011E0FFC3941C501427
:10144A0074E12FF582E43404F583E4F0900011E0AE
:10145A0004F080E2E4900011F0900011E0FFC394E0
:10146A001C501474A92FF582E43403F583E4F09038
:10147A000011E004F080E290000EE0FBA3E0FAA382
:10148A00E0F9120D7CFF64C06008EF64406003025B
:10149A00159153ACDFEFB4C00543AC80800353AC65
:1014AA007F90000EE0FBA3E0FAA3E0F9900002129D
:1014BA000FC17FE07E707D727C00120EE7900012F1
:1014CA00120FF1E4FFFE7D01FC900012E0F8A3E0A8
:1014DA00F9A3E0FAA3E0FBC3120F9D40037F0222A7
:1014EA00900012E0F8A3E0F9A3E0FAA3E0FBC3E45A
:1014FA009BFFE49AFE740199FDE498FC9000121295
:10150A000FF190000EE0FBA3E0FAA3E0F9900001CE
:10151A00120D95FB6402703253ACBF538EEF538E9B
:10152A00F7438E04900012E0FCA3E0FDA3E0FEA3C3
:10153A00E0FF7808120FAE8FD6900012A3A3A3E0A3
:10154A00F5D753AFFB438E108040EB6401703543EF
:10155A00AC4053D1F053AFDF43D10253D1FB53D147
:10156A00FE900012E0FCA3E0FDA3E0FEA3E0FF78FA
:10157A0008120FAE8FD4900012A3A3A3E0F5D543AF
:10158A00D10880067F02227F022290000EE0FBA390
:10159A00E0FAA3E0F9900009120D95B4010543AFF2
:1015AA0008800353AFF7900007120D95B401054365
:1015BA00AC10800353ACEF90000B120D955402FF50
:1015CA00E5BA54FD02178190000DE064046003023D
:1015DA0017879002A27402F0E4A3F0A3F0A3F0A389
:1015EA00F0A3F0A3F0900011F0900011E0FFC39473
:1015FA001C501474FD2FF582E43404F583E4F09052
:10160A000011E004F080E2E4900011F0900011E093
:10161A00FFC3941C501474452FF582E43404F583F7
:10162A00E4F0900011E004F080E290000EE0FBA3E9
:10163A00E0FAA3E0F9120D7CFF64C06008EF644091
:10164A0060030217445384DFEFB4C00543848080EB
:10165A000353847F90000EE0FBA3E0FAA3E0F99025
:10166A000002120FC17FE07E707D727C00120EE7CD
:10167A00900012120FF1E4FFFE7D01FC900012E0CF
:10168A00F8A3E0F9A3E0FAA3E0FBC3120F9D40031D
:10169A007F0222900012E0F8A3E0F9A3E0FAA3E0A7
:1016AA00FBC3E49BFFE49AFE740199FDE498FC9065
:1016BA000012120FF190000EE0FBA3E0FAA3E0F98A
:1016CA00900001120D95FB640270325384BF538E51
:1016DA00EF538EF7438E04900012E0FCA3E0FDA3C3
:1016EA00E0FEA3E0FF7808120FAE8FD6900012A397
:1016FA00A3A3E0F5D753AFFB438E108040EB6402FF
:10170A00703543844053D10F53AFBF43D12053D1D7
:10171A00BF53D1EF900012E0FCA3E0FDA3E0FEA3CB
:10172A00E0FF7808120FAE8FD2900012A3A3A3E0B5
:10173A00F5D343D18080067F02227F022290000ED9
:10174A00E0FBA3E0FAA3E0F9900009120D95B401B9
:10175A000543AF10800353AFEF900007120D95B405
:10176A00010543841080035384EF90000B120D95FA
:0F177A005404FFE5BA54FB4FF5BA7F00227F03FA
:01178900223D
:103A280090028FE024C5F582E43403F583EFF0902B
:103A3800028FE004F0C394804002E4F0900290E02A
:073A4800700404F0D2992282
:10398900900296E02461F582E43404F583EFF09027
:103999000296E004F0C394804002E4F0900297E0BC
:0839A900700504F0439A0222AC
:1039B10090029DE024E1F582E43404F583EFF09078
:1039C100029DE004F0C3941C4002E4F090029EE0EA
:0839D100700504F043AC022272
:1039D9009002A4E024FDF582E43404F583EFF0902D
:1039E90002A4E004F0C3941C4002E4F09002A5E0B4
:0839F900700504F04384022272
:103D6700C2AF120D7CFF600C123A28740129F9E4E6
:073D77003AFA80EED2AF2200
:103DA600120D7CFF600C123989740129F9E43AFA84
:033DB60080EE227A
:103DB900120D7CFF600C1239B1740129F9E43AFA49
:033DC90080EE2267
:103DCC00120D7CFF600C1239D9740129F9E43AFA0E
:033DDC0080EE2254
:030023000234396B
:10343900C0E0C083C082C0D075D000C006C00730CC
:10344900982DC298900293E07025900291E0C39460
:10345900804002E4F0900291E0FF04F074A92FF596
:1034690082E43402F583E599F09002927405F03014
:103479009930C29990028FE0FF90028EE0FE6F6052
:103489001C74C52EF582E43403F583E0F5999002A6
:103499008EE004F0C394804009E4F0800590029026
:0F34A900E4F0D007D006D0D0D082D083D0E0326C
:030043000232AADC
:1032AA00C0E0C083C082C0D075D000C006C007E5A8
:1032BA009A30E02E539AFE90029AE0702590029876
:1032CA00E0C394804002E4F0900298E0FF04F074B6
:1032DA00292FF582E43403F583E59BF09002997473
:1032EA0005F0E59A30E131539AFD900296E0FF909D
:1032FA000295E0FE6F601C74612EF582E43404F5D9
:10330A0083E0F59B900295E004F0C394804009E4C1
:10331A00F08005900297E4F0D007D006D0D0D08292
:05332A00D083D0E03269
:03008B0002332F0E
:10332F00C0E0C083C082C0D075D000C006C007E522
:10333F00AC30E02E53ACFE9002A1E0702590029FBE
:10334F00E0C3941C4002E4F090029FE0FF04F0748D
:10335F00A92FF582E43403F583E5ADF09002A07454
:10336F0005F0E5AC30E13153ACFD90029DE0FF90EC
:10337F00029CE0FE6F601C74E12EF582E43404F5CC
:10338F0083E0F5AD90029CE004F0C3941C4009E487
:10339F00F0800590029EE4F0D007D006D0D0D08206
:0533AF00D083D0E032E4
:030093000233B481
:1033B400C0E0C083C082C0D075D000C006C007E59D
:1033C4008430E02E5384FE9002A8E070259002A67B
:1033D400E0C3941C4002E4F09002A6E0FF04F07401
:1033E400452FF582E43404F583E585F09002A77453
:1033F40005F0E58430E1315384FD9002A4E0FF90B0
:1034040002A3E0FE6F601C74E12EF582E43404F53F
:1034140083E0F5859002A3E004F0C3941C4009E422
:10342400F080059002A5E4F0D007D006D0D0D08279
:05343400D083D0E0325E
:10210500EFD3940940037FFF2274662F2FF8E62052
:10211500E5F4C2AFE64430F6D2AFAE0CEEC39F5045
:10212500210E74792EF8E6F908E618BE090274FF47
:10213500FDED69600909E71919F7090980F3161614
:1021450080DAEED39F400405810581EED39F4022BE
:1021550074792EF808E6F9EEB50C02A98118060681
:10216500E6FDED6960091919E70909F71980F31EFC
:1021750080D9EF2479F8E604F8EF2F04903D7E939B
:09218500F608EF2F93F67F00220B
:10218E00EFD3940940037FFF22EF232466F8E63055
:10219E00E5F4C2AFE6548CF6D2AFE50CB5070A747F
:1021AE00792FF8E6F58102200E502E747A2FF8E67C
:1021BE00BF090274FFFD18E6F974792FF8FBE6FCEF
:1021CE00E96C6008A805E7F61D1980F4A803A605BA
:1021DE001FE50CB507E37F0022747A2FF8E6FD1891
:1021EE0086010F74792FF8A601088604E50CB50751
:1021FE0002AC81ED6C60080D09A805E6F780F4E5E8
:09220E000CB507DE89817F002276
:03221700AF0C22E7
:10221A008FF0E4FFFEE50C232465F8C2A930F70D20
:10222A007F08E6600B2DF660325030800730F106E9
:10223A00EDF660277E020830F010C2AFE610E725FF
:10224A000E30E20CD2AF7F048014C2AFE610E7155D
:10225A0054EC4EF6D2AFD2A902200E7F0808EF4402
:0F226A0083F4C2AF56C6D2AFD2A954804FFF2221
:10080000EC4D6011E8497017ED33EC3304600DE4F2
:10081000FCFFFEFD22E933E8330470F8020A1D12E2
:1008200009E858046009E4CC2481500628500902E4
:100830000A27284003020A24C0E0EB4A7044B9802A
:1008400006D0E0FB020A13EF4E701CBD8008EBFFE0
:10085000EAFEE9FD80EBE98DF0A4FEE5F00208E98F
:10086000E9CDF9EAFEEBFFEF89F0A4FCE5F0CE89D3
:10087000F0A42EFFE435F0CD89F0A42DFEE435F090
:100880008067EF4E7005BD80D780C3EF8BF0A4ACBE
:10089000F0EE8BF0A42CFCE435F0F8EF8AF0A42CF9
:1008A000E5F038FCE433CB8DF0A42CFCE5F03BF80C
:1008B000EE8AF0A42CFCE5F038F8E433CF89F0A4FC
:1008C0002CFCE5F038CF3400CE89F0A42FFFE5F002
:1008D0003EFEE433C98DF0A42EFEE5F039CD8AF05A
:1008E000A42FFFE5F03EFEE43DFD33D0E0FB5007D2
:1008F0000BBB000F020A27EC2CFCEF33FFEE33FE9C
:06090000ED33FD0209FFCA
:1009060074F8CC6480CCC86480C8F582046043C3A4
:10091600EB9FF5F0EA9E42F0E99D42F0E89C45F037
:1009260060305018E5825FFFE582F42B5582FB505C
:10093600210ABA001D09B90019088016E5825BFB79
:10094600E582F42F5582FF50090EBE00050DBD004D
:10095600010CC3EB9FF5F0EA9E42F0E99D42F0E8F8
:0D0966009C45F06007CC4820E701B3EC226F
:1009730075F020800E75F010800575F0087D007EFF
:10098300007F003392D530D503120F79EC3340103A
:10099300EF33FFEE33FEED33FDEC33FCD5F0ED2208
:0E09A300E5F0247EA2D513CC92E7CDCEFF2244
:1009B100EDD2E7CD33EC3392D524814006E4FFFE3E
:1009C100FDFC22FCE4CFCECDCC24E0501174FF809D
:1009D100EDC3CC13CCCD13CDCE13CECF13CF04703A
:0709E100F030D5DE020F79B2
:10178A00E5182460F582E43402F583E00518229016
:10179A00025D301903900260E475F00112102E0206
:1017AA000D7C2012E97F2ED2128018EF540F24905C
:1017BA00D43440D4FF30160BEF24BFB41A005003C0
:1017CA002461FFE51960021519051CE51C70020564
:1017DA001B30190E90025DE475F00112102EEF0213
:1017EA000DC2023A4F7403D2198003E4C219F518E4
:1017FA0090025D121045E4F519F51BF51CE5196018
:10180A00077F201217CD80F5751AFFC213C212C2C4
:10181A0014C215C217C218C21A121799FF700D30D6
:10182A0019057F001217DEAF1CAE1B22B4255FC25A
:10183A00D5C216121799FF24D0B40A00501A75F0AF
:10184A000A781930D50508B6FF0106C6A426F6207F
:10185A00D5047002D21580D924CFB41A00EF5004EF
:10186A00C2E5D216021AD0D21380C6D21280C0D2D2
:10187A001480BCD2D580BAD21780B47F201217CD7B
:10188A002014077401B5190040F112178AFF1217C4
:10189A00CD021807D21AD218809512178AFB12178E
:1018AA008AFA12178AF94A4B700679CE7A1B7BFF9D
:1018BA0020142EE519602A7E008E82758300120D8F
:1018CA009560060EEE651A70F0C2D5EBC0E0EAC06C
:1018DA00E0E9C0E0EE121B31D0E0F9D0E0FAD0E046
:1018EA00FB120D7CFF60AAEBC0E0EAC0E0E9C0E0B1
:1018FA001217CDD0E02401F9D0E03400FAD0E0FB91
:10190A00E51A0460DCD51AD98087D21480A2121B8A
:10191A001360F7E51A700104120A32A91A600DE57C
:10192A001A600914F51A121BBBEF60F3EA30E702DA
:10193A00F404C3995079EAF4251A0430E701E4045F
:10194A00F51A800D121B1360C1EA051A251A120A2C
:10195A0032EA90028CF030E701E4251A04D51A0421
:10196A0020170114121B31E4C0E0121BBB90028C39
:10197A00E0601320E70714F01217B5802204F0D0B4
:10198A00E014C0E07F001217B5E51A60071217AC21
:10199A00151A800B3017031217ACD0E0021807D0C3
:1019AA00E00480C4121B13609EE51A04120A3290E6
:1019BA00028CEAF0E51A2017026001042404121BC3
:0119CA0031EB
:1019CB0074FF04C0E0121BBB1217B5E51A201702F7
:1019DB0060031217ACD0E0B51AE87F451217BF9021
:1019EB00028CE07F2B30E7047F2DF404C0E012174C
:1019FB00CDD0E075F00A84C0F01217B6D0E0121704
:101A0B00B6021807791080027908C218C21A80082A
:101A1B00D2D5790A8004790AC2D5E51A047002F589
:101A2B001AE4FAFDFEFF12178AFC7B08201313122F
:101A3B00178AFD7B1030120A12178AFE12178AFFC3
:101A4B007B20EC3382D592D55013C3E43012069F22
:101A5B00FFE49EFEE42013039DFDE49CFCE4CBF825
:101A6B00C213EC700CCFCECDCCE824F8F870F38019
:101A7B0017C3EF33FFEE33FEED33FDEC33FCEB33EB
:101A8B00FB994002FB0FD8E9EB301305F8D0E0C40B
:101A9B0048B213C0E00AEC4D4E4F78207B0070C269
:101AAB00EAB51A0040BCC0E0121B33D0F0D0E020E6
:101ABB001304C4C0E0C4B213C0F01217B6D0F0D5F3
:101ACB00F0EB02180712104E18A4531A0F58187582
:101ADB004C1871421A134F1A1B441A1B49188A438C
:101AEB001A2155194E4619AE451918471BEE5018B9
:101AFB00792D187D2E18A02B188123189E201BD70B
:101B0B002A18394800001898E51AB4FF03751A060D
:101B1B0012178AFC12178AFD12178AFE12178AFFF8
:101B2B00900285020A6F790AA2D520151430170985
:101B3B00B910020404B9080104A2D52018025001FF
:101B4B00042014689214B519005034C0E07F203083
:101B5B0015197F30A21472187217500F121B8AC2FC
:101B6B0014C218C217C21A7F30800F301703E9C096
:101B7B00E01217CD301703D0E0F9D0E0B519CC3017
:101B8B0017177F30B9100C1217CD7F583016077FFF
:101B9B00788003B908031217CD3014057F2D021777
:101BAB00CD7F20201AF87F2B2018F322921480CFA0
:101BBB007F00B40700500B2485F582E43402F583D3
:101BCB00E0FF22286E756C6C2900D21312178A3035
:101BDB0013F8C213781930D50108F60218392D50B5
:101BEB0043495812178A2403B405004001E4901BA3
:101BFB00E9931217BE743A1217BED2157519040267
:021C0B001A0FAE
:1009E800E9D2E7C933E833F892D5EDD2E7CD33EC55
:0709F80033FC5002B2D522CE
:1009FF00EC30E7100FBF000C0EBE00080DBD000459
:100A0F000BEB6014A2D5EB13FCED92E7FD2274FF04
:100A1F00FCFDFEFF22E480F8A2D574FF13FC7D805D
:030A2F00E480EF71
:100A3200F920E73624F950037907E4F42402FBE5B0
:100A420082158270021583DBF6E024FB501BE960FD
:100A520014E4F0E582158270021583E004F0B40A12
:0D0A620008E4F0D9EE7401F00A22C2D5229A
:100A6F00ED33EC3392D5FA602AB4FF33EDC2E77B56
:100A7F00FF60067A0A7994E4227A0A799D20D504D8
:100A8F007A0A7998224E614E002B494E46002D4925
:100A9F004E4600E47A08F0A3DAFC7B00740722C00C
:100AAF0083C082ECC0E0EDC0E0EEC0E0EFC0E0EA52
:100ABF0075F010A4CAABF075F04DA42BFBE435F024
:100ACF00FCEA2410FAEB34C5FBEC34D9FCEDC2E799
:100ADF00FF75F056A4F42411C5F0F434C58FF0A4BB
:100AEF002AE5F03BE43CF020E714120D3CD0E0FF88
:100AFF00D0E0FED0E0FDD0E0FC120C6F8014F404C7
:100B0F00120D3CD0E0FFD0E0FED0E0FDD0E0FC12B3
:100B1F000800D082D083E0FAEDD2E7CD33EC332456
:100B2F0082FBE4C3CF33CFCE33CECD33CD33DBF324
:100B3F007B0775F00A846004F0A31B0AE5F0F0A3AD
:100B4F008FF0740AA4FFACF08EF0740AA42CFEACE4
:100B5F00F050010C8DF0740AA42CFDE435F0F0A3D5
:050B6F00DBDE7407222B
:100B7400020A1DE86480F8E933E83360110460F088
:100B8400ED33EC337009E8FCE9FDEAFEEBFF2204E7
:100B940060DED3EB9FEA9EE99DE8C2E78CF0C2F7E2
:100BA40095F0400CE8CCF8E9CDF9EACEFAEBCFFBAE
:100BB4001209E885D0F05804700320D5B3E8047016
:100BC400075002B2D5020A2792D5EC0460F7E4CCB0
:100BD400C0E0C398F8603B94186008400DD0E0FB77
:100BE4000209FFE4FBFAC9FC8028E830E406E4C902
:100BF400FBE4CAFCE830E305E4C9CACBFCE85407CB
:100C04006010F8C3E913F9EA13FAEB13FBEC13FCD5
:100C1400D8F130F52FC3E49CFCEF9BFFEE9AFEED78
:100C240099FDD0E0FBEF4E4D4C701222DB03020A1B
:100C340024EC2CFCEF33FFEE33FEED33FDED30E717
:100C4400EB0209FFEF2BFFEE3AFEED39FDD0E0FB9E
:100C540050130BBB0003020A27ED13FDEE13FEEF46
:080C640013FFEC13FC0209FF71
:100C6C00020A27EC5D046005E859047003020A1DB2
:100C7C001209E8580460F6EC4860F2EC7004FDFED2
:100C8C00FF22C860DB2481C85009C398600250065B
:100C9C00020A249850CAF582E9294B4A7005AB82A6
:100CAC00020A1375F0007C1A7880C3EF9BEE9AED64
:100CBC0099400DC3EF9BFFEE9AFEED99FDE842F0D3
:100CCC00DC23ACF0D0E0FFD0E0FED0E0FDAB822026
:100CDC00E7101BEB60BAEC2CFCEF33FFEE33FEEDB0
:100CEC0033FD0209FFE803F830E705C0F075F000AA
:100CFC00EF2FFFEE33FEED33FD40B830E7C280AA94
:100D0C003F8000004120000042C80000447A0000EF
:100D1C00461C400047C35000497424004B18968071
:100D2C004CBEBC205A0E1BCA6753C21C749DC5AE68
:100D3C00FB60065407601C2323120D6AEB543860C9
:100D4C0009120D56120D65120800ECF8EDF9EEFAC9
:100D5C00EFCB22EB120D6580F1543803241C900D5F
:100D6C000CFE93FC0EEE93FD0EEE930ECE93FF2233
:0300000002319436
:0C319400787FE4F6D8FD7581820231DB03
:100D7C00BB010689828A83E0225002E722BBFE0275
:090D8C00E32289828A83E49322A8
:100D9500BB010CE58229F582E5833AF583E0225013
:100DA50006E92582F8E622BBFE06E92582F8E2225D
:0D0DB500E58229F582E5833AF583E4932277
:100DC200BB010689828A83F0225002F722BBFE0110
:020DD200F3220A
:100DD400F8BB010DE58229F582E5833AF583E8F055
:100DE400225006E92582C8F622BBFE05E92582C801
:020DF400F222E9
:100DF600EF8DF0A4A8F0CF8CF0A428CE8DF0A42E11
:020E0600FE22CA
:100E0800BC000BBE0029EF8DF084FFADF022E4CCCE
:100E1800F875F008EF2FFFEE33FEEC33FCEE9DEC97
:100E2800984005FCEE9DFE0FD5F0E9E4CEFD22EDDD
:100E3800F8F5F0EE8420D21CFEADF075F008EF2F27
:100E4800FFED33FD4007985006D5F0F222C398FD18
:050E58000FD5F0EA22B5
:100E5D00C5F0F8A3E028F0C5F0F8E5821582700220
:060E6D001583E038F022BD
:100E7300BB0110E58229F582E5833AF583E0F5F0BD
:100E8300A3E0225009E92582F886F008E622BBFE9A
:100E93000AE92582F8E2F5F008E222E5832AF583E0
:080EA300E993F5F0A3E99322A5
:100EAB0075F008758200EF2FFFEE33FECD33CDCCFE
:100EBB0033CCC58233C5829BED9AEC99E582984081
:100ECB000CF582EE9BFEED9AFDEC99FC0FD5F0D65E
:100EDB00E4CEFBE4CDFAE4CCF9A88222B800C1B988
:100EEB000059BA002DEC8BF084CFCECDFCE5F0CBC6
:100EFB00F97818EF2FFFEE33FEED33FDEC33FCEBFF
:100F0B0033FB10D703994004EB99FB0FD8E5E4F9B9
:100F1B00FA227818EF2FFFEE33FEED33FDEC33FCA6
:100F2B00C933C910D7059BE99A4007EC9BFCE99A9A
:100F3B00F90FD8E0E4C9FAE4CCFB2275F010EF2FDF
:100F4B00FFEE33FEED33FDCC33CCC833C810D707DF
:100F5B009BEC9AE899400AED9BFDEC9AFCE899F81A
:0E0F6B000FD5F0DAE4CDFBE4CCFAE4C8F922AD
:10388200C2D5E830E70FB2D5E4C39BFBE49AFAE471
:1038920099F9E498F8EC30E717B2D51238B8120E5D
:1038A200E7E4C39BFBE49AFAE499F9E498F880030D
:1038B200120EE730D50DE4C39FFFE49EFEE49DFDAA
:0438C200E49CFC2264
:0E0F7900C3E49FFFE49EFEE49DFDE49CFC2289
:100F8700EB9FF5F0EA9E42F0E99D42F0EC6480C8E1
:060F970064809845F02281
:100F9D00EB9FF5F0EA9E42F0E99D42F0E89C45F0AA
:010FAD002221
:100FAE00E8600FECC313FCED13FDEE13FEEF13FF21
:030FBE00D8F12245
:100FC100BB010DE58229F582E5833AF583021081A3
:100FD1005007E92582F8021074BBFE07E92582F863
:100FE10002108DE58229F582E5833AF58302109A94
:0C0FF100ECF0A3EDF0A3EEF0A3EFF02273
:100FFD00A8828583F0D083D082121014121014129F
:10100D001014121014E473E493A3C583C5F0C583C3
:10101D00C8C582C8F0A3C583C5F0C583C8C582C83D
:01102D0022A0
:10102E00F8E0FBA3A3E0F925F0F0E582158270024B
:07103E001583E0FA38F022EF
:09104500EBF0A3EAF0A3E9F022AC
:10104E00D083D082F8E4937012740193700DA3A331
:10105E0093F8740193F5828883E473740293686045
:06106E00EFA3A3A380DF45
:103A4F00EFB40A07740D123A5A740A309811A899F4
:103A5F00B8130CC2983098FDA899C298B811F630D7
:073A6F0099FDC299F59922AF
:1031A0000220C8E493A3F8E493A34003F68001F25D
:1031B00008DFF48029E493A3F85407240CC8C33330
:1031C000C4540F4420C8834004F456800146F6DFFF
:1031D000E4800B010204081020408090306DE47EF2
:1031E000019360BCA3FF543F30E509541FFEE493F4
:1031F000A360010ECF54C025E060A840B8E493A3BB
:10320000FAE493A3F8E493A3C8C582C8CAC583CAE5
:10321000F0A3C8C582C8CAC583CADFE9DEE780BE9D
:0131020000CC
:0D107400E6FB08E6F908E6FA08E6CBF822EC
:0C108100E0F8A3E0F9A3E0FAA3E0FB22F2
:0D108D00E2FB08E2F908E2FA08E2CBF822E3
:10109A00E493F8740193F9740293FA740393FB22AC
:00000001FF
