:027135006EC822
:0271370060C72F
:027139005C8B6D
:02713B00679B50
:106EC8001267297F041268527F0312313BE4FF02E4
:026ED80031C4C3
:1060C700E4FDFF1264AF9003B67401F012476C7DD4
:1060D70001E4FF1264AF9003B67402F012476C7DBF
:1060E70002E4FF1264AF9003B67403F012476C7FAB
:1060F700031264E1E4FBFA7D1E7F0212324D80C079
:105C8B00E4FDFF1264AF120B49AB07AA0690037A2F
:105C9B007404F0E4FDFF12632E7D01E4FF1264AF88
:105CAB00120B49AB07AA0690037A7404F07D01E44A
:105CBB00FF12632E7D02E4FF1264AF120B49AB0798
:105CCB00AA0690037A7404F07D02E4FF12632EE4BB
:0B5CDB00FBFA7D1E7F0212324D80A5F7
:10679B0012700CAC06AD07E4120B109003B674012B
:1067AB00F012476C7F011264E1E4FBFA7D1E7F025D
:0567BB0012324D80DBED
:10699D00535443313577346B353873342773205561
:1069AD0041525431206973206F70656E200D0A00BD
:106447009003337440F0A37401F0A3121076900305
:106457003A7401F0E4A3F0A304F0A3F0E4A3F0A3DB
:10646700F07B017A0379337F011211417BFF7A694F
:05647700799D026DFF9C
:03717A00026D3271
:106729007F807E257D007C00126447125BCC126558
:10673900C5126084E4FF1262F3E4FF126EFEE4FF07
:06674900126F1002717ACC
:0171860022E6
:0171870022E5
:0171880022E4
:0171890022E3
:01718A0022E2
:05463600900671EDF09B
:10463B00E4900678F0A3F0900674E0FFA3E09006F8
:10464B007ACFF0A3EFF0900672E0FFA3E090067C28
:10465B00CFF0A3EFF0E4900676F0A3F0900671E0B4
:10466B00FF900676E0FCA3E0FDC39F7480F8EC643A
:10467B0080984003024730ED25E0FFEC338F82F545
:10468B0083120EBFFFC390067BE09F90067AE095E6
:10469B00F0501D900677E025E0FF900676E0338F13
:1046AB0082F583120EBFFF90067AE5F0F0A3EFF0D0
:1046BB00900677E025E0FF900676E0338F82F58356
:1046CB00120EBFFFD390067DE09F90067CE095F025
:1046DB00401D900677E025E0FF900676E0338F8251
:1046EB00F583120EBFFF90067CE5F0F0A3EFF09080
:1046FB000677E025E0FF900676E0338F82F5831294
:10470B000EBFFFAEF0900679E02FF0900678E03EFA
:10471B00F0900677E004F06003024667900676E0BF
:10472B0004F002466790067CE0FEA3E0FF90067B58
:10473B00E02FFF90067AE03EFEC3900679E09FFFE4
:10474B00900678E09EFEF0A3EFF0900671E024FE59
:10475B00FDE434FFFC120E08900678EEF0A3EFF0A8
:01476B00222B
:0642610090051B1210760F
:10426700900523E0FCA3E0FDA3E0FEA3E0FF90059B
:104277002B12107690051FE0FCA3E0FDA3E0FEA340
:10428700E0FF90052F121076900580E0FCA3E0FD7B
:10429700A3E0FEA3E0FF900533121076900580E0BF
:1042A700FCA3E0FDA3E0FEA3E0FF90053312107628
:1042B70090052FE0FCA3E0FDA3E0FEA3E0FF90053F
:1042C70084E0F8A3E0F9A3E0FAA3E0FB1208079063
:1042D700053B12107690052BE0FCA3E0FDA3E0FE62
:1042E700A3E0FF90053BE0F8A3E0F9A3E0FAA3E021
:1042F700FB120807A804A905AA06AB0790053BE02F
:10430700FCA3E0FDA3E0FEA3E0FF120A0190053F36
:10431700121076900533E0F8A3E0F9A3E0FAA3E0E2
:10432700FB90051BE0FCA3E0FDA3E0FEA3E0FF126A
:10433700080390053FE0F8A3E0F9A3E0FAA3E0FB48
:104347001208F8900533E0F8A3E0F9A3E0FAA3E038
:10435700FB12080790053712107690053FE0F8A387
:10436700E0F9A3E0FAA3E0FBE4FFFE7D807C3F12C7
:10437700080390053BE0F8A3E0F9A3E0FAA3E0FB0C
:104387001208F8900584121076900537E0FCA3E038
:10439700FDA3E0FEA3E0FF9005801210769005379D
:0B43A700E0FCA3E0FDA3E0FEA3E0FFAC
:0143B20022E8
:1043B300AB07EB75F041A424E1F582E43403F58304
:1043C30012108200000000EB75F041A424E5F58291
:1043D300E43403F58312108200000000EB75F04112
:1043E300A424E9F582E43403F5831210820000006B
:1043F30000EB75F041A424FDF582E43403F5831248
:10440300108200000000EB75F041A424F9F582E46A
:104413003403F5831210820000000090069CE0FC38
:10442300A3E0FDA3E0FEA3E0FFEB75F041A424EDC0
:10443300F582E43403F5831210769006A0E0FCA322
:10444300E0FDA3E0FEA3E0FFEB75F041A424F1F54A
:1044530082E43403F5831210769006A4E0FCA3E013
:10446300FDA3E0FEA3E0FFEB75F041A424F5F58284
:10447300E43403F583121076EB75F041A424EDF5D3
:1044830082E43403F583E0FCA3E0FDA3E0FEA3E0B4
:10449300FFEB75F041A42405F582E43404F583129F
:1044A3001076EB75F041A424F1F582E43403F5832F
:1044B300E0FCA3E0FDA3E0FEA3E0FFEB75F041A465
:1044C3002401F582E43404F583121076EB75F04190
:1044D300A424F5F582E43403F583E0FCA3E0FDA313
:1044E300E0FEA3E0FFEB75F041A42409F582E43478
:0644F30004F583021076BF
:106EDA00EF75F041A42419F582E43404F5837401B2
:026EEA00F02294
:106F4600EF75F041A42419F582E43404F583E4F0E6
:016F56002218
:1039AE0090076CEFF075F041A42419F582E434040D
:1039BE00F583E07003023B8890076CE0FF75F041E1
:1039CE00A424DDF582E43403F583E0F8A3E0F9A343
:1039DE00E0FAA3E0FBEF75F041A424D9F582E434BC
:1039EE0003F583E0FCA3E0FDA3E0FEA3E0FF1208D5
:1039FE000390076CE0FB75F041A424E1F582E434FA
:103A0E0003F583121076EB75F041A424F9F582E4E8
:103A1E003403F583C083C082E0FCA3E0FDA3E0FE87
:103A2E00A3E0FF90076CE075F041A424E1F582E479
:103A3E003403F583E0F8A3E0F9A3E0FAA3E0FB1268
:103A4E000807D082D08312107690076CE0FF75F0D5
:103A5E0041A424F9F582E43403F583E0F8A3E0F9F8
:103A6E00A3E0FAA3E0FBEF75F041A424F1F582E4A4
:103A7E003403F583E0FCA3E0FDA3E0FEA3E0FF1218
:103A8E0008F8C004C005C006C00790076CE0FF75BB
:103A9E00F041A424E1F582E43403F583E0F8A3E0D9
:103AAE00F9A3E0FAA3E0FBEF75F041A424EDF58253
:103ABE00E43403F583E0FCA3E0FDA3E0FEA3E0FF06
:103ACE001208F8D003D002D001D000120807C004AB
:103ADE00C005C006C00790076CE0FF75F041A42436
:103AEE00E5F582E43403F583E0F8A3E0F9A3E0FA08
:103AFE00A3E0FBEF75F041A424E1F582E43403F575
:103B0E0083E0FCA3E0FDA3E0FEA3E0FF1208039018
:103B1E00076CE075F041A424F5F582E43403F583D7
:103B2E00E0F8A3E0F9A3E0FAA3E0FB1208F8D00353
:103B3E00D002D001D00012080790076CE0FB75F0A0
:103B4E0041A424FDF582E43403F583121076EB755F
:103B5E00F041A424E1F582E43403F583E0FCA3E014
:103B6E00FDA3E0FEA3E0FFEB75F041A424E5F58292
:0C3B7E00E43403F583121076D322C32236
:05376800900746EFF0A0
:10376D00E0FF75F041A424DDF582E43403F583E038
:10377D00F8A3E0F9A3E0FAA3E0FBEF75F041A42470
:10378D00D9F582E43403F583E0FCA3E0FDA3E0FE6C
:10379D00A3E0FF120803900746E0FB75F041A42457
:1037AD00E1F582E43403F583121076EB75F041A454
:1037BD002419F582E43404F583E070030239ACEB8F
:1037CD0075F041A42415F582E43404F583E0FCA3DF
:1037DD00E0FDA3E0FEA3E0FFEB75F041A424E1F5CD
:1037ED0082E43403F583E0F8A3E0F9A3E0FAA3E063
:1037FD00FB120A9E600B4009E4900747F0A3F0808E
:10380D004E900747E4F0A304F0900746E075F041B1
:10381D00A424F9F582E43403F583C083C082E0FC6F
:10382D00A3E0FDA3E0FEA3E0FF900746E075F041A5
:10383D00A424E1F582E43403F583E0F8A3E0F9A3D1
:10384D00E0FAA3E0FB120807D082D0831210769025
:10385D000746E0FF75F041A424F9F582E43403F541
:10386D0083E0F8A3E0F9A3E0FAA3E0FBEF75F041E4
:10387D00A424F1F582E43403F583E0FCA3E0FDA379
:10388D00E0FEA3E0FF1208F8C004C005C006C007A3
:10389D00900747E0FCA3E0FDE4120B10D003D0022B
:1038AD00D001D0001208F8C004C005C006C00790B2
:1038BD000746E0FF75F041A424E1F582E43403F5F9
:1038CD0083E0F8A3E0F9A3E0FAA3E0FBEF75F04184
:1038DD00A424EDF582E43403F583E0FCA3E0FDA31D
:1038ED00E0FEA3E0FF1208F8D003D002D001D00013
:1038FD00120807C004C005C006C007900746E0FFC8
:10390D0075F041A424E5F582E43403F583E0F8A3D2
:10391D00E0F9A3E0FAA3E0FBEF75F041A424E1F593
:10392D0082E43403F583E0FCA3E0FDA3E0FEA3E015
:10393D00FF120803900746E075F041A424F5F582C7
:10394D00E43403F583E0F8A3E0F9A3E0FAA3E0FB88
:10395D001208F8D003D002D001D00012080790074A
:10396D0046E0FB75F041A424FDF582E43403F583B4
:10397D00121076EB75F041A424E1F582E43403F5E1
:10398D0083E0FCA3E0FDA3E0FEA3E0FFEB75F041B7
:10399D00A424E5F582E43403F583121076D322C313
:0139AD0022F7
:05251F00900749EFF0F8
:10252400E0FF75F041A424DDF582E43403F583E093
:10253400F8A3E0F9A3E0FAA3E0FBEF75F041A424CB
:10254400D9F582E43403F583E0FCA3E0FDA3E0FEC7
:10255400A3E0FF120803900749E0FB75F041A424AF
:10256400E1F582E43403F583121076EB75F041A4AF
:102574002419F582E43404F583E070030228F5EBB2
:1025840075F041A4240DF582E43404F583E0FCA342
:10259400E0FDA3E0FEA3E0FFEB75F041A424DDF52C
:1025A40082E43403F583E0F8A3E0F9A3E0FAA3E0BE
:1025B400FB120A9E60025003022643900749E0750D
:1025C400F041A424E1F582E43403F583E0FCA3E0C4
:1025D400FDA3E0FEA3E0FF120B49127093AC06AD1D
:1025E40007EC120B10900749E075F041A42415F58F
:1025F40082E43404F583E0F8A3E0F9A3E0FAA3E06D
:10260400FB120A9E500302274E90074AE4F0A304EB
:10261400F0900749E075F041A424E1F582E4340325
:10262400F583E0FCA3E0FDA3E0FEA3E0FFE4FBFAF6
:10263400F9F8120A9E600250030227A502275F9050
:102644000749E0FF75F041A4240DF582E43404F554
:1026540083E0F8A3E0F9A3E0FAA3E0FBEF75F0410F
:10266400A424DDF582E43403F583E0FCA3E0FDA3B8
:10267400E0FEA3E0FF120A9E6002500302270390CB
:102684000749E075F041A424E1F582E43403F583BD
:10269400E0FCA3E0FDA3E0FEA3E0FF120B491270EF
:1026A40093AC06AD07EC120B10900749E075F041AE
:1026B400A42415F582E43404F583E0F8A3E0F9A337
:1026C400E0FAA3E0FB120A9E5002807E90074AE4DF
:1026D400F0A304F0900749E075F041A424E1F582E9
:1026E400E43403F583E0FCA3E0FDA3E0FEA3E0FFF4
:1026F400E4FBFAF9F8120A9E40030227A5805C90D5
:102704000749E075F041A424E1F582E43403F5833C
:10271400E0FCA3E0FDA3E0FEA3E0FF120B4912706E
:1027240093AC06AD07EC120B10900749E075F0412D
:10273400A42415F582E43404F583E0F8A3E0F9A3B6
:10274400E0FAA3E0FB120A9E5009E490074AF0A3C2
:10275400F0804E90074AE4F0A304F0900749E07536
:10276400F041A424F9F582E43403F583C083C082E4
:10277400E0FCA3E0FDA3E0FEA3E0FF900749E075C1
:10278400F041A424E1F582E43403F583E0F8A3E006
:10279400F9A3E0FAA3E0FB120807D082D083121059
:1027A40076900749E0FF75F041A424F9F582E434FA
:1027B40003F583E0F8A3E0F9A3E0FAA3E0FBEF75E7
:1027C400F041A424F1F582E43403F583E0FCA3E0B2
:1027D400FDA3E0FEA3E0FF1208F8C004C005C00694
:1027E400C00790074AE0FCA3E0FDE4120B10D003FD
:1027F400D002D001D0001208F8C004C005C006C041
:1028040007900749E0FF75F041A424E1F582E43420
:1028140003F583E0F8A3E0F9A3E0FAA3E0FBEF7586
:10282400F041A424EDF582E43403F583E0FCA3E055
:10283400FDA3E0FEA3E0FF1208F8D003D002D0010C
:10284400D000120807C004C005C006C0079007499D
:10285400E0FF75F041A424E5F582E43403F583E058
:10286400F8A3E0F9A3E0FAA3E0FBEF75F041A42498
:10287400E1F582E43403F583E0FCA3E0FDA3E0FE8C
:10288400A3E0FF120803900749E075F041A424F582
:10289400F582E43403F583E0F8A3E0F9A3E0FAA3B6
:1028A400E0FB1208F8D003D002D001D000120807D0
:1028B400900749E0FB75F041A424FDF582E434035C
:1028C400F583121076EB75F041A424E1F582E4342B
:1028D40003F583E0FCA3E0FDA3E0FEA3E0FFEB75BA
:1028E400F041A424E5F582E43403F583121076D391
:0228F40022C3FD
:0128F60022BF
:05213E0090074CEFF0DA
:10214300E0FF75F041A424DDF582E43403F583E078
:10215300F8A3E0F9A3E0FAA3E0FBEF75F041A424B0
:10216300D9F582E43403F583E0FCA3E0FDA3E0FEAC
:10217300A3E0FF12080390074CE0FB75F041A42491
:10218300E1F582E43403F583121076EB75F041A494
:102193002419F582E43404F583E0700302251DEB72
:1021A30075F041A4240DF582E43404F583E0FCA327
:1021B300E0FDA3E0FEA3E0FFEB75F041A424DDF511
:1021C30082E43403F583E0F8A3E0F9A3E0FAA3E0A3
:1021D300FB120A9E6002500302226290074CE075D4
:1021E300F041A424E1F582E43403F583E0FCA3E0A9
:1021F300FDA3E0FEA3E0FF120B49127093AC06AD02
:1022030007EC120B1090074CE075F041A42415F570
:1022130082E43404F583E0F8A3E0F9A3E0FAA3E051
:10222300FB120A9E500302236D90074DE4F0A304B2
:10223300F090074CE075F041A424E1F582E4340307
:10224300F583E0FCA3E0FDA3E0FEA3E0FFE4FBFADB
:10225300F9F8120A9E600250030223C402237E90FF
:10226300074CE0FF75F041A4240DF582E43404F536
:1022730083E0F8A3E0F9A3E0FAA3E0FBEF75F041F4
:10228300A424DDF582E43403F583E0FCA3E0FDA39D
:10229300E0FEA3E0FF120A9E600250030223229095
:1022A300074CE075F041A424E1F582E43403F5839F
:1022B300E0FCA3E0FDA3E0FEA3E0FF120B491270D4
:1022C30093AC06AD07EC120B1090074CE075F04190
:1022D300A42415F582E43404F583E0F8A3E0F9A31C
:1022E300E0FAA3E0FB120A9E5002807E90074DE4C1
:1022F300F0A304F090074CE075F041A424E1F582CB
:10230300E43403F583E0FCA3E0FDA3E0FEA3E0FFD8
:10231300E4FBFAF9F8120A9E40030223C4805C909E
:10232300074CE075F041A424E1F582E43403F5831E
:10233300E0FCA3E0FDA3E0FEA3E0FF120B49127053
:1023430093AC06AD07EC120B1090074CE075F0410F
:10235300A42415F582E43404F583E0F8A3E0F9A39B
:10236300E0FAA3E0FB120A9E5009E490074DF0A3A4
:10237300F0804E90074DE4F0A304F090074CE07515
:10238300F041A424F9F582E43403F583C083C082C9
:10239300E0FCA3E0FDA3E0FEA3E0FF90074CE075A3
:1023A300F041A424E1F582E43403F583E0F8A3E0EB
:1023B300F9A3E0FAA3E0FB120807D082D08312103E
:1023C3007690074CE0FF75F041A424F9F582E434DC
:1023D30003F583E0F8A3E0F9A3E0FAA3E0FBEF75CC
:1023E300F041A424F1F582E43403F583E0FCA3E097
:1023F300FDA3E0FEA3E0FF1208F8C004C005C00679
:10240300C00790074DE0FCA3E0FDE4120B10D003DE
:10241300D002D001D0001208F8E4FBFAF978401298
:102423000A01C004C005C006C00790074CE0FF7551
:10243300F041A424E1F582E43403F583E0F8A3E05A
:10244300F9A3E0FAA3E0FBEF75F041A424EDF582D4
:10245300E43403F583E0FCA3E0FDA3E0FEA3E0FF87
:102463001208F8D003D002D001D000120807C0042C
:10247300C005C006C00790074CE0FF75F041A424D7
:10248300E5F582E43403F583E0F8A3E0F9A3E0FA89
:10249300A3E0FBEF75F041A424E1F582E43403F5F6
:1024A30083E0FCA3E0FDA3E0FEA3E0FF120803909A
:1024B300074CE075F041A424F5F582E43403F58379
:1024C300E0F8A3E0F9A3E0FAA3E0FB1208F8D003D5
:1024D300D002D001D00012080790074CE0FB75F042
:1024E30041A424FDF582E43403F583121076EB75E1
:1024F300F041A424E1F582E43403F583E0FCA3E096
:10250300FDA3E0FEA3E0FFEB75F041A424E5F58213
:0B251300E43403F583121076D322C3DA
:01251E00229A
:103F220090076DEFF075F041A42419F582E4340492
:103F3200F583E070030240C090076DE0FF75F04129
:103F4200A424DDF582E43403F583E0F8A3E0F9A3C9
:103F5200E0FAA3E0FBEF75F041A424D9F582E43442
:103F620003F583E0FCA3E0FDA3E0FEA3E0FF12085B
:103F72000390076DE0FB75F041A424E1F582E4347F
:103F820003F583121076EB75F041A424E5F582E483
:103F92003403F583E0FCA3E0FDA3E0FEA3E0FFEB26
:103FA20075F041A424F1F582E43403F583E0F8A32B
:103FB200E0F9A3E0FAA3E0FB1208F8C004C005C0D0
:103FC20006C00790076DE0FF75F041A424E1F58279
:103FD200E43403F583E0F8A3E0F9A3E0FAA3E0FBFD
:103FE200EF75F041A424EDF582E43403F583E0FC9F
:103FF200A3E0FDA3E0FEA3E0FF1208F8D003D00285
:10400200D001D000120803C004C005C006C007904A
:10401200076DE0FF75F041A424E9F582E43403F56D
:1040220083E0F8A3E0F9A3E0FAA3E0FBEF75F04127
:10403200A424F5F582E43403F583E0FCA3E0FDA3B8
:10404200E0FEA3E0FF1208F8D003D002D001D000B6
:1040520012080790076DE0FB75F041A424FDF5827C
:10406200E43403F583121076EB75F041A424E5F5F0
:1040720082E43403F583E0FCA3E0FDA3E0FEA3E0C9
:10408200FFEB75F041A424E9F582E43403F58312D1
:104092001076EB75F041A424E1F582E43403F58354
:1040A200E0FCA3E0FDA3E0FEA3E0FFEB75F041A47A
:1040B20024E5F582E43403F583121076D322C32279
:10687400AB07900700E0FCA3E0FDA3E0FEA3E0FF6C
:10688400EB75F041A42411F582E43404F58302107D
:01689400768D
:10689500AB07900705E0FCA3E0FDA3E0FEA3E0FF46
:1068A500EB75F041A4240DF582E43404F583021060
:0168B500766C
:1068B600AB0790070AE0FCA3E0FDA3E0FEA3E0FF20
:1068C600EB75F041A424DDF582E43403F583021070
:0168D600764B
:1068D700AB0790070FE0FCA3E0FDA3E0FEA3E0FFFA
:1068E700EB75F041A424F1F582E43403F58302103B
:0168F700762A
:1068F800AB07900714E0FCA3E0FDA3E0FEA3E0FFD4
:10690800EB75F041A424EDF582E43403F58302101D
:016918007608
:10691900AB07900719E0FCA3E0FDA3E0FEA3E0FFAD
:10692900EB75F041A424F5F582E43403F5830210F4
:0169390076E7
:10693A00AB0790071EE0FCA3E0FDA3E0FEA3E0FF87
:10694A00EB75F041A424D9F582E43403F5830210EF
:01695A0076C6
:106C4800EF75F041A424D9F582E43403F583E0FC20
:0A6C5800A3E0FDA3E0FEA3E0FF228D
:106C6200EF75F041A424E1F582E43403F583E0FCFE
:0A6C7200A3E0FDA3E0FEA3E0FF2273
:106C7C00EF75F041A424E5F582E43403F583E0FCE0
:0A6C8C00A3E0FDA3E0FEA3E0FF2259
:106C9600EF75F041A424EDF582E43403F583E0FCBE
:0A6CA600A3E0FDA3E0FEA3E0FF223F
:106CB000EF75F041A424F1F582E43403F583E0FCA0
:0A6CC000A3E0FDA3E0FEA3E0FF2225
:106CCA00EF75F041A424F5F582E43403F583E0FC82
:0A6CDA00A3E0FDA3E0FEA3E0FF220B
:106CE400EF75F041A424FDF582E43403F583E0FC60
:0A6CF400A3E0FDA3E0FEA3E0FF22F1
:106CFE00EF75F041A424F9F582E43403F583E0FC4A
:0A6D0E00A3E0FDA3E0FEA3E0FF22D6
:10695B00AB07900723E0FCA3E0FDA3E0FEA3E0FF61
:10696B00EB75F041A42415F582E43404F583021091
:01697B0076A5
:105FB70090076EEFF075F041A42419F582E43404DC
:105FC700F583E0602FED24FE601214601714601C47
:105FD7002404702090076EE0FF0239AE90076EE050
:105FE700FF02376890076EE0FF02251F90076EE0FB
:055FF700FF12213E2213
:106DB400EF75F041A42419F582E43404F583E0600E
:096DC40007ED147003123F2222B6
:10553E00602A04E1000000000000000000000000EE
:10554E00000000000000000000000000000000004D
:0E555E0000000000000000000000000000003F
:105179009003BEEBF0A3EAF0A3E9F0900003120D4F
:1051890095FF9003BAE0FBA3E0FAA3E0F9A3E0FEE0
:10519900F582758300EF120DD49003BEE0FBA3E006
:1051A900FAA3E0F9900002120D95FFEE2401FDE447
:1051B90033FC9003BAE0FBA3E0FAA3E0F98D828CFB
:1051C90083EF120DD49003BEE0FBA3E0FAA3E0F94C
:1051D900900001120D95FFEE2402FDE433FC9003CB
:1051E900BAE0FBA3E0FAA3E0F98D828C83EF120DFC
:1051F900D49003BEE0FBA3E0FAA3E0F9120D7CFF13
:10520900EE2403FDE433FC9003BAE0FBA3E0FAA328
:0A521900E0F98D828C83EF020DD4C2
:0564E1009003B2EFF092
:1064E600E4A3F09003B2E0FF1252239003B3E0FE60
:1064F600C39F501774E12EF582E43404F583E0FF60
:0B6506001266DB9003B3E004F080D8C5
:016511002267
:10476C009003B21210769003B6E0FFD3940A400384
:10477C0002489FEF700302489FEF14B40A004003F5
:10478C0002489F90479D75F003A4C58325F0C5830F
:10479C00730247BB0247D10247E80247FF024816A3
:1047AC0002482C02484202485802486E0248849043
:1047BC0003BA7401F0A37404F0A374E1F0A37401C0
:1047CC00F0FB0248989003BA7401F0A37404F0A3B0
:1047DC0074E1F0A37405F07B010248989003BA745D
:1047EC0001F0A37404F0A374E1F0A37409F07B014D
:1047FC000248989003BA7401F0A37404F0A374E116
:10480C00F0A3740DF07B010248989003BA7401F088
:10481C00A37404F0A374E1F0A37411F07B01806C19
:10482C009003BA7401F0A37404F0A374E1F0A374C0
:10483C0015F07B0180569003BA7401F0A37404F058
:10484C00A374E1F0A37419F07B0180409003BA7457
:10485C0001F0A37404F0A374E1F0A3741DF07B01C8
:10486C00802A9003BA7401F0A37404F0A374E1F0ED
:10487C00A37421F07B0180149003BA7401F0A3742B
:10488C0004F0A374E1F0A37425F07B017A0379B2F0
:04489C00125179221A
:10522300EFD3940A5003EF70037F00229004E174DC
:1052330024F0EF14B40A0040030252C590524D7596
:10524300F003A4C58325F0C5837302526B02527425
:1052530002527D02528602528F0252980252A102DA
:1052630052AA0252B30252BC9004E67405F07F06C0
:10527300229004EA7409F07F0A229004EE740DF080
:105283007F0E229004F27411F07F12229004F674C0
:1052930015F07F16229004FA7419F07F1A229004F5
:1052A300FE741DF07F1E229005027421F07F2222DE
:1052B3009005067425F07F262290050A7429F07F55
:0552C3002A227F0022F9
:03000B0002302997
:10302400C2AF80FE3212302885D00B75D008AAE0DA
:10303400C28CE58A2443F58AE58C34F6F58CD28C6F
:10304400EC241BF8E6BC030274FFC39581B414009E
:1030540040CE7904786316E608700BC2AFE630E11F
:10306400034418F6D2AF08D9EDEA8BD022E50CFF61
:10307400232464F80F0808BF04047F007864E63052
:10308400E4F200E50CC39F5020050C741A250CF8DB
:10309400E6FDA68108E6AE0CBE030274FFCDF8E897
:1030A4006D60E008E6C0E080F6E50CD39F4027E5BC
:1030B4000C241BF8E6AE0CBE030274FFFD18E6CD2B
:1030C400F8E5816D6006D0E0F61880F5E50C241A69
:1030D400C8F6150C80D3E50C232464F87F04C2AF32
:1030E400E630E00310E20C7F0030E10730E3047FB8
:1030F4000854F4547CC6D2AF5480420722781AA6EE
:103104008174036006FF0876FFDFFB7F04E47863C5
:10311400F608F608DFFA7864763090713574019316
:10312400C0E0E493C0E0438901758A3C758CF6D213
:073134008CD2AFD2A92203E7
:03717D0002651296
:0D705300742E2FF582E43406F583E0FF2251
:1061C5001249CDEF70361249CDEF6013242EF582BA
:1061D500E43406F5837401F0E490062DF080179001
:1061E500062DE0FF7E00BE030DBFE80A7F10900676
:0C61F5002EE4F0A3DFFC90062DE004F087
:01620100227A
:1032AC002025203464002025203466000000000016
:1032BC0000000000004F0000000007000700001491
:1032CC007F147F1400242A7F2A12002313086462BF
:1032DC0000364955225000000503000000001C2256
:1032EC004100000041221C000014083E0814000894
:1032FC00083E0808000050300000000808080808C4
:10330C00000060600000002010080402003E5149DB
:10331C00453E0000427F4000004261514946002179
:10332C0041454B31001814127F1000274545453993
:10333C00003C4A49493000017109050300364949EE
:10334C00493600064949291E0000363600000000A7
:10335C0056360000000814224100001414141414F2
:10336C00000041221408000201510906003249797B
:10337C00413E007E1111117E007F4949493E003EBD
:10338C0041414122007F4141221C007F4949494172
:10339C00007F09090901003E4149497A007F08086C
:1033AC00087F0000417F4100002040413F01007F29
:1033BC0008142241007F40404040007F0204027FFD
:1033CC00007F0408107F003E4141413E007F090907
:1033DC000906003E4151215E007F0919294600462D
:1033EC00494949310001017F0101003F4040403F04
:1033FC00001F2040201F003F4038403F006314084E
:10340C001463000304780403006151494543000030
:10341C007F4141000015167C1615000041417F00CC
:10342C000004020102040040404040400000010240
:10343C000400002054545478007F48444438003829
:10344C004444442000384444487F003854545418B1
:10345C0000087E090102000C5252523E007F080403
:10346C0004780000447D4000002040443D00007F73
:10347C00102844000000417F4000007E020C027CBA
:10348C00007E0402027C003844444438007C14144E
:10349C00140800081414187C007C08040408004864
:1034AC005454542000043F444020003C4040207CB5
:1034BC00001C2040201C003C4030403C00442810A4
:1034CC002844000C5050503C004464544C440000C0
:1034DC00083641000000007F000000004136080063
:1034EC000008040810080008082A1C0800081C2AF8
:1034FC0008080004027F02040010207F2010001C2A
:0A350C002A322A1C001C2244221C53
:1069BD00C2CBED24FF92CA7E08EF30E704D2C98026
:0F69CD0002C2C9C2C8EF25E0FFD2C8DEECD2CBB0
:0169DC002298
:10697C00E4FD7F801269BD7F401269BD7BF87A010E
:10698C007D01E4FF1269BDEB1B70011AEB4A70F03C
:01699C0022D8
:106E6900AD07E4FF126E417C547D01E4FF1269BD58
:026E7900DCF744
:016E7B0022F4
:106E4100AC05EF4480FFEC4440FCE4FD1269BDAFAA
:046E5100040269BD11
:07620200E0FF04F0A3E0FD42
:1062090074E02BFBEF75F006A4FF126E41E4FC75F8
:10621900F006EBA424B8F582E5F03432F583E58283
:106229002CF582E43583F583E493FF7D011269BD82
:056239000CECB406DAD4
:01623E00223D
:1062B800900727EFF0A3EDF0A3EBF0A3EAF0A3E932
:1062C800F0900729E0FBA3E0FAA3E0F9120D7CFBAC
:1062D8006018900727E0C3940E500F1262029007CF
:0B62E8002AE475F001120E9380D7220B
:105E9000900382EFF0A3EDF0A3EBF0A3EAF0A3E907
:105EA000F0900384E0FBA3E0FAA3E0F9120D7CFB81
:105EB0006028900382126202900385E475F001125B
:105EC0000E93900382E0B40E06E4F0A3E004F09099
:0B5ED0000383E0B406CBE4F080C7229F
:0C632E00900376EFF0A3EDF0AF03AE0299
:10633A0090038574FFF0A37432F0A374ACF0A3EE5B
:10634A00F0A3EFF07B017A03797B121D209003768C
:0E635A00E0FFA3E0FD7B017A03797B025E90F9
:085FFC0090067EEFF0A3EDF02A
:1060040090038574FFF0A37432F0A374B2F0900689
:1060140080E0FCA3E0FDA3E0FEA3E0FF9003881270
:1060240010767B017A067986121D2090067EE0FFA9
:0C603400A3E0FD7B017A067986025E90F5
:10608400E4900333F0A304F0FB7A0379337F051221
:106094003D5EC2CCD2CCE4FD7F211269BD7F0612E5
:1060A40069BD7F131269BD7FC81269BD7F20126963
:1060B400BD7F0C1269BD7F401269BD7F801269BD2E
:0360C40002697CF2
:02556C00C10F6D
:1065C5009003347405F0E4900333F07B017A03798A
:1065D500337F05123D5E1271677FC8126FDE12713F
:0765E5006C7FC8126FDED3CA
:0165EC00228C
:05716700C2CDD20F2291
:05716C00D2CDC20F228C
:10685200900333EFF0900333E0FF14F0EF60121275
:1068620071677FC8126FDE12716C7FC8126FDE8093
:02687200E4221E
:03718000A20F2239
:06713D0090076FEFF02245
:1056670090072CEFF07F337E337D737C3FA3E0F808
:10567700A3E0F9A3E0FAA3E0FB120A9E600C400A3C
:1056870090072D1210823F7333337FCD7ECC7D4C34
:105697007C3D90072DE0F8A3E0F9A3E0FAA3E0FB37
:1056A700120A9E500A90072D1210823D4CCCCD90C5
:1056B700072CE02404FFC007A3E0FCA3E0FDA3E060
:1056C700FEA3E0FF900732121076D007124CFA9033
:1056D700072DE0FCA3E0FDA3E0FEA3E0FF120B49CA
:1056E70090072CE025E02437F582E43407F583EFB3
:0256F700F0229F
:106AD700900770EFF02404FF1265ED900770E02532
:0E6AE700E02436F582E43407F5837401F022D2
:106B1300900771EFF02404FF1267E5900771E025F9
:0D6B2300E02436F582E43407F583E4F02227
:106FCE00EF25E02436F582E43407F583E024FF2232
:105A9B00E490061BF0A37408F07B017A06791B7F58
:105AAB0002123D5E90061C7404F07B017A06791B92
:105ABB007F02123D5ED2A2D2A343BA80E490061DB0
:105ACB00F0A3F0A3F0A304F0E4A3F0A3F0A3F0A3DE
:105ADB00F0A3F0A3F0A3F0A3F0A3F0A3F0A3F0A323
:105AEB00F07B017A06791D7F021228F77B017A067B
:0A5AFB00791D7F031228F753BA7FCC
:015B0500227D
:053B8A00900543EFF07F
:103B8F00E4900552F0A37480F07B017A0579527F9F
:103B9F0003123D5ED2B743BA80E4900554F0A3F010
:103BAF00A3F0A304F0E4A3F0A3F0A3F0A3F0A3F019
:103BBF00A3F0A3740FF0E4A3F0A3F0A3F0A3F0A37A
:103BCF00F0900543E0FF7B017A0579541228F753F3
:103BDF00BA7F900543E0FF7D10126F9B900543E085
:103BEF00FF7D327C00125B6B900544E0FCA3E0FD8F
:103BFF00A3E0FEA3E0FF900543E0FB75F025A424AE
:103C0F0060F582E43404F583121076900548E0FCE9
:103C1F00A3E0FDA3E0FEA3E0FFEB75F025A4246471
:103C2F00F582E43404F58312107690054CE0FCA382
:103C3F00E0FDA3E0FEA3E0FFEB75F025A42472F5F1
:103C4F0082E43404F583121076900550E0FEA3E071
:103C5F00FFEB75F025A4246CF582E43404F583EEB4
:103C6F00F0A3EFF0EB75F025A42460F582E43404A3
:103C7F00F583E0F8A3E0F9A3E0FAA3E0FB90054396
:103C8F00E075F025A42464F582E43404F583E0FCA8
:103C9F00A3E0FDA3E0FEA3E0FF120803C004C005EC
:103CAF00C006C007900543E075F025A4246CF5828B
:103CBF00E43404F583E0FCA3E0FDE4120B10A80448
:103CCF00A905AA06AB07D007D006D005D004120A63
:103CDF0001900543E0FB75F025A42468F582E434D8
:103CEF0004F583121076EB75F025A4246CF582E4AD
:103CFF003404F583E0FCA3E0FDE4120B10A804A943
:103D0F0005AA06AB07900543E075F025A42472F5CC
:103D1F0082E43404F583E0FCA3E0FDA3E0FEA3E01E
:103D2F00FF120A01900543E0FB75F025A42476F5F8
:103D3F0082E43404F583121076EB75F025A4246E1B
:0E3D4F00F582E43404F58312108200000000B7
:013D5D002243
:054AF8009006B3EFF091
:104AFD00A3E0FCA3E0FDA3E0FEA3E0FF9006B3E07E
:104B0D00FB75F025A4245BF582E43404F5831210C3
:104B1D0076EB75F025A42476F582E43404F583E074
:104B2D00F8A3E0F9A3E0FAA3E0FB9006B4E0FCA340
:104B3D00E0FDA3E0FEA3E0FF120A019006B3E075CD
:104B4D00F025A42468F582E43404F583E0F8A3E0AD
:104B5D00F9A3E0FAA3E0FB1208F89006B3E075F0B4
:104B6D0025A42460F582E43404F583E0F8A3E0F98C
:104B7D00A3E0FAA3E0FB1208079006B3E0FB75F083
:104B8D0025A4247CF582E43404F583121076EB75AC
:104B9D00F025A4247CF582E43404F583E0FCA3E045
:104BAD00FDA3E0FEA3E0FFE4FBFA79A07841120A31
:104BBD00019006B81210769006B8E0FCA3E0FDA3B4
:104BCD00E0FEA3E0FF9007321210769006B3E0FFEF
:104BDD00124CFA9006B3E0FB75F025A4245BF58228
:104BED00E43404F583E0FCA3E0FDA3E0FEA3E0FFC5
:104BFD00EB75F025A4246EF582E43404F5830210E0
:014C0D007630
:106D1800EF75F025A4246EF582E43404F583E0FCD5
:0A6D2800A3E0FDA3E0FEA3E0FF22BC
:1069DD00900772EFF01265ED900772E075F025A447
:1069ED00247AF582E43404F583E4F0A304F0D32291
:106A1D00900773EFF01267E5900773E075F025A40A
:0F6A2D00247AF582E43404F583E4F0A3F0D32255
:1067C000C0079006C5E0FCA3E0FDA3E0FEA3E0FF48
:1067D0009006AB1210769006C9E0FCA3E0FDD0074E
:0567E000124C0ED32253
:104DDE009006CBEFF0C007E4FFFE7DB47C43A3E06A
:104DEE00F8A3E0F9A3E0FAA3E0FB1208F8C004C0B0
:104DFE0005C006C0079006CBE075F00EA42469F539
:104E0E0082E43405F583E0FCE4120B15D003D002E6
:104E1E00D001D0001208F8C004C005C006C007902B
:104E2E0006CBE075F00EA4246DF582E43405F5830F
:104E3E00E0FCA3E0FDA3E0FEA3E0FF7B567A0E7933
:104E4E004978401208F89006CBE075F00EA4246560
:104E5E00F582E43405F583E0F8A3E0F9A3E0FAA3C4
:104E6E00E0FB1208F8A804A905AA06AB07D007D0E4
:104E7E0006D005D004120A01120B499006C5121075
:104E8E00769006D0E0FFA3E09006C9CFF0A3EFF036
:074E9E00D0071267C0D32208
:105B06009006D2EFF0E0FEFFC00775F00EA4246900
:105B1600F582E43405F583E0FCE4120B159006D318
:105B2600E0F8A3E0F9A3E0FAA3E0FB1208F8900678
:105B3600D2E075F00EA42465F582E43405F583E021
:105B4600F8A3E0F9A3E0FAA3E0FB120A01120B495D
:105B56009006AB1210769006D7E0FCA3E0FDD007C6
:055B6600124C0ED322D9
:1063A20090075EEAF0A3EBF0C007AE04AF057C01F4
:1063B2007D68120DF6AC06AD07E4120B109006D301
:1063C20012107690075EE0FFA3E09006D7CFF0A30D
:0963D200EFF0D007125B06D322A4
:0F6FEE00EF7006900571EDF02290057FEDF02217
:106F5700EF75F00EA42471F582E43405F583E0FFA4
:016F67002207
:106BF700EF7009201004C2A78002D2A7EFB40109E1
:0B6C0700201004C2A58002D2A5D322F9
:106B3000900774EFF0126B4D900774E075F00EA49F
:0D6B40002471F582E43405F5837401F02220
:106E7C00EF75F00EA42471F582E43405F583E4F08B
:036E8C00026AF5A2
:106B8700EF7004C2A68002C2A4EF75F00EA42471B0
:0C6B9700F582E43405F5837401F0D3228C
:106BA300EF7004D2A68002D2A4EF75F00EA4247174
:0C6BB300F582E43405F5837402F0D3226F
:05536B0090068DEFF03B
:10537000E4900699F0A374F0F07B017A0679997FA6
:1053800002123D5E90068EE0FCA3E0FDA3E0FEA3CA
:10539000E0FF90068DE0FB75F00EA42465F582E435
:1053A0003405F583121076900692E0FFEB75F00E4F
:1053B000A42469F582E43405F583EFF0900693E0C8
:1053C000FEA3E0FFEB75F00EA4246AF582E4340539
:1053D000F583EEF0A3EFF0900695E0FCA3E0FDA3CB
:1053E000E0FEA3E0FFEB75F00EA4246DF582E4343B
:1053F00005F583121076EB75F00EA42471F582E4A6
:0A5400003405F5837401F002656FB6
:106BBF009006E7EFF0A3EDF0A37401F0E4A3F0A3C8
:0C6BCF00F0A3F07B017A0679E7025DEA92
:105D9600E49005F2F030113DF0E4FF125C2D900521
:105DA600F2E025E024DEF582E43405F583EEF0A387
:105DB600EFF09005F2E004F0E0C3940A40DB9006B1
:105DC600BCE0FCA3E0FDA3E0FEA3E0FFA312107677
:105DD6009006BC80039006C0E0FCA3E0FDA3E0FEB5
:035DE600A3E0FF38
:015DE9002297
:086DCD0090073AECF0A3EDF091
:106DD500E4A3F0A3EFF07B017A07793CE4FF023DE1
:016DE5005E4F
:056F6800900775EFF039
:0B6F6D00E4FF00000FEFB408F9000083
:016F780022F6
:10556E004205A00000C10DC10E4205980000420583
:0D557E009C000042059A000042059E0000BE
:0A4C0E009006A9ECF0A3EDF0AB074F
:104C1800E49006AFF0A3F09006A9E0FEA3E0FFEB56
:104C280075F007A424A6F582E43405F583EEF0A315
:104C3800EFF09006ABE0FCA3E0FDA3E0FEA3E0FFED
:104C4800EB75F007A424A2F582E43405F58312106D
:104C580076EB704F9006A9E0FEA3E0FFD39414EE24
:104C68009400403BAB07AA06E4F9F87F807E847D78
:104C78001EFC126040E47B02FAF9F8126040C3E4BB
:104C88009FFFE49E9006B1F0A3EFF0C20D438F049E
:104C98009006B1E0FCA3E0FDECF5D68DD78051D2AB
:104CA8000D804D9006A9E0FEA3E0FFD39414EE9486
:104CB80000403BAB07AA06E4F9F87F807E847D1E9E
:104CC800FC126040E47B02FAF9F8126040C3E49FEA
:104CD800FFE49E9006B1F0A3EFF0C20E43D101901D
:104CE80006B1E0FCA3E0FDECF5D48DD58002D20E30
:014CF800D3E8
:014CF9002298
:106AF500EF75F007A424A8F582E43405F583740145
:0E6B0500F0EF7005438E10800343D108D322B9
:106B4D00EF7005538EEF800353D1F7EF75F007A467
:0D6B5D0024A8F582E43405F583E4F0D3228A
:106EEC00EF75F007A424A8F582E43405F583E024BB
:026EFC00FF2273
:10656F00E4900760F0A304F0FB7A0779607F0312D1
:10657F003D5E9007617410F07B017A077960E4FF4C
:0C658F00123D5EE49005A8F09005AFF00E
:01659B0022DD
:030063000259A59A
:1059A500C0E0C0F0C083C082C0D075D000C000C0C8
:1059B50001C002C003C004C005C006C007E47F02E1
:1059C500FEFDFC9005A2E0F8A3E0F9A3E0FAA3E050
:1059D500FB120EF7C006C007900598E475F001129A
:1059E5000E93AFF0AB07FAE4F9F8D007D006C3126F
:1059F5001022400CE4FF126B4D900598E4F0A3F0E3
:105A0500D007D006D005D004D003D002D001D000F5
:0B5A1500D0D0D082D083D0F0D0E0329F
:03009B00025A20E6
:105A2000C0E0C0F0C083C082C0D075D000C000C04C
:105A300001C002C003C004C005C006C007E47F0265
:105A4000FEFDFC9005A9E0F8A3E0F9A3E0FAA3E0CD
:105A5000FB120EF7C006C00790059AE475F001121C
:105A60000E93AFF0AB07FAE4F9F8D007D006C312F3
:105A70001022400C7F01126B4D90059AE4F0A3F0C8
:105A8000D007D006D005D004D003D002D001D0007A
:0B5A9000D0D0D082D083D0F0D0E03224
:0970D200D280C281C282D2832265
:0970DB00C280D281D282C283225C
:0970E400C280C281C282C2832273
:0970ED00D280C281C282C283225A
:0970F600C280D281C282C2832251
:0970FF00D280C281D282C2832238
:09710800C280C281C282D283223E
:09711100C280C281D282C2832235
:09711A00C280D281C282D283221C
:01718B0022E1
:056C1200900762EDF0A7
:106C1700127143900763EFF0900762E0FF12714330
:056C2700900763E0FF8F
:016C2C002245
:0C706000EF4480FF1271437FFF12714368
:01706C002201
:105CE600E4FD7F6B126C127D077F1A126C127D30F9
:105CF6007F37126C127D4D7F24126C127D207F6AD5
:105D0600126C127D017F67126C127D817F27126CE7
:105D1600127D077F19126C127D187F1B126C127D83
:105D2600187F1C126C127D087F1D126C127D017F7C
:0B5D36000B1263687D127F0A02636895
:10540A007F3C1270609005C2EFF07F3B1270609093
:10541A0005C3EFF0FE9005C2E0FDEDFF9005B0EE8A
:10542A00F0A3EFF07C007DA4120E5D9005B0EEF0C3
:10543A00A3EFF07F3E1270609005C4EFF07F3D123B
:10544A0070609005C5EFF0FE9005C4E0FDEDFF9099
:10545A0005B2EEF0A3EFF07C007DA4120E5D90057C
:10546A00B2EEF0A3EFF07F401270609005C6EFF045
:10547A007F3F1270609005C7EFF0FE9005C6E0FD11
:10548A00EDFF9005B4EEF0A3EFF07C007DA4120EC0
:0A549A005D9005B4EEF0A3EFF022E0
:104EA5007F441270609005C2EFF07F4312706090EE
:104EB50005C3EFF0FE9005C2E0FDEDFF9005B6EEEF
:104EC500F0A3EFF0AC06EC120B107B337A33798349
:104ED5007841120A01120B499005B6EEF0A3EFF0E6
:104EE5007F461270609005C4EFF07F4512706090A8
:104EF50005C5EFF0FE9005C4E0FDEDFF9005B8EEA9
:104F0500F0A3EFF0AC06EC120B107B337A33798308
:104F15007841120A01120B499005B8EEF0A3EFF0A3
:104F25007F481270609005C6EFF07F471270609061
:104F350005C7EFF0FE9005C6E0FDEDFF9005BAEE62
:104F4500F0A3EFF0AC06EC120B107B337A337983C8
:104F55007841120A01120B499005BAEEF0A3EFF061
:014F65002229
:1048A0007F1012624390074FEFF07F111262439026
:1048B0000750EFF07F12126243900751EFF07F0232
:1048C000126243EF30E1030249CC7F03126243904E
:1048D00005C212623FEF5408FFBF010A7F03126254
:1048E000439005C2EFF07F041262439005C3126249
:1048F0003FEF5408FFBF010A7F041262439005C3D3
:10490000EFF09005C3E0FE9005C2E0FDEEFCE4246C
:1049100001FFE433FE120DF69005BCEEF0A3EFF0BC
:104920007F051262439005C412623FEF5408FFBF37
:10493000010A7F051262439005C4EFF07F06126200
:10494000439005C512623FEF5408FFBF010A7F067E
:104950001262439005C5EFF09005C5E0FE9005C4D6
:10496000E0FDEEFCE42401FFE433FE120DF69005B9
:10497000BEEEF0A3EFF07F071262439005C612620D
:104980003FEF5408FFBF010A7F071262439005C63C
:10499000EFF07F081262439005C712623FEF5408A0
:1049A000FFBF010A7F081262439005C7EFF0900530
:1049B000C7E0FE9005C6E0FDEEFCE42401FFE43311
:0C49C000FE120DF69005C0EEF0A3EFF023
:0149CC0022C8
:06714300900776EFF02238
:04623F00EFF07F09F4
:05624300900752EFF08E
:10624800A37413F0A37488F07D8C7F25126C1290D0
:106258000752E0FD7F26126C127DFF7F63126C12DD
:1062680090075374FFF5F0120EA945F070F27F49BC
:0362780012706041
:01627B002200
:0863680090073EEFF0A3EDF0F9
:10637000A37401F0A374F4F07D0C7F25126C1290CD
:10638000073EE0FD7F26126C1290073FE0FD7F6321
:10639000126C1290074074FFF5F0120EA945F070D0
:0163A000F20A
:0163A10022D9
:04558B0041029C003D
:1062F300EF75F04BA424E5F582E43402F583E4F072
:10630300EF75F04BA424E6F582E43402F583E4F060
:10631300EF75F04BA424E7F582E43402F583E4F04F
:0B6323007BFF7A187921AD07026FBDE7
:106EFE00EF75F04BA424E5F582E43402F5837401BA
:026F0E00F0226F
:106F7900EF75F04BA424E5F582E43402F583E4F0DF
:016F890022E5
:106F1000EF75F04BA424E6F582E43402F5837401A6
:026F2000F0225D
:106F8A00EF75F04BA424E6F582E43402F583E4F0CD
:016F9A0022D4
:105EDB00EF75F04BA424E7F582E43402F583E0641C
:105EEB00017031EF75F04BA424A5F582E43402F573
:105EFB008375F002ED1210B3E0FCA3E0FDEC120B86
:105F0B0010E4FBFAF97847120A01E4FBFA7980787E
:0A5F1B00410208F8E4FFFEFDFC223D
:105F2500EF75F04BA424E7F582E43402F583E064D1
:105F3500017031EF75F04BA424ADF582E43402F520
:105F45008375F002ED1210B3E0FCA3E0FDEC120B3B
:105F550010E4FBFAF97847120A01E4FBFA79FA78BA
:0A5F6500440208F8E4FFFEFDFC22F0
:1064AF00EF75F04BA424B5F582E43402F58375F053
:1064BF0002ED1210B3E0FCA3E0FDEC120B10E4FBB5
:1064CF00FAF97847120A01E4FBFA79347843120893
:0264DF00F822A1
:1063DB00EF75F04BA424E7F582E43402F583E0B4C7
:1063EB00011EEF75F04BA424BDF582E43402F58356
:1063FB0075F002ED1210B3E0FCA3E0FDEC020B1004
:06640B00E4FFFEFDFC228F
:1055D400900361EBF0A3EAF0A3E9F0A3E0FBA3E0FE
:1055E400FAA3E0F9900003120D95FF900361E0FB2C
:1055F400A3E0FAA3E0F9EF120DC2900364E0FBA369
:10560400E0FAA3E0F9900002120D95FF900361E027
:10561400FBA3E0FAA3E0F9900001EF120DD490038C
:1056240064E0FBA3E0FAA3E0F9900001120D95FFFA
:10563400900361E0FBA3E0FAA3E0F9900002EF120B
:105644000DD4900364E0FBA3E0FAA3E0F9120D7C0F
:10565400FF900361E0FBA3E0FAA3E0F9900003EFFD
:03566400020DD460
:05182100900333EFF01D
:1018260075F04BA424E5F582E43402F583E07003F9
:10183600021CBA900333E0FF75F04BA424E6F58250
:10184600E43402F583E07003021CBAEF75F04BA492
:1018560024E7F582E43402F583E4F090001CE064AA
:1018660055600AE4900004F090029CF02290000477
:10187600E0FF241CF582E43400F583E0FE74902F2B
:10188600F582E43402F583EEF0900004E0C3940B95
:101896005003021CBA900291E024B0B40900400340
:1018A600021C9D9018B775F003A4C58325F0C58367
:1018B600730218D20219720219D2021A32021AB22D
:1018C600021B31021BB8021C00021C35900292E07A
:1018D600FF900333E0FE75F04BA4249DF582E434BB
:1018E60002F583EFF0900293E0FFEE75F04BA4242F
:1018F6009EF582E43402F583EFF0900294E0FFEE69
:1019060075F04BA4249FF582E43402F583EFF09042
:101916000295E0FFEE75F04BA424A0F582E43402B4
:10192600F583EFF0900296E0FFEE75F04BA424A14C
:10193600F582E43402F583EFF0900297E0FFEE754E
:10194600F04BA424A2F582E43402F583EFF0900272
:1019560099E0FE900298E0FDEDFF900333E075F00C
:101966004BA424A3F582E43402021BAE900293E05A
:10197600FE900292E0FDEDFF900333E0FD75F04B23
:10198600A424A5F582E43402F583EEF0A3EFF090EB
:101996000295E0FE900294E0FBEBFFED75F04BA4A0
:1019A60024A7F582E43402F583EEF0A3EFF090026B
:1019B60097E0FE900296E0FDEDFF900333E075F0B0
:1019C6004BA424A9F582E43402021BAE900293E0F4
:1019D600FE900292E0FDEDFF900333E0FD75F04BC3
:1019E600A424ADF582E43402F583EEF0A3EFF09083
:1019F6000295E0FE900294E0FBEBFFED75F04BA440
:101A060024AFF582E43402F583EEF0A3EFF0900202
:101A160097E0FE900296E0FDEDFF900333E075F04F
:101A26004BA424B1F582E43402021BAE900293E08B
:101A3600FE900292E0FDEDFF900333E0FD75F04B62
:101A4600A424B5F582E43402F583EEF0A3EFF0901A
:101A56000295E0FE900294E0FBEBFFED75F04BA4DF
:101A660024B7F582E43402F583EEF0A3EFF090029A
:101A760097E0FE900296E0FDEDFF900333E0FD75E2
:101A8600F04BA424B9F582E43402F583EEF0A3EF1B
:101A9600F0900299E0FE900298E0FBEBFFED75F006
:101AA6004BA424BBF582E43402021BAE900293E001
:101AB600FE900292E0FDEDFF900333E0FD75F04BE2
:101AC600A424BDF582E43402F583EEF0A3EFF09092
:101AD6000295E0FE900294E0FBEBFFED75F04BA45F
:101AE60024BFF582E43402F583EEF0A3EFF0900212
:101AF60097E0FE900296E0FDEDFF900333E0FD7562
:101B0600F04BA424C1F582E43402F583EEF0A3EF92
:101B1600F0900299E0FE900298E0FBEBFFED75F085
:101B26004BA424C3F582E43402807D900293E0FE48
:101B3600900292E0FDEDFF900333E0FD75F04BA4BB
:101B460024C5F582E43402F583EEF0A3EFF09002AB
:101B560095E0FE900294E0FBEBFFED75F04BA424BC
:101B6600C7F582E43402F583EEF0A3EFF090029716
:101B7600E0FE900296E0FDEDFF900333E0FD75F088
:101B86004BA424C9F582E43402F583EEF0A3EFF00A
:101B9600900299E0FE900298E0FBEBFFED75F04BAA
:101BA600A424CBF582E43402F583EEF0A3EFF00231
:101BB6001C9D9002927412F0A37434F0A37456F034
:101BC600A37478F0900333E075F04BA424CDF97438
:101BD6000235F0FA7B01C003900364EBF0A37402B4
:101BE600F0A37492F0D0031255D4900333E075F04D
:101BF6004BA424D1F97402021C84900333E075F0DF
:101C06004BA424D5F9740235F0FA7B01C003900386
:101C160064EBF0A37402F0A37492F0D0031255D4CF
:101C2600900333E075F04BA424D9F97402804F90E9
:101C36000293E0FE900292E0FDEDFF900333E0FD9B
:101C460075F04BA424DDF582E43402F583EEF0A3AF
:101C5600EFF0900295E0FE900294E0FBEBFFED754D
:101C6600F04BA424DFF582E43402F583EEF0A3EF13
:101C7600F0900333E075F04BA424E1F9740235F0DB
:101C8600FA7B01C003900364EBF0A37402F0A37423
:101C960096F0D0031255D4E490029CF0900004F024
:101CA600900333E075F04BA424E7F582E43402F5A3
:041CB600837401F042
:011CBA002207
:0F6FFD0074552FF582E43407F5837401F0D32225
:0E701B0074552FF582E43407F583E4F0D32298
:01718C0022E0
:106F22003F065B4F666D7D077F6F777C395E7971B7
:026F320040EF2E
:0A558F00080D0000000000000000FD
:05627C00900764EFF043
:10628100E4A3F0C2917F017E00126541900764E0B2
:10629100FF30E004D2908002C290EFC313900764F4
:1062A100F0D2917F017E00126541900765E004F014
:0662B100E0C3940840CD9B
:0162B70022C4
:10610700E4900767F0D290900766F0900767E0C3C6
:1061170013F0C2917F017E0012654130900790070E
:1061270067E04480F0D2917F017E001265419007BD
:0F61370066E004F0E0C3940840D1900767E0FFF2
:016146002236
:106A3C00900777EFF0C2927F017E001265419007BC
:0F6A4C0077E0FF12627CD2927F017E00026541EB
:1049CD00E49006F2F0C2927F4212627C7F01126F78
:1049DD00DEE49006F1F01261079006F1E024EDF5AA
:1049ED0082E43406F583EFF09006F1E004F0E0C3C5
:1049FD00940440E2D2929006EDE0FFB404099006D3
:104A0D00F27401F0024AEDEFB440099006F274021F
:104A1D00F0024AED9006EEE0FFB404099006F27440
:104A2D0003F0024AEDEFB440099006F27404F0026F
:104A3D004AED9006EFE0FFB404099006F27405F01C
:104A4D00024AEDEFB440099006F27406F0024AED09
:104A5D009006F0E0FFB404099006F27407F0024AE4
:104A6D00EDEFB440089006F27408F080739006EDF7
:104A7D00E0FFB402089006F27409F08063EFB420F1
:104A8D00089006F2740AF080579006EEE0FFB4022B
:104A9D00089006F2740BF08047EFB420089006F2F0
:104AAD00740CF0803B9006EFE0FFB402089006F224
:104ABD00740DF0802BEFB420089006F2740EF08088
:104ACD001F9006F0E0FFB402089006F2740FF0801C
:104ADD000FEFB420089006F27410F080037F0022CF
:0A4AED007F01126FDE9006F2E0FF79
:014AF700229C
:106512007F8A126A3C7F8A126A3C7F40126A3CC2BE
:10652200927FC012627CE4900778F07FFF12627C57
:0E653200900778E004F0E0C3941040EFD2929E
:016540002238
:102C910090060FE0900618F090060EE0900619F0ED
:102CA10090060DE090061AF090060CE0F990060BE4
:102CB100E0FAAE05AC06AD07900619E0906F2293DD
:102CC100540125E0FF900618E0906F229354012FE4
:102CD100FF90061AE0906F2293540125E025E02F22
:102CE100FFE993540133333354F82FFFEA9354012E
:102CF100C454F02FFFEB935401C43354E02FFFEC85
:102D0100935401C4333354C02FFFED935401C433A2
:102D1100333354802F900610F0900618E0906F2204
:102D2100935402C313FF900619E0906F229354024B
:102D31002FFF90061AE0906F2293540225E02FFF97
:102D4100E993540225E025E02FFFEA93540233333F
:102D51003354F82FFFEB935402C454F02FFFEC933C
:102D61005402C43354E02FFFED935402C43333545F
:102D7100C02F900611F0900619E0906F2293540431
:102D8100C313FF900618E0906F2293540413135459
:102D91003F2FFF90061AE0906F229354042FFFE912
:102DA10093540425E02FFFEA93540425E025E02FF6
:102DB100FFEB93540433333354F82FFFEC93540453
:102DC100C454F02FFFED935404C43354E02F900604
:102DD10012F0900619E0906F229354081313543F98
:102DE100FF900618E0906F22935408131313541F99
:102DF1002FFF90061AE0906F22935408C3132FFF00
:102E0100E99354082FFFEA93540825E02FFFEB9331
:102E1100540825E025E02FFFEC9354083333335455
:102E2100F82FFFED935408C454F02F900613F0903F
:102E31000619E0906F22935410131313541FFF903F
:102E41000618E0906F22935410C4540F2FFF900680
:102E51001AE0906F229354101313543F2FFFE993FC
:102E61005410C3132FFFEA9354102FFFEB93541008
:102E710025E02FFFEC93541025E025E02FFFED9383
:102E8100541033333354F82F900614F0900619E0A0
:102E9100906F22935420C4540FFF900618E0906F56
:102EA10022935420C41354072FFF90061AE0906F09
:102EB10022935420131313541F2FFFE9935420130B
:102EC10013543F2FFFEA935420C3132FFFEB935466
:102ED100202FFFEC93542025E02FFFED9354202564
:102EE100E025E02F900615F0900619E0906F2293EF
:102EF1005440C4135407FF900618E0906F22935476
:102F010040C4131354032FFF90061AE0906F2293CD
:102F11005440C4540F2FFFE9935440131313541F0B
:102F21002FFFEA9354401313543F2FFFEB93544068
:102F3100C3132FFFEC9354402FFFED93544025E032
:102F41002F900616F0900619E0906F22935480C4DA
:102F510013135403FF900618E0906F22935480C41A
:102F610013131354012FFF90061AE0906F2293540C
:102F710080C41354072FFFE9935480C4540F2FFFCB
:102F8100EA935480131313541F2FFFEB93548013B0
:102F910013543F2FFFEC935480FEC3132FFFED9387
:102FA10054802F900617F07F8A126A3C7F40126A84
:102FB1003CC2927FC012627C900610E0FF12627CDC
:102FC1007F8012627C900611E0FF12627CE4FF12A6
:102FD100627C900612E0FF12627CE4FF12627C9038
:102FE1000613E0FF12627CE4FF12627C900614E09B
:102FF100FF12627CE4FF12627C900615E0FF126210
:103001007CE4FF12627C900616E0FF12627CE4FF12
:1030110012627C900617E0FF12627CE4FF12627C70
:02302100D29249
:01302300228A
:057171007F80026A3C72
:10674F001270AA7F901267751266917F011267759A
:10675F001266917FC21267751266917FE312677599
:06676F001266910271495F
:106E16001270AA7F90126775126691E4FF12677569
:066E2600126691027149A1
:10647C00E49003BFF0A3F01270AA7F91126775121B
:10648C00669112680A9003BFEFF012706D12680AE1
:10649C009003C0EFF01271499003BFE0FEA3E0FD42
:0264AC00EDFF02
:0164AE0022CB
:086D3200900333EFF0A3EDF034
:106D3A00E4A3F0A37418F07B017A0379357F020289
:026D4A003D5EAC
:05700C009003B2EFF05B
:0970110012674F126E1612647C26
:01701A002253
:105DEA00120D7CF59D900001120D95FFE5BC549FA4
:105DFA004FF5BC900002120D95B4010543BC80809A
:105E0A000353BC7F900003120D95B40105439720FC
:105E1A0080035397DF900005120D95B40104D2ADAB
:105E2A008002C2AD900004120D95B40103D2BD22C6
:035E3A00C2BD22C4
:0C708700EFB4010443BC802253BC7F2204
:105C2D00EFD3940740028051E4F5BDF5BEE5BC54B9
:105C3D00E044084FF5BC00000000E4FBE5BC30E497
:105C4D003353BCEFE59730E509E5BD5403ADBEFC1C
:105C5D00801DAFBD7C00AD07ED7E007802C333CE55
:105C6D0033CED8F9FFE5BE5403FDEEFCEF4DFDAF8D
:0D5C7D0005AE04220BEBB4FAC37E047F00D9
:015C8A0022F7
:03002B00027176E9
:0471760053BCEF32E5
:0F6FDE007D367C07ED1D70011C144C70F7DFF140
:016FED002281
:10654100E4FCFDFB7A36796E7801120EF7E47B0CE0
:10655100FAF9F81260407B407A42790F78001260B4
:0D65610040EF4E600800EF1F70F71E80F441
:01656E00220A
:0E702900E4F5C7F5C5F5C675C3FF75C4FF22B3
:10614700AD07AC06C2AF75C78075C501ECF5C3AF27
:10615700058FC475C65A75C6A500E5C2120DC20DD6
:10616700BD00010C740129F9E43AFA9006DE74FFC8
:0F617700F5F0120E9345F070D3127029D2AF22BB
:1069FD00AD07AC06C2AFECF5C3AF058FC475C7804C
:106A0D0075C50375C65A75C6A500127029D2AF2279
:10618600AD07AC06C2AF75C78075C502ECF5C3AFE7
:10619600058FC4120D7CF5C275C65A75C6A5000DCD
:1061A600BD00010C740129F9E43AFA9006E574FF82
:0F61B600F5F0120E9345F070D3127029D2AF227C
:0300030002718DFA
:01718D0032CF
:0300130002718EE9
:01718E0032CE
:0300530002718FA8
:01718F0032CD
:03005B000271909F
:0171900032CC
:0300830002719176
:0171910032CB
:104F6600EFD3940440037F0122EF702D90000212CC
:104F76000D95B40104D2A88002C2A8900001120DBA
:104F860095B40104D2B88002C2B8120D7CB40104F3
:104F9600D2888002C2887F0022EF6401702D9000C3
:104FA60002120D95B40104D2AA8002C2AA90000191
:104FB600120D95B40104D2BA8002C2BA120D7CB4A5
:104FC6000104D28A8002C28A7F0022EFB4021490C2
:104FD6000002120D95B40105438F108003538FEF25
:104FE6007F0022EFB40314900002120D95B4010560
:104FF600438F208003538FDF7F0022EFB404149089
:105006000002120D95B40105438F408003538FBFF4
:065016007F00227F022250
:03718300A2122233
:103D5E00EFD3940540037F0122120D7CFED3940312
:103D6E0040037F0222EF7041EE700B900001120DA6
:103D7E0095F452935294120D7CB4010B90000112E3
:103D8E000D954293F45294120D7CFEB4020A9000EB
:103D9E0001120D9542934294EEB4030D9000011260
:103DAE000D95FEF45293EE4294EF64017043120DA2
:103DBE007CFE700B900001120D95F452915292EE12
:103DCE00B4010B900001120D954291F45292120D16
:103DDE007CB4020A900001120D9542914292120D8E
:103DEE007CB4030D900001120D95FEF45291EE423B
:103DFE0092EF64027043120D7CFE700B9000011264
:103E0E000D95F452955296EEB4010B900001120DE1
:103E1E00954295F45296120D7CB4020A900001124E
:103E2E000D9542954296120D7CB4030D9000011231
:103E3E000D95FEF45295EE4296EF64037043120D0B
:103E4E007CFE700B900001120D95F452B152B2EE41
:103E5E00B4010B900001120D9542B1F452B2120D45
:103E6E007CB4020A900001120D9542B142B2120DBD
:103E7E007CB4030D900001120D95FEF452B1EE428A
:103E8E00B2EF64047043120D7CFE700B90000112B1
:103E9E000D95F452B352B4EEB4010B900001120D15
:103EAE009542B3F452B4120D7CB4020A9000011282
:103EBE000D9542B342B4120D7CB4030D9000011265
:103ECE000D95FEF452B3EE42B4EF64057043120D3D
:103EDE007CFF700B900001120D95F452C952CAEF7F
:103EEE00B4010B900001120D9542C9F452CA120D85
:103EFE007CB4020A900001120D9542C942CA120DFD
:103F0E007CB4030D900001120D95FFF452C9EF42DF
:043F1E00CA7F002234
:07703700C2A312703ED2A4B7
:06703E0000007F39DFFEB7
:017044002229
:0A70AA00D2A3127039C2A302703E97
:06714900127037D2A322F0
:0D706D00C2A4127037C2A412703ED2A3223A
:04668D00FF1267751C
:10669100E4FEC2A412703ED2A3D2A412703E30A373
:1066A1000DEEC394FF50070EA2A3920980F0C2A47D
:0266B100A2093C
:0166B30022C4
:0A70B400D2A3C2A4127039C2A422B4
:10680A00E4FEFDD2A412703EEE25E0FE12703E3088
:10681A00A3054401FE8000C2A412703E0DEDB40827
:03682A00E2AF06D4
:01682D002248
:02677500AE076D
:10677700E4FDC2A412703EEE5480FFC413131354F9
:106787000124FF92A3127039EE25E0FE0DEDB40847
:03679700E1C2A4B8
:01679A0022DC
:106DE600AC05AE071270AAAF06126775126691AFB0
:096DF60004126775126691D322A4
:0B6411009006F5EBF0A3EAF0A3E9F021
:10641C00126DE6E4FC9006F8E0FFECC39F50199077
:10642C0006F5E0FBA3E475F001120EA9A9F0FA122F
:0B643C000D7C12668D0C80DD027149A2
:105E3D009006FBEBF0A3EAF0A3E9F09006F9EFF082
:105E4D00126DE61270AAE0440112668DE4FC900614
:105E5D00FEE0FFECC39F502512680A9006FBE0FBA5
:105E6D00A3E475F001120EA9A9F0FAEF120DC2907C
:105E7D0006FEE0146C600312706D0C80D11270B4CC
:035E8D0002714956
:1050CB00EF7034D3ED9498EC940340047C037D98FB
:1050DB00C3ED9450EC940050047C007D50C2DE90E4
:1050EB0005FCECF0A3EDF0C374E89D9005F7F074AC
:1050FB00039C9005F68073EF64017034D3ED9468D4
:10510B00EC940B40047C0B7D68C3ED9450EC940045
:10511B0050047C007D50C2DE9005FEECF0A3EDF058
:10512B00C374B89D9005F9F0740B9C9005F8803A08
:10513B00EF64027038D3ED9480EC940740047C0745
:10514B007D80C3ED9450EC940050047C007D50C2E4
:10515B00DE900600ECF0A3EDF0AE04FFC374D09F1D
:0E516B009005FBF074079E9005FAF0D2DE224C
:1040C200900758EBF0A3EAF0A3E9F0AD07EDD39423
:1040D200034003024260ED6403704CC2DEF5F9F561
:1040E200E9900758E0FBA3E0FAA3E0F9120D7CFF88
:1040F200E5A254CF4FF5A2900001120D95FFE5D92C
:1041020054F14FF5D9900004120D955401FFE5D9F1
:1041120054FE4FF5D9900005120D95B40104D2BF9B
:104122008002C2BFD2DE22900758E0FBA3E0FAA3CE
:10413200E02404F9E43AFA120D7C5431120DC290D3
:104142000758E0FBA3E0FAA3E0F9900002120D95F4
:10415200C39448400FE92404F9E43AFA120D7C545E
:10416200CF120DC2ED704F900758E0FBA3E0FAA307
:10417200E0F9900004120D95FF900002120D95FED9
:104182004FF5DA900003120D95FFE5F2543F4FF51B
:10419200F2900006120EBFFBAAF09005FCEAF0A313
:1041A200EBF0C20A9005F3EEF0900602EAF0A3EB00
:1041B200F0F5EAEAF5FAED6401704F900758E0FB7A
:1041C200A3E0FAA3E0F9900004120D95FF9000021B
:1041D200120D95FE4FF5DB900003120D95FFE5F3EE
:1041E200543F4FF5F3900006120EBFFBAAF0900564
:1041F200FEEAF0A3EBF0C20B9005F4EEF090060499
:10420200EAF0A3EBF0F5EBEAF5FBED6402704F90F8
:104212000758E0FBA3E0FAA3E0F9900004120D9521
:10422200FF900002120D95FE4FF5DC900003120D77
:1042320095FFE5F4543F4FF5F4900006120EBFFDD2
:10424200ACF0900600ECF0A3EDF0C20C9005F5EE98
:0F425200F0900606ECF0A3EDF0F5ECECF5FC2295
:1044F90090075CECF0A3EDF090075BEFF0705ED3F2
:10450900EB9464EA940040047A007B64C3EB940161
:10451900EA940050047A007B01C2DE90075CE0FE59
:10452900A3E0FFAD03AC02120DF67C007D64120E10
:10453900089005FCEEF0A3EFF07C007D64AF03AEBC
:1045490002120E08C374019FFFE49EFE90075CE00F
:10455900FCA3E0FD120DF69005F602462E90075BCE
:10456900E06401705DD3EB9464EA940040047A003E
:104579007B64C3EB9401EA940050047A007B01C286
:10458900DE7C007D64AF03AE02120E0890075CE08A
:10459900FCA3E0FD120DF69005FEEEF0A3EFF07C12
:1045A900007D64AF03AE02120E08C374019FFFE4DD
:1045B9009EFE90075CE0FCA3E0FD120DF69005F865
:1045C900806390075BE064027062D3EB9464EA94C1
:1045D9000040047A007B64C3EB9401EA9400500420
:1045E9007A007B01C2DE7C007D64AF03AE02120E4D
:1045F9000890075CE0FCA3E0FD120DF6900600EEC2
:10460900F0A3EFF0AE02AF037C007D64120E08C385
:1046190074019FFFE49EFE90075CE0FCA3E0FD129D
:0D4629000DF69005FAEEF0A3EFF0D2DE22C0
:03003B000252C8A6
:1052C800C0E0C083C082C0D075D000C006C007301F
:1052D800D82AC2D830A5059005FC80039005F6E0D1
:1052E800FEA3E0FF900603E02FF0900602E03EF0F8
:1052F800900602E0FEA3E0F5EAEEF5FA30D92AC2FC
:10530800D930A6059005FE80039005F8E0FEA3E0DD
:10531800FF900605E02FF0900604E03EF0900604AA
:10532800E0FEA3E0F5EBEEF5FB30DA2AC2DA30A7AF
:105338000590060080039005FAE0FEA3E0FF9006C2
:1053480007E02FF0900606E03EF0900606E0FEA388
:10535800E0F5ECEEF5FCD007D006D0D0D082D083B3
:03536800D0E03260
:105B6B00900768ECF0A3EDF0AB07900768E0FEA39D
:105B7B00E0FFE4FCFDEB75F00AA424A5F582E43408
:105B8B0004F58312107643BA8053F57FEB75F00A58
:105B9B00A424AEF582E43404F583E0FF7E00900785
:105BAB0068E0FCA3E0FD120DF6AB07AA06E4F9F8DA
:105BBB00FF7E367D6E7C01126040126A5B53BA7FAA
:015BCB0022B7
:106D4C00EF75F00AA424A5F582E43404F583E0FC85
:0A6D5C00A3E0FDA3E0FEA3E0FF2288
:104CFA00900731EFF07F337E337D737C3FA3E0F87A
:104D0A00A3E0F9A3E0FAA3E0FB120A9E600C400AB2
:104D1A009007321210823F7333337FCD7ECC7DCC25
:104D2A007C3C900732E0F8A3E0F9A3E0FAA3E0FBA9
:104D3A00120A9E500A9007321210823CCCCCCD90B7
:104D4A000732E0FCA3E0FDA3E0FEA3E0FF900731F9
:104D5A00E0FB75F00AA424AAF582E43404F5831270
:104D6A00107643BA80EB75F00AA424AEF582E434D7
:104D7A0004F583E0FFE4FCFDFEEB75F00AA424A52C
:104D8A00F582E43404F583E0F8A3E0F9A3E0FAA39A
:104D9A00E0FB120EF7A804A905AA06AB077F007E5E
:104DAA00367D6E7C01120F82E4120B0B900732E003
:104DBA00F8A3E0F9A3E0FAA3E0FB1208F8120B4902
:104DCA00AB07AA06900731E0FF7D0A7C001254A4C3
:044DDA0053BA7F2227
:106D6600EF75F00AA424AAF582E43404F583E0FC66
:0A6D7600A3E0FDA3E0FEA3E0FF226E
:106F9B00EF75F00AA424AEF582E43404F583EDF02A
:016FAB0022C3
:106FAC00EF75F00AA424AEF582E43404F583E0FF17
:016FBC0022B2
:0A70BE0043BA8043F58053BA7F22E5
:0A70C80043BA8053F57F53BA7F22CC
:1065ED0043BA807401A807088002C333D8FC42F572
:1065FD00EF75F00AA424A9F582E43404F58374013F
:08660D00F043F58053BA7F222F
:1067E50043BA807401A807088002C333D8FCF45269
:1067F500F5EF75F00AA424A9F582E43404F583E4E1
:05680500F053BA7F22F0
:106F3400EF75F00AA424A9F582E43404F583E0246F
:026F4400FF222A
:0528F70090076AEFF0FC
:1028FC00E4A3F090076BE0FFC39406505AEF75F019
:10290C000AA424A5F582E43404F583121082000095
:10291C00000090076BE0FF75F00AA424A9F582E48F
:10292C003404F583E4F0EF75F00AA424AAF582E4EC
:10293C003404F5831210820000000090076BE075E0
:10294C00F00AA424AEF582E43404F5837401F0900B
:10295C00076BE004F0809C43BA80120D7CB4010537
:10296C0043F180800353F17F900001120D95B40167
:10297C001490076AE0FF7401A807088002C333D8DB
:10298C00FC42F1801390076AE0FF7401A8070880ED
:10299C0002C333D8FCF452F1900002120D95B4012D
:1029AC000543F540800353F5BF900003120D95B419
:1029BC00011490076AE0FF7401A807088002C33372
:1029CC00D8FC42F5801390076AE0FF7401A8070851
:1029DC008002C333D8FCF452F5900004120D95B468
:1029EC00010575F720800353F7DF900005120D9554
:1029FC00B4010575F710800353F7EF900006120D24
:102A0C0095B4010575F708800353F7F7900007128A
:102A1C000D95B4010575F704800353F7FB9000087E
:102A2C00120D95B4010575F702800353F7FD900064
:102A3C0009120D9590FFF27006E054EFF08004E05F
:102A4C004410F090FFF2C083C082E0FF90000A12A5
:102A5C000D95FEEF4ED082D083F090076AE01460A3
:102A6C0072147003022B32147003022B8514700342
:102A7C00022BD8147003022C2924056003022C802D
:102A8C0090000B120D9590FF047006E054F7F08047
:102A9C0004E04408F090000C120D9590FF04B40172
:102AAC0006E04404F08004E054FBF090000D120D9D
:102ABC009590FF04B40106E04402F08004E054FD5C
:102ACC00F090000E120D9590FF04B40103022C76C9
:102ADC00022C7C90000B120D9590FF147006E054A4
:102AEC00F7F08004E04408F090000C120D9590FF74
:102AFC0014B40106E04404F08004E054FBF09000B0
:102B0C000D120D9590FF14B40106E04402F0800400
:102B1C00E054FDF090000E120D9590FF14B40103DB
:102B2C00022C76022C7C90000B120D9590FF2470D9
:102B3C0006E054F7F08004E04408F090000C120D0D
:102B4C009590FF24B40106E04404F08004E054FBAB
:102B5C00F090000D120D9590FF24B40106E0440294
:102B6C00F08004E054FDF090000E120D9590FF24BF
:102B7C00B40103022C76022C7C90000B120D959064
:102B8C00FF347006E054F7F08004E04408F0900045
:102B9C000C120D9590FF34B40106E04404F080044F
:102BAC00E054FBF090000D120D9590FF34B401062B
:102BBC00E04402F08004E054FDF090000E120D95FC
:102BCC0090FF34B40103022C76022C7C90000B1283
:102BDC000D9590FF447006E054F7F08004E0440833
:102BEC00F090000C120D9590FF44B40106E04404E3
:102BFC00F08004E054FBF090000D120D9590FF4412
:102C0C00B40106E04402F08004E054FDF090000EA4
:102C1C00120D9590FF44B40102804F805390000B2D
:102C2C00120D9590FF547006E054F7F08004E044C8
:102C3C0008F090000C120D9590FF54B40106E0447E
:102C4C0004F08004E054FBF090000D120D9590FF01
:102C5C0054B40106E04402F08004E054FDF090000E
:102C6C000E120D9590FF54B40106E04401F080045F
:102C7C00E054FEF090000F120D95B4010443F58062
:042C8C002253F57F5B
:012C90002221
:106A5B00D3E49F74809E90FFF1400AEFF0EE90FF1D
:0F6A6B00F0F07F002274FFF090FFF0747FF022B4
:1054A400EF14602814603A14604C14605E14607049
:1054B4002405600302553B90FF01EDF0EC90FF00E2
:1054C400F090FF03EBF0EA90FF02806790FF11ED8C
:1054D400F0EC90FF10F090FF13EBF0EA90FF1280D5
:1054E4005290FF21EDF0EC90FF20F090FF23EBF0C1
:1054F400EA90FF22803D90FF31EDF0EC90FF30F018
:1055040090FF33EBF0EA90FF32802890FF41EDF0FA
:10551400EC90FF40F090FF43EBF0EA90FF428013E1
:1055240090FF51EDF0EC90FF50F090FF53EBF0EA58
:0A55340090FF52F07F00227F012259
:1056F900900001120D95B4010553CE7F800343CE6E
:1057090080120D7CB4010543CE40800353CEBF9077
:105719000002120D95B4010543CE20800353CEDF5C
:10572900900003120D95700553CEEF800343CE1000
:10573900900004120D95B4010543CE08800353CEA1
:10574900F7900005120D95700543CE04800353CEE2
:10575900FB900006120D95B4010543AF0280035377
:10576900AFFD900007120D955403FFE5CE54FC4F91
:10577900F5CE900008120D95FFE5A254F34FF5A25E
:0157890022FD
:0B709F00EF700453CEEF2243CE10220E
:106E5500900745E02443F8A607E004F0C3942040DA
:046E650002E4F02231
:106A7A00EDD394205018E4FEEEC39D5011120D7C04
:0E6A8A00FF126E55740129F9E43AFA0E80EA03
:016A980022DB
:1066B400900745E0FF900743E06F601A7F01127076
:1066C4009F900743E02443F8E6FFE004F0C39420DE
:0666D4004002E4F08FCF4C
:0166DA00229D
:10682E00900744E0FF900742E0FEB507037F002289
:10683E0074232EF8E6FF900742E004F0C394204044
:03684E0002E4F071
:016851002224
:106C2D00AD07EDD3942040037F0022EDD3940140B6
:0A6C3D000612682E1D80F412682E66
:016C4700222A
:03004B00025D4112
:105D4100C0E0C083C082C0D075D000C000C006C012
:105D510007900745E0FF900743E0FE6F6025A3E051
:105D61002423F8A6CFE004F0C394204002E4F074A9
:105D7100432EF8E6F5CF900743E004F0C3942040AA
:105D810002E4F075CDC0D007D006D000D0D0D082CB
:055D9100D083D0E032D8
:105599004105CF004105D0004205D100004205D3A5
:1055A90000004205CB00004205C900004105DD00AD
:1055B9004105C8004105CE004105CD004405D5008F
:0A55C9000000004405D900000000B6
:105BCC00E490034BF0900333F0A304F0A3F0E4A3B0
:105BDC00F0A3F090033AF090033874A2F0A3744051
:105BEC00F0E490033BF0A304F0A3F0A3F0E49003E3
:105BFC0042F0A3F0A304F0A3F0A3F0E490034AF066
:105C0C007B017A0379337F041235167B017A037991
:105C1C003B7F021235167B017A0379437F030235F1
:015C2C001661
:10659C009005CFE064026020A3E06402601AEF244F
:1065AC00FE600B0470129005D5ECF0A3EDF0AF0576
:0965BC009005D9ECF0A3EFF022E8
:106D8000EF24FE600804700E9005D580039005D9AD
:0A6D9000E0FEA3E0FF22E4FEFF2274
:106BDB00EF24FE600C0470139005D7ECF0A3EDF0DE
:0C6BEB0022AF059005DBECF0A3EFF022D8
:106D9A00EF24FE600804700E9005D780039005DB8F
:0A6DAA00E0FEA3E0FF22E4FEFF225A
:0D707A00EF14700853D17FE49005CFF02291
:106A9900EF24FE600E0470169005CFE0B40202D315
:0F6AA90022C3229005D0E0B40203D38001C322A0
:106AB800EF24FE600E0470169005CFE0B40102D3F7
:0F6AC80022C3229005D0E0B40103D38001C32282
:106B6A00EF24FE600D0470149005CFE07002D3226A
:0D6B7A00C3229005D0E07003D38001C32238
:106E2C00AE07126A99400DEF14700943D18090059A
:056E3C00CF7402F022FA
:0E704500AE07126AB85005126E2CD322C32279
:097123009005CBE0FEA3E0FF2281
:09712C009005C9E0FEA3E0FF227A
:06714F009005DDE0FF22C7
:067155009005C8E0FF22D6
:06715B009005CEE0FF22CA
:067161009005CDE0FF22C5
:0300A300025F6F8A
:105F6F00C0E0C0F0C083C082C0D075D000C000C0F8
:105F7F00069005D1E475F001120E93FED39005D66D
:105F8F00E095F09005D5E09E500F53D17F9005D14D
:105F9F00E4F0A3F09005CF04F0D006D000D0D0D01D
:085FAF0082D083D0F0D0E03273
:10351600AD07EDD3940440037F0122ED7073120DC5
:103526007CFED3940340037F0222C28CC2A9C2B997
:103536005389F0538E7F538FFE900002120D95B47F
:103546000102D2A9900001120D95B40102D2B9EE82
:103556004289900003120D95FF7003438E80EFB4ED
:103566000203438904900004120D95B40103438FAE
:1035760001900005120EBFE5F0F58C900005120EC5
:10358600BFF58A900007120D95B40102D28C7F0018
:1035960022ED64016003023622C28E900002120DF3
:1035A60095B40104D2AB8002C2AB900001120D9516
:1035B600B40104D2BB8002C2BB120D7CFEC39403CD
:1035C60040037F0222E58954CF4EF589900003120D
:1035D6000D95FFB40103538EBFEF7003438E40EF8A
:1035E600B4020543894080035389BF900004120D3D
:1035F60095B40105438F028003538FFD9000051299
:103606000EBFE5F0F58D900005120EBFF58B90000C
:1036160007120D95B40102D28E7F0022ED6402706E
:1036260078538EEF900002120D95B4010543AF0456
:10363600800353AFFB900003120D95FED394024016
:10364600037F0222EEB40103538EFB900003120D9A
:10365600957003438E04900003120D95B402054342
:103666008E088003538EF7900004120D95B4010561
:10367600438F048003538FFB900005120EBFE5F0C5
:10368600F5D6900005120EBFF5D7900007120D95DE
:10369600B40103438E107F0022ED64037060900036
:1036A60003120D95FED3940240037F022253D1F0FC
:1036B60053AFDF900002120D95B4010343AF20EE25
:1036C600700343D102900003120D95B4020343D157
:1036D60006900004120D95B4010343D10190000534
:1036E600120EBFE5F0F5D4900005120EBFF5D59089
:1036F6000007120D95B4010343D1087F0022ED6443
:1037060004705C900003120D95FED3940240037F73
:10371600022253D10F53AFBF900002120D95B40190
:103726000343AF40EE700343D120900003120D9582
:10373600B4020343D160900005120EBFFDACF0EC5D
:10374600F5D28DD3900007120D95B4010343D180B5
:10375600900004120D95B4010343D1107F00227F1F
:0237660002223D
:106FBD0090028DEBF0A3EAF0A3E9F0900270EDF0F2
:016FCD0022A1
:10114100900341EBF0A3EAF0A3E9F0900340EFF044
:101151006401600302135390000004F0E4A3F0A3C0
:10116100F0A3F0A3F0A3F0A3F0900344F0900344A4
:10117100E0FFC39480501474382FF582E43401F5F4
:1011810083E4F0900344E004F080E2E4900344F04F
:10119100900344E0FFC394805014741C2FF582E443
:1011A1003400F583E4F0900344E004F080E290031E
:1011B10041E0FBA3E0FAA3E0F9120D7CD394C04017
:1011C100037F022290000A120D95B40104D2BC8063
:1011D10002C2BC120D7CFFE598543F4FF598EF64B5
:1011E100C06008EF644060030212CD90000212104B
:1011F100467F807E8D7D5B7C00120F8290034512BD
:101201001076E4FFFE7D01FC900345E0F8A3E0F9D0
:10121100A3E0FAA3E0FBC312102240037F02229055
:101221000345E0F8A3E0F9A3E0FAA3E0FBC3E49BE4
:10123100FFE49AFE740199FDE498FC9003451210B5
:1012410076900341E0FBA3E0FAA3E0F990000112DC
:101251000D95FB64017038C28E538EFE5389BF53C6
:1012610089CF438E40900345E0FCA3E0FDA3E0FE5F
:10127100A3E0FF78081210338F8D900345A3A3A339
:10128100E0F58BC2AB5389BF538FFDD28E8076EBD5
:1012910064027035538EEF438E01538EF7438E04F3
:1012A100900345E0FCA3E0FDA3E0FEA3E0FF780886
:1012B1001210338FD6900345A3A3A3E0F5D753AF04
:1012C100FB538EF7438E10803C7F0222900341E056
:1012D100FBA3E0FAA3E0F9120D7CFF701390000864
:1012E100120D95B40105438E20801A538EDF8015AF
:1012F100EFB48011900008120D95B4010543878069
:10130100800353877F900341E0FBA3E0FAA3E0F958
:10131100900009120D95B40104D2AC8002C2AC90C8
:101321000007120D95B40104D29C8002C29C90006A
:101331000B120D9554C0FFE5A2543F4FF5A290004A
:101341000C120D95B4010543971080035397EF7F5D
:101351000022900340E0640260030214B59000078C
:101361007402F0E4A3F0A3F0A3F0A3F0A3F0A3F0C0
:10137100900344F0900344E0FFC39480501474D46C
:101381002FF582E43401F583E4F0900344E004F0A6
:1013910080E2E4900344F0900344E0FFC394805062
:1013A10014749C2FF582E43400F583E4F090034437
:1013B100E004F080E2900341E0FBA3E0FAA3E0F94E
:1013C100120D7CFF64C06008EF6440600302147575
:1013D10090000A120D95B4010543B501800353B580
:1013E100FE120D7CB4C005439A808003539A7F900E
:1013F10000021210467F807E8D7D5B7C00120F8281
:10140100900345121076E4FFFE7D01FC900345E058
:10141100F8A3E0F9A3E0FAA3E0FBC3121022400312
:101421007F0222900345E0F8A3E0F9A3E0FAA3E0EC
:10143100FBC3E49BFFE49AFE740199FDE498FC90E0
:101441000345121076538EEF538EF7438E049003AB
:1014510045E0FCA3E0FDA3E0FEA3E0FF7808121045
:10146100338FD6900345A3A3A3E0F5D753AFFB4336
:101471008E1080037F0222900341E0FBA3E0FAA3D8
:10148100E0F9900009120D95B4010543AF01800305
:1014910053AFFE900007120D95B40105439A1080D9
:1014A10003539AEF90000B120D955401FFE5BA54C6
:1014B100FE4FF5BA900340E06403600302166890A2
:1014C100000E7402F0E4A3F0A3F0A3F0A3F0A3F0E4
:1014D100A3F0900344F0900344E0FFC3941C501424
:1014E10074542FF582E43402F583E4F0900344E070
:1014F10004F080E2E4900344F0900344E0FFC394DD
:101501001C5014741C2FF582E43401F583E4F0902F
:101511000344E004F080E2900341E0FBA3E0FAA37E
:10152100E0F9120D7CFF64C06008EF6440600302C3
:10153100162853ACDFEFB4C00543AC80800353AC35
:101541007F900341E0FBA3E0FAA3E0F990000212CF
:1015510010467F807E8D7D5B7C00120F829003455B
:10156100121076E4FFFE7D01FC900345E0F8A3E054
:10157100F9A3E0FAA3E0FBC312102240037F022289
:10158100900345E0F8A3E0F9A3E0FAA3E0FBC3E48C
:101591009BFFE49AFE740199FDE498FC90034512C7
:1015A1001076900341E0FBA3E0FAA3E0F99000017B
:1015B100120D95FB6402703253ACBF538EEF538E04
:1015C100F7438E04900345E0FCA3E0FDA3E0FEA3F6
:1015D100E0FF78081210338FD6900345A3A3A3E050
:1015E100F5D753AFFB438E108040EB640170354358
:1015F100AC4053D1F053AFDF43D10253D1FB53D1B0
:10160100FE900345E0FCA3E0FDA3E0FEA3E0FF782C
:10161100081210338FD4900345A3A3A3E0F5D5435B
:10162100D10880067F02227F0222900341E0FBA3C2
:10163100E0FAA3E0F9900009120D95B4010543AF5A
:1016410008800353AFF7900007120D95B4010543CD
:10165100AC10800353ACEF90000B120D955402FFB8
:10166100E5BA54FD021818900340E06404600302D7
:10167100181E9000157402F0E4A3F0A3F0A3F0A3E8
:10168100F0A3F0A3F0900344F0900344E0FFC3946F
:101691001C501474712FF582E43402F583E4F09048
:1016A1000344E004F080E2E4900344F0900344E05A
:1016B100FFC3941C501474B82FF582E43401F583F0
:1016C100E4F0900344E004F080E2900341E0FBA3E6
:1016D100E0FAA3E0F9120D7CFF64C06008EF6440FA
:1016E10060030217DB5384DFEFB4C00543848080BD
:1016F1000353847F900341E0FBA3E0FAA3E0F99058
:1017010000021210467F807E8D7D5B7C00120F826D
:10171100900345121076E4FFFE7D01FC900345E045
:10172100F8A3E0F9A3E0FAA3E0FBC31210224003FF
:101731007F0222900345E0F8A3E0F9A3E0FAA3E0D9
:10174100FBC3E49BFFE49AFE740199FDE498FC90CD
:101751000345121076900341E0FBA3E0FAA3E0F900
:10176100900001120D95FB640270325384BF538EB9
:10177100EF538EF7438E04900345E0FCA3E0FDA3F5
:10178100E0FEA3E0FF78081210338FD6900345A343
:10179100A3A3E0F5D753AFFB438E108040EB640267
:1017A100703543844053D10F53AFBF43D12053D140
:1017B100BF53D1EF900345E0FCA3E0FDA3E0FEA3FE
:1017C100E0FF78081210338FD2900345A3A3A3E062
:1017D100F5D343D18080067F02227F02229003410C
:1017E100E0FBA3E0FAA3E0F9900009120D95B40122
:1017F1000543AF10800353AFEF900007120D95B46E
:10180100010543841080035384EF90000B120D9562
:0F1811005404FFE5BA54FB4FF5BA7F00227F0362
:0118200022A5
:1066DB00900002E02438F582E43401F583EFF0906A
:1066EB000002E004F0C394804002E4F0900003E069
:0766FB00700404F0D29922A3
:10661500900009E024D4F582E43401F583EFF0908D
:106625000009E004F0C394804002E4F090000AE021
:08663500700504F0439A0222F3
:10663D00900010E02454F582E43402F583EFF090DD
:10664D000010E004F0C3941C4002E4F0900011E04F
:08665D00700504F043AC0222B9
:10666500900017E02471F582E43402F583EFF09091
:106675000017E004F0C3941C4002E4F0900018E019
:08668500700504F043840222B9
:106DFF00C2AF120D7CFF600C1266DB740129F9E43F
:076E0F003AFA80EED2AF2237
:106E8F00120D7CFF600C126615740129F9E43AFAB1
:036E9F0080EE2260
:106EA200120D7CFF600C12663D740129F9E43AFA76
:036EB20080EE224D
:106EB500120D7CFF600C126665740129F9E43AFA3B
:036EC50080EE223A
:0300230002501C6C
:10501C00C0E0C0F0C083C082C0D075D000C000C05A
:10502C0001C002C003C004C005C006C007309841CF
:10503C00C298900006E07039900004E0C394804060
:10504C0002E4F0900004E0FF04F0741C2FF582E4FD
