:0234030032ADE8
:0234050032DAB9
:0234070032EFA2
:0234090032C4CB
:1030F3007461736B312069732072756E6E696E67CC
:103103000A007461736B322069732072756E6E6985
:043113006E670A00D9
:1032AD001233A17F0112186D7F0212186D7F031268
:0732BD00186DE4FF0218F692
:1032DA007BFF7A3079F3123318E4FBFA7DE87F80BA
:0532EA0012197F80EBCA
:1032EF007BFF7A317905123318E4FBFA7DD07F80AA
:0532FF0012197F80EBB5
:1032C400E49002CCF0A3F0122D03E4FBFA7D647FBA
:0632D4008012197F80F159
:102D03009002D47401F07F337E337DF77C4212232B
:102D13009A9002D47402F07F007EC07D0D7C441231
:102D2300239A7F021227CB9002CFEFF0E49002CEDA
:102D3300F09002CFE0FF9002CEE0FEC39F501774E5
:102D43008C2EF582E43402F583E0FF1230A7900263
:062D5300CEE004F080DB7D
:012D59002257
:102FDC009002B67440F0A37402F0A3121371900225
:102FEC00BD7401F0E4A3F0A304F0A3F0E4A3F0A3F8
:0C2FFC00F07B017A0279B67F0102080028
:0E33A1007F007EC27D017C00122FDC022E52C6
:01343C00226D
:01343D00226C
:01343E00226B
:01343F00226A
:013440002269
:03000B00021700D9
:1016FB00C2AF80FE321216FF85D00B75D008AAE060
:10170B00C28CE58A24F7F58AE58C34D8F58CD28C1B
:10171B00EC2417F8E6BC030274FFC39581B41400E4
:10172B0040CE7904780E16E608700BC2AFE630E1B6
:10173B00034418F6D2AF08D9EDEA8BD0300701225B
:10174B00D50DFCC0E0C0D0C0F0C083C082C000C0CB
:10175B0001C002C003C004C005C006C007E50C23CE
:10176B00240FF87440C2AF46F6D2AFD207E50CFF98
:10177B0023240FF80F0808BF04047F00780FE6300E
:10178B00E4F200E50CC39F5020050C7416250CF8F1
:10179B00E6FDA68108E6AE0CBE030274FFCDF8E8A9
:1017AB006D60E008E6C0E080F6E50CD39F4027E5CE
:1017BB000C2417F8E6AE0CBE030274FFFD18E6CD41
:1017CB00F8E5816D6006D0E0F61880F5E50C24167F
:1017DB00C8F6150C80D3750D05E50C23240FF87F87
:1017EB0004C2AFE610E61E30E00310E20C7F0030BF
:1017FB00E10730E3047F0854F4547CC6D2AF548025
:10180B004207C20722F6D2AFD007D006D005D004CC
:10181B00D003D002D001D000D082D083D0F0D0D072
:0E182B00D0E0C207227816A68174036006FF83
:101839000876FFDFFB7F04E4780EF608F608DFFA86
:10184900780F7630903403740193C0E0E493C0E0DC
:10185900750D05438901758AF0758CD8D28CD2AF84
:04186900D2A92203DB
:102C3E00602A028C0000000000000000000000006E
:102C4E000000000000000000000000000000000076
:0E2C5E00000000000000000000000000000068
:102721009002DCEBF0A3EAF0A3E9F09000031211B0
:102731002BFF9002D8E0FBA3E0FAA3E0F9A3E0FEAF
:10274100F582758300EF12116A9002DCE0FBA3E0D1
:10275100FAA3E0F990000212112BFFEE2401FDE42F
:1027610033FC9002D8E0FBA3E0FAA3E0F98D828C60
:1027710083EF12116A9002DCE0FBA3E0FAA3E0F917
:1027810090000112112BFFEE2402FDE433FC9002B4
:10279100D8E0FBA3E0FAA3E0F98D828C83EF12115C
:1027A1006A9002DCE0FBA3E0FAA3E0F9121112FF48
:1027B100EE2403FDE433FC9002D8E0FBA3E0FAA38E
:0A27C100E0F98D828C83EF02116AAB
:10239A009002D01213719002D4E0FFD3940A400342
:1023AA000224CDEF70030224CDEF14B40A004003D7
:1023BA000224CD9023CB75F003A4C58325F0C583F1
:1023CA00730223E90223FF02241602242D02244465
:1023DA0002245A02247002248602249C0224B29007
:1023EA0002D87401F0A37402F0A3748CF0A37401F0
:1023FA00F0FB0224C69002D87401F0A37402F0A381
:10240A00748CF0A37405F07B010224C69002D87480
:10241A0001F0A37402F0A3748CF0A37409F07B0199
:10242A000224C69002D87401F0A37402F0A3748C3B
:10243A00F0A3740DF07B010224C69002D87401F057
:10244A00A37402F0A3748CF0A37411F07B01806C66
:10245A009002D87401F0A37402F0A3748CF0A374F0
:10246A0015F07B0180569002D87401F0A37402F033
:10247A00A3748CF0A37419F07B0180409002D87485
:10248A0001F0A37402F0A3748CF0A3741DF07B0115
:10249A00802A9002D87401F0A37402F0A3748CF01D
:1024AA00A37421F07B0180149002D87401F0A37404
:1024BA0002F0A3748CF0A37425F07B017A0279D020
:0424CA001227212292
:1027CB00EFD3940A5003EF70037F002290028C74B6
:1027DB0024F0EF14B40A00400302286D9027F5751E
:1027EB00F003A4C58325F0C5837302281302281CAC
:1027FB0002282502282E02283702284002284902E7
:10280B00285202285B0228649002917405F07F061F
:10281B00229002957409F07F0A22900299740DF0B0
:10282B007F0E2290029D7411F07F12229002A174F0
:10283B0015F07F16229002A57419F07F1A229002D0
:10284B00A9741DF07F1E229002AD7421F07F22220D
:10285B009002B17425F07F26229002B57429F07F87
:05286B002A227F00227B
:082C6C00C100C101C102C10356
:10315B009003577478F0E4900356F07B017A03796F
:0E316B00567F02121C11D2A3D2A4D2A5D2A666
:013179002233
:0A33F900EF4E7005EE4F24FFB322E3
:1031D700EF24F0600F24F0600E24E0600D243870B7
:0D31E7000BA20022A20122A20222A20322BA
:102E0200A2A3E4FE33FF1233F95007200006D200DA
:102E12008002C200A2A4E4FE33FF1233F95007205D
:102E22000106D2018002C201A2A5E4FE33FF1233E1
:102E3200F95007200206D2028002C202A2A6E4FED4
:102E420033FF1233F95006200305D20322C20322B4
:06342000900358EFF022BA
:06342600900359EFF022B3
:06342C0090035AEFF022AC
:102DAF00121112F59D90000112112BFFE5BC549FDB
:102DBF004FF5BC90000212112BB4010543BC80806B
:102DCF000353BC7F90000312112BB40105439720CE
:102DDF0080035397DF90000512112BB40104D2AD7D
:102DEF008002C2AD90000412112BB40103D2BD2298
:032DFF00C2BD2230
:0C33CA00EFB4010443BC802253BC7F22FE
:102CA500EFD3940740028051E4F5BDF5BEE5BC5471
:102CB500E044084FF5BC00000000E4FBE5BC30E44F
:102CC5003353BCEFE59730E509E5BD5403ADBEFCD4
:102CD500801DAFBD7C00AD07ED7E007802C333CE0D
:102CE50033CED8F9FFE5BE5403FDEEFCEF4DFDAF45
:0D2CF50005AE04220BEBB4FAC37E047F0091
:012D020022AE
:03002B000234326A
:0434320053BCEF3266
:0F3364007D037C09ED1D70011C144C70F7DFF127
:013373002237
:03343600A20822C7
:101C1100EFD3940540037F0122121112FED39403E6
:101C210040037F0222EF7041EE700B900001121110
:101C31002BF452935294121112B4010B9000011221
:101C4100112B4293F45294121112FEB4020A900025
:101C51000112112B42934294EEB4030D9000011234
:101C6100112BFEF45293EE4294EF64017043121172
:101C710012FE700B90000112112BF452915292EE50
:101C8100B4010B90000112112B4291F452921211E6
:101C910012B4020A90000112112B429142921211C8
:101CA10012B4030D90000112112BFEF45291EE4279
:101CB10092EF64027043121112FE700B9000011238
:101CC100112BF452955296EEB4010B9000011211B2
:101CD1002B4295F45296121112B4020A900001128D
:101CE100112B42954296121112B4030D900001126C
:101CF100112BFEF45295EE4296EF640370431211DC
:101D010012FE700B90000112112BF452B152B2EE7F
:101D1100B4010B90000112112B42B1F452B2121115
:101D210012B4020A90000112112B42B142B21211F7
:101D310012B4030D90000112112BFEF452B1EE42C8
:101D4100B2EF64047043121112FE700B9000011285
:101D5100112BF452B352B4EEB4010B9000011211E5
:101D61002B42B3F452B4121112B4020A90000112C0
:101D7100112B42B342B4121112B4030D900001129F
:101D8100112BFEF452B3EE42B4EF6405704312110D
:101D910012FF700B90000112112BF452C952CAEFBD
:101DA100B4010B90000112112B42C9F452CA121155
:101DB10012B4020A90000112112B42C942CA121137
:101DC10012B4030D90000112112BFFF452C9EF421E
:041DD100CA7F0022A3
:10267300EF7034D3ED9498EC940340047C037D987D
:10268300C3ED9450EC940050047C007D50C2DE9066
:10269300031AECF0A3EDF0C374E89D900315F074F6
:1026A300039C9003148073EF64017034D3ED94683A
:1026B300EC940B40047C0B7D68C3ED9450EC9400C8
:1026C30050047C007D50C2DE90031CECF0A3EDF0BF
:1026D300C374B89D900317F0740B9C900316803A53
:1026E300EF64027038D3ED9480EC940740047C07C8
:1026F3007D80C3ED9450EC940050047C007D50C267
:10270300DE90031EECF0A3EDF0AE04FFC374D09F84
:0E271300900319F074079E900318F0D2DE2296
:101F870090034DEBF0A3EAF0A3E9F0AD07EDD3948E
:101F9700034003022125ED6403704CC2DEF5F9F519
:101FA700E990034DE0FBA3E0FAA3E0F9121112FF59
:101FB700E5A254CF4FF5A290000112112BFFE5D9EE
:101FC70054F14FF5D990000412112B5401FFE5D9B4
:101FD70054FE4FF5D990000512112BB40104D2BF5E
:101FE7008002C2BFD2DE2290034DE0FBA3E0FAA33A
:101FF700E02404F9E43AFA121112543112115890FC
:10200700034DE0FBA3E0FAA3E0F990000212112BC5
:10201700C39448400FE92404F9E43AFA1211125420
:10202700CF121158ED704F90034DE0FBA3E0FAA3D8
:10203700E0F990000412112BFF90000212112BFE01
:102047004FF5DA90000312112BFFE5F2543F4FF5DD
:10205700F2900006121209FBAAF090031AEAF0A305
:10206700EBF0C204900311EEF0900320EAF0A3EB2B
:10207700F0F5EAEAF5FAED6401704F90034DE0FBE5
:10208700A3E0FAA3E0F990000412112BFF900002DD
:1020970012112BFE4FF5DB90000312112BFFE5F316
:1020A700543F4FF5F3900006121209FBAAF0900374
:1020B7001CEAF0A3EBF0C205900312EEF0900322A6
:1020C700EAF0A3EBF0F5EBEAF5FBED6402704F9055
:1020D700034DE0FBA3E0FAA3E0F990000412112BF3
:1020E700FF90000212112BFE4FF5DC900003121136
:1020F7002BFFE5F4543F4FF5F4900006121209FD4B
:10210700ACF090031EECF0A3EDF0C206900313EEC3
:0F211700F0900324ECF0A3EDF0F5ECECF5FC22D6
:10212600900351ECF0A3EDF0900350EFF0705ED306
:10213600EB9464EA940040047A007B64C3EB940158
:10214600EA940050047A007B01C2DE900351E0FE5F
:10215600A3E0FFAD03AC0212118C7C007D6412116A
:102166009E90031AEEF0A3EFF07C007D64AF03AE01
:102176000212119EC374019FFFE49EFE900351E07C
:10218600FCA3E0FD12118C90031402225B90035015
:10219600E06401705DD3EB9464EA940040047A0035
:1021A6007B64C3EB9401EA940050047A007B01C27D
:1021B600DE7C007D64AF03AE0212119E900351E0F7
:1021C600FCA3E0FD12118C90031CEEF0A3EFF07C53
:1021D600007D64AF03AE0212119EC374019FFFE43B
:1021E6009EFE900351E0FCA3E0FD12118C900316B5
:1021F6008063900350E064027062D3EB9464EA94C7
:102206000040047A007B64C3EB9401EA9400500416
:102216007A007B01C2DE7C007D64AF03AE02121140
:102226009E900351E0FCA3E0FD12118C90031EEE7C
:10223600F0A3EFF0AE02AF037C007D6412119EC3E3
:1022460074019FFFE49EFE900351E0FCA3E0FD12A3
:0D225600118C900318EEF0A3EFF0D2DE2201
:03003B0002287028
:10287000C0E0C083C082C0D075D000C006C00730A1
:10288000D82AC2D830A50590031A8003900314E01B
:10289000FEA3E0FF900321E02FF0900320E03EF044
:1028A000900320E0FEA3E0F5EAEEF5FA30D92AC263
:1028B000D930A60590031C8003900316E0FEA3E028
:1028C000FF900323E02FF0900322E03EF0900322DC
:1028D000E0FEA3E0F5EBEEF5FB30DA2AC2DA30A732
:1028E0000590031E8003900318E0FEA3E0FF900311
:1028F00025E02FF0900324E03EF0900324E0FEA3B7
:10290000E0F5ECEEF5FCD007D006D0D0D082D08335
:03291000D0E032E2
:022C7400C10994
:1013E40043BA80121112B4010543F180800353F112
:1013F4007F90000112112BB4010F7401A80708801B
:1014040002C333D8FC42F1800E7401A8070880029D
:10141400C333D8FCF452F190000212112BB401052D
:1014240043F540800353F5BF90000312112BB40120
:101434000F7401A807088002C333D8FC42F5800E5C
:101444007401A807088002C333D8FCF452F5900055
:101454000412112BB4010575F720800353F7DF90B4
:10146400000512112BB4010575F710800353F7EF33
:1014740090000612112BB4010575F708800353F789
:10148400F790000712112BB4010575F7048003537C
:10149400F7FB90000812112BB4010575F7028003C5
:1014A40053F7FD90000912112B90FFF27006E054DF
:1014B400EFF08004E04410F090FFF2C083C082E0BB
:1014C400FE90000A12112BFDEE4DD082D083F0EF76
:1014D40014607214700302159C1470030215EF1447
:1014E400700302164214700302169324056003026B
:1014F40016EA90000B12112B90FF047006E054F7CB
:10150400F08004E04408F090000C12112B90FF04CA
:10151400B40106E04404F08004E054FBF090000DB4
:1015240012112B90FF04B40106E04402F08004E0A1
:1015340054FDF090000E12112B90FF04B40103022D
:1015440016E00216E690000B12112B90FF147006A1
:10155400E054F7F08004E04408F090000C12112BE2
:1015640090FF14B40106E04404F08004E054FBF05E
:1015740090000D12112B90FF14B40106E04402F008
:101584008004E054FDF090000E12112B90FF14B46F
:1015940001030216E00216E690000B12112B90FFD5
:1015A400247006E054F7F08004E04408F090000C46
:1015B40012112B90FF24B40106E04404F08004E0EF
:1015C40054FBF090000D12112B90FF24B40106E09F
:1015D4004402F08004E054FDF090000E12112B90B0
:1015E400FF24B401030216E00216E690000B121168
:1015F4002B90FF347006E054F7F08004E04408F0C8
:1016040090000C12112B90FF34B40106E04404F056
:101614008004E054FBF090000D12112B90FF34B4C1
:101624000106E04402F08004E054FDF090000E1244
:10163400112B90FF34B401030216E00216E6900069
:101644000B12112B90FF447006E054F7F08004E075
:101654004408F090000C12112B90FF44B40106E0F2
:101664004404F08004E054FBF090000D12112B9020
:10167400FF44B40106E04402F08004E054FDF0901D
:10168400000E12112B90FF44B40102804F8053903E
:10169400000B12112B90FF547006E054F7F08004F5
:1016A400E04408F090000C12112B90FF54B4010692
:1016B400E04404F08004E054FBF090000D12112B80
:1016C40090FF54B40106E04402F08004E054FDF0BD
:1016D40090000E12112B90FF54B40106E04401F067
:1016E4008004E054FEF090000F12112BB401044367
:0716F400F5802253F57F226F
:0524CE00900326EFF071
:1024D30014603114604814605F1460761470030252
:1024E300256F240560030225879003287480F0E498
:1024F300900327F07B017A0379277F03121C11D203
:10250300B70225879003287402F0E4900327F07B39
:10251300017A0379277F02121C11D2A180669003EE
:10252300287404F0E4900327F07B017A0379277F72
:1025330002121C11D2A2804C9003287408F0E4907C
:102543000327F07B017A0379277F02121C11D2A3A0
:1025530080329003287440F0E4900327F07B017AE3
:102563000379277F01121C11D296801890032874D7
:1025730080F0E4900327F07B017A0379277F01122F
:102583001C11D29743BA80E4900329F0A3F0A3F07F
:10259300A304F0E4A3F0A3F0A3F0A3F0A3F0A3F04B
:1025A300A3F0A3F0A3F0A3F0A3F0A3F0900326E01D
:0D25B300FF7B017A0379291213E453BA7FEC
:0125C00022F8
:10329500D3E49F74809E400D90FFF1EFF0EE90FF18
:0832A500F0F07F00227F0122FE
:10226300EF14604A14607514700302230D14700395
:1022730002233A14700302236724056003022397A1
:1022830090FF01EDF0EC90FF00F0900345A3A3A3B2
:10229300E090FF03F0900345E0FCA3E0FDA3E0FE24
:1022A300A3E0FF780812132E90FF0202239290FFFF
:1022B30011EDF0EC90FF10F0900345A3A3A3E09081
:1022C300FF13F0900345E0FCA3E0FDA3E0FEA3E0D1
:1022D300FF780812132E90FF1202239290FF21ED34
:1022E300F0EC90FF20F0900345A3A3A3E090FF231D
:1022F300F0900345E0FCA3E0FDA3E0FEA3E0FF783C
:102303000812132E90FF2202239290FF31EDF0EC7E
:1023130090FF30F0900345A3A3A3E090FF33F09028
:102323000345E0FCA3E0FDA3E0FEA3E0FF78081271
:10233300132E90FF32805890FF41EDF0EC90FF4058
:10234300F0900345A3A3A3E090FF43F0900345E07F
:10235300FCA3E0FDA3E0FEA3E0FF780812132E9098
:10236300FF42802B90FF51EDF0EC90FF50F0900373
:1023730045A3A3A3E090FF53F0900345E0FCA3E043
:10238300FDA3E0FEA3E0FF780812132E90FF52EFA7
:07239300F07F00227F012210
:0F3374009002DFE0FCA3E0FDA3E0FEA3E0FF2258
:102F7100EF14601514601714601914601B14601DA0
:102F8100240570279002E380179002E780129002D7
:102F9100EB800D9002EF80089002F380039002F71E
:0C2FA100E0FCA3E0FDA3E0FEA3E0FF22A3
:102FAD00AB07AA06E4F9F87F807EC37DC97C0112C8
:102FBD002F2DE4FCFD9002DF12137143BA809002B5
:0F2FCD00DFA3A3E0FEA3E0FF12329553BA7F22E9
:051DD500900339EFF05E
:101DDA007F337E337D737C3FA3E0F8A3E0F9A3E071
:101DEA00FAA3E0FB120FE6600C400A90033A1213C2
:101DFA007D3F7333337FCD7ECC7D4C7C3D90033A5F
:101E0A00E0F8A3E0F9A3E0FAA3E0FB120FE6500A18
:101E1A0090033A12137D3D4CCCCD900339E0146007
:101E2A0048146071147003021ECB147003021EF66C
:101E3A00147003021F2124056003021F6190033AF4
:101E4A00E0FCA3E0FDA3E0FEA3E0FF9002E312138F
:101E5A00719002DFE0FCA3E0FDA3E0FEA3E0FFE453
:101E6A001210539002E3021F4A90033AE0FCA3E0E7
:101E7A00FDA3E0FEA3E0FF9002E71213719002DFD8
:101E8A00E0FCA3E0FDA3E0FEA3E0FFE41210539000
:101E9A0002E7021F4A90033AE0FCA3E0FDA3E0FE3A
:101EAA00A3E0FF9002EB1213719002DFE0FCA3E0C3
:101EBA00FDA3E0FEA3E0FFE41210539002EB021F21
:101ECA004A90033AE0FCA3E0FDA3E0FEA3E0FF9002
:101EDA0002EF1213719002DFE0FCA3E0FDA3E0FE23
:101EEA00A3E0FFE41210539002EF805490033AE00B
:101EFA00FCA3E0FDA3E0FEA3E0FF9002F31213713E
:101F0A009002DFE0FCA3E0FDA3E0FEA3E0FFE41201
:101F1A0010539002F3802990033AE0FCA3E0FDA35A
:101F2A00E0FEA3E0FF9002F71213719002DFE0FCDB
:101F3A00A3E0FDA3E0FEA3E0FFE41210539002F336
:101F4A00E0F8A3E0F9A3E0FAA3E0FB120EE0121016
:101F5A009190033E12137143BA8090033EE0FCA3B2
:101F6A00E0FDA3E0FEA3E0FF900345121371900386
:0C1F7A0039E0FFE4FDFC12226353BA7F43
:011F86002238
:0C33D60043BA8043F580D20953BA7F222D
:0C33E20043BA8053F57FC20953BA7F2222
:03343900A20922C3
:1029130090000112112BB4010553CE7F800343CEE7
:1029230080121112B4010543CE40800353CEBF90F1
:10293300000212112BB4010543CE20800353CEDFD6
:1029430090000312112B700553CEEF800343CE107A
:1029530090000412112BB4010543CE08800353CE1B
:10296300F790000512112B700543CE04800353CE5C
:10297300FB90000612112BB4010543AF02800353F1
:10298300AFFD90000712112B5403FFE5CE54FC4F0B
:10299300F5CE90000812112BFFE5A254F34FF5A2D8
:0129A3002211
:0B33EE00EF700453CEEF2243CE1022FC
:1033040090034CE02442F8A607E004F0C394204064
:0433140002E4F022BD
:10317A00EDD394205018E4FEEEC39D5011121112A3
:0E318A00FF123304740129F9E43AFA0E80EAC8
:013198002214
:1030800090034CE0FF90034AE06F601A7F01123317
:10309000EE90034AE02442F8E6FFE004F0C39420F7
:0630A0004002E4F08FCFB6
:0130A6002207
:1031170090034BE0FF900349E0FEB507037F0022D1
:1031270074222EF8E6FF900349E004F0C394204090
:0331370002E4F0BF
:01313A002272
:10322D00AD07EDD3942040037F0022EDD3940140F0
:0A323D00061231171D80F41231173C
:013247002264
:03004B00022D5A29
:102D5A00C0E0C083C082C0D075D000C000C006C029
:102D6A000790034CE0FF90034AE0FE6F6025A3E062
:102D7A002422F8A6CFE004F0C394204002E4F074C1
:102D8A00422EF8E6F5CF90034AE004F0C3942040BF
:102D9A0002E4F075CDC0D007D006D000D0D0D082E2
:052DAA00D083D0E032EF
:102C76004103030241030402420305000042030725
:102C860000004403090000000044030D000000009A
:0E2C96004402FF000000004402FB00000000AA
:102E5200E49002B6F0A3F0A304F0E4A3F0A3F09090
:102E620002BDF09002BB748AF0A374D0F0E4900229
:102E7200BEF0A3F0A304F0E4A3F0A3F09002C50413
:102E8200F09002C3748FF0A37420F07F011219DE58
:102E92007F031219DE7B017A0279BE7F040219E4F4
:0F3383009002FFE0FCA3E0FDA3E0FEA3E0FF2229
:0F3392009002FBE0FCA3E0FDA3E0FEA3E0FF221E
:10321100EF24FE600C04701390030BECF0A3EDF0AF
:0C32210022AF0590030FECF0A3EFF022A9
:10324800EF24FE600804700E90030B800390030FB8
:0A325800E0FEA3E0FF22E4FEFF22E7
:1030CE00900303E0601EA3E0601AEF24FE600B0481
:1030DE007012900309ECF0A3EDF0AF0590030DEC28
:0530EE00F0A3EFF02249
:10326200EF24FE600804700E900309800390030DA2
:0A327200E0FEA3E0FF22E4FEFF22CD
:10327C00EF24FE600A047010C28E90030380065384
:09328C00D1F79003047402F02252
:1031F400EF24FE600D047014900303E07002D322E8
:0D320400C322900304E07003D38001C322B5
:10319900EF24FE600E047016900303E0B40102D31D
:0F31A90022C322900304E0B40103D38001C322A8
:1031B800EF24FE600E047016900303E0B40202D3FD
:0F31C80022C322900304E0B40203D38001C32288
:10313B00AE071231B84018EF24FE600B047010D2AA
:10314B008EE4900303F02243D108E4900304F022B1
:0E33AF00AE07123199500512313BD322C322D2
:03001B00022EE8CA
:102EE800C0E0C0F0C083C082C0D075D000C000C0B0
:102EF80006900305E475F0011211F3FE900309E052
:102F0800B50613A3E0B5F00EC28E900305E4F0A356
:102F1800F090030304F0D006D000D0D0D082D08344
:052F2800D0F0D0E03202
:03009B00022EA290
:102EA200C0E0C0F0C083C082C0D075D000C000C0F6
:102EB20006900307E475F0011211F3FE90030DE092
:102EC200B50614A3E0B5F00F53D1F7900307E4F071
:102ED200A3F090030404F0D006D000D0D0D082D06A
:062EE20083D0F0D0E032C5
:0300A3000225C172
:1025C100C0E0C0F0C083C082C0D075D000C000C0E0
:1025D10001C002C003C004C005C006C007E47BE817
:1025E1007A03F9F89002FFE0FCA3E0FDA3E0FEA36B
:1025F100E0FF12127D74FF7BFAFAF9F8D312131D72
:10260100E450047F018001FFFEFDFC9002FB1213E8
:1026110071EC4D4E4F600A9002FB12137D000000D9
:10262100009002FFE0FCA3E0FDA3E0FEA3E0240490
:10263100FFE43EFEE43DFDE43CFC9002FF12137119
:1026410074FF7BFAFAF9F8D312131D500A9002FFB6
:1026510012137D00000000D007D006D005D004D0B1
:1026610003D002D001D000D0D0D082D083D0F0D01E
:02267100E03255
:0619DE007B017A0279B6DC
:1019E400AD07EDD3940440037F0122ED707312110F
:1019F40012FED3940340037F0222C28CC2A9C2B94F
:101A04005389F0538E7F538FFE90000212112BB432
:101A14000102D2A990000112112BB40102D2B9EE35
:101A2400428990000312112BFF7003438E80EFB4A0
:101A3400020343890490000412112BB40103438F61
:101A440001900005121209E5F0F58C9000051212C0
:101A540009F58A90000712112BB40102D28C7F0081
:101A640022ED64017076121112FEC3940340037FC9
:101A74000222C28EC2ABC2BB53890F538EBF538F97
:101A8400FD90000212112BB40102D2AB900001129E
:101A9400112BB40102D2BBEEC454F042899000036E
:101AA40012112BFF7003438E40EFB40203438940AD
:101AB40090000412112BB40103438F02900005120D
:101AC4001209E5F0F58D900005121209F58B9000CE
:101AD4000712112BB40102D28E7F0022ED64027032
:101AE4006390000312112BFED3940240037F022261
:101AF400538EE353AFFB538FFB90000212112BB4B0
:101B0400010343AF04EE7003438E049000031211EB
:101B14002BB40203438E0890000412112BB401036A
:101B2400438F04900005121209E5F0F5D6900005E4
:101B3400121209F5D790000712112BB40103438E3A
:101B4400107F0022ED6403706090000312112BFEDD
:101B5400D3940240037F022253D1F053AFDF9000AD
:101B64000212112BB4010343AF20EE700343D102E0
:101B740090000312112BB4020343D1069000041207
:101B8400112BB4010343D101900005121209E5F0B1
:101B9400F5D4900005121209F5D590000712112B07
:101BA400B4010343D1087F0022ED6404705C90000B
:101BB4000312112BFED3940240037F022253D10F50
:101BC40053AFBF90000212112BB4010343AF40EE98
:101BD400700343D12090000312112BB4020343D1AC
:101BE4006090000412112BB4010343D1109000053E
:101BF400121209FDACF0ECF5D28DD390000712114E
:0D1C04002BB4010343D1807F00227F022218
:100800009002C4EBF0A3EAF0A3E9F09002C3EFF08A
:1008100064016003020A1290000004F0E4A3F0A354
:10082000F0A3F0A3F0A3F0A3F09002C7F09002C7EA
:10083000E0FFC39480501474382FF582E43401F53E
:1008400083E4F09002C7E004F080E2E49002C7F095
:100850009002C7E0FFC394805014741C2FF582E40B
:100860003400F583E4F09002C7E004F080E29002E7
:10087000C4E0FBA3E0FAA3E0F9121112D394C04044
:10088000037F022290000A12112BB40104D2BC8013
:1008900002C2BC121112FFE598543F4FF598EF6465
:1008A000C06008EF6440600302098C9000021213DC
:1008B000417FE07E707D727C0012127D9002C81232
:1008C0001371E4FFFE7D01FC9002C8E0F8A3E0F99B
:1008D000A3E0FAA3E0FBC312131D40037F022290A2
:1008E00002C8E0F8A3E0F9A3E0FAA3E0FBC3E49BAD
:1008F000FFE49AFE740199FDE498FC9002C812137B
:10090000719002C4E0FBA3E0FAA3E0F990000112A9
:10091000112BFB64017038C28E538EFE5389BF5376
:1009200089CF438E409002C8E0FCA3E0FDA3E0FE27
:10093000A3E0FF780812132E8F8D9002C8A3A3A303
:10094000E0F58BC2AB5389BF538FFDD28E8076EB1F
:1009500064027035538EEF438E01538EF7438E043D
:100960009002C8E0FCA3E0FDA3E0FEA3E0FF78084E
:1009700012132E8FD69002C8A3A3A3E0F5D753AFCE
:10098000FB538EF7438E10803C7F02229002C4E01E
:10099000FBA3E0FAA3E0F9121112FF701390000814
:1009A00012112BB40105438E20801A538EDF80155F
:1009B000EFB4801190000812112BB4010543878019
:1009C000800353877F9002C4E0FBA3E0FAA3E0F921
:1009D00090000912112BB40104D2AC8002C2AC9079
:1009E000000712112BB40104D29C8002C29C90001B
:1009F0000B12112B54C0FFE5A2543F4FF5A29000FB
:100A00000C12112BB4010543971080035397EF7F0D
:100A100000229002C3E064026003020B749000079E
:100A20007402F0E4A3F0A3F0A3F0A3F0A3F0A3F00A
:100A30009002C7F09002C7E0FFC39480501474D4B2
:100A40002FF582E43401F583E4F09002C7E004F06E
:100A500080E2E49002C7F09002C7E0FFC3948050A8
:100A600014749C2FF582E43400F583E4F09002C7FF
:100A7000E004F080E29002C4E0FBA3E0FAA3E0F916
:100A8000121112FF64C06008EF64406003020B346F
:100A900090000A12112BB4010543B501800353B530
:100AA000FE121112B4C005439A808003539A7F90BE
:100AB00000021213417FE07E707D727C0012127D75
:100AC0009002C8121371E4FFFE7D01FC9002C8E0A1
:100AD000F8A3E0F9A3E0FAA3E0FBC312131D40035F
:100AE0007F02229002C8E0F8A3E0F9A3E0FAA3E0B5
:100AF000FBC3E49BFFE49AFE740199FDE498FC902B
:100B000002C8121371538EEF538EF7438E04900276
:100B1000C8E0FCA3E0FDA3E0FEA3E0FF7808121309
:100B20002E8FD69002C8A3A3A3E0F5D753AFFB4303
:100B30008E1080037F02229002C4E0FBA3E0FAA3A0
:100B4000E0F990000912112BB4010543AF018003B5
:100B500053AFFE90000712112BB40105439A108089
:100B600003539AEF90000B12112B5401FFE5BA5476
:100B7000FE4FF5BA9002C3E064036003020D2790B4
:100B8000000E7402F0E4A3F0A3F0A3F0A3F0A3F02E
:100B9000A3F09002C7F09002C7E0FFC3941C50146A
:100BA00074542FF582E43402F583E4F09002C7E038
:100BB00004F080E2E49002C7F09002C7E0FFC39423
:100BC0001C5014741C2FF582E43401F583E4F0907A
:100BD00002C7E004F080E29002C4E0FBA3E0FAA3C5
:100BE000E0F9121112FF64C06008EF644060030274
:100BF0000CE753ACDFEFB4C00543AC80800353ACCB
:100C00007F9002C4E0FBA3E0FAA3E0F99000021297
:100C100013417FE07E707D727C0012127D9002C8CD
:100C2000121371E4FFFE7D01FC9002C8E0F8A3E01E
:100C3000F9A3E0FAA3E0FBC312131D40037F0222D5
:100C40009002C8E0F8A3E0F9A3E0FAA3E0FBC3E454
:100C50009BFFE49AFE740199FDE498FC9002C8128F
:100C600013719002C4E0FBA3E0FAA3E0F990000145
:100C700012112BFB6402703253ACBF538EEF538EB4
:100C8000F7438E049002C8E0FCA3E0FDA3E0FEA3BE
:100C9000E0FF780812132E8FD69002C8A3A3A3E01A
:100CA000F5D753AFFB438E108040EB6401703543A2
:100CB000AC4053D1F053AFDF43D10253D1FB53D1FA
:100CC000FE9002C8E0FCA3E0FDA3E0FEA3E0FF78F5
:100CD0000812132E8FD49002C8A3A3A3E0F5D54326
:100CE000D10880067F02227F02229002C4E0FBA38B
:100CF000E0FAA3E0F990000912112BB4010543AF0B
:100D000008800353AFF790000712112BB40105437D
:100D1000AC10800353ACEF90000B12112B5402FF68
:100D2000E5BA54FD020ED79002C3E06404600302EA
:100D30000EDD9000157402F0E4A3F0A3F0A3F0A37D
:100D4000F0A3F0A3F09002C7F09002C7E0FFC394B5
:100D50001C501474702FF582E43402F583E4F09093
:100D600002C7E004F080E2E49002C7F09002C7E01E
:100D7000FFC3941C501474B82FF582E43401F5833A
:100D8000E4F09002C7E004F080E29002C4E0FBA32C
:100D9000E0FAA3E0F9121112FF64C06008EF6440AA
:100DA0006003020E9A5384DFEFB4C0054384808051
:100DB0000353847F9002C4E0FBA3E0FAA3E0F99020
:100DC00000021213417FE07E707D727C0012127D62
:100DD0009002C8121371E4FFFE7D01FC9002C8E08E
:100DE000F8A3E0F9A3E0FAA3E0FBC312131D40034C
:100DF0007F02229002C8E0F8A3E0F9A3E0FAA3E0A2
:100E0000FBC3E49BFFE49AFE740199FDE498FC9017
:100E100002C81213719002C4E0FBA3E0FAA3E0F948
:100E200090000112112BFB640270325384BF538E69
:100E3000EF538EF7438E049002C8E0FCA3E0FDA3BD
:100E4000E0FEA3E0FF780812132E8FD69002C8A30D
:100E5000A3A3E0F5D753AFFB438E108040EB6402B1
:100E6000703543844053D10F53AFBF43D12053D18A
:100E7000BF53D1EF9002C8E0FCA3E0FDA3E0FEA3C6
:100E8000E0FF780812132E8FD29002C8A3A3A3E02C
:100E9000F5D343D18080067F02227F02229002C4D4
:100EA000E0FBA3E0FAA3E0F990000912112BB401D2
:100EB0000543AF10800353AFEF90000712112BB41E
:100EC000010543841080035384EF90000B12112B13
:0F0ED0005404FFE5BA54FB4FF5BA7F00227F03AD
:010EDF0022F0
:1030A700900002E02438F582E43401F583EFF090D4
:1030B7000002E004F0C394804002E4F0900003E0D3
:0730C700700404F0D299220D
:10300800900009E024D4F582E43401F583EFF090D0
:103018000009E004F0C394804002E4F090000AE064
:08302800700504F0439A022236
:10303000900010E02454F582E43402F583EFF09020
:103040000010E004F0C3941C4002E4F0900011E092
:08305000700504F043AC0222FC
:10305800900017E02470F582E43402F583EFF090D5
:103068000017E004F0C3941C4002E4F0900018E05C
:08307800700504F043840222FC
:10331800121112FF600C1230A7740129F9E43AFA6D
:0333280080EE2212
:10332B00121112FF600C123008740129F9E43AFAF9
:03333B0080EE22FF
:10333E00121112FF600C123030740129F9E43AFABE
:03334E0080EE22EC
:10335100121112FF600C123058740129F9E43AFA83
:0333610080EE22D9
:03002300022BBFEE
:102BBF00C0E0C083C082C0D075D000C006C007304F
:102BCF00982DC298900006E07025900004E0C39401
:102BDF00804002E4F0900004E0FF04F0741C2FF535
:102BEF0082E43400F583E599F09000057405F03028
:102BFF009930C299900002E0FF900001E0FE6F60F3
:102C0F001C74382EF582E43401F583E0F5999000B9
:102C1F0001E004F0C394804009E4F08005900003C4
:0F2C2F00E4F0D007D006D0D0D082D083D0E032EE
:03004300022A305E
:102A3000C0E0C083C082C0D075D000C006C007E52A
:102A40009A30E02E539AFE90000DE0702590000B16
:102A5000E0C394804002E4F090000BE0FF04F074C7
:102A60009C2FF582E43400F583E59BF090000C7414
:102A700005F0E59A30E131539AFD900009E0FF90AE
:102A80000008E0FE6F601C74D42EF582E43401F57A
:102A900083E0F59B900008E004F0C394804009E4D3
:102AA000F0800590000AE4F0D007D006D0D0D082A4
:052AB000D083D0E032EC
:03008B00022AB591
:102AB500C0E0C083C082C0D075D000C006C007E5A5
:102AC500AC30E02E53ACFE900014E070259000125F
:102AD500E0C3941C4002E4F0900012E0FF04F0749F
:102AE5001C2FF582E43401F583E5ADF090001374F5
:102AF50005F0E5AC30E13153ACFD900010E0FF90FE
:102B0500000FE0FE6F601C74542EF582E43402F56C
:102B150083E0F5AD90000FE004F0C3941C4009E498
:102B2500F08005900011E4F0D007D006D0D0D08217
:052B3500D083D0E03266
:03009300022B3A03
:102B3A00C0E0C083C082C0D075D000C006C007E51F
:102B4A008430E02E5384FE90001BE070259000191B
:102B5A00E0C3941C4002E4F0900019E0FF04F07412
:102B6A00B82FF582E43401F583E585F090001A74F4
:102B7A0005F0E58430E1315384FD900017E0FF90C1
:102B8A000016E0FE6F601C74542EF582E43402F5E0
:102B9A0083E0F585900016E004F0C3941C4009E434
:102BAA00F08005900018E4F0D007D006D0D0D0828B
:052BBA00D083D0E032E1
:0D33BD00900353EDF0A3EAF0A3EBF0D32250
:07340B0090035BEFF0D322F8
:0734120090035CEFF0D322F0
:0734190090035DEFF0D322E8
:013441002268
:10186D00EFD3940340037FFF22740F2F2FF8E62050
:10187D00E5F4C2AFE64430F6D2AFAE0CEEC39F50E6
:10188D00210E74162EF8E6F908E618BE030274FF51
:10189D00FDED69600909E71919F7090980F31616B5
:1018AD0080DAEED39F400405810581EED39F40225F
:1018BD0074162EF808E6F9EEB50C02A98118060685
:1018CD00E6FDED6960091919E70909F71980F31E9D
:1018DD0080D9EF2416F8E604F8EF2F049034039323
:0918ED00F608EF2F93F67F0022AC
:1018F600EFD3940340037FFF22EF23240FF8E63053
:10190600E5F4C2AFE6548CF6D2AFE50CB5070A741F
:10191600162FF8E6F581021776502E74172FF8E683
:10192600BF030274FFFD18E6F974162FF8FBE6FCF8
:10193600E96C6008A805E7F61D1980F4A803A6055A
:101946001FE50CB507E37F002274172FF8E6FD1894
:1019560086010F74162FF8A601088604E50CB50754
:1019660002AC81ED6C60080D09A805E6F780F4E588
:091976000CB507DE89817F002217
:10197F008FF0E4FFFEE50C23240EF8C2A930F70D1B
:10198F007F08E6600B2DF660325030800730F1068D
:10199F00EDF660277E020830F010C2AFE610E725A3
:1019AF000E30E20CD2AF7F048014C2AFE610E71501
:1019BF0054EC4EF6D2AFD2A90217767F0808EF4447
:0F19CF0083F4C2AF56C6D2AFD2A954804FFF22C5
:100EE000EC4D6011E8497017ED33EC3304600DE40C
:100EF000FCFFFEFD22E933E8330470F80210FD1216
:100F000010C858046009E4CC248150062850090216
:100F10001107284003021104C0E0EB4A7044B98075
:100F200006D0E0FB0210F3EF4E701CBD8008EBFF13
:100F3000EAFEE9FD80EBE98DF0A4FEE5F0020FC9C1
:100F4000E9CDF9EAFEEBFFEF89F0A4FCE5F0CE89EC
:100F5000F0A42EFFE435F0CD89F0A42DFEE435F0A9
:100F60008067EF4E7005BD80D780C3EF8BF0A4ACD7
:100F7000F0EE8BF0A42CFCE435F0F8EF8AF0A42C12
:100F8000E5F038FCE433CB8DF0A42CFCE5F03BF825
:100F9000EE8AF0A42CFCE5F038F8E433CF89F0A415
:100FA0002CFCE5F038CF3400CE89F0A42FFFE5F01B
:100FB0003EFEE433C98DF0A42EFEE5F039CD8AF073
:100FC000A42FFFE5F03EFEE43DFD33D0E0FB5007EB
:100FD0000BBB000F021107EC2CFCEF33FFEE33FECE
:060FE000ED33FD0210DFFD
:100FE60074F8CC6480CCC86480C8F582046043C3BE
:100FF600EB9FF5F0EA9E42F0E99D42F0E89C45F051
:1010060060305018E5825FFFE582F42B5582FB5075
:10101600210ABA001D09B90019088016E5825BFB92
:10102600E582F42F5582FF50090EBE00050DBD0066
:10103600010CC3EB9FF5F0EA9E42F0E99D42F0E811
:0D1046009C45F06007CC4820E701B3EC2288
:1010530075F020800E75F010800575F0087D007E18
:10106300007F003392D530D50312130FEC334010B9
:10107300EF33FFEE33FEED33FDEC33FCD5F0ED2221
:0E108300E5F0247EA2D513CC92E7CDCEFF225D
:10109100EDD2E7CD33EC3392D524814006E4FFFE57
:1010A100FDFC22FCE4CFCECDCC24E0501174FF80B6
:1010B100EDC3CC13CCCD13CDCE13CECF13CF047053
:0710C100F030D5DE02130F31
:1010C800E9D2E7C933E833F892D5EDD2E7CD33EC6E
:0710D80033FC5002B2D522E7
:1010DF00EC30E7100FBF000C0EBE00080DBD000472
:1010EF000BEB6014A2D5EB13FCED92E7FD2274FF1E
:1010FF00FCFDFEFF22E480F8A2D574FF13FC7D8077
:03110F00E480EF8A
:030000000229A42E
:0C29A400787FE4F6D8FD7581610229EB14
:10111200BB010689828A83E0225002E722BBFE02DB
:09112200E32289828A83E493220E
:10112B00BB010CE58229F582E5833AF583E0225079
:10113B0006E92582F8E622BBFE06E92582F8E222C3
:0D114B00E58229F582E5833AF583E49322DD
:10115800BB010689828A83F0225002F722BBFE0176
:02116800F32270
:10116A00F8BB010DE58229F582E5833AF583E8F0BB
:10117A00225006E92582C8F622BBFE05E92582C867
:02118A00F2224F
:10118C00EF8DF0A4A8F0CF8CF0A428CE8DF0A42E77
:02119C00FE2231
:10119E00BC000BBE0029EF8DF084FFADF022E4CC35
:1011AE00F875F008EF2FFFEE33FEEC33FCEE9DECFE
:1011BE00984005FCEE9DFE0FD5F0E9E4CEFD22ED44
:1011CE00F8F5F0EE8420D21CFEADF075F008EF2F8E
:1011DE00FFED33FD4007985006D5F0F222C398FD7F
:0511EE000FD5F0EA221C
:1011F300C5F0F8A3E028F0C5F0F8E5821582700287
:061203001583E038F02223
:10120900BB0110E58229F582E5833AF583E0F5F023
:10121900A3E0225009E92582F886F008E622BBFE00
:101229000AE92582F8E2F5F008E222E5832AF58346
:08123900E993F5F0A3E993220B
:1012410075F008758200EF2FFFEE33FECD33CDCC64
:1012510033CCC58233C5829BED9AEC99E5829840E7
:101261000CF582EE9BFEED9AFDEC99FC0FD5F0D6C4
:10127100E4CEFBE4CDFAE4CCF9A88222B800C1B9EE
:101281000059BA002DEC8BF084CFCECDFCE5F0CB2C
:10129100F97818EF2FFFEE33FEED33FDEC33FCEB65
:1012A10033FB10D703994004EB99FB0FD8E5E4F920
:1012B100FA227818EF2FFFEE33FEED33FDEC33FC0D
:1012C100C933C910D7059BE99A4007EC9BFCE99A01
:1012D100F90FD8E0E4C9FAE4CCFB2275F010EF2F46
:1012E100FFEE33FEED33FDCC33CCC833C810D70746
:1012F1009BEC9AE899400AED9BFDEC9AFCE899F881
:0E1301000FD5F0DAE4CDFBE4CCFAE4C8F92213
:102F2D00C2D5E830E70FB2D5E4C39BFBE49AFAE4CF
:102F3D0099F9E498F8EC30E717B2D5122F63121215
:102F4D007DE4C39BFBE49AFAE499F9E498F88003D5
:102F5D0012127D30D50DE4C39FFFE49EFEE49DFD6E
:042F6D00E49CFC22C2
:0E130F00C3E49FFFE49EFEE49DFDE49CFC22EF
:10131D00EB9FF5F0EA9E42F0E99D42F0E89C45F026
:01132D00229D
:10132E00E8600FECC313FCED13FDEE13FEEF13FF9D
:03133E00D8F122C1
:10134100BB010DE58229F582E5833AF5830213BBE2
:101351005007E92582F80213AEBBFE07E92582F8A2
:101361000213C7E58229F582E5833AF5830213D496
:0C137100ECF0A3EDF0A3EEF0A3EFF022EF
:10137D00A8828583F0D083D0821213941213941215
:10138D001394121394E473E493A3C583C5F0C5833A
:10139D00C8C582C8F0A3C583C5F0C583C8C582C8BA
:0113AD00221D
:1029B000021830E493A3F8E493A34003F68001F2F5
:1029C00008DFF48029E493A3F85407240CC8C33328
:1029D000C4540F4420C8834004F456800146F6DFF7
:1029E000E4800B0102040810204080902C3EE47E1D
:1029F000019360BCA3FF543F30E509541FFEE493EC
:102A0000A360010ECF54C025E060A840B8E493A3B2
:102A1000FAE493A3F8E493A3C8C582C8CAC583CADD
:102A2000F0A3C8C582C8CAC583CADFE9DEE780BE95
:012CA400002F
:0D13AE00E6FB08E6F908E6FA08E6CBF822AF
:0C13BB00E0F8A3E0F9A3E0FAA3E0FB22B5
:0D13C700E2FB08E2F908E2FA08E2CBF822A6
:1013D400E493F8740193F9740293FA740393FB226F
:00000001FF
