:0246F30046A4DB
:0846A4001246F67F04023FA05C
:103E3B0090048F7440F0A37402F0A3120EAD9004A3
:103E4B00967401F0E4A3F0A304F0A3F0E4A3F0A3B1
:0C3E5B00F07B017A04798F7F01020F20B8
:0146F50022A2
:0146F60022A1
:0146F70022A0
:0146F800229F
:0146F900229E
:0146FA00229D
:0146FB00229C
:03000B000225418A
:10253C00C2AF80FE3212254085D00B75D008AAE0C0
:10254C00C28CE58A2443F58AE58C34F6F58CD28C62
:10255C00EC2411F8E6BC000274FFC39581B414009E
:10256C0040CE7901780E16E608700BC2AFE630E16A
:10257C00034418F6D2AF08D9EDEA8BD0300701220C
:10258C00D50DFCC0E0C0D0C0F0C083C082C000C07C
:10259C0001C002C003C004C005C006C007E50C237F
:1025AC00240FF87440C2AF46F6D2AFD207E50CFF49
:1025BC0023240FF80F0808BF01047F00780FE630C2
:1025CC00E4F200E50CC39F5020050C7410250CF8A8
:1025DC00E6FDA68108E6AE0CBE000274FFCDF8E85D
:1025EC006D60E008E6C0E080F6E50CD39F4027E57F
:1025FC000C2411F8E6AE0CBE000274FFFD18E6CDFB
:10260C00F8E5816D6006D0E0F61880F5E50C241035
:10261C00C8F6150C80D3750D0AE50C23240FF87F32
:10262C0004C2AFE610E61E30E00310E20C7F00306F
:10263C00E10730E3047F0854F4547CC6D2AF5480D5
:10264C004207C20722F6D2AFD007D006D005D0047D
:10265C00D003D002D001D000D082D083D0F0D0D023
:0E266C00D0E0C207227810A68174006006FF3D
:10267A000876FFDFFB7F01E4780EF608F608DFFA3A
:10268A00780F76309046F3740193C0E0E493C0E08B
:10269A00750D0A438901758A3C758CF6D28CD2AFC6
:0426AA00D2A922008F
:102A5500AB07EB75F039A42494F582E43402F583D1
:102A6500120EB900000000EB75F039A42498F58228
:102A7500E43402F583120EB900000000EB75F0395D
:102A8500A424ACF582E43402F583120EB9000000EB
:102A950000EB75F039A424A8F582E43402F583121D
:102AA5000EB90000000090049DE0FCA3E0FDA3E04A
:102AB500FEA3E0FFEB75F039A4249CF582E4340213
:102AC500F583120EAD9004A1E0FCA3E0FDA3E0FEAA
:102AD500A3E0FFEB75F039A424A0F582E43402F5F8
:102AE50083120EAD9004A5E0FCA3E0FDA3E0FEA3D8
:102AF500E0FFEB75F039A424A4F582E43402F583F4
:102B0500120EADEB75F039A4249CF582E43402F580
:102B150083E0FCA3E0FDA3E0FEA3E0FFEB75F03945
:102B2500A424B4F582E43402F583120EADEB75F0FE
:102B350039A424A0F582E43402F583E0FCA3E0FD8A
:102B4500A3E0FEA3E0FFEB75F039A424B0F582E421
:102B55003402F583120EADEB75F039A424A4F58289
:102B6500E43402F583E0FCA3E0FDA3E0FEA3E0FF6F
:102B7500EB75F039A424B8F582E43402F583020E2E
:012B8500ADA2
:10457200EF75F039A424C4F582E43402F5837401A2
:02458200F02225
:1045BA00EF75F039A424C4F582E43402F583E4F0FB
:0145CA0022CE
:101E2B0090055BEFF075F039A424C4F582E434021D
:101E3B00F583E0700302200490055BE0FF75F03939
:101E4B00A42490F582E43402F583E0F8A3E0F9A32F
:101E5B00E0FAA3E0FBEF75F039A4248CF582E434AF
:101E6B0002F583E0FCA3E0FDA3E0FEA3E0FF120874
:101E7B000390055BE0FB75F039A42494F582E43400
:101E8B0002F583120EADEB75F039A424A8F582E4AC
:101E9B003402F583C083C082E0FCA3E0FDA3E0FE27
:101EAB00A3E0FF90055BE075F039A42494F582E480
:101EBB003402F583E0F8A3E0F9A3E0FAA3E0FB1208
:101ECB000807D082D083120EAD90055BE0FF75F052
:101EDB0039A424A8F582E43402F583E0F8A3E0F9F1
:101EEB00A3E0FAA3E0FBEF75F039A424A0F582E49C
:101EFB003402F583E0FCA3E0FDA3E0FEA3E0FF12B8
:101F0B0008F8C004C005C006C00790055BE0FF756C
:101F1B00F039A42494F582E43402F583E0F8A3E0CD
:101F2B00F9A3E0FAA3E0FBEF75F039A4249CF5824A
:101F3B00E43402F583E0FCA3E0FDA3E0FEA3E0FFA5
:101F4B001208F8D003D002D001D000120807C00449
:101F5B00C005C006C00790055BE0FF75F039A424EF
:101F6B0098F582E43402F583E0F8A3E0F9A3E0FAF4
:101F7B00A3E0FBEF75F039A42494F582E43402F569
:101F8B0083E0FCA3E0FDA3E0FEA3E0FF12080390B7
:101F9B00055BE075F039A424A4F582E43402F583E3
:101FAB00E0F8A3E0F9A3E0FAA3E0FB1208F8D003F2
:101FBB00D002D001D00012080790055BE0FB75F052
:101FCB0039A424ACF582E43402F583120EADEB7523
:101FDB00F039A42494F582E43402F583E0FCA3E009
:101FEB00FDA3E0FEA3E0FFEB75F039A42498F58286
:0A1FFB00E43402F583120EADD32288
:103FC200AB079004FDE0FCA3E0FDA3E0FEA3E0FF4D
:103FD200EB75F039A424C0F582E43402F583020EB5
:013FE200AD31
:103FE300AB07900502E0FCA3E0FDA3E0FEA3E0FF26
:103FF300EB75F039A424BCF582E43402F583020E98
:01400300AD0F
:10400400AB07900507E0FCA3E0FDA3E0FEA3E0FFFF
:10401400EB75F039A42490F582E43402F583020EA2
:01402400ADEE
:10402500AB0790050CE0FCA3E0FDA3E0FEA3E0FFD9
:10403500EB75F039A424A0F582E43402F583020E71
:01404500ADCD
:10404600AB07900511E0FCA3E0FDA3E0FEA3E0FFB3
:10405600EB75F039A4249CF582E43402F583020E54
:01406600ADAC
:10406700AB07900516E0FCA3E0FDA3E0FEA3E0FF8D
:10407700EB75F039A424A4F582E43402F583020E2B
:01408700AD8B
:10408800AB0790051BE0FCA3E0FDA3E0FEA3E0FF67
:10409800EB75F039A4248CF582E43402F583020E22
:0140A800AD6A
:10435F00EF75F039A4248CF582E43402F583E0FC88
:0A436F00A3E0FDA3E0FEA3E0FF229F
:10437900EF75F039A42494F582E43402F583E0FC66
:0A438900A3E0FDA3E0FEA3E0FF2285
:10439300EF75F039A42498F582E43402F583E0FC48
:0A43A300A3E0FDA3E0FEA3E0FF226B
:1043AD00EF75F039A4249CF582E43402F583E0FC2A
:0A43BD00A3E0FDA3E0FEA3E0FF2251
:1043C700EF75F039A424A0F582E43402F583E0FC0C
:0A43D700A3E0FDA3E0FEA3E0FF2237
:1043E100EF75F039A424A4F582E43402F583E0FCEE
:0A43F100A3E0FDA3E0FEA3E0FF221D
:1043FB00EF75F039A424ACF582E43402F583E0FCCC
:0A440B00A3E0FDA3E0FEA3E0FF2202
:10441500EF75F039A424A8F582E43402F583E0FCB5
:0A442500A3E0FDA3E0FEA3E0FF22E8
:0527EB00900482EDF0F6
:1027F000E4900489F0A3F0900485E0FFA3E0900446
:102800008BCFF0A3EFF0900483E0FFA3E090048D62
:10281000CFF0A3EFF0E4900487F0A3F0900482E0FF
:10282000FF900487E0FCA3E0FDC39F7480F8EC6494
:10283000809840030228E5ED25E0FFEC338F82F518
:1028400083120CC1FFC390048CE09F90048BE09531
:10285000F0501D900488E025E0FF900487E0338F5E
:1028600082F583120CC1FF90048BE5F0F0A3EFF02A
:10287000900488E025E0FF900487E0338F82F583A1
:10288000120CC1FFD390048EE09F90048DE095F070
:10289000401D900488E025E0FF900487E0338F829C
:1028A000F583120CC1FF90048DE5F0F0A3EFF090DA
:1028B0000488E025E0FF900487E0338F82F58312DF
:1028C0000CC1FFAEF090048AE02FF0900489E03E46
:1028D000F0900488E004F0600302281C900487E074
:1028E00004F002281C90048DE0FEA3E0FF90048C0D
:1028F000E02FFF90048BE03EFEC390048AE09FFF30
:10290000900489E09EFEF0A3EFF0900482E024FEA4
:10291000FDE434FFFC120C56900489EEF0A3EFF0B6
:012920002294
:1032FD00602A0384000000000000000000000000B0
:10330D0000000000000000000000000000000000B0
:0E331D000000000000000000000000000000A2
:102FC4009004B0EBF0A3EAF0A3E9F0900003120B35
:102FD400E3FF9004ACE0FBA3E0FAA3E0F9A3E0FE76
:102FE400F582758300EF120C229004B0E0FBA3E09D
:102FF400FAA3E0F9900002120BE3FFEE2401FDE4D2
:1030040033FC9004ACE0FBA3E0FAA3E0F98D828CDE
:1030140083EF120C229004B0E0FBA3E0FAA3E0F9E2
:10302400900001120BE3FFEE2402FDE433FC900454
:10303400ACE0FBA3E0FAA3E0F98D828C83EF120CE1
:10304400229004B0E0FBA3E0FAA3E0F9120BCAFF5C
:10305400EE2403FDE433FC9004ACE0FBA3E0FAA30C
:0A306400E0F98D828C83EF020C224C
:103DA4009004EEE0900523F0122921E49004EFF052
:103DB4009004EEE0FF1231179004EFE0FEC39F5031
:103DC4001774842EF582E43403F583E0FF123F2F49
:083DD4009004EFE004F080D838
:013DDC0022C4
:1029210090051F120EAD900523E0FFD3940A4003DA
:10293100022A54EF7003022A54EF14B40A00400330
:10294100022A5490295275F003A4C58325F0C5834A
:102951007302297002298602299D0229B40229CB1A
:102961000229E10229F7022A0D022A23022A3990BB
:1029710004AC7401F0A37403F0A37484F0A3740194
:10298100F0FB022A4D9004AC7401F0A37403F0A390
:102991007484F0A37405F07B01022A4D9004AC7499
:1029A10001F0A37403F0A37484F0A37409F07B0114
:1029B100022A4D9004AC7401F0A37403F0A3748453
:1029C100F0A3740DF07B01022A4D9004AC7401F068
:1029D100A37403F0A37484F0A37411F07B01806CE1
:1029E1009004AC7401F0A37403F0A37484F0A37495
:1029F10015F07B0180569004AC7401F0A37403F0D0
:102A0100A37484F0A37419F07B0180409004AC742A
:102A110001F0A37403F0A37484F0A3741DF07B018F
:102A2100802A9004AC7401F0A37403F0A37484F0C1
:102A3100A37421F07B0180149004AC7401F0A374A1
:102A410003F0A37484F0A37425F07B017A05791F48
:042A5100122FC4225A
:10311700EFD3940A5003EF70037F00229003847467
:1031270024F0EF14B40A0040030231B9903141751D
:10313700F003A4C58325F0C5837302315F023168AC
:1031470002317102317A02318302318C02319502E8
:10315700319E0231A70231B09003897405F07F06D2
:103167002290038D7409F07F0A22900391740DF069
:103177007F0E229003957411F07F122290039974A9
:1031870015F07F162290039D7419F07F1A22900381
:10319700A1741DF07F1E229003A57421F07F2222C7
:1031A7009003A97425F07F26229003AD7429F07F40
:0531B7002A227F002226
:10458400900524EEF0A3EFF0A3EBF0A3EAF0A3E987
:02459400F02213
:08332B00C100C101C102C10390
:10418A009005527478F0E4900551F07B017A057934
:0E419A00517F021221D9D2A3D2A4D2A5D2A65F
:0141A80022F4
:0A467400EF4E7005EE4F24FFB32255
:10424200EF24F0600F24F0600E24E0600D2438703B
:0D4252000BA20022A20122A20222A203223E
:103A4F00A2A3E4FE33FF124674500EA2A3E433FF89
:103A5F001246745006D2008002C200A2A4E4FE33C4
:103A6F00FF1246745007200106D2018002C201A244
:103A7F00A5E4FE33FF1246745007200206D20280DF
:103A8F0002C202A2A6E4FE33FF12467450062003C0
:073A9F0005D20322C203223D
:02333300C108CF
:103E67009005547405F0E4900553F07B017A0579C9
:103E7700537F051221D91246DF7FC812461F12460B
:073E8700E47FC812461FD3BF
:013E8E002211
:0546DF00C2CDD208224B
:0546E400D2CDC2082246
:103FA00090056CEFF090056CE0FF14F0EF601212DA
:103FB00046DF7FC812461F1246E47FC812461F80A4
:023FC000E422F9
:0346ED00A20822FE
:0646C10090055CEFF02201
:10343400900529EFF07F337E337D737C3FA3E0F862
:10344400A3E0F9A3E0FAA3E0FB120A9E600C400A91
:1034540090052A120EB93F7333337FCD7ECC7D4C59
:103464007C3D90052AE0F8A3E0F9A3E0FAA3E0FB91
:10347400120A9E500A90052A120EB93D4CCCCD90EA
:103484000529E02404FFC007A3E0FCA3E0FDA3E0BA
:10349400FEA3E0FF900539120EADD007122C9C90CC
:1034A400052AE0FCA3E0FDA3E0FEA3E0FF120B4924
:1034B400900529E025E0243EF582E43405F583EF08
:0234C400F022F4
:1042060090055DEFF02404FF123E8F90055DE025DA
:0E421600E0243DF582E43405F5837401F022C6
:10425F0090055EEFF02404FF123F5690055EE025B7
:0D426F00E0243DF582E43405F583E4F022FF
:10460F00EF25E0243DF582E43405F583E024FF2215
:10386400E490044AF0A37408F07B017A04794A7F57
:10387400021221D990044B7404F07B017A04794A32
:103884007F021221D9D2A2D2A343BA80E490044C7D
:10389400F0A3F0A3F0A304F0E4A3F0A3F0A3F0A337
:1038A400F0A3F0A3F0A3F0A3F0A3F0A3F0A3F0A37C
:1038B400F07B017A04794C7F021216007B017A04B2
:0A38C400794C7F0312160053BA7FFF
:0138CE0022D7
:052005009003AEEFF0B6
:10200A00E49003BDF0A37480F07B017A0379BD7F6D
:10201A00031221D9D2B743BA80E49003BFF0A3F0E8
:10202A00A3F0A304F0E4A3F0A3F0A3F0A3F0A3F0B9
:10203A00A3F0A3740FF0E4A3F0A3F0A3F0A3F0A31A
:10204A00F09003AEE0FF7B017A0379BF12160053CA
:10205A00BA7F9003AEE0FF7D101245ED9003AEE02B
:10206A00FF7D327C001239389003AFE0FCA3E0FD1B
:10207A00A3E0FEA3E0FF9003AEE0FB75F025A424E5
:10208A0003F582E43403F583120EAD9003B3E0FC4A
:10209A00A3E0FDA3E0FEA3E0FFEB75F025A424076F
:1020AA00F582E43403F583120EAD9003B7E0FCA386
:1020BA00E0FDA3E0FEA3E0FFEB75F025A42415F5EF
:1020CA0082E43403F583120EAD9003BBE0FEA3E075
:1020DA00FFEB75F025A4240FF582E43403F583EEB3
:1020EA00F0A3EFF0EB75F025A42403F582E43403A2
:1020FA00F583E0F8A3E0F9A3E0FAA3E0FB9003AECE
:10210A00E075F025A42407F582E43403F583E0FCA6
:10211A00A3E0FDA3E0FEA3E0FF120803C004C0058C
:10212A00C006C0079003AEE075F025A4240FF5821F
:10213A00E43403F583E0FCA3E0FDE4120B10A804E9
:10214A00A905AA06AB07D007D006D005D004120A03
:10215A00019003AEE0FB75F025A4240BF582E4346C
:10216A0003F583120EADEB75F025A4240FF582E476
:10217A003403F583E0FCA3E0FDE4120B10A804A9E4
:10218A0005AA06AB079003AEE075F025A42415F561
:10219A0082E43403F583E0FCA3E0FDA3E0FEA3E0C0
:1021AA00FF120A019003AEE0FB75F025A42419F58D
:1021BA0082E43403F583120EADEB75F025A42411E5
:0E21CA00F582E43403F583120EB90000000024
:0121D80022E4
:052B86009004B3EFF024
:102B8B00A3E0FCA3E0FDA3E0FEA3E0FF9004B3E011
:102B9B00FB75F025A424FEF582E43402F583120EB6
:102BAB00ADEB75F025A42419F582E43403F583E02D
:102BBB00F8A3E0F9A3E0FAA3E0FB9004B4E0FCA3D4
:102BCB00E0FDA3E0FEA3E0FF120A019004B3E07561
:102BDB00F025A4240BF582E43403F583E0F8A3E09D
:102BEB00F9A3E0FAA3E0FB1208F89004B3E075F048
:102BFB0025A42403F582E43403F583E0F8A3E0F97C
:102C0B00A3E0FAA3E0FB1208079004B3E0FB75F016
:102C1B0025A4241FF582E43403F583120EADEB7566
:102C2B00F025A4241FF582E43403F583E0FCA3E034
:102C3B00FDA3E0FEA3E0FFE4FBFA79A07841120AC2
:102C4B00019004B8120EAD9004B8E0FCA3E0FDA314
:102C5B00E0FEA3E0FF900539120EAD9004B3E0FF48
:102C6B00122C9C9004B3E0FB75F025A424FEF58296
:102C7B00E43402F583E0FCA3E0FDA3E0FEA3E0FF58
:102C8B00EB75F025A42411F582E43403F583020ED1
:012C9B00AD8B
:10442F00EF75F025A42411F582E43403F583E0FC45
:0A443F00A3E0FDA3E0FEA3E0FF22CE
:1040CA0090055FEFF0123E8F90055FE075F025A432
:1040DA00241DF582E43403F583E4F0A304F0D3222B
:1041A900900560EFF0123F56900560E075F025A488
:0F41B900241DF582E43403F583E4F0A3F0D32250
:10325F009004F0EFF075F00EA424F9F582E4340336
:10326F00F583E0FEA3E0FF7C007D63120C56EF2494
:10327F0001FFE43EFE9004F5E0FD7C00120C44AA31
:10328F0006AB079004F0E075F00EA424F9F582E484
:10329F003403F583E0FEA3E0FF7D63120C56C3EB0E
:1032AF009FFDEA9EFCC004C0059003F8E0FCE41209
:1032BF000B159004F1E0F8A3E0F9A3E0FAA3E0FB0B
:1032CF001208F89003F4E0F8A3E0F9A3E0FAA3E002
:1032DF00FB120A01120B49E4FCFD9004D8120EAD4B
:0E32EF009004F0E0FFD005D0041239F7D3228E
:103DDD00900561EBF0C007AE04AF057C017D681264
:103DED000C44AC06AD07E4120B109004F1120EADAD
:0F3DFD00900561E09004F5F0D00712325FD322F9
:1045CB00EF75F00EA424F0F582E43403F583E0FFDD
:0145DB0022BD
:0746AC00900562EFF0D3223C
:1042D300900563EFF012412A900563E075F00EA498
:0C42E30024F0F582E43403F583E4F022BB
:10427C00900564EFF012410A900564E075F00EA40D
:0D428C0024F0F582E43403F5837401F02280
:0746B300900565EFF0D32232
:0746BA00900566EFF0D3222A
:103AA600AB079004C6E0FCA3E0FDA3E0FEA3E0FFA5
:103AB600EB75F00EA424F4F582E43403F583120EBC
:103AC600AD9004CAE0FFEB75F00EA424F8F582E48D
:103AD6003403F583EFF09004CBE0FEA3E0FFEB7533
:103AE600F00EA424F9F582E43403F583EEF0A3EF97
:043AF600F00238CFD3
:0F462F0074452FF582E43405F5837401F0D3222E
:0E463E0074452FF582E43405F583E4F0D322B1
:0146FC00229B
:1042EF009004F6EFF0A3EDF0A37401F0E4A3F0A3B4
:0C42FF00F0A3F07B017A0479F6023AFA91
:1037EA00E4900434F0300963F0E4FF12399990044C
:1037FA0034E025E02420F582E43404F583EEF0A3D6
:10380A00EFF0900434E004F0E0C3940A40DB7B015B
:10381A007A0479209004837404F0A3E4F0A3F0A35B
:10382A00F07D0A1227EBAC06AD07E4120B109004E8
:10383A00CD120EAD9004CDE0FCA3E0FDA3E0FEA303
:10384A00E0FFA3120EAD9004CD80039004D1E0FCFA
:09385A00A3E0FDA3E0FEA3E0FFE2
:013863002242
:10430B00900567EFF0D2C87F0112461F900567E05A
:0C431B00F5C0D2CA7F0112461FC2CA22A0
:103E0C00900548EBF0A3EAF0A3E9F0900548E0FB3D
:103E1C00A3E0FAA3E0F9120BCAFFD39400400F12EF
:0F3E2C00430B900549E475F001120CAB80DD22C9
:10429900124224D2CCC2CAC2C97F381243277F0C2A
:0D42A9001243277F061243277F010243279F
:10432700900568EFF0C2C87F0112461FD2CA9005F8
:0C43370068E0F5C07F0112461FC2CA22D8
:1042240053C9EF43CA1053C9FE53CAFE53C9FD53C1
:0E423400CAFD53C9FB53CAFBE4F5B3F5B4222F
:0844B100900541ECF0A3EDF0D1
:1044B900E4A3F0A3EFF07B017A057943E4FF02213D
:0144C900D919
:0545DC00900569EFF0FD
:0B45E100E4FF00000FEFB408F9000039
:0145EC0022AC
:10199A000000000000000000004F000000000700E7
:1019AA00070000147F147F1400242A7F2A120023C0
:1019BA0013086462003649552250000005030000EE
:1019CA0000001C224100000041221C000014083EB5
:1019DA0008140008083E08080000503000000008FB
:1019EA0008080808000060600000002010080402CF
:1019FA00003E5149453E0000427F4000004261518D
:101A0A004946002141454B31001814127F10002726
:101A1A0045454539003C4A494930000171090503E9
:101A2A0000364949493600064949291E000036361A
:101A3A00000000005636000000081422410000147D
:101A4A00141414140000412214080002015109065A
:101A5A0000324979413E007E1111117E007F4949C9
:101A6A00493E003E41414122007F4141221C007F04
:101A7A0049494941007F09090901003E4149497A1A
:101A8A00007F0808087F0000417F41000020404194
:101A9A003F01007F08142241007F40404040007F00
:101AAA000204027F007F0408107F003E4141413E4C
:101ABA00007F09090906003E4151215E007F09198C
:101ACA0029460046494949310001017F0101003F89
:101ADA004040403F001F2040201F003F4038403F09
:101AEA000063140814630003047804030061514975
:101AFA00454300007F4141000015167C1615000081
:101B0A0041417F000004020102040040404040407D
:101B1A00000001020400002054545478007F484415
:101B2A00443800384444442000384444487F00384C
:101B3A005454541800087E090102000C5252523EB5
:101B4A00007F080404780000447D400000204044DF
:101B5A003D00007F102844000000417F4000007EC5
:101B6A00020C027C007E0402027C003844444438A1
:101B7A00007C1414140800081414187C007C08044F
:101B8A00040800485454542000043F444020003CB8
:101B9A004040207C001C2040201C003C4030403C3F
:101BAA00004428102844000C5050503C004464540F
:101BBA004C440000083641000000007F000000008D
:101BCA00413608000008040810080008082A1C0802
:101BDA0000081C2A08080004027F02040010207F63
:0E1BEA002010001C2A322A1C001C2244221C3F
:1040EA00C2C9ED24FF92CA7E08EF30E704D2CB8022
:0F40FA0002C2CBC2CCEF25E0FFD2CCDEECD2C9A4
:014109002293
:1040A900E4FD7F801240EA7F401240EA7BF87A0102
:1040B9007D01E4FF1240EAEB1B70011AEB4A70F034
:0140C90022D4
:10452600AD07E4FF1245127C547D01E4FF1240EA18
:02453600DCF7B0
:014538002260
:10451200AC05EF4480FFEC4440FCE4FD1240EAAFFE
:04452200040240EA65
:073D2C00E0FF04F0A3E0FD3D
:103D330074E02BFBEF75F006A4FF124512E4FC754B
:103D4300F006EBA4249AF582E5F03419F583E582B5
:103D53002CF582E43583F583E493FF7D011240EA79
:053D63000CECB406DACF
:013D68002238
:103D690090052EEFF0A3EDF0A3EBF0A3EAF0A3E9A1
:103D7900F0900530E0FBA3E0FAA3E0F9120BCAFBCF
:103D8900601890052EE0C3940E500F123D2C90053B
:0B3D990031E475F001120CAB80D72262
:103B4D00900533EFF0A3EDF0A3EBF0A3EAF0A3E9BA
:103B5D00F0900535E0FBA3E0FAA3E0F9120BCAFBE8
:103B6D006028900533123D2C900536E475F0011256
:103B7D000CAB900533E0B40E06E4F0A3E004F09036
:0B3B8D000534E0B406CBE4F080C72252
:103C6B00E4900555F0A304F0FB7A0579557F051216
:103C7B0021D9C2C8D2C8E4FD7F211240EA7F0612C7
:103C8B0040EA7F131240EA7FC81240EA7F201240BD
:103C9B00EA7F0C1240EA7F401240EA7F801240EA32
:033CAB000240A92B
:103335004403E3000000004403DF000000004403F1
:10334500DB000000004403D7000000004403D30065
:0A3355000000004403CF0000000058
:1039F7009004D5EFF0A3ECF0A3EDF09004D6E0FC33
:103A0700A3E0FD7F051239389004D6E0FEA3E0FF5E
:103A17009004D5E0FB75F007A424EBF582E43403AA
:103A2700F583EEF0A3EFF09004D8E0FCA3E0FDA34C
:103A3700E0FEA3E0FFEB75F007A424E7F582E4348A
:083A470003F583120EADD3223A
:10410A0090056AEFF07F05123E8F90056AE075F020
:10411A0007A424EDF582E43403F5837401F0D32275
:10412A0090056BEFF02405FF123F5690056BE07582
:10413A00F007A424EDF582E43403F583E4F0D322F6
:10459600EF75F007A424EDF582E43403F583E024F7
:0245A600FF22F2
:1038CF00E490045CF0A37480F07B017A04795C7F50
:1038DF00011221D9D297900539120EB93F0000007D
:1038EF007F05122C9C43BA80E490045EF0A3F0A3F2
:1038FF00F0A304F0E4A3F0A3F0A3F0A3F0A3F0A3CC
:10390F00F0A3740FF0E4A3F0A304F0E4A3F0A30476
:10391F00F0E4A3F07B017A04795E7F051216005361
:09392F00BA7F7D107F050245ED11
:0300B300022DAB70
:102DAB00C0E0C0F0C083C082C0D075D000C000C0EE
:102DBB0001C002C003C004C005C006C007E5F66031
:102DCB002B53F6DF9003E3120E789003E7E0F8A3A2
:102DDB00E0F9A3E0FAA3E0FBD3120E2450619003B9
:102DEB00E7120EB9000000007F05802DE5F6602E7E
:102DFB0053F6EF9003DF120E789003EEE0F8A3E0AA
:102E0B00F9A3E0FAA3E0FBD3120E2450329003EEA9
:102E1B00120EB9000000007F04123F568021E5F628
:102E2B00600553F6F78018E5F6600553F6FB800F47
:102E3B00E5F6640160028004E5F6600353F6FDD00D
:102E4B0007D006D005D004D003D002D001D000D0DB
:0A2E5B00D0D082D083D0F0D0E03256
:103AFA00120BCAF59D900001120BE3FFE5BC549F1F
:103B0A004FF5BC900002120BE3B4010543BC808060
:103B1A000353BC7F900003120BE3B40105439720C3
:103B2A0080035397DF900005120BE3B40104D2AD72
:103B3A008002C2AD900004120BE3B40103D2BD228D
:033B4A00C2BD22D7
:0C466800EFB4010443BC802253BC7F224D
:10399900EFD3940740028051E4F5BDF5BEE5BC5470
:1039A900E044084FF5BC00000000E4FBE5BC30E44E
:1039B9003353BCEFE59730E509E5BD5403ADBEFCD3
:1039C900801DAFBD7C00AD07ED7E007802C333CE0C
:1039D90033CED8F9FFE5BE5403FDEEFCEF4DFDAF44
:0D39E90005AE04220BEBB4FAC37E047F0090
:0139F60022AE
:03002B000246E9A1
:0446E90053BCEF329D
:0F461F007D367C07ED1D70011C144C70F7DFF128
:01462E002269
:0346F000A20A22F9
:1021D900EFD3940540037F0122120BCAFED3940367
:1021E90040037F0222EF7041EE700B900001120B49
:1021F900E3F452935294120BCAB4010B90000112EA
:102209000BE34293F45294120BCAFEB4020A9000F3
:1022190001120BE342934294EEB4030D90000112B4
:102229000BE3FEF45293EE4294EF64017043120BF8
:10223900CAFE700B900001120BE3F452915292EE18
:10224900B4010B900001120BE34291F45292120B6C
:10225900CAB4020A900001120BE342914292120B96
:10226900CAB4030D900001120BE3FEF45291EE4241
:1022790092EF64027043120BCAFE700B90000112B8
:102289000BE3F452955296EEB4010B900001120B38
:10229900E34295F45296120BCAB4020A9000011255
:1022A9000BE342954296120BCAB4030D900001123A
:1022B9000BE3FEF45295EE4296EF64037043120B62
:1022C900CAFE700B900001120BE3F452B152B2EE48
:1022D900B4010B900001120BE342B1F452B2120B9C
:1022E900CAB4020A900001120BE342B142B2120BC6
:1022F900CAB4030D900001120BE3FEF452B1EE4291
:10230900B2EF64047043120BCAFE700B9000011205
:102319000BE3F452B352B4EEB4010B900001120B6B
:10232900E342B3F452B4120BCAB4020A9000011288
:102339000BE342B342B4120BCAB4030D900001126D
:102349000BE3FEF452B3EE42B4EF64057043120B93
:10235900CAFF700B900001120BE3F452C952CAEF85
:10236900B4010B900001120BE342C9F452CA120BDB
:10237900CAB4020A900001120BE342C942CA120B05
:10238900CAB4030D900001120BE3FFF452C9EF42E6
:04239900CA7F0022D5
:102F1600EF7034D3ED9498EC940340047C037D98D1
:102F2600C3ED9450EC940050047C007D50C2DE90BA
:102F3600043EECF0A3EDF0C374E89D900439F07400
:102F4600039C9004388073EF64017034D3ED946869
:102F5600EC940B40047C0B7D68C3ED9450EC94001C
:102F660050047C007D50C2DE900440ECF0A3EDF0EE
:102F7600C374B89D90043BF0740B9C90043A803A5D
:102F8600EF64027038D3ED9480EC940740047C071C
:102F96007D80C3ED9450EC940050047C007D50C2BB
:102FA600DE900442ECF0A3EDF0AE04FFC374D09FB4
:0E2FB60090043DF074079E90043CF0D2DE22A1
:10239D0090054BEBF0A3EAF0A3E9F0AD07EDD39474
:1023AD0003400302253BED6403704CC2DEF5F9F5E5
:1023BD00E990054BE0FBA3E0FAA3E0F9120BCAFF8D
:1023CD00E5A254CF4FF5A2900001120BE3FFE5D922
:1023DD0054F14FF5D9900004120BE35401FFE5D9E8
:1023ED0054FE4FF5D9900005120BE3B40104D2BF92
:1023FD008002C2BFD2DE2290054BE0FBA3E0FAA320
:10240D00E02404F9E43AFA120BCA5431120C10907C
:10241D00054BE0FBA3E0FAA3E0F9900002120BE3F9
:10242D00C39448400FE92404F9E43AFA120BCA5454
:10243D00CF120C10ED704F90054BE0FBA3E0FAA30B
:10244D00E0F9900004120BE3FF900002120BE3FE83
:10245D004FF5DA900003120BE3FFE5F2543F4FF511
:10246D00F2900006120CC1FBAAF090043EEAF0A314
:10247D00EBF0C204900435EEF0900444EAF0A3EBC7
:10248D00F0F5EAEAF5FAED6401704F90054BE0FBCB
:10249D00A3E0FAA3E0F9900004120BE3FF90000211
:1024AD00120BE3FE4FF5DB900003120BE3FFE5F398
:1024BD00543F4FF5F3900006120CC1FBAAF09004A7
:1024CD0040EAF0A3EBF0C205900436EEF09004461E
:1024DD00EAF0A3EBF0F5EBEAF5FBED6402704F903B
:1024ED00054BE0FBA3E0FAA3E0F9900004120BE327
:1024FD00FF900002120BE3FE4FF5DC900003120B70
:10250D00E3FFE5F4543F4FF5F4900006120CC1FDC6
:10251D00ACF0900442ECF0A3EDF0C206900437EE5F
:0F252D00F0900448ECF0A3EDF0F5ECECF5FC2297
:1026AE0090054FECF0A3EDF090054EEFF0705ED379
:1026BE00EB9464EA940040047A007B64C3EB9401CB
:1026CE00EA940050047A007B01C2DE90054FE0FED2
:1026DE00A3E0FFAD03AC02120C447C007D64120C2F
:1026EE005690043EEEF0A3EFF07C007D64AF03AE97
:1026FE0002120C56C374019FFFE49EFE90054FE03C
:10270E00FCA3E0FD120C449004380227E390054E22
:10271E00E06401705DD3EB9464EA940040047A00A7
:10272E007B64C3EB9401EA940050047A007B01C2EF
:10273E00DE7C007D64AF03AE02120C5690054FE0B6
:10274E00FCA3E0FD120C44900440EEF0A3EFF07CED
:10275E00007D64AF03AE02120C56C374019FFFE4FA
:10276E009EFE90054FE0FCA3E0FD120C4490043A4F
:10277E00806390054EE064027062D3EB9464EA9439
:10278E000040047A007B64C3EB9401EA9400500489
:10279E007A007B01C2DE7C007D64AF03AE02120CB8
:1027AE005690054FE0FCA3E0FD120C44900442EE5F
:1027BE00F0A3EFF0AE02AF037C007D64120C56C3A3
:1027CE0074019FFFE49EFE90054FE0FCA3E0FD1216
:0D27DE000C4490043CEEF0A3EFF0D2DE229C
:03003B000231BCD3
:1031BC00C0E0C083C082C0D075D000C006C007304C
:1031CC00D82AC2D830A50590043E8003900438E07C
:1031DC00FEA3E0FF900445E02FF0900444E03EF0A5
:1031EC00900444E0FEA3E0F5EAEEF5FA30D92AC2E9
:1031FC00D930A605900440800390043AE0FEA3E089
:10320C00FF900447E02FF0900446E03EF090044617
:10321C00E0FEA3E0F5EBEEF5FB30DA2AC2DA30A7DC
:10322C0005900442800390043CE0FEA3E0FF900470
:10323C0049E02FF0900448E03EF0900448E0FEA3F3
:10324C00E0F5ECEEF5FCD007D006D0D0D082D083E0
:03325C00D0E0328D
:05160000900557EFF01A
:10160500E4A3F0900558E0FFC39406505AEF75F037
:101615000AA42448F582E43403F583120EB90000C8
:101625000000900558E0FF75F00AA4244CF582E40B
:101635003403F583E4F0EF75F00AA4244DF582E454
:101645003403F583120EB900000000900558E075CB
:10165500F00AA42451F582E43403F5837401F09073
:101665000558E004F0809C43BA80120BCAB401050A
:1016750043F180800353F17F900001120BE3B40125
:1016850014900557E0FF7401A807088002C333D8FA
:10169500FC42F18013900557E0FF7401A80708800C
:1016A50002C333D8FCF452F1900002120BE3B401EB
:1016B5000543F540800353F5BF900003120BE3B4D7
:1016C5000114900557E0FF7401A807088002C33391
:1016D500D8FC42F58013900557E0FF7401A8070870
:1016E5008002C333D8FCF452F5900004120BE3B426
:1016F500010575F720800353F7DF900005120BE312
:10170500B4010575F710800353F7EF900006120B2F
:10171500E3B4010575F708800353F7F79000071246
:101725000BE3B4010575F704800353F7FB9000083C
:10173500120BE3B4010575F702800353F7FD900022
:1017450009120BE390FFF27006E054EFF08004E01D
:101755004410F090FFF2C083C082E0FF90000A12AF
:101765000BE3FEEF4ED082D083F0900557E0146076
:101775007214700302183B14700302188E14700360
:101785000218E11470030219322405600302198955
:1017950090000B120BE390FF047006E054F7F08005
:1017A50004E04408F090000C120BE390FF04B40130
:1017B50006E04404F08004E054FBF090000D120BA9
:1017C500E390FF04B40106E04402F08004E054FD18
:1017D500F090000E120BE390FF04B4010302197F91
:1017E50002198590000B120BE390FF147006E0546C
:1017F500F7F08004E04408F090000C120BE390FF32
:1018050014B40106E04404F08004E054FBF09000B9
:101815000D120BE390FF14B40106E04402F08004BE
:10182500E054FDF090000E120BE390FF14B4010399
:1018350002197F02198590000B120BE390FF2470AB
:1018450006E054F7F08004E04408F090000C120B19
:10185500E390FF24B40106E04404F08004E054FB67
:10186500F090000D120BE390FF24B40106E0440252
:10187500F08004E054FDF090000E120BE390FF247D
:10188500B4010302197F02198590000B120BE39036
:10189500FF347006E054F7F08004E04408F090004F
:1018A5000C120BE390FF34B40106E04404F080040D
:1018B500E054FBF090000D120BE390FF34B40106E9
:1018C500E04402F08004E054FDF090000E120BE3BA
:1018D50090FF34B4010302197F02198590000B12A1
:1018E5000BE390FF447006E054F7F08004E04408F1
:1018F500F090000C120BE390FF44B40106E04404A1
:10190500F08004E054FBF090000D120BE390FF44CF
:10191500B40106E04402F08004E054FDF090000EAE
:10192500120BE390FF44B40102804F805390000BEB
:10193500120BE390FF547006E054F7F08004E04486
:1019450008F090000C120BE390FF54B40106E0443C
:1019550004F08004E054FBF090000D120BE390FFBF
:1019650054B40106E04402F08004E054FDF0900018
:101975000E120BE390FF54B40106E04401F080041D
:10198500E054FEF090000F120BE3B4010443F58020
:041995002253F57F65
:01199900222B
:10444900EF75F00AA42448F582E43403F583E0FC0F
:0A445900A3E0FDA3E0FEA3E0FF22B4
:10446300EF75F00AA4244DF582E43403F583E0FCF0
:0A447300A3E0FDA3E0FEA3E0FF229A
:10393800900559ECF0A3EDF0AB07900559E0FEA314
:10394800E0FFE4FCFDEB75F00AA42448F582E434BA
:1039580003F583120EAD43BA8053F57FEB75F00A79
:10396800A42451F582E43403F583E0FF7E0090053A
:1039780059E0FCA3E0FD120C44AB07AA06E4F9F8F1
:10398800FF7E367D6E7C01123C271244E353BA7FDA
:01399800220C
:102C9C00900538EFF07F337E337D737C3FA3E0F8F3
:102CAC00A3E0F9A3E0FAA3E0FB120A9E600C400A31
:102CBC00900539120EB93F7333337FCD7ECC7DCC6A
:102CCC007C3C900539E0F8A3E0F9A3E0FAA3E0FB23
:102CDC00120A9E500A900539120EB93CCCCCCD90FC
:102CEC000539E0FCA3E0FDA3E0FEA3E0FF9005386E
:102CFC00E0FB75F00AA4244DF582E43403F583124D
:102D0C000EAD43BA80EB75F00AA42451F582E4347D
:102D1C0003F583E0FFE4FCFDFEEB75F00AA4244808
:102D2C00F582E43403F583E0F8A3E0F9A3E0FAA319
:102D3C00E0FB120CF9A804A905AA06AB077F007EDC
:102D4C00367D6E7C01120D84E4120B0B900538E07D
:102D5C0075F00AA4244DF582E43403F583E0F8A35E
:102D6C00E0F9A3E0FAA3E0FB1208F8E4FBFA7920FF
:102D7C0078411208F8E4FBFA79A07840120807E4CD
:102D8C00FBFA79207841120A01120B49AB07AA060B
:0F2D9C00900538E0FFE4FDFC12339A53BA7F2212
:1045ED00EF75F00AA42451F582E43403F583EDF060
:0145FD00229B
:1045FE00EF75F00AA42451F582E43403F583E0FF4D
:01460E002289
:0A467E0043BA8043F58053BA7F224F
:0A46880043BA8053F57F53BA7F2236
:103E8F0043BA807401A807088002C333D8FC42F5F7
:103E9F00EF75F00AA4244CF582E43403F583740122
:083EAF00F043F58053BA7F22B5
:103F560043BA807401A807088002C333D8FCF45220
:103F6600F5EF75F00AA4244CF582E43403F583E4F6
:053F7600F053BA7F22A8
:1045A800EF75F00AA4244CF582E43403F583E02483
:0245B800FF22E0
:1044E300D3E49F74809E400D90FFF1EFF0EE90FFB8
:0844F300F0F07F00227F01229E
:10339A00EF14602814603A14604C14605E14607074
:1033AA002405600302343190FF01EDF0EC90FF0038
:1033BA00F090FF03EBF0EA90FF02806790FF11EDB7
:1033CA00F0EC90FF10F090FF13EBF0EA90FF128000
:1033DA005290FF21EDF0EC90FF20F090FF23EBF0EC
:1033EA00EA90FF22803D90FF31EDF0EC90FF30F043
:1033FA0090FF33EBF0EA90FF32802890FF41EDF026
:10340A00EC90FF40F090FF43EBF0EA90FF4280130C
:10341A0090FF51EDF0EC90FF50F090FF53EBF0EA83
:0A342A0090FF52F07F00227F012284
:102E650054696D65723120696E697469616C697A3E
:102E7500696E672073756363656564200A0054692C
:102E85006D65723120696E697469616C697A696E04
:102E950067206661696C6564200A0054696D657216
:102EA5003320696E697469616C697A696E6720732C
:102EB500756363656564200A0054696D6572332026
:102EC500696E697469616C697A696E6720666169A2
:102ED5006C6564200A0054696D65723420696E69F9
:102EE5007469616C697A696E67207375636365657A
:102EF50064200A0054696D65723420696E697469CD
:102F0500616C697A696E67206661696C6564200A1F
:012F150000BB
:10335F0041041102410412024204130000420415F9
:10336F00000042040D000042040B000041041F0046
:10337F0041040A004104100041040F0044041700E7
:0A338F0000000044041B00000000D1
:10306E00E490047EF090046EF0A3F0A304F0E4A3C9
:10307E00F0A3F0900475F090047374A2F0A3744062
:10308E00F0E4900476F0A3F0A304F0E4A3F0A3F030
:10309E0090047D04F090047B74FFF0A37410F07F15
:1030AE0001121BF890047EEFF070087BFF7A2E79E8
:1030BE0065800A90047EE07BFF7A2E79831244FBB2
:1030CE007F03121BF890047EEFF070087BFF7A2EC0
:1030DE0079A0800A90047EE07BFF7A2E79BE12449E
:1030EE00FB7B017A0479767F04121BFE90047EEF3F
:1030FE00F070087BFF7A2E79DB800A90047EE07BED
:08310E00FF7A2E79F91244FB4F
:013116002296
:103F7B00900411E0601EA3E0601AEF24FE600B04B6
:103F8B007012900417ECF0A3EDF0AF0590041BEC4E
:053F9B00F0A3EFF0228D
:10447D00EF24FE600804700E900417800390041B57
:0A448D00E0FEA3E0FF22E4FEFF22A0
:10434300EF24FE600C047013900419ECF0A3EDF05D
:0C43530022AF0590041DECF0A3EFF02257
:10449700EF24FE600804700E900419800390041D39
:0A44A700E0FEA3E0FF22E4FEFF2286
:1044CA00EF24FE600A047010C28E90041180065315
:0944DA00D1F79004127402F022E3
:1042B600EF24FE600D047014900411E07002D32206
:0D42C600C322900412E07003D38001C322D4
:1041C800EF24FE600E047016900411E0B40102D3CF
:0F41D80022C322900412E0B40103D38001C3225A
:1041E700EF24FE600E047016900411E0B40202D3AF
:0F41F70022C322900412E0B40203D38001C3223A
:10414A00AE071242B64018EF24FE600B047010D27C
:10415A008EE4900411F02243D108E4900412F02274
:0E464C00AE071241C8500512414AD322C322C4
:0946920090040DE0FEA3E0FF22FC
:09469B0090040BE0FEA3E0FF22F5
:0646C70090041FE0FF2239
:0646CD0090040AE0FF2248
:0646D300900410E0FF223C
:0646D90090040FE0FF2237
:03001B00023BE0C5
:103BE000C0E0C0F0C083C082C0D075D000C000C0AB
:103BF00006900413E475F001120CABFED390041888
:103C0000E095F0900417E09E500EC28E900413E4ED
:103C1000F0A3F090041104F0D006D000D0D0D082F0
:073C2000D083D0F0D0E032A8
:03009B00023B988D
:103B9800C0E0C0F0C083C082C0D075D000C000C0F3
:103BA80006900415E475F001120CABFED390041CCA
:103BB800E095F090041BE09E500F53D1F790041548
:103BC800E4F0A3F090041204F0D006D000D0D0D0D6
:083BD80082D083D0F0D0E0326E
:0300A300023552D1
:10355200C0E0C0F0C083C082C0D075D000C000C03F
:1035620006C2AF90040DE475F00A120CABFEC3E57F
:10357200F094E8EE9403405190040DE4F0A3F0902F
:10358200040B75F001120CABFEC3E5F094E8EE9467
:1035920003403690040BE4F0A3F090041FE004F023
:1035A200943C4025E4F090040AE004F0943C401975
:1035B200E4F0900410E004F09418400DE4F090045C
:1035C2000FE004F0B4FF02E4F0D2AFD006D000D096
:0A35D200D0D082D083D0F0D0E032D8
:061BF8007B017A04796E06
:101BFE00AD07EDD3940440037F0122ED7073120BF9
:101C0E00CAFED3940340037F0222C28CC2A9C2B97A
:101C1E005389F0538E7F538FFE900002120BE3B464
:101C2E000102D2A9900001120BE3B40102D2B9EE67
:101C3E004289900003120BE3FF7003438E80EFB4D2
:101C4E000203438904900004120BE3B40103438F93
:101C5E0001900005120CC1E5F0F58C900005120CF8
:101C6E00C1F58A900007120BE3B40102D28C7F00FB
:101C7E0022ED64017076120BCAFEC3940340037FFB
:101C8E000222C28EC2ABC2BB53890F538EBF538F7B
:101C9E00FD900002120BE3B40102D2AB90000112D0
:101CAE000BE3B40102D2BBEEC454F04289900003A0
:101CBE00120BE3FF7003438E40EFB40203438940DF
:101CCE00900004120BE3B40103438F02900005123F
:101CDE000CC1E5F0F58D900005120CC1F58B90004E
:101CEE0007120BE3B40102D28E7F0022ED64027064
:101CFE0063900003120BE3FED3940240037F022293
:101D0E00538EE353AFFB538FFB900002120BE3B4E1
:101D1E00010343AF04EE7003438E04900003120BD5
:101D2E00E3B40203438E08900004120BE3B40103E4
:101D3E00438F04900005120CC1E5F0F5D690000516
:101D4E00120CC1F5D7900007120BE3B40103438EBA
:101D5E00107F0022ED64037060900003120BE3FE0F
:101D6E00D3940240037F022253D1F053AFDF900091
:101D7E0002120BE3B4010343AF20EE700343D10212
:101D8E00900003120BE3B4020343D1069000041239
:101D9E000BE3B4010343D101900005120CC1E5F031
:101DAE00F5D4900005120CC1F5D5900007120BE387
:101DBE00B4010343D1087F0022ED6404705C9000EF
:101DCE0003120BE3FED3940240037F022253D10F82
:101DDE0053AFBF900002120BE3B4010343AF40EECA
:101DEE00700343D120900003120BE3B4020343D1DE
:101DFE0060900004120BE3B4010343D11090000570
:101E0E00120CC1FDACF0ECF5D28DD3900007120B85
:0D1E1E00E3B4010343D1807F00227F022244
:100F20009004BDEBF0A3EAF0A3E9F09004BCEFF06D
:100F30006401600302113290000004F0E4A3F0A306
:100F4000F0A3F0A3F0A3F0A3F09004C0F09004C0CD
:100F5000E0FFC39480501474382FF582E43401F517
:100F600083E4F09004C0E004F080E2E49004C0F078
:100F70009004C0E0FFC394805014741C2FF582E4E9
:100F80003400F583E4F09004C0E004F080E29004C3
:100F9000BDE0FBA3E0FAA3E0F9120BCAD394C04072
:100FA000037F022290000A120BE3B40104D2BC803A
:100FB00002C2BC120BCAFFE598543F4FF598EF648C
:100FC000C06008EF644060030210AC900002120E93
:100FD000487F807E8D7D5B7C00120D849004C11261
:100FE0000EADE4FFFE7D01FC9004C1E0F8A3E0F942
:100FF000A3E0FAA3E0FBC3120E2440037F02229079
:1010000004C1E0F8A3E0F9A3E0FAA3E0FBC3E49B8A
:10101000FFE49AFE740199FDE498FC9004C1120E5D
:10102000AD9004BDE0FBA3E0FAA3E0F9900001124B
:101030000BE3FB64017038C28E538EFE5389BF539D
:1010400089CF438E409004C1E0FCA3E0FDA3E0FE05
:10105000A3E0FF7808120E358F8D9004C1A3A3A3DF
:10106000E0F58BC2AB5389BF538FFDD28E8076EBF8
:1010700064027035538EEF438E01538EF7438E0416
:101080009004C1E0FCA3E0FDA3E0FEA3E0FF78082C
:10109000120E358FD69004C1A3A3A3E0F5D753AFAA
:1010A000FB538EF7438E10803C7F02229004BDE0FC
:1010B000FBA3E0FAA3E0F9120BCAFF70139000083B
:1010C000120BE3B40105438E20801A538EDF801586
:1010D000EFB48011900008120BE3B4010543878040
:1010E000800353877F9004BDE0FBA3E0FAA3E0F9FF
:1010F000900009120BE3B40104D2AC8002C2AC90A0
:101100000007120BE3B40104D29C8002C29C900041
:101110000B120BE354C0FFE5A2543F4FF5A2900021
:101120000C120BE3B4010543971080035397EF7F34
:1011300000229004BCE06402600302129490000755
:101140007402F0E4A3F0A3F0A3F0A3F0A3F0A3F0E3
:101150009004C0F09004C0E0FFC39480501474D495
:101160002FF582E43401F583E4F09004C0E004F04C
:1011700080E2E49004C0F09004C0E0FFC39480508B
:1011800014749C2FF582E43400F583E4F09004C0DD
:10119000E004F080E29004BDE0FBA3E0FAA3E0F9F4
:1011A000120BCAFF64C06008EF644060030212546F
:1011B00090000A120BE3B4010543B501800353B557
:1011C000FE120BCAB4C005439A808003539A7F90E5
:1011D0000002120E487F807E8D7D5B7C00120D84A4
:1011E0009004C1120EADE4FFFE7D01FC9004C1E04D
:1011F000F8A3E0F9A3E0FAA3E0FBC3120E24400336
:101200007F02229004C1E0F8A3E0F9A3E0FAA3E092
:10121000FBC3E49BFFE49AFE740199FDE498FC9003
:1012200004C1120EAD538EEF538EF7438E0490041B
:10123000C1E0FCA3E0FDA3E0FEA3E0FF7808120EEE
:10124000358FD69004C1A3A3A3E0F5D753AFFB43DA
:101250008E1080037F02229004BDE0FBA3E0FAA37E
:10126000E0F9900009120BE3B4010543AF018003DC
:1012700053AFFE900007120BE3B40105439A1080B0
:1012800003539AEF90000B120BE35401FFE5BA549D
:10129000FE4FF5BA9004BCE064036003021447906B
:1012A000000E7402F0E4A3F0A3F0A3F0A3F0A3F007
:1012B000A3F09004C0F09004C0E0FFC3941C50144D
:1012C00074542FF582E43402F583E4F09004C0E016
:1012D00004F080E2E49004C0F09004C0E0FFC39406
:1012E0001C5014741C2FF582E43401F583E4F09053
:1012F00004C0E004F080E29004BDE0FBA3E0FAA3A8
:10130000E0F9120BCAFF64C06008EF64406003029A
:10131000140753ACDFEFB4C00543AC80800353AC7B
:101320007F9004BDE0FBA3E0FAA3E0F99000021275
:101330000E487F807E8D7D5B7C00120D849004C101
:10134000120EADE4FFFE7D01FC9004C1E0F8A3E0C5
:10135000F9A3E0FAA3E0FBC3120E2440037F0222AC
:101360009004C1E0F8A3E0F9A3E0FAA3E0FBC3E432
:101370009BFFE49AFE740199FDE498FC9004C1126D
:101380000EAD9004BDE0FBA3E0FAA3E0F9900001EC
:10139000120BE3FB6402703253ACBF538EEF538EDB
:1013A000F7438E049004C1E0FCA3E0FDA3E0FEA39C
:1013B000E0FF7808120E358FD69004C1A3A3A3E0F6
:1013C000F5D753AFFB438E108040EB64017035437B
:1013D000AC4053D1F053AFDF43D10253D1FB53D1D3
:1013E000FE9004C1E0FCA3E0FDA3E0FEA3E0FF78D3
:1013F00008120E358FD49004C1A3A3A3E0F5D54302
:10140000D10880067F02227F02229004BDE0FBA368
:10141000E0FAA3E0F9900009120BE3B4010543AF31
:1014200008800353AFF7900007120BE3B4010543A4
:10143000AC10800353ACEF90000B120BE35402FF8F
:10144000E5BA54FD0215F79004BCE06404600302A1
:1014500015FD9000157402F0E4A3F0A3F0A3F0A32F
:10146000F0A3F0A3F09004C0F09004C0E0FFC39498
:101470001C501474702FF582E43402F583E4F0906C
:1014800004C0E004F080E2E49004C0F09004C0E006
:10149000FFC3941C501474B82FF582E43401F58313
:1014A000E4F09004C0E004F080E29004BDE0FBA30F
:1014B000E0FAA3E0F9120BCAFF64C06008EF6440D1
:1014C00060030215BA5384DFEFB4C0054384808003
:1014D0000353847F9004BDE0FBA3E0FAA3E0F990FE
:1014E0000002120E487F807E8D7D5B7C00120D8491
:1014F0009004C1120EADE4FFFE7D01FC9004C1E03A
:10150000F8A3E0F9A3E0FAA3E0FBC3120E24400322
:101510007F02229004C1E0F8A3E0F9A3E0FAA3E07F
:10152000FBC3E49BFFE49AFE740199FDE498FC90F0
:1015300004C1120EAD9004BDE0FBA3E0FAA3E0F9F4
:10154000900001120BE3FB640270325384BF538E90
:10155000EF538EF7438E049004C1E0FCA3E0FDA39B
:10156000E0FEA3E0FF7808120E358FD69004C1A3E9
:10157000A3A3E0F5D753AFFB438E108040EB64028A
:10158000703543844053D10F53AFBF43D12053D163
:10159000BF53D1EF9004C1E0FCA3E0FDA3E0FEA3A4
:1015A000E0FF7808120E358FD29004C1A3A3A3E008
:1015B000F5D343D18080067F02227F02229004BDB2
:1015C000E0FBA3E0FAA3E0F9900009120BE3B401F9
:1015D0000543AF10800353AFEF900007120BE3B445
:1015E000010543841080035384EF90000B120BE33A
:0F15F0005404FFE5BA54FB4FF5BA7F00227F0386
:0115FF0022C9
:103F2F00900002E02438F582E43401F583EFF0903D
:103F3F000002E004F0C394804002E4F0900003E03C
:073F4F00700404F0D2992276
:103EB700900009E024D4F582E43401F583EFF09013
:103EC7000009E004F0C394804002E4F090000AE0A7
:083ED700700504F0439A022279
:103EDF00900010E02454F582E43402F583EFF09063
:103EEF000010E004F0C3941C4002E4F0900011E0D5
:083EFF00700504F043AC02223F
:103F0700900017E02470F582E43402F583EFF09017
:103F17000017E004F0C3941C4002E4F0900018E09E
:083F2700700504F0438402223E
:1044FB00C2AF120BCAFF600C123F2F740129F9E4F3
:07450B003AFA80EED2AF2264
:10453900120BCAFF600C123EB7740129F9E43AFA6A
:0345490080EE22DF
:10454C00120BCAFF600C123EDF740129F9E43AFA2F
:03455C0080EE22CC
:10455F00120BCAFF600C123F07740129F9E43AFAF3
:03456F0080EE22B9
:0300230002376B36
:10376B00C0E0C083C082C0D075D000C006C0073097
:10377B00982DC298900006E07025900004E0C39449
:10378B00804002E4F0900004E0FF04F0741C2FF57D
:10379B0082E43400F583E599F09000057405F03070
:1037AB009930C299900002E0FF900001E0FE6F603B
:1037BB001C74382EF582E43401F583E0F599900002
:1037CB0001E004F0C394804009E4F080059000030D
:0F37DB00E4F0D007D006D0D0D082D083D0E03237
:030043000235DCA7
:1035DC00C0E0C083C082C0D075D000C006C007E573
:1035EC009A30E02E539AFE90000DE0702590000B5F
:1035FC00E0C394804002E4F090000BE0FF04F07410
:10360C009C2FF582E43400F583E59BF090000C745C
:10361C0005F0E59A30E131539AFD900009E0FF90F6
:10362C000008E0FE6F601C74D42EF582E43401F5C2
:10363C0083E0F59B900008E004F0C394804009E41B
:10364C00F0800590000AE4F0D007D006D0D0D082EC
:05365C00D083D0E03234
:03008B00023661D9
:10366100C0E0C083C082C0D075D000C006C007E5ED
:10367100AC30E02E53ACFE900014E07025900012A7
:10368100E0C3941C4002E4F0900012E0FF04F074E7
:103691001C2FF582E43401F583E5ADF0900013743D
:1036A10005F0E5AC30E13153ACFD900010E0FF9046
:1036B100000FE0FE6F601C74542EF582E43402F5B5
:1036C10083E0F5AD90000FE004F0C3941C4009E4E1
:1036D100F08005900011E4F0D007D006D0D0D08260
:0536E100D083D0E032AF
:030093000236E64C
:1036E600C0E0C083C082C0D075D000C006C007E568
:1036F6008430E02E5384FE90001BE0702590001964
:10370600E0C3941C4002E4F0900019E0FF04F0745A
:10371600B82FF582E43401F583E585F090001A743C
:1037260005F0E58430E1315384FD900017E0FF9009
:103736000016E0FE6F601C74542EF582E43402F528
:1037460083E0F585900016E004F0C3941C4009E47C
:10375600F08005900018E4F0D007D006D0D0D082D3
:05376600D083D0E03229
:0E465A00E4F5C7F5C5F5C675C3FF75C4FF22AC
:103CAE00AD07AC06C2AF75C78075C501ECF5C3AFE5
:103CBE00058FC475C65A75C6A500E5C2120C100D47
:103CCE00BD00010C740129F9E43AFA9004E174FF85
:0F3CDE00F5F0120CAB45F070D312465AD2AF225C
:10416A00AD07AC06C2AFECF5C3AF058FC475C78007
:10417A0075C50375C65A75C6A50012465AD2AF222E
:103CED00AD07AC06C2AF75C78075C502ECF5C3AFA5
:103CFD00058FC4120BCAF5C275C65A75C6A5000D3F
:103D0D00BD00010C740129F9E43AFA9004E874FF3E
:0F3D1D00F5F0120CAB45F070D312465AD2AF221C
:10080000020BB5E86480F8E933E83360110460F066
:10081000ED33EC337009E8FCE9FDEAFEEBFF22045E
:1008200060DED3EB9FEA9EE99DE8C2E78CF0C2F759
:1008300095F0400CE8CCF8E9CDF9EACEFAEBCFFB25
:10084000120B8085D0F05804700320D5B3E80470F3
:10085000075002B2D5020BBF92D5EC0460F7E4CC8E
:10086000C0E0C398F8603B94186008400DD0E0FBEE
:10087000020B97E4FBFAC9FC8028E830E406E4C9DF
:10088000FBE4CAFCE830E305E4C9CACBFCE8540742
:100890006010F8C3E913F9EA13FAEB13FBEC13FC4D
:1008A000D8F130F52FC3E49CFCEF9BFFEE9AFEEDF0
:1008B00099FDD0E0FBEF4E4D4C701222DB03020B92
:1008C000BCEC2CFCEF33FFEE33FEED33FDED30E7F7
:1008D000EB020B97EF2BFFEE3AFEED39FDD0E0FB7C
:1008E00050130BBB0003020BBFED13FDEE13FEEF25
:0808F00013FFEC13FC020B974F
:1008F800EC4D6011E8497017ED33EC3304600DE4FA
:10090800FCFFFEFD22E933E8330470F8020BB51250
:100918000B8058046009E4CC248150062850090251
:100928000BBF284003020BBCC0E0EB4A7044B980FF
:1009380006D0E0FB020BABEF4E701CBD8008EBFF4E
:10094800EAFEE9FD80EBE98DF0A4FEE5F00209E19D
:10095800E9CDF9EAFEEBFFEF89F0A4FCE5F0CE89DA
:10096800F0A42EFFE435F0CD89F0A42DFEE435F097
:100978008067EF4E7005BD80D780C3EF8BF0A4ACC5
:10098800F0EE8BF0A42CFCE435F0F8EF8AF0A42C00
:10099800E5F038FCE433CB8DF0A42CFCE5F03BF813
:1009A800EE8AF0A42CFCE5F038F8E433CF89F0A403
:1009B8002CFCE5F038CF3400CE89F0A42FFFE5F009
:1009C8003EFEE433C98DF0A42EFEE5F039CD8AF061
:1009D800A42FFFE5F03EFEE43DFD33D0E0FB5007D9
:1009E8000BBB000F020BBFEC2CFCEF33FFEE33FE0A
:0609F800ED33FD020B9738
:1009FE00020BBFEC5D046005E859047003020BB5F1
:100A0E00120B80580460F6EC4860F2EC7004FDFEA8
:100A1E00FF22C860DB2481C85009C39860025006CB
:100A2E00020BBC9850CAF582E9294B4A7005AB827D
:100A3E00020BAB75F0007C1A7880C3EF9BEE9AED3B
:100A4E0099400DC3EF9BFFEE9AFEED99FDE842F043
:100A5E00DC23ACF0D0E0FFD0E0FED0E0FDAB822096
:100A6E00E7101BEB60BAEC2CFCEF33FFEE33FEED20
:100A7E0033FD020B97E803F830E705C0F075F00080
:100A8E00EF2FFFEE33FEED33FD40B830E7C280AA04
:100A9E0074F8CC6480CCC86480C8F582046043C30B
:100AAE00EB9FF5F0EA9E42F0E99D42F0E89C45F09E
:100ABE0060305018E5825FFFE582F42B5582FB50C3
:100ACE00210ABA001D09B90019088016E5825BFBE0
:100ADE00E582F42F5582FF50090EBE00050DBD00B4
:100AEE00010CC3EB9FF5F0EA9E42F0E99D42F0E85F
:0D0AFE009C45F06007CC4820E701B3EC22D6
:100B0B0075F020800E75F010800575F0087D007E65
:100B1B00007F003392D530D503120E16EC33401004
:100B2B00EF33FFEE33FEED33FDEC33FCD5F0ED226E
:0E0B3B00E5F0247EA2D513CC92E7CDCEFF22AA
:100B4900EDD2E7CD33EC3392D524814006E4FFFEA4
:100B5900FDFC22FCE4CFCECDCC24E0501174FF8003
:100B6900EDC3CC13CCCD13CDCE13CECF13CF0470A0
:070B7900F030D5DE020E167C
:100B8000E9D2E7C933E833F892D5EDD2E7CD33ECBB
:070B900033FC5002B2D52234
:100B9700EC30E7100FBF000C0EBE00080DBD0004BF
:100BA7000BEB6014A2D5EB13FCED92E7FD2274FF6B
:100BB700FCFDFEFF22E480F8A2D574FF13FC7D80C4
:030BC700E480EFD8
:030000000234C601
:0C34C600787FE4F6D8FD75812102350DF9
:100BCA00BB010689828A83E0225002E722BBFE0229
:090BDA00E32289828A83E493225C
:100BE300BB010CE58229F582E5833AF583E02250C7
:100BF30006E92582F8E622BBFE06E92582F8E22211
:0D0C0300E58229F582E5833AF583E493222A
:100C1000BB010689828A83F0225002F722BBFE01C3
:020C2000F322BD
:100C2200F8BB010DE58229F582E5833AF583E8F008
:100C3200225006E92582C8F622BBFE05E92582C8B4
:020C4200F2229C
:100C4400EF8DF0A4A8F0CF8CF0A428CE8DF0A42EC4
:020C5400FE227E
:100C5600BC000BBE0029EF8DF084FFADF022E4CC82
:100C6600F875F008EF2FFFEE33FEEC33FCEE9DEC4B
:100C7600984005FCEE9DFE0FD5F0E9E4CEFD22ED91
:100C8600F8F5F0EE8420D21CFEADF075F008EF2FDB
:100C9600FFED33FD4007985006D5F0F222C398FDCC
:050CA6000FD5F0EA2269
:100CAB00C5F0F8A3E028F0C5F0F8E58215827002D4
:060CBB001583E038F02271
:100CC100BB0110E58229F582E5833AF583E0F5F071
:100CD100A3E0225009E92582F886F008E622BBFE4E
:100CE1000AE92582F8E2F5F008E222E5832AF58394
:080CF100E993F5F0A3E9932259
:100CF900E88FF0A4CC8BF0A42CFCE98EF0A42CFC9A
:100D09008AF0EDA42CFCEA8EF0A4CDA8F08BF0A417
:100D19002DCC3825F0FDE98FF0A42CCD35F0FCEB76
:100D29008EF0A4FEA9F0EB8FF0A4CFC5F02ECD393B
:0F0D3900FEE43CFCEAA42DCE35F0FDE43CFC22A8
:100D480075F008758200EF2FFFEE33FECD33CDCC62
:100D580033CCC58233C5829BED9AEC99E5829840E5
:100D68000CF582EE9BFEED9AFDEC99FC0FD5F0D6C2
:100D7800E4CEFBE4CDFAE4CCF9A88222B800C1B9EC
:100D88000059BA002DEC8BF084CFCECDFCE5F0CB2A
:100D9800F97818EF2FFFEE33FEED33FDEC33FCEB63
:100DA80033FB10D703994004EB99FB0FD8E5E4F91E
:100DB800FA227818EF2FFFEE33FEED33FDEC33FC0B
:100DC800C933C910D7059BE99A4007EC9BFCE99AFF
:100DD800F90FD8E0E4C9FAE4CCFB2275F010EF2F44
:100DE800FFEE33FEED33FDCC33CCC833C810D70744
:100DF8009BEC9AE899400AED9BFDEC9AFCE899F87F
:0E0E08000FD5F0DAE4CDFBE4CCFAE4C8F92211
:103C2700C2D5E830E70FB2D5E4C39BFBE49AFAE4C8
:103C370099F9E498F8EC30E717B2D5123C5D120D0C
:103C470084E4C39BFBE49AFAE499F9E498F88003C7
:103C5700120D8430D50DE4C39FFFE49EFEE49DFD65
:043C6700E49CFC22BB
:0E0E1600C3E49FFFE49EFEE49DFDE49CFC22ED
:100E2400EB9FF5F0EA9E42F0E99D42F0E89C45F024
:010E3400229B
:100E3500E8600FECC313FCED13FDEE13FEEF13FF9B
:030E4500D8F122BF
:100E4800BB010DE58229F582E5833AF583020EF7A9
:100E58005007E92582F8020EEABBFE07E92582F869
:100E6800020F03E58229F582E5833AF583020F1024
:100E78007401FF3395E0FEFDFCA3A3A3E0CF2FF0A0
:100E8800E582158270021583E0CE3EF0E582158278
:100E980070021583E0CD3DF0E5821582700215835E
:050EA800E0CC3CF0224B
:0C0EAD00ECF0A3EDF0A3EEF0A3EFF022B8
:100EB900A8828583F0D083D082120ED0120ED01270
:100EC9000ED0120ED0E473E493A3C583C5F0C58395
:100ED900C8C582C8F0A3C583C5F0C583C8C582C883
:010EE90022E6
:1034D200022671E493A3F8E493A34003F68001F279
:1034E20008DFF48029E493A3F85407240CC8C333FB
:1034F200C4540F4420C8834004F456800146F6DFCA
:10350200E4800B01020408102040809032FDE47E2A
:10351200019360BCA3FF543F30E509541FFEE493BE
:10352200A360010ECF54C025E060A840B8E493A385
:10353200FAE493A3F8E493A3C8C582C8CAC583CAB0
:10354200F0A3C8C582C8CAC583CADFE9DEE780BE68
:013399000033
:0D0EEA00E6FB08E6F908E6FA08E6CBF82278
:0C0EF700E0F8A3E0F9A3E0FAA3E0FB227E
:0D0F0300E2FB08E2F908E2FA08E2CBF8226E
:100F1000E493F8740193F9740293FA740393FB2237
:00000001FF
