:02668200637C37
:0266840056DEE0
:02668600529030
:10637C00125D2F7F04125DE97F011229827F0212C8
:07638C002982E4FF022A0B45
:1056DE00E4FDFF125A8B90036B7401F0123D697D4D
:1056EE0001E4FF125A8B90036B7402F0123D697D38
:1056FE0002E4FF125A8B90036B7403F0123D697F24
:10570E0003125ABDE4FBFA7D1E7F02122A9480C05A
:10529000E4FDFF125A8B120B49AB07AA0690037A62
:1052A0007404F0E4FDFF1259087D01E4FF125A8BEB
:1052B000120B49AB07AA0690037A7404F07D01E44F
:1052C000FF1259087D02E4FF125A8B120B49AB07FB
:1052D000AA0690037A7404F07D02E4FF125908E4F0
:0B52E000FBFA7D1E7F02122A9480A5BD
:105B7800535443313577346B353873342773205594
:105B880041525431206973206F70656E200D0A00F0
:0A5B98003132330A003334350A00BD
:105A21009003337440F0A37401F0A3121076900335
:105A31003A7401F0E4A3F0A304F0A3F0E4A3F0A30B
:105A4100F07B017A0379337F011211417BFF7A5B8D
:055A5100797802639367
:105A56007DE87C037F01125BA27F011263AA7F01AE
:105A660012600E40107F011265C97BFF7A5B799840
:105A760012639380E97BFF7A5B799D1263937F3291
:055A860012654A80D901
:105D2F007F807E257D007C00125A211251D1125B9B
:105D3F00CB12569BE4FF1258CDE4FF12646AE4FFC6
:065D4F0012647C025A56AA
:0166CB0022AC
:0166CC0022AB
:0166CD0022AA
:0166CE0022A9
:0166CF0022A8
:053C33009005D9EDF041
:103C3800E49005E0F0A3F09005DCE0FFA3E0900538
:103C4800E2CFF0A3EFF09005DAE0FFA3E09005E4FF
:103C5800CFF0A3EFF0E49005DEF0A3F09005D9E0F3
:103C6800FF9005DEE0FCA3E0FDC39F7480F8EC64E0
:103C780080984003023D2DED25E0FFEC338F82F55F
:103C880083120EBFFFC39005E3E09F9005E2E09525
:103C9800F0501D9005DFE025E0FF9005DEE0338F52
:103CA80082F583120EBFFF9005E2E5F0F0A3EFF076
:103CB8009005DFE025E0FF9005DEE0338F82F58395
:103CC800120EBFFFD39005E5E09F9005E4E095F064
:103CD800401D9005DFE025E0FF9005DEE0338F8290
:103CE800F583120EBFFF9005E4E5F0F0A3EFF09026
:103CF80005DFE025E0FF9005DEE0338F82F58312D3
:103D08000EBFFFAEF09005E1E02FF09005E0E03E39
:103D1800F09005DFE004F06003023C649005DEE00B
:103D280004F0023C649005E4E0FEA3E0FF9005E3A4
:103D3800E02FFF9005E2E03EFEC39005E1E09FFF23
:103D48009005E0E09EFEF0A3EFF09005D9E024FE98
:103D5800FDE434FFFC120E089005E0EEF0A3EFF04E
:013D68002238
:06385E009004DC1210765C
:103864009004E4E0FCA3E0FDA3E0FEA3E0FF9004E9
:10387400EC1210769004E0E0FCA3E0FDA3E0FEA3CC
:10388400E0FF9004F0121076900624E0FCA3E0FD23
:10389400A3E0FEA3E0FF9004F4121076900624E067
:1038A400FCA3E0FDA3E0FEA3E0FF9004F412107675
:1038B4009004F0E0FCA3E0FDA3E0FEA3E0FF90068B
:1038C40028E0F8A3E0F9A3E0FAA3E0FB12080790CC
:1038D40004FC1210769004ECE0FCA3E0FDA3E0FEEF
:1038E400A3E0FF9004FCE0F8A3E0F9A3E0FAA3E06E
:1038F400FB120807A804A905AA06AB079004FCE07C
:10390400FCA3E0FDA3E0FEA3E0FF120A0190050082
:103914001210769004F4E0F8A3E0F9A3E0FAA3E02F
:10392400FB9004DCE0FCA3E0FDA3E0FEA3E0FF12B7
:103934000803900500E0F8A3E0F9A3E0FAA3E0FB94
:103944001208F89004F4E0F8A3E0F9A3E0FAA3E085
:10395400FB1208079004F8121076900500E0F8A313
:10396400E0F9A3E0FAA3E0FBE4FFFE7D807C3F12D4
:1039740008039004FCE0F8A3E0F9A3E0FAA3E0FB59
:103984001208F89006281210769004F8E0FCA3E0E0
:10399400FDA3E0FEA3E0FF9006241210769004F845
:0B39A400E0FCA3E0FDA3E0FEA3E0FFB9
:0139AF0022F5
:1039B000AB07EB75F03DA424BAF582E43403F5833C
:1039C00012108200000000EB75F03DA424BEF582C9
:1039D000E43403F58312108200000000EB75F03D23
:1039E000A424C2F582E43403F5831210820000009F
:1039F00000EB75F03DA424D6F582E43403F5831280
:103A0000108200000000EB75F03DA424D2F582E4A2
:103A10003403F58312108200000000900604E0FCDD
:103A2000A3E0FDA3E0FEA3E0FFEB75F03DA424C6F8
:103A3000F582E43403F583121076900608E0FCA3C7
:103A4000E0FDA3E0FEA3E0FFEB75F03DA424CAF582
:103A500082E43403F58312107690060CE0FCA3E0B8
:103A6000FDA3E0FEA3E0FFEB75F03DA424CEF582BC
:103A7000E43403F583121076EB75F03DA424C6F50B
:103A800082E43403F583E0FCA3E0FDA3E0FEA3E0C1
:103A9000FFEB75F03DA424DEF582E43403F58312D8
:103AA0001076EB75F03DA424CAF582E43403F58367
:103AB000E0FCA3E0FDA3E0FEA3E0FFEB75F03DA476
:103AC00024DAF582E43403F583121076EB75F03DC9
:103AD000A424CEF582E43403F583E0FCA3E0FDA347
:103AE000E0FEA3E0FFEB75F03DA424E2F582E434B0
:063AF00003F583021076CD
:10644600EF75F03DA424EEF582E43403F583740180
:02645600F02232
:1064B200EF75F03DA424EEF582E43403F583E4F0B5
:0164C20022B7
:102FAF009006D0EFF075F03DA424EEF582E43403E3
:102FBF00F583E070030231889006D0E0FF75F03D95
:102FCF00A424B6F582E43403F583E0F8A3E0F9A373
:102FDF00E0FAA3E0FBEF75F03DA424B2F582E434F0
:102FEF0003F583E0FCA3E0FDA3E0FEA3E0FF1208DE
:102FFF00039006D0E0FB75F03DA424BAF582E434CB
:10300F0003F583121076EB75F03DA424D2F582E41C
:10301F003403F583C083C082E0FCA3E0FDA3E0FE90
:10302F00A3E0FF9006D0E075F03DA424BAF582E44A
:10303F003403F583E0F8A3E0F9A3E0FAA3E0FB1271
:10304F000807D082D0831210769006D0E0FF75F07B
:10305F003DA424D2F582E43403F583E0F8A3E0F92C
:10306F00A3E0FAA3E0FBEF75F03DA424CAF582E4D8
:10307F003403F583E0FCA3E0FDA3E0FEA3E0FF1221
:10308F0008F8C004C005C006C0079006D0E0FF7561
:10309F00F03DA424BAF582E43403F583E0F8A3E00D
:1030AF00F9A3E0FAA3E0FBEF75F03DA424C6F58287
:1030BF00E43403F583E0FCA3E0FDA3E0FEA3E0FF0F
:1030CF001208F8D003D002D001D000120807C004B4
:1030DF00C005C006C0079006D0E0FF75F03DA424E0
:1030EF00BEF582E43403F583E0F8A3E0F9A3E0FA38
:1030FF00A3E0FBEF75F03DA424BAF582E43403F5A9
:10310F0083E0FCA3E0FDA3E0FEA3E0FF1208039021
:10311F0006D0E075F03DA424CEF582E43403F583A8
:10312F00E0F8A3E0F9A3E0FAA3E0FB1208F8D0035C
:10313F00D002D001D0001208079006D0E0FB75F046
:10314F003DA424D6F582E43403F583121076EB7593
:10315F00F03DA424BAF582E43403F583E0FCA3E048
:10316F00FDA3E0FEA3E0FFEB75F03DA424BEF582C6
:0A317F00E43403F583121076D32226
:1036C0009006D1EFF075F03DA424EEF582E43403CA
:1036D000F583E0700302385D9006D1E0FF75F03DA0
:1036E000A424B6F582E43403F583E0F8A3E0F9A35B
:1036F000E0FAA3E0FBEF75F03DA424B2F582E434D8
:1037000003F583E0FCA3E0FDA3E0FEA3E0FF1208C5
:10371000039006D1E0FB75F03DA424BAF582E434B1
:1037200003F583121076EB75F03DA424BEF582E418
:103730003403F583E0FCA3E0FDA3E0FEA3E0FFEB90
:1037400075F03DA424CAF582E43403F583E0F8A3C0
:10375000E0F9A3E0FAA3E0FB1208F8C004C005C03A
:1037600006C0079006D1E0FF75F03DA424BAF582AB
:10377000E43403F583E0F8A3E0F9A3E0FAA3E0FB67
:10378000EF75F03DA424C6F582E43403F583E0FC34
:10379000A3E0FDA3E0FEA3E0FF1208F8D003D002EF
:1037A000D001D000120803C004C005C006C00790B5
:1037B00006D1E0FF75F03DA424C2F582E43403F5A0
:1037C00083E0F8A3E0F9A3E0FAA3E0FBEF75F03D96
:1037D000A424CEF582E43403F583E0FCA3E0FDA34A
:1037E000E0FEA3E0FF1208F8D003D002D001D00021
:1037F0001208079006D1E0FB75F03DA424D6F582AF
:10380000E43403F583121076EB75F03DA424BEF585
:1038100082E43403F583E0FCA3E0FDA3E0FEA3E033
:10382000FFEB75F03DA424C2F582E43403F5831266
:103830001076EB75F03DA424BAF582E43403F583E9
:10384000E0FCA3E0FDA3E0FEA3E0FFEB75F03DA4E8
:0E38500024BEF582E43403F583121076D322F1
:105E0B00AB07900670E0FCA3E0FDA3E0FEA3E0FF70
:105E1B00EB75F03DA424EAF582E43403F58302101C
:015E2B007600
:105E2C00AB07900675E0FCA3E0FDA3E0FEA3E0FF4A
:105E3C00EB75F03DA424E6F582E43403F5830210FF
:015E4C0076DF
:105E4D00AB0790067AE0FCA3E0FDA3E0FEA3E0FF24
:105E5D00EB75F03DA424B6F582E43403F58302100E
:015E6D0076BE
:105E6E00AB0790067FE0FCA3E0FDA3E0FEA3E0FFFE
:105E7E00EB75F03DA424CAF582E43403F5830210D9
:015E8E00769D
:105E8F00AB07900684E0FCA3E0FDA3E0FEA3E0FFD8
:105E9F00EB75F03DA424C6F582E43403F5830210BC
:015EAF00767C
:105EB000AB07900689E0FCA3E0FDA3E0FEA3E0FFB2
:105EC000EB75F03DA424CEF582E43403F583021093
:015ED000765B
:105ED100AB0790068EE0FCA3E0FDA3E0FEA3E0FF8C
:105EE100EB75F03DA424B2F582E43403F58302108E
:015EF100763A
:1061F800EF75F03DA424B2F582E43403F583E0FCA6
:0A620800A3E0FDA3E0FEA3E0FF22E7
:10621200EF75F03DA424BAF582E43403F583E0FC83
:0A622200A3E0FDA3E0FEA3E0FF22CD
:10622C00EF75F03DA424BEF582E43403F583E0FC65
:0A623C00A3E0FDA3E0FEA3E0FF22B3
:10624600EF75F03DA424C6F582E43403F583E0FC43
:0A625600A3E0FDA3E0FEA3E0FF2299
:10626000EF75F03DA424CAF582E43403F583E0FC25
:0A627000A3E0FDA3E0FEA3E0FF227F
:10627A00EF75F03DA424CEF582E43403F583E0FC07
:0A628A00A3E0FDA3E0FEA3E0FF2265
:10629400EF75F03DA424D6F582E43403F583E0FCE5
:0A62A400A3E0FDA3E0FEA3E0FF224B
:1062AE00EF75F03DA424D2F582E43403F583E0FCCF
:0A62BE00A3E0FDA3E0FEA3E0FF2231
:104A0700602A04B20000000000000000000000005F
:104A1700000000000000000000000000000000008F
:0E4A2700000000000000000000000000000081
:10477600900373EBF0A3EAF0A3E9F0900003120DA7
:1047860095FF90036FE0FBA3E0FAA3E0F9A3E0FE38
:10479600F582758300EF120DD4900373E0FBA3E05E
:1047A600FAA3E0F9900002120D95FFEE2401FDE454
:1047B60033FC90036FE0FBA3E0FAA3E0F98D828C53
:1047C60083EF120DD4900373E0FBA3E0FAA3E0F9A4
:1047D600900001120D95FFEE2402FDE433FC9003D8
:1047E6006FE0FBA3E0FAA3E0F98D828C83EF120D54
:1047F600D4900373E0FBA3E0FAA3E0F9120D7CFF6B
:10480600EE2403FDE433FC90036FE0FBA3E0FAA380
:0A481600E0F98D828C83EF020DD4CF
:055ABD00900367EFF00B
:105AC200E4A3F0900367E0FF124820900368E0FE31
:105AD200C39F501774B22EF582E43404F583E0FFBD
:0B5AE200125CE1900368E004F080D843
:015AED002296
:103D690090036712107690036BE0FFD3940A400327
:103D7900023E9CEF7003023E9CEF14B40A0040031C
:103D8900023E9C903D9A75F003A4C58325F0C58336
:103D990073023DB8023DCE023DE5023DFC023E13F1
:103DA900023E29023E3F023E55023E6B023E819091
:103DB900036F7401F0A37404F0A374B2F0A3740147
:103DC900F0FB023E9590036F7401F0A37404F0A315
:103DD90074B2F0A37405F07B01023E9590036F74F1
:103DE90001F0A37404F0A374B2F0A37409F07B0189
:103DF900023E9590036F7401F0A37404F0A374B2AA
:103E0900F0A3740DF07B01023E9590036F7401F0ED
:103E1900A37404F0A374B2F0A37411F07B01806C55
:103E290090036F7401F0A37404F0A374B2F0A37447
:103E390015F07B01805690036F7401F0A37404F0B0
:103E4900A374B2F0A37419F07B01804090036F74DE
:103E590001F0A37404F0A374B2F0A3741DF07B0104
:103E6900802A90036F7401F0A37404F0A374B2F074
:103E7900A37421F07B01801490036F7401F0A37483
:103E890004F0A374B2F0A37425F07B017A03796777
:043E99001247762234
:10482000EFD3940A5003EF70037F00229004B27418
:1048300024F0EF14B40A0040030248C290484A75BD
:10484000F003A4C58325F0C583730248680248714C
:1048500002487A02488302488C02489502489E0228
:1048600048A70248B00248B99004B77405F07F0623
:10487000229004BB7409F07F0A229004BF740DF0EB
:104880007F0E229004C37411F07F12229004C7742B
:1048900015F07F16229004CB7419F07F1A22900431
:1048A000CF741DF07F1E229004D37421F07F22224A
:1048B0009004D77425F07F26229004DB7429F07FC2
:0548C0002A227F002206
:03000B0002287058
:10286B00C2AF80FE3212286F85D00B75D008AAE05C
:10287B00C28CE58A2443F58AE58C34F6F58CD28C30
:10288B00EC2464F8E6BC020274FFC39581B4140017
:10289B0040CE7903781A16E608700BC2AFE630E12A
:1028AB00034418F6D2AF08D9EDEA8BD022E50CFF22
:1028BB0023241BF80F0808BF03047F00781BE630A6
:1028CB00E4F200E50CC39F5020050C7463250CF853
:1028DB00E6FDA68108E6AE0CBE020274FFCDF8E859
:1028EB006D60E008E6C0E080F6E50CD39F4027E57D
:1028FB000C2464F8E6AE0CBE020274FFFD18E6CDA4
:10290B00F8E5816D6006D0E0F61880F5E50C2463E0
:10291B00C8F6150C80D3E50C23241BF87F04C2AF3B
:10292B00E630E00310E20C7F0030E10730E3047F78
:10293B000854F4547CC6D2AF54804207227863A665
:10294B008174026006FF0876FFDFFB7F03E4781AD1
:10295B00F608F608DFFA781B7630906682740193DE
:10296B00C0E0E493C0E0438901758A3C758CF6D2D4
:07297B008CD2AFD2A92202A9
:084A3500C109C10AC10BC10C4B
:105F73009006C17478F0E49006C0F07B017A06794C
:0E5F8300C07F0212335DD2A3D2A4D2A5D2A653
:015F910022ED
:0A65ED00EF4E7005EE4F24FFB322BD
:1060A600EF24F0600F24F0600E24E0600D243870B9
:0D60B6000BA20922A20A22A20B22A20C2298
:10534600A2A3E4FE33FF1265ED500EA2A3E433FFE1
:105356001265ED5006D2098002C209A2A4E4FE330A
:10536600FF1265ED5007200A06D20A8002C20AA281
:10537600A5E4FE33FF1265ED5007200B06D20B8025
:1053860002C20BA2A6E4FE33FF1265ED5006200C06
:0753960005D20C22C20C221B
:102AF30020252034640020252034660000000000D7
:102B030000000000004F0000000007000700001451
:102B13007F147F1400242A7F2A120023130864627F
:102B230000364955225000000503000000001C2216
:102B33004100000041221C000014083E0814000854
:102B4300083E080800005030000000080808080884
:102B5300000060600000002010080402003E51499C
:102B6300453E0000427F400000426151494600213A
:102B730041454B31001814127F1000274545453954
:102B8300003C4A49493000017109050300364949AF
:102B9300493600064949291E000036360000000068
:102BA30056360000000814224100001414141414B3
:102BB300000041221408000201510906003249793C
:102BC300413E007E1111117E007F4949493E003E7E
:102BD30041414122007F4141221C007F4949494133
:102BE300007F09090901003E4149497A007F08082D
:102BF300087F0000417F4100002040413F01007FEA
:102C030008142241007F40404040007F0204027FBD
:102C1300007F0408107F003E4141413E007F0909C7
:102C23000906003E4151215E007F091929460046ED
:102C3300494949310001017F0101003F4040403FC4
:102C4300001F2040201F003F4038403F006314080E
:102C530014630003047804030061514945430000F1
:102C63007F4141000015167C1615000041417F008D
:102C73000004020102040040404040400000010201
:102C83000400002054545478007F484444380038EA
:102C93004444442000384444487F00385454541872
:102CA30000087E090102000C5252523E007F0804C4
:102CB30004780000447D4000002040443D00007F34
:102CC300102844000000417F4000007E020C027C7B
:102CD300007E0402027C003844444438007C14140F
:102CE300140800081414187C007C08040408004825
:102CF3005454542000043F444020003C4040207C76
:102D0300001C2040201C003C4030403C0044281064
:102D13002844000C5050503C004464544C44000080
:102D2300083641000000007F000000004136080023
:102D33000008040810080008082A1C0800081C2AB8
:102D430008080004027F02040010207F2010001CEA
:0A2D53002A322A1C001C2244221C14
:105F1300C2CBED24FF92CA7E08EF30E704D2C980DA
:0F5F230002C2C9C2C8EF25E0FFD2C8DEECD2CB64
:015F3200224C
:105EF200E4FD7F80125F137F40125F137BF87A010B
:105F02007D01E4FF125F13EB1B70011AEB4A70F084
:015F1200226C
:1063E700AD07E4FF1263BF7C547D01E4FF125F1326
:0263F700DCF7D1
:0163F9002281
:1063BF00AC05EF4480FFEC4440FCE4FD125F13AFEB
:0463CF0004025F1352
:0757DC00E0FF04F0A3E0FD73
:1057E30074E02BFBEF75F006A4FF1263BFE4FC75B6
:1057F300F006EBA424FFF582E5F0342AF583E58275
:105803002CF582E43583F583E493FF7D01125F1366
:055813000CECB406DA04
:01581800226D
:10589200900692EFF0A3EDF0A3EBF0A3EAF0A3E9F8
:1058A200F0900694E0FBA3E0FAA3E0F9120D7CFB72
:1058B2006018900692E0C3940E500F1257DC9006C7
:0B58C20095E475F001120E9380D722D0
:1054EC00900382EFF0A3EDF0A3EBF0A3EAF0A3E9B5
:1054FC00F0900384E0FBA3E0FAA3E0F9120D7CFB2F
:10550C0060289003821257DC900385E475F0011239
:10551C000E93900382E0B40E06E4F0A3E004F09046
:0B552C000383E0B406CBE4F080C7224C
:0C590800900376EFF0A3EDF0AF03AE02C9
:1059140090038574FFF0A3742AF0A374F3F0A3EE4C
:10592400F0A3EFF07B017A03797B121D20900376BC
:0E593400E0FFA3E0FD7B017A03797B0254ECD7
:085613009005E6EFF0A3EDF0B5
:10561B0090038574FFF0A3742AF0A374F9F090053E
:10562B00E8E0FCA3E0FDA3E0FEA3E0FF90038812FB
:10563B0010767B017A0579EE121D209005E6E0FFCE
:0C564B00A3E0FD7B017A0579EE0254EC2F
:10569B00E4900333F0A304F0FB7A0379337F051214
:1056AB00335DC2CCD2CCE4FD7F21125F137F061297
:1056BB005F137F13125F137FC8125F137F20125F7C
:1056CB00137F0C125F137F40125F137F80125F13E7
:0356DB00025EF27A
:024A3D00C112A4
:105BCB009003347405F0E4900333F07B017A03798E
:105BDB00337F0512335D1266B27FC812654A1266B7
:075BEB00B77FC812654AD321
:015BF2002290
:0566B200C2CDD212224E
:0566B700D2CDC2122249
:105DE900900333EFF0900333E0FF14F0EF601212E9
:105DF90066B27FC812654A1266B77FC812654A80C3
:025E0900E42291
:0366C500A21222FC
:066688009006D2EFF022A3
:104C6C00900697EFF07F337E337D737C3FA3E0F8A3
:104C7C00A3E0F9A3E0FAA3E0FB120A9E600C400A41
:104C8C009006981210823F7333337FCD7ECC7D4CCF
:104C9C007C3D900698E0F8A3E0F9A3E0FAA3E0FBD2
:104CAC00120A9E500A9006981210823D4CCCCD9060
:104CBC000697E02404FFC007A3E0FCA3E0FDA3E0FB
:104CCC00FEA3E0FF90069D121076D0071242F790DB
:104CDC000698E0FCA3E0FDA3E0FEA3E0FF120B4965
:104CEC00900697E025E024A2F582E43406F583EFE4
:024CFC00F022A4
:10604C009006D3EFF02404FF125BF39006D3E02507
:0E605C00E024A1F582E43406F5837401F022FD
:1060C3009006D4EFF02404FF125DA09006D4E025DF
:0D60D300E024A1F582E43406F583E4F02218
:10653A00EF25E024A1F582E43406F583E024FF2266
:1050A000E49005C4F0A37408F07B017A0579C47F0D
:1050B0000212335D9005C57404F07B017A0579C452
:1050C0007F0212335DD2A2D2A343BA80E49005C618
:1050D000F0A3F0A3F0A304F0E4A3F0A3F0A3F0A3E3
:1050E000F0A3F0A3F0A3F0A3F0A3F0A3F0A3F0A328
:1050F000F07B017A0579C67F0212213E7B017A0599
:0A51000079C67F0312213E53BA7FE7
:01510A002282
:05318900900504EFF0C9
:10318E00E4900513F0A37480F07B017A0579137F28
:10319E000312335DD2B743BA80E4900515F0A3F065
:1031AE00A3F0A304F0E4A3F0A3F0A3F0A3F0A3F024
:1031BE00A3F0A3740FF0E4A3F0A3F0A3F0A3F0A385
:1031CE00F0900504E0FF7B017A05791512213E533C
:1031DE00BA7F900504E0FF7D10126507900504E0AC
:1031EE00FF7D327C00125170900505E0FCA3E0FDDE
:1031FE00A3E0FEA3E0FF900504E0FB75F025A424F8
:10320E0031F582E43404F583121076900509E0FC62
:10321E00A3E0FDA3E0FEA3E0FFEB75F025A42435AB
:10322E00F582E43404F58312107690050DE0FCA3CC
:10323E00E0FDA3E0FEA3E0FFEB75F025A42443F52B
:10324E0082E43404F583121076900511E0FEA3E0BB
:10325E00FFEB75F025A4243DF582E43404F583EEEE
:10326E00F0A3EFF0EB75F025A42431F582E43404DD
:10327E00F583E0F8A3E0F9A3E0FAA3E0FB900504E0
:10328E00E075F025A42435F582E43404F583E0FCE2
:10329E00A3E0FDA3E0FEA3E0FF120803C004C005F7
:1032AE00C006C007900504E075F025A4243DF58204
:1032BE00E43404F583E0FCA3E0FDE4120B10A80453
:1032CE00A905AA06AB07D007D006D005D004120A6E
:1032DE0001900504E0FB75F025A42439F582E43451
:1032EE0004F583121076EB75F025A4243DF582E4E7
:1032FE003404F583E0FCA3E0FDE4120B10A804A94E
:10330E0005AA06AB07900504E075F025A42443F545
:10331E0082E43404F583E0FCA3E0FDA3E0FEA3E029
:10332E00FF120A01900504E0FB75F025A42447F571
:10333E0082E43404F583121076EB75F025A4243F55
:0E334E00F582E43404F58312108200000000C2
:01335C00224E
:0540F50090061BEFF036
:1040FA00A3E0FCA3E0FDA3E0FEA3E0FF90061BE023
:10410A00FB75F025A4242CF582E43404F5831210FF
:10411A0076EB75F025A42447F582E43404F583E0B0
:10412A00F8A3E0F9A3E0FAA3E0FB90061CE0FCA3E5
:10413A00E0FDA3E0FEA3E0FF120A0190061BE07572
:10414A00F025A42439F582E43404F583E0F8A3E0E9
:10415A00F9A3E0FAA3E0FB1208F890061BE075F059
:10416A0025A42431F582E43404F583E0F8A3E0F9C8
:10417A00A3E0FAA3E0FB12080790061BE0FB75F028
:10418A0025A4244DF582E43404F583121076EB75E8
:10419A00F025A4244DF582E43404F583E0FCA3E081
:1041AA00FDA3E0FEA3E0FFE4FBFA79A07841120A3E
:1041BA0001900620121076900620E0FCA3E0FDA3F1
:1041CA00E0FEA3E0FF90069D12107690061BE0FF2A
:1041DA001242F790061BE0FB75F025A4242CF58209
:1041EA00E43404F583E0FCA3E0FDA3E0FEA3E0FFD2
:1041FA00EB75F025A4243FF582E43404F58302101C
:01420A00763D
:1062C800EF75F025A4243FF582E43404F583E0FC5F
:0A62D800A3E0FDA3E0FEA3E0FF2217
:105F33009006D5EFF0125BF39006D5E075F025A43B
:105F4300244BF582E43404F583E4F0A304F0D32274
:105F92009006D6EFF0125DA09006D6E075F025A42B
:0F5FA200244BF582E43404F583E4F0A3F0D3221A
:105D7B00C007900635E0FCA3E0FDA3E0FEA3E0FF27
:105D8B00900613121076900639E0FCA3E0FDD007C5
:055D9B0012420BD322AF
:1043DB0090063BEFF0C007E4FFFE7DB47C43A3E007
:1043EB00F8A3E0F9A3E0FAA3E0FB1208F8C004C0BD
:1043FB0005C006C00790063BE075F00EA4242AF515
:10440B0082E43405F583E0FCE4120B15D003D002F3
:10441B00D001D0001208F8C004C005C006C0079038
:10442B00063BE075F00EA4242EF582E43405F583EB
:10443B00E0FCA3E0FDA3E0FEA3E0FF7B567A0E7940
:10444B004978401208F890063BE075F00EA424263C
:10445B00F582E43405F583E0F8A3E0F9A3E0FAA3D1
:10446B00E0FB1208F8A804A905AA06AB07D007D0F1
:10447B0006D005D004120A01120B49900635121012
:10448B0076900640E0FFA3E0900639CFF0A3EFF063
:07449B00D007125D7BD32264
:10510B00900642EFF0E0FEFFC00775F00EA4242AD4
:10511B00F582E43405F583E0FCE4120B15900643AD
:10512B00E0F8A3E0F9A3E0FAA3E0FB1208F890067D
:10513B0042E075F00EA42426F582E43405F583E0F5
:10514B00F8A3E0F9A3E0FAA3E0FB120A01120B4962
:10515B00900613121076900647E0FCA3E0FDD007F3
:05516B0012420BD322EB
:10597C009006C2EAF0A3EBF0C007AE04AF057C01C1
:10598C007D68120DF6AC06AD07E4120B10900643C1
:10599C001210769006C2E0FFA3E0900647CFF0A36A
:0959AC00EFF0D00712510BD322D9
:0F655A00EF7006900532EDF022900540EDF02233
:1064C300EF75F00EA42432F582E43405F583E0FF82
:0164D30022A6
:1061A700EF7009201304C2A78002D2A7EFB4010938
:0B61B700201304C2A58002D2A5D32251
:1060E0009006D7EFF01260FD9006D7E075F00EA491
:0D60F0002432F582E43405F5837401F022BA
:1063FA00EF75F00EA42432F582E43405F583E4F057
:03640A0002606AC3
:10613700EF7004C2A68002C2A4EF75F00EA4243249
:0C614700F582E43405F5837401F0D322E6
:10615300EF7004D2A68002D2A4EF75F00EA424320D
:0C616300F582E43405F5837402F0D322C9
:054968009005F5EFF0E1
:10496D00E4900601F0A374F0F07B017A0679017FE3
:10497D000212335D9005F6E0FCA3E0FDA3E0FEA37B
:10498D00E0FF9005F5E0FB75F00EA42426F582E41A
:10499D003405F5831210769005FAE0FFEB75F00EF5
:1049AD00A4242AF582E43405F583EFF09005FBE0AD
:1049BD00FEA3E0FFEB75F00EA4242BF582E4340585
:1049CD00F583EEF0A3EFF09005FDE0FCA3E0FDA371
:1049DD00E0FEA3E0FFEB75F00EA4242EF582E43487
:1049ED0005F583121076EB75F00EA42432F582E4F2
:0A49FD003405F5837401F0025B4BF2
:10616F00900657EFF0A3EDF0A37401F0E4A3F0A3B2
:0C617F00F0A3F07B017A06795702544629
:1053F200E490059BF030143DF0E4FF125232900528
:105402009BE025E02487F582E43405F583EEF0A3E2
:10541200EFF090059BE004F0E0C3940A40DB9006B5
:105422002CE0FCA3E0FDA3E0FEA3E0FFA3121076B4
:1054320090062C8003900630E0FCA3E0FDA3E0FE82
:03544200A3E0FFE5
:015445002244
:08634A009006A5ECF0A3EDF0B4
:10635200E4A3F0A3EFF07B017A0679A7E4FF02330E
:016362005DDD
:0564D4009006D8EFF076
:0B64D900E4FF00000FEFB408F9000022
:0164E4002295
:104A3F004205490000C110C1114205410000420565
:0D4A4F0045000042054300004205470000FD
:0A420B00900611ECF0A3EDF0AB07F4
:10421500E4900617F0A3F0900611E0FEA3E0FFEB93
:1042250075F007A4244FF582E43405F583EEF0A379
:10423500EFF0900613E0FCA3E0FDA3E0FEA3E0FF92
:10424500EB75F007A4244BF582E43405F5831210D1
:1042550076EB704F900611E0FEA3E0FFD39414EEC9
:104265009400403BAB07AA06E4F9F87F807E847D85
:104275001EFC125657E47B02FAF9F8125657C3E4AE
:104285009FFFE49E900619F0A3EFF0C210438F0440
:10429500900619E0FCA3E0FDECF5D68DD78051D250
:1042A50010804D900611E0FEA3E0FFD39414EE9428
:1042B50000403BAB07AA06E4F9F87F807E847D1EAB
:1042C500FC125657E47B02FAF9F8125657C3E49FDD
:1042D500FFE49E900619F0A3EFF0C21143D10190BF
:1042E5000619E0FCA3E0FDECF5D48DD58002D211D2
:0142F500D3F5
:0142F60022A5
:10606A00EF75F007A42451F582E43405F583740131
:0E607A00F0EF7005438E10800343D108D3224F
:1060FD00EF7005538EEF800353D1F7EF75F007A4C2
:0D610D002451F582E43405F583E4F0D3223B
:10645800EF75F007A42451F582E43405F583E024B0
:02646800FF2211
:105B4B00E49006C4F0A304F0FB7A0679C47F031239
:105B5B00335D9006C57410F07B017A0679C4E4FFBF
:0C5B6B0012335DE4900551F0900558F0F5
:015B7700220B
:03006300024FAA9F
:104FAA00C0E0C0F0C083C082C0D075D000C000C0CD
:104FBA0001C002C003C004C005C006C007E47F02E6
:104FCA00FEFDFC90054BE0F8A3E0F9A3E0FAA3E0AC
:104FDA00FB120EF7C006C007900541E475F00112F6
:104FEA000E93AFF0AB07FAE4F9F8D007D006C31274
:104FFA001022400CE4FF1260FD900541E4F0A3F09A
:10500A00D007D006D005D004D003D002D001D000FA
:0B501A00D0D0D082D083D0F0D0E032A4
:03009B00025025EB
:10502500C0E0C0F0C083C082C0D075D000C000C051
:1050350001C002C003C004C005C006C007E47F026A
:10504500FEFDFC900552E0F8A3E0F9A3E0FAA3E029
:10505500FB120EF7C006C007900543E475F0011278
:105065000E93AFF0AB07FAE4F9F8D007D006C312F8
:105075001022400C7F011260FD900543E4F0A3F07F
:10508500D007D006D005D004D003D002D001D0007F
:0B509500D0D0D082D083D0F0D0E03229
:09661F00D280C281C282D2832222
:09662800C280D281D282C2832219
:09663100C280C281C282C2832230
:09663A00D280C281C282C2832217
:09664300C280D281C282C283220E
:09664C00D280C281D282C28322F5
:09665500C280C281C282D28322FC
:09665E00C280C281D282C28322F3
:09666700C280D281C282D28322DA
:0166D00022A7
:0561C2009006C6EDF09F
:1061C70012668E9006C7EFF09006C6E0FF12668E45
:0561D7009006C7E0FF87
:0161DC0022A0
:0C65A200EF4480FF12668E7FFF12668EB1
:0165AE0022CA
:1052EB00E4FD7F6B1261C27D077F1A1261C27D30B4
:1052FB007F371261C27D4D7F241261C27D207F6A90
:10530B001261C27D017F671261C27D817F271261AD
:10531B00C27D077F191261C27D187F1B1261C27D8E
:10532B00187F1C1261C27D087F1D1261C27D017F37
:0B533B000B1259427D127F0A025942FA
:104AA5007F3C1265A290056BEFF07F3B1265A290EB
:104AB500056CEFF0FE90056BE0FDEDFF900559EEFE
:104AC500F0A3EFF07C007DA4120E5D900559EEF089
:104AD500A3EFF07F3E1265A290056DEFF07F3D12CA
:104AE50065A290056EEFF0FE90056DE0FDEDFF907F
:104AF500055BEEF0A3EFF07C007DA4120E5D900542
:104B05005BEEF0A3EFF07F401265A290056FEFF02A
:104B15007F3F1265A2900570EFF0FE90056FE0FDF6
:104B2500EDFF90055DEEF0A3EFF07C007DA4120E85
:0A4B35005D90055DEEF0A3EFF022A5
:1044A2007F441265A290056BEFF07F431265A290E4
:1044B200056CEFF0FE90056BE0FDEDFF90055FEE01
:1044C200F0A3EFF0AC06EC120B107B337A33798356
:1044D2007841120A01120B4990055FEEF0A3EFF04A
:1044E2007F461265A290056DEFF07F451265A2909E
:1044F200056EEFF0FE90056DE0FDEDFF900561EEBB
:10450200F0A3EFF0AC06EC120B107B337A33798315
:104512007841120A01120B49900561EEF0A3EFF007
:104522007F481265A290056FEFF07F471265A29057
:104532000570EFF0FE90056FE0FDEDFF900563EE74
:10454200F0A3EFF0AC06EC120B107B337A337983D5
:104552007841120A01120B49900563EEF0A3EFF0C5
:014562002236
:103E9D007F1012581D9006B1EFF07F1112581D9032
:103EAD0006B2EFF07F1212581D9006B3EFF07F02AD
:103EBD0012581DEF30E103023FC97F0312581D90C8
:103ECD00056B125819EF5408FFBF010A7F031258F2
:103EDD001D90056BEFF07F0412581D90056C125864
:103EED0019EF5408FFBF010A7F0412581D90056C8D
:103EFD00EFF090056CE0FE90056BE0FDEEFCE42428
:103F0D0001FFE433FE120DF6900565EEF0A3EFF020
:103F1D007F0512581D90056D125819EF5408FFBFFB
:103F2D00010A7F0512581D90056DEFF07F0612589E
:103F3D001D90056E125819EF5408FFBF010A7F0638
:103F4D0012581D90056EEFF090056EE0FE90056D18
:103F5D00E0FDEEFCE42401FFE433FE120DF69005C6
:103F6D0067EEF0A3EFF07F0712581D90056F125802
:103F7D0019EF5408FFBF010A7F0712581D90056FF6
:103F8D00EFF07F0812581D900570125819EF540864
:103F9D00FFBF010A7F0812581D900570EFF09005C4
:103FAD0070E0FE90056FE0FDEEFCE42401FFE433CC
:0C3FBD00FE120DF6900569EEF0A3EFF087
:013FC90022D5
:06668E009006D9EFF02296
:04581900EFF07F0924
:05581D009006B4EFF05D
:10582200A37413F0A37488F07D8C7F251261C2905B
:1058320006B4E0FD7F261261C27DFF7F631261C262
:105842009006B574FFF5F0120EA945F070F27F498B
:035852001265A23A
:015855002230
:085942009006A9EFF0A3EDF0BF
:10594A00A37401F0A374F4F07D0C7F251261C29058
:10595A0006A9E0FD7F261261C29006AAE0FD7F63D8
:10596A001261C29006AB74FFF5F0120EA945F070F1
:01597A00F23A
:01597B002209
:044A5C0041029C0077
:1058CD00EF75F04BA424E5F582E43402F583E4F0A2
:1058DD00EF75F04BA424E6F582E43402F583E4F091
:1058ED00EF75F04BA424E7F582E43402F583E4F080
:0B58FD007BFF7A187921AD07026529B6
:10646A00EF75F04BA424E5F582E43402F583740158
:02647A00F0220E
:1064E500EF75F04BA424E5F582E43402F583E4F07E
:0164F5002284
:10647C00EF75F04BA424E6F582E43402F583740145
:02648C00F022FC
:1064F600EF75F04BA424E6F582E43402F583E4F06C
:016506002272
:10553700EF75F04BA424E7F582E43402F583E064C9
:10554700017031EF75F04BA424A5F582E43402F520
:105557008375F002ED1210B3E0FCA3E0FDEC120B33
:1055670010E4FBFAF97847120A01E4FBFA7980782C
:0A557700410208F8E4FFFEFDFC22EB
:10558100EF75F04BA424E7F582E43402F583E0647F
:10559100017031EF75F04BA424ADF582E43402F5CE
:1055A1008375F002ED1210B3E0FCA3E0FDEC120BE9
:1055B10010E4FBFAF97847120A01E4FBFA79FA7868
:0A55C100440208F8E4FFFEFDFC229E
:105A8B00EF75F04BA424B5F582E43402F58375F081
:105A9B0002ED1210B3E0FCA3E0FDEC120B10E4FBE3
:105AAB00FAF97847120A01E4FBFA793478431208C1
:025ABB00F822CF
:1059B500EF75F04BA424E7F582E43402F583E0B4F7
:1059C500011EEF75F04BA424BDF582E43402F58386
:1059D50075F002ED1210B3E0FCA3E0FDEC020B1034
:0659E500E4FFFEFDFC22C0
:104BD900900361EBF0A3EAF0A3E9F0A3E0FBA3E003
:104BE900FAA3E0F9900003120D95FF900361E0FB31
:104BF900A3E0FAA3E0F9EF120DC2900364E0FBA36E
:104C0900E0FAA3E0F9900002120D95FF900361E02C
:104C1900FBA3E0FAA3E0F9900001EF120DD4900391
:104C290064E0FBA3E0FAA3E0F9900001120D95FFFF
:104C3900900361E0FBA3E0FAA3E0F9900002EF1210
:104C49000DD4900364E0FBA3E0FAA3E0F9120D7C14
:104C5900FF900361E0FBA3E0FAA3E0F9900003EF02
:034C6900020DD465
:05182100900333EFF01D
:1018260075F04BA424E5F582E43402F583E07003F9
:10183600021CBA900333E0FF75F04BA424E6F58250
:10184600E43402F583E07003021CBAEF75F04BA492
:1018560024E7F582E43402F583E4F090001CE064AA
:1018660055600AE4900004F090029CF02290000477
:10187600E0FF241CF582E43400F583E0FE74902F2B
:10188600F582E43402F583EEF0900004E0C3940B95
:101896005003021CBA900291E024B0B40900400340
:1018A600021C9D9018B775F003A4C58325F0C58367
:1018B600730218D20219720219D2021A32021AB22D
:1018C600021B31021BB8021C00021C35900292E07A
:1018D600FF900333E0FE75F04BA4249DF582E434BB
:1018E60002F583EFF0900293E0FFEE75F04BA4242F
:1018F6009EF582E43402F583EFF0900294E0FFEE69
:1019060075F04BA4249FF582E43402F583EFF09042
:101916000295E0FFEE75F04BA424A0F582E43402B4
:10192600F583EFF0900296E0FFEE75F04BA424A14C
:10193600F582E43402F583EFF0900297E0FFEE754E
:10194600F04BA424A2F582E43402F583EFF0900272
:1019560099E0FE900298E0FDEDFF900333E075F00C
:101966004BA424A3F582E43402021BAE900293E05A
:10197600FE900292E0FDEDFF900333E0FD75F04B23
:10198600A424A5F582E43402F583EEF0A3EFF090EB
:101996000295E0FE900294E0FBEBFFED75F04BA4A0
:1019A60024A7F582E43402F583EEF0A3EFF090026B
:1019B60097E0FE900296E0FDEDFF900333E075F0B0
:1019C6004BA424A9F582E43402021BAE900293E0F4
:1019D600FE900292E0FDEDFF900333E0FD75F04BC3
:1019E600A424ADF582E43402F583EEF0A3EFF09083
:1019F6000295E0FE900294E0FBEBFFED75F04BA440
:101A060024AFF582E43402F583EEF0A3EFF0900202
:101A160097E0FE900296E0FDEDFF900333E075F04F
:101A26004BA424B1F582E43402021BAE900293E08B
:101A3600FE900292E0FDEDFF900333E0FD75F04B62
:101A4600A424B5F582E43402F583EEF0A3EFF0901A
:101A56000295E0FE900294E0FBEBFFED75F04BA4DF
:101A660024B7F582E43402F583EEF0A3EFF090029A
:101A760097E0FE900296E0FDEDFF900333E0FD75E2
:101A8600F04BA424B9F582E43402F583EEF0A3EF1B
:101A9600F0900299E0FE900298E0FBEBFFED75F006
:101AA6004BA424BBF582E43402021BAE900293E001
:101AB600FE900292E0FDEDFF900333E0FD75F04BE2
:101AC600A424BDF582E43402F583EEF0A3EFF09092
:101AD6000295E0FE900294E0FBEBFFED75F04BA45F
:101AE60024BFF582E43402F583EEF0A3EFF0900212
:101AF60097E0FE900296E0FDEDFF900333E0FD7562
:101B0600F04BA424C1F582E43402F583EEF0A3EF92
:101B1600F0900299E0FE900298E0FBEBFFED75F085
:101B26004BA424C3F582E43402807D900293E0FE48
:101B3600900292E0FDEDFF900333E0FD75F04BA4BB
:101B460024C5F582E43402F583EEF0A3EFF09002AB
:101B560095E0FE900294E0FBEBFFED75F04BA424BC
:101B6600C7F582E43402F583EEF0A3EFF090029716
:101B7600E0FE900296E0FDEDFF900333E0FD75F088
:101B86004BA424C9F582E43402F583EEF0A3EFF00A
:101B9600900299E0FE900298E0FBEBFFED75F04BAA
:101BA600A424CBF582E43402F583EEF0A3EFF00231
:101BB6001C9D9002927412F0A37434F0A37456F034
:101BC600A37478F0900333E075F04BA424CDF97438
:101BD6000235F0FA7B01C003900364EBF0A37402B4
:101BE600F0A37492F0D003124BD9900333E075F052
:101BF6004BA424D1F97402021C84900333E075F0DF
:101C06004BA424D5F9740235F0FA7B01C003900386
:101C160064EBF0A37402F0A37492F0D003124BD9D4
:101C2600900333E075F04BA424D9F97402804F90E9
:101C36000293E0FE900292E0FDEDFF900333E0FD9B
:101C460075F04BA424DDF582E43402F583EEF0A3AF
:101C5600EFF0900295E0FE900294E0FBEBFFED754D
:101C6600F04BA424DFF582E43402F583EEF0A3EF13
:101C7600F0900333E075F04BA424E1F9740235F0DB
:101C8600FA7B01C003900364EBF0A37402F0A37423
:101C960096F0D003124BD9E490029CF0900004F029
:101CA600900333E075F04BA424E7F582E43402F5A3
:041CB600837401F042
:011CBA002207
:0F65690074B72FF582E43406F5837401F0D32262
:0E65780074B72FF582E43406F583E4F0D322E5
:0166D10022A6
:10648E003F065B4F666D7D077F6F777C395E797156
:02649E0040EFCD
:0A4A6000080D000000000000000037
:055856009006C8EFF010
:10585B00E4A3F0C2917F017E00125B1D9006C8E0AD
:10586B00FF30E004D2908002C290EFC3139006C8C1
:10587B00F0D2917F017E00125B1D9006C9E004F00F
:06588B00E0C3940840CDCB
:0158910022F4
:10571E00E49006CBF0D2909006CAF09006CBE0C390
:10572E0013F0C2917F017E00125B1D309007900630
:10573E00CBE04480F0D2917F017E00125B1D90067B
:0F574E00CAE004F0E0C3940840D19006CBE0FF1E
:01575D002229
:105FB1009006DAEFF0C2927F017E00125B1D90061F
:0F5FC100DAE0FF125856D2927F017E00025B1D7C
:103FCA00E4900662F0C2927F421258567F641265EC
:103FDA004AE4900661F012571E900661E0245DF5EE
:103FEA0082E43406F583EFF0900661E004F0E0C362
:103FFA00940440E2D29290065DE0FFB40409900670
:10400A00627401F00240EAEFB44009900662740259
:10401A00F00240EA90065EE0FFB40409900662747A
:10402A0003F00240EAEFB440099006627404F00219
:10403A0040EA90065FE0FFB404099006627405F056
:10404A000240EAEFB440099006627406F00240EAC0
:10405A00900660E0FFB404099006627407F002401B
:10406A00EAEFB440089006627408F0807390065D27
:10407A00E0FFB402089006627409F08063EFB4208E
:10408A0008900662740AF0805790065EE0FFB40258
:10409A0008900662740BF08047EFB420089006621D
:1040AA00740CF0803B90065FE0FFB4020890066251
:1040BA00740DF0802BEFB42008900662740EF08025
:1040CA001F900660E0FFB40208900662740FF08049
:1040DA000FEFB420089006627410F080037F00226C
:0A40EA007F6412654A900662E0FF51
:0140F40022A9
:105AEE007F8A125FB17F8A125FB17F40125FB1C2AF
:105AFE00927FC0125856E49006DBF07FFF12585684
:0E5B0E009006DBE004F0E0C3941040EFD2926A
:015B1C002266
:1024D8009005B8E09005C1F09005B7E09005C2F00E
:1024E8009005B6E09005C3F09005B5E0F99005B405
:1024F800E0FAAE05AC06AD079005C2E090648E9395
:10250800540125E0FF9005C1E090648E9354012F9B
:10251800FF9005C3E090648E93540125E025E02FD9
:10252800FFE993540133333354F82FFFEA935401EE
:10253800C454F02FFFEB935401C43354E02FFFEC45
:10254800935401C4333354C02FFFED935401C43363
:10255800333354802F9005B9F09005C1E090648E14
:10256800935402C313FF9005C2E090648E93540203
:102578002FFF9005C3E090648E93540225E02FFF4F
:10258800E993540225E025E02FFFEA935402333300
:102598003354F82FFFEB935402C454F02FFFEC93FD
:1025A8005402C43354E02FFFED935402C433335420
:1025B800C02F9005BAF09005C2E090648E93540441
:1025C800C313FF9005C1E090648E93540413135411
:1025D8003F2FFF9005C3E090648E9354042FFFE9CA
:1025E80093540425E02FFFEA93540425E025E02FB7
:1025F800FFEB93540433333354F82FFFEC93540414
:10260800C454F02FFFED935404C43354E02F9005C5
:10261800BBF09005C2E090648E9354081313543FA6
:10262800FF9005C1E090648E935408131313541F50
:102638002FFF9005C3E090648E935408C3132FFFB7
:10264800E99354082FFFEA93540825E02FFFEB93F2
:10265800540825E025E02FFFEC9354083333335416
:10266800F82FFFED935408C454F02F9005BCF09058
:1026780005C2E090648E935410131313541FFF90F7
:1026880005C1E090648E935410C4540F2FFF900539
:10269800C3E090648E9354101313543F2FFFE993B3
:1026A8005410C3132FFFEA9354102FFFEB935410C9
:1026B80025E02FFFEC93541025E025E02FFFED9344
:1026C800541033333354F82F9005BDF09005C2E011
:1026D80090648E935420C4540FFF9005C1E0906419
:1026E8008E935420C41354072FFF9005C3E09064C1
:1026F8008E935420131313541F2FFFE99354201360
:1027080013543F2FFFEA935420C3132FFFEB935426
:10271800202FFFEC93542025E02FFFED9354202524
:10272800E025E02F9005BEF09005C2E090648E93FE
:102738005440C4135407FF9005C1E090648E93542D
:1027480040C4131354032FFF9005C3E090648E9385
:102758005440C4540F2FFFE9935440131313541FCC
:102768002FFFEA9354401313543F2FFFEB93544029
:10277800C3132FFFEC9354402FFFED93544025E0F3
:102788002F9005BFF09005C2E090648E935480C4EA
:1027980013135403FF9005C1E090648E935480C4D2
:1027A80013131354012FFF9005C3E090648E9354C4
:1027B80080C41354072FFFE9935480C4540F2FFF8C
:1027C800EA935480131313541F2FFFEB9354801371
:1027D80013543F2FFFEC935480FEC3132FFFED9348
:1027E80054802F9005C0F07F8A125FB17F40125F3E
:1027F800B1C2927FC01258569005B9E0FF125856E0
:102808007F801258569005BAE0FF125856E4FF121E
:1028180058569005BBE0FF125856E4FF12585690E0
:1028280005BCE0FF125856E4FF1258569005BDE06B
:10283800FF125856E4FF1258569005BEE0FF125892
:1028480056E4FF1258569005BFE0FF125856E4FFB1
:102858001258569005C0E0FF125856E4FF12585619
:02286800D2920A
:01286A00224B
:0566BC007F80025FB1C8
:10544600120D7CF59D900001120D95FFE5BC549F51
:105456004FF5BC900002120D95B4010543BC808047
:105466000353BC7F900003120D95B40105439720AA
:1054760080035397DF900005120D95B40104D2AD59
:105486008002C2AD900004120D95B40103D2BD2274
:03549600C2BD2272
:0C65D600EFB4010443BC802253BC7F22C0
:10523200EFD3940740028051E4F5BDF5BEE5BC54BE
:10524200E044084FF5BC00000000E4FBE5BC30E49C
:105252003353BCEFE59730E509E5BD5403ADBEFC21
:10526200801DAFBD7C00AD07ED7E007802C333CE5A
:1052720033CED8F9FFE5BE5403FDEEFCEF4DFDAF92
:0D52820005AE04220BEBB4FAC37E047F00DE
:01528F0022FC
:03002B000266C1A9
:0466C10053BCEF32A5
:0F654A007D367C07ED1D70011C144C70F7DFF1DE
:01655900221F
:105B1D00E4FCFDFB7A36796E7801120EF7E47B0C0E
:105B2D00FAF9F81256577B407A42790F78001256DF
:0D5B3D0057EF4E600800EF1F70F71E80F458
:015B4A002238
:0E658600E4F5C7F5C5F5C675C3FF75C4FF2261
:10575E00AD07AC06C2AF75C78075C501ECF5C3AF1A
:10576E00058FC475C65A75C6A500E5C2120DC20DC9
:10577E00BD00010C740129F9E43AFA90064E74FF4B
:0F578E00F5F0120E9345F070D3126586D2AF225C
:105F5300AD07AC06C2AFECF5C3AF058FC475C78000
:105F630075C50375C65A75C6A500126586D2AF22DC
:10579D00AD07AC06C2AF75C78075C502ECF5C3AFDA
:1057AD00058FC4120D7CF5C275C65A75C6A5000DC0
:1057BD00BD00010C740129F9E43AFA90065574FF05
:0F57CD00F5F0120E9345F070D3126586D2AF221D
:030003000266D2C0
:0166D2003295
:030013000266D3AF
:0166D3003294
:030053000266D46E
:0166D4003293
:03005B000266D565
:0166D5003292
:030083000266D63C
:0166D6003291
:10456300EFD3940440037F0122EF702D90000212D9
:104573000D95B40104D2A88002C2A8900001120DC7
:1045830095B40104D2B88002C2B8120D7CB4010400
:10459300D2888002C2887F0022EF6401702D9000D0
:1045A30002120D95B40104D2AA8002C2AA9000019E
:1045B300120D95B40104D2BA8002C2BA120D7CB4B2
:1045C3000104D28A8002C28A7F0022EFB4021490CF
:1045D3000002120D95B40105438F108003538FEF32
:1045E3007F0022EFB40314900002120D95B401056D
:1045F300438F208003538FDF7F0022EFB404149096
:104603000002120D95B40105438F408003538FBF01
:064613007F00227F02225D
:0366C800A21522F6
:10335D00EFD3940540037F0122120D7CFED394031D
:10336D0040037F0222EF7041EE700B900001120DB1
:10337D0095F452935294120D7CB4010B90000112EE
:10338D000D954293F45294120D7CFEB4020A9000F6
:10339D0001120D9542934294EEB4030D900001126B
:1033AD000D95FEF45293EE4294EF64017043120DAD
:1033BD007CFE700B900001120D95F452915292EE1D
:1033CD00B4010B900001120D954291F45292120D21
:1033DD007CB4020A900001120D9542914292120D99
:1033ED007CB4030D900001120D95FEF45291EE4246
:1033FD0092EF64027043120D7CFE700B900001126F
:10340D000D95F452955296EEB4010B900001120DEC
:10341D00954295F45296120D7CB4020A9000011259
:10342D000D9542954296120D7CB4030D900001123C
:10343D000D95FEF45295EE4296EF64037043120D16
:10344D007CFE700B900001120D95F452B152B2EE4C
:10345D00B4010B900001120D9542B1F452B2120D50
:10346D007CB4020A900001120D9542B142B2120DC8
:10347D007CB4030D900001120D95FEF452B1EE4295
:10348D00B2EF64047043120D7CFE700B90000112BC
:10349D000D95F452B352B4EEB4010B900001120D20
:1034AD009542B3F452B4120D7CB4020A900001128D
:1034BD000D9542B342B4120D7CB4030D9000011270
:1034CD000D95FEF452B3EE42B4EF64057043120D48
:1034DD007CFF700B900001120D95F452C952CAEF8A
:1034ED00B4010B900001120D9542C9F452CA120D90
:1034FD007CB4020A900001120D9542C942CA120D08
:10350D007CB4030D900001120D95FFF452C9EF42EA
:04351D00CA7F00223F
:0765AF00C2A21265B6D2A0E2
:0565B600007F0BDFFE79
:0165BB0022BD
:0A65F700D2A21265B1C2A20265B67D
:066694001265AFD2A22244
:0D65BC00C2A01265AFC2A01265B6D2A22225
:045C9300FF125D554A
:105C9700E4FEC2A01265B6D2A2D2A01265B630A2A7
:105CA7000DEEC394FF50070EA2A2921680F0C2A079
:025CB700A21633
:015CB90022C8
:0A660100D2A2C2A01265B1C2A0220D
:10608800E4FED2A2FDC2A01265B1EE25E0FE30A268
:0D609800034401FE0DEDB408ECC2A0AF06FC
:0160A50022D8
:025D5500AE0797
:105D5700E4FDC2A01265B6EE5480FFC413131354BA
:105D67000124FF92A21265B1EE25E0FE0DEDB40805
:035D7700E1C2A0E6
:015D7A002206
:10636300AC05AE071265F7AF06125D55125C97AF29
:0963730004125D55125C97D3225F
:0B59EB00900665EBF0A3EAF0A3E9F0E2
:1059F600126363E4FC900668E0FFECC39F501990C5
:105A06000665E0FBA3E475F001120EA9A9F0FA12EF
:0B5A16000D7C125C930C80DD02669496
:1054990090066BEBF0A3EAF0A3E9F0900669EFF050
:1054A9001263631265F7E04401125C93E4FC900611
:1054B9006EE0FFECC39F502512608890066BE0FBFD
:1054C900A3E475F001120EA9A9F0FAEF120DC2902A
:1054D900066EE0146C60031265BC0C80D112660183
:0354E900026694C4
:1046C800EF7034D3ED9498EC940340047C037D9808
:1046D800C3ED9450EC940050047C007D50C2DE90F1
:1046E80005A5ECF0A3EDF0C374E89D9005A0F07467
:1046F800039C90059F8073EF64017034D3ED946838
:10470800EC940B40047C0B7D68C3ED9450EC940052
:1047180050047C007D50C2DE9005A7ECF0A3EDF0BC
:10472800C374B89D9005A2F0740B9C9005A1803AC3
:10473800EF64027038D3ED9480EC940740047C0752
:104748007D80C3ED9450EC940050047C007D50C2F1
:10475800DE9005A9ECF0A3EDF0AE04FFC374D09F82
:0E4768009005A4F074079E9005A3F0D2DE2207
:103521009006BAEBF0A3EAF0A3E9F0AD07EDD3946E
:103531000340030236BFED6403704CC2DEF5F9F5BA
:10354100E99006BAE0FBA3E0FAA3E0F9120D7CFFD3
:10355100E5A254CF4FF5A2900001120D95FFE5D9D8
:1035610054F14FF5D9900004120D955401FFE5D99E
:1035710054FE4FF5D9900005120D95B40104D2BF48
:103581008002C2BFD2DE229006BAE0FBA3E0FAA31A
:10359100E02404F9E43AFA120D7C5431120DC29080
:1035A10006BAE0FBA3E0FAA3E0F9900002120D9540
:1035B100C39448400FE92404F9E43AFA120D7C540B
:1035C100CF120DC2ED704F9006BAE0FBA3E0FAA353
:1035D100E0F9900004120D95FF900002120D95FE86
:1035E1004FF5DA900003120D95FFE5F2543F4FF5C8
:1035F100F2900006120EBFFBAAF09005A5EAF0A317
:10360100EBF0C20D90059CEEF09005ABEAF0A3EB58
:10361100F0F5EAEAF5FAED6401704F9006BAE0FBC5
:10362100A3E0FAA3E0F9900004120D95FF900002C7
:10363100120D95FE4FF5DB900003120D95FFE5F39A
:10364100543F4FF5F3900006120EBFFBAAF0900510
:10365100A7EAF0A3EBF0C20E90059DEEF09005AD48
:10366100EAF0A3EBF0F5EBEAF5FBED6402704F90A5
:1036710006BAE0FBA3E0FAA3E0F9900004120D956D
:10368100FF900002120D95FE4FF5DC900003120D24
:1036910095FFE5F4543F4FF5F4900006120EBFFD7F
:1036A100ACF09005A9ECF0A3EDF0C20F90059EEEF1
:0F36B100F09005AFECF0A3EDF0F5ECECF5FC229A
:103AF6009006BEECF0A3EDF09006BDEFF0705ED33D
:103B0600EB9464EA940040047A007B64C3EB94016E
:103B1600EA940050047A007B01C2DE9006BEE0FE05
:103B2600A3E0FFAD03AC02120DF67C007D64120E1D
:103B3600089005A5EEF0A3EFF07C007D64AF03AE20
:103B460002120E08C374019FFFE49EFE9006BEE0BB
:103B5600FCA3E0FD120DF690059F023C2B9006BDDE
:103B6600E06401705DD3EB9464EA940040047A004B
:103B76007B64C3EB9401EA940050047A007B01C293
:103B8600DE7C007D64AF03AE02120E089006BEE036
:103B9600FCA3E0FD120DF69005A7EEF0A3EFF07C76
:103BA600007D64AF03AE02120E08C374019FFFE4EA
:103BB6009EFE9006BEE0FCA3E0FD120DF69005A168
:103BC60080639006BDE064027062D3EB9464EA946D
:103BD6000040047A007B64C3EB9401EA940050042D
:103BE6007A007B01C2DE7C007D64AF03AE02120E5A
:103BF600089006BEE0FCA3E0FD120DF69005A9EEC6
:103C0600F0A3EFF0AE02AF037C007D64120E08C392
:103C160074019FFFE49EFE9006BEE0FCA3E0FD1249
:0D3C26000DF69005A3EEF0A3EFF0D2DE2224
:03003B000248C5B3
:1048C500C0E0C083C082C0D075D000C006C007302C
:1048D500D82AC2D830A5059005A5800390059FE08C
:1048E500FEA3E0FF9005ACE02FF09005ABE03EF0B5
:1048F5009005ABE0FEA3E0F5EAEEF5FA30D92AC261
:10490500D930A6059005A780039005A1E0FEA3E098
:10491500FF9005AEE02FF09005ADE03EF09005ADBF
:10492500E0FEA3E0F5EBEEF5FB30DA2AC2DA30A7BC
:10493500059005A980039005A3E0FEA3E0FF90057F
:10494500B0E02FF09005AFE03EF09005AFE0FEA39C
:10495500E0F5ECEEF5FCD007D006D0D0D082D083C0
:03496500D0E0326D
:105170009006CCECF0A3EDF0AB079006CCE0FEA3DC
:10518000E0FFE4FCFDEB75F00AA42476F582E4343C
:1051900004F58312107643BA8053F57FEB75F00A5D
:1051A000A4247FF582E43404F583E0FF7E009006BA
:1051B000CCE0FCA3E0FD120DF6AB07AA06E4F9F87B
:1051C000FF7E367D6E7C01125657125FD053BA7F38
:0151D00022BC
:1062E200EF75F00AA42476F582E43404F583E0FC29
:0A62F200A3E0FDA3E0FEA3E0FF22FD
:1042F70090069CEFF07F337E337D737C3FA3E0F81D
:10430700A3E0F9A3E0FAA3E0FB120A9E600C400ABF
:1043170090069D1210823F7333337FCD7ECC7DCCC8
:104327007C3C90069DE0F8A3E0F9A3E0FAA3E0FB4C
:10433700120A9E500A90069D1210823CCCCCCD905A
:10434700069DE0FCA3E0FDA3E0FEA3E0FF90069C32
:10435700E0FB75F00AA4247BF582E43404F58312AC
:10436700107643BA80EB75F00AA4247FF582E43413
:1043770004F583E0FFE4FCFDFEEB75F00AA4247668
:10438700F582E43404F583E0F8A3E0F9A3E0FAA3A7
:10439700E0FB120EF7A804A905AA06AB077F007E6B
:1043A700367D6E7C01120F82E4120B0B90069DE0A6
:1043B700F8A3E0F9A3E0FAA3E0FB1208F8120B490F
:1043C700AB07AA0690069CE0FF7D0A7C00124B3FD4
:0443D70053BA7F2234
:1062FC00EF75F00AA4247BF582E43404F583E0FC0A
:0A630C00A3E0FDA3E0FEA3E0FF22E2
:10650700EF75F00AA4247FF582E43404F583EDF0F7
:016517002261
:10651800EF75F00AA4247FF582E43404F583E0FFE4
:016528002250
:0A660B0043BA8043F58053BA7F22A2
:0A66150043BA8053F57F53BA7F2289
:105BF30043BA807401A807088002C333D8FC42F576
:105C0300EF75F00AA4247AF582E43404F583740171
:085C1300F043F58053BA7F2233
:105DA00043BA807401A807088002C333D8FCF452B8
:105DB000F5EF75F00AA4247AF582E43404F583E45F
:055DC000F053BA7F2240
:1064A000EF75F00AA4247AF582E43404F583E0243D
:0264B000FF22C9
:05213E009006CEEFF059
:10214300E4A3F09006CFE0FFC39406505AEF75F076
:102153000AA42476F582E43404F583121082000085
:1021630000009006CFE0FF75F00AA4247AF582E41C
:102173003404F583E4F0EF75F00AA4247BF582E4DC
:102183003404F583121082000000009006CFE0753E
:10219300F00AA4247FF582E43404F5837401F090FB
:1021A30006CFE004F0809C43BA80120D7CB4010595
:1021B30043F180800353F17F900001120D95B40128
:1021C300149006CEE0FF7401A807088002C333D839
:1021D300FC42F180139006CEE0FF7401A80708804B
:1021E30002C333D8FCF452F1900002120D95B401EE
:1021F3000543F540800353F5BF900003120D95B4DA
:1022030001149006CEE0FF7401A807088002C333CF
:10221300D8FC42F580139006CEE0FF7401A80708AE
:102223008002C333D8FCF452F5900004120D95B428
:10223300010575F720800353F7DF900005120D9514
:10224300B4010575F710800353F7EF900006120DE4
:1022530095B4010575F708800353F7F7900007124B
:102263000D95B4010575F704800353F7FB9000083F
:10227300120D95B4010575F702800353F7FD900025
:1022830009120D9590FFF27006E054EFF08004E020
:102293004410F090FFF2C083C082E0FF90000A1266
:1022A3000D95FEEF4ED082D083F09006CEE0146001
:1022B300721470030223791470030223CC14700385
:1022C30002241F147003022470240560030224C730
:1022D30090000B120D9590FF047006E054F7F08008
:1022E30004E04408F090000C120D9590FF04B40133
:1022F30006E04404F08004E054FBF090000D120D5E
:102303009590FF04B40106E04402F08004E054FD1C
:10231300F090000E120D9590FF04B401030224BD4A
:102323000224C390000B120D9590FF147006E05425
:10233300F7F08004E04408F090000C120D9590FF34
:1023430014B40106E04404F08004E054FBF0900070
:102353000D120D9590FF14B40106E04402F08004C1
:10236300E054FDF090000E120D9590FF14B401039C
:102373000224BD0224C390000B120D9590FF24701C
:1023830006E054F7F08004E04408F090000C120DCE
:102393009590FF24B40106E04404F08004E054FB6C
:1023A300F090000D120D9590FF24B40106E0440255
:1023B300F08004E054FDF090000E120D9590FF2480
:1023C300B401030224BD0224C390000B120D9590A7
:1023D300FF347006E054F7F08004E04408F0900006
:1023E3000C120D9590FF34B40106E04404F0800410
:1023F300E054FBF090000D120D9590FF34B40106EC
:10240300E04402F08004E054FDF090000E120D95BC
:1024130090FF34B401030224BD0224C390000B12C5
:102423000D9590FF447006E054F7F08004E04408F3
:10243300F090000C120D9590FF44B40106E04404A3
:10244300F08004E054FBF090000D120D9590FF44D2
:10245300B40106E04402F08004E054FDF090000E65
:10246300120D9590FF44B40102804F805390000BEE
:10247300120D9590FF547006E054F7F08004E04489
:1024830008F090000C120D9590FF54B40106E0443F
:1024930004F08004E054FBF090000D120D9590FFC2
:1024A30054B40106E04402F08004E054FDF09000CF
:1024B3000E120D9590FF54B40106E04401F0800420
:1024C300E054FEF090000F120D95B4010443F58023
:0424D3002253F57F1C
:0124D70022E2
:105FD000D3E49F74809E90FFF1400AEFF0EE90FFB3
:0F5FE000F0F07F002274FFF090FFF0747FF0224A
:104B3F00EF14602814603A14604C14605E146070B7
:104B4F0024056003024BD690FF01EDF0EC90FF00BF
:104B5F00F090FF03EBF0EA90FF02806790FF11EDFA
:104B6F00F0EC90FF10F090FF13EBF0EA90FF128043
:104B7F005290FF21EDF0EC90FF20F090FF23EBF02F
:104B8F00EA90FF22803D90FF31EDF0EC90FF30F086
:104B9F0090FF33EBF0EA90FF32802890FF41EDF069
:104BAF00EC90FF40F090FF43EBF0EA90FF42801350
:104BBF0090FF51EDF0EC90FF50F090FF53EBF0EAC7
:0A4BCF0090FF52F07F00227F0122C8
:104CFE00900001120D95B4010553CE7F800343CE73
:104D0E0080120D7CB4010543CE40800353CEBF907C
:104D1E000002120D95B4010543CE20800353CEDF61
:104D2E00900003120D95700553CEEF800343CE1005
:104D3E00900004120D95B4010543CE08800353CEA6
:104D4E00F7900005120D95700543CE04800353CEE7
:104D5E00FB900006120D95B4010543AF028003537C
:104D6E00AFFD900007120D955403FFE5CE54FC4F96
:104D7E00F5CE900008120D95FFE5A254F34FF5A263
:014D8E002202
:0B65E200EF700453CEEF2243CE1022D6
:1063D3009006B0E02443F8A607E004F0C3942040FD
:0463E30002E4F022BE
:105FEF00EDD394205018E4FEEEC39D5011120D7C9A
:0E5FFF00FF1263D3740129F9E43AFA0E80EA26
:01600D002270
:105CBA009006B0E0FF9006AEE06F601A7F011265B1
:105CCA00E29006AEE02443F8E6FFE004F0C3942035
:065CDA004002E4F08FCF50
:015CE00022A1
:105DC5009006AFE0FF9006ADE0FEB507037F002229
:105DD50074232EF8E6FF9006ADE004F0C39420404E
:035DE50002E4F0E5
:015DE8002298
:1061DD00AD07EDD3942040037F0022EDD394014011
:0A61ED0006125DC51D80F4125DC5A9
:0161F7002285
:03004B0002539DC0
:10539D00C0E0C083C082C0D075D000C000C006C0C0
:1053AD00079006B0E0FF9006AEE0FE6F6025A3E02B
:1053BD002423F8A6CFE004F0C394204002E4F07457
:1053CD00432EF8E6F5CF9006AEE004F0C3942040EE
:1053DD0002E4F075CDC0D007D006D000D0D0D08279
:0553ED00D083D0E03286
:104A6A00410578004105790042057A000042057C3B
:104A7A0000004205740000420572000041058600EC
:104A8A0041057100410577004105760044057E0025
:0A4A9A000000004405820000000047
:1051D100E490034BF0900333F0A304F0A3F0E4A3B5
:1051E100F0A3F090033AF090033874A2F0A3744056
:1051F100F0E490033BF0A304F0A3F0A3F0E49003E8
:1052010042F0A3F0A304F0A3F0A3F0E490034AF06A
:105211007B017A0379337F04122D5D7B017A037957
:105221003B7F02122D5D7B017A0379437F03022DBF
:015231005D1F
:105BA200900578E064026020A3E06402601AEF24AA
:105BB200FE600B04701290057EECF0A3EDF0AF05D1
:095BC200900582ECF0A3EFF02243
:10631600EF24FE600804700E90057E8003900582CF
:0A632600E0FEA3E0FF22E4FEFF22E8
:10618B00EF24FE600C047013900580ECF0A3EDF08F
:0C619B0022AF05900584ECF0A3EFF02289
:10633000EF24FE600804700E9005808003900584B1
:0A634000E0FEA3E0FF22E4FEFF22CE
:0D65C900EF14700853D17FE4900578F022A4
:10600E00EF24FE600E047016900578E0B40202D301
:0F601E0022C322900579E0B40203D38001C3228C
:10602D00EF24FE600E047016900578E0B40102D3E3
:0F603D0022C322900579E0B40103D38001C3226E
:10611A00EF24FE600D047014900578E07002D3221B
:0D612A00C322900579E07003D38001C322E9
:1063AA00AE0712600E400DEF14700943D1809005BC
:0563BA00787402F022DE
:0E659400AE0712602D50051263AAD322C32257
:09667000900574E0FEA3E0FF2296
:09667900900572E0FEA3E0FF228F
:06669A00900586E0FF22DE
:0666A000900571E0FF22ED
:0666A600900577E0FF22E1
:0666AC00900576E0FF22DC
:0300A3000255CB38
:1055CB00C0E0C0F0C083C082C0D075D000C000C0A6
:1055DB000690057AE475F001120E93FED390057FC9
:1055EB00E095F090057EE09E500F53D17F90057AA9
:1055FB00E4F0A3F090057804F0D006D000D0D0D022
:08560B0082D083D0F0D0E03220
:102D5D00AD07EDD3940440037F0122ED7073120D86
:102D6D007CFED3940340037F0222C28CC2A9C2B958
:102D7D005389F0538E7F538FFE900002120D95B440
:102D8D000102D2A9900001120D95B40102D2B9EE43
:102D9D004289900003120D95FF7003438E80EFB4AE
:102DAD000203438904900004120D95B40103438F6F
:102DBD0001900005120EBFE5F0F58C900005120E86
:102DCD00BFF58A900007120D95B40102D28C7F00D9
:102DDD0022ED64016003022E69C28E900002120D75
:102DED0095B40104D2AB8002C2AB900001120D95D7
:102DFD00B40104D2BB8002C2BB120D7CFEC394038E
:102E0D0040037F0222E58954CF4EF58990000312CD
:102E1D000D95FFB40103538EBFEF7003438E40EF4A
:102E2D00B4020543894080035389BF900004120DFD
:102E3D0095B40105438F028003538FFD9000051259
:102E4D000EBFE5F0F58D900005120EBFF58B9000CD
:102E5D0007120D95B40102D28E7F0022ED6402702F
:102E6D0078538EEF900002120D95B4010543AF0417
:102E7D00800353AFFB900003120D95FED3940240D7
:102E8D00037F0222EEB40103538EFB900003120D5B
:102E9D00957003438E04900003120D95B402054303
:102EAD008E088003538EF7900004120D95B4010522
:102EBD00438F048003538FFB900005120EBFE5F086
:102ECD00F5D6900005120EBFF5D7900007120D959F
:102EDD00B40103438E107F0022ED640370609000F7
:102EED0003120D95FED3940240037F022253D1F0BD
:102EFD0053AFDF900002120D95B4010343AF20EEE6
:102F0D00700343D102900003120D95B4020343D117
:102F1D0006900004120D95B4010343D101900005F4
:102F2D00120EBFE5F0F5D4900005120EBFF5D59049
:102F3D000007120D95B4010343D1087F0022ED6403
:102F4D0004705C900003120D95FED3940240037F34
:102F5D00022253D10F53AFBF900002120D95B40151
:102F6D000343AF40EE700343D120900003120D9543
:102F7D00B4020343D160900005120EBFFDACF0EC1E
:102F8D00F5D28DD3900007120D95B4010343D18076
:102F9D00900004120D95B4010343D1107F00227FE0
:022FAD000222FE
:1065290090028DEBF0A3EAF0A3E9F0900270EDF090
:01653900223F
:10114100900341EBF0A3EAF0A3E9F0900340EFF044
:101151006401600302135390000004F0E4A3F0A3C0
:10116100F0A3F0A3F0A3F0A3F0900344F0900344A4
:10117100E0FFC39480501474382FF582E43401F5F4
:1011810083E4F0900344E004F080E2E4900344F04F
:10119100900344E0FFC394805014741C2FF582E443
:1011A1003400F583E4F0900344E004F080E290031E
:1011B10041E0FBA3E0FAA3E0F9120D7CD394C04017
:1011C100037F022290000A120D95B40104D2BC8063
:1011D10002C2BC120D7CFFE598543F4FF598EF64B5
:1011E100C06008EF644060030212CD90000212104B
:1011F100467F807E8D7D5B7C00120F8290034512BD
:101201001076E4FFFE7D01FC900345E0F8A3E0F9D0
:10121100A3E0FAA3E0FBC312102240037F02229055
:101221000345E0F8A3E0F9A3E0FAA3E0FBC3E49BE4
:10123100FFE49AFE740199FDE498FC9003451210B5
:1012410076900341E0FBA3E0FAA3E0F990000112DC
:101251000D95FB64017038C28E538EFE5389BF53C6
:1012610089CF438E40900345E0FCA3E0FDA3E0FE5F
:10127100A3E0FF78081210338F8D900345A3A3A339
:10128100E0F58BC2AB5389BF538FFDD28E8076EBD5
:1012910064027035538EEF438E01538EF7438E04F3
:1012A100900345E0FCA3E0FDA3E0FEA3E0FF780886
:1012B1001210338FD6900345A3A3A3E0F5D753AF04
:1012C100FB538EF7438E10803C7F0222900341E056
:1012D100FBA3E0FAA3E0F9120D7CFF701390000864
:1012E100120D95B40105438E20801A538EDF8015AF
:1012F100EFB48011900008120D95B4010543878069
:10130100800353877F900341E0FBA3E0FAA3E0F958
:10131100900009120D95B40104D2AC8002C2AC90C8
:101321000007120D95B40104D29C8002C29C90006A
:101331000B120D9554C0FFE5A2543F4FF5A290004A
:101341000C120D95B4010543971080035397EF7F5D
:101351000022900340E0640260030214B59000078C
:101361007402F0E4A3F0A3F0A3F0A3F0A3F0A3F0C0
:10137100900344F0900344E0FFC39480501474D46C
:101381002FF582E43401F583E4F0900344E004F0A6
:1013910080E2E4900344F0900344E0FFC394805062
:1013A10014749C2FF582E43400F583E4F090034437
:1013B100E004F080E2900341E0FBA3E0FAA3E0F94E
:1013C100120D7CFF64C06008EF6440600302147575
:1013D10090000A120D95B4010543B501800353B580
:1013E100FE120D7CB4C005439A808003539A7F900E
:1013F10000021210467F807E8D7D5B7C00120F8281
:10140100900345121076E4FFFE7D01FC900345E058
:10141100F8A3E0F9A3E0FAA3E0FBC3121022400312
:101421007F0222900345E0F8A3E0F9A3E0FAA3E0EC
:10143100FBC3E49BFFE49AFE740199FDE498FC90E0
:101441000345121076538EEF538EF7438E049003AB
:1014510045E0FCA3E0FDA3E0FEA3E0FF7808121045
:10146100338FD6900345A3A3A3E0F5D753AFFB4336
:101471008E1080037F0222900341E0FBA3E0FAA3D8
:10148100E0F9900009120D95B4010543AF01800305
:1014910053AFFE900007120D95B40105439A1080D9
:1014A10003539AEF90000B120D955401FFE5BA54C6
:1014B100FE4FF5BA900340E06403600302166890A2
:1014C100000E7402F0E4A3F0A3F0A3F0A3F0A3F0E4
:1014D100A3F0900344F0900344E0FFC3941C501424
:1014E10074542FF582E43402F583E4F0900344E070
:1014F10004F080E2E4900344F0900344E0FFC394DD
:101501001C5014741C2FF582E43401F583E4F0902F
:101511000344E004F080E2900341E0FBA3E0FAA37E
:10152100E0F9120D7CFF64C06008EF6440600302C3
:10153100162853ACDFEFB4C00543AC80800353AC35
:101541007F900341E0FBA3E0FAA3E0F990000212CF
:1015510010467F807E8D7D5B7C00120F829003455B
:10156100121076E4FFFE7D01FC900345E0F8A3E054
:10157100F9A3E0FAA3E0FBC312102240037F022289
:10158100900345E0F8A3E0F9A3E0FAA3E0FBC3E48C
:101591009BFFE49AFE740199FDE498FC90034512C7
:1015A1001076900341E0FBA3E0FAA3E0F99000017B
:1015B100120D95FB6402703253ACBF538EEF538E04
:1015C100F7438E04900345E0FCA3E0FDA3E0FEA3F6
:1015D100E0FF78081210338FD6900345A3A3A3E050
:1015E100F5D753AFFB438E108040EB640170354358
:1015F100AC4053D1F053AFDF43D10253D1FB53D1B0
:10160100FE900345E0FCA3E0FDA3E0FEA3E0FF782C
:10161100081210338FD4900345A3A3A3E0F5D5435B
:10162100D10880067F02227F0222900341E0FBA3C2
:10163100E0FAA3E0F9900009120D95B4010543AF5A
:1016410008800353AFF7900007120D95B4010543CD
:10165100AC10800353ACEF90000B120D955402FFB8
:10166100E5BA54FD021818900340E06404600302D7
:10167100181E9000157402F0E4A3F0A3F0A3F0A3E8
:10168100F0A3F0A3F0900344F0900344E0FFC3946F
:101691001C501474712FF582E43402F583E4F09048
:1016A1000344E004F080E2E4900344F0900344E05A
:1016B100FFC3941C501474B82FF582E43401F583F0
:1016C100E4F0900344E004F080E2900341E0FBA3E6
:1016D100E0FAA3E0F9120D7CFF64C06008EF6440FA
:1016E10060030217DB5384DFEFB4C00543848080BD
:1016F1000353847F900341E0FBA3E0FAA3E0F99058
:1017010000021210467F807E8D7D5B7C00120F826D
:10171100900345121076E4FFFE7D01FC900345E045
:10172100F8A3E0F9A3E0FAA3E0FBC31210224003FF
:101731007F0222900345E0F8A3E0F9A3E0FAA3E0D9
:10174100FBC3E49BFFE49AFE740199FDE498FC90CD
:101751000345121076900341E0FBA3E0FAA3E0F900
:10176100900001120D95FB640270325384BF538EB9
:10177100EF538EF7438E04900345E0FCA3E0FDA3F5
:10178100E0FEA3E0FF78081210338FD6900345A343
:10179100A3A3E0F5D753AFFB438E108040EB640267
:1017A100703543844053D10F53AFBF43D12053D140
:1017B100BF53D1EF900345E0FCA3E0FDA3E0FEA3FE
:1017C100E0FF78081210338FD2900345A3A3A3E062
:1017D100F5D343D18080067F02227F02229003410C
:1017E100E0FBA3E0FAA3E0F9900009120D95B40122
:1017F1000543AF10800353AFEF900007120D95B46E
:10180100010543841080035384EF90000B120D9562
:0F1811005404FFE5BA54FB4FF5BA7F00227F0362
:0118200022A5
:105CE100900002E02438F582E43401F583EFF0906E
:105CF1000002E004F0C394804002E4F0900003E06D
:075D0100700404F0D29922A6
:105C1B00900009E024D4F582E43401F583EFF09091
:105C2B000009E004F0C394804002E4F090000AE025
:085C3B00700504F0439A0222F7
:105C4300900010E02454F582E43402F583EFF090E1
:105C53000010E004F0C3941C4002E4F0900011E053
:085C6300700504F043AC0222BD
:105C6B00900017E02471F582E43402F583EFF09095
:105C7B000017E004F0C3941C4002E4F0900018E01D
:085C8B00700504F043840222BD
:10639300C2AF120D7CFF600C125CE1740129F9E4B9
:0763A3003AFA80EED2AF22AE
:10640D00120D7CFF600C125C1B740129F9E43AFA41
:03641D0080EE22EC
:10642000120D7CFF600C125C43740129F9E43AFA06
:0364300080EE22D9
:10643300120D7CFF600C125C6B740129F9E43AFACB
:0364430080EE22C6
:0300230002461979
:10461900C0E0C0F0C083C082C0D075D000C000C067
:1046290001C002C003C004C005C006C007309841DC
:10463900C298900006E07039900004E0C39480406D
:1046490002E4F0900004E0FF04F0741C2FF582E40A
:104659003400F583E599F09000057405F090027037
:10466900E0FF90028DA3E0FAA3E0F5828A8312119C
:1046790009309930C299900002E0FF900001E0FEF4
:104689006F601C74382EF582E43401F583E0F599E6
:10469900900001E004F0C394804009E4F0800590A3
:1046A9000003E4F0D007D006D005D004D003D0022F
:0F46B900D001D000D0D0D082D083D0F0D0E0326A
:03004300024E1B4F
:104E1B00C0E0C083C082C0D075D000C006C007E51B
:104E2B009A30E02E539AFE90000DE0702590000B07
:104E3B00E0C394804002E4F090000BE0FF04F074B8
:104E4B009C2FF582E43400F583E59BF090000C7405
:104E5B0005F0E59A30E131539AFD900009E0FF909F
:104E6B000008E0FE6F601C74D42EF582E43401F56B
:104E7B0083E0F59B900008E004F0C394804009E4C4
:104E8B00F0800590000AE4F0D007D006D0D0D08295
:054E9B00D083D0E032DD
:03008B00024EA082
:104EA000C0E0C083C082C0D075D000C006C007E596
:104EB000AC30E02E53ACFE900014E0702590001250
:104EC000E0C3941C4002E4F0900012E0FF04F07490
:104ED0001C2FF582E43401F583E5ADF090001374E6
:104EE00005F0E5AC30E13153ACFD900010E0FF90EF
:104EF000000FE0FE6F601C74542EF582E43402F55E
:104F000083E0F5AD90000FE004F0C3941C4009E489
:104F1000F08005900011E4F0D007D006D0D0D08208
:054F2000D083D0E03257
:03009300024F25F4
:104F2500C0E0C083C082C0D075D000C006C007E510
:104F35008430E02E5384FE90001BE070259000190C
:104F4500E0C3941C4002E4F0900019E0FF04F07403
:104F5500B82FF582E43401F583E585F090001A74E5
:104F650005F0E58430E1315384FD900017E0FF90B2
:104F75000016E0FE6F601C74542EF582E43402F5D1
:104F850083E0F585900016E004F0C3941C4009E425
:104F9500F08005900018E4F0D007D006D0D0D0827C
:054FA500D083D0E032D2
:10298200EFD3940240037FFF22741B2F2FF8E6201F
:10299200E5F4C2AFE64430F6D2AFAE0CEEC39F50C0
:1029A200210E74632EF8E6F908E618BE020274FFDF
:1029B200FDED69600909E71919F7090980F316168F
:1029C20080DAEED39F400405810581EED39F402239
:1029D20074632EF808E6F9EEB50C02A98118060612
:1029E200E6FDED6960091919E70909F71980F31E77
:1029F20080D9EF2463F8E604F8EF2F0490668293FF
:092A0200F608EF2F93F67F002285
:102A0B00EFD3940240037FFF22EF23241BF8E63021
:102A1B00E5F4C2AFE6548CF6D2AFE50CB5070A74F9
:102A2B00632FF8E6F5810228B8502E74642FF8E670
:102A3B00BF020274FFFD18E6F974632FF8FBE6FC86
:102A4B00E96C6008A805E7F61D1980F4A803A60534
:102A5B001FE50CB507E37F002274642FF8E6FD1821
:102A6B0086010F74632FF8A601088604E50CB507E1
:102A7B0002AC81ED6C60080D09A805E6F780F4E562
:092A8B000CB507DE89817F0022F1
:102A94008FF0E4FFFEE50C23241AF8C2A930F70DE9
:102AA4007F08E6600B2DF660325030800730F10667
:102AB400EDF660277E020830F010C2AFE610E7257D
:102AC4000E30E20CD2AF7F048014C2AFE610E715DB
:102AD40054EC4EF6D2AFD2A90228B87F0808EF44CE
:0F2AE40083F4C2AF56C6D2AFD2A954804FFF229F
:10080000020BB5E86480F8E933E83360110460F066
:10081000ED33EC337009E8FCE9FDEAFEEBFF22045E
:1008200060DED3EB9FEA9EE99DE8C2E78CF0C2F759
:1008300095F0400CE8CCF8E9CDF9EACEFAEBCFFB25
:10084000120B8085D0F05804700320D5B3E80470F3
:10085000075002B2D5020BBF92D5EC0460F7E4CC8E
:10086000C0E0C398F8603B94186008400DD0E0FBEE
:10087000020B97E4FBFAC9FC8028E830E406E4C9DF
:10088000FBE4CAFCE830E305E4C9CACBFCE8540742
:100890006010F8C3E913F9EA13FAEB13FBEC13FC4D
:1008A000D8F130F52FC3E49CFCEF9BFFEE9AFEEDF0
:1008B00099FDD0E0FBEF4E4D4C701222DB03020B92
:1008C000BCEC2CFCEF33FFEE33FEED33FDED30E7F7
:1008D000EB020B97EF2BFFEE3AFEED39FDD0E0FB7C
:1008E00050130BBB0003020BBFED13FDEE13FEEF25
:0808F00013FFEC13FC020B974F
:1008F800EC4D6011E8497017ED33EC3304600DE4FA
:10090800FCFFFEFD22E933E8330470F8020BB51250
:100918000B8058046009E4CC248150062850090251
:100928000BBF284003020BBCC0E0EB4A7044B980FF
:1009380006D0E0FB020BABEF4E701CBD8008EBFF4E
:10094800EAFEE9FD80EBE98DF0A4FEE5F00209E19D
:10095800E9CDF9EAFEEBFFEF89F0A4FCE5F0CE89DA
:10096800F0A42EFFE435F0CD89F0A42DFEE435F097
:100978008067EF4E7005BD80D780C3EF8BF0A4ACC5
:10098800F0EE8BF0A42CFCE435F0F8EF8AF0A42C00
:10099800E5F038FCE433CB8DF0A42CFCE5F03BF813
:1009A800EE8AF0A42CFCE5F038F8E433CF89F0A403
:1009B8002CFCE5F038CF3400CE89F0A42FFFE5F009
:1009C8003EFEE433C98DF0A42EFEE5F039CD8AF061
:1009D800A42FFFE5F03EFEE43DFD33D0E0FB5007D9
:1009E8000BBB000F020BBFEC2CFCEF33FFEE33FE0A
:0609F800ED33FD020B9738
:1009FE00020BBFEC5D046005E859047003020BB5F1
:100A0E00120B80580460F6EC4860F2EC7004FDFEA8
:100A1E00FF22C860DB2481C85009C39860025006CB
:100A2E00020BBC9850CAF582E9294B4A7005AB827D
:100A3E00020BAB75F0007C1A7880C3EF9BEE9AED3B
:100A4E0099400DC3EF9BFFEE9AFEED99FDE842F043
:100A5E00DC23ACF0D0E0FFD0E0FED0E0FDAB822096
:100A6E00E7101BEB60BAEC2CFCEF33FFEE33FEED20
:100A7E0033FD020B97E803F830E705C0F075F00080
:100A8E00EF2FFFEE33FEED33FD40B830E7C280AA04
:100A9E0074F8CC6480CCC86480C8F582046043C30B
:100AAE00EB9FF5F0EA9E42F0E99D42F0E89C45F09E
:100ABE0060305018E5825FFFE582F42B5582FB50C3
:100ACE00210ABA001D09B90019088016E5825BFBE0
:100ADE00E582F42F5582FF50090EBE00050DBD00B4
:100AEE00010CC3EB9FF5F0EA9E42F0E99D42F0E85F
:0D0AFE009C45F06007CC4820E701B3EC22D6
:100B0B0075F020800E75F010800575F0087D007E65
:100B1B00007F003392D530D503121014EC33401004
:100B2B00EF33FFEE33FEED33FDEC33FCD5F0ED226E
:0E0B3B00E5F0247EA2D513CC92E7CDCEFF22AA
:100B4900EDD2E7CD33EC3392D524814006E4FFFEA4
:100B5900FDFC22FCE4CFCECDCC24E0501174FF8003
:100B6900EDC3CC13CCCD13CDCE13CECF13CF0470A0
:070B7900F030D5DE0210147C
:101CBB00E5152485F582E43403F583E005152290C0
:101CCB000382300703900385E475F0011210BF0205
:101CDB000D7C2000E97F2ED2008018EF540F24904A
:101CEB00D43440D4FF30040BEF24BFB41A0050039C
:101CFB002461FFE516600215160519E5197002053A
:101D0B001830070E900382E475F0011210BFEF023A
:101D1B000DC2025D087403D2078003E4C207F515F8
:101D2B009003821210D6E4F516F518F519E5166036
:101D3B00077F20121CFE80F57517FFC201C200C27F
:101D4B0002C203C205C206C208121CCAFF700D30C4
:101D5B0007057F00121D0FAF19AE1822B4255FC205
:101D6B00D5C204121CCAFF24D0B40A00501A75F055
:101D7B000A781630D50508B6FF0106C6A426F6204C
:101D8B00D5047002D20380D924CFB41A00EF5004CB
:101D9B00C2E5D204022001D20180C6D20080C0D29B
:101DAB000280BCD2D580BAD20580B47F20121CFE33
:101DBB002002077401B5160040F1121CBBFF121C68
:101DCB00FE021D38D208D2068095121CBBFB121CDA
:101DDB00BBFA121CBBF94A4B700679FF7A207BFFCA
:101DEB0020022EE516602A7E008E82758300120D6E
:101DFB009560060EEE651770F0C2D5EBC0E0EAC039
:101E0B00E0E9C0E0EE122062D0E0F9D0E0FAD0E0D9
:101E1B00FB120D7CFF60AAEBC0E0EAC0E0E9C0E07A
:101E2B00121CFED0E02401F9D0E03400FAD0E0FB24
:101E3B00E5170460DCD517D98087D20280A2122067
:101E4B004460F7E517700104120BCAA917600DE582
:101E5B0017600914F5171220ECEF60F3EA30E70274
:101E6B00F404C3995079EAF425170430E701E4042C
:101E7B00F517800D12204460C1EA05172517120BC8
:101E8B00CAEA9003B1F030E701E4251704D5170433
:101E9B0020050114122062E4C0E01220EC9003B183
:101EAB00E0601320E70714F0121CE6802204F0D048
:101EBB00E014C0E07F00121CE6E5176007121CDD82
:101ECB001517800B300503121CDDD0E0021D38D036
:101EDB00E00480C4122044609EE51704120BCA90E4
:101EEB0003B1EAF0E5172005026001042404122077
:011EFB006284
:101EFC0074FF04C0E01220EC121CE6E5172005026A
:101F0C006003121CDDD0E0B517E87F45121CF09081
:101F1C0003B1E07F2B30E7047F2DF404C0E0121CEA
:101F2C00FED0E075F00A84C0F0121CE7D0E0121C61
:101F3C00E7021D38791080027908C206C2088008B1
:101F4C00D2D5790A8004790AC2D5E517047002F556
:101F5C0017E4FAFDFEFF121CBBFC7B0820011312D8
:101F6C001CBBFD7B1030000A121CBBFE121CBBFFFD
:101F7C007B20EC3382D592D55013C3E43000069FFE
:101F8C00FFE49EFEE42001039DFDE49CFCE4CBF801
:101F9C00C201EC700CCFCECDCCE824F8F870F380F5
:101FAC0017C3EF33FFEE33FEED33FDEC33FCEB33B5
:101FBC00FB994002FB0FD8E9EB300105F8D0E0C4E7
:101FCC0048B201C0E00AEC4D4E4F78207B0070C245
:101FDC00EAB5170040BCC0E0122064D0F0D0E0207D
:101FEC000104C4C0E0C4B201C0F0121CE7D0F0D5AB
:101FFC00F0EB021D381210DF1DD5531F40581DA6E3
:10200C004C1DA2421F444F1F4C441F4C491DBB4347
:10201C001F52551E7F461EDF451E4947211F501D6E
:10202C00AA2D1DAE2E1DD12B1DB2231DCF20210894
:10203C002A1D6A4800001DC9E517B4FF0375170671
:10204C00121CBBFC121CBBFD121CBBFE121CBBFFEA
:10205C009003AA020C07790AA2D5200314300509B3
:10206C00B910020404B9080104A2D52006025001DB
:10207C00042002689202B516005034C0E07F203074
:10208C0003197F30A20272067205500F1220BBC2D8
