:024384003C4EAD
:024386004419D8
:02438800455B93
:02438A004327C7
:02438E0042DC0F
:02439200436E78
:024394003D6882
:02439600417074
:0A35C0004205C200004205C40000ED
:103C4E00122BAF7F04123DD77F01121B0C7F031284
:103C5E001B0C7F05121B0C7F07121B0C7F08121BFF
:0B3C6E000C7F09121B0CE4FF021B95E9
:10441900E49002B6F0E4FBFA7D287F80121C1E802E
:01442900F49E
:01455B00223D
:10432700900343740AF0900343E004F0E4FBFA7D42
:08433700C87F80121C1E80EEFD
:1042DC00900344120EB900000000123990E4FBFA6E
:0942EC007D027F80121C1E80F18E
:10436E007F081240385003124547E4FBFA7D0A7F5E
:06437E0080121C1E80EA03
:103D6800D2081236C3E4FBFA79487842120A9E5008
:103D780005124547800312454CE4FBFA7D017F801C
:053D8800121C1E80DB8F
:10417000D2081236C39003717401F0123B8BE4FB3A
:0A418000FA7D287F80121C1E80E6E5
:103C22009002A07440F0A37402F0A3120EAD9002B1
:103C3200A77401F0E4A3F0A304F0A3F0E4A3F0A3BB
:0C3C4200F07B017A0279A07F01020F20C4
:102BAF00E490028CF0A3F0FF7EC27D01FC123C2268
:102BBF00123C79123F80E4FD7F011240E512408FF5
:102BCF00E490028EF0A37480F07B017A02798E7FFD
:102BDF000312225ED2B743BA80E4900290F0A3F0C2
:102BEF00A3F0A304F0E4A3F0A3F0A3F0A3F0A3F0E9
:102BFF00A3F0A3740FF0E4A3F0A3F0A3F0A3F0A34A
:102C0F00F07B017A027990FF12160053BA7F7D1084
:102C1F00E4FF12445D7D327C00E4FF1238799002AC
:102C2F00A1120EB93DCCCCCDE4FF122C97E4FF12CC
:102C3F003CA190028CE4F0A37464F090028CE0FC51
:102C4F00A3E0FDC394E8EC648094835038EC120B3E
:102C5F0010E4FBFA797A7844120A019002A1120E5D
:102C6F00ADE4FF122C977FC812448F7FC812448F98
:102C7F007FC812448F90028DE004F0700690028C92
:072C8F00E004F080B6D2AFB3
:012C9600221B
:01455C00223C
:01455D00223B
:01455E00223A
:01455F002239
:014560002238
:03000B0002199F38
:10199A00C2AF80FE3212199E85D00B75D008AAE01C
:1019AA00C28CE58A2443F58AE58C34F6F58CD28C10
:1019BA00EC240FF8E6BC090274FFC39581B4140045
:1019CA0040CE790A782216E608700BC2AFE630E1FB
:1019DA00034418F6D2AF08D9EDEA8BD030090122B8
:1019EA00D50DFCC0E0C0D0C0F0C083C082C000C02A
:1019FA0001C002C003C004C005C006C007E50C232D
:101A0A002423F87440C2AF46F6D2AFD209E50CFFE0
:101A1A00232423F80F0808BF0A047F007823E6303E
:101A2A00E4F200E50CC39F5020050C740E250CF857
:101A3A00E6FDA68108E6AE0CBE090274FFCDF8E801
:101A4A006D60E008E6C0E080F6E50CD39F4027E52C
:101A5A000C240FF8E6AE0CBE090274FFFD18E6CDA1
:101A6A00F8E5816D6006D0E0F61880F5E50C240EE5
:101A7A00C8F6150C80D3750D0AE50C232423F87FCC
:101A8A0004C2AFE610E61E30E00310E20C7F00301D
:101A9A00E10730E3047F0854F4547CC6D2AF548083
:101AAA004207C20922F6D2AFD007D006D005D00429
:101ABA00D003D002D001D000D082D083D0F0D0D0D1
:0E1ACA00D0E0C20922780EA68174096006FFE2
:101AD8000876FFDFFB7F0AE47822F608F608DFFACB
:101AE80078237630904384740193C0E0E493C0E097
:101AF800750D0A438901758A3C758CF6D28CD2AF74
:041B0800D2A9220933
:10296800AB07EB75F039A4249AF582E43403F583B8
:10297800120EB900000000EB75F039A4249EF58210
:10298800E43403F583120EB900000000EB75F0394A
:10299800A424B2F582E43403F583120EB9000000D2
:1029A80000EB75F039A424AEF582E43403F5831204
:1029B8000EB900000000900552E0FCA3E0FDA3E082
:1029C800FEA3E0FFEB75F039A424A2F582E43403FA
:1029D800F583120EAD900556E0FCA3E0FDA3E0FEE2
:1029E800A3E0FFEB75F039A424A6F582E43403F5DF
:1029F80083120EAD90055AE0FCA3E0FDA3E0FEA310
:102A0800E0FFEB75F039A424AAF582E43403F583DA
:102A1800120EADEB75F039A424A2F582E43403F567
:102A280083E0FCA3E0FDA3E0FEA3E0FFEB75F03933
:102A3800A424BAF582E43403F583120EADEB75F0E5
:102A480039A424A6F582E43403F583E0FCA3E0FD71
:102A5800A3E0FEA3E0FFEB75F039A424B6F582E409
:102A68003403F583120EADEB75F039A424AAF58270
:102A7800E43403F583E0FCA3E0FDA3E0FEA3E0FF5C
:102A8800EB75F039A424BEF582E43403F583020E15
:012A9800AD90
:1043D100EF75F039A424CAF582E43403F58374013E
:0243E100F022C8
:10442A00EF75F039A424CAF582E43403F583E4F085
:01443A00225F
:101EB0009005DAEFF075F039A424CAF582E4340312
:101EC000F583E070030220899005DAE0FF75F039B0
:101ED000A42496F582E43403F583E0F8A3E0F9A3A3
:101EE000E0FAA3E0FBEF75F039A42492F582E43424
:101EF00003F583E0FCA3E0FDA3E0FEA3E0FF1208EE
:101F0000039005DAE0FB75F039A4249AF582E434F5
:101F100003F583120EADEB75F039A424AEF582E41F
:101F20003403F583C083C082E0FCA3E0FDA3E0FEA0
:101F3000A3E0FF9005DAE075F039A4249AF582E475
:101F40003403F583E0F8A3E0F9A3E0FAA3E0FB1281
:101F50000807D082D083120EAD9005DAE0FF75F04D
:101F600039A424AEF582E43403F583E0F8A3E0F964
:101F7000A3E0FAA3E0FBEF75F039A424A6F582E410
:101F80003403F583E0FCA3E0FDA3E0FEA3E0FF1231
:101F900008F8C004C005C006C0079005DAE0FF7568
:101FA000F039A4249AF582E43403F583E0F8A3E041
:101FB000F9A3E0FAA3E0FBEF75F039A424A2F582BF
:101FC000E43403F583E0FCA3E0FDA3E0FEA3E0FF1F
:101FD0001208F8D003D002D001D000120807C004C4
:101FE000C005C006C0079005DAE0FF75F039A424EB
:101FF0009EF582E43403F583E0F8A3E0F9A3E0FA68
:10200000A3E0FBEF75F039A4249AF582E43403F5DC
:1020100083E0FCA3E0FDA3E0FEA3E0FF1208039031
:1020200005DAE075F039A424AAF582E43403F583D7
:10203000E0F8A3E0F9A3E0FAA3E0FB1208F8D0036C
:10204000D002D001D0001208079005DAE0FB75F04D
:1020500039A424B2F582E43403F583120EADEB7596
:10206000F039A4249AF582E43403F583E0FCA3E07C
:10207000FDA3E0FEA3E0FFEB75F039A4249EF582FA
:0A208000E43403F583120EADD32201
:103DF900AB07900596E0FCA3E0FDA3E0FEA3E0FF7E
:103E0900EB75F039A424C6F582E43403F583020E78
:013E1900ADFB
:103E1A00AB0790059BE0FCA3E0FDA3E0FEA3E0FF57
:103E2A00EB75F039A424C2F582E43403F583020E5B
:013E3A00ADDA
:103E3B00AB079005A0E0FCA3E0FDA3E0FEA3E0FF31
:103E4B00EB75F039A42496F582E43403F583020E66
:013E5B00ADB9
:103E5C00AB079005A5E0FCA3E0FDA3E0FEA3E0FF0B
:103E6C00EB75F039A424A6F582E43403F583020E35
:013E7C00AD98
:103E7D00AB079005AAE0FCA3E0FDA3E0FEA3E0FFE5
:103E8D00EB75F039A424A2F582E43403F583020E18
:013E9D00AD77
:103E9E00AB079005AFE0FCA3E0FDA3E0FEA3E0FFBF
:103EAE00EB75F039A424AAF582E43403F583020EEF
:013EBE00AD56
:103EBF00AB079005B4E0FCA3E0FDA3E0FEA3E0FF99
:103ECF00EB75F039A42492F582E43403F583020EE6
:013EDF00AD35
:10418A00EF75F039A42492F582E43403F583E0FC58
:0A419A00A3E0FDA3E0FEA3E0FF2276
:1041A400EF75F039A4249AF582E43403F583E0FC36
:0A41B400A3E0FDA3E0FEA3E0FF225C
:1041BE00EF75F039A4249EF582E43403F583E0FC18
:0A41CE00A3E0FDA3E0FEA3E0FF2242
:1041D800EF75F039A424A2F582E43403F583E0FCFA
:0A41E800A3E0FDA3E0FEA3E0FF2228
:1041F200EF75F039A424A6F582E43403F583E0FCDC
:0A420200A3E0FDA3E0FEA3E0FF220D
:10420C00EF75F039A424AAF582E43403F583E0FCBD
:0A421C00A3E0FDA3E0FEA3E0FF22F3
:10422600EF75F039A424B2F582E43403F583E0FC9B
:0A423600A3E0FDA3E0FEA3E0FF22D9
:10424000EF75F039A424AEF582E43403F583E0FC85
:0A425000A3E0FDA3E0FEA3E0FF22BF
:0526FE00900385EDF0E2
:10270300E490038CF0A3F0900388E0FFA3E0900330
:102713008ECFF0A3EFF0900386E0FFA3E090039049
:10272300CFF0A3EFF0E490038AF0A3F0900385E0E9
:10273300FF90038AE0FCA3E0FDC39F7480F8EC6480
:10274300809840030227F8ED25E0FFEC338F82F5F4
:1027530083120CC1FFC390038FE09F90038EE0951B
:10276300F0501D90038BE025E0FF90038AE0338F48
:1027730082F583120CC1FF90038EE5F0F0A3EFF016
:1027830090038BE025E0FF90038AE0338F82F5838B
:10279300120CC1FFD3900391E09F900390E095F05A
:1027A300401D90038BE025E0FF90038AE0338F8286
:1027B300F583120CC1FF900390E5F0F0A3EFF090C6
:1027C300038BE025E0FF90038AE0338F82F58312C9
:1027D3000CC1FFAEF090038DE02FF090038CE03E30
:1027E300F090038BE004F0600302272F90038AE04C
:1027F30004F002272F900390E0FEA3E0FF90038FE5
:10280300E02FFF90038EE03EFEC390038DE09FFF19
:1028130090038CE09EFEF0A3EFF0900385E024FE8E
:10282300FDE434FFFC120C5690038CEEF0A3EFF0A2
:012833002282
:1035CA00602A048A000000000000000000000000D9
:1035DA0000000000000000000000000000000000E1
:0E35EA000000000000000000000000000000D3
:102EB60090037FEBF0A3EAF0A3E9F0900003120B76
:102EC600E3FF90037BE0FBA3E0FAA3E0F9A3E0FEB7
:102ED600F582758300EF120C2290037FE0FBA3E0DE
:102EE600FAA3E0F9900002120BE3FFEE2401FDE4E1
:102EF60033FC90037BE0FBA3E0FAA3E0F98D828C20
:102F060083EF120C2290037FE0FBA3E0FAA3E0F923
:102F1600900001120BE3FFEE2402FDE433FC900364
:102F26007BE0FBA3E0FAA3E0F98D828C83EF120C21
:102F36002290037FE0FBA3E0FAA3E0F9120BCAFF9D
:102F4600EE2403FDE433FC90037BE0FBA3E0FAA34D
:0A2F5600E0F98D828C83EF020C225B
:103B8B00900371E0900377F0122834E4900372F005
:103B9B00900371E0FF123009900372E0FEC39F5057
:103BAB0017748A2EF582E43404F583E0FF123D414D
:083BBB00900372E004F080D8D1
:013BC30022DF
:10283400900373120EAD900377E0FFD3940A400324
:10284400022967EF7003022967EF14B40A004003FA
:1028540002296790286575F003A4C58325F0C58314
:10286400730228830228990228B00228C70228DEAE
:102874000228F402290A02292002293602294C904E
:10288400037B7401F0A37404F0A3748AF0A37401AD
:10289400F0FB02296090037B7401F0A37404F0A39D
:1028A400748AF0A37405F07B0102296090037B74A1
:1028B40001F0A37404F0A3748AF0A37409F07B01FB
:1028C40002296090037B7401F0A37404F0A3748A5A
:1028D400F0A3740DF07B0102296090037B7401F076
:1028E400A37404F0A3748AF0A37411F07B01806CC8
:1028F40090037B7401F0A37404F0A3748AF0A374AE
:1029040015F07B01805690037B7401F0A37404F0EE
:10291400A3748AF0A37419F07B01804090037B7444
:1029240001F0A37404F0A3748AF0A3741DF07B0176
:10293400802A90037B7401F0A37404F0A3748AF0DA
:10294400A37421F07B01801490037B7401F0A374C1
:1029540004F0A3748AF0A37425F07B017A037973DD
:04296400122EB62257
:10300900EFD3940A5003EF70037F002290048A746F
:1030190024F0EF14B40A0040030230AB903033754A
:10302900F003A4C58325F0C5837302305102305AD9
:1030390002306302306C02307502307E0230870242
:1030490030900230990230A290048F7405F07F0607
:10305900229004937409F07F0A22900497740DF06A
:103069007F0E2290049B7411F07F122290049F74AA
:1030790015F07F16229004A37419F07F1A22900488
:10308900A7741DF07F1E229004AB7421F07F2222C9
:103099009004AF7425F07F26229004B37429F07F41
:0530A9002A227F002235
:1043E3009005B8EEF0A3EFF0A3EBF0A3EAF0A3E996
:0243F300F022B6
:0835F800C100C101C102C103C1
:103F80009002A17478F0E49002A0F07B017A0279AB
:0E3F9000A07F0212225ED2A3D2A4D2A5D2A696
:013F9E002200
:0A44E400EF4E7005EE4F24FFB322E7
:10403800EF24F0600F24F0600E24E0600D24387047
:0D4048000BA20022A20122A20222A203224A
:10399000A2A3E4FE33FF1244E4500EA2A3E433FFDB
:1039A0001244E45006D2008002C200A2A4E4FE3316
:1039B000FF1244E45007200106D2018002C201A296
:1039C000A5E4FE33FF1244E45007200206D2028031
:1039D00002C202A2A6E4FE33FF1244E45006200312
:0739E00005D20322C20322FD
:02360000C10AFD
:103C79009002A17405F0E49002A0F07B017A027928
:103C8900A07F0512225E1245477FC812448F124554
:073C99004C7FC812448FD3D9
:013CA0002201
:05454700C2CDD20A22E2
:05454C00D2CDC20A22DD
:103DD70090028CEFF090028CE0FF14F0EF6012126B
:103DE70045477FC812448F12454C7FC812448F80C5
:023DF700E422C4
:03455500A20A2295
:064529009005DBEFF0221B
:103289009005BDEFF07F337E337D737C3FA3E0F87B
:10329900A3E0F9A3E0FAA3E0FB120A9E600C400A3E
:1032A9009005BE120EB93F7333337FCD7ECC7D4C72
:1032B9007C3D9005BEE0F8A3E0F9A3E0FAA3E0FBAA
:1032C900120A9E500A9005BE120EB93D4CCCCD9003
:1032D90005BDE02404FFC007A3E0FCA3E0FDA3E0D3
:1032E900FEA3E0FF9002A1120EADD007122C979019
:1032F90005BEE0FCA3E0FDA3E0FEA3E0FF120B493D
:103309009005BDE025E024C7F582E43405F583EF97
:02331900F022A0
:103FFC009005DCEFF02404FF123CA19005DCE025D9
:0E400C00E024C6F582E43405F5837401F02249
:104055009005DDEFF02404FF123D8D9005DDE02590
:0D406500E024C6F582E43405F583E4F02282
:10447F00EF25E024C6F582E43405F583E024FF221E
:10373D00E490051CF0A37408F07B017A05791C7FD9
:10374D000212225E90051D7404F07B017A05791C2E
:10375D007F0212225ED2A2D2A343BA80E490051E4C
:10376D00F0A3F0A3F0A304F0E4A3F0A3F0A3F0A35F
:10377D00F0A3F0A3F0A3F0A3F0A3F0A3F0A3F0A3A4
:10378D00F07B017A05791E7F021216007B017A0506
:0A379D00791E7F0312160053BA7F55
:0137A70022FF
:05208A009004B4EFF02A
:10208F00E49004C3F0A37480F07B017A0479C37FDA
:10209F000312225ED2B743BA80E49004C5F0A3F0D6
:1020AF00A3F0A304F0E4A3F0A3F0A3F0A3F0A3F034
:1020BF00A3F0A3740FF0E4A3F0A3F0A3F0A3F0A395
:1020CF00F09004B4E0FF7B017A0479C51216005337
:1020DF00BA7F9004B4E0FF7D1012445D9004B4E029
:1020EF00FF7D327C001238799004B5E0FCA3E0FD4F
:1020FF00A3E0FEA3E0FF9004B4E0FB75F025A42459
:10210F0009F582E43404F583120EAD9004B9E0FCB6
:10211F00A3E0FDA3E0FEA3E0FFEB75F025A4240DE3
:10212F00F582E43404F583120EAD9004BDE0FCA3F8
:10213F00E0FDA3E0FEA3E0FFEB75F025A4241BF563
:10214F0082E43404F583120EAD9004C1E0FEA3E0E7
:10215F00FFEB75F025A42415F582E43404F583EE26
:10216F00F0A3EFF0EB75F025A42409F582E4340415
:10217F00F583E0F8A3E0F9A3E0FAA3E0FB9004B441
:10218F00E075F025A4240DF582E43404F583E0FC1A
:10219F00A3E0FDA3E0FEA3E0FF120803C004C00507
:1021AF00C006C0079004B4E075F025A42415F5828D
:1021BF00E43404F583E0FCA3E0FDE4120B10A80463
:1021CF00A905AA06AB07D007D006D005D004120A7E
:1021DF00019004B4E0FB75F025A42411F582E434DA
:1021EF0004F583120EADEB75F025A42415F582E4EA
:1021FF003404F583E0FCA3E0FDE4120B10A804A95E
:10220F0005AA06AB079004B4E075F025A4241BF5CE
:10221F0082E43404F583E0FCA3E0FDA3E0FEA3E039
:10222F00FF120A019004B4E0FB75F025A4241FF5FA
:10223F0082E43404F583120EADEB75F025A4241758
:0E224F00F582E43404F583120EB9000000009D
:01225D00225E
:052A9900900569EFF05B
:102A9E00A3E0FCA3E0FDA3E0FEA3E0FF900569E048
:102AAE00FB75F025A42404F582E43404F583120E9C
:102ABE00ADEB75F025A4241FF582E43404F583E014
:102ACE00F8A3E0F9A3E0FAA3E0FB90056AE0FCA30B
:102ADE00E0FDA3E0FEA3E0FF120A01900569E07598
:102AEE00F025A42411F582E43404F583E0F8A3E084
:102AFE00F9A3E0FAA3E0FB1208F8900569E075F07F
:102B0E0025A42409F582E43404F583E0F8A3E0F962
:102B1E00A3E0FAA3E0FB120807900569E0FB75F04D
:102B2E0025A42425F582E43404F583120EADEB754D
:102B3E00F025A42425F582E43404F583E0FCA3E01B
:102B4E00FDA3E0FEA3E0FFE4FBFA79A07841120AB0
:102B5E000190056E120EAD90056EE0FCA3E0FDA394
:102B6E00E0FEA3E0FF9002A1120EAD900569E0FF1A
:102B7E00122C97900569E0FB75F025A42404F582CC
:102B8E00E43404F583E0FCA3E0FDA3E0FEA3E0FF44
:102B9E00EB75F025A42417F582E43404F583020EB8
:012BAE00AD79
:10425A00EF75F025A42417F582E43404F583E0FC15
:0A426A00A3E0FDA3E0FEA3E0FF22A5
:103EE0009005DEEFF0123CA19005DEE075F025A410
:103EF0002423F582E43404F583E4F0A304F0D32210
:103F9F009005DFEFF0123D8D9005DFE075F025A461
:0F3FAF002423F582E43404F583E4F0A3F0D32255
:1031510090058FEFF075F00EA424E0F582E43404BD
:10316100F583E0FEA3E0FF7C007D63120C56EF24A3
:1031710001FFE43EFE900594E0FD7C00120C44AAA0
:1031810006AB0790058FE075F00EA424E0F582E40C
:103191003404F583E0FEA3E0FF7D63120C56C3EB1C
:1031A1009FFDEA9EFCC004C0059004DFE0FCE41230
:1031B1000B15900590E0F8A3E0F9A3E0FAA3E0FB7A
:1031C1001208F89004DBE0F8A3E0F9A3E0FAA3E029
:1031D100FB120A01120B49E4FCFD90057D120EADB4
:0E31E10090058FE0FFD005D004123938D322BC
:103BC4009005E0EBF0C007AE04AF057C017D681200
:103BD4000C44AC06AD07E4120B10900590120EAD28
:0F3BE4009005E0E0900594F0D007123151D32204
:10443B00EF75F00EA424D7F582E43404F583E0FF86
:01444B00224E
:074514009005E1EFF0D32256
:1040C9009005E2EFF0123F209005E2E075F00EA4B2
:0C40D90024D7F582E43404F583E4F022DF
:104072009005E3EFF0123F009005E3E075F00EA427
:0D40820024D7F582E43404F5837401F022A4
:07451B009005E4EFF0D3224C
:074522009005E5EFF0D32244
:104155009004DB120EB93FE666669004DF7408F042
:0B416500A3741AF0A37486F00237A8C0
:0F449F0074CE2FF582E43405F5837401F0D32237
:0E44AE0074CE2FF582E43405F583E4F0D322BA
:014561002237
:1040E5009002A0EFF0A3EDF0A37401F0E4A3F0A318
:0C40F500F0A3F07B017A0279A00239E709
:1036C300E4900381F0300863F0E4FF1238DA9003EA
:1036D30081E025E0246DF582E43403F583EEF0A365
:1036E300EFF0900381E004F0E0C3940A40DB7B0138
:1036F3007A03796D9003867404F0A3E4F0A3F0A336
:10370300F07D0A1226FEAC06AD07E4120B109005FD
:1037130072120EAD900572E0FCA3E0FDA3E0FEA3E0
:10372300E0FFA3120EAD9005728003900576E0FCD6
:09373300A3E0FDA3E0FEA3E0FF0A
:01373C00226A
:104101009005E6EFF0D2C87F0112448F9005E6E0FA
:0C411100F5C0D2CA7F0112448FC2CA223E
:103BF3009005D1EBF0A3EAF0A3E9F09005D1E0FB47
:103C0300A3E0FAA3E0F9120BCAFFD39400400F120A
:0F3C130041019005D2E475F001120CAB80DD2267
:10408F0012401AD2CCC2CAC2C97F3812411D7F0C4E
:0D409F0012411D7F0612411D7F0102411DCF
:10411D009002A0EFF0C2C87F0112448FD2CA900264
:0C412D00A0E0F5C07F0112448FC2CA223E
:10401A0053C9EF43CA1053C9FE53CAFE53C9FD53CD
:0E402A00CAFD53C9FB53CAFBE4F5B3F5B4223B
:0842F5009005CAECF0A3EDF006
:1042FD00E4A3F0A3EFF07B017A0579CCE4FF022271
:01430D005E51
:05444C009005E7EFF010
:0B445100E4FF00000FEFB408F90000CA
:01445C00223D
:0736020044055E000000001A
:1039380090057AEFF0A3ECF0A3EDF090057BE0FCA6
:10394800A3E0FD7F0512387990057BE0FEA3E0FF38
:1039580090057AE0FB75F007A42466F582E4340547
:10396800F583EEF0A3EFF090057DE0FCA3E0FDA366
:10397800E0FEA3E0FFEB75F007A42462F582E434CF
:0839880005F583120EADD322F8
:103F00009005E8EFF07F05123CA19005E8E075F020
:103F100007A42468F582E43405F5837401F0D32204
:103F20009005E9EFF02405FF123D8D9005E9E0755D
:103F3000F007A42468F582E43405F583E4F0D32285
:1043F500EF75F007A42468F582E43405F583E0241D
:02440500FF2294
:1037A800E490052EF0A37480F07B017A05792E7FD2
:1037B8000112225ED2979002A1120EB93F000000BA
:1037C8007F05122C9743BA80E4900530F0A3F0A34C
:1037D800F0A304F0E4A3F0A3F0A3F0A3F0A3F0A3F4
:1037E800F0A3740FF0E4A3F0A304F0E4A3F0A3049F
:1037F800F0E4A3F07B017A0579307F0512160053B7
:09380800BA7F7D107F0502445DCA
:0300B300023811FF
:10381100C0E0C0F0C083C082C0D075D000C000C07D
:1038210001C002C003C004C005C006C007E5F660C0
:103831002C53F6DF90055E120E78900562E0F8A336
:10384100E0F9A3E0FAA3E0FBD3120E24500F900598
:1038510062120EB9000000007F05123D8DD007D025
:1038610006D005D004D003D002D001D000D0D0D0F2
:0838710082D083D0F0D0E032D8
:1039E700120BCAF59D900001120BE3FFE5BC549F33
:1039F7004FF5BC900002120BE3B4010543BC808075
:103A07000353BC7F900003120BE3B40105439720D7
:103A170080035397DF900005120BE3B40104D2AD86
:103A27008002C2AD900004120BE3B40103D2BD22A1
:033A3700C2BD22EB
:0C44D800EFB4010443BC802253BC7F22DF
:1038DA00EFD3940740028051E4F5BDF5BEE5BC5430
:1038EA00E044084FF5BC00000000E4FBE5BC30E40E
:1038FA003353BCEFE59730E509E5BD5403ADBEFC93
:10390A00801DAFBD7C00AD07ED7E007802C333CECB
:10391A0033CED8F9FFE5BE5403FDEEFCEF4DFDAF03
:0D392A0005AE04220BEBB4FAC37E047F004F
:01393700226D
:03002B000245513A
:0445510053BCEF3236
:0F448F007D367C07ED1D70011C144C70F7DFF1BA
:01449E0022FB
:03455800A20B2291
:10225E00EFD3940540037F0122120BCAFED39403E1
:10226E0040037F0222EF7041EE700B900001120BC3
:10227E00E3F452935294120BCAB4010B9000011264
:10228E000BE34293F45294120BCAFEB4020A90006E
:10229E0001120BE342934294EEB4030D900001122F
:1022AE000BE3FEF45293EE4294EF64017043120B73
:1022BE00CAFE700B900001120BE3F452915292EE93
:1022CE00B4010B900001120BE34291F45292120BE7
:1022DE00CAB4020A900001120BE342914292120B11
:1022EE00CAB4030D900001120BE3FEF45291EE42BC
:1022FE0092EF64027043120BCAFE700B9000011233
:10230E000BE3F452955296EEB4010B900001120BB2
:10231E00E34295F45296120BCAB4020A90000112CF
:10232E000BE342954296120BCAB4030D90000112B4
:10233E000BE3FEF45295EE4296EF64037043120BDC
:10234E00CAFE700B900001120BE3F452B152B2EEC2
:10235E00B4010B900001120BE342B1F452B2120B16
:10236E00CAB4020A900001120BE342B142B2120B40
:10237E00CAB4030D900001120BE3FEF452B1EE420B
:10238E00B2EF64047043120BCAFE700B9000011280
:10239E000BE3F452B352B4EEB4010B900001120BE6
:1023AE00E342B3F452B4120BCAB4020A9000011203
:1023BE000BE342B342B4120BCAB4030D90000112E8
:1023CE000BE3FEF452B3EE42B4EF64057043120B0E
:1023DE00CAFF700B900001120BE3F452C952CAEF00
:1023EE00B4010B900001120BE342C9F452CA120B56
:1023FE00CAB4020A900001120BE342C942CA120B80
:10240E00CAB4030D900001120BE3FFF452C9EF4260
:04241E00CA7F00224F
:102E0800EF7034D3ED9498EC940340047C037D98E0
:102E1800C3ED9450EC940050047C007D50C2DE90C9
:102E28000510ECF0A3EDF0C374E89D90050BF07469
:102E3800039C90050A8073EF64017034D3ED9468A5
:102E4800EC940B40047C0B7D68C3ED9450EC94002B
:102E580050047C007D50C2DE900512ECF0A3EDF02A
:102E6800C374B89D90050DF0740B9C90050C803AC6
:102E7800EF64027038D3ED9480EC940740047C072B
:102E88007D80C3ED9450EC940050047C007D50C2CA
:102E9800DE900514ECF0A3EDF0AE04FFC374D09FF0
:0E2EA80090050FF074079E90050EF0D2DE220A
:102422009005D4EBF0A3EAF0A3E9F0AD07EDD39465
:102432000340030225C0ED6403704CC2DEF5F9F5DA
:10244200E99005D4E0FBA3E0FAA3E0F9120BCAFF7E
:10245200E5A254CF4FF5A2900001120BE3FFE5D99C
:1024620054F14FF5D9900004120BE35401FFE5D962
:1024720054FE4FF5D9900005120BE3B40104D2BF0C
:102482008002C2BFD2DE229005D4E0FBA3E0FAA311
:10249200E02404F9E43AFA120BCA5431120C1090F7
:1024A20005D4E0FBA3E0FAA3E0F9900002120BE3EB
:1024B200C39448400FE92404F9E43AFA120BCA54CF
:1024C200CF120C10ED704F9005D4E0FBA3E0FAA3FD
:1024D200E0F9900004120BE3FF900002120BE3FEFE
:1024E2004FF5DA900003120BE3FFE5F2543F4FF58C
:1024F200F2900006120CC1FBAAF0900510EAF0A3BC
:10250200EBF0C204900507EEF0900516EAF0A3EB9B
:10251200F0F5EAEAF5FAED6401704F9005D4E0FBBC
:10252200A3E0FAA3E0F9900004120BE3FF9000028B
:10253200120BE3FE4FF5DB900003120BE3FFE5F312
:10254200543F4FF5F3900006120CC1FBAAF0900520
:1025520012EAF0A3EBF0C205900508EEF090051820
:10256200EAF0A3EBF0F5EBEAF5FBED6402704F90B5
:1025720005D4E0FBA3E0FAA3E0F9900004120BE318
:10258200FF900002120BE3FE4FF5DC900003120BEA
:10259200E3FFE5F4543F4FF5F4900006120CC1FD41
:1025A200ACF0900514ECF0A3EDF0C206900509EE34
:0F25B200F090051AECF0A3EDF0F5ECECF5FC223F
:1025C1009005D8ECF0A3EDF09005D7EFF0705ED355
:1025D100EB9464EA940040047A007B64C3EB9401B9
:1025E100EA940050047A007B01C2DE9005D8E0FE37
:1025F100A3E0FFAD03AC02120C447C007D64120C1D
:1026010056900510EEF0A3EFF07C007D64AF03AEB1
:1026110002120C56C374019FFFE49EFE9005D8E0A0
:10262100FCA3E0FD120C4490050A0226F69005D7A2
:10263100E06401705DD3EB9464EA940040047A0095
:102641007B64C3EB9401EA940050047A007B01C2DD
:10265100DE7C007D64AF03AE02120C569005D8E01B
:10266100FCA3E0FD120C44900512EEF0A3EFF07C08
:10267100007D64AF03AE02120C56C374019FFFE4E8
:102681009EFE9005D8E0FCA3E0FD120C4490050CE1
:1026910080639005D7E064027062D3EB9464EA949E
:1026A1000040047A007B64C3EB9401EA9400500477
:1026B1007A007B01C2DE7C007D64AF03AE02120CA6
:1026C100569005D8E0FCA3E0FD120C44900514EEF1
:1026D100F0A3EFF0AE02AF037C007D64120C56C391
:1026E10074019FFFE49EFE9005D8E0FCA3E0FD127B
:0D26F1000C4490050EEEF0A3EFF0D2DE22B7
:03003B000230AEE2
:1030AE00C0E0C083C082C0D075D000C006C007305B
:1030BE00D82AC2D830A505900510800390050AE0E5
:1030CE00FEA3E0FF900517E02FF0900516E03EF00E
:1030DE00900516E0FEA3E0F5EAEEF5FA30D92AC225
:1030EE00D930A605900512800390050CE0FEA3E0F2
:1030FE00FF900519E02FF0900518E03EF0900518AE
:10310E00E0FEA3E0F5EBEEF5FB30DA2AC2DA30A7EB
:10311E0005900514800390050EE0FEA3E0FF9005D8
:10312E001BE02FF090051AE03EF090051AE0FEA38A
:10313E00E0F5ECEEF5FCD007D006D0D0D082D083EF
:03314E00D0E0329C
:051600009002A0EFF0D4
:10160500E4A3F09002A1E0FFC39406505AEF75F0F1
:101615000AA4244EF582E43404F583120EB90000C1
:1016250000009002A1E0FF75F00AA42452F582E4BF
:101635003404F583E4F0EF75F00AA42453F582E44D
:101645003404F583120EB9000000009002A1E07584
:10165500F00AA42457F582E43404F5837401F0906C
:1016650002A1E004F0809C43BA80120BCAB40105C4
:1016750043F180800353F17F900001120BE3B40125
:10168500149002A0E0FF7401A807088002C333D8B4
:10169500FC42F180139002A0E0FF7401A8070880C6
:1016A50002C333D8FCF452F1900002120BE3B401EB
:1016B5000543F540800353F5BF900003120BE3B4D7
:1016C50001149002A0E0FF7401A807088002C3334B
:1016D500D8FC42F580139002A0E0FF7401A807082A
:1016E5008002C333D8FCF452F5900004120BE3B426
:1016F500010575F720800353F7DF900005120BE312
:10170500B4010575F710800353F7EF900006120B2F
:10171500E3B4010575F708800353F7F79000071246
:101725000BE3B4010575F704800353F7FB9000083C
:10173500120BE3B4010575F702800353F7FD900022
:1017450009120BE390FFF27006E054EFF08004E01D
:101755004410F090FFF2C083C082E0FF90000A12AF
:101765000BE3FEEF4ED082D083F09002A0E0146030
:101775007214700302183B14700302188E14700360
:101785000218E11470030219322405600302198955
:1017950090000B120BE390FF047006E054F7F08005
:1017A50004E04408F090000C120BE390FF04B40130
:1017B50006E04404F08004E054FBF090000D120BA9
:1017C500E390FF04B40106E04402F08004E054FD18
:1017D500F090000E120BE390FF04B4010302197F91
:1017E50002198590000B120BE390FF147006E0546C
:1017F500F7F08004E04408F090000C120BE390FF32
:1018050014B40106E04404F08004E054FBF09000B9
:101815000D120BE390FF14B40106E04402F08004BE
:10182500E054FDF090000E120BE390FF14B4010399
:1018350002197F02198590000B120BE390FF2470AB
:1018450006E054F7F08004E04408F090000C120B19
:10185500E390FF24B40106E04404F08004E054FB67
:10186500F090000D120BE390FF24B40106E0440252
:10187500F08004E054FDF090000E120BE390FF247D
:10188500B4010302197F02198590000B120BE39036
:10189500FF347006E054F7F08004E04408F090004F
:1018A5000C120BE390FF34B40106E04404F080040D
:1018B500E054FBF090000D120BE390FF34B40106E9
:1018C500E04402F08004E054FDF090000E120BE3BA
:1018D50090FF34B4010302197F02198590000B12A1
:1018E5000BE390FF447006E054F7F08004E04408F1
:1018F500F090000C120BE390FF44B40106E04404A1
:10190500F08004E054FBF090000D120BE390FF44CF
:10191500B40106E04402F08004E054FDF090000EAE
:10192500120BE390FF44B40102804F805390000BEB
:10193500120BE390FF547006E054F7F08004E04486
:1019450008F090000C120BE390FF54B40106E0443C
:1019550004F08004E054FBF090000D120BE390FFBF
:1019650054B40106E04402F08004E054FDF0900018
:101975000E120BE390FF54B40106E04401F080041D
:10198500E054FEF090000F120BE3B4010443F58020
:041995002253F57F65
:01199900222B
:10427400EF75F00AA4244EF582E43404F583E0FCDF
:0A428400A3E0FDA3E0FEA3E0FF228B
:10428E00EF75F00AA42453F582E43404F583E0FCC0
:0A429E00A3E0FDA3E0FEA3E0FF2271
:103879009002A0ECF0A3EDF0AB079002A0E0FEA34C
:10388900E0FFE4FCFDEB75F00AA4244EF582E43474
:1038990004F583120EAD43BA8053F57FEB75F00A38
:1038A900A42457F582E43404F583E0FF7E009002F6
:1038B900A0E0FCA3E0FD120C44AB07AA06E4F9F86A
:1038C900FF7E367D6E7C01123AC912433F53BA7F9F
:0138D90022CC
:102C97009002A0EFF0FBA3E0FCA3E0FDA3E0FEA3FE
:102CA700E0FFEB75F00AA42453F582E43404F583BE
:102CB700120EAD43BA80EB75F00AA42457F582E4EF
:102CC7003404F583E0FFE4FCFDFEEB75F00AA42471
:102CD7004EF582E43404F583E0F8A3E0F9A3E0FAC3
:102CE700A3E0FB120CF9A804A905AA06AB077F000D
:102CF7007E367D6E7C01120D84E4120B0B9002A0D0
:102D0700E075F00AA42453F582E43404F583E0F86F
:102D1700A3E0F9A3E0FAA3E0FB1208F8E4FBFA79D1
:102D27002078411208F8E4FBFA79A07840120807E6
:102D3700E4FBFA79207841120A01120B49AB07AA82
:102D4700069002A0E0FFE4FDFC1231EF53BA7F22A8
:10445D00EF75F00AA42457F582E43404F583EDF0EA
:01446D00222C
:10446E00EF75F00AA42457F582E43404F583E0FFD7
:01447E00221B
:0A44EE0043BA8043F58053BA7F22E1
:0A44F80043BA8053F57F53BA7F22C8
:103CA10043BA807401A807088002C333D8FC42F5E7
:103CB100EF75F00AA42452F582E43404F58374010B
:083CC100F043F58053BA7F22A5
:103D8D0043BA807401A807088002C333D8FCF452EB
:103D9D00F5EF75F00AA42452F582E43404F583E4BA
:053DAD00F053BA7F2273
:10440700EF75F00AA42452F582E43404F583E0241E
:02441700FF2282
:10433F00D3E49F74809E400D90FFF1EFF0EE90FF5D
:08434F00F0F07F00227F012243
:1031EF00EF14602814603A14604C14605E14607021
:1031FF002405600302328690FF01EDF0EC90FF0092
:10320F00F090FF03EBF0EA90FF02806790FF11ED63
:10321F00F0EC90FF10F090FF13EBF0EA90FF1280AC
:10322F005290FF21EDF0EC90FF20F090FF23EBF098
:10323F00EA90FF22803D90FF31EDF0EC90FF30F0EF
:10324F0090FF33EBF0EA90FF32802890FF41EDF0D2
:10325F00EC90FF40F090FF43EBF0EA90FF428013B9
:10326F0090FF51EDF0EC90FF50F090FF53EBF0EA30
:0A327F0090FF52F07F00227F012231
:102D570054696D65723120696E697469616C697A4D
:102D6700696E672073756363656564200A0054693B
:102D77006D65723120696E697469616C697A696E13
:102D870067206661696C6564200A0054696D657225
:102D97003320696E697469616C697A696E6720733B
:102DA700756363656564200A0054696D6572332035
:102DB700696E697469616C697A696E6720666169B1
:102DC7006C6564200A0054696D65723420696E6908
:102DD7007469616C697A696E672073756363656589
:102DE70064200A0054696D65723420696E697469DC
:102DF700616C697A696E67206661696C6564200A2F
:012E070000CA
:103609004104F8024104F9024204FA00004204FCB0
:1036190000004204F400004204F2000041050600E3
:103629004104F1004104F7004104F6004404FE009E
:0A363900000000440502000000003C
:102F6000E4900550F0900540F0A3F0A304F0E4A332
:102F7000F0A3F0900547F090054574A2F0A37440CB
:102F8000F0E4900548F0A3F0A304F0E4A3F0A3F06C
:102F900090054F04F090054D74FFF0A37410F07F7E
:102FA00001121C7D900550EFF070087BFF7A2D799F
:102FB00057800A900550E07BFF7A2D7975124357B0
:102FC0007F03121C7D900550EFF070087BFF7A2D77
:102FD0007992800A900550E07BFF7A2D79B01243F8
:102FE000577B017A0579487F04121C83900550EFC6
:102FF000F070087BFF7A2D79CD800A900550E07B38
:08300000FF7A2D79EB12435712
:0130080022A5
:103DB2009004F8E0601EA3E0601AEF24FE600B049A
:103DC20070129004FEECF0A3EDF0AF05900502EC4A
:053DD200F0A3EFF02258
:1042A800EF24FE600804700E9004FE80039005025F
:0A42B800E0FEA3E0FF22E4FEFF2277
:10413900EF24FE600C047013900500ECF0A3EDF081
:0C41490022AF05900504ECF0A3EFF0227B
:1042C200EF24FE600804700E900500800390050440
:0A42D200E0FEA3E0FF22E4FEFF225D
:10430E00EF24FE600A047010C28E9004F8800653EB
:09431E00D1F79004F97402F022B9
:1040AC00EF24FE600D0470149004F8E07002D3222B
:0D40BC00C3229004F9E07003D38001C322F9
:103FBE00EF24FE600E0470169004F8E0B40102D3F4
:0F3FCE0022C3229004F9E0B40103D38001C3227F
:103FDD00EF24FE600E0470169004F8E0B40202D3D4
:0F3FED0022C3229004F9E0B40203D38001C3225F
:103F4000AE071240AC4018EF24FE600B047010D294
:103F50008EE49004F8F02243D108E49004F9F022B2
:0E44BC00AE07123FBE5005123F40D322C3226E
:094502009004F4E0FEA3E0FF22A6
:09450B009004F2E0FEA3E0FF229F
:06452F00900506E0FF22EA
:064535009004F1E0FF22FA
:06453B009004F7E0FF22EE
:064541009004F6E0FF22E9
:03001B00023A8224
:103A8200C0E0C0F0C083C082C0D075D000C000C00A
:103A9200069004FAE475F001120CABFED39004FF19
:103AA200E095F09004FEE09E500EC28E9004FAE47F
:103AB200F0A3F09004F804F0D006D000D0D0D08269
:073AC200D083D0F0D0E03208
:03009B00023A3AEC
:103A3A00C0E0C0F0C083C082C0D075D000C000C052
:103A4A00069004FCE475F001120CABFED39005035A
:103A5A00E095F0900502E09E500F53D1F79004FCD8
:103A6A00E4F0A3F09004F904F0D006D000D0D0D04E
:083A7A0082D083D0F0D0E032CD
:0300A3000233A77E
:1033A700C0E0C0F0C083C082C0D075D000C000C0EC
:1033B70006C2AF9004F4E475F00A120CABFEC3E545
:1033C700F094E8EE940340519004F4E4F0A3F090F5
:1033D70004F275F001120CABFEC3E5F094E8EE942D
:1033E7000340369004F2E4F0A3F0900506E004F001
:1033F700943C4025E4F09004F1E004F0943C40193B
:10340700E4F09004F7E004F09418400DE4F0900421
:10341700F6E004F0B4FF02E4F0D2AFD006D000D05B
:0A342700D0D082D083D0F0D0E03284
:061C7D007B017A057940AD
:101C8300AD07EDD3940440037F0122ED7073120B73
:101C9300CAFED3940340037F0222C28CC2A9C2B9F5
:101CA3005389F0538E7F538FFE900002120BE3B4DF
:101CB3000102D2A9900001120BE3B40102D2B9EEE2
:101CC3004289900003120BE3FF7003438E80EFB44D
:101CD3000203438904900004120BE3B40103438F0E
:101CE30001900005120CC1E5F0F58C900005120C73
:101CF300C1F58A900007120BE3B40102D28C7F0076
:101D030022ED64017076120BCAFEC3940340037F75
:101D13000222C28EC2ABC2BB53890F538EBF538FF5
:101D2300FD900002120BE3B40102D2AB900001124A
:101D33000BE3B40102D2BBEEC454F042899000031A
:101D4300120BE3FF7003438E40EFB4020343894059
:101D5300900004120BE3B40103438F0290000512B9
:101D63000CC1E5F0F58D900005120CC1F58B9000C8
:101D730007120BE3B40102D28E7F0022ED640270DE
:101D830063900003120BE3FED3940240037F02220D
:101D9300538EE353AFFB538FFB900002120BE3B45C
:101DA300010343AF04EE7003438E04900003120B50
:101DB300E3B40203438E08900004120BE3B401035F
:101DC300438F04900005120CC1E5F0F5D690000591
:101DD300120CC1F5D7900007120BE3B40103438E35
:101DE300107F0022ED64037060900003120BE3FE8A
:101DF300D3940240037F022253D1F053AFDF90000C
:101E030002120BE3B4010343AF20EE700343D1028C
:101E1300900003120BE3B4020343D10690000412B3
:101E23000BE3B4010343D101900005120CC1E5F0AB
:101E3300F5D4900005120CC1F5D5900007120BE301
:101E4300B4010343D1087F0022ED6404705C900069
:101E530003120BE3FED3940240037F022253D10FFC
:101E630053AFBF900002120BE3B4010343AF40EE44
:101E7300700343D120900003120BE3B4020343D158
:101E830060900004120BE3B4010343D110900005EA
:101E9300120CC1FDACF0ECF5D28DD3900007120B00
:0D1EA300E3B4010343D1807F00227F0222BF
:100F20009002AEEBF0A3EAF0A3E9F09002ADEFF08F
:100F30006401600302113290000004F0E4A3F0A306
:100F4000F0A3F0A3F0A3F0A3F09002B1F09002B1EF
:100F5000E0FFC39480501474382FF582E43401F517
:100F600083E4F09002B1E004F080E2E49002B1F09A
:100F70009002B1E0FFC394805014741C2FF582E4FA
:100F80003400F583E4F09002B1E004F080E29002D6
:100F9000AEE0FBA3E0FAA3E0F9120BCAD394C04081
:100FA000037F022290000A120BE3B40104D2BC803A
:100FB00002C2BC120BCAFFE598543F4FF598EF648C
:100FC000C06008EF644060030210AC900002120E93
:100FD000487F807E8D7D5B7C00120D849002B21272
:100FE0000EADE4FFFE7D01FC9002B2E0F8A3E0F953
:100FF000A3E0FAA3E0FBC3120E2440037F02229079
:1010000002B2E0F8A3E0F9A3E0FAA3E0FBC3E49B9B
:10101000FFE49AFE740199FDE498FC9002B2120E6E
:10102000AD9002AEE0FBA3E0FAA3E0F9900001125C
:101030000BE3FB64017038C28E538EFE5389BF539D
:1010400089CF438E409002B2E0FCA3E0FDA3E0FE16
:10105000A3E0FF7808120E358F8D9002B2A3A3A3F0
:10106000E0F58BC2AB5389BF538FFDD28E8076EBF8
:1010700064027035538EEF438E01538EF7438E0416
:101080009002B2E0FCA3E0FDA3E0FEA3E0FF78083D
:10109000120E358FD69002B2A3A3A3E0F5D753AFBB
:1010A000FB538EF7438E10803C7F02229002AEE00D
:1010B000FBA3E0FAA3E0F9120BCAFF70139000083B
:1010C000120BE3B40105438E20801A538EDF801586
:1010D000EFB48011900008120BE3B4010543878040
:1010E000800353877F9002AEE0FBA3E0FAA3E0F910
:1010F000900009120BE3B40104D2AC8002C2AC90A0
:101100000007120BE3B40104D29C8002C29C900041
:101110000B120BE354C0FFE5A2543F4FF5A2900021
:101120000C120BE3B4010543971080035397EF7F34
:1011300000229002ADE06402600302129490000766
:101140007402F0E4A3F0A3F0A3F0A3F0A3F0A3F0E3
:101150009002B1F09002B1E0FFC39480501474D4B7
:101160002FF582E43401F583E4F09002B1E004F05D
:1011700080E2E49002B1F09002B1E0FFC3948050AD
:1011800014749C2FF582E43400F583E4F09002B1EE
:10119000E004F080E29002AEE0FBA3E0FAA3E0F905
:1011A000120BCAFF64C06008EF644060030212546F
:1011B00090000A120BE3B4010543B501800353B557
:1011C000FE120BCAB4C005439A808003539A7F90E5
:1011D0000002120E487F807E8D7D5B7C00120D84A4
:1011E0009002B2120EADE4FFFE7D01FC9002B2E06F
:1011F000F8A3E0F9A3E0FAA3E0FBC3120E24400336
:101200007F02229002B2E0F8A3E0F9A3E0FAA3E0A3
:10121000FBC3E49BFFE49AFE740199FDE498FC9003
:1012200002B2120EAD538EEF538EF7438E0490022E
:10123000B2E0FCA3E0FDA3E0FEA3E0FF7808120EFD
:10124000358FD69002B2A3A3A3E0F5D753AFFB43EB
:101250008E1080037F02229002AEE0FBA3E0FAA38F
:10126000E0F9900009120BE3B4010543AF018003DC
:1012700053AFFE900007120BE3B40105439A1080B0
:1012800003539AEF90000B120BE35401FFE5BA549D
:10129000FE4FF5BA9002ADE064036003021447907C
:1012A000000E7402F0E4A3F0A3F0A3F0A3F0A3F007
:1012B000A3F09002B1F09002B1E0FFC3941C50146F
:1012C00074542FF582E43402F583E4F09002B1E027
:1012D00004F080E2E49002B1F09002B1E0FFC39428
:1012E0001C5014741C2FF582E43401F583E4F09053
:1012F00002B1E004F080E29002AEE0FBA3E0FAA3CA
:10130000E0F9120BCAFF64C06008EF64406003029A
:10131000140753ACDFEFB4C00543AC80800353AC7B
:101320007F9002AEE0FBA3E0FAA3E0F99000021286
:101330000E487F807E8D7D5B7C00120D849002B212
:10134000120EADE4FFFE7D01FC9002B2E0F8A3E0D6
:10135000F9A3E0FAA3E0FBC3120E2440037F0222AC
:101360009002B2E0F8A3E0F9A3E0FAA3E0FBC3E443
:101370009BFFE49AFE740199FDE498FC9002B2127E
:101380000EAD9002AEE0FBA3E0FAA3E0F9900001FD
:10139000120BE3FB6402703253ACBF538EEF538EDB
:1013A000F7438E049002B2E0FCA3E0FDA3E0FEA3AD
:1013B000E0FF7808120E358FD69002B2A3A3A3E007
:1013C000F5D753AFFB438E108040EB64017035437B
:1013D000AC4053D1F053AFDF43D10253D1FB53D1D3
:1013E000FE9002B2E0FCA3E0FDA3E0FEA3E0FF78E4
:1013F00008120E358FD49002B2A3A3A3E0F5D54313
:10140000D10880067F02227F02229002AEE0FBA379
:10141000E0FAA3E0F9900009120BE3B4010543AF31
:1014200008800353AFF7900007120BE3B4010543A4
:10143000AC10800353ACEF90000B120BE35402FF8F
:10144000E5BA54FD0215F79002ADE06404600302B2
:1014500015FD9000157402F0E4A3F0A3F0A3F0A32F
:10146000F0A3F0A3F09002B1F09002B1E0FFC394BA
:101470001C501474702FF582E43402F583E4F0906C
:1014800002B1E004F080E2E49002B1F09002B1E039
:10149000FFC3941C501474B82FF582E43401F58313
:1014A000E4F09002B1E004F080E29002AEE0FBA331
:1014B000E0FAA3E0F9120BCAFF64C06008EF6440D1
:1014C00060030215BA5384DFEFB4C0054384808003
:1014D0000353847F9002AEE0FBA3E0FAA3E0F9900F
:1014E0000002120E487F807E8D7D5B7C00120D8491
:1014F0009002B2120EADE4FFFE7D01FC9002B2E05C
:10150000F8A3E0F9A3E0FAA3E0FBC3120E24400322
:101510007F02229002B2E0F8A3E0F9A3E0FAA3E090
:10152000FBC3E49BFFE49AFE740199FDE498FC90F0
:1015300002B2120EAD9002AEE0FBA3E0FAA3E0F916
:10154000900001120BE3FB640270325384BF538E90
:10155000EF538EF7438E049002B2E0FCA3E0FDA3AC
:10156000E0FEA3E0FF7808120E358FD69002B2A3FA
:10157000A3A3E0F5D753AFFB438E108040EB64028A
:10158000703543844053D10F53AFBF43D12053D163
:10159000BF53D1EF9002B2E0FCA3E0FDA3E0FEA3B5
:1015A000E0FF7808120E358FD29002B2A3A3A3E019
:1015B000F5D343D18080067F02227F02229002AEC3
:1015C000E0FBA3E0FAA3E0F9900009120BE3B401F9
:1015D0000543AF10800353AFEF900007120BE3B445
:1015E000010543841080035384EF90000B120BE33A
:0F15F0005404FFE5BA54FB4FF5BA7F00227F0386
:0115FF0022C9
:103D4100900002E02438F582E43401F583EFF0902D
:103D51000002E004F0C394804002E4F0900003E02C
:073D6100700404F0D2992266
:103CC900900009E024D4F582E43401F583EFF09003
:103CD9000009E004F0C394804002E4F090000AE097
:083CE900700504F0439A022269
:103CF100900010E02454F582E43402F583EFF09053
:103D01000010E004F0C3941C4002E4F0900011E0C4
:083D1100700504F043AC02222E
:103D1900900017E02470F582E43402F583EFF09007
:103D29000017E004F0C3941C4002E4F0900018E08E
:083D3900700504F0438402222E
:10435700C2AF120BCAFF600C123D41740129F9E488
:074367003AFA80EED2AF220A
:10439800120BCAFF600C123CC9740129F9E43AFAFD
:0343A80080EE2282
:1043AB00120BCAFF600C123CF1740129F9E43AFAC2
:0343BB0080EE226F
:1043BE00120BCAFF600C123D19740129F9E43AFA86
:0343CE0080EE225C
:030023000236445E
:10364400C0E0C083C082C0D075D000C006C00730BF
:10365400982DC298900006E07025900004E0C39471
:10366400804002E4F0900004E0FF04F0741C2FF5A5
:1036740082E43400F583E599F09000057405F03098
:103684009930C299900002E0FF900001E0FE6F6063
:103694001C74382EF582E43401F583E0F59990002A
:1036A40001E004F0C394804009E4F0800590000335
:0F36B400E4F0D007D006D0D0D082D083D0E0325F
:0300430002343153
:10343100C0E0C083C082C0D075D000C006C007E51F
:103441009A30E02E539AFE90000DE0702590000B0B
:10345100E0C394804002E4F090000BE0FF04F074BC
:103461009C2FF582E43400F583E59BF090000C7409
:1034710005F0E59A30E131539AFD900009E0FF90A3
:103481000008E0FE6F601C74D42EF582E43401F56F
:1034910083E0F59B900008E004F0C394804009E4C8
:1034A100F0800590000AE4F0D007D006D0D0D08299
:0534B100D083D0E032E1
:03008B000234B686
:1034B600C0E0C083C082C0D075D000C006C007E59A
:1034C600AC30E02E53ACFE900014E0702590001254
:1034D600E0C3941C4002E4F0900012E0FF04F07494
:1034E6001C2FF582E43401F583E5ADF090001374EA
:1034F60005F0E5AC30E13153ACFD900010E0FF90F3
:10350600000FE0FE6F601C74542EF582E43402F561
:1035160083E0F5AD90000FE004F0C3941C4009E48D
:10352600F08005900011E4F0D007D006D0D0D0820C
:05353600D083D0E0325B
:0300930002353BF8
:10353B00C0E0C083C082C0D075D000C006C007E514
:10354B008430E02E5384FE90001BE0702590001910
:10355B00E0C3941C4002E4F0900019E0FF04F07407
:10356B00B82FF582E43401F583E585F090001A74E9
:10357B0005F0E58430E1315384FD900017E0FF90B6
:10358B000016E0FE6F601C74542EF582E43402F5D5
:10359B0083E0F585900016E004F0C3941C4009E429
:1035AB00F08005900018E4F0D007D006D0D0D08280
:0535BB00D083D0E032D6
:0E44CA00E4F5C7F5C5F5C675C3FF75C4FF223E
:103B0D00AD07AC06C2AF75C78075C501ECF5C3AF87
:103B1D00058FC475C65A75C6A500E5C2120C100DE9
:103B2D00BD00010C740129F9E43AFA90058674FF81
:0F3B3D00F5F0120CAB45F070D31244CAD2AF2290
:103F6000AD07AC06C2AFECF5C3AF058FC475C78013
:103F700075C50375C65A75C6A5001244CAD2AF22CC
:103B4C00AD07AC06C2AF75C78075C502ECF5C3AF47
:103B5C00058FC4120BCAF5C275C65A75C6A5000DE1
:103B6C00BD00010C740129F9E43AFA90058D74FF3B
:0F3B7C00F5F0120CAB45F070D31244CAD2AF2251
:101B0C00EFD3940940037FFF2274232F2FF8E62094
:101B1C00E5F4C2AFE64430F6D2AFAE0CEEC39F5044
:101B2C00210E740E2EF8E6F908E618BE090274FFB1
:101B3C00FDED69600909E71919F7090980F3161613
:101B4C0080DAEED39F400405810581EED39F4022BD
:101B5C00740E2EF808E6F9EEB50C02A981180606EB
:101B6C00E6FDED6960091919E70909F71980F31EFB
:101B7C0080D9EF240EF8E604F8EF2F0490438493F9
:091B8C00F608EF2F93F67F00220A
:101B9500EFD3940940037FFF22EF232423F8E63097
:101BA500E5F4C2AFE6548CF6D2AFE50CB5070A747E
:101BB5000E2FF8E6F581021A15502E740F2FF8E650
:101BC500BF090274FFFD18E6F9740E2FF8FBE6FC59
:101BD500E96C6008A805E7F61D1980F4A803A605B9
:101BE5001FE50CB507E37F0022740F2FF8E6FD18FB
:101BF50086010F740E2FF8A601088604E50CB507BB
:101C050002AC81ED6C60080D09A805E6F780F4E5E6
:091C15000CB507DE89817F002275
:101C1E008FF0E4FFFEE50C232422F8C2A930F70D65
:101C2E007F08E6600B2DF660325030800730F106EB
:101C3E00EDF660277E020830F010C2AFE610E72501
:101C4E000E30E20CD2AF7F048014C2AFE610E7155F
:101C5E0054EC4EF6D2AFD2A9021A157F0808EF4403
:0F1C6E0083F4C2AF56C6D2AFD2A954804FFF2223
:10080000020BB5E86480F8E933E83360110460F066
:10081000ED33EC337009E8FCE9FDEAFEEBFF22045E
:1008200060DED3EB9FEA9EE99DE8C2E78CF0C2F759
:1008300095F0400CE8CCF8E9CDF9EACEFAEBCFFB25
:10084000120B8085D0F05804700320D5B3E80470F3
:10085000075002B2D5020BBF92D5EC0460F7E4CC8E
:10086000C0E0C398F8603B94186008400DD0E0FBEE
:10087000020B97E4FBFAC9FC8028E830E406E4C9DF
:10088000FBE4CAFCE830E305E4C9CACBFCE8540742
:100890006010F8C3E913F9EA13FAEB13FBEC13FC4D
:1008A000D8F130F52FC3E49CFCEF9BFFEE9AFEEDF0
:1008B00099FDD0E0FBEF4E4D4C701222DB03020B92
:1008C000BCEC2CFCEF33FFEE33FEED33FDED30E7F7
:1008D000EB020B97EF2BFFEE3AFEED39FDD0E0FB7C
:1008E00050130BBB0003020BBFED13FDEE13FEEF25
:0808F00013FFEC13FC020B974F
:1008F800EC4D6011E8497017ED33EC3304600DE4FA
:10090800FCFFFEFD22E933E8330470F8020BB51250
:100918000B8058046009E4CC248150062850090251
:100928000BBF284003020BBCC0E0EB4A7044B980FF
:1009380006D0E0FB020BABEF4E701CBD8008EBFF4E
:10094800EAFEE9FD80EBE98DF0A4FEE5F00209E19D
:10095800E9CDF9EAFEEBFFEF89F0A4FCE5F0CE89DA
:10096800F0A42EFFE435F0CD89F0A42DFEE435F097
:100978008067EF4E7005BD80D780C3EF8BF0A4ACC5
:10098800F0EE8BF0A42CFCE435F0F8EF8AF0A42C00
:10099800E5F038FCE433CB8DF0A42CFCE5F03BF813
:1009A800EE8AF0A42CFCE5F038F8E433CF89F0A403
:1009B8002CFCE5F038CF3400CE89F0A42FFFE5F009
:1009C8003EFEE433C98DF0A42EFEE5F039CD8AF061
:1009D800A42FFFE5F03EFEE43DFD33D0E0FB5007D9
:1009E8000BBB000F020BBFEC2CFCEF33FFEE33FE0A
:0609F800ED33FD020B9738
:1009FE00020BBFEC5D046005E859047003020BB5F1
:100A0E00120B80580460F6EC4860F2EC7004FDFEA8
:100A1E00FF22C860DB2481C85009C39860025006CB
:100A2E00020BBC9850CAF582E9294B4A7005AB827D
:100A3E00020BAB75F0007C1A7880C3EF9BEE9AED3B
:100A4E0099400DC3EF9BFFEE9AFEED99FDE842F043
:100A5E00DC23ACF0D0E0FFD0E0FED0E0FDAB822096
:100A6E00E7101BEB60BAEC2CFCEF33FFEE33FEED20
:100A7E0033FD020B97E803F830E705C0F075F00080
:100A8E00EF2FFFEE33FEED33FD40B830E7C280AA04
:100A9E0074F8CC6480CCC86480C8F582046043C30B
:100AAE00EB9FF5F0EA9E42F0E99D42F0E89C45F09E
:100ABE0060305018E5825FFFE582F42B5582FB50C3
:100ACE00210ABA001D09B90019088016E5825BFBE0
:100ADE00E582F42F5582FF50090EBE00050DBD00B4
:100AEE00010CC3EB9FF5F0EA9E42F0E99D42F0E85F
:0D0AFE009C45F06007CC4820E701B3EC22D6
:100B0B0075F020800E75F010800575F0087D007E65
:100B1B00007F003392D530D503120E16EC33401004
:100B2B00EF33FFEE33FEED33FDEC33FCD5F0ED226E
:0E0B3B00E5F0247EA2D513CC92E7CDCEFF22AA
:100B4900EDD2E7CD33EC3392D524814006E4FFFEA4
:100B5900FDFC22FCE4CFCECDCC24E0501174FF8003
:100B6900EDC3CC13CCCD13CDCE13CECF13CF0470A0
:070B7900F030D5DE020E167C
:100B8000E9D2E7C933E833F892D5EDD2E7CD33ECBB
:070B900033FC5002B2D52234
:100B9700EC30E7100FBF000C0EBE00080DBD0004BF
:100BA7000BEB6014A2D5EB13FCED92E7FD2274FF6B
:100BB700FCFDFEFF22E480F8A2D574FF13FC7D80C4
:030BC700E480EFD8
:0300000002331BAD
:0C331B00787FE4F6D8FD7581350233623E
:100BCA00BB010689828A83E0225002E722BBFE0229
:090BDA00E32289828A83E493225C
:100BE300BB010CE58229F582E5833AF583E02250C7
:100BF30006E92582F8E622BBFE06E92582F8E22211
:0D0C0300E58229F582E5833AF583E493222A
:100C1000BB010689828A83F0225002F722BBFE01C3
:020C2000F322BD
:100C2200F8BB010DE58229F582E5833AF583E8F008
:100C3200225006E92582C8F622BBFE05E92582C8B4
:020C4200F2229C
:100C4400EF8DF0A4A8F0CF8CF0A428CE8DF0A42EC4
:020C5400FE227E
:100C5600BC000BBE0029EF8DF084FFADF022E4CC82
:100C6600F875F008EF2FFFEE33FEEC33FCEE9DEC4B
:100C7600984005FCEE9DFE0FD5F0E9E4CEFD22ED91
:100C8600F8F5F0EE8420D21CFEADF075F008EF2FDB
:100C9600FFED33FD4007985006D5F0F222C398FDCC
:050CA6000FD5F0EA2269
:100CAB00C5F0F8A3E028F0C5F0F8E58215827002D4
:060CBB001583E038F02271
:100CC100BB0110E58229F582E5833AF583E0F5F071
:100CD100A3E0225009E92582F886F008E622BBFE4E
:100CE1000AE92582F8E2F5F008E222E5832AF58394
:080CF100E993F5F0A3E9932259
:100CF900E88FF0A4CC8BF0A42CFCE98EF0A42CFC9A
:100D09008AF0EDA42CFCEA8EF0A4CDA8F08BF0A417
:100D19002DCC3825F0FDE98FF0A42CCD35F0FCEB76
:100D29008EF0A4FEA9F0EB8FF0A4CFC5F02ECD393B
:0F0D3900FEE43CFCEAA42DCE35F0FDE43CFC22A8
:100D480075F008758200EF2FFFEE33FECD33CDCC62
:100D580033CCC58233C5829BED9AEC99E5829840E5
:100D68000CF582EE9BFEED9AFDEC99FC0FD5F0D6C2
:100D7800E4CEFBE4CDFAE4CCF9A88222B800C1B9EC
:100D88000059BA002DEC8BF084CFCECDFCE5F0CB2A
:100D9800F97818EF2FFFEE33FEED33FDEC33FCEB63
:100DA80033FB10D703994004EB99FB0FD8E5E4F91E
:100DB800FA227818EF2FFFEE33FEED33FDEC33FC0B
:100DC800C933C910D7059BE99A4007EC9BFCE99AFF
:100DD800F90FD8E0E4C9FAE4CCFB2275F010EF2F44
:100DE800FFEE33FEED33FDCC33CCC833C810D70744
:100DF8009BEC9AE899400AED9BFDEC9AFCE899F87F
:0E0E08000FD5F0DAE4CDFBE4CCFAE4C8F92211
:103AC900C2D5E830E70FB2D5E4C39BFBE49AFAE428
:103AD90099F9E498F8EC30E717B2D5123AFF120DCC
:103AE90084E4C39BFBE49AFAE499F9E498F8800327
:103AF900120D8430D50DE4C39FFFE49EFEE49DFDC5
:043B0900E49CFC221A
:0E0E1600C3E49FFFE49EFEE49DFDE49CFC22ED
:100E2400EB9FF5F0EA9E42F0E99D42F0E89C45F024
:010E3400229B
:100E3500E8600FECC313FCED13FDEE13FEEF13FF9B
:030E4500D8F122BF
:100E4800BB010DE58229F582E5833AF583020EF7A9
:100E58005007E92582F8020EEABBFE07E92582F869
:100E6800020F03E58229F582E5833AF583020F1024
:100E78007401FF3395E0FEFDFCA3A3A3E0CF2FF0A0
:100E8800E582158270021583E0CE3EF0E582158278
:100E980070021583E0CD3DF0E5821582700215835E
:050EA800E0CC3CF0224B
:0C0EAD00ECF0A3EDF0A3EEF0A3EFF022B8
:100EB900A8828583F0D083D082120ED0120ED01270
:100EC9000ED0120ED0E473E493A3C583C5F0C58395
:100ED900C8C582C8F0A3C583C5F0C583C8C582C883
:010EE90022E6
:10332700021ACFE493A3F8E493A34003F68001F2D3
:1033370008DFF48029E493A3F85407240CC8C333A7
:10334700C4540F4420C8834004F456800146F6DF76
:10335700E4800B01020408102040809035C0E47E11
:10336700019360BCA3FF543F30E509541FFEE4936B
:10337700A360010ECF54C025E060A840B8E493A332
:10338700FAE493A3F8E493A3C8C582C8CAC583CA5D
:10339700F0A3C8C582C8CAC583CADFE9DEE780BE15
:013643000086
:0D0EEA00E6FB08E6F908E6FA08E6CBF82278
:0C0EF700E0F8A3E0F9A3E0FAA3E0FB227E
:0D0F0300E2FB08E2F908E2FA08E2CBF8226E
:100F1000E493F8740193F9740293FA740393FB2237
:00000001FF
