:0231D30031A524
:03000B000216F4E6
:1016EF00C2AF80FE321216F385D00B75D008AAE078
:1016FF00C28CE58A24F7F58AE58C34D8F58CD28C28
:10170F00EC2411F8E6BC000274FFC39581B41400F9
:10171F0040CE7901780E16E608700BC2AFE630E1C5
:10172F00034418F6D2AF08D9EDEA8BD0300301226B
:10173F00D50DFCC0E0C0D0C0F0C083C082C000C0D7
:10174F0001C002C003C004C005C006C007E50C23DA
:10175F00240FF87440C2AF46F6D2AFD203E50CFFA8
:10176F0023240FF80F0808BF01047F00780FE6301D
:10177F00E4F200E50CC39F5020050C7410250CF803
:10178F00E6FDA68108E6AE0CBE000274FFCDF8E8B8
:10179F006D60E008E6C0E080F6E50CD39F4027E5DA
:1017AF000C2411F8E6AE0CBE000274FFFD18E6CD56
:1017BF00F8E5816D6006D0E0F61880F5E50C241091
:1017CF00C8F6150C80D3750D05E50C23240FF87F93
:1017DF0004C2AFE610E61E30E00310E20C7F0030CB
:1017EF00E10730E3047F0854F4547CC6D2AF548031
:1017FF004207C20322F6D2AFD007D006D005D004DD
:10180F00D003D002D001D000D082D083D0F0D0D07E
:0E181F00D0E0C203227810A68174006006FF9C
:10182D000876FFDFFB7F01E4780EF608F608DFFA95
:10183D00780F76309031D3740193C0E0E493C0E01B
:10184D00750D05438901758AF0758CD8D28CD2AF90
:04185D00D2A92200EA
:0A31A5007F01121861E4FF0218EA2E
:102CF0007F05120000900333EFF0E4900332F09070
:102D00000333E0FF900332E0FEC39F501774002EA0
:102D1000F582E43400F583E0FF122E80900332E068
:042D200004F080DB60
:012D2400228C
:102F1600535443313577346B353873342773205522
:102F260041525431206973206F70656E200D0A007E
:0E314000122B5F7F007EC27D017C00022D25D8
:102D25009002F67440F0A37402F0A31213659002AA
:102D3500FD7401F0E4A3F0A304F0A3F0E4A3F0A371
:102D4500F07B017A0279F67F011208007BFF7A2F6A
:052D550079160230B701
:102AB900121112F59D90000112112BFFE5BC549FD4
:102AC9004FF5BC90000212112BB4010543BC808064
:102AD9000353BC7F90000312112BB40105439720C7
:102AE90080035397DF90000512112BB40104D2AD76
:102AF9008002C2AD90000412112BB40103D2BD2291
:032B0900C2BD2228
:0C317600EFB4010443BC802253BC7F2254
:102A0600EFD3940740028051E4F5BDF5BEE5BC5412
:102A1600E044084FF5BC00000000E4FBE5BC30E4F0
:102A26003353BCEFE59730E509E5BD5403ADBEFC75
:102A3600801DAFBD7C00AD07ED7E007802C333CEAE
:102A460033CED8F9FFE5BE5403FDEEFCEF4DFDAFE6
:0D2A560005AE04220BEBB4FAC37E047F0032
:012A63002250
:03002B000231C9D6
:0431C90053BCEF32D2
:0F3103007D037C09ED1D70011C144C70F7DFF18A
:01311200229A
:0331CD00A2042237
:101BA600EFD3940540037F0122121112FED3940352
:101BB60040037F0222EF7041EE700B90000112117C
:101BC6002BF452935294121112B4010B900001128D
:101BD600112B4293F45294121112FEB4020A900091
:101BE6000112112B42934294EEB4030D90000112A0
:101BF600112BFEF45293EE4294EF640170431211DE
:101C060012FE700B90000112112BF452915292EEBB
:101C1600B4010B90000112112B4291F45292121151
:101C260012B4020A90000112112B42914292121133
:101C360012B4030D90000112112BFEF45291EE42E4
:101C460092EF64027043121112FE700B90000112A3
:101C5600112BF452955296EEB4010B90000112111D
:101C66002B4295F45296121112B4020A90000112F8
:101C7600112B42954296121112B4030D90000112D7
:101C8600112BFEF45295EE4296EF64037043121147
:101C960012FE700B90000112112BF452B152B2EEEB
:101CA600B4010B90000112112B42B1F452B2121181
:101CB60012B4020A90000112112B42B142B2121163
:101CC60012B4030D90000112112BFEF452B1EE4234
:101CD600B2EF64047043121112FE700B90000112F1
:101CE600112BF452B352B4EEB4010B900001121151
:101CF6002B42B3F452B4121112B4020A900001122C
:101D0600112B42B342B4121112B4030D900001120A
:101D1600112BFEF452B3EE42B4EF64057043121178
:101D260012FF700B90000112112BF452C952CAEF28
:101D3600B4010B90000112112B42C9F452CA1211C0
:101D460012B4020A90000112112B42C942CA1211A2
:101D560012B4030D90000112112BFFF452C9EF4289
:041D6600CA7F00220E
:10258A00EF7034D3ED9498EC940340047C037D9867
:10259A00C3ED9450EC940050047C007D50C2DE9050
:1025AA0002C7ECF0A3EDF0C374E89D9002C2F07488
:1025BA00039C9002C18073EF64017034D3ED946878
:1025CA00EC940B40047C0B7D68C3ED9450EC9400B2
:1025DA0050047C007D50C2DE9002C9ECF0A3EDF0FD
:1025EA00C374B89D9002C4F0740B9C9002C3803AE5
:1025FA00EF64027038D3ED9480EC940740047C07B2
:10260A007D80C3ED9450EC940050047C007D50C250
:10261A00DE9002CBECF0A3EDF0AE04FFC374D09FC2
:0E262A009002C6F074079E9002C5F0D2DE2228
:101F1C0090032CEBF0A3EAF0A3E9F0AD07EDD3941A
:101F2C000340030220BAED6403704CC2DEF5F9F5F0
:101F3C00E990032CE0FBA3E0FAA3E0F9121112FFE5
:101F4C00E5A254CF4FF5A290000112112BFFE5D959
:101F5C0054F14FF5D990000412112B5401FFE5D91F
:101F6C0054FE4FF5D990000512112BB40104D2BFC9
:101F7C008002C2BFD2DE2290032CE0FBA3E0FAA3C6
:101F8C00E02404F9E43AFA12111254311211589067
:101F9C00032CE0FBA3E0FAA3E0F990000212112B52
:101FAC00C39448400FE92404F9E43AFA121112548C
:101FBC00CF121158ED704F90032CE0FBA3E0FAA365
:101FCC00E0F990000412112BFF90000212112BFE6D
:101FDC004FF5DA90000312112BFFE5F2543F4FF549
:101FEC00F29000061211FDFBAAF09002C7EAF0A3D2
:101FFC00EBF0C2009002BEEEF09002CDEAF0A3EB43
:10200C00F0F5EAEAF5FAED6401704F90032CE0FB71
:10201C00A3E0FAA3E0F990000412112BFF90000248
:10202C0012112BFE4FF5DB90000312112BFFE5F381
:10203C00543F4FF5F39000061211FDFBAAF09002ED
:10204C00C9EAF0A3EBF0C2019002BFEEF09002CF10
:10205C00EAF0A3EBF0F5EBEAF5FBED6402704F90C0
:10206C00032CE0FBA3E0FAA3E0F990000412112B7F
:10207C00FF90000212112BFE4FF5DC9000031211A1
:10208C002BFFE5F4543F4FF5F49000061211FDFDC3
:10209C00ACF09002CBECF0A3EDF0C2029002C0EEDB
:0F20AC00F09002D1ECF0A3EDF0F5ECECF5FC2296
:1020BB00900330ECF0A3EDF090032FEFF0705ED3B4
:1020CB00EB9464EA940040047A007B64C3EB9401C4
:1020DB00EA940050047A007B01C2DE900330E0FEEC
:1020EB00A3E0FFAD03AC0212116A7C007D641211F8
:1020FB007C9002C7EEF0A3EFF07C007D64AF03AEE3
:10210B000212117CC374019FFFE49EFE900330E02A
:10211B00FCA3E0FD12116A9002C10221F090032F83
:10212B00E06401705DD3EB9464EA940040047A00A0
:10213B007B64C3EB9401EA940050047A007B01C2E8
:10214B00DE7C007D64AF03AE0212117C900330E0A5
:10215B00FCA3E0FD12116A9002C9EEF0A3EFF07C34
:10216B00007D64AF03AE0212117CC374019FFFE4C8
:10217B009EFE900330E0FCA3E0FD12116A9002C3B7
:10218B00806390032FE064027062D3EB9464EA9453
:10219B000040047A007B64C3EB9401EA9400500482
:1021AB007A007B01C2DE7C007D64AF03AE021211AC
:1021BB007C900330E0FCA3E0FD12116A9002CBEEA1
:1021CB00F0A3EFF0AE02AF037C007D6412117CC371
:1021DB0074019FFFE49EFE900330E0FCA3E0FD1230
:0D21EB00116A9002C5EEF0A3EFF0D2DE22E3
:03003B0002263862
:10263800C0E0C083C082C0D075D000C006C00730DB
:10264800D82AC2D830A5059002C780039002C1E0FD
:10265800FEA3E0FF9002CEE02FF09002CDE03EF026
:102668009002CDE0FEA3E0F5EAEEF5FA30D92AC2F1
:10267800D930A6059002C980039002C3E0FEA3E00A
:10268800FF9002D0E02FF09002CFE03EF09002CF12
:10269800E0FEA3E0F5EBEEF5FB30DA2AC2DA30A76C
:1026A800059002CB80039002C5E0FEA3E0FF9002F4
:1026B800D2E02FF09002D1E03EF09002D1E0FEA3EC
:1026C800E0F5ECEEF5FCD007D006D0D0D082D08370
:0326D800D0E0321D
:030003000231D5F2
:0131D50032C7
:030013000231D6E1
:0131D60032C6
:030053000231D7A0
:0131D70032C5
:03005B000231D897
:0131D80032C4
:030083000231D96E
:0131D90032C3
:10242200EFD3940440037F0122EF702D900002123B
:10243200112BB40104D2A88002C2A890000112118B
:102442002BB40104D2B88002C2B8121112B4010432
:10245200D2888002C2887F0022EF6401702D900032
:102462000212112BB40104D2AA8002C2AA90000166
:1024720012112BB40104D2BA8002C2BA121112B4E0
:102482000104D28A8002C28A7F0022EFB402149031
:10249200000212112BB40105438F108003538FEFFA
:1024A2007F0022EFB4031490000212112BB4010535
:1024B200438F208003538FDF7F0022EFB4041490F8
:1024C200000212112BB40105438F408003538FBFCA
:0624D2007F00227F0222C0
:07315C00C2A2123163D2A0F0
:05316300007F0BDFFE00
:013168002244
:0A31AF00D2A212315EC2A202316307
:0631C30012315CD2A222D1
:0D316900C2A012315CC2A0123163D2A222BA
:042E3200FF122EA7B6
:102E3600E4FEC2A0123163D2A2D2A012316330A244
:102E46000DEEC394FF50070EA2A2920580F0C2A019
:022E5600A205D3
:012E58002257
:0A31B900D2A2C2A012315EC2A02211
:102FB300E4FED2A2FDC2A012315EEE25E0FE30A2F5
:0D2FC300034401FE0DEDB408ECC2A0AF0602
:012FD00022DE
:022EA700AE0774
:102EA900E4FDC2A0123163EE5480FFC4131313541E
:102EB9000124FF92A212315EEE25E0FE0DEDB40869
:032EC900E1C2A0C3
:012ECC0022E3
:10305900AC05AE071231AFAF06122EA7122E36AF4E
:0930690004122EA7122E36D32208
:0B2CBA0090031EEBF0A3EAF0A3E9F08A
:102CC500123059E4FC900321E0FFECC39F501990AA
:102CD500031EE0FBA3E475F0011211E7A9F0FA1257
:0B2CE5001112122E320C80DD0231C3F0
:102B0C00900324EBF0A3EAF0A3E9F0900322EFF09A
:102B1C001230591231AFE04401122E32E4FC900312
:102B2C0027E0FFECC39F5025122FB3900324E0FB4A
:102B3C00A3E475F0011211E7A9F0FAEF1211589005
:102B4C000327E0146C60031231690C80D11231B987
:032B5C000231C380
:022D5A00C106B0
:1013D80043BA80121112B4010543F180800353F11E
:1013E8007F90000112112BB4010F7401A807088027
:1013F80002C333D8FC42F1800E7401A807088002AA
:10140800C333D8FCF452F190000212112BB4010539
:1014180043F540800353F5BF90000312112BB4012C
:101428000F7401A807088002C333D8FC42F5800E68
:101438007401A807088002C333D8FCF452F5900061
:101448000412112BB4010575F720800353F7DF90C0
:10145800000512112BB4010575F710800353F7EF3F
:1014680090000612112BB4010575F708800353F795
:10147800F790000712112BB4010575F70480035388
:10148800F7FB90000812112BB4010575F7028003D1
:1014980053F7FD90000912112B90FFF27006E054EB
:1014A800EFF08004E04410F090FFF2C083C082E0C7
:1014B800FE90000A12112BFDEE4DD082D083F0EF82
:1014C8001460721470030215901470030215E3146B
:1014D800700302163614700302168724056003028F
:1014E80016DE90000B12112B90FF047006E054F7E3
:1014F800F08004E04408F090000C12112B90FF04D7
:10150800B40106E04404F08004E054FBF090000DC0
:1015180012112B90FF04B40106E04402F08004E0AD
:1015280054FDF090000E12112B90FF04B401030239
:1015380016D40216DA90000B12112B90FF147006C5
:10154800E054F7F08004E04408F090000C12112BEE
:1015580090FF14B40106E04404F08004E054FBF06A
:1015680090000D12112B90FF14B40106E04402F014
:101578008004E054FDF090000E12112B90FF14B47B
:1015880001030216D40216DA90000B12112B90FFF9
:10159800247006E054F7F08004E04408F090000C52
:1015A80012112B90FF24B40106E04404F08004E0FB
:1015B80054FBF090000D12112B90FF24B40106E0AB
:1015C8004402F08004E054FDF090000E12112B90BC
:1015D800FF24B401030216D40216DA90000B12118C
:1015E8002B90FF347006E054F7F08004E04408F0D4
:1015F80090000C12112B90FF34B40106E04404F063
:101608008004E054FBF090000D12112B90FF34B4CD
:101618000106E04402F08004E054FDF090000E1250
:10162800112B90FF34B401030216D40216DA90008D
:101638000B12112B90FF447006E054F7F08004E081
:101648004408F090000C12112B90FF44B40106E0FE
:101658004404F08004E054FBF090000D12112B902C
:10166800FF44B40106E04402F08004E054FDF09029
:10167800000E12112B90FF44B40102804F8053904A
:10168800000B12112B90FF547006E054F7F0800401
:10169800E04408F090000C12112B90FF54B401069E
:1016A800E04404F08004E054FBF090000D12112B8C
:1016B80090FF54B40106E04402F08004E054FDF0C9
:1016C80090000E12112B90FF54B40106E04401F073
:1016D8008004E054FEF090000F12112BB401044373
:0716E800F5802253F57F227B
:05232F009002D3EFF065
:1023340014603114604814605F14607614700302F2
:1023440023D0240560030223E89002D57480F0E4CE
:102354009002D4F07B017A0279D47F03121BA6D2B7
:10236400B70223E89002D57402F0E49002D4F07B23
:10237400017A0279D47F02121BA6D2A18066900250
:10238400D57404F0E49002D4F07B017A0279D47F0E
:1023940002121BA6D2A2804C9002D57408F0E490DD
:1023A40002D4F07B017A0279D47F02121BA6D2A355
:1023B40080329002D57440F0E49002D4F07B017A2C
:1023C4000279D47F01121BA6D29680189002D5748C
:1023D40080F0E49002D4F07B017A0279D47F011278
:1023E4001BA6D29743BA80E49002D6F0A3F0A3F0E0
:1023F400A304F0E4A3F0A3F0A3F0A3F0A3F0A3F0EC
:10240400A3F0A3F0A3F0A3F0A3F0A3F09002D3E011
:0D241400FF7B017A0279D61213D853BA7FEC
:012421002298
:10308B00D3E49F74809E400D90FFF1EFF0EE90FF24
:08309B00F0F07F00227F01220A
:1021F800EF14604A1460751470030222A21470036D
:102208000222CF1470030222FC2405600302232C4F
:1022180090FF01EDF0EC90FF00F0900318A3A3A34A
:10222800E090FF03F0900318E0FCA3E0FDA3E0FEBC
:10223800A3E0FF780812132290FF0202232790FFE1
:1022480011EDF0EC90FF10F0900318A3A3A3E09019
:10225800FF13F0900318E0FCA3E0FDA3E0FEA3E069
:10226800FF780812132290FF1202232790FF21ED16
:10227800F0EC90FF20F0900318A3A3A3E090FF23B5
:10228800F0900318E0FCA3E0FDA3E0FEA3E0FF78D4
:102298000812132290FF2202232790FF31EDF0EC61
:1022A80090FF30F0900318A3A3A3E090FF33F090C1
:1022B8000318E0FCA3E0FDA3E0FEA3E0FF7808120A
:1022C800132290FF32805890FF41EDF0EC90FF40D0
:1022D800F0900318A3A3A3E090FF43F0900318E045
:1022E800FCA3E0FDA3E0FEA3E0FF78081213229010
:1022F800FF42802B90FF51EDF0EC90FF50F09003DF
:1023080018A3A3A3E090FF53F0900318E0FCA3E008
:10231800FDA3E0FEA3E0FF780812132290FF52EF1E
:07232800F07F00227F01227B
:0F31130090028CE0FCA3E0FDA3E0FEA3E0FF220E
:102C7E00EF14601514601714601914601B14601D96
:102C8E002405702790029080179002948012900273
:102C9E0098800D90029C80089002A080039002A460
:0C2CAE00E0FCA3E0FDA3E0FEA3E0FF2299
:102D8B00AB07AA06E4F9F87F807EC37DC97C0112EC
:102D9B002C3AE4FCFD90028C12136543BA8090022E
:0F2DAB008CA3A3E0FEA3E0FF12308B53BA7F226C
:051D6A00900303EFF0FF
:101D6F007F337E337D737C3FA3E0F8A3E0F9A3E0DC
:101D7F00FAA3E0FB120FE6600C400A900304121363
:101D8F00713F7333337FCD7ECC7D4C7C3D9003040C
:101D9F00E0F8A3E0F9A3E0FAA3E0FB120FE6500A84
:101DAF009003041213713D4CCCCD900303E01460EB
:101DBF0048146071147003021E60147003021E8BAE
:101DCF00147003021EB624056003021EF69003046E
:101DDF00E0FCA3E0FDA3E0FEA3E0FF90029012134E
:101DEF006590028CE0FCA3E0FDA3E0FEA3E0FFE41E
:101DFF00121053900290021EDF900304E0FCA3E048
:101E0F00FDA3E0FEA3E0FF90029412136590028CF5
:101E1F00E0FCA3E0FDA3E0FEA3E0FFE4121053906B
:101E2F000294021EDF900304E0FCA3E0FDA3E0FE9A
:101E3F00A3E0FF90029812136590028CE0FCA3E0E0
:101E4F00FDA3E0FEA3E0FFE4121053900298021EE0
:101E5F00DF900304E0FCA3E0FDA3E0FEA3E0FF900E
:101E6F00029C12136590028CE0FCA3E0FDA3E0FE40
:101E7F00A3E0FFE412105390029C8054900304E0FF
:101E8F00FCA3E0FDA3E0FEA3E0FF9002A012136508
:101E9F0090028CE0FCA3E0FDA3E0FEA3E0FFE412C0
:101EAF0010539002A08029900304E0FCA3E0FDA34F
:101EBF00E0FEA3E0FF9002A412136590028CE0FCF9
:101ECF00A3E0FDA3E0FEA3E0FFE41210539002A0F5
:101EDF00E0F8A3E0F9A3E0FAA3E0FB120EE0121082
:101EEF009190030812136543BA80900308E0FCA396
:101EFF00E0FDA3E0FEA3E0FF90031812136590032B
:0C1F0F0003E0FFE4FDFC1221F853BA7F50
:011F1B0022A3
:0C31820043BA8043F580D20653BA7F2286
:0C318E0043BA8053F57FC20653BA7F227B
:0331D000A2062232
:1026DB0090000112112BB4010553CE7F800343CE22
:1026EB0080121112B4010543CE40800353CEBF902C
:1026FB00000212112BB4010543CE20800353CEDF11
:10270B0090000312112B700553CEEF800343CE10B4
:10271B0090000412112BB4010543CE08800353CE55
:10272B00F790000512112B700543CE04800353CE96
:10273B00FB90000612112BB4010543AF028003532B
:10274B00AFFD90000712112B5403FFE5CE54FC4F45
:10275B00F5CE90000812112BFFE5A254F34FF5A212
:01276B00224B
:0B319A00EF700453CEEF2243CE102252
:1030A30090032BE02441F8A607E004F0C3942040EA
:0430B30002E4F02221
:102F5600EDD394205018E4FEEEC39D5011121112C9
:0E2F6600FF1230A3740129F9E43AFA0E80EA52
:012F7400223A
:102E590090032BE0FF900329E06F601A7F01123184
:102E69009A900329E02441F8E6FFE004F0C3942096
:062E79004002E4F08FCFDF
:012E7F002230
:102EF20090032AE0FF900328E0FEB507037F00223B
:102F020074212EF8E6FF900328E004F0C3942040D9
:032F120002E4F0E6
:012F15002299
:10300A00AD07EDD3942040037F0022EDD394014015
:0A301A0006122EF21D80F4122EF2B1
:013024002289
:03004B00022A6422
:102A6400C0E0C083C082C0D075D000C000C006C022
:102A74000790032BE0FF900329E0FE6F6025A3E09D
:102A84002421F8A6CFE004F0C394204002E4F074BB
:102A9400412EF8E6F5CF900329E004F0C3942040DA
:102AA40002E4F075CDC0D007D006D000D0D0D082DB
:052AB400D083D0E032E8
:102D5C004102B0024102B1024202B200004202B48E
:102D6C0000004402B6000000004402BA000000005B
:0E2D7C004402AC000000004402A80000000069
:102B5F00E49002E6F0A3F0A304F0E4A3F0A3F09056
:102B6F0002EDF09002EB748AF0A374D0F0E49002BF
:102B7F00EEF0A3F0A304F0E4A3F0A3F09002F504A9
:102B8F00F09002F3748FF0A37420F07F0112197389
:102B9F007F031219737B017A0279EE7F0402197990
:0F3122009002ACE0FCA3E0FDA3E0FEA3E0FF22DF
:0F3131009002A8E0FCA3E0FDA3E0FEA3E0FF22D4
:102FEE00EF24FE600C0470139002B8ECF0A3EDF029
:0C2FFE0022AF059002BCECF0A3EFF02223
:10302500EF24FE600804700E9002B880039002BC85
:0A303500E0FEA3E0FF22E4FEFF220C
:102ECD009002B0E0601EA3E0601AEF24FE600B04D8
:102EDD0070129002B6ECF0A3EDF0AF059002BAECD3
:052EED00F0A3EFF0224C
:10303F00EF24FE600804700E9002B680039002BA6F
:0A304F00E0FEA3E0FF22E4FEFF22F2
:10307200EF24FE600A047010C28E9002B0800653E4
:09308200D1F79002B17402F022B2
:102FD100EF24FE600D0470149002B0E07002D32261
:0D2FE100C3229002B1E07003D38001C3222F
:102F7500EF24FE600E0470169002B0E0B40102D397
:0F2F850022C3229002B1E0B40103D38001C32222
:102F9400EF24FE600E0470169002B0E0B40202D377
:0F2FA40022C3229002B1E0B40203D38001C32202
:102F3600AE07122F944018EF24FE600B047010D2D7
:102F46008EE49002B0F02243D108E49002B1F02260
:0E314E00AE07122F755005122F36D322C32262
:03001B00022BF5C0
:102BF500C0E0C0F0C083C082C0D075D000C000C0A6
:102C0500069002B2E475F0011211D1FE9002B6E011
:102C1500B50613A3E0B5F00EC28E9002B2E4F0A3A0
:102C2500F09002B004F0D006D000D0D0D082D0838E
:052C3500D0F0D0E032F8
:03009B00022BAF86
:102BAF00C0E0C0F0C083C082C0D075D000C000C0EC
:102BBF00069002B4E475F0011211D1FE9002BAE052
:102BCF00B50614A3E0B5F00F53D1F79002B4E4F0BB
:102BDF00A3F09002B104F0D006D000D0D0D082D0B4
:062BEF0083D0F0D0E032BB
:0300A3000224D85C
:1024D800C0E0C0F0C083C082C0D075D000C000C0CA
:1024E80001C002C003C004C005C006C007E47BE801
:1024F8007A03F9F89002ACE0FCA3E0FDA3E0FEA3A8
:10250800E0FF12127174FF7BFAFAF9F8D312131173
:10251800E450047F018001FFFEFDFC9002A8121325
:1025280065EC4D4E4F600A9002A81213710000002E
:10253800009002ACE0FCA3E0FDA3E0FEA3E02404CD
:10254800FFE43EFEE43DFDE43CFC9002AC12136562
:1025580074FF7BFAFAF9F8D3121311500A9002ACFF
:1025680012137100000000D007D006D005D004D0A7
:1025780003D002D001D000D0D0D082D083D0F0D008
:02258800E0323F
:061973007B017A0279E617
:10197900AD07EDD3940440037F0122ED707312117A
:1019890012FED3940340037F0222C28CC2A9C2B9BA
:101999005389F0538E7F538FFE90000212112BB49E
:1019A9000102D2A990000112112BB40102D2B9EEA1
:1019B900428990000312112BFF7003438E80EFB40C
:1019C900020343890490000412112BB40103438FCD
:1019D900019000051211FDE5F0F58C90000512113A
:1019E900FDF58A90000712112BB40102D28C7F00F9
:1019F90022ED64017076121112FEC3940340037F35
:101A09000222C28EC2ABC2BB53890F538EBF538F02
:101A1900FD90000212112BB40102D2AB9000011209
:101A2900112BB40102D2BBEEC454F04289900003D9
:101A390012112BFF7003438E40EFB4020343894018
:101A490090000412112BB40103438F029000051278
:101A590011FDE5F0F58D9000051211FDF58B900053
:101A69000712112BB40102D28E7F0022ED6402709D
:101A79006390000312112BFED3940240037F0222CC
:101A8900538EE353AFFB538FFB90000212112BB41B
:101A9900010343AF04EE7003438E04900003121157
:101AA9002BB40203438E0890000412112BB40103D6
:101AB900438F049000051211FDE5F0F5D69000055D
:101AC9001211FDF5D790000712112BB40103438EB3
:101AD900107F0022ED6403706090000312112BFE49
:101AE900D3940240037F022253D1F053AFDF900019
:101AF9000212112BB4010343AF20EE700343D1024C
:101B090090000312112BB4020343D1069000041272
:101B1900112BB4010343D1019000051211FDE5F029
:101B2900F5D49000051211FDF5D590000712112B7F
:101B3900B4010343D1087F0022ED6404705C900076
:101B49000312112BFED3940240037F022253D10FBB
:101B590053AFBF90000212112BB4010343AF40EE03
:101B6900700343D12090000312112BB4020343D117
:101B79006090000412112BB4010343D110900005A9
:101B89001211FDFDACF0ECF5D28DD39000071211C6
:0D1B99002BB4010343D1807F00227F022284
:1008000090030DEBF0A3EAF0A3E9F090030CEFF0F6
:1008100064016003020A1290000004F0E4A3F0A354
:10082000F0A3F0A3F0A3F0A3F0900310F090031056
:10083000E0FFC39480501474382FF582E43401F53E
:1008400083E4F0900310E004F080E2E4900310F001
:10085000900310E0FFC394805014741C2FF582E4C1
:100860003400F583E4F0900310E004F080E290039C
:100870000DE0FBA3E0FAA3E0F9121112D394C040FB
:10088000037F022290000A12112BB40104D2BC8013
:1008900002C2BC121112FFE598543F4FF598EF6465
:1008A000C06008EF6440600302098C9000021213DC
:1008B000357FE07E707D727C001212719003111200
:1008C0001365E4FFFE7D01FC900311E0F8A3E0F95D
:1008D000A3E0FAA3E0FBC312131140037F022290AE
:1008E0000311E0F8A3E0F9A3E0FAA3E0FBC3E49B63
:1008F000FFE49AFE740199FDE498FC900311121331
:100900006590030DE0FBA3E0FAA3E0F9900001126B
:10091000112BFB64017038C28E538EFE5389BF5376
:1009200089CF438E40900311E0FCA3E0FDA3E0FEDD
:10093000A3E0FF78081213228F8D900311A3A3A3C5
:10094000E0F58BC2AB5389BF538FFDD28E8076EB1F
:1009500064027035538EEF438E01538EF7438E043D
:10096000900311E0FCA3E0FDA3E0FEA3E0FF780804
:100970001213228FD6900311A3A3A3E0F5D753AF90
:10098000FB538EF7438E10803C7F022290030DE0D4
:10099000FBA3E0FAA3E0F9121112FF701390000814
:1009A00012112BB40105438E20801A538EDF80155F
:1009B000EFB4801190000812112BB4010543878019
:1009C000800353877F90030DE0FBA3E0FAA3E0F9D7
:1009D00090000912112BB40104D2AC8002C2AC9079
:1009E000000712112BB40104D29C8002C29C90001B
:1009F0000B12112B54C0FFE5A2543F4FF5A29000FB
:100A00000C12112BB4010543971080035397EF7F0D
:100A1000002290030CE064026003020B7490000754
:100A20007402F0E4A3F0A3F0A3F0A3F0A3F0A3F00A
:100A3000900310F0900310E0FFC39480501474D41E
:100A40002FF582E43401F583E4F0900310E004F024
:100A500080E2E4900310F0900310E0FFC394805014
:100A600014749C2FF582E43400F583E4F0900310B5
:100A7000E004F080E290030DE0FBA3E0FAA3E0F9CC
:100A8000121112FF64C06008EF64406003020B346F
:100A900090000A12112BB4010543B501800353B530
:100AA000FE121112B4C005439A808003539A7F90BE
:100AB00000021213357FE07E707D727C001212718D
:100AC000900311121365E4FFFE7D01FC900311E019
:100AD000F8A3E0F9A3E0FAA3E0FBC312131140036B
:100AE0007F0222900311E0F8A3E0F9A3E0FAA3E06B
:100AF000FBC3E49BFFE49AFE740199FDE498FC902B
:100B00000311121365538EEF538EF7438E04900337
:100B100011E0FCA3E0FDA3E0FEA3E0FF78081213C0
:100B2000228FD6900311A3A3A3E0F5D753AFFB43C5
:100B30008E1080037F022290030DE0FBA3E0FAA356
:100B4000E0F990000912112BB4010543AF018003B5
:100B500053AFFE90000712112BB40105439A108089
:100B600003539AEF90000B12112B5401FFE5BA5476
:100B7000FE4FF5BA90030CE064036003020D27906A
:100B8000000E7402F0E4A3F0A3F0A3F0A3F0A3F02E
:100B9000A3F0900310F0900310E0FFC3941C5014D6
:100BA00074542FF582E43402F583E4F0900310E0EE
:100BB00004F080E2E4900310F0900310E0FFC3948F
:100BC0001C5014741C2FF582E43401F583E4F0907A
:100BD0000310E004F080E290030DE0FBA3E0FAA331
:100BE000E0F9121112FF64C06008EF644060030274
:100BF0000CE753ACDFEFB4C00543AC80800353ACCB
:100C00007F90030DE0FBA3E0FAA3E0F9900002124D
:100C100013357FE07E707D727C001212719003119B
:100C2000121365E4FFFE7D01FC900311E0F8A3E0E0
:100C3000F9A3E0FAA3E0FBC312131140037F0222E1
:100C4000900311E0F8A3E0F9A3E0FAA3E0FBC3E40A
:100C50009BFFE49AFE740199FDE498FC9003111245
:100C6000136590030DE0FBA3E0FAA3E0F990000107
:100C700012112BFB6402703253ACBF538EEF538EB4
:100C8000F7438E04900311E0FCA3E0FDA3E0FEA374
:100C9000E0FF78081213228FD6900311A3A3A3E0DC
:100CA000F5D753AFFB438E108040EB6401703543A2
:100CB000AC4053D1F053AFDF43D10253D1FB53D1FA
:100CC000FE900311E0FCA3E0FDA3E0FEA3E0FF78AB
:100CD000081213228FD4900311A3A3A3E0F5D543E8
:100CE000D10880067F02227F022290030DE0FBA341
:100CF000E0FAA3E0F990000912112BB4010543AF0B
:100D000008800353AFF790000712112BB40105437D
:100D1000AC10800353ACEF90000B12112B5402FF68
:100D2000E5BA54FD020ED790030CE06404600302A0
:100D30000EDD9000157402F0E4A3F0A3F0A3F0A37D
:100D4000F0A3F0A3F0900310F0900310E0FFC39421
:100D50001C501474702FF582E43402F583E4F09093
:100D60000310E004F080E2E4900310F0900310E040
:100D7000FFC3941C501474B82FF582E43401F5833A
:100D8000E4F0900310E004F080E290030DE0FBA398
:100D9000E0FAA3E0F9121112FF64C06008EF6440AA
:100DA0006003020E9A5384DFEFB4C0054384808051
:100DB0000353847F90030DE0FBA3E0FAA3E0F990D6
:100DC00000021213357FE07E707D727C001212717A
:100DD000900311121365E4FFFE7D01FC900311E006
:100DE000F8A3E0F9A3E0FAA3E0FBC3121311400358
:100DF0007F0222900311E0F8A3E0F9A3E0FAA3E058
:100E0000FBC3E49BFFE49AFE740199FDE498FC9017
:100E1000031112136590030DE0FBA3E0FAA3E0F9C0
:100E200090000112112BFB640270325384BF538E69
:100E3000EF538EF7438E04900311E0FCA3E0FDA373
:100E4000E0FEA3E0FF78081213228FD6900311A3CF
:100E5000A3A3E0F5D753AFFB438E108040EB6402B1
:100E6000703543844053D10F53AFBF43D12053D18A
:100E7000BF53D1EF900311E0FCA3E0FDA3E0FEA37C
:100E8000E0FF78081213228FD2900311A3A3A3E0EE
:100E9000F5D343D18080067F02227F022290030D8A
:100EA000E0FBA3E0FAA3E0F990000912112BB401D2
:100EB0000543AF10800353AFEF90000712112BB41E
:100EC000010543841080035384EF90000B12112B13
:0F0ED0005404FFE5BA54FB4FF5BA7F00227F03AD
:010EDF0022F0
:102E8000900002E02438F582E43401F583EFF090FD
:102E90000002E004F0C394804002E4F0900003E0FC
:072EA000700404F0D2992236
:102DBA00900009E024D4F582E43401F583EFF09021
:102DCA000009E004F0C394804002E4F090000AE0B5
:082DDA00700504F0439A022287
:102DE200900010E02454F582E43402F583EFF09071
:102DF2000010E004F0C3941C4002E4F0900011E0E3
:082E0200700504F043AC02224C
:102E0A00900017E02470F582E43402F583EFF09025
:102E1A000017E004F0C3941C4002E4F0900018E0AC
:082E2A00700504F0438402224C
:1030B700121112FF600C122E80740129F9E43AFAFA
:0330C70080EE2276
:1030CA00121112FF600C122DBA740129F9E43AFAAE
:0330DA0080EE2263
:1030DD00121112FF600C122DE2740129F9E43AFA73
:0330ED0080EE2250
:1030F000121112FF600C122E0A740129F9E43AFA37
:0331000080EE223C
:0300230002298728
:10298700C0E0C083C082C0D075D000C006C0073089
:10299700982DC298900006E07025900004E0C3943B
:1029A700804002E4F0900004E0FF04F0741C2FF56F
:1029B70082E43400F583E599F09000057405F03062
:1029C7009930C299900002E0FF900001E0FE6F602D
:1029D7001C74382EF582E43401F583E0F5999000F4
:1029E70001E004F0C394804009E4F08005900003FF
:0F29F700E4F0D007D006D0D0D082D083D0E03229
:030043000227F899
:1027F800C0E0C083C082C0D075D000C006C007E565
:102808009A30E02E539AFE90000DE0702590000B50
:10281800E0C394804002E4F090000BE0FF04F07401
:102828009C2FF582E43400F583E59BF090000C744E
:1028380005F0E59A30E131539AFD900009E0FF90E8
:102848000008E0FE6F601C74D42EF582E43401F5B4
:1028580083E0F59B900008E004F0C394804009E40D
:10286800F0800590000AE4F0D007D006D0D0D082DE
:05287800D083D0E03226
:03008B0002287DCB
:10287D00C0E0C083C082C0D075D000C006C007E5DF
:10288D00AC30E02E53ACFE900014E0702590001299
:10289D00E0C3941C4002E4F0900012E0FF04F074D9
:1028AD001C2FF582E43401F583E5ADF0900013742F
:1028BD0005F0E5AC30E13153ACFD900010E0FF9038
:1028CD00000FE0FE6F601C74542EF582E43402F5A7
:1028DD0083E0F5AD90000FE004F0C3941C4009E4D3
:1028ED00F08005900011E4F0D007D006D0D0D08252
:0528FD00D083D0E032A1
:030093000229023D
:10290200C0E0C083C082C0D075D000C006C007E559
:102912008430E02E5384FE90001BE0702590001955
:10292200E0C3941C4002E4F0900019E0FF04F0744C
:10293200B82FF582E43401F583E585F090001A742E
:1029420005F0E58430E1315384FD900017E0FF90FB
:102952000016E0FE6F601C74542EF582E43402F51A
:1029620083E0F585900016E004F0C3941C4009E46E
:10297200F08005900018E4F0D007D006D0D0D082C5
:05298200D083D0E0321B
:10186100EFD3940040037FFF22740F2F2FF8E6205F
:10187100E5F4C2AFE64430F6D2AFAE0CEEC39F50F2
:10188100210E74102EF8E6F908E618BE000274FF66
:10189100FDED69600909E71919F7090980F31616C1
:1018A10080DAEED39F400405810581EED39F40226B
:1018B10074102EF808E6F9EEB50C02A98118060697
:1018C100E6FDED6960091919E70909F71980F31EA9
:1018D10080D9EF2410F8E604F8EF2F049031D39368
:0918E100F608EF2F93F67F0022B8
:1018EA00EFD3940040037FFF22EF23240FF8E63062
:1018FA00E5F4C2AFE6548CF6D2AFE50CB5070A742C
:10190A00102FF8E6F58102176A502E74112FF8E6A7
:10191A00BF000274FFFD18E6F974102FF8FBE6FC0D
:10192A00E96C6008A805E7F61D1980F4A803A60566
:10193A001FE50CB507E37F002274112FF8E6FD18A6
:10194A0086010F74102FF8A601088604E50CB50766
:10195A0002AC81ED6C60080D09A805E6F780F4E594
:09196A000CB507DE89817F002223
:100EE000EC4D6011E8497017ED33EC3304600DE40C
:100EF000FCFFFEFD22E933E8330470F80210FD1216
:100F000010C858046009E4CC248150062850090216
:100F10001107284003021104C0E0EB4A7044B98075
:100F200006D0E0FB0210F3EF4E701CBD8008EBFF13
:100F3000EAFEE9FD80EBE98DF0A4FEE5F0020FC9C1
:100F4000E9CDF9EAFEEBFFEF89F0A4FCE5F0CE89EC
:100F5000F0A42EFFE435F0CD89F0A42DFEE435F0A9
:100F60008067EF4E7005BD80D780C3EF8BF0A4ACD7
:100F7000F0EE8BF0A42CFCE435F0F8EF8AF0A42C12
:100F8000E5F038FCE433CB8DF0A42CFCE5F03BF825
:100F9000EE8AF0A42CFCE5F038F8E433CF89F0A415
:100FA0002CFCE5F038CF3400CE89F0A42FFFE5F01B
:100FB0003EFEE433C98DF0A42EFEE5F039CD8AF073
:100FC000A42FFFE5F03EFEE43DFD33D0E0FB5007EB
:100FD0000BBB000F021107EC2CFCEF33FFEE33FECE
:060FE000ED33FD0210DFFD
:100FE60074F8CC6480CCC86480C8F582046043C3BE
:100FF600EB9FF5F0EA9E42F0E99D42F0E89C45F051
:1010060060305018E5825FFFE582F42B5582FB5075
:10101600210ABA001D09B90019088016E5825BFB92
:10102600E582F42F5582FF50090EBE00050DBD0066
:10103600010CC3EB9FF5F0EA9E42F0E99D42F0E811
:0D1046009C45F06007CC4820E701B3EC2288
:1010530075F020800E75F010800575F0087D007E18
:10106300007F003392D530D503121303EC334010C5
:10107300EF33FFEE33FEED33FDEC33FCD5F0ED2221
:0E108300E5F0247EA2D513CC92E7CDCEFF225D
:10109100EDD2E7CD33EC3392D524814006E4FFFE57
:1010A100FDFC22FCE4CFCECDCC24E0501174FF80B6
:1010B100EDC3CC13CCCD13CDCE13CECF13CF047053
:0710C100F030D5DE0213033D
:1010C800E9D2E7C933E833F892D5EDD2E7CD33EC6E
:0710D80033FC5002B2D522E7
:1010DF00EC30E7100FBF000C0EBE00080DBD000472
:1010EF000BEB6014A2D5EB13FCED92E7FD2274FF1E
:1010FF00FCFDFEFF22E480F8A2D574FF13FC7D8077
:03110F00E480EF8A
:0300000002276C68
:0C276C00787FE4F6D8FD7581600227B389
:10111200BB010689828A83E0225002E722BBFE02DB
:09112200E32289828A83E493220E
:10112B00BB010CE58229F582E5833AF583E0225079
:10113B0006E92582F8E622BBFE06E92582F8E222C3
:0D114B00E58229F582E5833AF583E49322DD
:10115800BB010689828A83F0225002F722BBFE0176
:02116800F32270
:10116A00EF8DF0A4A8F0CF8CF0A428CE8DF0A42E99
:02117A00FE2253
:10117C00BC000BBE0029EF8DF084FFADF022E4CC57
:10118C00F875F008EF2FFFEE33FEEC33FCEE9DEC20
:10119C00984005FCEE9DFE0FD5F0E9E4CEFD22ED66
:1011AC00F8F5F0EE8420D21CFEADF075F008EF2FB0
:1011BC00FFED33FD4007985006D5F0F222C398FDA1
:0511CC000FD5F0EA223E
:1011D100C5F0F8A3E028F0C5F0F8E58215827002A9
:0611E1001583E038F02246
:1011E700A3F8E0C5F025F0F0E582158270021583BB
:0611F700E0C838F0E82218
:1011FD00BB0110E58229F582E5833AF583E0F5F030
:10120D00A3E0225009E92582F886F008E622BBFE0C
:10121D000AE92582F8E2F5F008E222E5832AF58352
:08122D00E993F5F0A3E9932217
:1012350075F008758200EF2FFFEE33FECD33CDCC70
:1012450033CCC58233C5829BED9AEC99E5829840F3
:101255000CF582EE9BFEED9AFDEC99FC0FD5F0D6D0
:10126500E4CEFBE4CDFAE4CCF9A88222B800C1B9FA
:101275000059BA002DEC8BF084CFCECDFCE5F0CB38
:10128500F97818EF2FFFEE33FEED33FDEC33FCEB71
:1012950033FB10D703994004EB99FB0FD8E5E4F92C
:1012A500FA227818EF2FFFEE33FEED33FDEC33FC19
:1012B500C933C910D7059BE99A4007EC9BFCE99A0D
:1012C500F90FD8E0E4C9FAE4CCFB2275F010EF2F52
:1012D500FFEE33FEED33FDCC33CCC833C810D70752
:1012E5009BEC9AE899400AED9BFDEC9AFCE899F88D
:0E12F5000FD5F0DAE4CDFBE4CCFAE4C8F92220
:102C3A00C2D5E830E70FB2D5E4C39BFBE49AFAE4C5
:102C4A0099F9E498F8EC30E717B2D5122C70121201
:102C5A0071E4C39BFBE49AFAE499F9E498F88003D7
:102C6A0012127130D50DE4C39FFFE49EFEE49DFD70
:042C7A00E49CFC22B8
:0E130300C3E49FFFE49EFEE49DFDE49CFC22FB
:10131100EB9FF5F0EA9E42F0E99D42F0E89C45F032
:0113210022A9
:10132200E8600FECC313FCED13FDEE13FEEF13FFA9
:03133200D8F122CD
:10133500BB010DE58229F582E5833AF5830213AFFA
:101345005007E92582F80213A2BBFE07E92582F8BA
:101355000213BBE58229F582E5833AF5830213C8BA
:0C136500ECF0A3EDF0A3EEF0A3EFF022FB
:10137100A8828583F0D083D0821213881213881239
:101381001388121388E473E493A3C583C5F0C5835E
:10139100C8C582C8F0A3C583C5F0C583C8C582C8C6
:0113A1002229
:10277800021824E493A3F8E493A34003F68001F23B
:1027880008DFF48029E493A3F85407240CC8C33362
:10279800C4540F4420C8834004F456800146F6DF31
:1027A800E4800B0102040810204080902D5AE47E3A
:1027B800019360BCA3FF543F30E509541FFEE49326
:1027C800A360010ECF54C025E060A840B8E493A3ED
:1027D800FAE493A3F8E493A3C8C582C8CAC583CA18
:1027E800F0A3C8C582C8CAC583CADFE9DEE780BED0
:012D8A000048
:0D13A200E6FB08E6F908E6FA08E6CBF822BB
:0C13AF00E0F8A3E0F9A3E0FAA3E0FB22C1
:0D13BB00E2FB08E2F908E2FA08E2CBF822B2
:1013C800E493F8740193F9740293FA740393FB227B
:00000001FF
