:024279003B59AF
:02427B004320DE
:02427D00445AA1
:02427F004232C9
:0242830041E711
:02428700406095
:024289003C7384
:02428B00407B76
:0A3490004205B000004205B2000042
:103B5900123ACE7F04123CE27F01121AED7F031262
:103B69001AED7F05121AED7F07121AED7F08121A56
:0B3B7900ED7F09121AEDE4FF021B763D
:10432000E49002BCF0E4FBFA7D287F80121BFF8042
:01433000F498
:01445A00223F
:10423200900349740AF0900349E004F0E4FBFA7D2C
:08424200C87F80121BFF80EE13
:1041E70090034A120E9A00000000123869E4FBFAA5
:0941F7007D027F80121BFF80F1A4
:104060007F08123F435005124446800312444BE43C
:0B407000FBFA7D057F80121BFF80E53E
:103C7300D208123591E4FBFA79487842120A9E5031
:103C830005124446800312444BE4FBFA7D017F8016
:053C9300121BFF80DBA5
:10407B00D2081235919003777401F0123A64E4FB85
:0A408B00FA7D287F80121BFF80E6FB
:103B2D0090029E7440F0A37402F0A3120E8E9002C8
:103B3D00A57401F0E4A3F0A304F0A3F0E4A3F0A3B3
:0C3B4D00F07B017A02799E7F01020F01DB
:103ACE007F007EC27D017C00123B2D123B84123E94
:103ADE008BE4FD7F01123FF0123F9A1236E77BC84E
:103AEE007A007D647C00E4FF12380FE4FF023E0B87
:01445B00223E
:01445C00223D
:01445D00223C
:01445E00223B
:01445F00223A
:03000B0002198057
:10197B00C2AF80FE3212197F85D00B75D008AAE05A
:10198B00C28CE58A2443F58AE58C34F6F58CD28C2F
:10199B00EC240FF8E6BC090274FFC39581B4140064
:1019AB0040CE790A782216E608700BC2AFE630E11A
:1019BB00034418F6D2AF08D9EDEA8BD030090122D7
:1019CB00D50DFCC0E0C0D0C0F0C083C082C000C049
:1019DB0001C002C003C004C005C006C007E50C234C
:1019EB002423F87440C2AF46F6D2AFD209E50CFF00
:1019FB00232423F80F0808BF0A047F007823E6305E
:101A0B00E4F200E50CC39F5020050C740E250CF876
:101A1B00E6FDA68108E6AE0CBE090274FFCDF8E820
:101A2B006D60E008E6C0E080F6E50CD39F4027E54B
:101A3B000C240FF8E6AE0CBE090274FFFD18E6CDC0
:101A4B00F8E5816D6006D0E0F61880F5E50C240E04
:101A5B00C8F6150C80D3750D0AE50C232423F87FEB
:101A6B0004C2AFE610E61E30E00310E20C7F00303C
:101A7B00E10730E3047F0854F4547CC6D2AF5480A2
:101A8B004207C20922F6D2AFD007D006D005D00448
:101A9B00D003D002D001D000D082D083D0F0D0D0F0
:0E1AAB00D0E0C20922780EA68174096006FF01
:101AB9000876FFDFFB7F0AE47822F608F608DFFAEA
:101AC90078237630904279740193C0E0E493C0E0C2
:101AD900750D0A438901758A3C758CF6D28CD2AF93
:041AE900D2A9220953
:102A6600AB07EB75F039A424A0F582E43403F583B3
:102A7600120E9A00000000EB75F039A424A4F5822A
:102A8600E43403F583120E9A00000000EB75F0396A
:102A9600A424B8F582E43403F583120E9A000000EC
:102AA60000EB75F039A424B4F582E43403F58312FF
:102AB6000E9A00000000900551E0FCA3E0FDA3E0A3
:102AC600FEA3E0FFEB75F039A424A8F582E43403F5
:102AD600F583120E8E900555E0FCA3E0FDA3E0FE03
:102AE600A3E0FFEB75F039A424ACF582E43403F5DA
:102AF60083120E8E900559E0FCA3E0FDA3E0FEA331
:102B0600E0FFEB75F039A424B0F582E43403F583D5
:102B1600120E8EEB75F039A424A8F582E43403F581
:102B260083E0FCA3E0FDA3E0FEA3E0FFEB75F03934
:102B3600A424C0F582E43403F583120E8EEB75F0FF
:102B460039A424ACF582E43403F583E0FCA3E0FD6C
:102B5600A3E0FEA3E0FFEB75F039A424BCF582E404
:102B66003403F583120E8EEB75F039A424B0F5828A
:102B7600E43403F583E0FCA3E0FDA3E0FEA3E0FF5D
:102B8600EB75F039A424C4F582E43403F583020E10
:012B96008EB0
:1042C600EF75F039A424D0F582E43403F583740144
:0242D600F022D4
:10433100EF75F039A424D0F582E43403F583E4F079
:014341002259
:101E91009005CCEFF075F039A424D0F582E4340339
:101EA100F583E0700302206A9005CCE0FF75F039FC
:101EB100A4249CF582E43403F583E0F8A3E0F9A3BC
:101EC100E0FAA3E0FBEF75F039A42498F582E4343D
:101ED10003F583E0FCA3E0FDA3E0FEA3E0FF12080D
:101EE100039005CCE0FB75F039A424A0F582E4341D
:101EF10003F583120E8EEB75F039A424B4F582E458
:101F01003403F583C083C082E0FCA3E0FDA3E0FEBF
:101F1100A3E0FF9005CCE075F039A424A0F582E49C
:101F21003403F583E0F8A3E0F9A3E0FAA3E0FB12A0
:101F31000807D082D083120E8E9005CCE0FF75F099
:101F410039A424B4F582E43403F583E0F8A3E0F97D
:101F5100A3E0FAA3E0FBEF75F039A424ACF582E429
:101F61003403F583E0FCA3E0FDA3E0FEA3E0FF1250
:101F710008F8C004C005C006C0079005CCE0FF7595
:101F8100F039A424A0F582E43403F583E0F8A3E05A
:101F9100F9A3E0FAA3E0FBEF75F039A424A8F582D8
:101FA100E43403F583E0FCA3E0FDA3E0FEA3E0FF3E
:101FB1001208F8D003D002D001D000120807C004E3
:101FC100C005C006C0079005CCE0FF75F039A42418
:101FD100A4F582E43403F583E0F8A3E0F9A3E0FA81
:101FE100A3E0FBEF75F039A424A0F582E43403F5F6
:101FF10083E0FCA3E0FDA3E0FEA3E0FF1208039051
:1020010005CCE075F039A424B0F582E43403F583FE
:10201100E0F8A3E0F9A3E0FAA3E0FB1208F8D0038B
:10202100D002D001D0001208079005CCE0FB75F07A
:1020310039A424B8F582E43403F583120E8EEB75CE
:10204100F039A424A0F582E43403F583E0FCA3E095
:10205100FDA3E0FEA3E0FFEB75F039A424A4F58213
:0A206100E43403F583120E8ED3223F
:103D0400AB07900584E0FCA3E0FDA3E0FEA3E0FF85
:103D1400EB75F039A424CCF582E43403F583020E68
:013D24008E10
:103D2500AB07900589E0FCA3E0FDA3E0FEA3E0FF5F
:103D3500EB75F039A424C8F582E43403F583020E4B
:013D45008EEF
:103D4600AB0790058EE0FCA3E0FDA3E0FEA3E0FF39
:103D5600EB75F039A4249CF582E43403F583020E56
:013D66008ECE
:103D6700AB07900593E0FCA3E0FDA3E0FEA3E0FF13
:103D7700EB75F039A424ACF582E43403F583020E25
:013D87008EAD
:103D8800AB07900598E0FCA3E0FDA3E0FEA3E0FFED
:103D9800EB75F039A424A8F582E43403F583020E08
:013DA8008E8C
:103DA900AB0790059DE0FCA3E0FDA3E0FEA3E0FFC7
:103DB900EB75F039A424B0F582E43403F583020EDF
:013DC9008E6B
:103DCA00AB079005A2E0FCA3E0FDA3E0FEA3E0FFA1
:103DDA00EB75F039A42498F582E43403F583020ED6
:013DEA008E4A
:10409500EF75F039A42498F582E43403F583E0FC48
:0A40A500A3E0FDA3E0FEA3E0FF226C
:1040AF00EF75F039A424A0F582E43403F583E0FC26
:0A40BF00A3E0FDA3E0FEA3E0FF2252
:1040C900EF75F039A424A4F582E43403F583E0FC08
:0A40D900A3E0FDA3E0FEA3E0FF2238
:1040E300EF75F039A424A8F582E43403F583E0FCEA
:0A40F300A3E0FDA3E0FEA3E0FF221E
:1040FD00EF75F039A424ACF582E43403F583E0FCCC
:0A410D00A3E0FDA3E0FEA3E0FF2203
:10411700EF75F039A424B0F582E43403F583E0FCAD
:0A412700A3E0FDA3E0FEA3E0FF22E9
:10413100EF75F039A424B8F582E43403F583E0FC8B
:0A414100A3E0FDA3E0FEA3E0FF22CF
:10414B00EF75F039A424B4F582E43403F583E0FC75
:0A415B00A3E0FDA3E0FEA3E0FF22B5
:0527FC0090038BEDF0DD
:10280100E4900392F0A3F090038EE0FFA3E0900325
:1028110094CFF0A3EFF090038CE0FFA3E090039638
:10282100CFF0A3EFF0E4900390F0A3F090038BE0DE
:10283100FF900390E0FCA3E0FDC39F7480F8EC647B
:10284100809840030228F6ED25E0FFEC338F82F5F6
:1028510083120CD7FFC3900395E09F900394E095FA
:10286100F0501D900391E025E0FF900390E0338F3D
:1028710082F583120CD7FF900394E5F0F0A3EFF0FB
:10288100900391E025E0FF900390E0338F82F58380
:10289100120CD7FFD3900397E09F900396E095F039
:1028A100401D900391E025E0FF900390E0338F827B
:1028B100F583120CD7FF900396E5F0F0A3EFF090AB
:1028C1000391E025E0FF900390E0338F82F58312BE
:1028D1000CD7FFAEF0900393E02FF0900392E03E0F
:1028E100F0900391E004F0600302282D900390E042
:1028F10004F002282D900396E0FEA3E0FF900395DB
:10290100E02FFF900394E03EFEC3900393E09FFF0E
:10291100900392E09EFEF0A3EFF090038BE024FE83
:10292100FDE434FFFC120C56900392EEF0A3EFF09D
:012931002283
:10349A00602A04A3000000000000000000000000F1
:1034AA000000000000000000000000000000000012
:0E34BA00000000000000000000000000000004
:102EBE00900385EBF0A3EAF0A3E9F0900003120B68
:102ECE00E3FF900381E0FBA3E0FAA3E0F9A3E0FEA9
:102EDE00F582758300EF120C22900385E0FBA3E0D0
:102EEE00FAA3E0F9900002120BE3FFEE2401FDE4D9
:102EFE0033FC900381E0FBA3E0FAA3E0F98D828C12
:102F0E0083EF120C22900385E0FBA3E0FAA3E0F915
:102F1E00900001120BE3FFEE2402FDE433FC90035C
:102F2E0081E0FBA3E0FAA3E0F98D828C83EF120C13
:102F3E0022900385E0FBA3E0FAA3E0F9120BCAFF8F
:102F4E00EE2403FDE433FC900381E0FBA3E0FAA33F
:0A2F5E00E0F98D828C83EF020C2253
:103A6400900377E090037DF0122932E4900378F01C
:103A7400900377E0FF123011900378E0FEC39F506B
:103A84001774A32EF582E43404F583E0FF123C4C52
:083A9400900378E004F080D8F3
:013A9C002207
:10293200900379120E8E90037DE0FFD3940A400338
:10294200022A65EF7003022A65EF14B40A004003FD
:10295200022A6590296375F003A4C58325F0C58317
:10296200730229810229970229AE0229C50229DCB4
:102972000229F2022A08022A1E022A34022A4A9054
:1029820003817401F0A37404F0A374A3F0A374018F
:10299200F0FB022A5E9003817401F0A37404F0A399
:1029A20074A3F0A37405F07B01022A5E9003817484
:1029B20001F0A37404F0A374A3F0A37409F07B01E3
:1029C200022A5E9003817401F0A37404F0A374A33D
:1029D200F0A3740DF07B01022A5E9003817401F072
:1029E200A37404F0A374A3F0A37411F07B01806CB0
:1029F2009003817401F0A37404F0A374A3F0A37490
:102A020015F07B0180569003817401F0A37404F0E9
:102A1200A374A3F0A37419F07B0180409003817426
:102A220001F0A37404F0A374A3F0A3741DF07B015E
:102A3200802A9003817401F0A37404F0A374A3F0BC
:102A4200A37421F07B0180149003817401F0A374BC
:102A520004F0A374A3F0A37425F07B017A037979BF
:042A6200122EBE2250
:10301100EFD3940A5003EF70037F00229004A3744E
:1030210024F0EF14B40A0040030230B390303B7532
:10303100F003A4C58325F0C58373023059023062C1
:1030410002306B02307402307D02308602308F0212
:1030510030980230A10230AA9004A87405F07F06CE
:10306100229004AC7409F07F0A229004B0740DF030
:103071007F0E229004B47411F07F12229004B87470
:1030810015F07F16229004BC7419F07F1A22900467
:10309100C0741DF07F1E229004C47421F07F22228F
:1030A1009004C87425F07F26229004CC7429F07F07
:0530B1002A227F00222D
:1042D8009005A6EEF0A3EFF0A3EBF0A3EAF0A3E9B4
:0242E800F022C2
:0834C800C100C101C102C103F2
:103E8B0090029F7478F0E490029EF07B017A0279A5
:0E3E9B009E7F0212206BD2A3D2A4D2A5D2A683
:013EA90022F6
:0A43F800EF4E7005EE4F24FFB322D4
:103F4300EF24F0600F24F0600E24E0600D2438703D
:0D3F53000BA20022A20122A20222A2032240
:10386900A2A3E4FE33FF1243F8500EA2A3E433FFF0
:103879001243F85006D2008002C200A2A4E4FE332B
:10388900FF1243F85007200106D2018002C201A2AB
:10389900A5E4FE33FF1243F85007200206D2028046
:1038A90002C202A2A6E4FE33FF1243F85006200327
:0738B90005D20322C2032225
:0234D000C10A2F
:103B840090029F7405F0E490029EF07B017A027922
:103B94009E7F0512206B1244467FC812439612443E
:073BA4004B7FC8124396D3CA
:013BAB0022F7
:05444600C2CDD20A22E4
:05444B00D2CDC20A22DF
:103CE20090028CEFF090028CE0FF14F0EF60121261
:103CF20044467FC812439612444B7FC812439680B3
:023D0200E422B9
:03445400A20A2297
:064428009005CDEFF0222B
:103159009005ABEFF07F337E337D737C3FA3E0F8BE
:10316900A3E0F9A3E0FAA3E0FB120A9E600C400A6F
:103179009005AC120E9A3F7333337FCD7ECC7D4CD4
:103189007C3D9005ACE0F8A3E0F9A3E0FAA3E0FBED
:10319900120A9E500A9005AC120E9A3D4CCCCD9065
:1031A90005ABE02404FFC007A3E0FCA3E0FDA3E016
:1031B900FEA3E0FF9002B1120E8ED007122B97905A
:1031C90005ACE0FCA3E0FDA3E0FEA3E0FF120B4980
:1031D9009005ABE025E024B5F582E43405F583EFED
:0231E900F022D2
:103F07009005CEEFF02404FF123BAC9005CEE025E0
:0E3F1700E024B4F582E43405F5837401F02251
:103F60009005CFEFF02404FF123C989005CFE02598
:0D3F7000E024B4F582E43405F583E4F0228A
:10438600EF25E024B4F582E43405F583E024FF222A
:10367C00E490052DF0A37408F07B017A05792D7F79
:10368C000212206B90052E7404F07B017A05792DC3
:10369C007F0212206BD2A2D2A343BA80E490052FF2
:1036AC00F0A3F0A3F0A304F0E4A3F0A3F0A3F0A321
:1036BC00F0A3F0A3F0A3F0A3F0A3F0A3F0A3F0A366
:1036CC00F07B017A05792F7F021215E17B017A05D7
:0A36DC00792F7F031215E153BA7F26
:0136E60022C1
:05222F009004CDEFF06A
:10223400E49004DCF0A37480F07B017A0479DC7F01
:102244000312206BD2B743BA80E49004DEF0A3F00B
:10225400A3F0A304F0E4A3F0A3F0A3F0A3F0A3F08D
:10226400A3F0A3740FF0E4A3F0A3F0A3F0A3F0A3EE
:10227400F07B017A0479DEFF1215E153BA7F7D10F9
:10228400E4FF1243647D327C00E4FF123750900473
:10229400CEE0FCA3E0FDA3E0FEA3E0FF9004CDE0CC
:1022A400FB75F01FA4240FF582E43404F583120EA9
:1022B4008E9004D2E0FCA3E0FDA3E0FEA3E0FFEBDC
:1022C40075F01FA42413F582E43404F583120E8EF2
:1022D4009004D6E0FCA3E0FDA3E0FEA3E0FFEB75D1
:1022E400F01FA4241FF582E43404F583120E8E90AB
:1022F40004DAE0FEA3E0FFEB75F01FA42419F582D5
:10230400E43404F583EEF0A3EFF0EB75F01FA4249E
:102314000FF582E43404F583E0F8A3E0F9A3E0FACE
:10232400A3E0FB9004CDE075F01FA42413F582E430
:102334003404F583E0FCA3E0FDA3E0FEA3E0FF1278
:102344000803120B497C037DE8120C449004CDE091
:10235400FB75F01FA42419F582E43404F583E0FC32
:10236400A3E0FD120C56EB75F01FA42417F582E4CC
:102374003404F583EEF0A3EFF09004CDE075F01F84
:10238400A42419F582E43404F583E0FCA3E0FDE41D
:10239400120B10A804A905AA06AB079004CDE0759A
:1023A400F01FA4241FF582E43404F583E0FCA3E0C9
:1023B400FDA3E0FEA3E0FF120A019004CDE0FB754B
:1023C400F01FA42423F582E43404F583120E8EEB6B
:1023D40075F01FA4241BF582E43404F583120E9ACD
:0423E40000000000F5
:0123E80022D2
:052C8B0090055DEFF073
:102C9000A3E0FCA3E0FDA3E0FEA3E0FF90055DE060
:102CA000FB75F01FA4240AF582E43404F583120EA8
:102CB0008EEB75F01FA42423F582E43404F583E041
:102CC000F8A3E0F9A3E0FAA3E0FB90055EE0FCA323
:102CD000E0FDA3E0FEA3E0FF120A01120B499005FC
:102CE0005DE075F01FA42417F582E43404F583E059
:102CF000FCA3E0FD120C44AC06AD07E4120B10E49B
:102D0000FBFAF9783F120807E4FBFA79A078411240
:102D10000A01900562120E8E900562E0FCA3E0FDB0
:102D2000A3E0FEA3E0FF9002B1120E8EE4FF122B8F
:102D30009790055DE0FB75F01FA4240AF582E4344A
:102D400004F583E0FCA3E0FDA3E0FEA3E0FFEB7548
:0F2D5000F01FA4241BF582E43404F583020E8ED9
:10416500EF75F01FA4241BF582E43404F583E0FC0D
:0A417500A3E0FDA3E0FEA3E0FF229B
:103DEB009005D0EFF0123BAC9005D0E075F01FA41E
:103DFB002427F582E43404F583E4F0A304F0D32202
:103EAA009005D1EFF0123C989005D1E075F01FA46F
:0F3EBA002427F582E43404F583E4F0A3F0D32247
:104342008D828C83EBFD7C00AA83AB8212380FD363
:014352002248
:103A9D009005B8EFF0A3ECF0A3EDF0A3EBF09005DB
:103AAD00B974FFF5F0120CC145F060139005B8E044
:103ABD00FF9005BBE0FB7D687C0112434280DFD3A4
:013ACD0022D6
:1042EA00EF75F00AA4241BF582E43405F583E02473
:0242FA00FF22A1
:103FD4009005D2EFF0123E2B9005D2E075F00AA4C2
:0C3FE400241BF582E43405F583E4F02290
:103F7D009005D3EFF0123E0B9005D3E075F00AA437
:0D3F8D00241BF582E43405F5837401F02255
:0D43DF0090051F120E9A3FE666660236E753
:0F43A60074C02FF582E43405F5837401F0D3223F
:0E43B50074C02FF582E43405F583E4F0D322C2
:014460002239
:103FF00090029EEFF0A3EDF0A37401F0E4A3F0A310
:0C400000F0A3F07B017A02799E0238C028
:10359100E4900387F0300863F0E4FF1237B1900341
:1035A10087E025E02473F582E43403F583EEF0A38C
:1035B100EFF0900387E004F0E0C3940A40DB7B0165
:1035C1007A03797390038C7404F0A3E4F0A3F0A35D
:1035D100F07D0A1227FCAC06AD07E4120B10900532
:1035E10066120E8E900566E0FCA3E0FDA3E0FEA34B
:1035F100E0FFA3120E8E900566800390056AE0FC41
:09360100A3E0FDA3E0FEA3E0FF3D
:01360A00229D
:10400C009005D4EFF0D2C87F011243969005D4E00E
:0C401C00F5C0D2CA7F01124396C2CA222E
:103AFE009005C3EBF0A3EAF0A3E9F09005C3E0FB59
:103B0E00A3E0FAA3E0F9120BCAFFD39400400F1200
:0F3B1E00400C9005C4E475F001120CAB80DD2261
:103F9A00123F25D2CCC2CAC2C97F381240287F0C30
:0D3FAA001240287F061240287F01024028A7
:1040280090029EEFF0C2C87F01124396D2CA900256
:0C4038009EE0F5C07F01124396C2CA2230
:103F250053C9EF43CA1053C9FE53CAFE53C9FD53C3
:0E3F3500CAFD53C9FB53CAFBE4F5B3F5B42231
:084200009005BCECF0A3EDF009
:10420800E4A3F0A3EFF07B017A0579BEE4FF022076
:014218006B3A
:054353009005D5EFF01C
:0B435800E4FF00000FEFB408F90000C4
:014363002237
:0534D20042056E000040
:10380F0090029EEFF0A3ECF0A3EDF0A3EAF0A3EB90
:10381F00F090029FE0FCA3E0FD7F0512375090026D
:10382F009FE0FEA3E0FF90029EE0FD75F005A4244B
:10383F0072F582E43405F583EEF0A3EFF09002A168
:10384F00E0FEA3E0FFED75F005A42470F582E434EB
:0A385F0005F583EEF0A3EFF0D3228D
:103E0B0090029EEFF07F05123BAC90029EE075F0A6
:103E1B0005A42474F582E43405F5837401F0D322F0
:103E2B009005D6EFF02405FF123C989005D6E0756F
:103E3B00F005A42474F582E43405F583E4F0D32271
:1042FC00EF75F005A42474F582E43405F583E0240D
:02430C00FF228E
:1036E700E490029EF0A37480F07B017A02799E7FBA
:1036F7000112206BD2979002B1120E9A3F00000080
:103707007F05122B9743BA80E49002A0F0A3F0A3A1
:10371700F0A304F0E4A3F0A3F0A3F0A3F0A3F0A3B5
:10372700F0A3740FF0E4A3F0A304F0E4A3F0A30460
:10373700F0E4A3F07B017A0279A07F051215E1532B
:09374700BA7F7D107F0502436486
:0300B30002360B07
:10360B00C0E0C0F0C083C082C0D075D000C000C085
:10361B0001C002C003C004C005C006C00753F6BFFB
:10362B00E5F6603253F6DF90056FE004F07006901C
:10363B00056EE004F0900570E0FEA3E0FFC390057B
:10364B006FE09F90056EE09E400C900570E4F0A338
:10365B00F07F05123C98D007D006D005D004D003DC
:10366B00D002D001D000D0D0D082D083D0F0D0E027
:01367B00321C
:1038C000120BCAF59D900001120BE3FFE5BC549F5B
:1038D0004FF5BC900002120BE3B4010543BC80809D
:1038E0000353BC7F900003120BE3B4010543972000
:1038F00080035397DF900005120BE3B40104D2ADAF
:103900008002C2AD900004120BE3B40103D2BD22C9
:03391000C2BD2213
:0C43EC00EFB4010443BC802253BC7F22CC
:1037B100EFD3940740028051E4F5BDF5BEE5BC545A
:1037C100E044084FF5BC00000000E4FBE5BC30E438
:1037D1003353BCEFE59730E509E5BD5403ADBEFCBD
:1037E100801DAFBD7C00AD07ED7E007802C333CEF6
:1037F10033CED8F9FFE5BE5403FDEEFCEF4DFDAF2E
:0D38010005AE04220BEBB4FAC37E047F0079
:01380E002297
:03002B000244503C
:0444500053BCEF3238
:0F4396007D367C07ED1D70011C144C70F7DFF1B4
:0143A50022F5
:03445700A20B2293
:10206B00EFD3940540037F0122120BCAFED39403D6
:10207B0040037F0222EF7041EE700B900001120BB8
:10208B00E3F452935294120BCAB4010B9000011259
:10209B000BE34293F45294120BCAFEB4020A900063
:1020AB0001120BE342934294EEB4030D9000011224
:1020BB000BE3FEF45293EE4294EF64017043120B68
:1020CB00CAFE700B900001120BE3F452915292EE88
:1020DB00B4010B900001120BE34291F45292120BDC
:1020EB00CAB4020A900001120BE342914292120B06
:1020FB00CAB4030D900001120BE3FEF45291EE42B1
:10210B0092EF64027043120BCAFE700B9000011227
:10211B000BE3F452955296EEB4010B900001120BA7
:10212B00E34295F45296120BCAB4020A90000112C4
:10213B000BE342954296120BCAB4030D90000112A9
:10214B000BE3FEF45295EE4296EF64037043120BD1
:10215B00CAFE700B900001120BE3F452B152B2EEB7
:10216B00B4010B900001120BE342B1F452B2120B0B
:10217B00CAB4020A900001120BE342B142B2120B35
:10218B00CAB4030D900001120BE3FEF452B1EE4200
:10219B00B2EF64047043120BCAFE700B9000011275
:1021AB000BE3F452B352B4EEB4010B900001120BDB
:1021BB00E342B3F452B4120BCAB4020A90000112F8
:1021CB000BE342B342B4120BCAB4030D90000112DD
:1021DB000BE3FEF452B3EE42B4EF64057043120B03
:1021EB00CAFF700B900001120BE3F452C952CAEFF5
:1021FB00B4010B900001120BE342C9F452CA120B4B
:10220B00CAB4020A900001120BE342C942CA120B74
:10221B00CAB4030D900001120BE3FFF452C9EF4255
:04222B00CA7F002244
:102E1000EF7034D3ED9498EC940340047C037D98D8
:102E2000C3ED9450EC940050047C007D50C2DE90C1
:102E3000050DECF0A3EDF0C374E89D900508F07467
:102E4000039C9005078073EF64017034D3ED9468A0
:102E5000EC940B40047C0B7D68C3ED9450EC940023
:102E600050047C007D50C2DE90050FECF0A3EDF025
:102E7000C374B89D90050AF0740B9C900509803AC4
:102E8000EF64027038D3ED9480EC940740047C0723
:102E90007D80C3ED9450EC940050047C007D50C2C2
:102EA000DE900511ECF0A3EDF0AE04FFC374D09FEB
:0E2EB00090050CF074079E90050BF0D2DE2208
:1023E9009005C6EBF0A3EAF0A3E9F0AD07EDD394AD
:1023F900034003022587ED6403704CC2DEF5F9F54D
:10240900E99005C6E0FBA3E0FAA3E0F9120BCAFFC5
:10241900E5A254CF4FF5A2900001120BE3FFE5D9D5
:1024290054F14FF5D9900004120BE35401FFE5D99B
:1024390054FE4FF5D9900005120BE3B40104D2BF45
:102449008002C2BFD2DE229005C6E0FBA3E0FAA358
:10245900E02404F9E43AFA120BCA5431120C109030
:1024690005C6E0FBA3E0FAA3E0F9900002120BE332
:10247900C39448400FE92404F9E43AFA120BCA5408
:10248900CF120C10ED704F9005C6E0FBA3E0FAA344
:10249900E0F9900004120BE3FF900002120BE3FE37
:1024A9004FF5DA900003120BE3FFE5F2543F4FF5C5
:1024B900F2900006120CD7FBAAF090050DEAF0A3E2
:1024C900EBF0C204900504EEF0900513EAF0A3EBDB
:1024D900F0F5EAEAF5FAED6401704F9005C6E0FB04
:1024E900A3E0FAA3E0F9900004120BE3FF900002C5
:1024F900120BE3FE4FF5DB900003120BE3FFE5F34C
:10250900543F4FF5F3900006120CD7FBAAF0900543
:102519000FEAF0A3EBF0C205900505EEF090051562
:10252900EAF0A3EBF0F5EBEAF5FBED6402704F90EE
:1025390005C6E0FBA3E0FAA3E0F9900004120BE35F
:10254900FF900002120BE3FE4FF5DC900003120B23
:10255900E3FFE5F4543F4FF5F4900006120CD7FD64
:10256900ACF0900511ECF0A3EDF0C206900506EE73
:0F257900F0900517ECF0A3EDF0F5ECECF5FC227B
:102588009005CAECF0A3EDF09005C9EFF0705ED3AA
:10259800EB9464EA940040047A007B64C3EB9401F2
:1025A800EA940050047A007B01C2DE9005CAE0FE7E
:1025B800A3E0FFAD03AC02120C447C007D64120C56
:1025C8005690050DEEF0A3EFF07C007D64AF03AEEE
:1025D80002120C56C374019FFFE49EFE9005CAE0E8
:1025E800FCA3E0FD120C449005070226BD9005C926
:1025F800E06401705DD3EB9464EA940040047A00CF
:102608007B64C3EB9401EA940050047A007B01C216
:10261800DE7C007D64AF03AE02120C569005CAE062
:10262800FCA3E0FD120C4490050FEEF0A3EFF07C44
:10263800007D64AF03AE02120C56C374019FFFE421
:102648009EFE9005CAE0FCA3E0FD120C449005092B
:1026580080639005C9E064027062D3EB9464EA94E5
:102668000040047A007B64C3EB9401EA94005004B0
:102678007A007B01C2DE7C007D64AF03AE02120CDF
:10268800569005CAE0FCA3E0FD120C44900511EE3B
:10269800F0A3EFF0AE02AF037C007D64120C56C3CA
:1026A80074019FFFE49EFE9005CAE0FCA3E0FD12C2
:0D26B8000C4490050BEEF0A3EFF0D2DE22F3
:03003B000230B6DA
:1030B600C0E0C083C082C0D075D000C006C0073053
:1030C600D82AC2D830A50590050D8003900507E0E3
:1030D600FEA3E0FF900514E02FF0900513E03EF00C
:1030E600900513E0FEA3E0F5EAEEF5FA30D92AC220
:1030F600D930A60590050F8003900509E0FEA3E0F0
:10310600FF900516E02FF0900515E03EF0900515AE
:10311600E0FEA3E0F5EBEEF5FB30DA2AC2DA30A7E3
:1031260005900511800390050BE0FEA3E0FF9005D6
:1031360018E02FF0900517E03EF0900517E0FEA38B
:10314600E0F5ECEEF5FCD007D006D0D0D082D083E7
:03315600D0E03294
:0515E1009002B0EFF0E4
:1015E600E4A3F09002B1E0FFC39406505AEF75F001
:1015F6000AA42467F582E43404F583120E9A0000E7
:1016060000009002B1E0FF75F00AA4246BF582E4B5
:101616003404F583E4F0EF75F00AA4246CF582E453
:101626003404F583120E9A000000009002B1E075B2
:10163600F00AA42470F582E43404F5837401F09072
:1016460002B1E004F0809C43BA80120BCAB40105D3
:1016560043F180800353F17F900001120BE3B40144
:10166600149002B0E0FF7401A807088002C333D8C3
:10167600FC42F180139002B0E0FF7401A8070880D5
:1016860002C333D8FCF452F1900002120BE3B4010A
:101696000543F540800353F5BF900003120BE3B4F6
:1016A60001149002B0E0FF7401A807088002C3335A
:1016B600D8FC42F580139002B0E0FF7401A8070839
:1016C6008002C333D8FCF452F5900004120BE3B445
:1016D600010575F720800353F7DF900005120BE331
:1016E600B4010575F710800353F7EF900006120B4F
:1016F600E3B4010575F708800353F7F79000071266
:101706000BE3B4010575F704800353F7FB9000085B
:10171600120BE3B4010575F702800353F7FD900041
:1017260009120BE390FFF27006E054EFF08004E03C
:101736004410F090FFF2C083C082E0FF90000A12CE
:101746000BE3FEEF4ED082D083F09002B0E014603F
:101756007214700302181C14700302186F147003BD
:101766000218C21470030219132405600302196AD1
:1017760090000B120BE390FF047006E054F7F08024
:1017860004E04408F090000C120BE390FF04B4014F
:1017960006E04404F08004E054FBF090000D120BC8
:1017A600E390FF04B40106E04402F08004E054FD37
:1017B600F090000E120BE390FF04B40103021960CF
:1017C60002196690000B120BE390FF147006E054AA
:1017D600F7F08004E04408F090000C120BE390FF51
:1017E60014B40106E04404F08004E054FBF09000D9
:1017F6000D120BE390FF14B40106E04402F08004DE
:10180600E054FDF090000E120BE390FF14B40103B8
:1018160002196002196690000B120BE390FF247008
:1018260006E054F7F08004E04408F090000C120B38
:10183600E390FF24B40106E04404F08004E054FB86
:10184600F090000D120BE390FF24B40106E0440271
:10185600F08004E054FDF090000E120BE390FF249C
:10186600B4010302196002196690000B120BE39093
:10187600FF347006E054F7F08004E04408F090006E
:101886000C120BE390FF34B40106E04404F080042C
:10189600E054FBF090000D120BE390FF34B4010608
:1018A600E04402F08004E054FDF090000E120BE3D9
:1018B60090FF34B4010302196002196690000B12FE
:1018C6000BE390FF447006E054F7F08004E0440810
:1018D600F090000C120BE390FF44B40106E04404C0
:1018E600F08004E054FBF090000D120BE390FF44EF
:1018F600B40106E04402F08004E054FDF090000ECE
:10190600120BE390FF44B40102804F805390000B0A
:10191600120BE390FF547006E054F7F08004E044A5
:1019260008F090000C120BE390FF54B40106E0445B
:1019360004F08004E054FBF090000D120BE390FFDE
:1019460054B40106E04402F08004E054FDF0900037
:101956000E120BE390FF54B40106E04401F080043C
:10196600E054FEF090000F120BE3B4010443F5803F
:041976002253F57F84
:01197A00224A
:10417F00EF75F00AA42467F582E43404F583E0FCBC
:0A418F00A3E0FDA3E0FEA3E0FF2281
:10419900EF75F00AA4246CF582E43404F583E0FC9D
:0A41A900A3E0FDA3E0FEA3E0FF2267
:103750009002A3ECF0A3EDF0AB079002A3E0FEA370
:10376000E0FFE4FCFDEB75F00AA42467F582E43485
:1037700004F583120E8E43BA8053F57FEB75F00A81
:10378000A42470F582E43404F583E0FF7E00900207
:10379000A3E0FCA3E0FD120C44AB07AA06E4F9F891
:1037A000FF7E367D6E7C011239A212424A53BA7FE7
:0137B00022F6
:102B97009002B0EFF07F337E337D737C3FA3E0F884
:102BA700A3E0F9A3E0FAA3E0FB120A9E600C400A37
:102BB7009002B1120E9A3F7333337FCD7ECC7D4C9A
:102BC7007C3D9002B1E0F8A3E0F9A3E0FAA3E0FBB3
:102BD700120A9E500A9002B1120E9A3D4CCCCD902B
:102BE70002B1E0FCA3E0FDA3E0FEA3E0FF9002B08A
:102BF700E0FB75F00AA4246CF582E43404F5831233
:102C07000E8E43BA80AF03C007EB75F00AA4247099
:102C1700F582E43404F583E0FFE4FCFDFEEB75F098
:102C27000AA42467F582E43404F583E0F8A3E0F905
:102C3700A3E0FAA3E0FB120D0FA804A905AA06ABAF
:102C4700077F007E367D6E7C01120D9AE4120B0B16
:102C57009002B0E075F00AA4246CF582E43404F520
:102C670083E0F8A3E0F9A3E0FAA3E0FB1208F81267
:102C77000B499002B8120E8ED007E4FDFC1226C550
:042C870053BA7F229B
:10436400EF75F00AA42470F582E43404F583EDF0CB
:014374002226
:10437500EF75F00AA42470F582E43404F583E0FFB8
:014385002215
:0A44020043BA8043F58053BA7F22CD
:0A440C0043BA8053F57F53BA7F22B4
:103BAC0043BA807401A807088002C333D8FC42F5DD
:103BBC00EF75F00AA4246BF582E43404F5837401E8
:083BCC00F043F58053BA7F229B
:103C980043BA807401A807088002C333D8FCF452E1
:103CA800F5EF75F00AA4246BF582E43404F583E497
:053CB800F053BA7F2269
:10430E00EF75F00AA4246BF582E43404F583E024FF
:02431E00FF227C
:10424A00D3E49F74809E400D90FFF1EFF0EE90FF53
:08425A00F0F07F00227F012239
:1026C500EF14604A14607514700302276F147003C9
:1026D50002279C1470030227C9240560030227F909
:1026E50090FF01EDF0EC90FF00F09002B8A3A3A3DA
:1026F500E090FF03F09002B8E0FCA3E0FDA3E0FE4C
:10270500A3E0FF7808120E4B90FF020227F490FF1A
:1027150011EDF0EC90FF10F09002B8A3A3A3E090A8
:10272500FF13F09002B8E0FCA3E0FDA3E0FEA3E0F8
:10273500FF7808120E4B90FF120227F490FF21ED4F
:10274500F0EC90FF20F09002B8A3A3A3E090FF2344
:10275500F09002B8E0FCA3E0FDA3E0FEA3E0FF7863
:1027650008120E4B90FF220227F490FF31EDF0EC9A
:1027750090FF30F09002B8A3A3A3E090FF33F09050
:1027850002B8E0FCA3E0FDA3E0FEA3E0FF78081299
:102795000E4B90FF32805890FF41EDF0EC90FF40DA
:1027A500F09002B8A3A3A3E090FF43F09002B8E035
:1027B500FCA3E0FDA3E0FEA3E0FF7808120E4B901A
:1027C500FF42802B90FF51EDF0EC90FF50F090020E
:1027D500B8A3A3A3E090FF53F09002B8E0FCA3E0F8
:1027E500FDA3E0FEA3E0FF7808120E4B90FF52EF29
:0727F500F07F00227F0122AA
:102D5F0054696D65723120696E697469616C697A45
:102D6F00696E672073756363656564200A00546933
:102D7F006D65723120696E697469616C697A696E0B
:102D8F0067206661696C6564200A0054696D65721D
:102D9F003320696E697469616C697A696E67207333
:102DAF00756363656564200A0054696D657233202D
:102DBF00696E697469616C697A696E6720666169A9
:102DCF006C6564200A0054696D65723420696E6900
:102DDF007469616C697A696E672073756363656581
:102DEF0064200A0054696D65723420696E697469D4
:102DFF00616C697A696E67206661696C6564200A27
:012E0F0000C2
:1034D7004104F5024104F6024204F700004204F9F0
:1034E70000004204F100004204EF00004105030020
:1034F7004104EE004104F4004104F3004404FB00DE
:0A3507000000004404FF0000000073
:102F6800E490054FF090053FF0A3F0A304F0E4A32C
:102F7800F0A3F0900546F090054474A2F0A37440C5
:102F8800F0E4900547F0A3F0A304F0E4A3F0A3F065
:102F980090054E04F090054C74FFF0A37410F07F78
:102FA80001121C5E90054FEFF070087BFF7A2D79B7
:102FB8005F800A90054FE07BFF7A2D797D1242628F
:102FC8007F03121C5E90054FEFF070087BFF7A2D8F
:102FD800799A800A90054FE07BFF7A2D79B81242E2
:102FE800627B017A0579477F04121C6490054FEFD4
:102FF800F070087BFF7A2D79D5800A90054FE07B29
:08300800FF7A2D79F3124262F8
:01301000229D
:103CBD009004F5E0601EA3E0601AEF24FE600B0493
:103CCD0070129004FBECF0A3EDF0AF059004FFEC47
:053CDD00F0A3EFF0224E
:1041B300EF24FE600804700E9004FB80039004FF5C
:0A41C300E0FEA3E0FF22E4FEFF226D
:10404400EF24FE600C0470139004FDECF0A3EDF07B
:0C40540022AF05900501ECF0A3EFF02274
:1041CD00EF24FE600804700E9004FD80039005013D
:0A41DD00E0FEA3E0FF22E4FEFF2253
:10421900EF24FE600A047010C28E9004F5800653E4
:09422900D1F79004F67402F022B2
:103FB700EF24FE600D0470149004F5E07002D32224
:0D3FC700C3229004F6E07003D38001C322F2
:103EC900EF24FE600E0470169004F5E0B40102D3ED
:0F3ED90022C3229004F6E0B40103D38001C32278
:103EE800EF24FE600E0470169004F5E0B40202D3CD
:0F3EF80022C3229004F6E0B40203D38001C32258
:103E4B00AE07123FB74018EF24FE600B047010D280
:103E5B008EE49004F5F02243D108E49004F6F022AE
:0E43C300AE07123EC95005123E4BD322C32254
:094416009004F1E0FEA3E0FF2296
:09441F009004EFE0FEA3E0FF228F
:06442E00900503E0FF22EF
:064434009004EEE0FF22FF
:06443A009004F4E0FF22F3
:064440009004F3E0FF22EE
:03001B0002395B4C
:10395B00C0E0C0F0C083C082C0D075D000C000C032
:10396B00069004F7E475F001120CABFED39004FC47
:10397B00E095F09004FBE09E500EC28E9004F7E4AD
:10398B00F0A3F09004F504F0D006D000D0D0D08294
:07399B00D083D0F0D0E03230
:03009B0002391314
:10391300C0E0C0F0C083C082C0D075D000C000C07A
:10392300069004F9E475F001120CABFED390050088
:10393300E095F09004FFE09E500F53D1F79004F907
:10394300E4F0A3F09004F604F0D006D000D0D0D079
:0839530082D083D0F0D0E032F5
:0300A300023277AF
:10327700C0E0C0F0C083C082C0D075D000C000C01D
:1032870006C2AF9004F1E475F00A120CABFEC3E579
:10329700F094E8EE940340519004F1E4F0A3F09029
:1032A70004EF75F001120CABFEC3E5F094E8EE9461
:1032B7000340369004EFE4F0A3F0900503E004F038
:1032C700943C4025E4F09004EEE004F0943C40196F
:1032D700E4F09004F4E004F09418400DE4F0900456
:1032E700F3E004F0B4FF02E4F0D2AFD006D000D090
:0A32F700D0D082D083D0F0D0E032B6
:061C5E007B017A05793FCD
:101C6400AD07EDD3940440037F0122ED7073120B92
:101C7400CAFED3940340037F0222C28CC2A9C2B914
:101C84005389F0538E7F538FFE900002120BE3B4FE
:101C94000102D2A9900001120BE3B40102D2B9EE01
:101CA4004289900003120BE3FF7003438E80EFB46C
:101CB4000203438904900004120BE3B40103438F2D
:101CC40001900005120CD7E5F0F58C900005120C7C
:101CD400D7F58A900007120BE3B40102D28C7F007F
:101CE40022ED64017076120BCAFEC3940340037F95
:101CF4000222C28EC2ABC2BB53890F538EBF538F15
:101D0400FD900002120BE3B40102D2AB9000011269
:101D14000BE3B40102D2BBEEC454F0428990000339
:101D2400120BE3FF7003438E40EFB4020343894078
:101D3400900004120BE3B40103438F0290000512D8
:101D44000CD7E5F0F58D900005120CD7F58B9000BB
:101D540007120BE3B40102D28E7F0022ED640270FD
:101D640063900003120BE3FED3940240037F02222C
:101D7400538EE353AFFB538FFB900002120BE3B47B
:101D8400010343AF04EE7003438E04900003120B6F
:101D9400E3B40203438E08900004120BE3B401037E
:101DA400438F04900005120CD7E5F0F5D69000059A
:101DB400120CD7F5D7900007120BE3B40103438E3E
:101DC400107F0022ED64037060900003120BE3FEA9
:101DD400D3940240037F022253D1F053AFDF90002B
:101DE40002120BE3B4010343AF20EE700343D102AC
:101DF400900003120BE3B4020343D10690000412D3
:101E04000BE3B4010343D101900005120CD7E5F0B4
:101E1400F5D4900005120CD7F5D5900007120BE30A
:101E2400B4010343D1087F0022ED6404705C900088
:101E340003120BE3FED3940240037F022253D10F1B
:101E440053AFBF900002120BE3B4010343AF40EE63
:101E5400700343D120900003120BE3B4020343D177
:101E640060900004120BE3B4010343D11090000509
:101E7400120CD7FDACF0ECF5D28DD3900007120B09
:0D1E8400E3B4010343D1807F00227F0222DE
:100F01009002ACEBF0A3EAF0A3E9F09002ABEFF0B2
:100F11006401600302111390000004F0E4A3F0A344
:100F2100F0A3F0A3F0A3F0A3F09002AFF09002AF12
:100F3100E0FFC39480501474382FF582E43401F536
:100F410083E4F09002AFE004F080E2E49002AFF0BD
:100F51009002AFE0FFC394805014741C2FF582E41B
:100F61003400F583E4F09002AFE004F080E29002F7
:100F7100ACE0FBA3E0FAA3E0F9120BCAD394C040A2
:100F8100037F022290000A120BE3B40104D2BC8059
:100F910002C2BC120BCAFFE598543F4FF598EF64AB
:100FA100C06008EF6440600302108D900002120ED1
:100FB1005E7F807E8D7D5B7C00120D9A9002B01267
:100FC1000E8EE4FFFE7D01FC9002B0E0F8A3E0F993
:100FD100A3E0FAA3E0FBC3120E3A40037F02229082
:100FE10002B0E0F8A3E0F9A3E0FAA3E0FBC3E49BBD
:100FF100FFE49AFE740199FDE498FC9002B0120E90
:101001008E9002ACE0FBA3E0FAA3E0F9900001129C
:101011000BE3FB64017038C28E538EFE5389BF53BC
:1010210089CF438E409002B0E0FCA3E0FDA3E0FE37
:10103100A3E0FF7808120E4B8F8D9002B0A3A3A3FB
:10104100E0F58BC2AB5389BF538FFDD28E8076EB17
:1010510064027035538EEF438E01538EF7438E0435
:101061009002B0E0FCA3E0FDA3E0FEA3E0FF78085E
:10107100120E4B8FD69002B0A3A3A3E0F5D753AFC6
:10108100FB538EF7438E10803C7F02229002ACE02E
:10109100FBA3E0FAA3E0F9120BCAFF70139000085A
:1010A100120BE3B40105438E20801A538EDF8015A5
:1010B100EFB48011900008120BE3B401054387805F
:1010C100800353877F9002ACE0FBA3E0FAA3E0F931
:1010D100900009120BE3B40104D2AC8002C2AC90BF
:1010E1000007120BE3B40104D29C8002C29C900061
:1010F1000B120BE354C0FFE5A2543F4FF5A2900041
:101101000C120BE3B4010543971080035397EF7F53
:1011110000229002ABE064026003021275900007A6
:101121007402F0E4A3F0A3F0A3F0A3F0A3F0A3F002
:101131009002AFF09002AFE0FFC39480501474D4DA
:101141002FF582E43401F583E4F09002AFE004F07E
:1011510080E2E49002AFF09002AFE0FFC3948050D0
:1011610014749C2FF582E43400F583E4F09002AF0F
:10117100E004F080E29002ACE0FBA3E0FAA3E0F926
:10118100120BCAFF64C06008EF64406003021235AD
:1011910090000A120BE3B4010543B501800353B576
:1011A100FE120BCAB4C005439A808003539A7F9004
:1011B1000002120E5E7F807E8D7D5B7C00120D9A97
:1011C1009002B0120E8EE4FFFE7D01FC9002B0E0B1
:1011D100F8A3E0F9A3E0FAA3E0FBC3120E3A40033F
:1011E1007F02229002B0E0F8A3E0F9A3E0FAA3E0C5
:1011F100FBC3E49BFFE49AFE740199FDE498FC9023
:1012010002B0120E8E538EEF538EF7438E0490026E
:10121100B0E0FCA3E0FDA3E0FEA3E0FF7808120E1E
:101221004B8FD69002B0A3A3A3E0F5D753AFFB43F6
:101231008E1080037F02229002ACE0FBA3E0FAA3B0
:10124100E0F9900009120BE3B4010543AF018003FB
:1012510053AFFE900007120BE3B40105439A1080CF
:1012610003539AEF90000B120BE35401FFE5BA54BC
:10127100FE4FF5BA9002ABE06403600302142890BC
:10128100000E7402F0E4A3F0A3F0A3F0A3F0A3F026
:10129100A3F09002AFF09002AFE0FFC3941C501492
:1012A10074542FF582E43402F583E4F09002AFE048
:1012B10004F080E2E49002AFF09002AFE0FFC3944B
:1012C1001C5014741C2FF582E43401F583E4F09072
:1012D10002AFE004F080E29002ACE0FBA3E0FAA3ED
:1012E100E0F9120BCAFF64C06008EF6440600302BA
:1012F10013E853ACDFEFB4C00543AC80800353ACBB
:101301007F9002ACE0FBA3E0FAA3E0F990000212A7
:101311000E5E7F807E8D7D5B7C00120D9A9002B007
:10132100120E8EE4FFFE7D01FC9002B0E0F8A3E016
:10133100F9A3E0FAA3E0FBC3120E3A40037F0222B5
:101341009002B0E0F8A3E0F9A3E0FAA3E0FBC3E464
:101351009BFFE49AFE740199FDE498FC9002B0129F
:101361000E8E9002ACE0FBA3E0FAA3E0F99000013D
:10137100120BE3FB6402703253ACBF538EEF538EFA
:10138100F7438E049002B0E0FCA3E0FDA3E0FEA3CE
:10139100E0FF7808120E4B8FD69002B0A3A3A3E012
:1013A100F5D753AFFB438E108040EB64017035439A
:1013B100AC4053D1F053AFDF43D10253D1FB53D1F2
:1013C100FE9002B0E0FCA3E0FDA3E0FEA3E0FF7805
:1013D10008120E4B8FD49002B0A3A3A3E0F5D5431E
:1013E100D10880067F02227F02229002ACE0FBA39B
:1013F100E0FAA3E0F9900009120BE3B4010543AF51
:1014010008800353AFF7900007120BE3B4010543C3
:10141100AC10800353ACEF90000B120BE35402FFAE
:10142100E5BA54FD0215D89002ABE06404600302F2
:1014310015DE9000157402F0E4A3F0A3F0A3F0A36D
:10144100F0A3F0A3F09002AFF09002AFE0FFC394DD
:101451001C501474702FF582E43402F583E4F0908B
:1014610002AFE004F080E2E49002AFF09002AFE05E
:10147100FFC3941C501474B82FF582E43401F58332
:10148100E4F09002AFE004F080E29002ACE0FBA354
:10149100E0FAA3E0F9120BCAFF64C06008EF6440F0
:1014A100600302159B5384DFEFB4C0054384808041
:1014B1000353847F9002ACE0FBA3E0FAA3E0F99030
:1014C1000002120E5E7F807E8D7D5B7C00120D9A84
:1014D1009002B0120E8EE4FFFE7D01FC9002B0E09E
:1014E100F8A3E0F9A3E0FAA3E0FBC3120E3A40032C
:1014F1007F02229002B0E0F8A3E0F9A3E0FAA3E0B2
:10150100FBC3E49BFFE49AFE740199FDE498FC900F
:1015110002B0120E8E9002ACE0FBA3E0FAA3E0F958
:10152100900001120BE3FB640270325384BF538EAF
:10153100EF538EF7438E049002B0E0FCA3E0FDA3CD
:10154100E0FEA3E0FF7808120E4B8FD69002B0A305
:10155100A3A3E0F5D753AFFB438E108040EB6402A9
:10156100703543844053D10F53AFBF43D12053D182
:10157100BF53D1EF9002B0E0FCA3E0FDA3E0FEA3D6
:10158100E0FF7808120E4B8FD29002B0A3A3A3E024
:10159100F5D343D18080067F02227F02229002ACE4
:1015A100E0FBA3E0FAA3E0F9900009120BE3B40118
:1015B1000543AF10800353AFEF900007120BE3B464
:1015C100010543841080035384EF90000B120BE359
:0F15D1005404FFE5BA54FB4FF5BA7F00227F03A5
:0115E00022E8
:103C4C00900002E02438F582E43401F583EFF09023
:103C5C000002E004F0C394804002E4F0900003E022
:073C6C00700404F0D299225C
:103BD400900009E024D4F582E43401F583EFF090F9
:103BE4000009E004F0C394804002E4F090000AE08D
:083BF400700504F0439A02225F
:103BFC00900010E02454F582E43402F583EFF09049
:103C0C000010E004F0C3941C4002E4F0900011E0BA
:083C1C00700504F043AC022224
:103C2400900017E02470F582E43402F583EFF090FD
:103C34000017E004F0C3941C4002E4F0900018E084
:083C4400700504F04384022224
:10426200C2AF120BCAFF600C123C4C740129F9E474
:074272003AFA80EED2AF2200
:10428D00120BCAFF600C123BD4740129F9E43AFAFF
:03429D0080EE228E
:1042A000120BCAFF600C123BFC740129F9E43AFAC4
:0342B00080EE227B
:1042B300120BCAFF600C123C24740129F9E43AFA88
:0342C30080EE2268
:0300230002351291
:10351200C0E0C083C082C0D075D000C006C00730F2
:10352200982DC298900006E07025900004E0C394A4
:10353200804002E4F0900004E0FF04F0741C2FF5D8
:1035420082E43400F583E599F09000057405F030CB
:103552009930C299900002E0FF900001E0FE6F6096
:103562001C74382EF582E43401F583E0F59990005D
:1035720001E004F0C394804009E4F0800590000368
:0F358200E4F0D007D006D0D0D082D083D0E03292
:0300430002330184
:10330100C0E0C083C082C0D075D000C006C007E550
:103311009A30E02E539AFE90000DE0702590000B3C
:10332100E0C394804002E4F090000BE0FF04F074ED
:103331009C2FF582E43400F583E59BF090000C743A
:1033410005F0E59A30E131539AFD900009E0FF90D4
:103351000008E0FE6F601C74D42EF582E43401F5A0
:1033610083E0F59B900008E004F0C394804009E4F9
:10337100F0800590000AE4F0D007D006D0D0D082CA
:05338100D083D0E03212
:03008B00023386B7
:10338600C0E0C083C082C0D075D000C006C007E5CB
:10339600AC30E02E53ACFE900014E0702590001285
:1033A600E0C3941C4002E4F0900012E0FF04F074C5
:1033B6001C2FF582E43401F583E5ADF0900013741B
:1033C60005F0E5AC30E13153ACFD900010E0FF9024
:1033D600000FE0FE6F601C74542EF582E43402F593
:1033E60083E0F5AD90000FE004F0C3941C4009E4BF
:1033F600F08005900011E4F0D007D006D0D0D0823E
:05340600D083D0E0328C
:0300930002340B29
:10340B00C0E0C083C082C0D075D000C006C007E545
:10341B008430E02E5384FE90001BE0702590001941
:10342B00E0C3941C4002E4F0900019E0FF04F07438
:10343B00B82FF582E43401F583E585F090001A741A
:10344B0005F0E58430E1315384FD900017E0FF90E7
:10345B000016E0FE6F601C74542EF582E43402F506
:10346B0083E0F585900016E004F0C3941C4009E45A
:10347B00F08005900018E4F0D007D006D0D0D082B1
:05348B00D083D0E03207
:0E43D100E4F5C7F5C5F5C675C3FF75C4FF2238
:1039E600AD07AC06C2AF75C78075C501ECF5C3AFB0
:1039F600058FC475C65A75C6A500E5C2120C100D12
:103A0600BD00010C740129F9E43AFA90057A74FFB5
:0F3A1600F5F0120CAB45F070D31243D1D2AF22B2
:103E6B00AD07AC06C2AFECF5C3AF058FC475C78009
:103E7B0075C50375C65A75C6A5001243D1D2AF22BC
:103A2500AD07AC06C2AF75C78075C502ECF5C3AF6F
:103A3500058FC4120BCAF5C275C65A75C6A5000D09
:103A4500BD00010C740129F9E43AFA90058174FF6F
:0F3A5500F5F0120CAB45F070D31243D1D2AF2273
:101AED00EFD3940940037FFF2274232F2FF8E620B4
:101AFD00E5F4C2AFE64430F6D2AFAE0CEEC39F5064
:101B0D00210E740E2EF8E6F908E618BE090274FFD0
:101B1D00FDED69600909E71919F7090980F3161632
:101B2D0080DAEED39F400405810581EED39F4022DC
:101B3D00740E2EF808E6F9EEB50C02A9811806060A
:101B4D00E6FDED6960091919E70909F71980F31E1A
:101B5D0080D9EF240EF8E604F8EF2F049042799324
:091B6D00F608EF2F93F67F002229
:101B7600EFD3940940037FFF22EF232423F8E630B6
:101B8600E5F4C2AFE6548CF6D2AFE50CB5070A749D
:101B96000E2FF8E6F5810219F6502E740F2FF8E68F
:101BA600BF090274FFFD18E6F9740E2FF8FBE6FC78
:101BB600E96C6008A805E7F61D1980F4A803A605D8
:101BC6001FE50CB507E37F0022740F2FF8E6FD181A
:101BD60086010F740E2FF8A601088604E50CB507DA
:101BE60002AC81ED6C60080D09A805E6F780F4E506
:091BF6000CB507DE89817F002295
:101BFF008FF0E4FFFEE50C232422F8C2A930F70D85
:101C0F007F08E6600B2DF660325030800730F1060A
:101C1F00EDF660277E020830F010C2AFE610E72520
:101C2F000E30E20CD2AF7F048014C2AFE610E7157E
:101C3F0054EC4EF6D2AFD2A90219F67F0808EF4442
:0F1C4F0083F4C2AF56C6D2AFD2A954804FFF2242
:10080000020BB5E86480F8E933E83360110460F066
:10081000ED33EC337009E8FCE9FDEAFEEBFF22045E
:1008200060DED3EB9FEA9EE99DE8C2E78CF0C2F759
:1008300095F0400CE8CCF8E9CDF9EACEFAEBCFFB25
:10084000120B8085D0F05804700320D5B3E80470F3
:10085000075002B2D5020BBF92D5EC0460F7E4CC8E
:10086000C0E0C398F8603B94186008400DD0E0FBEE
:10087000020B97E4FBFAC9FC8028E830E406E4C9DF
:10088000FBE4CAFCE830E305E4C9CACBFCE8540742
:100890006010F8C3E913F9EA13FAEB13FBEC13FC4D
:1008A000D8F130F52FC3E49CFCEF9BFFEE9AFEEDF0
:1008B00099FDD0E0FBEF4E4D4C701222DB03020B92
:1008C000BCEC2CFCEF33FFEE33FEED33FDED30E7F7
:1008D000EB020B97EF2BFFEE3AFEED39FDD0E0FB7C
:1008E00050130BBB0003020BBFED13FDEE13FEEF25
:0808F00013FFEC13FC020B974F
:1008F800EC4D6011E8497017ED33EC3304600DE4FA
:10090800FCFFFEFD22E933E8330470F8020BB51250
:100918000B8058046009E4CC248150062850090251
:100928000BBF284003020BBCC0E0EB4A7044B980FF
:1009380006D0E0FB020BABEF4E701CBD8008EBFF4E
:10094800EAFEE9FD80EBE98DF0A4FEE5F00209E19D
:10095800E9CDF9EAFEEBFFEF89F0A4FCE5F0CE89DA
:10096800F0A42EFFE435F0CD89F0A42DFEE435F097
:100978008067EF4E7005BD80D780C3EF8BF0A4ACC5
:10098800F0EE8BF0A42CFCE435F0F8EF8AF0A42C00
:10099800E5F038FCE433CB8DF0A42CFCE5F03BF813
:1009A800EE8AF0A42CFCE5F038F8E433CF89F0A403
:1009B8002CFCE5F038CF3400CE89F0A42FFFE5F009
:1009C8003EFEE433C98DF0A42EFEE5F039CD8AF061
:1009D800A42FFFE5F03EFEE43DFD33D0E0FB5007D9
:1009E8000BBB000F020BBFEC2CFCEF33FFEE33FE0A
:0609F800ED33FD020B9738
:1009FE00020BBFEC5D046005E859047003020BB5F1
:100A0E00120B80580460F6EC4860F2EC7004FDFEA8
:100A1E00FF22C860DB2481C85009C39860025006CB
:100A2E00020BBC9850CAF582E9294B4A7005AB827D
:100A3E00020BAB75F0007C1A7880C3EF9BEE9AED3B
:100A4E0099400DC3EF9BFFEE9AFEED99FDE842F043
:100A5E00DC23ACF0D0E0FFD0E0FED0E0FDAB822096
:100A6E00E7101BEB60BAEC2CFCEF33FFEE33FEED20
:100A7E0033FD020B97E803F830E705C0F075F00080
:100A8E00EF2FFFEE33FEED33FD40B830E7C280AA04
:100A9E0074F8CC6480CCC86480C8F582046043C30B
:100AAE00EB9FF5F0EA9E42F0E99D42F0E89C45F09E
:100ABE0060305018E5825FFFE582F42B5582FB50C3
:100ACE00210ABA001D09B90019088016E5825BFBE0
:100ADE00E582F42F5582FF50090EBE00050DBD00B4
:100AEE00010CC3EB9FF5F0EA9E42F0E99D42F0E85F
:0D0AFE009C45F06007CC4820E701B3EC22D6
:100B0B0075F020800E75F010800575F0087D007E65
:100B1B00007F003392D530D503120E2CEC334010EE
:100B2B00EF33FFEE33FEED33FDEC33FCD5F0ED226E
:0E0B3B00E5F0247EA2D513CC92E7CDCEFF22AA
:100B4900EDD2E7CD33EC3392D524814006E4FFFEA4
:100B5900FDFC22FCE4CFCECDCC24E0501174FF8003
:100B6900EDC3CC13CCCD13CDCE13CECF13CF0470A0
:070B7900F030D5DE020E2C66
:100B8000E9D2E7C933E833F892D5EDD2E7CD33ECBB
:070B900033FC5002B2D52234
:100B9700EC30E7100FBF000C0EBE00080DBD0004BF
:100BA7000BEB6014A2D5EB13FCED92E7FD2274FF6B
:100BB700FCFDFEFF22E480F8A2D574FF13FC7D80C4
:030BC700E480EFD8
:030000000231EBDF
:0C31EB00787FE4F6D8FD758135023232A1
:100BCA00BB010689828A83E0225002E722BBFE0229
:090BDA00E32289828A83E493225C
:100BE300BB010CE58229F582E5833AF583E02250C7
:100BF30006E92582F8E622BBFE06E92582F8E22211
:0D0C0300E58229F582E5833AF583E493222A
:100C1000BB010689828A83F0225002F722BBFE01C3
:020C2000F322BD
:100C2200F8BB010DE58229F582E5833AF583E8F008
:100C3200225006E92582C8F622BBFE05E92582C8B4
:020C4200F2229C
:100C4400EF8DF0A4A8F0CF8CF0A428CE8DF0A42EC4
:020C5400FE227E
:100C5600BC000BBE0029EF8DF084FFADF022E4CC82
:100C6600F875F008EF2FFFEE33FEEC33FCEE9DEC4B
:100C7600984005FCEE9DFE0FD5F0E9E4CEFD22ED91
:100C8600F8F5F0EE8420D21CFEADF075F008EF2FDB
:100C9600FFED33FD4007985006D5F0F222C398FDCC
:050CA6000FD5F0EA2269
:100CAB00C5F0F8A3E028F0C5F0F8E58215827002D4
:060CBB001583E038F02271
:100CC100A3F8E0C5F025F0F0E582158270021583E6
:060CD100E0C838F0E82243
:100CD700BB0110E58229F582E5833AF583E0F5F05B
:100CE700A3E0225009E92582F886F008E622BBFE38
:100CF7000AE92582F8E2F5F008E222E5832AF5837E
:080D0700E993F5F0A3E9932242
:100D0F00E88FF0A4CC8BF0A42CFCE98EF0A42CFC83
:100D1F008AF0EDA42CFCEA8EF0A4CDA8F08BF0A401
:100D2F002DCC3825F0FDE98FF0A42CCD35F0FCEB60
:100D3F008EF0A4FEA9F0EB8FF0A4CFC5F02ECD3925
:0F0D4F00FEE43CFCEAA42DCE35F0FDE43CFC2292
:100D5E0075F008758200EF2FFFEE33FECD33CDCC4C
:100D6E0033CCC58233C5829BED9AEC99E5829840CF
:100D7E000CF582EE9BFEED9AFDEC99FC0FD5F0D6AC
:100D8E00E4CEFBE4CDFAE4CCF9A88222B800C1B9D6
:100D9E000059BA002DEC8BF084CFCECDFCE5F0CB14
:100DAE00F97818EF2FFFEE33FEED33FDEC33FCEB4D
:100DBE0033FB10D703994004EB99FB0FD8E5E4F908
:100DCE00FA227818EF2FFFEE33FEED33FDEC33FCF5
:100DDE00C933C910D7059BE99A4007EC9BFCE99AE9
:100DEE00F90FD8E0E4C9FAE4CCFB2275F010EF2F2E
:100DFE00FFEE33FEED33FDCC33CCC833C810D7072E
:100E0E009BEC9AE899400AED9BFDEC9AFCE899F868
:0E0E1E000FD5F0DAE4CDFBE4CCFAE4C8F922FB
:1039A200C2D5E830E70FB2D5E4C39BFBE49AFAE450
:1039B20099F9E498F8EC30E717B2D51239D8120D1C
:1039C2009AE4C39BFBE49AFAE499F9E498F8800339
:1039D200120D9A30D50DE4C39FFFE49EFEE49DFDD7
:0439E200E49CFC2243
:0E0E2C00C3E49FFFE49EFEE49DFDE49CFC22D7
:100E3A00EB9FF5F0EA9E42F0E99D42F0E89C45F00E
:010E4A002285
:100E4B00E8600FECC313FCED13FDEE13FEEF13FF85
:030E5B00D8F122A9
:100E5E00BB010DE58229F582E5833AF583020ED8B2
:100E6E005007E92582F8020ECBBBFE07E92582F872
:100E7E00020EE4E58229F582E5833AF583020EF14E
:0C0E8E00ECF0A3EDF0A3EEF0A3EFF022D7
:100E9A00A8828583F0D083D082120EB1120EB112CD
:100EAA000EB1120EB1E473E493A3C583C5F0C583F2
:100EBA00C8C582C8F0A3C583C5F0C583C8C582C8A2
:010ECA002205
:1031F700021AB0E493A3F8E493A34003F68001F224
:1032070008DFF48029E493A3F85407240CC8C333D8
:10321700C4540F4420C8834004F456800146F6DFA7
:10322700E4800B0102040810204080903490E47E73
:10323700019360BCA3FF543F30E509541FFEE4939C
:10324700A360010ECF54C025E060A840B8E493A363
:10325700FAE493A3F8E493A3C8C582C8CAC583CA8E
:10326700F0A3C8C582C8CAC583CADFE9DEE780BE46
:0135110000B9
:0D0ECB00E6FB08E6F908E6FA08E6CBF82297
:0C0ED800E0F8A3E0F9A3E0FAA3E0FB229D
:0D0EE400E2FB08E2F908E2FA08E2CBF8228E
:100EF100E493F8740193F9740293FA740393FB2257
:00000001FF
