:027DC7007F6ECD
:027DD1007A1A1C
:027DD90083DA4B
:027DDB004B2536
:027DDF00825FC1
:027DE1008553C8
:027DE30084D743
:027DE500855FB8
:107F6E00126A417F03127BB97F0512369C7F0E1277
:0C7F7E00369C7F0C12369CE4FF02372575
:107A1A00E4FF127EDCAC06AD07E4120B1090055FA2
:107A2A007401F012547F7F011277B0E4FBFA7D1ED5
:077A3A007F021237AE80D974
:1083DA00E4FF127049E4FBFA7D1E7F021237AE8079
:0183EA00EFA3
:104B25009005521211D3000000009005561211D3C2
:104B350000000000E490055AF0E490055AF0E4FF07
:104B45001271F5E4FBFA7D047F021237AEE4FF1221
:104B550082C5AC06AD07E4120B109003421211C7D3
:104B650090055F1211D346EA6000900342E0FCA372
:104B7500E0FDA3E0FEA3E0FF126C4D90033E121191
:104B8500C790033EE0FCA3E0FDA3E0FEA3E0FF9099
:104B9500055F742CF012654790033E1211C7900310
:104BA5003EE0FCA3E0FDA3E0FEA3E0FF125E5A9009
:104BB500033E1211C790033EE0FCA3E0FDA3E0FE17
:104BC500A3E0FF90055AE075F004A42446F582E5BC
:104BD500F03403F5831211C790055AE004F0E0C3E1
:104BE50094825003024B437B017A03794690055F1B
:104BF5001211D3477FFF009005631211D300000007
:104C0500007D821242BF90054E1211C77F667ECF8E
:104C15007D8B7C3690054EE0F8A3E0F9A3E0FAA37E
:104C2500E0FB1208F89005521211C7E4FF12704913
:104C35007B5A7A64791B783F1208F87B337AB3790B
:104C4500A57843120807900552E0F8A3E0F9A3E020
:104C5500FAA3E0FB1208F8E4FBFA79A07841120AFE
:104C6500019005561211C7900556E0FCA3E0FDA37F
:104C7500E0FEA3E0FF90055C1211C7E4FF127D463C
:104C8500900556E0FCA3E0FDA3E0FEA3E0FF900540
:104C95005F7401F012547F7F011277B0E4FBFA7D57
:094CA500647F021237AE024B3E9F
:0C855300E4FBFA7DC87F801237AE80F494
:0C855F00E4FBFA7D647F801237AE80F4EC
:10825F00125344EF6003128583E4FBFA7D147F8091
:05826F001237AE80EBA8
:0F84D7001275D3E4FBFA7D147F801237AE80F16B
:107A4100535443313577346B3538733427732055AC
:107A510041525431206973206F70656E200D0A0008
:077A610048656C6C6F210009
:1076AF009002E67440F0A37401F0A31211C7900288
:1076BF00ED7401F0E4A3F0A304F0A3F0E4A3F0A3AE
:1076CF00F07B017A0279E67F0112130D7BFF7A7A44
:0576DF00794102823236
:0186BD00229A
:106A41007F807E257D007C001276AF1267E6127989
:106A51005212727D12821B127B4D12811A12716ABF
:106A61001283B67BFF7A7A7961E4FDFF126DCFE480
:106A7100FBFA7DFA7F021237AEE4FBFA7DFA7F0260
:106A81001237AEE4FBFA7DFA7F021237AEE4FBFA6D
:106A91007DFA7F021237AE127CE3E4FF1283A47FFA
:0E6AA100011283A4E4FF1283927F010283920C
:0186BE002299
:0186BF002298
:0186C0002297
:0186C1002296
:0186C2002295
:10599300440008000000004202E000004402E2006C
:0359A30000000001
:0E42BF0090055BEBF0A3EAF0A3E9F0A3EDF0AD
:1042CD009005681211D300000000900563E0FCA377
:1042DD00E0FDA3E0FEA3E0FF90056C1211C7900571
:1042ED005FE0FCA3E0FDA3E0FEA3E0FF90057012EC
:1042FD0011C7E4900567F090055EE0FF900567E05B
:10430D00C39F40030243EF90055BE0FBA3E0FAA3DC
:10431D00E0F9900567E075F004A4F58285F083124D
:10432D00116790056CE0F8A3E0F9A3E0FAA3E0FBB8
:10433D00120A9E502190055BE0FBA3E0FAA3E0F981
:10434D00900567E075F004A4F58285F0831211677E
:10435D0090056C1211C790055BE0FBA3E0FAA3E09A
:10436D00F9900567E075F004A4F58285F0831211CC
:10437D0067900570E0F8A3E0F9A3E0FAA3E0FB1263
:10438D000A9E6023402190055BE0FBA3E0FAA3E0C9
:10439D00F9900567E075F004A4F58285F08312119C
:1043AD00679005701211C7900568E0FCA3E0FDA3AE
:1043BD00E0FEA3E0FF90055BE0FBA3E0FAA3E0F9CC
:1043CD00900567E075F004A4F58285F083121197CE
:1043DD001208079005681211C7900567E004F002F6
:1043ED004304900568E0FCA3E0FDA3E0FEA3E0FF1D
:1043FD00C004C005C006C007900570E0FCA3E0FD39
:10440D00A3E0FEA3E0FF90056CE0F8A3E0F9A3E0C4
:10441D00FAA3E0FB120807A804A905AA06AB07D06A
:10442D0007D006D005D0041208039005681211C7F5
:10443D00900568E0FCA3E0FDA3E0FEA3E0FFC0044F
:10444D00C005C006C00790055EE024FEFDE434FF04
:10445D00FCE4120B10A804A905AA06AB07D007D0DF
:10446D0006D005D004120A019005681211C79005F7
:0C447D0068E0FCA3E0FDA3E0FEA3E0FF6C
:014489002210
:064E3100900AAE1211C749
:104E3700900AB6E0FCA3E0FDA3E0FEA3E0FF900A22
:104E4700BE1211C7900AB2E0FCA3E0FDA3E0FEA3E7
:104E5700E0FF900AC21211C7900000E0FCA3E0FD3A
:104E6700A3E0FEA3E0FF900AC61211C7900000E07E
:104E7700FCA3E0FDA3E0FEA3E0FF900AC61211C762
:104E8700900AC2E0FCA3E0FDA3E0FEA3E0FF9000D0
:104E970004E0F8A3E0F9A3E0FAA3E0FB1208079007
:104EA7000ACE1211C7900ABEE0FCA3E0FDA3E0FE04
:104EB700A3E0FF900ACEE0F8A3E0F9A3E0FAA3E0AD
:104EC700FB120807A804A905AA06AB07900ACEE0BB
:104ED700FCA3E0FDA3E0FEA3E0FF120A01900AD2C3
:104EE7001211C7900AC6E0F8A3E0F9A3E0FAA3E01D
:104EF700FB900AAEE0FCA3E0FDA3E0FEA3E0FF12F7
:104F07000803900AD2E0F8A3E0F9A3E0FAA3E0FBD4
:104F17001208F8900AC6E0F8A3E0F9A3E0FAA3E0C4
:104F2700FB120807900ACA1211C7900AD2E0F8A329
:104F3700E0F9A3E0FAA3E0FBE4FFFE7D807C3F12EB
:104F47000803900ACEE0F8A3E0F9A3E0FAA3E0FB98
:104F57001208F89000041211C7900ACAE0FCA3E0F7
:104F6700FDA3E0FEA3E0FF9000001211C7900ACA5C
:0B4F7700E0FCA3E0FDA3E0FEA3E0FFD0
:014F8200220C
:066C4D0090055B1211C767
:106C5300900008E0F8A3E0F9A3E0FAA3E0FB9005B5
:106C63005BE0FCA3E0FDA3E0FEA3E0FF1208031238
:106C7300854690055FE0F8A3E0F9A3E0FAA3E0FB03
:106C8300120A9E5005900008801790055BE0FCA354
:106C9300E0FDA3E0FEA3E0FF9000081211C79005FA
:0C6CA3005BE0FCA3E0FDA3E0FEA3E0FF2B
:016CAF0022C2
:065E5A0090055B1211C768
:105E60009005601211D30000000090055BE0FCA3D8
:105E7000E0FDA3E0FEA3E0FF9002DC1211C7E49076
:105E8000055FF090055FE0FBC394B4506875F004C3
:105E9000EBA42410F582E5F03400F583E0FCA3E0E8
:105EA000FDA3E0FEA3E0FF75F004EBA4240CF58253
:105EB000E5F03400F5831211C7900560E0FCA3E023
:105EC000FDA3E0FEA3E0FF90055FE075F004A424CD
:105ED0000CF582E5F03400F583E0F8A3E0F9A3E0E7
:105EE000FAA3E0FB1208079005601211C790055F46
:105EF000E004F0808EE4FBFA79347843900560E0AA
:0D5F0000FCA3E0FDA3E0FEA3E0FF120A01F8
:015F0D002271
:10654700120B49900560EEF0A3EFF0FDAC06EC12DC
:106557000B109002E2E0F8A3E0F9A3E0FAA3E0FB56
:106567001208031285467B177AB779D17838120A51
:106577009E60054003D38001C340399002E1E004E7
:10658700F070069002E0E004F090055FE0FFD39022
:1065970002E1E09F9002E0E09400401FE4F0A3F0E6
:1065A700900560E0FCA3E0FDEC120B109002E212F4
:1065B70011C78007E49002E0F0A3F09002E2E0FC4C
:0965C700A3E0FDA3E0FEA3E0FF48
:0165D00022A8
:104F8300AB07EB75F041A424D3F582E43408F58331
:104F93001211D300000000EB75F041A424D7F58271
:104FA300E43408F5831211D300000000EB75F041DF
:104FB300A424DBF582E43408F5831211D300000046
:104FC30000EB75F041A424EFF582E43408F5831275
:104FD30011D300000000EB75F041A424EBF582E44B
:104FE3003408F5831211D300000000900C66E0FC36
:104FF300A3E0FDA3E0FEA3E0FFEB75F041A424DFF3
:10500300F582E43408F5831211C7900C6AE0FCA31F
:10501300E0FDA3E0FEA3E0FFEB75F041A424E3F57C
:1050230082E43408F5831211C7900C6EE0FCA3E010
:10503300FDA3E0FEA3E0FFEB75F041A424E7F582B6
:10504300E43408F5831211C7EB75F041A424DFF5AE
:1050530082E43408F583E0FCA3E0FDA3E0FEA3E0D3
:10506300FFEB75F041A424F7F582E43408F58312CD
:1050730011C7EB75F041A424E3F582E43408F5830A
:10508300E0FCA3E0FDA3E0FEA3E0FFEB75F041A489
:1050930024F3F582E43408F5831211C7EB75F0416C
:1050A300A424E7F582E43408F583E0FCA3E0FDA340
:1050B300E0FEA3E0FFEB75F041A424FBF582E434AA
:0650C30008F5830211C78D
:10833800EF75F041A4240BF582E43409F583740148
:02834800F02221
:1083EB00EF75F041A4240BF582E43409F583E4F036
:0183FB00225F
:103F0F00900D7FEFF075F041A4240BF582E4340996
:103F1F00F583E070030240E9900D7FE0FF75F041FB
:103F2F00A424CFF582E43408F583E0F8A3E0F9A3E5
:103F3F00E0FAA3E0FBEF75F041A424CBF582E43463
:103F4F0008F583E0FCA3E0FDA3E0FEA3E0FF120869
:103F5F0003900D7FE0FB75F041A424D3F582E43488
:103F6F0008F5831211C7EB75F041A424EBF582E439
:103F7F003408F583C083C082E0FCA3E0FDA3E0FE1C
:103F8F00A3E0FF900D7FE075F041A424D3F582E408
:103F9F003408F583E0F8A3E0F9A3E0FAA3E0FB12FD
:103FAF000807D082D0831211C7900D7FE0FF75F004
:103FBF0041A424EBF582E43408F583E0F8A3E0F99B
:103FCF00A3E0FAA3E0FBEF75F041A424E3F582E44C
:103FDF003408F583E0FCA3E0FDA3E0FEA3E0FF12AD
:103FEF0008F8C004C005C006C007900D7FE0FF753C
:103FFF00F041A424D3F582E43408F583E0F8A3E07C
:10400F00F9A3E0FAA3E0FBEF75F041A424DFF582FA
:10401F00E43408F583E0FCA3E0FDA3E0FEA3E0FF9A
:10402F001208F8D003D002D001D000120807C00444
:10403F00C005C006C007900D7FE0FF75F041A424B6
:10404F00D7F582E43408F583E0F8A3E0F9A3E0FAAA
:10405F00A3E0FBEF75F041A424D3F582E43408F517
:10406F0083E0FCA3E0FDA3E0FEA3E0FF12080390B2
:10407F000D7FE075F041A424E7F582E43408F58361
:10408F00E0F8A3E0F9A3E0FAA3E0FB1208F8D003ED
:10409F00D002D001D000120807900D7FE0FB75F021
:1040AF0041A424EFF582E43408F5831211C7EB75B0
:1040BF00F041A424D3F582E43408F583E0FCA3E0B7
:1040CF00FDA3E0FEA3E0FFEB75F041A424D7F5823A
:0C40DF00E43408F5831211C7D322C32279
:053CC900900D5EEFF01C
:103CCE00E0FF75F041A424CFF582E43408F583E0DB
:103CDE00F8A3E0F9A3E0FAA3E0FBEF75F041A4240A
:103CEE00CBF582E43408F583E0FCA3E0FDA3E0FE0F
:103CFE00A3E0FF120803900D5EE0FB75F041A424D3
:103D0E00D3F582E43408F5831211C7EB75F041A4A4
:103D1E00240BF582E43409F583E07003023F0DEBCA
:103D2E0075F041A42407F582E43409F583E0FCA381
:103D3E00E0FDA3E0FEA3E0FFEB75F041A424D3F574
:103D4E0082E43408F583E0F8A3E0F9A3E0FAA3E0F7
:103D5E00FB120A9E600B4009E4900D5FF0A3F08009
:103D6E004E900D5FE4F0A304F0900D5EE075F0410F
:103D7E00A424EBF582E43408F583C083C082E0FC12
:103D8E00A3E0FDA3E0FEA3E0FF900D5EE075F04121
:103D9E00A424D3F582E43408F583E0F8A3E0F9A374
:103DAE00E0FAA3E0FB120807D082D0831211C7906D
:103DBE000D5EE0FF75F041A424EBF582E43408F5C6
:103DCE0083E0F8A3E0F9A3E0FAA3E0FBEF75F0417E
:103DDE00A424E3F582E43408F583E0FCA3E0FDA31C
:103DEE00E0FEA3E0FF1208F8C004C005C006C0073D
:103DFE00900D5FE0FCA3E0FDE4120B10D003D002A7
:103E0E00D001D0001208F8C004C005C006C007904B
:103E1E000D5EE0FF75F041A424D3F582E43408F57D
:103E2E0083E0F8A3E0F9A3E0FAA3E0FBEF75F0411D
:103E3E00A424DFF582E43408F583E0FCA3E0FDA3BF
:103E4E00E0FEA3E0FF1208F8D003D002D001D000AC
:103E5E00120807C004C005C006C007900D5EE0FF43
:103E6E0075F041A424D7F582E43408F583E0F8A375
:103E7E00E0F9A3E0FAA3E0FBEF75F041A424D3F53B
:103E8E0082E43408F583E0FCA3E0FDA3E0FEA3E0AA
:103E9E00FF120803900D5EE075F041A424E7F58251
:103EAE00E43408F583E0F8A3E0F9A3E0FAA3E0FB1D
:103EBE001208F8D003D002D001D000120807900DDE
:103ECE005EE0FB75F041A424EFF582E43408F5833F
:103EDE001211C7EB75F041A424D3F582E43408F532
:103EEE0083E0FCA3E0FDA3E0FEA3E0FFEB75F04151
:103EFE00A424D7F582E43408F5831211C7D322C364
:013F0E002290
:0526EB00900D61EFF00D
:1026F000E0FF75F041A424CFF582E43408F583E0CF
:10270000F8A3E0F9A3E0FAA3E0FBEF75F041A424FD
:10271000CBF582E43408F583E0FCA3E0FDA3E0FE02
:10272000A3E0FF120803900D61E0FB75F041A424C3
:10273000D3F582E43408F5831211C7EB75F041A498
:10274000240BF582E43409F583E07003022AC1EB1F
:1027500075F041A424FFF582E43408F583E0FCA37E
:10276000E0FDA3E0FEA3E0FFEB75F041A424CFF56C
:1027700082E43408F583E0F8A3E0F9A3E0FAA3E0EB
:10278000FB120A9E6002500302280F900D61E07553
:10279000F041A424D3F582E43408F583E0FCA3E0FF
:1027A000FDA3E0FEA3E0FF120B49128577AC06AD56
:1027B00007EC120B10900D61E075F041A42407F5B1
:1027C00082E43409F583E0F8A3E0F9A3E0FAA3E09A
:1027D000FB120A9E500302291A900D62E4F0A30432
:1027E000F0900D61E075F041A424D3F582E4340843
:1027F000F583E0FCA3E0FDA3E0FEA3E0FFE4FBFA29
:10280000F9F8120A9E6002500302297102292B90E6
:102810000D61E0FF75F041A424FFF582E43408F572
:1028200083E0F8A3E0F9A3E0FAA3E0FBEF75F04141
:10283000A424CFF582E43408F583E0FCA3E0FDA3F3
:10284000E0FEA3E0FF120A9E600250030228CF9030
:102850000D61E075F041A424D3F582E43408F583DA
:10286000E0FCA3E0FDA3E0FEA3E0FF120B4912850C
:1028700077AC06AD07EC120B10900D61E075F041DE
:10288000A42407F582E43409F583E0F8A3E0F9A372
:10289000E0FAA3E0FB120A9E5002807E900D62E4F3
:1028A000F0A304F0900D61E075F041A424D3F5820B
:1028B000E43408F583E0FCA3E0FDA3E0FEA3E0FF21
:1028C000E4FBFAF9F8120A9E4003022971805C9039
:1028D0000D61E075F041A424D3F582E43408F5835A
:1028E000E0FCA3E0FDA3E0FEA3E0FF120B4912858C
:1028F00077AC06AD07EC120B10900D61E075F0415E
:10290000A42407F582E43409F583E0F8A3E0F9A3F1
:10291000E0FAA3E0FB120A9E5009E4900D62F0A3D6
:10292000F0804E900D62E4F0A304F0900D61E0752C
:10293000F041A424EBF582E43408F583C083C0821F
:10294000E0FCA3E0FDA3E0FEA3E0FF900D61E075D5
:10295000F041A424D3F582E43408F583E0F8A3E041
:10296000F9A3E0FAA3E0FB120807D082D08312118A
:10297000C7900D61E0FF75F041A424EBF582E434CB
:1029800008F583E0F8A3E0F9A3E0FAA3E0FBEF7514
:10299000F041A424E3F582E43408F583E0FCA3E0ED
:1029A000FDA3E0FEA3E0FF1208F8C004C005C006C6
:1029B000C007900D62E0FCA3E0FDE4120B10D00311
:1029C000D002D001D0001208F8C004C005C006C073
:1029D00007900D61E0FF75F041A424D3F582E43443
:1029E00008F583E0F8A3E0F9A3E0FAA3E0FBEF75B4
:1029F000F041A424DFF582E43408F583E0FCA3E091
:102A0000FDA3E0FEA3E0FF1208F8D003D002D0013E
:102A1000D000120807C004C005C006C007900D61B1
:102A2000E0FF75F041A424D7F582E43408F583E093
:102A3000F8A3E0F9A3E0FAA3E0FBEF75F041A424CA
:102A4000D3F582E43408F583E0FCA3E0FDA3E0FEC7
:102A5000A3E0FF120803900D61E075F041A424E7A4
:102A6000F582E43408F583E0F8A3E0F9A3E0FAA3E3
:102A7000E0FB1208F8D003D002D001D00012080702
:102A8000900D61E0FB75F041A424EFF582E4340879
:102A9000F5831211C7EB75F041A424D3F582E43419
:102AA00008F583E0FCA3E0FDA3E0FEA3E0FFEB75E7
:102AB000F041A424D7F582E43408F5831211C7D37A
:022AC00022C32F
:012AC20022F1
:05230A00900D64EFF0EE
:10230F00E0FF75F041A424CFF582E43408F583E0B3
:10231F00F8A3E0F9A3E0FAA3E0FBEF75F041A424E2
:10232F00CBF582E43408F583E0FCA3E0FDA3E0FEE7
:10233F00A3E0FF120803900D64E0FB75F041A424A5
:10234F00D3F582E43408F5831211C7EB75F041A47D
:10235F00240BF582E43409F583E070030226E9EBE0
:10236F0075F041A424FFF582E43408F583E0FCA363
:10237F00E0FDA3E0FEA3E0FFEB75F041A424CFF551
:10238F0082E43408F583E0F8A3E0F9A3E0FAA3E0D0
:10239F00FB120A9E6002500302242E900D64E0751A
:1023AF00F041A424D3F582E43408F583E0FCA3E0E4
:1023BF00FDA3E0FEA3E0FF120B49128577AC06AD3B
:1023CF0007EC120B10900D64E075F041A42407F593
:1023DF0082E43409F583E0F8A3E0F9A3E0FAA3E07F
:1023EF00FB120A9E5003022539900D65E4F0A304F9
:1023FF00F0900D64E075F041A424D3F582E4340825
:10240F00F583E0FCA3E0FDA3E0FEA3E0FFE4FBFA0D
:10241F00F9F8120A9E6002500302259002254A9095
:10242F000D64E0FF75F041A424FFF582E43408F554
:10243F0083E0F8A3E0F9A3E0FAA3E0FBEF75F04126
:10244F00A424CFF582E43408F583E0FCA3E0FDA3D8
:10245F00E0FEA3E0FF120A9E600250030224EE90FA
:10246F000D64E075F041A424D3F582E43408F583BC
:10247F00E0FCA3E0FDA3E0FEA3E0FF120B491285F1
:10248F0077AC06AD07EC120B10900D64E075F041C0
:10249F00A42407F582E43409F583E0F8A3E0F9A357
:1024AF00E0FAA3E0FB120A9E5002807E900D65E4D5
:1024BF00F0A304F0900D64E075F041A424D3F582ED
:1024CF00E43408F583E0FCA3E0FDA3E0FEA3E0FF06
:1024DF00E4FBFAF9F8120A9E4003022590805C9003
:1024EF000D64E075F041A424D3F582E43408F5833C
:1024FF00E0FCA3E0FDA3E0FEA3E0FF120B49128571
:10250F0077AC06AD07EC120B10900D64E075F0413F
:10251F00A42407F582E43409F583E0F8A3E0F9A3D6
:10252F00E0FAA3E0FB120A9E5009E4900D65F0A3B8
:10253F00F0804E900D65E4F0A304F0900D64E0750B
:10254F00F041A424EBF582E43408F583C083C08204
:10255F00E0FCA3E0FDA3E0FEA3E0FF900D64E075B7
:10256F00F041A424D3F582E43408F583E0F8A3E026
:10257F00F9A3E0FAA3E0FB120807D082D08312116F
:10258F00C7900D64E0FF75F041A424EBF582E434AD
:10259F0008F583E0F8A3E0F9A3E0FAA3E0FBEF75F9
:1025AF00F041A424E3F582E43408F583E0FCA3E0D2
:1025BF00FDA3E0FEA3E0FF1208F8C004C005C006AB
:1025CF00C007900D65E0FCA3E0FDE4120B10D003F3
:1025DF00D002D001D0001208F8E4FBFAF9784012CB
:1025EF000A01C004C005C006C007900D64E0FF7566
:1025FF00F041A424D3F582E43408F583E0F8A3E096
:10260F00F9A3E0FAA3E0FBEF75F041A424DFF58214
:10261F00E43408F583E0FCA3E0FDA3E0FEA3E0FFB4
:10262F001208F8D003D002D001D000120807C0045E
:10263F00C005C006C007900D64E0FF75F041A424EB
:10264F00D7F582E43408F583E0F8A3E0F9A3E0FAC4
:10265F00A3E0FBEF75F041A424D3F582E43408F531
:10266F0083E0FCA3E0FDA3E0FEA3E0FF12080390CC
:10267F000D64E075F041A424E7F582E43408F58396
:10268F00E0F8A3E0F9A3E0FAA3E0FB1208F8D00307
:10269F00D002D001D000120807900D64E0FB75F056
:1026AF0041A424EFF582E43408F5831211C7EB75CA
:1026BF00F041A424D3F582E43408F583E0FCA3E0D1
:1026CF00FDA3E0FEA3E0FFEB75F041A424D7F58254
:0B26DF00E43408F5831211C7D322C3B6
:0126EA0022CD
:10464E00900D80EFF075F041A4240BF582E434094F
:10465E00F583E070030247EC900D80E0FF75F041AA
:10466E00A424CFF582E43408F583E0F8A3E0F9A39F
:10467E00E0FAA3E0FBEF75F041A424CBF582E4341D
:10468E0008F583E0FCA3E0FDA3E0FEA3E0FF120823
:10469E0003900D80E0FB75F041A424D3F582E43441
:1046AE0008F5831211C7EB75F041A424D7F582E407
:1046BE003408F583E0FCA3E0FDA3E0FEA3E0FFEBEE
:1046CE0075F041A424E3F582E43408F583E0F8A301
:1046DE00E0F9A3E0FAA3E0FB1208F8C004C005C09D
:1046EE0006C007900D80E0FF75F041A424D3F5823B
:1046FE00E43408F583E0F8A3E0F9A3E0FAA3E0FBC5
:10470E00EF75F041A424DFF582E43408F583E0FC74
:10471E00A3E0FDA3E0FEA3E0FF1208F8D003D00251
:10472E00D001D000120803C004C005C006C0079017
:10473E000D80E0FF75F041A424DBF582E43408F52A
:10474E0083E0F8A3E0F9A3E0FAA3E0FBEF75F041F4
:10475E00A424E7F582E43408F583E0FCA3E0FDA38E
:10476E00E0FEA3E0FF1208F8D003D002D001D00083
:10477E00120807900D80E0FB75F041A424EFF5823E
:10478E00E43408F5831211C7EB75F041A424D7F574
:10479E0082E43408F583E0FCA3E0FDA3E0FEA3E091
:1047AE00FFEB75F041A424DBF582E43408F58312A7
:1047BE0011C7EB75F041A424D3F582E43408F583D8
:1047CE00E0FCA3E0FDA3E0FEA3E0FFEB75F041A447
:1047DE0024D7F582E43408F5831211C7D322C322FD
:107BDB00AB07900D12E0FCA3E0FDA3E0FEA3E0FFDA
:107BEB00EB75F041A42403F582E43409F58302110B
:017BFB00C7C2
:107BFC00AB07900D17E0FCA3E0FDA3E0FEA3E0FFB4
:107C0C00EB75F041A424FFF582E43408F5830211EE
:017C1C00C7A0
:107C1D00AB07900D1CE0FCA3E0FDA3E0FEA3E0FF8D
:107C2D00EB75F041A424CFF582E43408F5830211FD
:017C3D00C77F
:107C3E00AB07900D21E0FCA3E0FDA3E0FEA3E0FF67
:107C4E00EB75F041A424E3F582E43408F5830211C8
:017C5E00C75E
:107C5F00AB07900D26E0FCA3E0FDA3E0FEA3E0FF41
:107C6F00EB75F041A424DFF582E43408F5830211AB
:017C7F00C73D
:107C8000AB07900D2BE0FCA3E0FDA3E0FEA3E0FF1B
:107C9000EB75F041A424E7F582E43408F583021182
:017CA000C71C
:107CA100AB07900D30E0FCA3E0FDA3E0FEA3E0FFF5
:107CB100EB75F041A424CBF582E43408F58302117D
:017CC100C7FB
:10803000EF75F041A424CBF582E43408F583E0FC2D
:0A804000A3E0FDA3E0FEA3E0FF2291
:10804A00EF75F041A424D3F582E43408F583E0FC0B
:0A805A00A3E0FDA3E0FEA3E0FF2277
:10806400EF75F041A424D7F582E43408F583E0FCED
:0A807400A3E0FDA3E0FEA3E0FF225D
:10807E00EF75F041A424DFF582E43408F583E0FCCB
:0A808E00A3E0FDA3E0FEA3E0FF2243
:10809800EF75F041A424E3F582E43408F583E0FCAD
:0A80A800A3E0FDA3E0FEA3E0FF2229
:1080B200EF75F041A424E7F582E43408F583E0FC8F
:0A80C200A3E0FDA3E0FEA3E0FF220F
:1080CC00EF75F041A424EFF582E43408F583E0FC6D
:0A80DC00A3E0FDA3E0FEA3E0FF22F5
:1080E600EF75F041A424EBF582E43408F583E0FC57
:0A80F600A3E0FDA3E0FEA3E0FF22DB
:107CC200AB07900D35E0FCA3E0FDA3E0FEA3E0FFCF
:107CD200EB75F041A42407F582E43409F58302111F
:017CE200C7DA
:1071B000900D81EFF075F041A4240BF582E43409C1
:1071C000F583E0602FED24FE601214601714601C3C
:1071D00024047020900D81E0FF023F0F900D81E0AC
:1071E000FF023CC9900D81E0FF0226EB900D81E08B
:0571F000FF12230A223A
:1081D000EF75F041A4240BF582E43409F583E060E7
:0981E00007ED14700312464E2253
:1059A600602A0A84000000000000000000000000D9
:1059B60000000000000000000000000000000000E1
:0E59C6000000000000000000000000000000D3
:10606B00900567EBF0A3EAF0A3E9F0900003120EA2
:10607B008BFF900563E0FBA3E0FAA3E0F9A3E0FE3E
:10608B00F582758300EF120ECA900567E0FBA3E063
:10609B00FAA3E0F9900002120E8BFFEE2401FDE44F
:1060AB0033FC900563E0FBA3E0FAA3E0F98D828C4F
:1060BB0083EF120ECA900567E0FBA3E0FAA3E0F9A9
:1060CB00900001120E8BFFEE2402FDE433FC9005D1
:1060DB0063E0FBA3E0FAA3E0F98D828C83EF120E51
:1060EB00CA900567E0FBA3E0FAA3E0F9120E72FF7A
:1060FB00EE2403FDE433FC900563E0FBA3E0FAA37D
:0A610B00E0F98D828C83EF020ECACA
:0577B00090055BEFF005
:1077B500E4A3F090055BE0FF12611590055CE0FE27
:1077C500C39F501774842EF582E4340AF583E0FFD5
:0B77D500127A8F90055CE004F080D871
:0177E0002286
:10547F0090055B1211C790055FE0FFD3940A4003BC
:10548F000255B2EF70030255B2EF14B40A00400395
:10549F000255B29054B075F003A4C58325F0C583AF
:1054AF00730254CE0254E40254FB025512025529E2
:1054BF0002553F02555502556B0255810255979083
:1054CF0005637401F0A3740AF0A37484F0A374014C
:1054DF00F0FB0255AB9005637401F0A3740AF0A3BF
:1054EF007484F0A37405F07B010255AB90056374CF
:1054FF0001F0A3740AF0A37484F0A37409F07B0184
:10550F000255AB9005637401F0A3740AF0A3748481
:10551F00F0A3740DF07B010255AB9005637401F09D
:10552F00A3740AF0A37484F0A37411F07B01806C50
:10553F009005637401F0A3740AF0A37484F0A3744C
:10554F0015F07B0180569005637401F0A3740AF087
:10555F00A37484F0A37419F07B01804090056374E9
:10556F0001F0A3740AF0A37484F0A3741DF07B01FF
:10557F00802A9005637401F0A3740AF0A37484F079
:10558F00A37421F07B0180149005637401F0A37460
:10559F000AF0A37484F0A37425F07B017A05795B7C
:0455AF0012606B22F9
:10611500EFD3940A5003EF70037F0022900A847432
:1061250024F0EF14B40A0040030261B790613F7593
:10613500F003A4C58325F0C5837302615D02616622
:1061450002616F02617802618102618A02619302D4
:10615500619C0261A50261AE900A897405F07F0613
:1061650022900A8D7409F07F0A22900A91740DF02D
:106175007F0E22900A957411F07F1222900A99746D
:1061850015F07F1622900A9D7419F07F1A22900A45
:10619500A1741DF07F1E22900AA57421F07F222292
:1061A500900AA97425F07F2622900AAD7429F07F04
:0561B5002A227F0022F8
:1059D400500C1B000000000000000000000000004C
:0359E400000000C0
:10821B00E49002E6F0A37407F07B017A0279E67F23
:07822B000412448A027842AC
:107FFA00741B2FF582E4340CF583E0FE741B2FF515
:0A800A0082E4340CF583E4F0AF06C5
:018014002249
:1075D30012534490058FEFF0D39400402AE0241A0D
:1075E300F582E4340CF5837401F0125344EF600820
:1075F300125344EF601180F890058FE0241AF5824E
:07760300E4340CF583E4F010
:01760A00225D
:10380D0020252034640020252034660000000000AF
:10381D0000000000004F000000000700070000142A
:10382D007F147F1400242A7F2A1200231308646258
:10383D0000364955225000000503000000001C22EF
:10384D004100000041221C000014083E081400082D
:10385D00083E08080000503000000008080808085D
:10386D00000060600000002010080402003E514975
:10387D00453E0000427F4000004261514946002113
:10388D0041454B31001814127F100027454545392D
:10389D00003C4A4949300001710905030036494988
:1038AD00493600064949291E000036360000000041
:1038BD00563600000008142241000014141414148C
:1038CD000000412214080002015109060032497915
:1038DD00413E007E1111117E007F4949493E003E57
:1038ED0041414122007F4141221C007F494949410C
:1038FD00007F09090901003E4149497A007F080806
:10390D00087F0000417F4100002040413F01007FC2
:10391D0008142241007F40404040007F0204027F96
:10392D00007F0408107F003E4141413E007F0909A0
:10393D000906003E4151215E007F091929460046C6
:10394D00494949310001017F0101003F4040403F9D
:10395D00001F2040201F003F4038403F00631408E7
:10396D0014630003047804030061514945430000CA
:10397D007F4141000015167C1615000041417F0066
:10398D0000040201020400404040404000000102DA
:10399D000400002054545478007F484444380038C3
:1039AD004444442000384444487F0038545454184B
:1039BD0000087E090102000C5252523E007F08049D
:1039CD0004780000447D4000002040443D00007F0D
:1039DD00102844000000417F4000007E020C027C54
:1039ED00007E0402027C003844444438007C1414E8
:1039FD00140800081414187C007C080404080048FE
:103A0D005454542000043F444020003C4040207C4E
:103A1D00001C2040201C003C4030403C004428103D
:103A2D002844000C5050503C004464544C44000059
:103A3D00083641000000007F0000000041360800FC
:103A4D000008040810080008082A1C0800081C2A91
:103A5D0008080004027F02040010207F2010001CC3
:0A3A6D002A322A1C001C2244221CED
:107D6700C2C9ED24FF92CA7E08EF30E704D2CB8068
:0F7D770002C2CBC2CCEF25E0FFD2CCDEECD2C9EA
:017D860022DA
:107CE300E4FD7F80127D677F40127D677BF87A0118
:107CF3007D01E4FF127D67EB1B70011AEB4A70F004
:017D0300225D
:1082D900AD07E4FF1282897C547D01E4FF127D67BA
:0282E900DCF7C0
:0182EB002270
:10828900AC05EF4480FFEC4440FCE4FD127D67AF90
:0482990004027D67F7
:0773BE00E0FF04F0A3E0FD75
:1073C50074E02BFBEF75F006A4FF128289E4FC75CF
:1073D500F006EBA42419F582E5F03438F583E5824F
:1073E5002CF582E43583F583E493FF7D01127D67F7
:0573F5000CECB406DA07
:0173FA002270
:1074AF00900D39EFF0A3EDF0A3EBF0A3EAF0A3E911
:1074BF00F0900D3BE0FBA3E0FAA3E0F9120E72FB94
:1074CF006018900D39E0C3940E500F1273BE900DDB
:0B74DF003CE475F001120F5380D7222F
:096DC600FDE0FBA3E0FAA3E0F9F3
:106DCF009002E6EFF0A3EDF0A3EBF0A3EAF0A3E956
:106DDF00F09002E8E0FBA3E0FAA3E0F9120E72FBD9
:106DEF0060289002E61273BE9002E9E475F001127A
:106DFF000F539002E6E0B40E06E4F0A3E004F09027
:0B6E0F0002E7E0B406CBE4F080C722ED
:0E6B8300900CACEFF0A3EDF0A3EAF0A3EBF062
:106B9100A3E02402FFE433FE125B4AAA06A9077BA5
:106BA10001900CB1EBF0A3EAF0A3E9F0900A29748B
:106BB100FFF0A37438F0A3740DF0900CAEE0FFA3C6
:106BC100E0900A2CCFF0A3EFF0121EEC900CACE099
:106BD100FFA3E0900CB1126DC6900CB1A3E0FAA333
:076BE100E0AE02FF0250C903
:0869D100900C72EFF0A3EDF051
:1069D900900C79E0FF900C78E02FFFE433CF24038B
:1069E900CF3400FE125B4AAA06A9077B01900C7AF4
:1069F900EBF0A3EAF0A3E9F0900A2974FFF0A3747D
:106A090038F0A37413F0900C74E0FCA3E0FDA3E04C
:106A1900FEA3E0FF900A2C1211C7121EEC900C7213
:106A2900E0FFA3E0900C7A126DC6900C7AA3E0FA0D
:086A3900A3E0AE02FF0250C908
:10727D00E49002E6F0A304F0FB7A0279E67F0512B2
:10728D00448AC2C8D2C8E4FD7F21127D677F0612F1
:10729D007D677F13127D677FC8127D677F20127D0A
:1072AD00677F0C127D677F40127D677F80127D673F
:0372BD00027CE36D
:0259E700C118E5
:107952009002E77405F0E49002E6F07B017A027986
:10796200E67F0512448A12869B7FC81284C712865C
:07797200A07FC81284C7D3F7
:0179790022EB
:05869B00C2CDD218223F
:0586A000D2CDC218223A
:107BB9009002E6EFF09002E6E0FF14F0EF60121297
:107BC900869B7FC81284C71286A07FC81284C7808B
:027BD900E422A4
:0386AE00A21822ED
:06866500900D82EFF022EF
:10642900900D3EEFF07F337E337D737C3FA3E0F820
:10643900A3E0F9A3E0FAA3E0FB120A9E600C400A6C
:10644900900D3F1211D33F7333337FCD7ECC7D4CFA
:106459007C3D900D3FE0F8A3E0F9A3E0FAA3E0FB4F
:10646900120A9E500A900D3F1211D33D4CCCCD908B
:106479000D3EE02404FFC007A3E0FCA3E0FDA3E078
:10648900FEA3E0FF900D491211C7D0071258AF9033
:106499000D3FE0FCA3E0FDA3E0FEA3E0FF120B49E2
:1064A900900D3EE025E02453F582E4340DF583EFA9
:0264B900F022CF
:107E8200900D83EFF02404FF12797A900D83E025A0
:0E7E9200E02452F582E4340DF5837401F022F1
:107EFA00900D84EFF02404FF127B28900D84E02576
:0D7F0A00E02452F582E4340DF583E4F0220A
:1084B700EF25E02452F582E4340DF583E024FF2212
:106AAF00E4900C09F0A37408F07B017A0C79097F4C
:106ABF000212448A900C0A7404F07B017A0C790953
:106ACF007F0212448AD2A2D2A343BA80E4900C0B65
:106ADF00F0A3F0A3F0A304F0E4A3F0A3F0A3F0A3BA
:106AEF00F0A3F0A3F0A3F0A3F0A3F0A3F0A3F0A3FF
:106AFF00F07B017A0C790B7F02122AC37B017A0C8F
:0A6B0F00790B7F03122AC353BA7FEB
:016B19002259
:0540EB00900B1FEFF037
:1040F000E4900B2EF0A37480F07B017A0B792E7F75
:104100000312448AD2B743BA80E4900B30F0A3F094
:10411000A3F0A304F0E4A3F0A3F0A3F0A3F0A3F0B2
:10412000A3F0A3740FF0E4A3F0A3F0A3F0A3F0A313
:10413000F0900B1FE0FF7B017A0B7930122AC353FA
:10414000BA7F900B1FE0FF7D10128473900B1FE06D
:10415000FF7D327C00126CB0900B20E0FCA3E0FDF0
:10416000A3E0FEA3E0FF900B1FE0FB75F025A42465
:10417000A5F582E43409F5831211C7900B24E0FC05
:10418000A3E0FDA3E0FEA3E0FFEB75F025A424A9C6
:10419000F582E43409F5831211C7900B28E0FCA3E3
:1041A000E0FDA3E0FEA3E0FFEB75F025A424B7F546
:1041B00082E43409F5831211C7900B2CE0FEA3E0D2
:1041C000FFEB75F025A424B1F582E43409F583EE04
:1041D000F0A3EFF0EB75F025A424A5F582E43409F3
:1041E000F583E0F8A3E0F9A3E0FAA3E0FB900B1F4E
:1041F000E075F025A424A9F582E43409F583E0FCF8
:10420000A3E0FDA3E0FEA3E0FF120803C004C00585
:10421000C006C007900B1FE075F025A424B1F582FD
:10422000E43409F583E0FCA3E0FDE4120B10A804DC
:10423000A905AA06AB07D007D006D005D004120AFC
:1042400001900B1FE0FB75F025A424ADF582E4344A
:1042500009F5831211C7EB75F025A424B1F582E4AA
:104260003409F583E0FCA3E0FDE4120B10A804A9D7
:1042700005AA06AB07900B1FE075F025A424B7F53F
:1042800082E43409F583E0FCA3E0FDA3E0FEA3E0B3
:10429000FF120A01900B1FE0FB75F025A424BBF56B
:1042A00082E43409F5831211C7EB75F025A424B319
:0E42B000F582E43409F5831211D300000000FA
:0142BE0022DD
:0555B300900C91EFF0E7
:1055B800A3E0FCA3E0FDA3E0FEA3E0FF900C91E0D4
:1055C800FB75F025A424A0F582E43409F5831211B3
:1055D800C7EB75F025A424BBF582E43409F583E014
:1055E800F8A3E0F9A3E0FAA3E0FB900C92E0FCA397
:1055F800E0FDA3E0FEA3E0FF120A01900C91E07524
:10560800F025A424ADF582E43409F583E0F8A3E09D
:10561800F9A3E0FAA3E0FB1208F8900C91E075F00A
:1056280025A424A5F582E43409F583E0F8A3E0F97C
:10563800A3E0FAA3E0FB120807900C91E0FB75F0D9
:1056480025A424C1F582E43409F5831211C7EB754A
:10565800F025A424C1F582E43409F583E0FCA3E035
:10566800FDA3E0FEA3E0FFE4FBFA79A07841120A6B
:1056780001900C961211C7900C96E0FCA3E0FDA3D4
:10568800E0FEA3E0FF900D491211C7900C91E0FFD6
:105698001258AF900C91E0FB75F025A424A0F58278
:1056A800E43409F583E0FCA3E0FDA3E0FEA3E0FFFA
:1056B800EB75F025A424B3F582E43409F5830211CF
:0156C800C71A
:10810000EF75F025A424B3F582E43409F583E0FC8F
:0A811000A3E0FDA3E0FEA3E0FF22C0
:107D8700900D85EFF012797A900D85E075F025A4B6
:107D970024BFF582E43409F583E4F0A304F0D32289
:107DE700900D86EFF0127B28900D86E075F025A4A4
:0F7DF70024BFF582E43409F583E4F0A3F0D3222E
:107B0300C007900CC5E0FCA3E0FDA3E0FEA3E0FFEB
:107B13009005861211C7900CC9E0FCA3E0FDD007C5
:057B23001257C3D3223C
:105C1B00900CCBEFF0C007E4FFFE7DB47C43A3E018
:105C2B00F8A3E0F9A3E0FAA3E0FB1208F8C004C064
:105C3B0005C006C007900CCBE075F00EA42445F50B
:105C4B0082E4340BF583E0FCE4120B15D003D00295
:105C5B00D001D0001208F8C004C005C006C00790E0
:105C6B000CCBE075F00EA42449F582E4340BF583DC
:105C7B00E0FCA3E0FDA3E0FEA3E0FF7B567A0E79E8
:105C8B004978401208F8900CCBE075F00EA4244133
:105C9B00F582E4340BF583E0F8A3E0F9A3E0FAA373
:105CAB00E0FB1208F8A804A905AA06AB07D007D099
:105CBB0006D005D004120A01120B49900CC5121123
:105CCB00C7900CD0E0FFA3E0900CC9CFF0A3EFF08E
:075CDB00D007127B03D32266
:106BE800900CD2EFF0E0FEFFC00775F00EA424452C
:106BF800F582E4340BF583E0FCE4120B15900CD31A
:106C0800E0F8A3E0F9A3E0FAA3E0FB1208F8900C7F
:106C1800D2E075F00EA42441F582E4340BF583E04C
:106C2800F8A3E0F9A3E0FAA3E0FB120A01120B496A
:106C38009005861211C7900CD7E0FCA3E0FDD007A1
:056C48001257C3D32226
:10759A00900D73EAF0A3EBF0C007AE04AF057C01CF
:1075AA007D68120EECAC06AD07E4120B10900CD3FA
:1075BA001211C7900D73E0FFA3E0900CD7CFF0A390
:0975CA00EFF0D007126BE8D322A8
:0F84E600EF7006900B4DEDF022900B5BEDF02246
:1083FC00EF75F00EA4244DF582E4340BF583E0FF09
:01840C00224D
:10801500EF7009201904C2A78002D2A7EFB40109A5
:0B802500201904C2A58002D2A5D322BE
:107F1700900D87EFF0127F34900D87E075F00EA477
:0D7F2700244DF582E4340BF5837401F02243
:1082EC00EF75F00EA4244DF582E4340BF583E4F025
:0382FC00027EA05F
:107F8A00EF7004C2A68002C2A4EF75F00EA4244DBD
:0C7F9A00F582E4340BF5837401F0D3226F
:107FA600EF7004D2A68002D2A4EF75F00EA4244D81
:0C7FB600F582E4340BF5837402F0D32252
:05625D00900C3BEFF086
:10626200E4900C47F0A374F0F07B017A0C79477F3D
:106272000212448A900C3CE0FCA3E0FDA3E0FEA3E2
:10628200E0FF900C3BE0FB75F00EA42441F582E4A4
:10629200340BF5831211C7900C40E0FFEB75F00E42
:1062A200A42445F582E4340BF583EFF0900C41E031
:1062B200FEA3E0FFEB75F00EA42446F582E4340B56
:1062C200F583EEF0A3EFF0900C43E0FCA3E0FDA316
:1062D200E0FEA3E0FFEB75F00EA42449F582E4345E
:1062E2000BF5831211C7EB75F00EA4244DF582E471
:0A62F200340BF5837401F00278FC10
:107FC200900CE7EFF0A3EDF0A37401F0E4A3F0A3AB
:0C7FD200F0A3F07B017A0C79E7026E1A34
:10695800E4900BCCF0301A62F0E4FF126D11900B4A
:10696800CCE025E024B8F582E4340BF583EEF0A3FF
:10697800EFF0900BCCE004F0E0C3940A40DB7B011D
:106988007A0B79B890055F1211D344800000900506
:10699800631211D3000000007D0A1242BF900CB4AC
:1069A8001211C7900CB4E0FCA3E0FDA3E0FEA3E045
:1069B800FFA31211C7900CB48003900CB8E0FCA39D
:0869C800E0FDA3E0FEA3E0FFE7
:0169D00022A4
:0759E900440AFD000000006C
:106EC000900C9AEFF012811A900C9AE0FF128392C4
:106ED000900C9BE0FCA3E0FDA3E0FEA3E0FF900C80
:106EE0009AE0FB75F00DA42405F582E4340BF583DC
:106EF0001211C7900C9FE0FCA3E0FDA3E0FEA3E00D
:106F0000FFEB75F00DA42409F582E4340BF5830240
:026F100011C7A7
:1072C000AB07900CA4E0FCA3E0FDA3E0FEA3E0FF6D
:1072D000EB75F00DA42405F582E4340BF58312114F
:1072E000C7900CA8E0FCA3E0FDA3E0FEA3E0FFEB49
:1072F00075F00DA42409F582E4340BF5830211C75F
:055A7500900B5CEFF056
:105A7A00E4900B73F0ED7003025B3BE4F0900B5C77
:105A8A00E0FF127EDC900B73E025E0245DF582E4F2
:105A9A00340BF583EEF0A3EFF0900B73E004F0E023
:105AAA00C3940A40D87B017A0B795D90055F121185
:105ABA00D3477FFF009005631211D3000000007DD9
:105ACA000A1242BF120B49900B71EEF0A3EFF0FDE0
:105ADA00AC06E4120B10900B5CE075F00DA42405E3
:105AEA00F582E4340BF583E0F8A3E0F9A3E0FAA326
:105AFA00E0FB1208F8900B5CE075F00DA42409F5A0
:105B0A0082E4340BF583E0F8A3E0F9A3E0FAA3E01A
:105B1A00FB120807900AFD1211C7900AFDE0FCA3C8
:105B2A00E0FDA3E0FEA3E0FFA31211C7900AFD80E7
:0F5B3A0003900B01E0FCA3E0FDA3E0FEA3E0FF5E
:015B49002239
:0985B600900D75EEF0A3EFF02228
:0985BF00900D77EEF0A3EFF0221D
:06866B00900D88EFF022E3
:06867100900D89EFF022DC
:085CE2007F8A7D647C007E01D5
:105CEA0090057EECF0A3EDF090057CEEF0FAA3EFC0
:025CFA00F0FBBD
:105CFC00A3E0FEA3E0FFAD03AC02120EECAC06ADCC
:105D0C0007E4120B10E4FBFA797A7844120A0112B8
:105D1C000B49900580EEF0A3EFF090057EE0FEA31A
:105D2C00E0FF7C007DFF120EFE900582EFF07F01FC
:105D3C00127F34900580E0FEA3E0FFE4FCFD9005AB
:105D4C00861211C790057CE0FCA3E0FD7F01125781
:105D5C00C37F01127EA090057EE0FEA3E0FFC394FA
:105D6C00FFEE94005004AD078025900582E0FF14EF
:105D7C00F0EF600CE4FBFA7DFF7F021237AE80EA95
:105D8C0090057EE0FEA3E0FF7C007DFF120EFEE49A
:075D9C00FBFA7F021237AE93
:015DA30022DD
:107D04007D967C007F127E02125CEA7D967C007F69
:107D1400947E02125CEA7D967C007F147E03025CF2
:017D2400EA74
:0B8583007D967C007F127E02025CEA05
:107D25007D967C007F147E03125CEA7D967C007F45
:107D3500947E02125CEA7D967C007F127E02025CD4
:017D4500EA53
:107B4D001278FC7FBC125CE4125CE27D647C007FE9
:107B5D005E7E01125CEA125CE27D907C017F127EFA
:047B6D0002025CEACA
:1059F000420B7C0000C114C115420B740000420B25
:0D5A0000780000420B760000420B7A000097
:0A57C300900584ECF0A3EDF0AB07B5
:1057CD00E490058AF0A3F0900584E0FEA3E0FFEBE2
:1057DD0075F007A42482F582E4340BF583EEF0A373
:1057ED00EFF0900586E0FCA3E0FDA3E0FEA3E0FF53
:1057FD00EB75F007A4247EF582E4340BF5831211CA
:10580D00C7EB704F900584E0FEA3E0FFD39414EE38
:10581D009400403BAB07AA06E4F9F87F807E847DB7
:10582D001EFC127239E47B02FAF9F8127239C3E4E4
:10583D009FFFE49E90058CF0A3EFF0C214438F04FC
:10584D0090058CE0FCA3E0FDECF5D68DD78051D210
:10585D0014804D900584E0FEA3E0FFD39414EE94E4
:10586D0000403BAB07AA06E4F9F87F807E847D1EDD
:10587D00FC127239E47B02FAF9F8127239C3E49F13
:10588D00FFE49E90058CF0A3EFF0C21543D101907B
:10589D00058CE0FCA3E0FDECF5D48DD58002D2158E
:0158AD00D327
:0158AE0022D7
:107EA000EF75F007A42484F582E4340BF5837401A4
:0E7EB000F0EF7005438E10800343D108D322FB
:107F3400EF7005538EEF800353D1F7EF75F007A46C
:0D7F44002484F582E4340BF583E4F0D322AD
:10834A00EF75F007A42484F582E4340BF583E02466
:02835A00FF2200
:1078FC00E49002E6F0A304F0FB7A0279E67F03122F
:10790C00448A9002E77410F07B017A0279E6E4FF76
:0C791C0012448AE4900B84F0900B8BF076
:01792800223C
:03006300026862CE
:10686200C0E0C0F0C083C082C0D075D000C000C0FC
:1068720001C002C003C004C005C006C007E47F0215
:10688200FEFDFC900B7EE0F8A3E0F9A3E0FAA3E0A2
:10689200FB120FE2C006C007900B74E475F0011200
:1068A2000F53AFF0AB07FAE4F9F8D007D006C312E2
:1068B2001123400CE4FF127F34900B74E4F0A3F038
:1068C200D007D006D005D004D003D002D001D0002A
:0B68D200D0D0D082D083D0F0D0E032D4
:03009B000268DD1B
:1068DD00C0E0C0F0C083C082C0D075D000C000C081
:1068ED0001C002C003C004C005C006C007E47F029A
:1068FD00FEFDFC900B85E0F8A3E0F9A3E0FAA3E020
:10690D00FB120FE2C006C007900B76E475F0011282
:10691D000F53AFF0AB07FAE4F9F8D007D006C31266
:10692D001123400C7F01127F34900B76E4F0A3F01D
:10693D00D007D006D005D004D003D002D001D000AE
:0B694D00D0D0D082D083D0F0D0E03258
:0985C800D280C281C282D283225A
:0985D100C280D281D282C2832251
:0985DA00C280C281C282C2832268
:0985E300D280C281C282C283224F
:0985EC00C280D281C282C2832246
:0985F500D280C281D282C283222D
:0985FE00C280C281C282D2832234
:09860700C280C281D282C283222A
:09861000C280D281C282D2832211
:045A0D004108340018
:1074EA00EF75F04BA4247DF582E43408F583E4F0CB
:1074FA00EF75F04BA4247EF582E43408F583E4F0BA
:10750A00EF75F04BA4247FF582E43408F583E4F0A8
:0B751A007BFF7A1979EDAD070284A613
:10835C00EF75F04BA4247DF582E43408F5837401A9
:02836C00F022FD
:10840D00EF75F04BA4247DF582E43408F583E4F098
:01841D00223C
:10836E00EF75F04BA4247EF582E43408F583740196
:02837E00F022EB
:10841E00EF75F04BA4247EF582E43408F583E4F086
:01842E00222B
:106FB500EF75F04BA4247FF582E43408F583E06493
:106FC500017031EF75F04BA4243DF582E43408F5EA
:106FD5008375F002ED121204E0FCA3E0FDEC120B48
:106FE50010E4FBFAF97847120A01E4FBFA79807894
:0A6FF500410208F8E4FFFEFDFC2253
:106FFF00EF75F04BA4247FF582E43408F583E06449
:10700F00017031EF75F04BA42445F582E43408F597
:10701F008375F002ED121204E0FCA3E0FDEC120BFD
:10702F0010E4FBFAF97847120A01E4FBFA79FA78CF
:0A703F00440208F8E4FFFEFDFC2205
:10774C00EF75F04BA4244DF582E43408F58375F005
:10775C0002ED121204E0FCA3E0FDEC120B10E4FBB2
:10776C00FAF97847120A01E4FBFA793478431208E3
:02777C00F822F1
:10764300EF75F04BA4247FF582E43408F583E0B4AE
:10765300011EEF75F04BA42455F582E43408F5833D
:1076630075F002ED121204E0FCA3E0FDEC020B1036
:06767300E4FFFEFDFC2215
:10639600900CEDEBF0A3EAF0A3E9F0A3E0FBA3E099
:1063A600FAA3E0F9900003120E8BFF900CEDE0FBD0
:1063B600A3E0FAA3E0F9EF120EB8900CF0E0FBA30D
:1063C600E0FAA3E0F9900002120E8BFF900CEDE0CC
:1063D600FBA3E0FAA3E0F9900001EF120ECA900CBD
:1063E600F0E0FBA3E0FAA3E0F9900001120E8BFFA8
:1063F600900CEDE0FBA3E0FAA3E0F9900002EF12A7
:106406000ECA900CF0E0FBA3E0FAA3E0F9120E72BC
:10641600FF900CEDE0FBA3E0FAA3E0F9900003EF98
:03642600020ECA99
:0519ED00900A56EFF026
:1019F20075F04BA4247DF582E43408F583E070038E
:101A0200021E86900A56E0FF75F04BA4247EF582F2
:101A1200E43408F583E07003021E86EF75F04BA4F0
:101A2200247FF582E43408F583E4F09005B4E064A1
:101A320055600AE490059CF0900834F02290059CD1
:101A4200E0FF24B4F582E43405F583E0FE74282F28
:101A5200F582E43408F583EEF090059CE0C3940B24
:101A62005003021E86900829E024B0B40900400306
:101A7200021E69901A8375F003A4C58325F0C583FD
:101A820073021A9E021B3E021B9E021BFE021C7E5A
:101A9200021CFD021D84021DCC021E0190082AE0D8
:101AA200FF900A56E0FE75F04BA42435F582E4342B
:101AB20008F583EFF090082BE0FFEE75F04BA424BD
:101AC20036F582E43408F583EFF090082CE0FFEE5F
:101AD20075F04BA42437F582E43408F583EFF090D7
:101AE200082DE0FFEE75F04BA42438F582E43408AB
:101AF200F583EFF090082EE0FFEE75F04BA4243949
:101B0200F582E43408F583EFF090082FE0FFEE75DC
:101B1200F04BA4243AF582E43408F583EFF0900800
:101B220031E0FE900830E0FDEDFF900A56E075F0DE
:101B32004BA4243BF582E43408021D7A90082BE082
:101B4200FE90082AE0FDEDFF900A56E0FD75F04B8D
:101B5200A4243DF582E43408F583EEF0A3EFF0907F
:101B6200082DE0FE90082CE0FBEBFFED75F04BA496
:101B7200243FF582E43408F583EEF0A3EFF09008F9
:101B82002FE0FE90082EE0FDEDFF900A56E075F082
:101B92004BA42441F582E43408021D7A90082BE01C
:101BA200FE90082AE0FDEDFF900A56E0FD75F04B2D
:101BB200A42445F582E43408F583EEF0A3EFF09017
:101BC200082DE0FE90082CE0FBEBFFED75F04BA436
:101BD2002447F582E43408F583EEF0A3EFF0900891
:101BE2002FE0FE90082EE0FDEDFF900A56E075F022
:101BF2004BA42449F582E43408021D7A90082BE0B4
:101C0200FE90082AE0FDEDFF900A56E0FD75F04BCC
:101C1200A4244DF582E43408F583EEF0A3EFF090AE
:101C2200082DE0FE90082CE0FBEBFFED75F04BA4D5
:101C3200244FF582E43408F583EEF0A3EFF0900828
:101C42002FE0FE90082EE0FDEDFF900A56E0FD75B4
:101C5200F04BA42451F582E43408F583EEF0A3EFAF
:101C6200F0900831E0FE900830E0FBEBFFED75F0FC
:101C72004BA42453F582E43408021D7A90082BE029
:101C8200FE90082AE0FDEDFF900A56E0FD75F04B4C
:101C9200A42455F582E43408F583EEF0A3EFF09026
:101CA200082DE0FE90082CE0FBEBFFED75F04BA455
:101CB2002457F582E43408F583EEF0A3EFF09008A0
:101CC2002FE0FE90082EE0FDEDFF900A56E0FD7534
:101CD200F04BA42459F582E43408F583EEF0A3EF27
:101CE200F0900831E0FE900830E0FBEBFFED75F07C
:101CF2004BA4245BF582E43408807D90082BE0FE3F
:101D020090082AE0FDEDFF900A56E0FD75F04BA425
:101D1200245DF582E43408F583EEF0A3EFF0900839
:101D22002DE0FE90082CE0FBEBFFED75F04BA424B8
:101D32005FF582E43408F583EEF0A3EFF090082F0C
:101D4200E0FE90082EE0FDEDFF900A56E0FD75F0F2
:101D52004BA42461F582E43408F583EEF0A3EFF09E
:101D6200900831E0FE900830E0FBEBFFED75F04BA0
:101D7200A42463F582E43408F583EEF0A3EFF002C5
:101D82001E6990082A7412F0A37434F0A37456F0FA
:101D9200A37478F0900A56E075F04BA42465F974A8
:101DA2000835F0FA7B01C003900CF0EBF0A3740845
:101DB200F0A3742AF0D003126396900A56E075F0ED
:101DC2004BA42469F97408021E50900A56E075F07B
:101DD2004BA4246DF9740835F0FA7B01C003900C12
:101DE200F0EBF0A37408F0A3742AF0D00312639608
:101DF200900A56E075F04BA42471F97408804F9054
:101E0200082BE0FE90082AE0FDEDFF900A56E0FD67
:101E120075F04BA42475F582E43408F583EEF0A343
:101E2200EFF090082DE0FE90082CE0FBEBFFED7543
:101E3200F04BA42477F582E43408F583EEF0A3EFA7
:101E4200F0900A56E075F04BA42479F9740835F045
:101E5200FA7B01C003900CF0EBF0A37408F0A374BA
:101E62002EF0D003126396E4900834F090059CF0B3
:101E7200900A56E075F04BA4247FF582E43408F50D
:041E8200837401F074
:011E86002239
:10829D00E4900D79F0A374F0F07B017A0D79797F7C
:0482AD000202448AFB
:1065D100ED14602814604314605E24037077EF7536
:1065E100F005A4247EF582E4340CF583E5822DF5D3
:1065F10082E43583F583E024FF92A722EF75F0054D
:10660100A4247EF582E4340CF583E5822DF582E441
:106611003583F583E024FF92A622EF75F005A424CB
:106621007EF582E4340CF583E5822DF582E4358331
:10663100F583E024FF92A522EF75F005A4247EF5F1
:1066410082E4340CF583E5822DF582E43583F5830C
:06665100E024FF92A422E8
:10838000EF75F005A4247DF582E4340CF5837401C7
:02839000F022D9
:02752500AE07AF
:10752700EE75F005A4247DF582E4340CF583E4F0D0
:10753700FCEE75F005A4247EF582E4340CF583E5B2
:10754700822CF582E43583F5837401F0AF06AD0430
:087557001265D10CECB404D95B
:01755F002209
:10781200EF75F005A4247DF582E4340CF583E0B421
:10782200011DEF75F005A4247EF582E4340CF58386
:10783200E5822DF582E43583F583E4F01265D122E9
:1077E100EF75F005A4247DF582E4340CF583E0B453
:1077F100011EEF75F005A4247EF582E4340CF583B7
:10780100E5822DF582E43583F5837401F01265D1AB
:017811002254
:107EBE003F065B4F666D7D077F6F777C395E79710C
:0E7ECE0040EF00000000000000000000000077
:0A5A1100080E000000000000000075
:0573FB00900596EFF083
:10740000E4A3F0C2C17F017E001278CE900596E021
:10741000FF30E004D2C08002C2C0EFC313900596D3
:10742000F0D2C17F017E001278CE900597E004F083
:06743000E0C3940840CD0A
:017436002233
:10712300E4900597F0D2C0900596F0900597E0C3E0
:1071330013F0C2C17F017E001278CE30C0079005E4
:1071430097E04480F0D2C17F017E001278CE900593
:1071530096E004F0E0C3940840D17F017E001278EA
:06716300CE900597E0FF4D
:017169002203
:107E06009002E9EFF0C2C27F017E001278CE9002A6
:0F7E1600E9E0FF1273FBD2C27F017E000278CE3B
:1053440078907C057D017BFF7A7E79D07E007F0496
:10535400120E4CE4900595F0C2C27F421273FB7F9B
:10536400F47E011278CEE4900594F0127123900536
:1053740094E02490F582E43405F583EFF0900594ED
:10538400E004F0E0C3940440E2D2C2900590E0FF50
:10539400B404099005957401F0025479EFB44009FE
:1053A4009005957402F0025479900591E0FFB404DD
:1053B400099005957403F0025479EFB440099005FF
:1053C400957404F0025479900592E0FFB4040990B6
:1053D40005957405F0025479EFB44009900595746D
:1053E40006F0025479900593E0FFB4040990059502
:1053F4007407F0025479EFB440089005957408F0EE
:105404008073900590E0FFB402089005957409F04C
:105414008063EFB42008900595740AF080579005D6
:1054240091E0FFB40208900595740BF08047EFB447
:105434002008900595740CF0803B900592E0FFB431
:105444000208900595740DF0802BEFB420089005A8
:1054540095740EF0801F900593E0FFB40208900548
:1054640095740FF0800FEFB420089005957410F038
:0A54740080037F0022900595E0FF01
:01547E00220B
:107842007F8A127E067F8A127E067F40127E06C2E1
:10785200C27FC01273FBE49002E8F07FFF1273FB59
:0E7862009002E8E004F0E0C3941040EFD2C2C0
:0178700022F5
:102E5D00900BFDE0900C06F0900BFCE0900C07F051
:102E6D00900BFBE0900C08F0900BFAE0F9900BF949
:102E7D00E0FAAE05AC06AD07900C07E0907EBE9370
:102E8D00540125E0FF900C06E0907EBE9354012F77
:102E9D00FF900C08E0907EBE93540125E025E02FB5
:102EAD00FFE993540133333354F82FFFEA93540160
:102EBD00C454F02FFFEB935401C43354E02FFFECB7
:102ECD00935401C4333354C02FFFED935401C433D5
:102EDD00333354802F900BFEF0900C06E0907EBEA5
:102EED00935402C313FF900C07E0907EBE935402DF
:102EFD002FFF900C08E0907EBE93540225E02FFF2B
:102F0D00E993540225E025E02FFFEA935402333371
:102F1D003354F82FFFEB935402C454F02FFFEC936E
:102F2D005402C43354E02FFFED935402C433335491
:102F3D00C02F900BFFF0900C07E0907EBE935404D1
:102F4D00C313FF900C06E0907EBE935404131354EC
:102F5D003F2FFF900C08E0907EBE9354042FFFE9A5
:102F6D0093540425E02FFFEA93540425E025E02F28
:102F7D00FFEB93540433333354F82FFFEC93540485
:102F8D00C454F02FFFED935404C43354E02F900C30
:102F9D0000F0900C07E0907EBE9354081313543F3D
:102FAD00FF900C06E0907EBE935408131313541F2C
:102FBD002FFF900C08E0907EBE935408C3132FFF93
:102FCD00E99354082FFFEA93540825E02FFFEB9364
:102FDD00540825E025E02FFFEC9354083333335488
:102FED00F82FFFED935408C454F02F900C01F0907E
:102FFD000C07E0907EBE935410131313541FFF90D3
:10300D000C06E0907EBE935410C4540F2FFF900C0D
:10301D0008E0907EBE9354101313543F2FFFE99395
:10302D005410C3132FFFEA9354102FFFEB9354103A
:10303D0025E02FFFEC93541025E025E02FFFED93B5
:10304D00541033333354F82F900C02F0900C07E0EA
:10305D00907EBE935420C4540FFF900C06E0907EDA
:10306D00BE935420C41354072FFF900C08E0907E9C
:10307D00BE935420131313541F2FFFE993542013A1
:10308D0013543F2FFFEA935420C3132FFFEB935498
:10309D00202FFFEC93542025E02FFFED9354202596
:1030AD00E025E02F900C03F0900C07E0907EBE938E
:1030BD005440C4135407FF900C06E0907EBE935409
:1030CD0040C4131354032FFF900C08E0907EBE9361
:1030DD005440C4540F2FFFE9935440131313541F3E
:1030ED002FFFEA9354401313543F2FFFEB9354409B
:1030FD00C3132FFFEC9354402FFFED93544025E065
:10310D002F900C04F0900C07E0907EBE935480C479
:10311D0013135403FF900C06E0907EBE935480C4AD
:10312D0013131354012FFF900C08E0907EBE93549F
:10313D0080C41354072FFFE9935480C4540F2FFFFD
:10314D00EA935480131313541F2FFFEB93548013E2
:10315D0013543F2FFFEC935480FEC3132FFFED93B9
:10316D0054802F900C05F07F8A127E067F40127ED0
:10317D0006C2C27FC01273FB900BFEE0FF1273FB01
:10318D007F801273FB900BFFE0FF1273FBE4FF12C5
:10319D0073FB900C00E0FF1273FBE4FF1273FB90C6
:1031AD000C01E0FF1273FBE4FF1273FB900C02E0C5
:1031BD00FF1273FBE4FF1273FB900C03E0FF12731D
:1031CD00FBE4FF1273FB900C04E0FF1273FBE4FFB2
:1031DD001273FB900C05E0FF1273FBE4FF1273FBFF
:0231ED00D2C24C
:0131EF0022BD
:06498D00900C491211C755
:10499300784D7C0C7D017BFF7A7E79D47E007F0885
:1049A300120E4C7F817E697D677CFF900C49E0F895
:1049B300A3E0F9A3E0FAA3E0FBD312110D50030225
:1049C3004B247FFF7EE07DF57C05900C49E0F8A346
:1049D300A3A3E012110D4003024B24900C49E0FC09
:1049E300EC33405FE4900C55F0E47B0AFAF9F8905D
:1049F3000C49E0FCA3E0FDA3E0FEA3E0FF12723943
:104A0300900C56EBF0900C49E0FCA3E0FDA3E0FE14
:104A1300A3E0FFE47B0AFAF9F8127239900C491209
:104A230011C7900C56E0FF900C55E0244DF582E43D
:104A3300340CF583EFF0900C55E004F0E0B408A9D2
:104A4300024AEA900C49E0FCA3E0FDA3E0FEA3E0E8
:104A5300FF12864F900C491211C7E4900C55F0E4F5
:104A6300FFFEFDFC900C49E0F8A3E0F9A3E0FAA3F4
:104A7300E0FBD312110D404FE47B0AFAF9F8900CD6
:104A830049E0FCA3E0FDA3E0FEA3E0FF127239902E
:104A93000C56EBF0900C49E0FCA3E0FDA3E0FEA371
:104AA300E0FFE47B0AFAF9F8127239900C4912110B
:104AB300C7900C56E0FF900C55E0244DF582E4348A
:104AC3000CF583EFF08012900C55E0244DF582E451
:104AD300340CF5837410F0800E900C55E004F0E074
:104AE30064086003024A62900C54E0FF900C53E0A8
:104AF300FD900C52E0FB900C51E0900BF9F0900C00
:104B030050E0900BFAF0900C4FE0900BFBF0900C00
:104B13004EE0900BFCF0900C4DE0900BFDF0122E4C
:014B23005D34
:014B2400226E
:0586A5007F80027E064B
:1070930090055EEFF012858E7F90127ADD127A6C86
:1070A3007F01127ADD127A6C90055EE014600E1493
:1070B300600F146010240370117FC2800A7FD28096
:1070C300067FE280027FF2127ADD127A6C7FE3128E
:0870D3007ADD127A6C02867767
:1082490012858E7F90127ADD127A6CE4FF127ADD44
:06825900127A6C02867728
:10771900E4900568F0A3F012858E7F91127ADD124C
:107729007A6C127B71900568EFF012851F127B71DC
:10773900900569EFF0128677900568E0FEA3E0FDF9
:02774900EDFF52
:01774B00221B
:08811A009002E6EFF0A3EDF086
:10812200E4A3F0A37430F07B017A0279E87F0302C2
:02813200448A7D
:107EDC00EF25E025E0242EF582E4340CF583E070E8
:0D7EEC0003FEFF22127093128249127719D3
:017EF9002266
:10839200EF25E025E0242EF582E4340CF583740108
:0283A200F022C7
:10842F00EF25E025E0242EF582E4340CF583E4F00B
:01843F00221A
:0881E900900D56ECF0A3EDF03F
:1081F100E4A3F0A3EFF07B017A0D7958E4FF024488
:018201008AF2
:05844000900D8AEFF031
:0B844500E4FF00000FEFB408F9000096
:018450002209
:045A1B00410AFC0040
:10716A00E49002E6F0A37408F07B017A0279E67FE4
:10717A000312448A9002E67401F0A37404F07B01BE
:10718A007A0279E67F0312448A9002EA7401F0E4F3
:10719A009002E8F0A304F0FB7A0279E8E4FF125DBA
:0571AA00A4C2B2C2B353
:0171AF0022BD
:1083A400EF75F007A424DEF582E4340AF583740142
:0283B400F022B5
:10845100EF75F007A424DEF582E4340AF583E4F035
:0184610022F8
:10846200EF75F007A424DEF582E4340AF583E0FF19
:0184720022E7
:1082B100EF75F007A424DFF582E4340AF583ECF0CE
:0482C100A3EDF02217
:107D4600AB0790055CE0FCA3E0FDA3E0FEA3E0FF2B
:107D5600EB75F007A424DAF582E4340AF583021100
:017D6600C755
:1082C500EF75F007A424DFF582E4340AF583E0FEB8
:0482D500A3E0FF2201
:0571F50090055BEFF0C6
:1071FA0075F007A424DEF582E4340AF583E0602EF4
:10720A0090055BE0700DD2A8D2B37F05FE1278CE4E
:10721A00C2B32290055BE0B40114E4FF127EDC9055
:0E722A000AE6EEF0A3EFF07F057E001278CEAC
:017238002233
:10813400EF75F007A424DAF582E4340AF583E0FC51
:0A814400A3E0FDA3E0FEA3E0FF228C
:03000300026B1A73
:106B1A00C0E0C083C082C0D075D000C004C005C028
:106B2A0006C00730B20A43D180900AFCE4F08038EC
:106B3A0020B22D53D17FAFD2900ADFE4F0A3EFF059
:106B4A00E0FEADD37C00E42DFFEC3E900ADFF0A31B
:106B5A00EFF075D20075D300900AFC7401F080083A
:106B6A00900AFCE4F053D17FD007D006D005D004B8
:096B7A00D0D0D082D083D0E032EB
:105A1F00450C8C3443101001450C87344310100192
:1056C900900D8BEFF0703EC295D294C2917B017A16
:1056D9000C7987900D037405F07F2A1273007D0100
:1056E9007F211284957D017F22128495E4FD7F2517
:1056F9001284957D207F311284957D077F2612843F
:10570900957D0F8055900D8BE064017059C295D23B
:1057190094C2917B017A0C798C900D037405F07F0A
:10572900301273007B017A0C7987900D037405F0B0
:105739007F2A1273007D017F211284957D017F22CA
:10574900128495E4FD7F251284957D077F261284B6
:10575900957D207F311284957D0E7F201284957F5F
:10576900147E000278CE900D8BE06402704BC295D6
:10577900D294C2917B017A0C798C900D037405F057
:105789007F301273007B017A0C7987900D037405C1
:10579900F07F2A1273007D017F211284957D017F9C
:1057A90022128495E4FD7F251284957D077F2612B8
:0A57B90084957D207F311284952233
:10777E00900D8CEFF07FF47E011278CE900D8CE0A0
:10778E007006C2957D0F800B900D8CE0B40112C275
:10779E00957D0E7F20128495D2957F147E001278EF
:0277AE00CE22E9
:0B6F1200900D5AEBF0A3EAF0A3E9F0A9
:106F1D00E4A3F07F0712852C1286B41286BA501E98
:106F2D00C295900D5AE0FBA3E0FAA3E0F9900D5144
:106F3D007420F07F611276E4900D5D7401F012867D
:106F4D00B7AD077F27128495D2957FC87E00127842
:066F5D00CE900D5DE0FF87
:016F6300220B
:10756000900D67EBF0A3EAF0A3E9F07DFF7F27120F
:1075700084957DFF7FE1128495C295900D67E0FBB5
:10758000A3E0FAA3E0F9900D037420F07FA012733A
:0A75900000D2957FC87E000278CE7D
:0A743700900D6BEDF0900D6AEFF080
:10744100127ADD127A6C900D6BE0FF127ADD127AFE
:107451006C900D6AE04401FF127ADD127A6C127BA6
:1074610071900D6CEFF0128598128677900D6CE09B
:01747100FF1B
:0174720022F7
:10814E00900D8DEFF07D077FD0128202900D8DE0A5
:0A815E00FF127ADD127A6C028677B8
:0E6F6400900D43EFF0A3EBF0A3EAF0A3E9F0E9
:106F720012858E900D43E04401FF127ADD127A6C85
:106F8200E4900D47F0127B71900D44E0FBA3E0FA10
:106F9200A3E0F9A3E0F582758300EF120ECA128511
:106FA2001F900D47E004F0E0C3940740D812859883
:036FB200028677DD
:088619007F077E0EDEFEDFFC90
:018621002236
:088622007F027E63DEFEDFFC37
:01862A00222D
:08862B007F127E7FDEFEDFFC02
:018633002224
:0686570000007F39DFFE88
:01865D0022FA
:06865E0000007F03DFFEB7
:0186640022F3
:088634007F037E52DEFEDFFC35
:01863C00221B
:1078A000E4FDD281128657FBFAEDC313FDC28112AB
:1078B000865ED28112865E3081034480FD1286226C
:0D78C0000BBB00010AEB64084A70DEAF0547
:0178CD002298
:02787100AD0761
:10787300E4FBFAED30E00CC28112865ED2811286FF
:1078830022800AC281128622D28112865EEDC31340
:0C789300FD0BBB00010AEB64084A70D733
:01789F0022C6
:10760B00E4FDFBFA7C01D281128619C28112862B12
:10761B00D28130811EECB4011A0BBB00010A128619
:10762B0057D3EB9480EA943E4002E4FCA281E4330E
:08763B00FD80DFD281028634DC
:0570490090055BEFF073
:10704E0012760B7FCC1278717F4412787112760B08
:10705E007FCC1278717FBE1278711278A090057A6B
:10706E00E4F0A3EFF01278A0EFFE90057AE04EFE6A
:10707E00A3E0FFFDAC06E4120B10E4FBFA79807876
:04708E003D1208F8AF
:0170920022DB
:1083B600E49002E6F0A304F0FB7A0279E6E4FF0219
:0283C600448AE7
:106E1A00120E72F59D900001120E8BFFE5BC549F75
:106E2A004FF5BC900002120E8BB4010543BC808062
:106E3A000353BC7F900003120E8BB40105439720C5
:106E4A0080035397DF900005120E8BB40104D2AD74
:106E5A008002C2AD900004120E8BB40103D2BD228F
:036E6A00C2BD2284
:0C856B00EFB4010443BC802253BC7F220B
:106D1100EFD3940740028051E4F5BDF5BEE5BC54C4
:106D2100E044084FF5BC00000000E4FBE5BC30E4A2
:106D31003353BCEFE59730E509E5BD5403ADBEFC27
:106D4100801DAFBD7C00AD07ED7E007802C333CE60
:106D510033CED8F9FFE5BE5403FDEEFCEF4DFDAF98
:0D6D610005AE04220BEBB4FAC37E047F00E4
:016D6E002202
:03002B000286AAA0
:0486AA0053BCEF329C
:0F84C7007D367C07ED1D70011C144C70F7DFF142
:0184D6002283
:1078CE00E4FCFDFB7A36796E7801120FE2E47B0C54
:1078DE00FAF9F81272397B407A42790F78001272F7
:0D78EE0039EF4E600800EF1F70F71E80F4A8
:0178FB00226A
:0E84F500E4F5C7F5C5F5C675C3FF75C4FF22D3
:10734000AD07AC06C2AF75C78075C501ECF5C3AF1C
:10735000058FC475C65A75C6A500E5C2120EB80DD4
:10736000BD00010C740129F9E43AFA900CDE74FFB7
:0F737000F5F0120F5345F070D31284F5D2AF220F
:107DA700AD07AC06C2AFECF5C3AF058FC475C7808E
:107DB70075C50375C65A75C6A5001284F5D2AF22DC
:10737F00AD07AC06C2AF75C78075C502ECF5C3AFDC
:10738F00058FC4120E72F5C275C65A75C6A5000DCB
:10739F00BD00010C740129F9E43AFA900CE574FF71
:0F73AF00F5F0120F5345F070D31284F5D2AF22D0
:030013000286C39F
:0186C3003284
:030053000286C45E
:0186C4003283
:03005B000286C555
:0186C5003282
:030083000286C62C
:0186C6003281
:105DA400EFD3940440037F0122EF702D9000021280
:105DB4000E8BB40104D2A88002C2A8900001120E76
:105DC4008BB40104D2B88002C2B8120E72B40104BA
:105DD400D2888002C2887F0022EF6401702D900077
:105DE40002120E8BB40104D2AA8002C2AA9000014E
:105DF400120E8BB40104D2BA8002C2BA120E72B46B
:105E04000104D28A8002C28A7F0022EFB402149075
:105E14000002120E8BB40105438F108003538FEFE1
:105E24007F0022EFB40314900002120E8BB401051C
:105E3400438F208003538FDF7F0022EFB40414903C
:105E44000002120E8BB40105438F408003538FBFB1
:065E54007F00227F022204
:0386B100A21B22E7
:10448A00EFD3940540037F0122120E72FED39403E8
:10449A0040037F0222EF7041EE700B900001120E72
:1044AA008BF452935294120E72B4010B90000112C3
:1044BA000E8B4293F45294120E72FEB4020A9000CA
:1044CA0001120E8B42934294EEB4030D9000011236
:1044DA000E8BFEF45293EE4294EF64017043120E77
:1044EA0072FE700B900001120E8BF452915292EEF2
:1044FA00B4010B900001120E8B4291F45292120EEB
:10450A0072B4020A900001120E8B42914292120E6C
:10451A0072B4030D900001120E8BFEF45291EE421A
:10452A0092EF64027043120E72FE700B9000011239
:10453A000E8BF452955296EEB4010B900001120EB6
:10454A008B4295F45296120E72B4020A900001122E
:10455A000E8B42954296120E72B4030D9000011210
:10456A000E8BFEF45295EE4296EF64037043120EE0
:10457A0072FE700B900001120E8BF452B152B2EE21
:10458A00B4010B900001120E8B42B1F452B2120E1A
:10459A0072B4020A900001120E8B42B142B2120E9C
:1045AA0072B4030D900001120E8BFEF452B1EE426A
:1045BA00B2EF64047043120E72FE700B9000011287
:1045CA000E8BF452B352B4EEB4010B900001120EEA
:1045DA008B42B3F452B4120E72B4020A9000011262
:1045EA000E8B42B342B4120E72B4030D9000011244
:1045FA000E8BFEF452B3EE42B4EF64057043120E12
:10460A0072FF700B900001120E8BF452C952CAEF5E
:10461A00B4010B900001120E8B42C9F452CA120E59
:10462A0072B4020A900001120E8B42C942CA120EDB
:10463A0072B4030D900001120E8BFFF452C9EF42BF
:04464A00CA7F002201
:07850300C2B512850AD2B4D3
:06850A0000007F39DFFED6
:018510002248
:0A858E00D2B5128505C2B502850AB8
:06867700128503D2B522BA
:0D851F00C2B4128503C2B412850AD2B5227F
:047A6800FF127ADDB2
:107A6C00E4FEC2B412850AD2B5D2B412850A30B57E
:107A7C000DEEC394FF50070EA2B5921780F0C2B45E
:027A8C00A2173F
:017A8E0022D5
:0A859800D2B5C2B4128505C2B422A8
:107B7100E4FEFDD2B412850AEE25E0FE12850A303C
:107B8100B5054401FE8000C2B412850A0DEDB408AA
:037B9100E2AF065A
:017B940022CE
:027ADD00AE07F2
:107ADF00E4FDC2B412850AEE5480FFC4131313548D
:107AEF000124FF92B5128505EE25E0FE0DEDB408D9
:037AFF00E1C2B42D
:017B02002260
:10820200AC05AE0712858EAF06127ADD127A6CAF1C
:0982120004127ADD127A6CD32209
:0B767900900CF5EBF0A3EAF0A3E9F0A1
:10768400128202E4FC900CF8E0FFECC39F501990C6
:107694000CF5E0FBA3E475F001120F69A9F0FA12EE
:0B76A4000E72127A680C80DD028677FF
:106E6D00900CFBEBF0A3EAF0A3E9F0900CF9EFF036
:106E7D0012820212858EE04401127A68E4FC900CB5
:106E8D00FEE0FFECC39F5025127B71900CFBE0FBE5
:106E9D00A3E475F001120F69A9F0FAEF120EB89084
:106EAD000CFEE0146C600312851F0C80D1128598C6
:036EBD00028677D3
:105FBD00EF7034D3ED9498EC940340047C037D98FA
:105FCD00C3ED9450EC940050047C007D50C2DE90E3
:105FDD000BD6ECF0A3EDF0C374E89D900BD1F074EB
:105FED00039C900BD08073EF64017034D3ED9468F3
:105FFD00EC940B40047C0B7D68C3ED9450EC940045
:10600D0050047C007D50C2DE900BD8ECF0A3EDF077
:10601D00C374B89D900BD3F0740B9C900BD2803A47
:10602D00EF64027038D3ED9480EC940740047C0744
:10603D007D80C3ED9450EC940050047C007D50C2E3
:10604D00DE900BDAECF0A3EDF0AE04FFC374D09F3D
:0E605D00900BD5F074079E900BD4F0D2DE228B
:1047EE00900D6DEBF0A3EAF0A3E9F0AD07EDD394D5
:1047FE0003400302498CED6403704CC2DEF5F9F5FB
:10480E00E9900D6DE0FBA3E0FAA3E0F9120E72FF42
:10481E00E5A254CF4FF5A2900001120E8BFFE5D901
:10482E0054F14FF5D9900004120E8B5401FFE5D9C7
:10483E0054FE4FF5D9900005120E8BB40104D2BF71
:10484E008002C2BFD2DE22900D6DE0FBA3E0FAA380
:10485E00E02404F9E43AFA120E725431120EB890B2
:10486E000D6DE0FBA3E0FAA3E0F9900002120E8BAF
:10487E00C39448400FE92404F9E43AFA120E725434
:10488E00CF120EB8ED704F900D6DE0FBA3E0FAA3C2
:10489E00E0F9900004120E8BFF900002120E8BFEB8
:1048AE004FF5DA900003120E8BFFE5F2543F4FF5F1
:1048BE00F2900006120FAAFBAAF0900BD6EAF0A314
:1048CE00EBF0C211900BCDEEF0900BDCEAF0A3EB07
:1048DE00F0F5EAEAF5FAED6401704F900D6DE0FB2C
:1048EE00A3E0FAA3E0F9900004120E8BFF900002F1
:1048FE00120E8BFE4FF5DB900003120E8BFFE5F3CD
:10490E00543F4FF5F3900006120FAAFBAAF0900B3E
:10491E00D8EAF0A3EBF0C212900BCEEEF0900BDEC5
:10492E00EAF0A3EBF0F5EBEAF5FBED6402704F90C5
:10493E000D6DE0FBA3E0FAA3E0F9900004120E8BDC
:10494E00FF900002120E8BFE4FF5DC900003120E4C
:10495E008BFFE5F4543F4FF5F4900006120FAAFDBD
:10496E00ACF0900BDAECF0A3EDF0C213900BCFEE9F
:0F497E00F0900BE0ECF0A3EDF0F5ECECF5FC2283
:10520700900D71ECF0A3EDF0900D70EFF0705ED3A0
:10521700EB9464EA940040047A007B64C3EB940146
:10522700EA940050047A007B01C2DE900D71E0FE23
:10523700A3E0FFAD03AC02120EEC7C007D64120EFE
:10524700FE900BD6EEF0A3EFF07C007D64AF03AECB
:1052570002120EFEC374019FFFE49EFE900D71E0E3
:10526700FCA3E0FD120EEC900BD002533C900D70A6
:10527700E06401705DD3EB9464EA940040047A0023
:105287007B64C3EB9401EA940050047A007B01C26B
:10529700DE7C007D64AF03AE02120EFE900D71E05E
:1052A700FCA3E0FD120EEC900BD8EEF0A3EFF07C20
:1052B700007D64AF03AE02120EFEC374019FFFE4CC
:1052C7009EFE900D71E0FCA3E0FD120EEC900BD258
:1052D7008063900D70E064027062D3EB9464EA948B
:1052E7000040047A007B64C3EB9401EA9400500405
:1052F7007A007B01C2DE7C007D64AF03AE02120E32
:10530700FE900D71E0FCA3E0FD120EEC900BDAEEBF
:10531700F0A3EFF0AE02AF037C007D64120EFEC374
:1053270074019FFFE49EFE900D71E0FCA3E0FD1267
:0D5337000EEC900BD4EEF0A3EFF0D2DE22CE
:03003B000261BAA5
:1061BA00C0E0C083C082C0D075D000C006C007301E
:1061CA00D82AC2D830A505900BD68003900BD0E010
:1061DA00FEA3E0FF900BDDE02FF0900BDCE03EF039
:1061EA00900BDCE0FEA3E0F5EAEEF5FA30D92AC21C
:1061FA00D930A605900BD88003900BD2E0FEA3E01D
:10620A00FF900BDFE02FF0900BDEE03EF0900BDE0C
:10621A00E0FEA3E0F5EBEEF5FB30DA2AC2DA30A7AE
:10622A0005900BDA8003900BD4E0FEA3E0FF900BFD
:10623A00E1E02FF0900BE0E03EF0900BE0E0FEA3EF
:10624A00E0F5ECEEF5FCD007D006D0D0D082D083B2
:03625A00D0E0325F
:106CB000900D7BECF0A3EDF0AB07900D7BE0FEA315
:106CC000E0FFE4FCFDEB75F00AA424EAF582E4346D
:106CD00009F5831211C743BA8053F57FEB75F00AAB
:106CE000A424F3F582E43409F583E0FF7E00900DDF
:106CF0007BE0FCA3E0FD120EECAB07AA06E4F9F87A
:106D0000FF7E367D6E7C01127239127E2553BA7F6A
:016D10002260
:10816800EF75F00AA424EAF582E43409F583E0FC0B
:0A817800A3E0FDA3E0FEA3E0FF2258
:1058AF00900D48EFF07F337E337D737C3FA3E0F89C
:1058BF00A3E0F9A3E0FAA3E0FB120A9E600C400AF2
:1058CF00900D491211D33F7333337FCD7ECC7DCCF6
:1058DF007C3C900D49E0F8A3E0F9A3E0FAA3E0FBCC
:1058EF00120A9E500A900D491211D33CCCCCCD9088
:1058FF000D49E0FCA3E0FDA3E0FEA3E0FF900D48FF
:10590F00E0FB75F00AA424EFF582E43409F5831265
:10591F0011C743BA80EB75F00AA424F3F582E4347F
:10592F0009F583E0FFE4FCFDFEEB75F00AA424EA21
:10593F00F582E43409F583E0F8A3E0F9A3E0FAA3D4
:10594F00E0FB120FE2A804A905AA06AB077F007EB1
:10595F00367D6E7C0112106DE4120B0B900D49E039
:10596F00F8A3E0F9A3E0FAA3E0FB1208F8120B4941
:10597F00AB07AA06900D48E0FF7D0A7C001262FC7F
:04598F0053BA7F2266
:10818200EF75F00AA424EFF582E43409F583E0FCEC
:0A819200A3E0FDA3E0FEA3E0FF223E
:10847300EF75F00AA424F3F582E43409F583EDF0F3
:0184830022D6
:10848400EF75F00AA424F3F582E43409F583E0FFE0
:0184940022C5
:0A85A20043BA8043F58053BA7F22EC
:0A85AC0043BA8053F57F53BA7F22D3
:10797A0043BA807401A807088002C333D8FC42F5D1
:10798A00EF75F00AA424EEF582E43409F583740154
:08799A00F043F58053BA7F228F
:107B280043BA807401A807088002C333D8FCF45212
:107B3800F5EF75F00AA424EEF582E43409F583E440
:057B4800F053BA7F229A
:1083C800EF75F00AA424EEF582E43409F583E0247D
:0283D800FF2282
:052AC300900D7DEFF015
:102AC800E4A3F0900D7EE0FFC39406505AEF75F032
:102AD8000AA424EAF582E43409F5831211D300002C
:102AE8000000900D7EE0FF75F00AA424EEF582E464
:102AF8003409F583E4F0EF75F00AA424EFF582E4D5
:102B08003409F5831211D300000000900D7EE075A2
:102B1800F00AA424F3F582E43409F5837401F090F3
:102B28000D7EE004F0809C43BA80120E72B4010559
:102B380043F180800353F17F900001120E8BB401A2
:102B480014900D7DE0FF7401A807088002C333D8F4
:102B5800FC42F18013900D7DE0FF7401A807088006
:102B680002C333D8FCF452F1900002120E8BB40168
:102B78000543F540800353F5BF900003120E8BB454
:102B88000114900D7DE0FF7401A807088002C3338B
:102B9800D8FC42F58013900D7DE0FF7401A807086A
:102BA8008002C333D8FCF452F5900004120E8BB4A3
:102BB800010575F720800353F7DF900005120E8B8F
:102BC800B4010575F710800353F7EF900006120E55
:102BD8008BB4010575F708800353F7F790000712C7
:102BE8000E8BB4010575F704800353F7FB900008BA
:102BF800120E8BB4010575F702800353F7FD9000A0
:102C080009120E8B90FFF27006E054EFF08004E09A
:102C18004410F090FFF2C083C082E0FF90000A12D7
:102C28000E8BFEEF4ED082D083F0900D7DE01460C5
:102C380072147003022CFE147003022D51147003D9
:102C4800022DA4147003022DF524056003022E4CF6
:102C580090000B120E8B90FF047006E054F7F08082
:102C680004E04408F090000C120E8B90FF04B401AD
:102C780006E04404F08004E054FBF090000D120ECE
:102C88008B90FF04B40106E04402F08004E054FD98
:102C9800F090000E120E8B90FF04B40103022E4236
:102CA800022E4890000B120E8B90FF147006E05411
:102CB800F7F08004E04408F090000C120E8B90FFAF
:102CC80014B40106E04404F08004E054FBF09000E2
:102CD8000D120E8B90FF14B40106E04402F080043C
:102CE800E054FDF090000E120E8B90FF14B4010317
:102CF800022E42022E4890000B120E8B90FF247079
:102D080006E054F7F08004E04408F090000C120E3E
:102D18008B90FF24B40106E04404F08004E054FBE7
:102D2800F090000D120E8B90FF24B40106E04402CF
:102D3800F08004E054FDF090000E120E8B90FF24FA
:102D4800B40103022E42022E4890000B120E8B9003
:102D5800FF347006E054F7F08004E04408F0900077
:102D68000C120E8B90FF34B40106E04404F080048A
:102D7800E054FBF090000D120E8B90FF34B4010666
:102D8800E04402F08004E054FDF090000E120E8B37
:102D980090FF34B40103022E42022E4890000B1219
:102DA8000E8B90FF447006E054F7F08004E044086E
:102DB800F090000C120E8B90FF44B40106E044041E
:102DC800F08004E054FBF090000D120E8B90FF444D
:102DD800B40106E04402F08004E054FDF090000ED7
:102DE800120E8B90FF44B40102804F805390000B69
:102DF800120E8B90FF547006E054F7F08004E04404
:102E080008F090000C120E8B90FF54B40106E044B9
:102E180004F08004E054FBF090000D120E8B90FF3C
:102E280054B40106E04402F08004E054FDF0900040
:102E38000E120E8B90FF54B40106E04401F080049A
:102E4800E054FEF090000F120E8BB4010443F5809D
:042E58002253F57F8D
:012E5C002253
:056D6F00900B8EEBF01B
:106D7400E4900B90F0A3EDF07B017A0B7990124430
:106D84008A43BA80E4900B92F0A3F0A3F0A304F03A
:106D9400E4A3F0A3F0A3F0A3F0A3F0A3F0900B8F6F
:106DA400E0900B9CF0E4A3F0A3F0A3F0A3F0A3F015
:106DB400900B8EE0FF7B017A0B7992122AC353BAAF
:016DC4007F4F
:016DC50022AB
:107E2500D3E49F74809E90FFF1400AEFF0EE90FF3F
:0F7E3500F0F07F002274FFF090FFF0747FF022D6
:1062FC00EF14602814603A14604C14605E146070E3
:10630C002405600302639390FF01EDF0EC90FF0015
:10631C00F090FF03EBF0EA90FF02806790FF11ED25
:10632C00F0EC90FF10F090FF13EBF0EA90FF12806E
:10633C005290FF21EDF0EC90FF20F090FF23EBF05A
:10634C00EA90FF22803D90FF31EDF0EC90FF30F0B1
:10635C0090FF33EBF0EA90FF32802890FF41EDF094
:10636C00EC90FF40F090FF43EBF0EA90FF4280137B
:10637C0090FF51EDF0EC90FF50F090FF53EBF0EAF2
:0A638C0090FF52F07F00227F0122F3
:0A7B9500EBF0A3EAF0A3E9F0C294BC
:107B9F00E4FEEF339293EF25E0FFD291A292E4330C
:097BAF004FFFC2910EEEB408E98B
:017BB80022AA
:0C852C00C294127B9FE4FF127B9FD2944C
:018538002220
:10849500C294127B9FAC07AF05127B9FD294AF04A9
:0184A50022B4
:0376E400900D4EB8
:1076E700127B95AD07E4FC900D51E0FFECC39F5072
:1076F7001CE4FF127B9F900D4EE0FBA3E0FAA3E092
:10770700F98C82758300EF120ECA0C80DAD294AF1F
:01771700056C
:01771800224E
:03730000900D00ED
:10730300127B95900D04EFF07F0A7E001278CEE495
:10731300FD900D03E0FFEDC39F501A900D00E0FBBD
:10732300A3E475F001120F69A9F0FA120E72FF12AD
:0C7333007B9F0D80DCD294900D04E0FFE5
:01733F00222B
:0386B4008F2022F2
:0386B700AF2022CF
:06867D00EF24FF9206222B
:0386BA00A20622F3
:105A2F00410BA900410BAA00420BAB0000420BAD8A
:105A3F000000420BA50000420BA30000410BB70072
:105A4F00410BA200410BA800410BA700440BAF0074
:0A5A5F00000000440BB3000000003B
:1067E600E4900306F09002E6F0A304F0A3F0E4A31D
:1067F600F0A3F09002EDF09002EB74A2F0A37440C7
:10680600F0E49002FEF0A304F0E4A3F0A3F0A3F0FA
:10681600900305F074FF900303F0A3F0E49002EEFA
:10682600F0A304F0A3F0A3F0E49002F5F0A3F0A324
:1068360004F0A3F0A3F0E49002FDF07B017A027964
:10684600FE7F04123A777B017A0279EE7F02123AD2
:0C685600777B017A0279F67F03023A7723
:10792900900BA9E064026020A3E06402601AEF24CE
:10793900FE600B047012900BAFECF0A3EDF0AF05F5
:09794900900BB3ECF0A3EFF02267
:10819C00EF24FE600804700E900BAF8003900BB3BD
:0A81AC00E0FEA3E0FF22E4FEFF2244
:107FDE00EF24FE600C047013900BB1ECF0A3EDF0E7
:0C7FEE0022AF05900BB5ECF0A3EFF022E1
:1081B600EF24FE600804700E900BB18003900BB59F
:0A81C600E0FEA3E0FF22E4FEFF222A
:0D853900EF14700853D17FE4900BA9F022DD
:107E4400EF24FE600E047016900BA9E0B40202D376
