:027FF60081B553
:027FF800721BFA
:027FFA006D0414
:027FFC0069E436
:027FFE008332CC
:028000007BE91A
:0280020057A085
:028004006F0704
:02800600755AA9
:02800A0080B53F
:02800E004AFA2C
:10814300627574746F6E203100627574746F6E2083
:03815300322000D7
:1081B500126D5F7F041279DB7F0C123686E4FF02B5
:0281C500370F72
:10721B00E4FDFF1275F790044C7401F01252B57D2A
:10722B0001E4FF1275F790044C7402F01252B57D15
:10723B0002E4FF1275F790044C7403F01252B57F01
:10724B0003127629E4FBFA7D1E7F0212379880C069
:106D0400E4FDFF1275F7120B49AB07AA069002C403
:106D14007404F0E4FDFF126AB67D01E4FF1275F716
:106D2400120B49AB07AA069002C47404F07D01E477
:106D3400FF126AB67D02E4FF1275F7120B49AB0726
:106D4400AA069002C47404F07D02E4FF126AB6E459
:0B6D5400FBFA7D1E7F0212379880A51D
:1069E400E4FF127D1DAC06AD07E4120B1090044CBD
:1069F4007401F01252B57F01127D1DAC06AD07E49F
:106A0400120B1090044C7402F01252B57F02127DE6
:106A14001DAC06AD07E4120B1090044C7403F01285
:106A240052B57F03127D1DAC06AD07E4120B109026
:106A3400044C7404F01252B57F04127629E4FBFA74
:096A44007D1E7F02123798809735
:10755A007F02127E1FEF600B7DC87C007FD07E0702
:10756A00125A017F03127E1FEF6003127B267F04EB
:10757A00127E1FEF6003127B47E4FBFA7D0A7F024B
:05758A0012379880CBD0
:0F8332001274B6E4FBFA7D057F0212379880F1D2
:106F0700E4FF127E1FEF601A7BFF7A8179437D01D0
:106F1700E4FF126E16E4FBFA7DC87F02123798125F
:106F27007B057F01127E1FEF601A7BFF7A81794C08
:106F37007D01E4FF126E16E4FBFA7DC87F0212376B
:106F470098127B05E4FBFA7D057F0212379880B023
:107BE900E4FF127F7490044C7401F01252B57F01C6
:0F7BF900127629E4FBFA7D1E7F0212379880E195
:1057A00090033E1211BD000000009003421211BD93
:1057B00000000000E4900346F0E4FF127C46E4FBA6
:1057C000FA7D047F02123798E4FF12811BAC06AD0C
:1057D00007E4120B10C004C005C006C0079003C741
:1057E0001211BD3727C5AC9003CB1211BD4040004C
:1057F000009003CF1211BD3F800000D007D006D02B
:1058000005D004124C679003BF1211B17F667ECFA2
:105810007D8B7C369003BFE0F8A3E0F9A3E0FAA308
:10582000E0FB1208F890033E1211B1E4FFFE7DAADE
:105830007C4390033EE0F8A3E0F9A3E0FAA3E0FB89
:105840001208F8E4FBFAF97840120A0190034212B8
:1058500011B1900342E0FCA3E0FDA3E0FEA3E0FF52
:0E5860009003C41211B1E4FF127B680257B925
:104AFA00E4900447F0E4900447F0E4FF127C46E4B3
:104B0A00FBFA7D047F02123798E4FF12811BAC0680
:104B1A00AD07E4120B109003EF1211B190044C127E
:104B2A0011BD45BB80009003EFE0FCA3E0FDA3E0CC
:104B3A00FEA3E0FF126B809003EB1211B19003EB1E
:104B4A00E0FCA3E0FDA3E0FEA3E0FF90044C747830
:104B5A00F01264109003EB1211B19003EBE0FCA386
:104B6A00E0FDA3E0FEA3E0FF125B719003EB1211DC
:104B7A00B19003EBE0FCA3E0FDA3E0FEA3E0FF900D
:104B8A000447E025E025E024F3F582E43403F583C5
:104B9A001211B1900447E004F0E0C39414500302E8
:104BAA004B047B017A0379F390044C1211BD477FC1
:104BBA00FF009004501211BD000000007D14124243
:104BCA00A99004431211B19003EFE0FCA3E0FDA306
:104BDA00E0FEA3E0FF90044C7401F01252B5900479
:104BEA0043E0FCA3E0FDA3E0FEA3E0FF90044C74C5
:104BFA0002F01252B57F737EAF7DB97C3A9003EF13
:104C0A00E0F8A3E0F9A3E0FAA3E0FB1208F8E4FB5A
:104C1A00FAF97840120A0190044C7403F01252B562
:104C2A007F737EAF7DB97C3A900443E0F8A3E0F944
:104C3A00A3E0FAA3E0FB1208F8E4FBFAF9784012C1
:104C4A000A0190044C7404F01252B57F04127629BA
:0D4C5A00E4FBFA7D1E7F02123798024AFF2C
:1080B50012517AEF60031283C8E4FBFA7D057F0253
:0580C50012379880EB6A
:10707B00535443313577346B35387334277320557C
:10708B0041525431206973206F70656E200D0A00D8
:10709B0074686973206973206120746573740D0AB9
:1070AB000025642D25642D25642D2564200D0A00F3
:0770BB0048656C6C6F2100B9
:10758F009002907440F0A37401F0A31211B1900215
:10759F00977401F0E4A3F0A304F0A3F0E4A3F0A325
:1075AF00F07B017A0279907F011212F77BFF7A70DC
:0575BF00797B028072DF
:106BE300E4FF1277457BFF7A70799B1231DA7F08D5
:106BF3009009857401F0A3DFFC7F081262F77BFF25
:106C03007A7079AC900980E0FF900741E4F0A3EF3C
:106C1300F0900981E0FF900743E4F0A3EFF09009BF
:106C230082E0FF900745E4F0A3EFF0900983E0FFD3
:106C3300900747E4F0A3EFF01231DA7FC812832202
:026C430080B916
:106D5F007F807E257D007C0012758F1266AF1277C3
:106D6F009B1271D87BFF7A7079BBE4FDFF126E1610
:106D7F00E4FBFA7DFA7F02123798127B0512805BD3
:106D8F0012796FE4FD7F01127DE7127F5A127109AC
:106D9F00E4FF128233E4FF1282217F011282217FEE
:096DAF00021282217F03028221FD
:0184C4002295
:0184C5002294
:0184C6002293
:0184C7002292
:0184C8002291
:0C59350044047B00000000420613000048
:0E42A900900448EBF0A3EAF0A3E9F0A3EDF0D7
:1042B7009004551211BD00000000900450E0FCA3CB
:1042C700E0FDA3E0FEA3E0FF9004591211B19004B2
:1042D7004CE0FCA3E0FDA3E0FEA3E0FF90045D1229
:1042E70011B1E4900454F090044BE0FF900454E0C3
:1042F700C39F40030243D9900448E0FBA3E0FAA31D
:10430700E0F9900454E075F004A4F58285F0831277
:104317001151900459E0F8A3E0F9A3E0FAA3E0FBF8
:10432700120A9E5021900448E0FBA3E0FAA3E0F9AB
:10433700900454E075F004A4F58285F083121151BE
:104347009004591211B1900448E0FBA3E0FAA3E0EE
:10435700F9900454E075F004A4F58285F0831211F6
:104367005190045DE0F8A3E0F9A3E0FAA3E0FB12A3
:104377000A9E60234021900448E0FBA3E0FAA3E0F3
:10438700F9900454E075F004A4F58285F0831211C6
:104397005190045D1211B1900455E0FCA3E0FDA318
:1043A700E0FEA3E0FF900448E0FBA3E0FAA3E0F9F6
:1043B700900454E075F004A4F58285F0831211810E
:1043C7001208079004551211B1900454E004F0024A
:1043D70042EE900455E0FCA3E0FDA3E0FEA3E0FF5E
:1043E700C004C005C006C00790045DE0FCA3E0FD63
:1043F700A3E0FEA3E0FF900459E0F8A3E0F9A3E0EF
:10440700FAA3E0FB120807A804A905AA06AB07D080
:1044170007D006D005D0041208039004551211B135
:10442700900455E0FCA3E0FDA3E0FEA3E0FFC00479
:10443700C005C006C00790044BE024FEFDE434FF2E
:10444700FCE4120B10A804A905AA06AB07D007D0F5
:1044570006D005D004120A019004551211B1900438
:0C44670055E0FCA3E0FDA3E0FEA3E0FF95
:014473002226
:064C67009003C31211B11D
:104C6D009003CBE0FCA3E0FDA3E0FEA3E0FF9003E7
:104C7D00D31211B19003C7E0FCA3E0FDA3E0FEA3A6
:104C8D00E0FF9003D71211B1900473E0FCA3E0FD97
:104C9D00A3E0FEA3E0FF9003DB1211B1900473E0DB
:104CAD00FCA3E0FDA3E0FEA3E0FF9003DB1211B136
:104CBD009003D7E0FCA3E0FDA3E0FEA3E0FF90048A
:104CCD0077E0F8A3E0F9A3E0FAA3E0FB1208079060
:104CDD0003E31211B19003D3E0FCA3E0FDA3E0FECA
:104CED00A3E0FF9003E3E0F8A3E0F9A3E0FAA3E06B
:104CFD00FB120807A804A905AA06AB079003E3E079
:104D0D00FCA3E0FDA3E0FEA3E0FF120A019003E780
:104D1D001211B19003DBE0F8A3E0F9A3E0FAA3E0F0
:104D2D00FB9003C3E0FCA3E0FDA3E0FEA3E0FF12B4
:104D3D0008039003E7E0F8A3E0F9A3E0FAA3E0FB92
:104D4D001208F89003DBE0F8A3E0F9A3E0FAA3E082
:104D5D00FB1208079003DF1211B19003E7E0F8A3EF
:104D6D00E0F9A3E0FAA3E0FBE4FFFE7D807C3F12B7
:104D7D0008039003E3E0F8A3E0F9A3E0FAA3E0FB56
:104D8D001208F89004771211B19003DFE0FCA3E054
:104D9D00FDA3E0FEA3E0FF9004731211B19003DFB9
:0B4DAD00E0FCA3E0FDA3E0FEA3E0FF9C
:014DB80022D8
:066B80009004481211B15F
:106B860090047BE0F8A3E0F9A3E0FAA3E0FB90040D
:106B960048E0FCA3E0FDA3E0FEA3E0FF1208031219
:106BA60083A390044CE0F8A3E0F9A3E0FAA3E0FB8A
:106BB600120A9E500590047B8017900448E0FCA3BF
:106BC600E0FDA3E0FEA3E0FF90047B1211B1900468
:0C6BD60048E0FCA3E0FDA3E0FEA3E0FF0C
:016BE2002290
:065B71009004481211B17E
:105B770090044D1211BD00000000900448E0FCA302
:105B8700E0FDA3E0FEA3E0FF90060F1211B1E49041
:105B9700044CF090044CE0FBC39464506875F00427
:105BA700EBA42483F582E5F03404F583E0FCA3E05D
:105BB700FDA3E0FEA3E0FF75F004EBA4247FF582CC
:105BC700E5F03404F5831211B190044DE0FCA3E035
:105BD700FDA3E0FEA3E0FF90044CE075F004A424CD
:105BE7007FF582E5F03404F583E0F8A3E0F9A3E05C
:105BF700FAA3E0FB12080790044D1211B190044C70
:105C0700E004F0808EE4FBFA79C8784290044DE016
:0D5C1700FCA3E0FDA3E0FEA3E0FF120A01E4
:015C2400225D
:10641000120B4990044DEEF0A3EFF0FDAC06EC1228
:106420000B10900615E0F8A3E0F9A3E0FAA3E0FB57
:106430001208031283A37B177AB779D17838120A2E
:106440009E60054003D38001C34039900614E004E8
:10645000F07006900613E004F090044CE0FFD39037
:106460000614E09F900613E09400401FE4F0A3F0B0
:1064700090044DE0FCA3E0FDEC120B109006151209
:1064800011B18007E4900613F0A3F0900615E0FC2C
:09649000A3E0FDA3E0FEA3E0FF80
:0164990022E0
:104DB900AB07EB75F041A424C4F582E43406F5830E
:104DC9001211BD00000000EB75F041A424C8F58262
:104DD900E43406F5831211BD00000000EB75F041C3
:104DE900A424CCF582E43406F5831211BD00000039
:104DF90000EB75F041A424E0F582E43406F5831252
:104E090011BD00000000EB75F041A424DCF582E43B
:104E19003406F5831211BD0000000090099CE0FCE6
:104E2900A3E0FDA3E0FEA3E0FFEB75F041A424D0CD
:104E3900F582E43406F5831211B19009A0E0FCA3D0
:104E4900E0FDA3E0FEA3E0FFEB75F041A424D4F557
:104E590082E43406F5831211B19009A4E0FCA3E0C1
:104E6900FDA3E0FEA3E0FFEB75F041A424D8F58291
:104E7900E43406F5831211B1EB75F041A424D0F5A1
:104E890082E43406F583E0FCA3E0FDA3E0FEA3E0A1
:104E9900FFEB75F041A424E8F582E43406F58312AA
:104EA90011B1EB75F041A424D4F582E43406F583FD
:104EB900E0FCA3E0FDA3E0FEA3E0FFEB75F041A455
:104EC90024E4F582E43406F5831211B1EB75F0415F
:104ED900A424D8F582E43406F583E0FCA3E0FDA31D
:104EE900E0FEA3E0FFEB75F041A424ECF582E43485
:064EF90006F5830211B171
:1081C700EF75F041A424FCF582E43406F5837401CD
:0281D700F02294
:10825700EF75F041A424FCF582E43406F583E4F0DD
:0182670022F4
:103EF900900A6DEFF075F041A424FCF582E43406D4
:103F0900F583E070030240D3900A6DE0FF75F0413C
:103F1900A424C0F582E43406F583E0F8A3E0F9A30C
:103F2900E0FAA3E0FBEF75F041A424BCF582E43488
:103F390006F583E0FCA3E0FDA3E0FEA3E0FF120881
:103F490003900A6DE0FB75F041A424C4F582E434C2
:103F590006F5831211B1EB75F041A424DCF582E476
:103F69003406F583C083C082E0FCA3E0FDA3E0FE34
:103F7900A3E0FF900A6DE075F041A424C4F582E442
:103F89003406F583E0F8A3E0F9A3E0FAA3E0FB1215
:103F99000807D082D0831211B1900A6DE0FF75F045
:103FA90041A424DCF582E43406F583E0F8A3E0F9C2
:103FB900A3E0FAA3E0FBEF75F041A424D4F582E471
:103FC9003406F583E0FCA3E0FDA3E0FEA3E0FF12C5
:103FD90008F8C004C005C006C007900A6DE0FF7567
:103FE900F041A424C4F582E43406F583E0F8A3E0A3
:103FF900F9A3E0FAA3E0FBEF75F041A424D0F58220
:10400900E43406F583E0FCA3E0FDA3E0FEA3E0FFB2
:104019001208F8D003D002D001D000120807C0045A
:10402900C005C006C007900A6DE0FF75F041A424E1
:10403900C8F582E43406F583E0F8A3E0F9A3E0FAD1
:10404900A3E0FBEF75F041A424C4F582E43406F53E
:1040590083E0FCA3E0FDA3E0FEA3E0FF12080390C8
:104069000A6DE075F041A424D8F582E43406F5839D
:10407900E0F8A3E0F9A3E0FAA3E0FB1208F8D00303
:10408900D002D001D000120807900A6DE0FB75F04C
:1040990041A424E0F582E43406F5831211B1EB75ED
:1040A900F041A424C4F582E43406F583E0FCA3E0DE
:1040B900FDA3E0FEA3E0FFEB75F041A424C8F5825F
:0C40C900E43406F5831211B1D322C322A7
:053CB300900A4EEFF045
:103CB800E0FF75F041A424C0F582E43406F583E002
:103CC800F8A3E0F9A3E0FAA3E0FBEF75F041A42420
:103CD800BCF582E43406F583E0FCA3E0FDA3E0FE36
:103CE800A3E0FF120803900A4EE0FB75F041A424FC
:103CF800C4F582E43406F5831211B1EB75F041A4E2
:103D080024FCF582E43406F583E07003023EF7EB09
:103D180075F041A424F8F582E43406F583E0FCA3A9
:103D2800E0FDA3E0FEA3E0FFEB75F041A424C4F599
:103D380082E43406F583E0F8A3E0F9A3E0FAA3E00F
:103D4800FB120A9E600B4009E4900A4FF0A3F08032
:103D58004E900A4FE4F0A304F0900A4EE075F0414B
:103D6800A424DCF582E43406F583C083C082E0FC39
:103D7800A3E0FDA3E0FEA3E0FF900A4EE075F0414A
:103D8800A424C4F582E43406F583E0F8A3E0F9A39B
:103D9800E0FAA3E0FB120807D082D0831211B19099
:103DA8000A4EE0FF75F041A424DCF582E43406F500
:103DB80083E0F8A3E0F9A3E0FAA3E0FBEF75F04194
:103DC800A424D4F582E43406F583E0FCA3E0FDA343
:103DD800E0FEA3E0FF1208F8C004C005C006C00753
:103DE800900A4FE0FCA3E0FDE4120B10D003D002D0
:103DF800D001D0001208F8C004C005C006C0079062
:103E08000A4EE0FF75F041A424C4F582E43406F5B7
:103E180083E0F8A3E0F9A3E0FAA3E0FBEF75F04133
:103E2800A424D0F582E43406F583E0FCA3E0FDA3E6
:103E3800E0FEA3E0FF1208F8D003D002D001D000C2
:103E4800120807C004C005C006C007900A4EE0FF6C
:103E580075F041A424C8F582E43406F583E0F8A39C
:103E6800E0F9A3E0FAA3E0FBEF75F041A424C4F560
:103E780082E43406F583E0FCA3E0FDA3E0FEA3E0C2
:103E8800FF120803900A4EE075F041A424D8F58289
:103E9800E43406F583E0F8A3E0F9A3E0FAA3E0FB35
:103EA8001208F8D003D002D001D000120807900AF7
:103EB8004EE0FB75F041A424E0F582E43406F58376
:103EC8001211B1EB75F041A424C4F582E43406F56F
:103ED80083E0FCA3E0FDA3E0FEA3E0FFEB75F04167
:103EE800A424C8F582E43406F5831211B1D322C3A1
:013EF80022A7
:0526D500900A51EFF036
:1026DA00E0FF75F041A424C0F582E43406F583E0F6
:1026EA00F8A3E0F9A3E0FAA3E0FBEF75F041A42414
:1026FA00BCF582E43406F583E0FCA3E0FDA3E0FE2A
:10270A00A3E0FF120803900A51E0FB75F041A424EC
:10271A00C4F582E43406F5831211B1EB75F041A4D5
:10272A0024FCF582E43406F583E07003022AABEB5D
:10273A0075F041A424F0F582E43406F583E0FCA3A5
:10274A00E0FDA3E0FEA3E0FFEB75F041A424C0F591
:10275A0082E43406F583E0F8A3E0F9A3E0FAA3E003
:10276A00FB120A9E600250030227F9900A51E07593
:10277A00F041A424C4F582E43406F583E0FCA3E026
:10278A00FDA3E0FEA3E0FF120B491283BCAC06AD29
:10279A0007EC120B10900A51E075F041A424F8F5E9
:1027AA0082E43406F583E0F8A3E0F9A3E0FAA3E0B3
:1027BA00FB120A9E5003022904900A52E4F0A30471
:1027CA00F0900A51E075F041A424C4F582E434067D
:1027DA00F583E0FCA3E0FDA3E0FEA3E0FFE4FBFA3F
:1027EA00F9F8120A9E6002500302295B0229159029
:1027FA000A51E0FF75F041A424F0F582E43406F5AD
:10280A0083E0F8A3E0F9A3E0FAA3E0FBEF75F04157
:10281A00A424C0F582E43406F583E0FCA3E0FDA31A
:10282A00E0FEA3E0FF120A9E600250030228B9905C
:10283A000A51E075F041A424C4F582E43406F58314
:10284A00E0FCA3E0FDA3E0FEA3E0FF120B49128324
:10285A00BCAC06AD07EC120B10900A51E075F041C2
:10286A00A424F8F582E43406F583E0F8A3E0F9A39A
:10287A00E0FAA3E0FB120A9E5002807E900A52E41C
:10288A00F0A304F0900A51E075F041A424C4F58243
:10289A00E43406F583E0FCA3E0FDA3E0FEA3E0FF39
:1028AA00E4FBFAF9F8120A9E400302295B805C9065
:1028BA000A51E075F041A424C4F582E43406F58394
:1028CA00E0FCA3E0FDA3E0FEA3E0FF120B491283A4
:1028DA00BCAC06AD07EC120B10900A51E075F04142
:1028EA00A424F8F582E43406F583E0F8A3E0F9A31A
:1028FA00E0FAA3E0FB120A9E5009E4900A52F0A300
:10290A00F0804E900A52E4F0A304F0900A51E07568
:10291A00F041A424DCF582E43406F583C083C08246
:10292A00E0FCA3E0FDA3E0FEA3E0FF900A51E075FE
:10293A00F041A424C4F582E43406F583E0F8A3E068
:10294A00F9A3E0FAA3E0FB120807D082D0831211A0
:10295A00B1900A51E0FF75F041A424DCF582E43419
:10296A0006F583E0F8A3E0F9A3E0FAA3E0FBEF752C
:10297A00F041A424D4F582E43406F583E0FCA3E014
:10298A00FDA3E0FEA3E0FF1208F8C004C005C006DC
:10299A00C007900A52E0FCA3E0FDE4120B10D0033A
:1029AA00D002D001D0001208F8C004C005C006C089
:1029BA0007900A51E0FF75F041A424C4F582E4347B
:1029CA0006F583E0F8A3E0F9A3E0FAA3E0FBEF75CC
:1029DA00F041A424D0F582E43406F583E0FCA3E0B8
:1029EA00FDA3E0FEA3E0FF1208F8D003D002D00155
:1029FA00D000120807C004C005C006C007900A51DB
:102A0A00E0FF75F041A424C8F582E43406F583E0BA
:102A1A00F8A3E0F9A3E0FAA3E0FBEF75F041A424E0
:102A2A00C4F582E43406F583E0FCA3E0FDA3E0FEEE
:102A3A00A3E0FF120803900A51E075F041A424D8DC
:102A4A00F582E43406F583E0F8A3E0F9A3E0FAA3FB
:102A5A00E0FB1208F8D003D002D001D00012080718
:102A6A00900A51E0FB75F041A424E0F582E43406B3
:102A7A00F5831211B1EB75F041A424C4F582E43454
:102A8A0006F583E0FCA3E0FDA3E0FEA3E0FFEB75FF
:102A9A00F041A424C8F582E43406F5831211B1D3B7
:022AAA0022C345
:012AAC002207
:0522F400900A54EFF018
:1022F900E0FF75F041A424C0F582E43406F583E0DB
:10230900F8A3E0F9A3E0FAA3E0FBEF75F041A424F8
:10231900BCF582E43406F583E0FCA3E0FDA3E0FE0E
:10232900A3E0FF120803900A54E0FB75F041A424CE
:10233900C4F582E43406F5831211B1EB75F041A4BA
:1023490024FCF582E43406F583E070030226D3EB1E
:1023590075F041A424F0F582E43406F583E0FCA38A
:10236900E0FDA3E0FEA3E0FFEB75F041A424C0F576
:1023790082E43406F583E0F8A3E0F9A3E0FAA3E0E8
:10238900FB120A9E60025003022418900A54E07559
:10239900F041A424C4F582E43406F583E0FCA3E00B
:1023A900FDA3E0FEA3E0FF120B491283BCAC06AD0E
:1023B90007EC120B10900A54E075F041A424F8F5CB
:1023C90082E43406F583E0F8A3E0F9A3E0FAA3E098
:1023D900FB120A9E5003022523900A55E4F0A30438
:1023E900F0900A54E075F041A424C4F582E434065F
:1023F900F583E0FCA3E0FDA3E0FEA3E0FFE4FBFA24
:10240900F9F8120A9E6002500302257A02253490D7
:102419000A54E0FF75F041A424F0F582E43406F58E
:1024290083E0F8A3E0F9A3E0FAA3E0FBEF75F0413C
:10243900A424C0F582E43406F583E0FCA3E0FDA3FF
:10244900E0FEA3E0FF120A9E600250030224D89026
:102459000A54E075F041A424C4F582E43406F583F6
:10246900E0FCA3E0FDA3E0FEA3E0FF120B49128309
:10247900BCAC06AD07EC120B10900A54E075F041A4
:10248900A424F8F582E43406F583E0F8A3E0F9A37F
:10249900E0FAA3E0FB120A9E5002807E900A55E4FE
:1024A900F0A304F0900A54E075F041A424C4F58225
:1024B900E43406F583E0FCA3E0FDA3E0FEA3E0FF1E
:1024C900E4FBFAF9F8120A9E400302257A805C902F
:1024D9000A54E075F041A424C4F582E43406F58376
:1024E900E0FCA3E0FDA3E0FEA3E0FF120B49128389
:1024F900BCAC06AD07EC120B10900A54E075F04124
:10250900A424F8F582E43406F583E0F8A3E0F9A3FE
:10251900E0FAA3E0FB120A9E5009E4900A55F0A3E1
:10252900F0804E900A55E4F0A304F0900A54E07547
:10253900F041A424DCF582E43406F583C083C0822B
:10254900E0FCA3E0FDA3E0FEA3E0FF900A54E075E0
:10255900F041A424C4F582E43406F583E0F8A3E04D
:10256900F9A3E0FAA3E0FB120807D082D083121185
:10257900B1900A54E0FF75F041A424DCF582E434FB
:1025890006F583E0F8A3E0F9A3E0FAA3E0FBEF7511
:10259900F041A424D4F582E43406F583E0FCA3E0F9
:1025A900FDA3E0FEA3E0FF1208F8C004C005C006C1
:1025B900C007900A55E0FCA3E0FDE4120B10D0031C
:1025C900D002D001D0001208F8E4FBFAF9784012E1
:1025D9000A01C004C005C006C007900A54E0FF758F
:1025E900F041A424C4F582E43406F583E0F8A3E0BD
:1025F900F9A3E0FAA3E0FBEF75F041A424D0F5823A
:10260900E43406F583E0FCA3E0FDA3E0FEA3E0FFCC
:102619001208F8D003D002D001D000120807C00474
:10262900C005C006C007900A54E0FF75F041A42414
:10263900C8F582E43406F583E0F8A3E0F9A3E0FAEB
:10264900A3E0FBEF75F041A424C4F582E43406F558
:1026590083E0FCA3E0FDA3E0FEA3E0FF12080390E2
:102669000A54E075F041A424D8F582E43406F583D0
:10267900E0F8A3E0F9A3E0FAA3E0FB1208F8D0031D
:10268900D002D001D000120807900A54E0FB75F07F
:1026990041A424E0F582E43406F5831211B1EB7507
:1026A900F041A424C4F582E43406F583E0FCA3E0F8
:1026B900FDA3E0FEA3E0FFEB75F041A424C8F58279
:0B26C900E43406F5831211B1D322C3E4
:0126D40022E3
:10463800900A6EEFF075F041A424FCF582E434068C
:10464800F583E070030247D6900A6EE0FF75F041EB
:10465800A424C0F582E43406F583E0F8A3E0F9A3C6
:10466800E0FAA3E0FBEF75F041A424BCF582E43442
:1046780006F583E0FCA3E0FDA3E0FEA3E0FF12083B
:1046880003900A6EE0FB75F041A424C4F582E4347B
:1046980006F5831211B1EB75F041A424C8F582E444
:1046A8003406F583E0FCA3E0FDA3E0FEA3E0FFEB06
:1046B80075F041A424D4F582E43406F583E0F8A328
:1046C800E0F9A3E0FAA3E0FB1208F8C004C005C0B3
:1046D80006C007900A6EE0FF75F041A424C4F58275
:1046E800E43406F583E0F8A3E0F9A3E0FAA3E0FBDD
:1046F800EF75F041A424D0F582E43406F583E0FC9C
:10470800A3E0FDA3E0FEA3E0FF1208F8D003D00267
:10471800D001D000120803C004C005C006C007902D
:104728000A6EE0FF75F041A424CCF582E43406F566
:1047380083E0F8A3E0F9A3E0FAA3E0FBEF75F0410A
:10474800A424D8F582E43406F583E0FCA3E0FDA3B5
:10475800E0FEA3E0FF1208F8D003D002D001D00099
:10476800120807900A6EE0FB75F041A424E0F58278
:10477800E43406F5831211B1EB75F041A424C8F5B1
:1047880082E43406F583E0FCA3E0FDA3E0FEA3E0A9
:10479800FFEB75F041A424CCF582E43406F58312CE
:1047A80011B1EB75F041A424C4F582E43406F58315
:1047B800E0FCA3E0FDA3E0FEA3E0FFEB75F041A45D
:1047C80024C8F582E43406F5831211B1D322C3223A
:1079FD00AB07900A0CE0FCA3E0FDA3E0FEA3E0FFC3
:107A0D00EB75F041A424F4F582E43406F5830211FC
:017A1D00B1B7
:107A1E00AB07900A11E0FCA3E0FDA3E0FEA3E0FF9C
:107A2E00EB75F041A424F0F582E43406F5830211DF
:017A3E00B196
:107A3F00AB07900A16E0FCA3E0FDA3E0FEA3E0FF76
:107A4F00EB75F041A424C0F582E43406F5830211EE
:017A5F00B175
:107A6000AB07900A1BE0FCA3E0FDA3E0FEA3E0FF50
:107A7000EB75F041A424D4F582E43406F5830211B9
:017A8000B154
:107A8100AB07900A20E0FCA3E0FDA3E0FEA3E0FF2A
:107A9100EB75F041A424D0F582E43406F58302119C
:017AA100B133
:107AA200AB07900A25E0FCA3E0FDA3E0FEA3E0FF04
:107AB200EB75F041A424D8F582E43406F583021173
:017AC200B112
:107AC300AB07900A2AE0FCA3E0FDA3E0FEA3E0FFDE
:107AD300EB75F041A424BCF582E43406F58302116E
:017AE300B1F1
:107E7000EF75F041A424BCF582E43406F583E0FC00
:0A7E8000A3E0FDA3E0FEA3E0FF2253
:107E8A00EF75F041A424C4F582E43406F583E0FCDE
:0A7E9A00A3E0FDA3E0FEA3E0FF2239
:107EA400EF75F041A424C8F582E43406F583E0FCC0
:0A7EB400A3E0FDA3E0FEA3E0FF221F
:107EBE00EF75F041A424D0F582E43406F583E0FC9E
:0A7ECE00A3E0FDA3E0FEA3E0FF2205
:107ED800EF75F041A424D4F582E43406F583E0FC80
:0A7EE800A3E0FDA3E0FEA3E0FF22EB
:107EF200EF75F041A424D8F582E43406F583E0FC62
:0A7F0200A3E0FDA3E0FEA3E0FF22D0
:107F0C00EF75F041A424E0F582E43406F583E0FC3F
:0A7F1C00A3E0FDA3E0FEA3E0FF22B6
:107F2600EF75F041A424DCF582E43406F583E0FC29
:0A7F3600A3E0FDA3E0FEA3E0FF229C
:107AE400AB07900A2FE0FCA3E0FDA3E0FEA3E0FFB8
:107AF400EB75F041A424F8F582E43406F583021111
:017B0400B1CF
:10714F00900A6FEFF075F041A424FCF582E4340649
:10715F00F583E0602FED24FE601214601714601C9D
:10716F0024047020900A6FE0FF023EF9900A6FE04E
:10717F00FF023CB3900A6FE0FF0226D5900A6FE042
:05718F00FF1222F422B2
:10801000EF75F041A424FCF582E43406F583E060BA
:0980200007ED147003124638222A
:10594100602A08450000000000000000000000007F
:105951000000000000000000000000000000000046
:0E596100000000000000000000000000000038
:105D8200900454EBF0A3EAF0A3E9F0900003120EA2
:105D92008BFF900450E0FBA3E0FAA3E0F9A3E0FE3E
:105DA200F582758300EF120ECA900454E0FBA3E063
:105DB200FAA3E0F9900002120E8BFFEE2401FDE43B
:105DC20033FC900450E0FBA3E0FAA3E0F98D828C4F
:105DD20083EF120ECA900454E0FBA3E0FAA3E0F9A9
:105DE200900001120E8BFFEE2402FDE433FC9004BE
:105DF20050E0FBA3E0FAA3E0F98D828C83EF120E50
:105E0200CA900454E0FBA3E0FAA3E0F9120E72FF79
:105E1200EE2403FDE433FC900450E0FBA3E0FAA37C
:0A5E2200E0F98D828C83EF020ECAB6
:05762900900448EFF0A1
:10762E00E4A3F0900448E0FF125E2C900449E0FEC3
:10763E00C39F501774452EF582E43408F583E0FF9E
:0B764E001278B1900449E004F080D8ED
:01765900220E
:1052B5009004481211B190044CE0FFD3940A4003C6
:1052C5000253E8EF70030253E8EF14B40A004003F9
:1052D5000253E89052E675F003A4C58325F0C58313
:1052E5007302530402531A02533102534802535FA7
:1052F50002537502538B0253A10253B70253CD904B
:1053050004507401F0A37408F0A37445F0A374016C
:10531500F0FB0253E19004507401F0A37408F0A36C
:105325007445F0A37405F07B010253E190045074B9
:1053350001F0A37408F0A37445F0A37409F07B0190
:105345000253E19004507401F0A37408F0A374456E
:10535500F0A3740DF07B010253E19004507401F049
:10536500A37408F0A37445F0A37411F07B01806C5D
:105375009004507401F0A37408F0A37445F0A3746D
:1053850015F07B0180569004507401F0A37408F069
:10539500A37445F0A37419F07B0180409004507408
:1053A50001F0A37408F0A37445F0A3741DF07B010C
:1053B500802A9004507401F0A37408F0A37445F09A
:1053C500A37421F07B0180149004507401F0A37440
:1053D50008F0A37445F0A37425F07B017A0479489D
:0453E500125D8222B1
:105E2C00EFD3940A5003EF70037F0022900845745F
:105E3C0024F0EF14B40A004003025ECE905E567557
:105E4C00F003A4C58325F0C58373025E74025E7DE6
:105E5C00025E86025E8F025E98025EA1025EAA025C
:105E6C005EB3025EBC025EC590084A7405F07F0604
:105E7C002290084E7409F07F0A22900852740DF09B
:105E8C007F0E229008567411F07F122290085A74DB
:105E9C0015F07F162290085E7419F07F1A22900874
:105EAC0062741DF07F1E229008667421F07F2222FE
:105EBC0090086A7425F07F262290086E7429F07F72
:055ECC002A227F0022E4
:10596F0050095D0000000000000000000000000072
:03597F0000000025
:10805B00E4900290F0A37407F07B017A0279907F91
:07806B00041244740276BB0D
:107E1F00745D2FF582E43409F583E0FE745D2FF570
:0A7E2F0082E43409F583E4F0AF06A5
:017E39002226
:1074B60012517A900321EFF0D39400402AE0245C25
:1074C600F582E43409F5837401F012517AEF60080D
:1074D60012517AEF601180F8900321E0245CF58266
:0774E600E43409F583E4F032
:0174ED00227C
:1037F70020252034640020252034660000000000C6
:1038070000000000004F0000000007000700001440
:103817007F147F1400242A7F2A120023130864626E
:1038270000364955225000000503000000001C2205
:103837004100000041221C000014083E0814000843
:10384700083E080800005030000000080808080873
:10385700000060600000002010080402003E51498B
:10386700453E0000427F4000004261514946002129
:1038770041454B31001814127F1000274545453943
:10388700003C4A494930000171090503003649499E
:10389700493600064949291E000036360000000057
:1038A70056360000000814224100001414141414A2
:1038B700000041221408000201510906003249792B
:1038C700413E007E1111117E007F4949493E003E6D
:1038D70041414122007F4141221C007F4949494122
:1038E700007F09090901003E4149497A007F08081C
:1038F700087F0000417F4100002040413F01007FD9
:1039070008142241007F40404040007F0204027FAC
:10391700007F0408107F003E4141413E007F0909B6
:103927000906003E4151215E007F091929460046DC
:10393700494949310001017F0101003F4040403FB3
:10394700001F2040201F003F4038403F00631408FD
:1039570014630003047804030061514945430000E0
:103967007F4141000015167C1615000041417F007C
:1039770000040201020400404040404000000102F0
:103987000400002054545478007F484444380038D9
:103997004444442000384444487F00385454541861
:1039A70000087E090102000C5252523E007F0804B3
:1039B70004780000447D4000002040443D00007F23
:1039C700102844000000417F4000007E020C027C6A
:1039D700007E0402027C003844444438007C1414FE
:1039E700140800081414187C007C08040408004814
:1039F7005454542000043F444020003C4040207C65
:103A0700001C2040201C003C4030403C0044281053
:103A17002844000C5050503C004464544C4400006F
:103A2700083641000000007F000000004136080012
:103A37000008040810080008082A1C0800081C2AA7
:103A470008080004027F02040010207F2010001CD9
:0A3A57002A322A1C001C2244221C03
:107B8900C2C9ED24FF92CA7E08EF30E704D2CB8048
:0F7B990002C2CBC2CCEF25E0FFD2CCDEECD2C9CA
:017BA80022BA
:107B0500E4FD7F80127B897F40127B897BF87A01B7
:107B15007D01E4FF127B89EB1B70011AEB4A70F0C3
:017B2500223D
:10815600AD07E4FF1280DF7C547D01E4FF127B89CA
:02816600DCF744
:0181680022F4
:1080DF00AC05EF4480FFEC4440FCE4FD127B89AF1C
:0480EF0004027B8983
:07731700E0FF04F0A3E0FD1C
:10731E0074E02BFBEF75F006A4FF1280DFE4FC7522
:10732E00F006EBA42403F582E5F03438F583E5820C
:10733E002CF582E43583F583E493FF7D01127B897E
:05734E000CECB406DAAE
:017353002217
:1073CC00900A33EFF0A3EDF0A3EBF0A3EAF0A3E9FE
:1073DC00F0900A35E0FBA3E0FAA3E0F9120E72FB81
:1073EC006018900A33E0C3940E500F127317900A72
:0B73FC0036E475F001120F5380D72219
:096E0D00FDE0FBA3E0FAA3E0F9AB
:106E160090032AEFF0A3EDF0A3EBF0A3EAF0A3E9C9
:106E2600F090032CE0FBA3E0FAA3E0F9120E72FB4C
:106E3600602890032A12731790032DE475F001124F
:106E46000F5390032AE0B40E06E4F0A3E004F0909A
:0B6E5600032BE0B406CBE4F080C72261
:0E6AB6009002C0EFF0A3EDF0A3EAF0A3EBF026
:106AC400A3E02402FFE433FE1256CFAA06A9077BF3
:106AD400019002C5EBF0A3EAF0A3E9F09002CB74B5
:106AE400FFF0A37437F0A374F7F09002C2E0FFA3A1
:106AF400E09002CECFF0A3EFF0121ED69002C0E0D9
:106B0400FFA3E09002C5126E0D9002C5A3E0FAA3A4
:076B1400E0AE02FF024EFF9C
:08689A009009A8EFF0A3EDF056
:1068A2009009AFE0FF9009AEE02FFFE433CF24035D
:1068B200CF3400FE1256CFAA06A9077B019009B079
:1068C200EBF0A3EAF0A3E9F09002CB74FFF0A3741B
:1068D20037F0A374FDF09009AAE0FCA3E0FDA3E069
:1068E200FEA3E0FF9002CE1211B1121ED69009A8AB
:1068F200E0FFA3E09009B0126E0D9009B0A3E0FA98
:08690200A3E0AE02FF024EFF0C
:1071D800E4900290F0A304F0FB7A0279907F051204
:1071E8004474C2C8D2C8E4FD7F21127B897F06128D
:1071F8007B897F13127B897FC8127B897F20127B52
:10720800897F0C127B897F40127B897F80127B8962
:03721800027B05F1
:02598200C10F53
:10779B009002917405F0E4900290F07B017A0279EB
:1077AB00907F051244741284AB7FC812832212841B
:0777BB00B07FC8128322D346
:0177C20022A4
:0584AB00C2CDD20F223A
:0584B000D2CDC20F2235
:1079DB00900290EFF0900290E0FF14F0EF60121223
:1079EB0084AB7FC81283221284B07FC8128322809B
:0279FB00E42284
:0384BE00A20F22E8
:06847B00900A70EFF022F0
:1061D400900A38EFF07F337E337D737C3FA3E0F881
:1061E400A3E0F9A3E0FAA3E0FB120A9E600C400AC4
:1061F400900A391211BD3F7333337FCD7ECC7D4C71
:106204007C3D900A39E0F8A3E0F9A3E0FAA3E0FBAF
:10621400120A9E500A900A391211BD3D4CCCCD9001
:106224000A38E02404FFC007A3E0FCA3E0FDA3E0D8
:10623400FEA3E0FF900A3E1211B1D0071255EB9075
:106244000A39E0FCA3E0FDA3E0FEA3E0FF120B4942
:10625400900A38E025E02443F582E4340AF583EF1C
:02626400F02226
:107CE100900A71EFF02404FF1277C3900A71E02526
:0E7CF100E02442F582E4340AF5837401F022A7
:107D3B00900A72EFF02404FF12794A900A72E02540
:0D7D4B00E02442F582E4340AF583E4F022DE
:10831200EF25E02442F582E4340AF583E024FF22CB
:10697900E490094BF0A37408F07B017A09794B7F05
:106989000212447490094C7404F07B017A09794B22
:106999007F02124474D2A2D2A343BA80E490094D73
:1069A900F0A3F0A3F0A304F0E4A3F0A3F0A3F0A3F1
:1069B900F0A3F0A3F0A3F0A3F0A3F0A3F0A3F0A336
:1069C900F07B017A09794D7F02122AAD7B017A09A0
:0A69D900794D7F03122AAD53BA7FF7
:0169E3002291
:0540D50090086FEFF000
:1040DA00E490087EF0A37480F07B017A08797E7FF1
:1040EA0003124474D2B743BA80E4900880F0A3F074
:1040FA00A3F0A304F0E4A3F0A3F0A3F0A3F0A3F0C9
:10410A00A3F0A3740FF0E4A3F0A3F0A3F0A3F0A329
:10411A00F090086FE0FF7B017A087980122AAD538C
:10412A00BA7F90086FE0FF7D101282DF90086FE07F
:10413A00FF7D327C00126C45900870E0FCA3E0FD24
:10414A00A3E0FEA3E0FF90086FE0FB75F025A4242E
:10415A0096F582E43407F5831211B1900874E0FCF5
:10416A00A3E0FDA3E0FEA3E0FFEB75F025A4249AEB
:10417A00F582E43407F5831211B1900878E0FCA3C4
:10418A00E0FDA3E0FEA3E0FFEB75F025A424A8F56B
:10419A0082E43407F5831211B190087CE0FEA3E0B3
:1041AA00FFEB75F025A424A2F582E43407F583EE2B
:1041BA00F0A3EFF0EB75F025A42496F582E434071A
:1041CA00F583E0F8A3E0F9A3E0FAA3E0FB90086F17
:1041DA00E075F025A4249AF582E43407F583E0FC1F
:1041EA00A3E0FDA3E0FEA3E0FF120803C004C0059C
:1041FA00C006C00790086FE075F025A424A2F582D6
:10420A00E43407F583E0FCA3E0FDE4120B10A804F4
:10421A00A905AA06AB07D007D006D005D004120A12
:10422A000190086FE0FB75F025A4249EF582E43422
:10423A0007F5831211B1EB75F025A424A2F582E4E7
:10424A003407F583E0FCA3E0FDE4120B10A804A9EF
:10425A0005AA06AB0790086FE075F025A424A8F517
:10426A0082E43407F583E0FCA3E0FDA3E0FEA3E0CB
:10427A00FF120A0190086FE0FB75F025A424ACF543
:10428A0082E43407F5831211B1EB75F025A424A456
:0E429A00F582E43407F5831211BD0000000028
:0142A80022F3
:0553E9009009BDEFF08A
:1053EE00A3E0FCA3E0FDA3E0FEA3E0FF9009BDE077
:1053FE00FB75F025A42491F582E43407F583121190
:10540E00B1EB75F025A424ACF582E43407F583E006
:10541E00F8A3E0F9A3E0FAA3E0FB9009BEE0FCA339
:10542E00E0FDA3E0FEA3E0FF120A019009BDE075C6
:10543E00F025A4249EF582E43407F583E0F8A3E07A
:10544E00F9A3E0FAA3E0FB1208F89009BDE075F0AD
:10545E0025A42496F582E43407F583E0F8A3E0F959
:10546E00A3E0FAA3E0FB1208079009BDE0FB75F07C
:10547E0025A424B2F582E43407F5831211B1EB753D
:10548E00F025A424B2F582E43407F583E0FCA3E012
:10549E00FDA3E0FEA3E0FFE4FBFA79A07841120A37
:1054AE00019009C21211B19009C2E0FCA3E0FDA364
:1054BE00E0FEA3E0FF900A3E1211B19009BDE0FF9D
:1054CE001255EB9009BDE0FB75F025A42491F582F1
:1054DE00E43407F583E0FCA3E0FDA3E0FEA3E0FFC8
:1054EE00EB75F025A424A4F582E43407F5830211AC
:0154FE00B1FC
:107F4000EF75F025A424A4F582E43407F583E0FC62
:0A7F5000A3E0FDA3E0FEA3E0FF2282
:107BA900900A73EFF01277C3900A73E075F025A479
:107BB90024B0F582E43407F583E4F0A304F0D3227A
:107C0800900A74EFF012794A900A74E075F025A48E
:0F7C180024B0F582E43407F583E4F0A3F0D3221F
:10792500C0079009D7E0FCA3E0FDA3E0FEA3E0FFBC
:1079350090046B1211B19009DBE0FCA3E0FDD007C8
:057945001254FFD322E3
:10586E009009DDEFF0C007E4FFFE7DB47C43A3E0BA
:10587E00F8A3E0F9A3E0FAA3E0FB1208F8C004C015
:10588E0005C006C0079009DDE075F00EA424B5F53D
:10589E0082E43408F583E0FCE4120B15D003D00249
:1058AE00D001D0001208F8C004C005C006C0079091
:1058BE0009DDE075F00EA424B9F582E43408F58311
:1058CE00E0FCA3E0FDA3E0FEA3E0FF7B567A0E7999
:1058DE004978401208F89009DDE075F00EA424B165
:1058EE00F582E43408F583E0F8A3E0F9A3E0FAA327
:1058FE00E0FB1208F8A804A905AA06AB07D007D04A
:10590E0006D005D004120A01120B499009D71211C4
:10591E00B19009E2E0FFA3E09009DBCFF0A3EFF036
:07592E00D007127925D322F6
:106B1B009009E4EFF0E0FEFFC00775F00EA424B57A
:106B2B00F582E43408F583E0FCE4120B159009E5DB
:106B3B00E0F8A3E0F9A3E0FAA3E0FB1208F8900950
:106B4B00E4E075F00EA424B1F582E43408F583E09B
:106B5B00F8A3E0F9A3E0FAA3E0FB120A01120B4938
:106B6B0090046B1211B19009E9E0FCA3E0FDD00792
:056B7B001254FFD322BB
:10747D00900A5DEAF0A3EBF0C007AE04AF057C0106
:10748D007D68120EECAC06AD07E4120B109009E509
:10749D001211B1900A5DE0FFA3E09009E9CFF0A3CE
:0974AD00EFF0D007126B1BD32293
:0F834100EF70069008BDEDF0229008CBEDF02212
:10826800EF75F00EA424BDF582E43408F583E0FF31
:0182780022E3
:107E3A00EF7009201004C2A78002D2A7EFB401098B
:0B7E4A00201004C2A58002D2A5D322A4
:107D5800900A75EFF0127D75900A75E075F00EA423
:0D7D680024BDF582E43408F5837401F02297
:10816900EF75F00EA424BDF582E43408F583E4F03C
:03817900027CFF86
:107DAF00EF7004C2A68002C2A4EF75F00EA424BD2A
:0C7DBF00F582E43408F5837401F0D3224F
:107DCB00EF7004D2A68002D2A4EF75F00EA424BDEE
:0C7DDB00F582E43408F5837402F0D32232
:055F740090098DEFF023
:105F7900E4900999F0A374F0F07B017A0979997F8B
:105F89000212447490098EE0FCA3E0FDA3E0FEA395
:105F9900E0FF90098DE0FB75F00EA424B1F582E4D1
:105FA9003408F5831211B1900992E0FFEB75F00EF8
:105FB900A424B5F582E43408F583EFF0900993E061
:105FC900FEA3E0FFEB75F00EA424B6F582E43408D5
:105FD900F583EEF0A3EFF0900995E0FCA3E0FDA3B3
:105FE900E0FEA3E0FFEB75F00EA424B9F582E434DA
:105FF90008F5831211B1EB75F00EA424BDF582E406
:0A6009003408F5837401F0027718E3
:107DE700900290EFF0A3EDF0A37401F0E4A3F0A3E9
:0C7DF700F0A3F07B017A027990026E612B
:10682100E490090EF0301162F0E4FF126CA69009B9
:106831000EE025E024FAF582E43408F583EEF0A3B6
:10684100EFF090090EE004F0E0C3940A40DB7B0115
:106851007A0879FA90044C1211BD4480000090042A
:10686100501211BD000000007D0A1242A99009C614
:106871001211B19009C6E0FCA3E0FDA3E0FEA3E084
:10688100FFA31211B19009C680039009CAE0FCA3CD
:08689100E0FDA3E0FEA3E0FF1F
:0168990022DC
:09840600900A5FEEF0A3EFF022F2
:09840F00900A61EEF0A3EFF022E7
:06848100900A76EFF022E4
:06848700900A77EFF022DD
:0859F9007F8A7D647C007E01C1
:105A0100900463ECF0A3EDF0900461EEF0FAA3EFE3
:025A1100F0FBA8
:105A1300A3E0FEA3E0FFAD03AC02120EECAC06ADB7
:105A230007E4120B10E4FBFA797A7844120A0112A4
:105A33000B49900465EEF0A3EFF0900463E0FEA33E
:105A4300E0FF7C007DFF120EFE900467EFF07F0104
:105A5300127D75900465E0FEA3E0FFE4FCFD900475
:105A63006B1211B1900461E0FCA3E0FD7F011254BD
:105A7300FF7F01127CFF900463E0FEA3E0FFC39469
:105A8300FFEE94005004AD078025900467E0FF14F7
:105A9300F0EF600CE4FBFA7DFF7F0212379880EA97
:105AA300900463E0FEA3E0FF7C007DFF120EFEE4A2
:075AB300FBFA7F0212379895
:015ABA0022C9
:107B26007D967C007F127E02125A017D967C007F34
:107B3600947E02125A017D967C007F147E03025ABF
:017B4600013D
:0B83C8007D967C007F127E02025A01AD
:107B47007D967C007F147E03125A017D967C007F10
:107B5700947E02125A017D967C007F127E02025AA1
:017B6700011C
:10796F001277187FBC1259FB1259F97D647C007F86
:10797F005E7E01125A011259F97D907C017F127EB1
:04798F0002025A0195
:105984004208D40000C10DC10E4208CC00004208F8
:0D599400D000004208CE00004208D2000002
:0A54FF00900469ECF0A3EDF0AB0798
:10550900E490046FF0A3F0900469E0FEA3E0FFEBE0
:1055190075F007A424DAF582E43408F583EEF0A3E4
:10552900EFF090046BE0FCA3E0FDA3E0FEA3E0FF35
:10553900EB75F007A424D6F582E43408F58312113B
:10554900B1EB704F900469E0FEA3E0FFD39414EE31
:105559009400403BAB07AA06E4F9F87F807E847D7E
:105569001EFC127194E47B02FAF9F8127194C3E4F7
:105579009FFFE49E900471F0A3EFF0C20D438F04E6
:10558900900471E0FCA3E0FDECF5D68DD78051D2F3
:105599000D804D900469E0FEA3E0FFD39414EE94CE
:1055A90000403BAB07AA06E4F9F87F807E847D1EA4
:1055B900FC127194E47B02FAF9F8127194C3E49F26
:1055C900FFE49E900471F0A3EFF0C20E43D1019065
:1055D9000471E0FCA3E0FDECF5D48DD58002D20E78
:0155E900D3EE
:0155EA00229E
:107CFF00EF75F007A424DCF582E43408F5837401F2
:0E7D0F00F0EF7005438E10800343D108D3229D
:107D7500EF7005538EEF800353D1F7EF75F007A42D
:0D7D850024DCF582E43408F583E4F0D32219
:1081D900EF75F007A424DCF582E43408F583E02484
:0281E900FF2273
:10771800E4900290F0A304F0FB7A0279907F0312C0
:1077280044749002917410F07B017A027990E4FF1E
:0C773800124474E49008DCF09008E3F0C8
:017744002222
:0300630002672B06
:10672B00C0E0C0F0C083C082C0D075D000C000C034
:10673B0001C002C003C004C005C006C007E47F024D
:10674B00FEFDFC9008D6E0F8A3E0F9A3E0FAA3E085
:10675B00FB120FE2C006C0079008CCE475F00112E3
:10676B000F53AFF0AB07FAE4F9F8D007D006C3121A
:10677B00110D400CE4FF127D759008CCE4F0A3F0F2
:10678B00D007D006D005D004D003D002D001D00062
:0B679B00D0D0D082D083D0F0D0E0320C
:03009B000267A653
:1067A600C0E0C0F0C083C082C0D075D000C000C0B9
:1067B60001C002C003C004C005C006C007E47F02D2
:1067C600FEFDFC9008DDE0F8A3E0F9A3E0FAA3E003
:1067D600FB120FE2C006C0079008CEE475F0011266
:1067E6000F53AFF0AB07FAE4F9F8D007D006C3129F
:1067F600110D400C7F01127D759008CEE4F0A3F0D8
:10680600D007D006D005D004D003D002D001D000E6
:0B681600D0D0D082D083D0F0D0E03290
:09841800D280C281C282D283220B
:09842100C280D281D282C2832202
:09842A00C280C281C282C2832219
:09843300D280C281C282C2832200
:09843C00C280D281C282C28322F7
:09844500D280C281D282C28322DE
:09844E00C280C281C282D28322E5
:09845700C280C281D282C28322DC
:09846000C280D281C282D28322C3
:0459A1004106250096
:10740700EF75F04BA4246EF582E43406F583E4F0BF
:10741700EF75F04BA4246FF582E43406F583E4F0AE
:10742700EF75F04BA42470F582E43406F583E4F09D
:0B7437007BFF7A1979D7AD07028301B3
:1081EB00EF75F04BA4246EF582E43406F58374012D
:0281FB00F02270
:10827900EF75F04BA4246EF582E43406F583E4F03F
:0182890022D2
:1081FD00EF75F04BA4246FF582E43406F58374011A
:02820D00F0225D
:10828A00EF75F04BA4246FF582E43406F583E4F02D
:01829A0022C1
:106F5700EF75F04BA42470F582E43406F583E06402
:106F6700017031EF75F04BA4242EF582E43406F559
:106F77008375F002ED1211EEE0FCA3E0FDEC120BBD
:106F870010E4FBFAF97847120A01E4FBFA798078F2
:0A6F9700410208F8E4FFFEFDFC22B1
:106FA100EF75F04BA42470F582E43406F583E064B8
:106FB100017031EF75F04BA42436F582E43406F507
:106FC1008375F002ED1211EEE0FCA3E0FDEC120B73
:106FD10010E4FBFAF97847120A01E4FBFA79FA782E
:0A6FE100440208F8E4FFFEFDFC2264
:1075F700EF75F04BA4243EF582E43406F58375F06D
:1076070002ED1211EEE0FCA3E0FDEC120B10E4FB1F
:10761700FAF97847120A01E4FBFA79347843120839
:02762700F82247
:1074EE00EF75F04BA42470F582E43406F583E0B416
:1074FE00011EEF75F04BA42446F582E43406F583A5
:10750E0075F002ED1211EEE0FCA3E0FDEC020B10A3
:06751E00E4FFFEFDFC226B
:106141009009F9EBF0A3EAF0A3E9F0A3E0FBA3E0E7
:10615100FAA3E0F9900003120E8BFF9009F9E0FB1E
:10616100A3E0FAA3E0F9EF120EB89009FCE0FBA35B
:10617100E0FAA3E0F9900002120E8BFF9009F9E01A
:10618100FBA3E0FAA3E0F9900001EF120ECA900917
:10619100FCE0FBA3E0FAA3E0F9900001120E8BFFF3
:1061A1009009F9E0FBA3E0FAA3E0F9900002EF12F5
:1061B1000ECA9009FCE0FBA3E0FAA3E0F9120E720B
:1061C100FF9009F9E0FBA3E0FAA3E0F9900003EFE7
:0361D100020ECAF1
:0519D700900817EFF07D
:1019DC0075F04BA4246EF582E43406F583E07003B5
:1019EC00021E70900817E0FF75F04BA4246FF5826F
:1019FC00E43406F583E07003021E70EF75F04BA41F
:101A0C002470F582E43406F583E4F090001CE06465
:101A1C0055600AE4900004F0900625F02290000432
:101A2C00E0FF241CF582E43400F583E0FE74192FEA
:101A3C00F582E43406F583EEF0900004E0C3940BD9
:101A4C005003021E7090061AE024B0B40900400343
:101A5C00021E53901A6D75F003A4C58325F0C5833F
:101A6C0073021A88021B28021B88021BE8021C68DE
:101A7C00021CE7021D6E021DB6021DEB90061BE058
:101A8C00FF900817E0FE75F04BA42426F582E43491
:101A9C0006F583EFF090061CE0FFEE75F04BA424E6
:101AAC0027F582E43406F583EFF090061DE0FFEE97
:101ABC0075F04BA42428F582E43406F583EFF090FE
:101ACC00061EE0FFEE75F04BA42429F582E43406E3
:101ADC00F583EFF090061FE0FFEE75F04BA4242A7F
:101AEC00F582E43406F583EFF0900620E0FFEE7506
:101AFC00F04BA4242BF582E43406F583EFF090062A
:101B0C0022E0FE900621E0FDEDFF900817E075F055
:101B1C004BA4242CF582E43406021D6490061CE0D0
:101B2C00FE90061BE0FDEDFF900817E0FD75F04BF5
:101B3C00A4242EF582E43406F583EEF0A3EFF090A6
:101B4C00061EE0FE90061DE0FBEBFFED75F04BA4CE
:101B5C002430F582E43406F583EEF0A3EFF0900622
:101B6C0020E0FE90061FE0FDEDFF900817E075F0F9
:101B7C004BA42432F582E43406021D6490061CE06A
:101B8C00FE90061BE0FDEDFF900817E0FD75F04B95
:101B9C00A42436F582E43406F583EEF0A3EFF0903E
:101BAC00061EE0FE90061DE0FBEBFFED75F04BA46E
:101BBC002438F582E43406F583EEF0A3EFF09006BA
:101BCC0020E0FE90061FE0FDEDFF900817E075F099
:101BDC004BA4243AF582E43406021D6490061CE002
:101BEC00FE90061BE0FDEDFF900817E0FD75F04B35
:101BFC00A4243EF582E43406F583EEF0A3EFF090D6
:101C0C00061EE0FE90061DE0FBEBFFED75F04BA40D
:101C1C002440F582E43406F583EEF0A3EFF0900651
:101C2C0020E0FE90061FE0FDEDFF900817E0FD752B
:101C3C00F04BA42442F582E43406F583EEF0A3EFD6
:101C4C00F0900622E0FE900621E0FBEBFFED75F034
:101C5C004BA42444F582E43406021D6490061CE077
:101C6C00FE90061BE0FDEDFF900817E0FD75F04BB4
:101C7C00A42446F582E43406F583EEF0A3EFF0904D
:101C8C00061EE0FE90061DE0FBEBFFED75F04BA48D
:101C9C002448F582E43406F583EEF0A3EFF09006C9
:101CAC0020E0FE90061FE0FDEDFF900817E0FD75AB
:101CBC00F04BA4244AF582E43406F583EEF0A3EF4E
:101CCC00F0900622E0FE900621E0FBEBFFED75F0B4
:101CDC004BA4244CF582E43406807D90061CE0FE77
:101CEC0090061BE0FDEDFF900817E0FD75F04BA48E
:101CFC00244EF582E43406F583EEF0A3EFF0900663
:101D0C001EE0FE90061DE0FBEBFFED75F04BA424EE
:101D1C0050F582E43406F583EEF0A3EFF090062044
:101D2C00E0FE90061FE0FDEDFF900817E0FD75F05A
:101D3C004BA42452F582E43406F583EEF0A3EFF0C5
:101D4C00900622E0FE900621E0FBEBFFED75F04BD8
:101D5C00A42454F582E43406F583EEF0A3EFF002EC
:101D6C001E5390061B7412F0A37434F0A37456F037
:101D7C00A37478F0900817E075F04BA42456F9740E
:101D8C000635F0FA7B01C0039009FCEBF0A3740656
:101D9C00F0A3741BF0D003126141900817E075F0AA
:101DAC004BA4245AF97406021E3A900817E075F0F9
:101DBC004BA4245EF9740635F0FA7B01C00390093C
:101DCC00FCEBF0A37406F0A3741BF0D0031261417A
:101DDC00900817E075F04BA42462F97406804F90BC
:101DEC00061CE0FE90061BE0FDEDFF900817E0FDE1
:101DFC0075F04BA42466F582E43406F583EEF0A36B
:101E0C00EFF090061EE0FE90061DE0FBEBFFED757B
:101E1C00F04BA42468F582E43406F583EEF0A3EFCE
:101E2C00F0900817E075F04BA4246AF9740635F0AD
:101E3C00FA7B01C0039009FCEBF0A37406F0A374C9
:101E4C001FF0D003126141E4900625F0900004F0DD
:101E5C00900817E075F04BA42470F582E43406F575
:041E6C00837401F08A
:011E7000224F
:1080F300E4900A63F0A374F0F07B017A0A79637F5A
:0481030002024474BC
:10649A00ED14602814604314605E24037077EF756E
:1064AA00F005A424B4F582E43409F583E5822DF5D8
:1064BA0082E43583F583E024FF92A722EF75F00585
:1064CA00A424B4F582E43409F583E5822DF582E447
:1064DA003583F583E024FF92A622EF75F005A42404
:1064EA00B4F582E43409F583E5822DF582E4358337
:1064FA00F583E024FF92A522EF75F005A424B4F5F4
:10650A0082E43409F583E5822DF582E43583F58347
:06651A00E024FF92A42220
:10820F00EF75F005A424B3F582E43409F583740106
:02821F00F0224B
:02744200AE0793
:10744400EE75F005A424B3F582E43409F583E4F081
:10745400FCEE75F005A424B4F582E43409F583E563
:10746400822CF582E43583F5837401F0AF06AD0414
:0874740012649A0CECB404D977
:01747C0022ED
:10768B00EF75F005A424B3F582E43409F583E0B477
:10769B00011DEF75F005A424B4F582E43409F583DC
:1076AB00E5822DF582E43583F583E4F012649A22AA
:10765A00EF75F005A424B3F582E43409F583E0B4A8
:10766A00011EEF75F005A424B4F582E43409F5830C
:10767A00E5822DF582E43583F5837401F012649A6C
:01768A0022DD
:108089003F065B4F666D7D077F6F777C395E79713F
:0680990040EF00000000B2
:0A59A500080E0000000000000000E2
:05735400900467EFF05A
:10735900E4A3F0C2C17F017E001276EA900467E0DF
:10736900FF30E004D2C08002C2C0EFC313900467AB
:10737900F0D2C17F017E001276EA900468E004F041
:06738900E0C3940840CDB2
:01738F0022DB
:1070C200E4900468F0D2C0900467F0900468E0C3D2
:1070D20013F0C2C17F017E001276EA30C00790042D
:1070E20068E04480F0D2C17F017E001276EA90040B
:1070F20067E004F0E0C3940840D17F017E0012767D
:06710200EA900468E0FFC2
:017108002264
:107C2700900293EFF0C2C27F017E001276EA9002C3
:0F7C370093E0FF127354D2C27F017E000276EAFF
:10517A0078617C047D017BFF7A80799B7E007F04C5
:10518A00120E4CE4900466F0C2C27F421273547F3E
:10519A00F47E011276EAE4900465F01270C290047B
:1051AA0065E02461F582E43404F583EFF090046548
:1051BA00E004F0E0C3940440E2D2C2900461E0FF4C
:1051CA00B404099004667401F00252AFEFB44009C6
:1051DA009004667402F00252AF900462E0FFB404D5
:1051EA00099004667403F00252AFEFB440099004C8
:1051FA00667404F00252AF900463E0FFB4040990AD
:10520A0004667405F00252AFEFB440099004667464
:10521A0006F00252AF900464E0FFB40409900466F9
:10522A007407F00252AFEFB440089004667408F0B5
:10523A008073900461E0FFB402089004667409F078
:10524A008063EFB42008900466740AF080579004D3
:10525A0062E0FFB40208900466740BF08047EFB472
:10526A002008900466740CF0803B900463E0FFB45D
:10527A000208900466740DF0802BEFB420089004A5
:10528A0066740EF0801F900464E0FFB40208900474
:10529A0066740FF0800FEFB420089004667410F063
:0A52AA0080037F0022900466E0FFFD
:0152B40022D7
:1076BB007F8A127C277F8A127C277F40127C27C20D
:1076CB00C27FC0127354E4900292F07FFF12735486
:0E76DB00900292E004F0E0C3941040EFD2C29F
:0176E900227E
:102E470090093FE0900948F090093EE0900949F069
:102E570090093DE090094AF090093CE0F990093B60
:102E6700E0FAAE05AC06AD07900949E0908089937A
:102E7700540125E0FF900948E09080899354012F81
:102E8700FF90094AE090808993540125E025E02FBF
:102E9700FFE993540133333354F82FFFEA93540176
:102EA700C454F02FFFEB935401C43354E02FFFECCD
:102EB700935401C4333354C02FFFED935401C433EB
:102EC700333354802F900940F0900948E09080896F
:102ED700935402C313FF900949E0908089935402E9
:102EE7002FFF90094AE090808993540225E02FFF35
:102EF700E993540225E025E02FFFEA935402333388
:102F07003354F82FFFEB935402C454F02FFFEC9384
:102F17005402C43354E02FFFED935402C4333354A7
:102F2700C02F900941F0900949E09080899354049B
:102F3700C313FF900948E0908089935404131354F6
:102F47003F2FFF90094AE09080899354042FFFE9AF
:102F570093540425E02FFFEA93540425E025E02F3E
:102F6700FFEB93540433333354F82FFFEC9354049B
:102F7700C454F02FFFED935404C43354E02F900949
:102F870042F0900949E09080899354081313543F05
:102F9700FF900948E0908089935408131313541F36
:102FA7002FFF90094AE0908089935408C3132FFF9D
:102FB700E99354082FFFEA93540825E02FFFEB937A
:102FC700540825E025E02FFFEC935408333333549E
:102FD700F82FFFED935408C454F02F900943F09055
:102FE7000949E0908089935410131313541FFF90DD
:102FF7000948E0908089935410C4540F2FFF90091B
:103007004AE09080899354101313543F2FFFE9939C
:103017005410C3132FFFEA9354102FFFEB93541050
:1030270025E02FFFEC93541025E025E02FFFED93CB
:10303700541033333354F82F900944F0900949E082
:10304700908089935420C4540FFF900948E09080E2
:1030570089935420C41354072FFF90094AE09080A6
:1030670089935420131313541F2FFFE993542013EC
:1030770013543F2FFFEA935420C3132FFFEB9354AE
:10308700202FFFEC93542025E02FFFED93542025AC
:10309700E025E02F900945F0900949E09080899359
:1030A7005440C4135407FF900948E0908089935413
:1030B70040C4131354032FFF90094AE0908089936B
:1030C7005440C4540F2FFFE9935440131313541F54
:1030D7002FFFEA9354401313543F2FFFEB935440B1
:1030E700C3132FFFEC9354402FFFED93544025E07B
:1030F7002F900946F0900949E0908089935480C445
:1031070013135403FF900948E0908089935480C4B7
:1031170013131354012FFF90094AE09080899354A9
:1031270080C41354072FFFE9935480C4540F2FFF13
:10313700EA935480131313541F2FFFEB93548013F8
:1031470013543F2FFFEC935480FEC3132FFFED93CF
:1031570054802F900947F07F8A127C277F40127C8A
:1031670027C2C27FC0127354900940E0FF12735404
:103177007F80127354900941E0FF127354E4FF12E9
:103187007354900942E0FF127354E4FF1273549092
:103197000943E0FF127354E4FF127354900944E0AB
:1031A700FF127354E4FF127354900945E0FF127342
:1031B70054E4FF127354900946E0FF127354E4FF7E
:1031C700127354900947E0FF127354E4FF127354CB
:0231D700D2C262
:0131D90022D3
:0584B5007F80027C271E
:106FEB009002FAEFF01283DE7F901278FF1278672F
:106FFB007F011278FF1278679002FAE014600E148A
:10700B00600F146010240370117FC2800A7FD2803E
:10701B00067FE280027FF21278FF1278677FE3121D
:08702B0078FF12786702848DE2
:10809F001283DE7F901278FF127867E4FF1278FF69
:0680AF0012786702848DC7
:1075C400E4900304F0A3F01283DE7F911278FF129B
:1075D4007867127993900304EFF0128389127993F8
:1075E400900305EFF012848D900304E0FEA3E0FD08
:0275F400EDFFA9
:0175F6002272
:087F5A00900290EFF0A3EDF09E
:107F6200E4A3F0A37430F07B017A0279927F0302DA
:027F7200447455
:107D1D00EF25E025E02470F582E43409F583E07069
:0D7D2D0003FEFF22126FEB12809F1275C43F
:017D3A002226
:10822100EF25E025E02470F582E43409F58374013B
:02823100F02239
:10829B00EF25E025E02470F582E43409F583E4F062
:0182AB0022B0
:08802900900A46ECF0A3EDF013
:10803100E4A3F0A3EFF07B017A0A7948E4FF02445C
:0180410074CA
:0582AC00900A78EFF0DC
:0B82B100E4FF00000FEFB408F900002C
:0182BC00229F
:0F83500020686967680D0A00206C6F770D0A00BE
:0372D900A3E0FD32
:1072DC00D292EF54FEFFE4FEEF30E004D293800232
:1072EC00C293D291C291EFC313FF0EEEB408E9E43E
:1072FC00FEED30E004D2938002C293D291C291EDA4
:0A730C00C313FD0EEEB408E9C292AF
:017316002254
:10690A00D292EF4401FFE4900A65F0EF30E004D23E
:10691A00938002C293D291C291EFC313FF900A658A
:10692A00E004F0E0B408E4E4900A65F0900A66E056
:10693A00FFC313F07BFF3093107A83795012807271
:10694A00900A66E04480F0800E7A83795812807249
:10695A00900A66E0547FF0D291C291900A65E004F1
:0E696A00F0E0C3940840C5C292900A66E0FFB8
:0169780022FC
:1060AD00E4FF747D2FF582E43409F583E0FE75F08D
:1060BD000A84FDEE75F00A8474852FF582E43409A7
:1060CD00F583E5F0F0EDC454F0FE74852FF582E410
:1060DD003409F583E02EF00FEFB408C6E4FD7F8E92
:1060ED001272DC7D807F801272DC7DA97F9012722E
:1060FD00DC900985E0FD7FC01272DC7F8C1272D9B5
:10610D007F881272D9A3E0FD7F861272DCA3E0FDB9
:10611D007F841272DCA3E0FD7F821272DCA3E0FDAE
:10612D007F801272DCA3E0FD7F8A1272DC7D807F9E
:04613D008E0272DC80
:1062F7007FC012690A900985EFF07F8C12690A90B6
:106307000986EFF07F8812690A900987EFF07F8688
:1063170012690A900988EFF07F8412690A90098947
:10632700EFF07F8212690A90098AEFF07F80126985
:106337000AEF547F90098BF07F8A12690A90098CC3
:10634700EFF0E4FF74852FF582E43409F583E0FE6E
:10635700C4540FFDEE540FFE747D2FF582E434090B
:10636700F583EEF0ED75F00AA4FE747D2FF582E457
:0C6377003409F583E02EF00FEFB408C8E5
:0163830022F7
:10774500E4900A67F0A3740EF07B017A0A79677FEB
:1077550001124474C2927F327E001276EAC2917F92
:0D776500327E001276EAE4FD7F800272DCC5
:0459AF004108A80003
:10710900E4900290F0A37408F07B017A0279907FF1
:10711900031244749002907401F0A37404F07B018B
:107129007A0279907F031244749002947401F0E416
:10713900900292F0A304F0FB7A027992E4FF125ACA
:05714900BBC2B2C2B39D
:01714E00221E
:10823300EF75F007A424ADF582E43408F5837401E7
:02824300F02227
:1082BD00EF75F007A424ADF582E43408F583E4F0FE
:0182CD00228E
:1082CE00EF75F007A424ADF582E43408F583E0FFE2
:0182DE00227D
:10810700EF75F007A424AEF582E43408F583ECF0AC
:04811700A3EDF022C2
:107B6800AB079003C4E0FCA3E0FDA3E0FEA3E0FFA5
:107B7800EB75F007A424A9F582E43408F583021113
:017B8800B14B
:10811B00EF75F007A424AEF582E43408F583E0FE96
:04812B00A3E0FF22AC
:107C4600EF75F007A424ADF582E43408F583E0600F
:0E7C56000DD2A8D2B37F057E001276EAC2B32B
:017C640022FD
:107F7400EF75F007A424A9F582E43408F583E0FC46
:0A7F8400A3E0FDA3E0FEA3E0FF224E
:03000300026A4D41
:106A4D00C0E0C083C082C0D075D000C004C005C0F6
:106A5D0006C00730B20A43D1809008A8E4F0803810
:106A6D0020B22D53D17FAFD29008AEE4F0A3EFF05A
:106A7D00E0FEADD37C00E42DFFEC3E9008AEF0A31C
:106A8D00EFF075D20075D3009008A87401F080085E
:106A9D009008A8E4F053D17FD007D006D005D004DC
:096AAD00D0D0D082D083D0E032B9
:106E6100120E72F59D900001120E8BFFE5BC549F2E
:106E71004FF5BC900002120E8BB4010543BC80801B
:106E81000353BC7F900003120E8BB401054397207E
:106E910080035397DF900005120E8BB40104D2AD2D
:106EA1008002C2AD900004120E8BB40103D2BD2248
:036EB100C2BD223D
:0C83B000EFB4010443BC802253BC7F22C8
:106CA600EFD3940740028051E4F5BDF5BEE5BC5430
:106CB600E044084FF5BC00000000E4FBE5BC30E40E
:106CC6003353BCEFE59730E509E5BD5403ADBEFC93
:106CD600801DAFBD7C00AD07ED7E007802C333CECC
:106CE60033CED8F9FFE5BE5403FDEEFCEF4DFDAF04
:0D6CF60005AE04220BEBB4FAC37E047F0050
:016D0300226D
:03002B000284BA92
:0484BA0053BCEF328E
:0F8322007D367C07ED1D70011C144C70F7DFF1E8
:018331002229
:1076EA00E4FCFDFB7A36796E7801120FE2E47B0C3A
:1076FA00FAF9F81271947B407A42790F7800127184
:0D770A0094EF4E600800EF1F70F71E80F432
:01771700224F
:0E835F00E4F5C7F5C5F5C675C3FF75C4FF226A
:10725B00AD07AC06C2AF75C78075C501ECF5C3AF02
:10726B00058FC475C65A75C6A500E5C2120EB80DBA
:10727B00BD00010C740129F9E43AFA9009F074FF8E
:0F728B00F5F0120F5345F070D312835FD2AF228C
:107BC900AD07AC06C2AFECF5C3AF058FC475C7806E
:107BD90075C50375C65A75C6A50012835FD2AF2253
:10729A00AD07AC06C2AF75C78075C502ECF5C3AFC2
:1072AA00058FC4120E72F5C275C65A75C6A5000DB1
:1072BA00BD00010C740129F9E43AFA9009F774FF48
:0F72CA00F5F0120F5345F070D312835FD2AF224D
:030013000284C99B
:0184C9003280
:030053000284CA5A
:0184CA00327F
:03005B000284CB51
:0184CB00327E
:030083000284CC28
:0184CC00327D
:105ABB00EFD3940440037F0122EF702D900002126C
:105ACB000E8BB40104D2A88002C2A8900001120E62
:105ADB008BB40104D2B88002C2B8120E72B40104A6
:105AEB00D2888002C2887F0022EF6401702D900063
:105AFB0002120E8BB40104D2AA8002C2AA9000013A
:105B0B00120E8BB40104D2BA8002C2BA120E72B456
:105B1B000104D28A8002C28A7F0022EFB402149061
:105B2B000002120E8BB40105438F108003538FEFCD
:105B3B007F0022EFB40314900002120E8BB4010508
:105B4B00438F208003538FDF7F0022EFB404149028
:105B5B000002120E8BB40105438F408003538FBF9D
:065B6B007F00227F0222F0
:0384C100A21222E2
:10447400EFD3940540037F0122120E72FED39403FE
:1044840040037F0222EF7041EE700B900001120E88
:104494008BF452935294120E72B4010B90000112D9
:1044A4000E8B4293F45294120E72FEB4020A9000E0
:1044B40001120E8B42934294EEB4030D900001124C
:1044C4000E8BFEF45293EE4294EF64017043120E8D
:1044D40072FE700B900001120E8BF452915292EE08
:1044E400B4010B900001120E8B4291F45292120E01
:1044F40072B4020A900001120E8B42914292120E83
:1045040072B4030D900001120E8BFEF45291EE4230
:1045140092EF64027043120E72FE700B900001124F
:104524000E8BF452955296EEB4010B900001120ECC
:104534008B4295F45296120E72B4020A9000011244
:104544000E8B42954296120E72B4030D9000011226
:104554000E8BFEF45295EE4296EF64037043120EF6
:1045640072FE700B900001120E8BF452B152B2EE37
:10457400B4010B900001120E8B42B1F452B2120E30
:1045840072B4020A900001120E8B42B142B2120EB2
:1045940072B4030D900001120E8BFEF452B1EE4280
:1045A400B2EF64047043120E72FE700B900001129D
:1045B4000E8BF452B352B4EEB4010B900001120E00
:1045C4008B42B3F452B4120E72B4020A9000011278
:1045D4000E8B42B342B4120E72B4030D900001125A
:1045E4000E8BFEF452B3EE42B4EF64057043120E28
:1045F40072FF700B900001120E8BF452C952CAEF75
:10460400B4010B900001120E8B42C9F452CA120E6F
:1046140072B4020A900001120E8B42C942CA120EF1
:1046240072B4030D900001120E8BFFF452C9EF42D5
:04463400CA7F002217
:07836D00C2B5128374D2B403
:0683740000007F39DFFE6E
:01837A0022E0
:0A83DE00D2B512836FC2B50283749A
:06848D0012836DD2B5223E
:0D838900C2B412836DC2B4128374D2B52247
:04786300FF1278FF99
:10786700E4FEC2B4128374D2B5D2B412837430B5B5
:107877000DEEC394FF50070EA2B5920980F0C2B473
:02788700A20954
:0178890022DC
:0A83E800D2B5C2B412836FC2B422F2
:10799300E4FEFDD2B4128374EE25E0FE128374304C
:1079A300B5054401FE8000C2B41283740DEDB40822
:0379B300E2AF063A
:0179B60022AE
:0278FF00AE07D2
:10790100E4FDC2B4128374EE5480FFC41313135404
:107911000124FF92B512836FEE25E0FE0DEDB40850
:03792100E1C2B40C
:017924002240
:10804200AC05AE071283DEAF061278FF127867AF77
:09805200041278FF127867D322B2
:0B752400900A01EBF0A3EAF0A3E9F0ED
:10752F00128042E4FC900A04E0FFECC39F501990D4
:10753F000A01E0FBA3E475F001120F69A9F0FA123A
:0B754F000E721278630C80DD02848D48
:106EB400900A07EBF0A3EAF0A3E9F0900A05EFF0DB
:106EC4001280421283DEE04401127863E4FC900AEB
:106ED4000AE0FFECC39F5025127993900A07E0FB68
:106EE400A3E475F001120F69A9F0FAEF120EB8903D
:106EF4000A0AE0146C60031283890C80D11283E8BF
:036F040002848D77
:105CD400EF7034D3ED9498EC940340047C037D98E6
:105CE400C3ED9450EC940050047C007D50C2DE90CF
:105CF4000918ECF0A3EDF0C374E89D900913F07457
:105D0400039C9009128073EF64017034D3ED94689E
:105D1400EC940B40047C0B7D68C3ED9450EC940030
:105D240050047C007D50C2DE90091AECF0A3EDF023
:105D3400C374B89D900915F0740B9C900914803AB3
:105D4400EF64027038D3ED9480EC940740047C0730
:105D54007D80C3ED9450EC940050047C007D50C2CF
:105D6400DE90091CECF0A3EDF0AE04FFC374D09FE9
:0E5D7400900917F074079E900916F0D2DE22F7
:1047D800900A57EBF0A3EAF0A3E9F0AD07EDD39404
:1047E800034003024976ED6403704CC2DEF5F9F527
:1047F800E9900A57E0FBA3E0FAA3E0F9120E72FF72
:10480800E5A254CF4FF5A2900001120E8BFFE5D917
:1048180054F14FF5D9900004120E8B5401FFE5D9DD
:1048280054FE4FF5D9900005120E8BB40104D2BF87
:104838008002C2BFD2DE22900A57E0FBA3E0FAA3AF
:10484800E02404F9E43AFA120E725431120EB890C8
:104858000A57E0FBA3E0FAA3E0F9900002120E8BDE
:10486800C39448400FE92404F9E43AFA120E72544A
:10487800CF120EB8ED704F900A57E0FBA3E0FAA3F1
:10488800E0F9900004120E8BFF900002120E8BFECE
:104898004FF5DA900003120E8BFFE5F2543F4FF507
:1048A800F2900006120FAAFBAAF0900918EAF0A3EA
:1048B800EBF0C20A90090FEEF090091EEAF0A3EBA4
:1048C800F0F5EAEAF5FAED6401704F900A57E0FB5B
:1048D800A3E0FAA3E0F9900004120E8BFF90000207
:1048E800120E8BFE4FF5DB900003120E8BFFE5F3E3
:1048F800543F4FF5F3900006120FAAFBAAF0900957
:104908001AEAF0A3EBF0C20B900910EEF090092020
:10491800EAF0A3EBF0F5EBEAF5FBED6402704F90DB
:104928000A57E0FBA3E0FAA3E0F9900004120E8B0B
:10493800FF900002120E8BFE4FF5DC900003120E62
:104948008BFFE5F4543F4FF5F4900006120FAAFDD3
:10495800ACF090091CECF0A3EDF0C20C900911EE3C
:0F496800F0900922ECF0A3EDF0F5ECECF5FC2259
:10503D00900A5BECF0A3EDF0900A5AEFF0705ED39E
:10504D00EB9464EA940040047A007B64C3EB940112
:10505D00EA940050047A007B01C2DE900A5BE0FE08
:10506D00A3E0FFAD03AC02120EEC7C007D64120ECA
:10507D00FE900918EEF0A3EFF07C007D64AF03AE57
:10508D0002120EFEC374019FFFE49EFE900A5BE0C8
:10509D00FCA3E0FD120EEC900912025172900A5A17
:1050AD00E06401705DD3EB9464EA940040047A00EF
:1050BD007B64C3EB9401EA940050047A007B01C237
:1050CD00DE7C007D64AF03AE02120EFE900A5BE043
:1050DD00FCA3E0FD120EEC90091AEEF0A3EFF07CAC
:1050ED00007D64AF03AE02120EFEC374019FFFE498
:1050FD009EFE900A5BE0FCA3E0FD120EEC900914FD
:10510D008063900A5AE064027062D3EB9464EA946F
:10511D000040047A007B64C3EB9401EA94005004D0
:10512D007A007B01C2DE7C007D64AF03AE02120EFD
:10513D00FE900A5BE0FCA3E0FD120EEC90091CEE64
:10514D00F0A3EFF0AE02AF037C007D64120EFEC340
:10515D0074019FFFE49EFE900A5BE0FCA3E0FD124C
:0D516D000EEC900916EEF0A3EFF0D2DE225A
:03003B00025ED191
:105ED100C0E0C083C082C0D075D000C006C007300A
:105EE100D82AC2D830A5059009188003900912E07C
:105EF100FEA3E0FF90091FE02FF090091EE03EF0A5
:105F010090091EE0FEA3E0F5EAEEF5FA30D92AC2C7
:105F1100D930A60590091A8003900914E0FEA3E088
:105F2100FF900921E02FF0900920E03EF090092038
:105F3100E0FEA3E0F5EBEEF5FB30DA2AC2DA30A79A
:105F41000590091C8003900916E0FEA3E0FF90096B
:105F510023E02FF0900922E03EF0900922E0FEA319
:105F6100E0F5ECEEF5FCD007D006D0D0D082D0839E
:035F7100D0E0324B
:106C4500900A69ECF0A3EDF0AB07900A69E0FEA3AA
:106C5500E0FFE4FCFDEB75F00AA424DBF582E434E7
:106C650007F5831211B143BA8053F57FEB75F00A2E
:106C7500A424E4F582E43407F583E0FF7E00900A5E
:106C850069E0FCA3E0FD120EECAB07AA06E4F9F8F7
:106C9500FF7E367D6E7C01127194127C6553BA7F3E
:016CA50022CC
:107F8E00EF75F00AA424DBF582E43407F583E0FCF8
:0A7F9E00A3E0FDA3E0FEA3E0FF2234
:1055EB00900A3DEFF07F337E337D737C3FA3E0F871
:1055FB00A3E0F9A3E0FAA3E0FB120A9E600C400AB9
:10560B00900A3E1211BD3F7333337FCD7ECC7DCCE0
:10561B007C3C900A3EE0F8A3E0F9A3E0FAA3E0FBA0
:10562B00120A9E500A900A3E1211BD3CCCCCCD9072
:10563B000A3EE0FCA3E0FDA3E0FEA3E0FF900A3DE1
:10564B00E0FB75F00AA424E0F582E43407F583123D
:10565B0011B143BA80EB75F00AA424E4F582E4346B
:10566B0007F583E0FFE4FCFDFEEB75F00AA424DBF9
:10567B00F582E43407F583E0F8A3E0F9A3E0FAA39D
:10568B00E0FB120FE2A804A905AA06AB077F007E78
:10569B00367D6E7C0112106DE4120B0B900A3EE00E
:1056AB00F8A3E0F9A3E0FAA3E0FB1208F8120B4908
:1056BB00AB07AA06900A3DE0FF7D0A7C001260133F
:0456CB0053BA7F222D
:107FA800EF75F00AA424E0F582E43407F583E0FCD9
:0A7FB800A3E0FDA3E0FEA3E0FF221A
:1082DF00EF75F00AA424E4F582E43407F583EDF09A
:0182EF00226C
:1082F000EF75F00AA424E4F582E43407F583E0FF87
:01830000225A
:0A83F20043BA8043F58053BA7F229E
:0A83FC0043BA8053F57F53BA7F2285
:1077C30043BA807401A807088002C333D8FC42F58A
:1077D300EF75F00AA424DFF582E43407F58374011E
:0877E300F043F58053BA7F2248
:10794A0043BA807401A807088002C333D8FCF452F2
:10795A00F5EF75F00AA424DFF582E43407F583E431
:05796A00F053BA7F227A
:10824500EF75F00AA424DFF582E43407F583E02412
:02825500FF2206
:052AAD00900A6BEFF040
:102AB200E4A3F0900A6CE0FFC39406505AEF75F05D
:102AC2000AA424DBF582E43407F5831211BD000069
:102AD2000000900A6CE0FF75F00AA424DFF582E49E
:102AE2003407F583E4F0EF75F00AA424E0F582E4FC
:102AF2003407F5831211BD00000000900A6CE075E6
:102B0200F00AA424E4F582E43407F5837401F0901A
:102B12000A6CE004F0809C43BA80120E72B4010584
:102B220043F180800353F17F900001120E8BB401B8
:102B320014900A6BE0FF7401A807088002C333D81F
:102B4200FC42F18013900A6BE0FF7401A807088031
:102B520002C333D8FCF452F1900002120E8BB4017E
:102B62000543F540800353F5BF900003120E8BB46A
:102B72000114900A6BE0FF7401A807088002C333B6
:102B8200D8FC42F58013900A6BE0FF7401A8070895
:102B92008002C333D8FCF452F5900004120E8BB4B9
:102BA200010575F720800353F7DF900005120E8BA5
:102BB200B4010575F710800353F7EF900006120E6B
:102BC2008BB4010575F708800353F7F790000712DD
:102BD2000E8BB4010575F704800353F7FB900008D0
:102BE200120E8BB4010575F702800353F7FD9000B6
:102BF20009120E8B90FFF27006E054EFF08004E0B1
:102C02004410F090FFF2C083C082E0FF90000A12ED
:102C12000E8BFEEF4ED082D083F0900A6BE01460F0
:102C220072147003022CE8147003022D3B1470031B
:102C3200022D8E147003022DDF24056003022E364E
:102C420090000B120E8B90FF047006E054F7F08098
:102C520004E04408F090000C120E8B90FF04B401C3
:102C620006E04404F08004E054FBF090000D120EE4
:102C72008B90FF04B40106E04402F08004E054FDAE
:102C8200F090000E120E8B90FF04B40103022E2C62
:102C9200022E3290000B120E8B90FF147006E0543D
:102CA200F7F08004E04408F090000C120E8B90FFC5
:102CB20014B40106E04404F08004E054FBF09000F8
:102CC2000D120E8B90FF14B40106E04402F0800452
:102CD200E054FDF090000E120E8B90FF14B401032D
:102CE200022E2C022E3290000B120E8B90FF2470BB
:102CF20006E054F7F08004E04408F090000C120E55
:102D02008B90FF24B40106E04404F08004E054FBFD
:102D1200F090000D120E8B90FF24B40106E04402E5
:102D2200F08004E054FDF090000E120E8B90FF2410
:102D3200B40103022E2C022E3290000B120E8B9045
:102D4200FF347006E054F7F08004E04408F090008D
:102D52000C120E8B90FF34B40106E04404F08004A0
:102D6200E054FBF090000D120E8B90FF34B401067C
:102D7200E04402F08004E054FDF090000E120E8B4D
:102D820090FF34B40103022E2C022E3290000B125B
:102D92000E8B90FF447006E054F7F08004E0440884
:102DA200F090000C120E8B90FF44B40106E0440434
:102DB200F08004E054FBF090000D120E8B90FF4463
:102DC200B40106E04402F08004E054FDF090000EED
:102DD200120E8B90FF44B40102804F805390000B7F
:102DE200120E8B90FF547006E054F7F08004E0441A
:102DF20008F090000C120E8B90FF54B40106E044D0
:102E020004F08004E054FBF090000D120E8B90FF52
:102E120054B40106E04402F08004E054FDF0900056
:102E22000E120E8B90FF54B40106E04401F08004B0
:102E3200E054FEF090000F120E8BB4010443F580B3
:042E42002253F57FA3
:012E46002269
:107C6500D3E49F74809E90FFF1400AEFF0EE90FF01
:0F7C7500F0F07F002274FFF090FFF0747FF02298
:10601300EF14602814603A14604C14605E146070CE
:10602300240560030260AA90FF01EDF0EC90FF00ED
:10603300F090FF03EBF0EA90FF02806790FF11ED11
:10604300F0EC90FF10F090FF13EBF0EA90FF12805A
:106053005290FF21EDF0EC90FF20F090FF23EBF046
:10606300EA90FF22803D90FF31EDF0EC90FF30F09D
:1060730090FF33EBF0EA90FF32802890FF41EDF080
:10608300EC90FF40F090FF43EBF0EA90FF42801367
:1060930090FF51EDF0EC90FF50F090FF53EBF0EADE
:0A60A30090FF52F07F00227F0122DF
:10626600900001120E8BB4010553CE7F800343CEFE
:1062760080120E72B4010543CE40800353CEBF9008
:106286000002120E8BB4010543CE20800353CEDFED
:10629600900003120E8B700553CEEF800343CE1091
:1062A600900004120E8BB4010543CE08800353CE32
:1062B600F7900005120E8B700543CE04800353CE73
:1062C600FB900006120E8BB4010543AF0280035308
:1062D600AFFD900007120E8B5403FFE5CE54FC4F22
:1062E600F5CE900008120E8BFFE5A254F34FF5A2EF
:0162F6002285
:0B83D300EF700453CEEF2243CE1022C7
:10812F00900A4DE02443F8A607E004F0C3942040E2
:04813F0002E4F02244
:107C8400EDD394205018E4FEEEC39D5011120E72F1
:0E7C9400FF12812F740129F9E43AFA0E80EAFA
:017CA20022BF
:10788A00900A4DE0FF900A4BE06F601A7F01128365
:10789A00D3900A4BE02443F8E6FFE004F0C39420B7
:0678AA004002E4F08FCF64
:0178B00022B5
:1079B700900A4CE0FF900A4AE0FEB507037F0022D9
:1079C70074232EF8E6FF900A4AE004F0C39420409F
:0379D70002E4F0D7
:0179DA00228A
:107E5500AD07EDD3942040037F0022EDD39401407C
:0A7E6500061279B71D80F41279B7F8
:017E6F0022F0
:03004B00026DB88B
:106DB800C0E0C083C082C0D075D000C000C006C08B
:106DC80007900A4DE0FF900A4BE0FE6F6025A3E0B4
:106DD8002423F8A6CFE004F0C394204002E4F07422
:106DE800432EF8E6F5CF900A4BE004F0C394204018
:106DF80002E4F075CDC0D007D006D000D0D0D08244
:056E0800D083D0E03250
:1059B3004108EB004108EC004208ED00004208EF0B
:1059C30000004208E700004208E500004108F90032
:1059D3004108E4004108EA004108E9004408F100F5
:0A59E3000000004408F50000000079
:1066AF00E49002B0F0900290F0A304F0A3F0E4A302
:1066BF00F0A3F0900297F090029574A2F0A37440AB
:1066CF00F0E49002A8F0A304F0E4A3F0A3F0A3F089
:1066DF009002AFF074FF9002ADF0A3F0E490029837
:1066EF00F0A304F0A3F0A3F0E490029FF0A3F0A3B3
:1066FF0004F0A3F0A3F0E49002A7F07B017A0279F3
:10670F00A87F04123A617B017A0279987F02123ACC
:0C671F00617B017A0279A07F03023A61DD
:107772009008EBE064026020A3E06402601AEF2448
:10778200FE600B0470129008F1ECF0A3EDF0AF056F
:097792009008F5ECF0A3EFF022E1
:107FC200EF24FE600804700E9008F180039008F51B
:0A7FD200E0FEA3E0FF22E4FEFF2220
:107E0300EF24FE600C0470139008F3ECF0A3EDF084
:0C7E130022AF059008F7ECF0A3EFF0227E
:107FDC00EF24FE600804700E9008F380039008F7FD
:0A7FEC00E0FEA3E0FF22E4FEFF2206
:0D839600EF14700853D17FE49008EBF02243
:107CA300EF24FE600E0470169008EBE0B40202D3DA
:0F7CB30022C3229008ECE0B40203D38001C32265
:107CC200EF24FE600E0470169008EBE0B40102D3BC
:0F7CD20022C3229008ECE0B40103D38001C32247
:107D9200EF24FE600D0470149008EBE07002D32211
:0D7DA200C3229008ECE07003D38001C322DF
:1080CA00AE07127CA3400DEF14700943D1809008CB
:0580DA00EB7402F0222E
:0E837B00AE07127CC250051280CAD322C32264
:098469009008E7E0FEA3E0FF2209
:098472009008E5E0FEA3E0FF2202
:068493009008F9E0FF2251
:068499009008E4E0FF2260
:06849F009008EAE0FF2254
:0684A5009008E9E0FF224F
:0300A300027033B5
:10703300C0E0C0F0C083C082C0D075D000C000C023
:10704300069008EDE475F001120F53FED39008F299
:10705300E095F09008F1E09E500F53D17F9008ED3A
:10706300E4F0A3F09008EB04F0D006D000D0D0D029
:0870730082D083D0F0D0E0329E
:103A6100AD07EDD3940440037F0122ED7073120E74
:103A710072FED3940340037F0222C28CC2A9C2B951
:103A81005389F0538E7F538FFE900002120E8BB438
:103A91000102D2A9900001120E8BB40102D2B9EE3B
:103AA1004289900003120E8BFF7003438E80EFB4A6
:103AB1000203438904900004120E8BB40103438F67
:103AC10001900005120FAAE5F0F58C900005120F88
:103AD100AAF58A900007120E8BB40102D28C7F00E6
:103AE10022ED64016003023B6DC28E900002120E52
:103AF1008BB40104D2AB8002C2AB900001120E8BD9
:103B0100B40104D2BB8002C2BB120E72FEC3940385
:103B110040037F0222E58954CF4EF58990000312BC
:103B21000E8BFFB40103538EBFEF7003438E40EF42
:103B3100B4020543894080035389BF900004120EEB
:103B41008BB40105438F028003538FFD9000051252
:103B51000FAAE5F0F58D900005120FAAF58B9000E4
:103B610007120E8BB40102D28E7F0022ED64027027
:103B710078538EEF900002120E8BB4010543AF040F
:103B8100800353AFFB900003120E8BFED3940240CF
