:023D4B0038300E
:023D4D003EBE78
:023D4F003EC272
:023D51003EC072
:023D55003CEB45
:023D57003D5FCE
:023D59003B7EAF
:023D5B003856D8
:023D5D003B9990
:0A30F10042063D000042063F0000C9
:10383000123AB57F0412390F7F031219EA7F05127D
:1038400019EA7F071219EA7F081219EA7F0912198B
:06385000EAE4FF021A7316
:023EBE0080FE84
:013EC20022DD
:023EC00080FE82
:103CEB0090032E12148B00000000123399E4FBFAA0
:093CFB007D027F80121AFC80F1A9
:103D5F00E490045EF0A3F0E4FBFA7DE87F80121A92
:033D6F00FC80F4E1
:103B7E007F08123AD35005123EAA8003123EAFE4DC
:0B3B8E00FBFA7D057F80121AFC80E529
:10385600D2081231F2E4FBFA794878421210DE50AF
:1038660005123EAA8003123EAFE4FBFA7D017F807B
:05387600121AFC80DBCA
:103B9900D2081231F29004897401F0123639E4FB2B
:0A3BA900FA7D037F80121AFC80E60B
:1036720090028C7440F0A37402F0A312147F9002A3
:10368200937401F0E4A3F0A304F0A3F0E4A3F0A385
:0C369200F07B017A02798C7F01020800B5
:103AB5007F007EC27D017C00123672122BC912373F
:0E3AC5001B123A58E4FD7F01123B46D2AF229D
:013EC30022DC
:013EC40022DB
:013EC50022DA
:013EC60022D9
:013EC70022D8
:03000B0002187D5B
:10187800C2AF80FE3212187C85D00B75D008AAE062
:10188800C28CE58A24F7F58AE58C34D8F58CD28C9D
:10189800EC240FF8E6BC090274FFC39581B4140068
:1018A80040CE790A782216E608700BC2AFE630E11E
:1018B800034418F6D2AF08D9EDEA8BD030090122DB
:1018C800D50DFCC0E0C0D0C0F0C083C082C000C04D
:1018D80001C002C003C004C005C006C007E50C2350
:1018E8002423F87440C2AF46F6D2AFD209E50CFF04
:1018F800232423F80F0808BF0A047F007823E63062
:10190800E4F200E50CC39F5020050C740E250CF87A
:10191800E6FDA68108E6AE0CBE090274FFCDF8E824
:101928006D60E008E6C0E080F6E50CD39F4027E54F
:101938000C240FF8E6AE0CBE090274FFFD18E6CDC4
:10194800F8E5816D6006D0E0F61880F5E50C240E08
:10195800C8F6150C80D3750D05E50C232423F87FF4
:1019680004C2AFE610E61E30E00310E20C7F003040
:10197800E10730E3047F0854F4547CC6D2AF5480A6
:101988004207C20922F6D2AFD007D006D005D0044C
:10199800D003D002D001D000D082D083D0F0D0D0F4
:0E19A800D0E0C20922780EA68174096006FF05
:1019B6000876FFDFFB7F0AE47822F608F608DFFAEE
:1019C60078237630903D4B740193C0E0E493C0E0F9
:1019D600750D05438901758AF0758CD8D28CD2AF06
:0419E600D2A9220957
:1030FB00602A0552000000000000000000000000E4
:10310B0000000000000000000000000000000000B4
:0E311B000000000000000000000000000000A6
:102B1F00900497EBF0A3EAF0A3E9F09000031212F0
:102B2F0023FF900493E0FBA3E0FAA3E0F9A3E0FEF8
:102B3F00F582758300EF121262900497E0FBA3E019
:102B4F00FAA3E0F9900002121223FFEE2401FDE434
:102B5F0033FC900493E0FBA3E0FAA3E0F98D828CA1
:102B6F0083EF121262900497E0FBA3E0FAA3E0F95F
:102B7F00900001121223FFEE2402FDE433FC9004B7
:102B8F0093E0FBA3E0FAA3E0F98D828C83EF12129E
:102B9F0062900497E0FBA3E0FAA3E0F912120AFF98
:102BAF00EE2403FDE433FC900493E0FBA3E0FAA3CF
:0A2BBF00E0F98D828C83EF021262B0
:10363900900489E090048FF01227D0E490048AF076
:10364900900489E0FF122C7290048AE0FEC39F5017
:103659001774522EF582E43405F583E0FF12380918
:0836690090048AE004F080D80F
:013671002236
:1027D00090048B12147F90048FE0FFD3940A40037F
:1027E000022903EF7003022903EF14B40A00400327
:1027F00002290390280175F003A4C58325F0C58341
:102800007302281F02283502284C02286302287A06
:102810000228900228A60228BC0228D20228E890AA
:1028200004937401F0A37405F0A37452F0A374012F
:10283000F0FB0228FC9004937401F0A37405F0A34C
:102840007452F0A37405F07B010228FC9004937489
:1028500001F0A37405F0A37452F0A37409F07B0196
:102860000228FC9004937401F0A37405F0A3745241
:10287000F0A3740DF07B010228FC9004937401F026
:10288000A37405F0A37452F0A37411F07B01806C63
:102890009004937401F0A37405F0A37452F0A37430
:1028A00015F07B0180569004937401F0A37405F039
:1028B000A37452F0A37419F07B01804090049374C8
:1028C00001F0A37405F0A37452F0A3741DF07B0112
:1028D000802A9004937401F0A37405F0A37452F05D
:1028E000A37421F07B0180149004937401F0A3740D
:1028F00005F0A37452F0A37425F07B017A04798B60
:04290000122B1F2255
:102C7200EFD3940A5003EF70037F00229005527441
:102C820024F0EF14B40A004003022D14902C9C751A
:102C9200F003A4C58325F0C58373022CBA022CC3AA
:102CA200022CCC022CD5022CDE022CE7022CF002E4
:102CB2002CF9022D02022D0B9005577405F07F06A8
:102CC2002290055B7409F07F0A2290055F740DF073
:102CD2007F0E229005637411F07F122290056774B3
:102CE20015F07F162290056B7419F07F1A22900559
:102CF2006F741DF07F1E229005737421F07F2222D3
:102D02009005777425F07F262290057B7429F07F49
:052D12002A227F0022CF
:08312900C100C101C102C10394
:103A580090028D7478F0E490028CF07B017A027900
:0E3A68008C7F02121F68D2A3D2A4D2A5D2A6D0
:013A7600222D
:0A3E5C00EF4E7005EE4F24FFB32275
:103AD300EF24F0600F24F0600E24E0600D243870B2
:0D3AE3000BA20022A20122A20222A20322B5
:10339900A2A3E4FE33FF123E5C500EA2A3E433FF66
:1033A900123E5C5006D2008002C200A2A4E4FE33A1
:1033B900FF123E5C5007200106D2018002C201A221
:1033C900A5E4FE33FF123E5C5007200206D20280BC
:1033D90002C202A2A6E4FE33FF123E5C500620039D
:0733E90005D20322C20322FA
:02313100C10AD1
:10371B0090028D7405F0E490028CF07B017A0279B3
:10372B008C7F05121F68123EAA7FC8123E24123EE0
:07373B00AF7FC8123E24D34A
:013742002264
:053EAA00C2CDD20A2286
:053EAF00D2CDC20A2281
:10390F0090028CEFF090028CE0FF14F0EF60121237
:10391F003EAA7FC8123E24123EAF7FC8123E2480BB
:02392F00E42290
:033EB800A20A2239
:063E8C00900653EFF02246
:102DBA0090060BEFF07F337E337D737C3FA3E0F800
:102DCA00A3E0F9A3E0FAA3E0FB1210DE600C400ACC
:102DDA0090060C12148B3F7333337FCD7ECC7D4C1F
:102DEA007C3D90060CE0F8A3E0F9A3E0FAA3E0FB2F
:102DFA001210DE500A90060C12148B3D4CCCCD906A
:102E0A00060BE02404FFC007A3E0FCA3E0FDA3E057
:102E1A00FEA3E0FF90061612147FD0071229049031
:102E2A00060CE0FCA3E0FDA3E0FEA3E0FF1211897B
:102E3A0090060BE025E02442F582E43406F583EFA0
:022E4A00F02274
:1037BB0043BA80EF2404FE7401A806088002C333C9
:1037CB00D8FC42F553BA7FEF25E02441F582E4346F
:0737DB0006F5837401F022E2
:1037E20043BA80EF2404FE7401A806088002C333A2
:1037F200D8FCF452F553BA7FEF25E02441F582E478
:073802003406F583E4F02217
:103E0400EF25E02441F582E43406F583E024FF2223
:10326C00E49005A7F0A37408F07B017A0579A77F99
:10327C0002121F689005A87404F07B017A0579A7E7
:10328C007F02121F68D2A2D2A343BA80E49005A990
:10329C00F0A3F0A3F0A304F0E4A3F0A3F0A3F0A335
:1032AC00F0A3F0A3F0A3F0A3F0A3F0A3F0A3F0A37A
:1032BC00F07B017A0579A97F021214F27B017A0561
:0A32CC0079A97F031214F253BA7FB0
:0132D60022D5
:103E1400900645EFF0A3ECF0A3EDF0A3EBF0D32272
:1036F20090064FECF0A3EDF0A907AE0390064F74CD
:10370200FFF5F012130145F0600DAF01AB067D68C5
:093712007C01123E1480E5D32273
:103DAB00EF75F006A424D8F582E43405F583E024FE
:023DBB00FF22E5
:103B2A00900654EFF01236C8900654E075F006A4D9
:0C3B3A0024D8F582E43405F583E4F02281
:103AF000900655EFF012369E900655E075F006A43C
:0D3B000024D8F582E43405F5837401F02229
:103B460090028CEFF0A3EDF0A37401F0E4A3F0A3D0
:0C3B5600F0A3F07B017A02798C02344667
:05269A0090049DEDF02D
:10269F00E49004A4F0A3F09004A0E0FFA3E0900462
:1026AF00A6CFF0A3EFF090049EE0FFA3E09004A864
:1026BF00CFF0A3EFF0E49004A2F0A3F090049DE01C
:1026CF00FF9004A2E0FCA3E0FDC39F7480F8EC64CC
:1026DF0080984003022794ED25E0FFEC338F82F5BD
:1026EF0083121317FFC39004A7E09F9004A6E095F1
:1026FF00F0501D9004A3E025E0FF9004A2E0338F7B
:10270F0082F583121317FF9004A6E5F0F0A3EFF004
:10271F009004A3E025E0FF9004A2E0338F82F583BD
:10272F00121317FFD39004A9E09F9004A8E095F02F
:10273F00401D9004A3E025E0FF9004A2E0338F82B8
:10274F00F583121317FF9004A8E5F0F0A3EFF090B4
:10275F0004A3E025E0FF9004A2E0338F82F58312FB
:10276F001317FFAEF09004A5E02FF09004A4E03E05
:10277F00F09004A3E004F060030226CB9004A2E0E3
:10278F0004F00226CB9004A8E0FEA3E0FF9004A77C
:10279F00E02FFF9004A6E03EFEC39004A5E09FFF4C
:1027AF009004A4E09EFEF0A3EFF090049DE024FEC1
:1027BF00FDE434FFFC1212969004A4EEF0A3EFF0A8
:0127CF0022E7
:1031F200E4900499F0300863F0E4FF12333B90044A
:1032020099E025E02485F582E43404F583EEF0A309
:10321200EFF0900499E004F0E0C3940A40DB7B01F4
:103222007A04798590049E7404F0A3E4F0A3F0A3D9
:10323200F07D0A12269AAC06AD07E41211509005F1
:10324200EE12147F9005EEE0FCA3E0FDA3E0FEA3E6
:10325200E0FFA312147F9005EE80039005F2E0FCDC
:09326200A3E0FDA3E0FEA3E0FFE0
:01326B002240
:053133004205E200006E
:1033F000900610EFF0900613EAF0A3EBF0900611A0
:10340000ECF0FEA3EDF0FF12387B900611E0FEA376
:10341000E0FF900610E0FD75F005A424E6F582E4D7
:103420003405F583EEF0A3EFF0900613E0FEA3E081
:10343000FFED75F005A424E4F582E43405F583EE90
:06344000F0A3EFF0D3221F
:10369E00EF75F005A424E8F582E43405F583740192
:1036AE00F043BA80EF2405FF7401A807088002C317
:0A36BE0033D8FC42F553BA7FD32243
:1036C80043BA80EF2405FE7401A806088002C333BC
:1036D800D8FCF452F553BA7FEF75F005A424E8F549
:0A36E80082E43405F583E4F0D322F8
:103DBD00EF75F005A424E8F582E43405F583E024DD
:023DCD00FF22D3
:0300B3000234997B
:10349900C0E0C0F0C083C082C0D075D000C000C0F9
:1034A90006C007AFF6E4B50725E4B480219005E22C
:1034B90075F001121301FED39005E5E095F0900532
:1034C900E4E09E500943BA8053F57F53BA7FD00791
:0F34D900D006D000D0D0D082D083D0F0D0E03257
:0300BB00023EC83A
:013EC80032C7
:1032D70090061612148B3F0000007F0512290490F8
:1032E700061612148B3F0000007F0412290443BA0C
:1032F70080E49005B9F0A3F0A3F0A304F0E4A3F0F1
:10330700A3F0A3F0A3F0A3F0A3F0A3F0A3F0A3040A
:10331700F0E4A3F0A304F0E4A3F07B017A0579B904
:103327007F041214F27B017A0579B97F051214F232
:0333370053BA7F07
:01333A002270
:1034460012120AF59D900001121223FFE5BC549F4B
:103456004FF5BC900002121223B4010543BC8080D4
:103466000353BC7F900003121223B4010543972037
:1034760080035397DF900005121223B40104D2ADE6
:103486008002C2AD900004121223B40103D2BD2201
:03349600C2BD2292
:0C3E5000EFB4010443BC802253BC7F226D
:10333B00EFD3940740028051E4F5BDF5BEE5BC54D4
:10334B00E044084FF5BC00000000E4FBE5BC30E4B2
:10335B003353BCEFE59730E509E5BD5403ADBEFC37
:10336B00801DAFBD7C00AD07ED7E007802C333CE70
:10337B0033CED8F9FFE5BE5403FDEEFCEF4DFDAFA8
:0D338B0005AE04220BEBB4FAC37E047F00F4
:013398002212
:03002B00023EB4DE
:043EB40053BCEF32DA
:0F3E24007D037C09ED1D70011C144C70F7DFF15C
:013E3300226C
:033EBB00A20B2235
:101F6800EFD3940540037F012212120AFED3940393
:101F780040037F0222EF7041EE700B9000011212B5
:101F880023F45293529412120AB4010B90000112D6
:101F980012234293F4529412120AFEB4020A9000D9
:101FA8000112122342934294EEB4030D90000112E1
:101FB8001223FEF45293EE4294EF6401704312121E
:101FC8000AFE700B900001121223F452915292EE05
:101FD800B4010B9000011212234291F45292121292
:101FE8000AB4020A9000011212234291429212127C
:101FF8000AB4030D900001121223FEF45291EE422E
:1020080092EF6402704312120AFE700B90000112E4
:102018001223F452955296EEB4010B90000112125D
:10202800234295F4529612120AB4020A9000011241
:1020380012234295429612120AB4030D900001121F
:102048001223FEF45295EE4296EF64037043121287
:102058000AFE700B900001121223F452B152B2EE34
:10206800B4010B90000112122342B1F452B21212C1
:102078000AB4020A90000112122342B142B21212AB
:102088000AB4030D900001121223FEF452B1EE427D
:10209800B2EF6404704312120AFE700B9000011232
:1020A8001223F452B352B4EEB4010B900001121291
:1020B8002342B3F452B412120AB4020A9000011275
:1020C800122342B342B412120AB4030D9000011253
:1020D8001223FEF452B3EE42B4EF640570431212B9
:1020E8000AFF700B900001121223F452C952CAEF72
:1020F800B4010B90000112122342C9F452CA121201
:102108000AB4020A90000112122342C942CA1212EA
:102118000AB4030D900001121223FFF452C9EF42D2
:04212800CA7F002248
:102A7100EF7034D3ED9498EC940340047C037D987B
:102A8100C3ED9450EC940050047C007D50C2DE9064
:102A9100059BECF0A3EDF0C374E89D900596F074EE
:102AA100039C9005958073EF64017034D3ED9468B5
:102AB100EC940B40047C0B7D68C3ED9450EC9400C6
:102AC10050047C007D50C2DE90059DECF0A3EDF03A
:102AD100C374B89D900598F0740B9C900597803A4B
:102AE100EF64027038D3ED9480EC940740047C07C6
:102AF1007D80C3ED9450EC940050047C007D50C265
:102B0100DE90059FECF0A3EDF0AE04FFC374D09FFF
:0E2B110090059AF074079E900599F0D2DE228E
:10212C00900649EBF0A3EAF0A3E9F0AD07EDD394E8
:10213C000340030222CAED6403704CC2DEF5F9F5CC
:10214C00E9900649E0FBA3E0FAA3E0F912120AFFBA
:10215C00E5A254CF4FF5A2900001121223FFE5D94E
:10216C0054F14FF5D99000041212235401FFE5D914
:10217C0054FE4FF5D9900005121223B40104D2BFBE
:10218C008002C2BFD2DE22900649E0FBA3E0FAA394
:10219C00E02404F9E43AFA12120A54311212509063
:1021AC000649E0FBA3E0FAA3E0F990000212122327
:1021BC00C39448400FE92404F9E43AFA12120A5481
:1021CC00CF121250ED704F900649E0FBA3E0FAA33A
:1021DC00E0F9900004121223FF900002121223FE69
:1021EC004FF5DA900003121223FFE5F2543F4FF53E
:1021FC00F2900006121317FBAAF090059BEAF0A3CD
:10220C00EBF0C204900592EEF09005A1EAF0A3EB7E
:10221C00F0F5EAEAF5FAED6401704F900649E0FB3F
:10222C00A3E0FAA3E0F9900004121223FF9000023D
:10223C00121223FE4FF5DB900003121223FFE5F37D
:10224C00543F4FF5F3900006121317FBAAF09005BC
:10225C009DEAF0A3EBF0C205900593EEF09005A378
:10226C00EAF0A3EBF0F5EBEAF5FBED6402704F90AE
:10227C000649E0FBA3E0FAA3E0F990000412122354
:10228C00FF900002121223FE4FF5DC900003121295
:10229C0023FFE5F4543F4FF5F4900006121317FD9D
:1022AC00ACF090059FECF0A3EDF0C206900594EE17
:0F22BC00F09005A5ECF0A3EDF0F5ECECF5FC22AD
:1024260090064DECF0A3EDF090064CEFF0705ED305
:10243600EB9464EA940040047A007B64C3EB940155
:10244600EA940050047A007B01C2DE90064DE0FE5D
:10245600A3E0FFAD03AC021212847C007D6412126D
:102466009690059BEEF0A3EFF07C007D64AF03AE83
:1024760002121296C374019FFFE49EFE90064DE081
:10248600FCA3E0FD12128490059502255B90064C94
:10249600E06401705DD3EB9464EA940040047A0032
:1024A6007B64C3EB9401EA940050047A007B01C27A
:1024B600DE7C007D64AF03AE0212129690064DE0FC
:1024C600FCA3E0FD12128490059DEEF0A3EFF07CD4
:1024D600007D64AF03AE02121296C374019FFFE43F
:1024E6009EFE90064DE0FCA3E0FD12128490059737
:1024F600806390064CE064027062D3EB9464EA94C5
:102506000040047A007B64C3EB9401EA9400500413
:102516007A007B01C2DE7C007D64AF03AE0212123C
:102526009690064DE0FCA3E0FD12128490059FEE06
:10253600F0A3EFF0AE02AF037C007D64121296C3E7
:1025460074019FFFE49EFE90064DE0FCA3E0FD12A1
:0D2556001284900599EEF0A3EFF0D2DE2282
:03003B00022D177C
:102D1700C0E0C083C082C0D075D000C006C00730F5
:102D2700D82AC2D830A50590059B8003900595E069
:102D3700FEA3E0FF9005A2E02FF09005A1E03EF092
:102D47009005A1E0FEA3E0F5EAEEF5FA30D92AC234
:102D5700D930A60590059D8003900597E0FEA3E076
:102D6700FF9005A4E02FF09005A3E03EF09005A3A7
:102D7700E0FEA3E0F5EBEEF5FB30DA2AC2DA30A786
:102D87000590059F8003900599E0FEA3E0FF90055D
:102D9700A6E02FF09005A5E03EF09005A5E0FEA384
:102DA700E0F5ECEEF5FCD007D006D0D0D082D0838A
:032DB700D0E03237
:0514F200900651EFF02F
:1014F700E4A3F0900652E0FFC394065046EF75F060
:1015070009A4241CF582E43405F58312148B00002A
:101517000000900652E0FF75F009A42420F582E44C
:101527003405F583E4F0EF75F009A42421F582E48E
:101537003405F58312148B00000000900652E00476
:10154700F080B043BA8012120AB4010543F18080DB
:101557000353F17F900001121223B4011490065136
:10156700E0FF7401A807088002C333D8FC42F1806A
:1015770013900651E0FF7401A807088002C333D80F
:10158700FCF452F1900002121223B4010543F54016
:10159700800353F5BF900003121223B40114900681
:1015A70051E0FF7401A807088002C333D8FC42F555
:1015B7008013900651E0FF7401A807088002C33327
:1015C700D8FCF452F5900004121223B4010575F704
:1015D70020800353F7DF900005121223B40105752D
:1015E700F710800353F7EF900006121223B401059A
:1015F70075F708800353F7F7900007121223B40119
:101607000575F704800353F7FB900008121223B403
:10161700010575F702800353F7FD900009121223A5
:1016270090FFF27006E054EFF08004E04410F09071
:10163700FFF2C083C082E0FF90000A121223FEEF80
:101647004ED082D083F0900651E01460721470037C
:1016570002171914700302176C1470030217BF14D2
:1016670070030218102405600302186790000B121C
:10167700122390FF047006E054F7F08004E044085A
:10168700F090000C12122390FF04B40106E044040A
:10169700F08004E054FBF090000D12122390FF0439
:1016A700B40106E04402F08004E054FDF090000E1F
:1016B70012122390FF04B4010302185D021863900D
:1016C700000B12122390FF147006E054F7F0800409
:1016D700E04408F090000C12122390FF14B40106A6
:1016E700E04404F08004E054FBF090000D12122354
:1016F70090FF14B40106E04402F08004E054FDF0CA
:1017070090000E12122390FF14B4010302185D0219
:10171700186390000B12122390FF247006E054F711
:10172700F08004E04408F090000C12122390FF248C
:10173700B40106E04404F08004E054FBF090000D8F
:1017470012122390FF24B40106E04402F08004E063
:1017570054FDF090000E12122390FF24B4010302EF
:10176700185D02186390000B12122390FF34700665
:10177700E054F7F08004E04408F090000C121223C4
:1017870090FF34B40106E04404F08004E054FBF019
:1017970090000D12122390FF34B40106E04402F0CA
:1017A7008004E054FDF090000E12122390FF34B431
:1017B700010302185D02186390000B12122390FFB9
:1017C700447006E054F7F08004E04408F090000C01
:1017D70012122390FF44B40106E04404F08004E0B1
:1017E70054FBF090000D12122390FF44B40106E061
:1017F7004402F08004E054FDF090000E1212239092
:10180700FF44B40102804F805390000B12122390C3
:10181700FF547006E054F7F08004E04408F09000AD
:101827000C12122390FF54B40106E04404F0800424
:10183700E054FBF090000D12122390FF54B4010600
:10184700E04402F08004E054FDF090000E121223F1
:1018570090FF54B40106E04401F08004E054FEF028
:1018670090000F121223B4010443F5802253F57F31
:01187700224E
:103BB300EF75F009A4241CF582E43405F583E0FCD9
:0A3BC300A3E0FDA3E0FEA3E0FF2253
:103BCD00EF75F009A42421F582E43405F583E0FCBA
:0A3BDD00A3E0FDA3E0FEA3E0FF2239
:10387B00AB07AA06E4FCFD90051C12147F43BA802B
:10388B00E4F9F87F807EC37DC97C0112357712384D
:05389B00C553BA7F22B5
:10290400900615EFF07F337E337D737C3FA3E0F8B0
:10291400A3E0F9A3E0FAA3E0FB1210DE600C400A86
:1029240090061612148B3F7333337FCD7ECC7D4CCF
:102934007C3D900616E0F8A3E0F9A3E0FAA3E0FBDF
:102944001210DE500A90061612148B3D4CCCCD901A
:102954000616E0FCA3E0FDA3E0FEA3E0FF9006154D
:10296400E0FB75F009A42421F582E43405F5831213
:10297400147F43BA80AF03C007EB75F009A4241C8D
:10298400F582E43405F583E0FCA3E0FDA3E0FEA3B7
:10299400E0FFE412114B900616E0F8A3E0F9A3E07F
:1029A400FAA3E0FB120FD81211899005F912147FD3
:0C29B400D007E4FDFC12256353BA7F221B
:0A3E660043BA8043F58053BA7F226F
:0A3E700043BA8053F57F53BA7F2256
:1038A00043BA807401A807088002C333D8FC42F5EC
:1038B000EF75F009A42420F582E43405F583740142
:0538C000F053BA7F2265
:103D1D0043BA80EF75F009A42420F582E43405F54B
:073D2D0083E4F053BA7F228A
:103DCF00EF75F009A42420F582E43405F583E0248F
:023DDF00FF22C1
:1038C500AB07AA06D3E49B74809A4016E4FCFD90EE
:1038D500051C12147F90FFF1EBF0EA90FFF0F07FEA
:0538E50000227F01221A
:10256300EF14604A14607514700302260D1470038F
:1025730002263A1470030226672405600302269795
:1025830090FF01EDF0EC90FF00F09005F9A3A3A3F9
:10259300E090FF03F09005F9E0FCA3E0FDA3E0FE6B
:1025A300A3E0FF780812143C90FF0202269290FFEA
:1025B30011EDF0EC90FF10F09005F9A3A3A3E090C8
:1025C300FF13F09005F9E0FCA3E0FDA3E0FEA3E018
:1025D300FF780812143C90FF1202269290FF21ED1F
:1025E300F0EC90FF20F09005F9A3A3A3E090FF2364
:1025F300F09005F9E0FCA3E0FDA3E0FEA3E0FF7883
:102603000812143C90FF2202269290FF31EDF0EC69
:1026130090FF30F09005F9A3A3A3E090FF33F0906F
:1026230005F9E0FCA3E0FDA3E0FEA3E0FF780812B8
:10263300143C90FF32805890FF41EDF0EC90FF4046
:10264300F09005F9A3A3A3E090FF43F09005F9E010
:10265300FCA3E0FDA3E0FEA3E0FF780812143C9086
:10266300FF42802B90FF51EDF0EC90FF50F090056E
:10267300F9A3A3A3E090FF53F09005F9E0FCA3E0D6
:10268300FDA3E0FEA3E0FF780812143C90FF52EF95
:07269300F07F00227F01220D
:1029C00054696D65723120696E697469616C697AE8
:1029D000696E672073756363656564200A005469D6
:1029E0006D65723120696E697469616C697A696EAE
:1029F00067206661696C6564200A0054696D6572C0
:102A00003320696E697469616C697A696E672073D5
:102A1000756363656564200A0054696D65723320CF
:102A2000696E697469616C697A696E67206661694B
:102A30006C6564200A0054696D65723420696E69A2
:102A40007469616C697A696E672073756363656523
:102A500064200A0054696D65723420696E69746976
:102A6000616C697A696E67206661696C6564200AC9
:012A70000065
:103138004105830241058402420585000042058756
:10314800000042057F000042057D00004105910016
:1031580041057C0041058200410581004405890044
:0A31680000000044058D0000000087
:093E7A0090057FE0FEA3E0FF22A9
:093E830090057DE0FEA3E0FF22A2
:063E9200900591E0FF2203
:063E980090057CE0FF2212
:063E9E00900582E0FF2206
:063EA400900581E0FF2201
:102BC900E490029CF090028CF0A3F0A304F0E4A33B
:102BD900F0A3F0900293F0900291748AF0A374D05C
:102BE900F0E4900294F0A3F0A304F0E4A3F0A3F0BE
:102BF90090029B04F090029974FEF0A374D4F07FC4
:102C090001121B5B90029CEFF070087BFF7A297917
:102C1900C0800A90029CE07BFF7A2979DE123D345C
:102C29007F03121B5B90029CEFF070087BFF7A29EF
:102C390079FB800A90029CE07BFF7A2A7919123D80
:102C4900347B017A0279947F04121B6190029CEF14
:102C5900F070087BFF7A2A7936800A90029CE07B23
:082C6900FF7A2A7954123D3470
:012C71002240
:103B6200EF24FE600C04701390058BECF0A3EDF0D3
:0C3B720022AF0590058FECF0A3EFF022CD
:103BE700EF24FE600804700E90058B800390058F0C
:0A3BF700E0FEA3E0FF22E4FEFF223F
:1038EA00900583E0601EA3E0601AEF24FE600B04DB
:1038FA007012900589ECF0A3EDF0AF0590058DEC00
:05390A00F0A3EFF02224
:103C0100EF24FE600804700E900589800390058DF5
:0A3C1100E0FEA3E0FF22E4FEFF2224
:103D0400EF24FE600A047010C28E9005838006536F
:093D1400D1F79005847402F0223D
:103B0D00EF24FE600D047014900583E07002D32243
:0D3B1D00C322900584E07003D38001C32211
:103A7700EF24FE600E047016900583E0B40102D3B4
:0F3A870022C322900584E0B40103D38001C3223F
:103A9600EF24FE600E047016900583E0B40202D394
:0F3AA60022C322900584E0B40203D38001C3221F
:103A1800AE07123B0D4018EF24FE600B047010D265
:103A28008EE4900583F02243D108E4900584F022C7
:0E3E3400AE07123A775005123A18D322C32275
:03001B000235307B
:10353000C0E0C0F0C083C082C0D075D000C000C061
:1035400006900585E475F0011212EBFED390058A12
:10355000E095F0900589E09E500EC28E900585E4BE
:10356000F0A3F090058304F0D006D000D0D0D08234
:07357000D083D0F0D0E0325F
:03009B000234E844
:1034E800C0E0C0F0C083C082C0D075D000C000C0AA
:1034F80006900587E475F0011212EBFED390058E55
:10350800E095F090058DE09E500F53D1F790058718
:10351800E4F0A3F090058404F0D006D000D0D0D019
:0835280082D083D0F0D0E03224
:0300A300022ED852
:102ED800C0E0C0F0C083C082C0D075D000C000C0C0
:102EE80006C2AF90057FE475F00A1212EBFEC3E547
:102EF800F094E8EE9403405190057FE4F0A3F0903D
:102F0800057D75F0011212EBFEC3E5F094E8EE942E
:102F180003403690057DE4F0A3F0900591E004F0BD
:102F2800943C4025E4F090057CE004F0943C401982
:102F3800E4F0900582E004F09418400DE4F0900568
:102F480081E004F0B4FF02E4F0D2AFD006D000D0A4
:0A2F5800D0D082D083D0F0D0E03258
:061B5B007B017A02798C87
:101B6100AD07EDD3940440037F0122ED707312128F
:101B71000AFED3940340037F0222C28CC2A9C2B9D8
:101B81005389F0538E7F538FFE900002121223B4BB
:101B91000102D2A9900001121223B40102D2B9EEBE
:101BA1004289900003121223FF7003438E80EFB429
:101BB1000203438904900004121223B40103438FEA
:101BC10001900005121317E5F0F58C900005121332
:101BD10017F58A900007121223B40102D28C7F00FC
:101BE10022ED6401707612120AFEC3940340037F52
:101BF1000222C28EC2ABC2BB53890F538EBF538F19
:101C0100FD900002121223B40102D2AB9000011226
:101C11001223B40102D2BBEEC454F04289900003F6
:101C2100121223FF7003438E40EFB4020343894035
:101C3100900004121223B40103438F029000051295
:101C41001317E5F0F58D900005121317F58B900031
:101C510007121223B40102D28E7F0022ED640270BA
:101C610063900003121223FED3940240037F0222E9
:101C7100538EE353AFFB538FFB900002121223B438
:101C8100010343AF04EE7003438E0490000312126C
:101C910023B40203438E08900004121223B40103FB
:101CA100438F04900005121317E5F0F5D690000557
:101CB100121317F5D7900007121223B40103438EB4
:101CC100107F0022ED64037060900003121223FE66
:101CD100D3940240037F022253D1F053AFDF90002F
:101CE10002121223B4010343AF20EE700343D10269
:101CF100900003121223B4020343D1069000041290
:101D01001223B4010343D101900005121317E5F02A
:101D1100F5D4900005121317F5D590000712122380
:101D2100B4010343D1087F0022ED6404705C90008C
:101D310003121223FED3940240037F022253D10FD8
:101D410053AFBF900002121223B4010343AF40EE20
:101D5100700343D120900003121223B4020343D134
:101D610060900004121223B4010343D110900005C6
:101D7100121317FDACF0ECF5D28DD39000071212BF
:0D1D810023B4010343D1807F00227F0222A2
:1008000090029AEBF0A3EAF0A3E9F0900299EFF0DE
:1008100064016003020A1290000004F0E4A3F0A354
:10082000F0A3F0A3F0A3F0A3F090029DF090029D3E
:10083000E0FFC39480501474382FF582E43401F53E
:1008400083E4F090029DE004F080E2E490029DF0E9
:1008500090029DE0FFC394805014741C2FF582E435
:100860003400F583E4F090029DE004F080E2900211
:100870009AE0FBA3E0FAA3E0F912120AD394C04075
:10088000037F022290000A121223B40104D2BC801A
:1008900002C2BC12120AFFE598543F4FF598EF646C
:1008A000C06008EF6440600302098C9000021214DB
:1008B0004F7FE07E707D727C0012138B90029E123F
:1008C000147FE4FFFE7D01FC90029EE0F8A3E0F9B6
:1008D000A3E0FAA3E0FBC312142B40037F02229093
:1008E000029EE0F8A3E0F9A3E0FAA3E0FBC3E49BD7
:1008F000FFE49AFE740199FDE498FC90029E1214A4
:100900007F90029AE0FBA3E0FAA3E0F990000112C5
:100910001223FB64017038C28E538EFE5389BF537D
:1009200089CF438E4090029EE0FCA3E0FDA3E0FE51
:10093000A3E0FF780812143C8F8D90029EA3A3A31E
:10094000E0F58BC2AB5389BF538FFDD28E8076EB1F
:1009500064027035538EEF438E01538EF7438E043D
:1009600090029EE0FCA3E0FDA3E0FEA3E0FF780878
:1009700012143C8FD690029EA3A3A3E0F5D753AFE9
:10098000FB538EF7438E10803C7F022290029AE048
:10099000FBA3E0FAA3E0F912120AFF70139000081B
:1009A000121223B40105438E20801A538EDF801566
:1009B000EFB48011900008121223B4010543878020
:1009C000800353877F90029AE0FBA3E0FAA3E0F94B
:1009D000900009121223B40104D2AC8002C2AC9080
:1009E0000007121223B40104D29C8002C29C900022
:1009F0000B12122354C0FFE5A2543F4FF5A2900002
:100A00000C121223B4010543971080035397EF7F14
:100A10000022900299E064026003020B74900007C8
:100A20007402F0E4A3F0A3F0A3F0A3F0A3F0A3F00A
:100A300090029DF090029DE0FFC39480501474D406
:100A40002FF582E43401F583E4F090029DE004F098
:100A500080E2E490029DF090029DE0FFC3948050FC
:100A600014749C2FF582E43400F583E4F090029D29
:100A7000E004F080E290029AE0FBA3E0FAA3E0F940
:100A800012120AFF64C06008EF64406003020B3476
:100A900090000A121223B4010543B501800353B537
:100AA000FE12120AB4C005439A808003539A7F90C5
:100AB000000212144F7FE07E707D727C0012138B57
:100AC00090029E12147FE4FFFE7D01FC90029EE0E6
:100AD000F8A3E0F9A3E0FAA3E0FBC312142B400350
:100AE0007F022290029EE0F8A3E0F9A3E0FAA3E0DF
:100AF000FBC3E49BFFE49AFE740199FDE498FC902B
:100B0000029E12147F538EEF538EF7438E04900291
:100B10009EE0FCA3E0FDA3E0FEA3E0FF7808121432
:100B20003C8FD690029EA3A3A3E0F5D753AFFB431F
:100B30008E1080037F022290029AE0FBA3E0FAA3CA
:100B4000E0F9900009121223B4010543AF018003BC
:100B500053AFFE900007121223B40105439A108090
:100B600003539AEF90000B1212235401FFE5BA547D
:100B7000FE4FF5BA900299E064036003020D2790DE
:100B8000000E7402F0E4A3F0A3F0A3F0A3F0A3F02E
:100B9000A3F090029DF090029DE0FFC3941C5014BE
:100BA00074542FF582E43402F583E4F090029DE062
:100BB00004F080E2E490029DF090029DE0FFC39477
:100BC0001C5014741C2FF582E43401F583E4F0907A
:100BD000029DE004F080E290029AE0FBA3E0FAA319
:100BE000E0F912120AFF64C06008EF64406003027B
:100BF0000CE753ACDFEFB4C00543AC80800353ACCB
:100C00007F90029AE0FBA3E0FAA3E0F990000212C1
:100C1000144F7FE07E707D727C0012138B90029ED9
:100C200012147FE4FFFE7D01FC90029EE0F8A3E039
:100C3000F9A3E0FAA3E0FBC312142B40037F0222C6
:100C400090029EE0F8A3E0F9A3E0FAA3E0FBC3E47E
:100C50009BFFE49AFE740199FDE498FC90029E12B9
:100C6000147F90029AE0FBA3E0FAA3E0F990000160
:100C7000121223FB6402703253ACBF538EEF538EBB
:100C8000F7438E0490029EE0FCA3E0FDA3E0FEA3E8
:100C9000E0FF780812143C8FD690029EA3A3A3E035
:100CA000F5D753AFFB438E108040EB6401703543A2
:100CB000AC4053D1F053AFDF43D10253D1FB53D1FA
:100CC000FE90029EE0FCA3E0FDA3E0FEA3E0FF781F
:100CD0000812143C8FD490029EA3A3A3E0F5D54341
:100CE000D10880067F02227F022290029AE0FBA3B5
:100CF000E0FAA3E0F9900009121223B4010543AF12
:100D000008800353AFF7900007121223B401054384
:100D1000AC10800353ACEF90000B1212235402FF6F
:100D2000E5BA54FD020ED7900299E0640460030214
:100D30000EDD9000157402F0E4A3F0A3F0A3F0A37D
:100D4000F0A3F0A3F090029DF090029DE0FFC39409
:100D50001C501474702FF582E43402F583E4F09093
:100D6000029DE004F080E2E490029DF090029DE09C
:100D7000FFC3941C501474B82FF582E43401F5833A
:100D8000E4F090029DE004F080E290029AE0FBA380
:100D9000E0FAA3E0F912120AFF64C06008EF6440B1
:100DA0006003020E9A5384DFEFB4C0054384808051
:100DB0000353847F90029AE0FBA3E0FAA3E0F9904A
:100DC000000212144F7FE07E707D727C0012138B44
:100DD00090029E12147FE4FFFE7D01FC90029EE0D3
:100DE000F8A3E0F9A3E0FAA3E0FBC312142B40033D
:100DF0007F022290029EE0F8A3E0F9A3E0FAA3E0CC
:100E0000FBC3E49BFFE49AFE740199FDE498FC9017
:100E1000029E12147F90029AE0FBA3E0FAA3E0F98D
:100E2000900001121223FB640270325384BF538E70
:100E3000EF538EF7438E0490029EE0FCA3E0FDA3E7
:100E4000E0FEA3E0FF780812143C8FD690029EA328
:100E5000A3A3E0F5D753AFFB438E108040EB6402B1
:100E6000703543844053D10F53AFBF43D12053D18A
:100E7000BF53D1EF90029EE0FCA3E0FDA3E0FEA3F0
:100E8000E0FF780812143C8FD290029EA3A3A3E047
:100E9000F5D343D18080067F02227F022290029AFE
:100EA000E0FBA3E0FAA3E0F9900009121223B401D9
:100EB0000543AF10800353AFEF900007121223B425
:100EC000010543841080035384EF90000B1212231A
:0F0ED0005404FFE5BA54FB4FF5BA7F00227F03AD
:010EDF0022F0
:10380900900002E02438F582E43401F583EFF0906A
:103819000002E004F0C394804002E4F0900003E069
:07382900700404F0D29922A3
:10374300900009E024D4F582E43401F583EFF0908E
:103753000009E004F0C394804002E4F090000AE022
:08376300700504F0439A0222F4
:10376B00900010E02454F582E43402F583EFF090DE
:10377B000010E004F0C3941C4002E4F0900011E050
:08378B00700504F043AC0222BA
:10379300900017E02470F582E43402F583EFF09093
:1037A3000017E004F0C3941C4002E4F0900018E01A
:0837B300700504F043840222BA
:103D3400C2AF12120AFF600C123809740129F9E4A7
:073D44003AFA80EED2AF2233
:103D720012120AFF600C123743740129F9E43AFA6D
:033D820080EE22AE
:103D850012120AFF600C12376B740129F9E43AFA32
:033D950080EE229B
:103D980012120AFF600C123793740129F9E43AFAF7
:033DA80080EE2288
:0300230002317334
:10317300C0E0C083C082C0D075D000C006C0073095
:10318300982DC298900006E07025900004E0C39447
:10319300804002E4F0900004E0FF04F0741C2FF57B
:1031A30082E43400F583E599F09000057405F0306E
:1031B3009930C299900002E0FF900001E0FE6F6039
:1031C3001C74382EF582E43401F583E0F599900000
:1031D30001E004F0C394804009E4F080059000030B
:0F31E300E4F0D007D006D0D0D082D083D0E03235
:03004300022F6227
:102F6200C0E0C083C082C0D075D000C006C007E5F3
:102F72009A30E02E539AFE90000DE0702590000BDF
:102F8200E0C394804002E4F090000BE0FF04F07490
:102F92009C2FF582E43400F583E59BF090000C74DD
:102FA20005F0E59A30E131539AFD900009E0FF9077
:102FB2000008E0FE6F601C74D42EF582E43401F543
:102FC20083E0F59B900008E004F0C394804009E49C
:102FD200F0800590000AE4F0D007D006D0D0D0826D
:052FE200D083D0E032B5
:03008B00022FE75A
:102FE700C0E0C083C082C0D075D000C006C007E56E
:102FF700AC30E02E53ACFE900014E0702590001228
:10300700E0C3941C4002E4F0900012E0FF04F07467
:103017001C2FF582E43401F583E5ADF090001374BD
:1030270005F0E5AC30E13153ACFD900010E0FF90C6
:10303700000FE0FE6F601C74542EF582E43402F535
:1030470083E0F5AD90000FE004F0C3941C4009E461
:10305700F08005900011E4F0D007D006D0D0D082E0
:05306700D083D0E0322F
:0300930002306CCC
:10306C00C0E0C083C082C0D075D000C006C007E5E8
:10307C008430E02E5384FE90001BE07025900019E4
:10308C00E0C3941C4002E4F0900019E0FF04F074DB
:10309C00B82FF582E43401F583E585F090001A74BD
:1030AC0005F0E58430E1315384FD900017E0FF908A
:1030BC000016E0FE6F601C74542EF582E43402F5A9
:1030CC0083E0F585900016E004F0C3941C4009E4FD
:1030DC00F08005900018E4F0D007D006D0D0D08254
:0530EC00D083D0E032AA
:0E3E4200E4F5C7F5C5F5C675C3FF75C4FF22CC
:1035BB00AD07AC06C2AF75C78075C501ECF5C3AFDF
:1035CB00058FC475C65A75C6A500E5C21212500DFB
:1035DB00BD00010C740129F9E43AFA90060274FF5C
:0F35EB00F5F01212EB45F070D3123E42D2AF2230
:103A3800AD07AC06C2AFECF5C3AF058FC475C78040
:103A480075C50375C65A75C6A500123E42D2AF2287
:1035FA00AD07AC06C2AF75C78075C502ECF5C3AF9F
:10360A00058FC412120AF5C275C65A75C6A5000DF1
:10361A00BD00010C740129F9E43AFA90060974FF15
:0F362A00F5F01212EB45F070D3123E42D2AF22F0
:1022CB00AB07EB75F039A424AAF582E43404F5834B
:1022DB0012148B428C0000EB75F039A424AEF582FE
:1022EB00E43404F58312148B41F00000EB75F039E4
:1022FB00A424B2F582E43404F58312148B0000009D
:10230B0000EB75F039A424B6F582E43404F583129E
:10231B00148B00000000EB75F039A424CAF582E49D
:10232B003404F58312148B00000000EB75F039A414
:10233B0024C6F582E43404F58312148B00000000EC
:10234B009005CAE0FCA3E0FDA3E0FEA3E0FFEB7564
:10235B00F039A424BAF582E43404F58312147F9087
:10236B0005CEE0FCA3E0FDA3E0FEA3E0FFEB75F0E0
:10237B0039A424BEF582E43404F58312147F90054E
:10238B00D2E0FCA3E0FDA3E0FEA3E0FFEB75F03988
:10239B00A424C2F582E43404F58312147FEB75F0A8
:1023AB0039A424BAF582E43404F583E0FCA3E0FD00
:1023BB00A3E0FEA3E0FFEB75F039A424D2F582E491
:1023CB003404F58312147FEB75F039A424BEF58227
:1023DB00E43404F583E0FCA3E0FDA3E0FEA3E0FFFF
:1023EB00EB75F039A424CEF582E43404F583121492
:1023FB007FEB75F039A424C2F582E43404F583E055
:10240B00FCA3E0FDA3E0FEA3E0FFEB75F039A424F1
:0B241B00D6F582E43404F58302147F40
:103DE100EF75F039A424E2F582E43404F58374011B
:023DF100F022BE
:103DF300EF75F039A424E2F582E43404F583E4F0AA
:013E0300229C
:101D8E00900656EFF075F039A424E2F582E434049F
:101D9E00F583E07003021F67900656E0FF75F03979
:101DAE00A424AEF582E43404F583E0F8A3E0F9A3AD
:101DBE00E0FAA3E0FBEF75F039A424AAF582E4342F
:101DCE0004F583E0FCA3E0FDA3E0FEA3E0FF120E0A
:101DDE00E3900656E0FB75F039A424B2F582E434A4
:101DEE0004F58312147FEB75F039A424C6F582E452
:101DFE003404F583C083C082E0FCA3E0FDA3E0FEC3
:101E0E00A3E0FF900656E075F039A424B2F582E403
:101E1E003404F583E0F8A3E0F9A3E0FAA3E0FB12A3
:101E2E000EE7D082D08312147F900656E0FF75F035
:101E3E0039A424C6F582E43404F583E0F8A3E0F96E
:101E4E00A3E0FAA3E0FBEF75F039A424BEF582E41B
:101E5E003404F583E0FCA3E0FDA3E0FEA3E0FF1253
:101E6E000FD8C004C005C006C007900656E0FF7527
:101E7E00F039A424B2F582E43404F583E0F8A3E04B
:101E8E00F9A3E0FAA3E0FBEF75F039A424BAF582CA
:101E9E00E43404F583E0FCA3E0FDA3E0FEA3E0FF41
:101EAE00120FD8D003D002D001D000120EE7C0041A
:101EBE00C005C006C007900656E0FF75F039A42491
:101ECE00B6F582E43404F583E0F8A3E0F9A3E0FA72
:101EDE00A3E0FBEF75F039A424B2F582E43404F5E7
:101EEE0083E0FCA3E0FDA3E0FEA3E0FF120EE3906F
:101EFE000656E075F039A424C2F582E43404F58365
:101F0E00E0F8A3E0F9A3E0FAA3E0FB120FD8D003A8
:101F1E00D002D001D000120EE7900656E0FB75F00D
:101F2E0039A424CAF582E43404F58312147FEB75C8
:101F3E00F039A424B2F582E43404F583E0FCA3E086
:101F4E00FDA3E0FEA3E0FFEB75F039A424B6F58205
:0A1F5E00E43404F58312147FD3224B
:10393100AB0790061BE0FCA3E0FDA3E0FEA3E0FFC4
:10394100EB75F039A424DEF582E43404F583021426
:013951007FF6
:10395200AB07900620E0FCA3E0FDA3E0FEA3E0FF9E
:10396200EB75F039A424DAF582E43404F583021409
:013972007FD5
:10397300AB07900625E0FCA3E0FDA3E0FEA3E0FF78
:10398300EB75F039A424AEF582E43404F583021414
:013993007FB4
:10399400AB0790062AE0FCA3E0FDA3E0FEA3E0FF52
:1039A400EB75F039A424BEF582E43404F5830214E3
:0139B4007F93
:1039B500AB0790062FE0FCA3E0FDA3E0FEA3E0FF2C
:1039C500EB75F039A424BAF582E43404F5830214C6
:0139D5007F72
:1039D600AB07900634E0FCA3E0FDA3E0FEA3E0FF06
:1039E600EB75F039A424C2F582E43404F58302149D
:0139F6007F51
:1039F700AB07900639E0FCA3E0FDA3E0FEA3E0FFE0
:103A0700EB75F039A424AAF582E43404F583021493
:013A17007F2F
:103C1B00EF75F039A424AAF582E43404F583E0FCB3
:0A3C2B00A3E0FDA3E0FEA3E0FF22EA
:103C3500EF75F039A424B2F582E43404F583E0FC91
:0A3C4500A3E0FDA3E0FEA3E0FF22D0
:103C4F00EF75F039A424B6F582E43404F583E0FC73
:0A3C5F00A3E0FDA3E0FEA3E0FF22B6
:103C6900EF75F039A424BAF582E43404F583E0FC55
:0A3C7900A3E0FDA3E0FEA3E0FF229C
:103C8300EF75F039A424BEF582E43404F583E0FC37
:0A3C9300A3E0FDA3E0FEA3E0FF2282
:103C9D00EF75F039A424C2F582E43404F583E0FC19
:0A3CAD00A3E0FDA3E0FEA3E0FF2268
:103CB700EF75F039A424CAF582E43404F583E0FCF7
:0A3CC700A3E0FDA3E0FEA3E0FF224E
:103CD100EF75F039A424C6F582E43404F583E0FCE1
:0A3CE100A3E0FDA3E0FEA3E0FF2234
:1019EA00EFD3940940037FFF2274232F2FF8E620B8
:1019FA00E5F4C2AFE64430F6D2AFAE0CEEC39F5068
:101A0A00210E740E2EF8E6F908E618BE090274FFD4
:101A1A00FDED69600909E71919F7090980F3161636
:101A2A0080DAEED39F400405810581EED39F4022E0
:101A3A00740E2EF808E6F9EEB50C02A9811806060E
:101A4A00E6FDED6960091919E70909F71980F31E1E
:101A5A0080D9EF240EF8E604F8EF2F04903D4B935B
:091A6A00F608EF2F93F67F00222D
:101A7300EFD3940940037FFF22EF232423F8E630BA
:101A8300E5F4C2AFE6548CF6D2AFE50CB5070A74A1
:101A93000E2FF8E6F5810218F3502E740F2FF8E697
:101AA300BF090274FFFD18E6F9740E2FF8FBE6FC7C
:101AB300E96C6008A805E7F61D1980F4A803A605DC
:101AC3001FE50CB507E37F0022740F2FF8E6FD181E
:101AD30086010F740E2FF8A601088604E50CB507DE
:101AE30002AC81ED6C60080D09A805E6F780F4E50A
:091AF3000CB507DE89817F002299
:101AFC008FF0E4FFFEE50C232422F8C2A930F70D89
:101B0C007F08E6600B2DF660325030800730F1060E
:101B1C00EDF660277E020830F010C2AFE610E72524
:101B2C000E30E20CD2AF7F048014C2AFE610E71582
:101B3C0054EC4EF6D2AFD2A90218F37F0808EF444A
:0F1B4C0083F4C2AF56C6D2AFD2A954804FFF2246
:100EE0000211F5E86480F8E933E83360110460F03A
:100EF000ED33EC337009E8FCE9FDEAFEEBFF220478
:100F000060DED3EB9FEA9EE99DE8C2E78CF0C2F772
:100F100095F0400CE8CCF8E9CDF9EACEFAEBCFFB3E
:100F20001211C085D0F05804700320D5B3E80470C6
:100F3000075002B2D50211FF92D5EC0460F7E4CC61
:100F4000C0E0C398F8603B94186008400DD0E0FB07
:100F50000211D7E4FBFAC9FC8028E830E406E4C9B2
:100F6000FBE4CAFCE830E305E4C9CACBFCE854075B
:100F70006010F8C3E913F9EA13FAEB13FBEC13FC66
:100F8000D8F130F52FC3E49CFCEF9BFFEE9AFEED09
:100F900099FDD0E0FBEF4E4D4C701222DB030211A5
:100FA000FCEC2CFCEF33FFEE33FEED33FDED30E7D0
:100FB000EB0211D7EF2BFFEE3AFEED39FDD0E0FB4F
:100FC00050130BBB00030211FFED13FDEE13FEEFF8
:080FD00013FFEC13FC0211D722
:100FD800EC4D6011E8497017ED33EC3304600DE413
:100FE800FCFFFEFD22E933E8330470F80211F51224
:100FF80011C058046009E4CC248150062850090225
:1010080011FF2840030211FCC0E0EB4A7044B9808C
:1010180006D0E0FB0211EBEF4E701CBD8008EBFF21
:10102800EAFEE9FD80EBE98DF0A4FEE5F00210C1CF
:10103800E9CDF9EAFEEBFFEF89F0A4FCE5F0CE89F3
:10104800F0A42EFFE435F0CD89F0A42DFEE435F0B0
:101058008067EF4E7005BD80D780C3EF8BF0A4ACDE
:10106800F0EE8BF0A42CFCE435F0F8EF8AF0A42C19
:10107800E5F038FCE433CB8DF0A42CFCE5F03BF82C
:10108800EE8AF0A42CFCE5F038F8E433CF89F0A41C
:101098002CFCE5F038CF3400CE89F0A42FFFE5F022
:1010A8003EFEE433C98DF0A42EFEE5F039CD8AF07A
:1010B800A42FFFE5F03EFEE43DFD33D0E0FB5007F2
:1010C8000BBB000F0211FFEC2CFCEF33FFEE33FEDD
:0610D800ED33FD0211D70B
:1010DE0074F8CC6480CCC86480C8F582046043C3C5
:1010EE00EB9FF5F0EA9E42F0E99D42F0E89C45F058
:1010FE0060305018E5825FFFE582F42B5582FB507D
:10110E00210ABA001D09B90019088016E5825BFB99
:10111E00E582F42F5582FF50090EBE00050DBD006D
:10112E00010CC3EB9FF5F0EA9E42F0E99D42F0E818
:0D113E009C45F06007CC4820E701B3EC228F
:10114B0075F020800E75F010800575F0087D007E1F
:10115B00007F003392D530D50312141DEC334010B1
:10116B00EF33FFEE33FEED33FDEC33FCD5F0ED2228
:0E117B00E5F0247EA2D513CC92E7CDCEFF2264
:10118900EDD2E7CD33EC3392D524814006E4FFFE5E
:10119900FDFC22FCE4CFCECDCC24E0501174FF80BD
:1011A900EDC3CC13CCCD13CDCE13CECF13CF04705A
:0711B900F030D5DE02141D29
:1011C000E9D2E7C933E833F892D5EDD2E7CD33EC75
:0711D00033FC5002B2D522EE
:1011D700EC30E7100FBF000C0EBE00080DBD000479
:1011E7000BEB6014A2D5EB13FCED92E7FD2274FF25
:1011F700FCFDFEFF22E480F8A2D574FF13FC7D807E
:03120700E480EF91
:03000000022E4C81
:0C2E4C00787FE4F6D8FD758135022E93E6
:10120A00BB010689828A83E0225002E722BBFE02E2
:09121A00E32289828A83E4932215
:10122300BB010CE58229F582E5833AF583E0225080
:1012330006E92582F8E622BBFE06E92582F8E222CA
:0D124300E58229F582E5833AF583E49322E4
:10125000BB010689828A83F0225002F722BBFE017D
:02126000F32277
:10126200F8BB010DE58229F582E5833AF583E8F0C2
:10127200225006E92582C8F622BBFE05E92582C86E
:02128200F22256
:10128400EF8DF0A4A8F0CF8CF0A428CE8DF0A42E7E
:02129400FE2238
:10129600BC000BBE0029EF8DF084FFADF022E4CC3C
:1012A600F875F008EF2FFFEE33FEEC33FCEE9DEC05
:1012B600984005FCEE9DFE0FD5F0E9E4CEFD22ED4B
:1012C600F8F5F0EE8420D21CFEADF075F008EF2F95
:1012D600FFED33FD4007985006D5F0F222C398FD86
:0512E6000FD5F0EA2223
:1012EB00C5F0F8A3E028F0C5F0F8E582158270028E
:0612FB001583E038F0222B
:10130100A3F8E0C5F025F0F0E5821582700215839F
:06131100E0C838F0E822FC
:10131700BB0110E58229F582E5833AF583E0F5F014
:10132700A3E0225009E92582F886F008E622BBFEF1
:101337000AE92582F8E2F5F008E222E5832AF58337
:08134700E993F5F0A3E99322FC
:10134F0075F008758200EF2FFFEE33FECD33CDCC55
:10135F0033CCC58233C5829BED9AEC99E5829840D8
:10136F000CF582EE9BFEED9AFDEC99FC0FD5F0D6B5
:10137F00E4CEFBE4CDFAE4CCF9A88222B800C1B9DF
:10138F000059BA002DEC8BF084CFCECDFCE5F0CB1D
:10139F00F97818EF2FFFEE33FEED33FDEC33FCEB56
:1013AF0033FB10D703994004EB99FB0FD8E5E4F911
:1013BF00FA227818EF2FFFEE33FEED33FDEC33FCFE
:1013CF00C933C910D7059BE99A4007EC9BFCE99AF2
:1013DF00F90FD8E0E4C9FAE4CCFB2275F010EF2F37
:1013EF00FFEE33FEED33FDCC33CCC833C810D70737
:1013FF009BEC9AE899400AED9BFDEC9AFCE899F872
:0E140F000FD5F0DAE4CDFBE4CCFAE4C8F92204
:10357700C2D5E830E70FB2D5E4C39BFBE49AFAE47F
:1035870099F9E498F8EC30E717B2D51235AD121374
:103597008BE4C39BFBE49AFAE499F9E498F8800377
:1035A70012138B30D50DE4C39FFFE49EFEE49DFD0F
:0435B700E49CFC2272
:0E141D00C3E49FFFE49EFEE49DFDE49CFC22E0
:10142B00EB9FF5F0EA9E42F0E99D42F0E89C45F017
:01143B00228E
:10143C00E8600FECC313FCED13FDEE13FEEF13FF8E
:03144C00D8F122B2
:10144F00BB010DE58229F582E5833AF5830214C9C4
:10145F005007E92582F80214BCBBFE07E92582F884
:10146F000214D5E58229F582E5833AF5830214E269
:0C147F00ECF0A3EDF0A3EEF0A3EFF022E0
:10148B00A8828583F0D083D0821214A21214A212E8
:10149B0014A21214A2E473E493A3C583C5F0C5830D
:1014AB00C8C582C8F0A3C583C5F0C583C8C582C8AB
:0114BB00220E
:102E58000219ADE493A3F8E493A34003F68001F2CA
:102E680008DFF48029E493A3F85407240CC8C3337B
:102E7800C4540F4420C8834004F456800146F6DF4A
:102E8800E4800B01020408102040809030F1E47EB9
:102E9800019360BCA3FF543F30E509541FFEE4933F
:102EA800A360010ECF54C025E060A840B8E493A306
:102EB800FAE493A3F8E493A3C8C582C8CAC583CA31
:102EC800F0A3C8C582C8CAC583CADFE9DEE780BEE9
:01317200005C
:0D14BC00E6FB08E6F908E6FA08E6CBF822A0
:0C14C900E0F8A3E0F9A3E0FAA3E0FB22A6
:0D14D500E2FB08E2F908E2FA08E2CBF82297
:1014E200E493F8740193F9740293FA740393FB2260
:00000001FF
