:0281140082A93E
:028116007306EE
:028118006D9B5D
:02811A006A7B7E
:02811C008437A6
:02811E007D23BF
:028120005B1CE6
:028122006FF2FA
:02812400768162
:0281280081BD17
:02812C004CA85D
:10823700627574746F6E203100627574746F6E208E
:03824700322000E2
:1082A900126DF67F04127B157F0C12369CE4FF02D7
:0282B900372567
:10730600E4FDFF12775390044C7401F01254637D30
:1073160001E4FF12775390044C7402F01254637D1B
:1073260002E4FF12775390044C7403F01254637F07
:10733600031277B7E4FBFA7D1E7F021237AE80C0D8
:106D9B00E4FDFF127753120B49AB07AA069002C40E
:106DAB007404F0E4FDFF126B4D7D01E4FF12775389
:106DBB00120B49AB07AA069002C47404F07D01E4E0
:106DCB00FF126B4D7D02E4FF127753120B49AB0799
:106DDB00AA069002C47404F07D02E4FF126B4DE42A
:0B6DEB00FBFA7D1E7F021237AE80A570
:106A7B00E4FF127E56AC06AD07E4120B1090044CEB
:106A8B007401F01254637F01127E56AC06AD07E41D
:106A9B00120B1090044C7402F01254637F02127E9E
:106AAB0056AC06AD07E4120B1090044C7403F012B5
:106ABB0054637F03127E56AC06AD07E4120B1090A5
:106ACB00044C7404F01254637F041277B7E4FBFA9E
:096ADB007D1E7F021237AE809788
:107681007F02127F58EF600B7DC87C007FD07E07A0
:10769100125CB97F03127F58EF6003127C607F0494
:1076A100127F58EF6003127C81E4FBFA7D0A7F02AE
:0576B1001237AE80CB92
:0F8437001275DDE4FBFA7D057F021237AE80F18E
:106FF200E4FF127F58EF601A7BFF7A8279377D01B6
:10700200E4FF126EAFE4FBFA7DC87F021237AE12C4
:107012007C3F7F01127F58EF601A7BFF7A827940B2
:107022007D01E4FF126EAFE4FBFA7DC87F021237E6
:10703200AE127C3FE4FBFA7D057F021237AE80B0D0
:107D2300E4FF12809290044C7401F01254637F01BB
:0F7D33001277B7E4FBFA7D1E7F021237AE80E1B4
:105B1C0090033E1211D3000000009003421211D3E7
:105B2C0000000000E4900346F0E4FF127D80E4FBEB
:105B3C00FA7D047F021237AEE4FF128223AC06AD6D
:105B4C0007E4120B10C004C005C006C0079003C7C1
:105B5C001211D33727C5AC9003CB1211D3404000A0
:105B6C00009003CF1211D33F800000D007D006D095
:105B7C0005D004124E159003BF1211C77F667ECF5D
:105B8C007D8B7C369003BFE0F8A3E0F9A3E0FAA389
:105B9C00E0FB1208F890033E1211C7E4FFFE7DAA49
:105BAC007C4390033EE0F8A3E0F9A3E0FAA3E0FB0A
:105BBC001208F8E4FBFAF97840120A019003421239
:105BCC0011C7900342E0FCA3E0FDA3E0FEA3E0FFBD
:0E5BDC009003C41211C7E4FF127CA2025B35D5
:104CA800E4900447F0E4900447F0E4FF127D80E4C8
:104CB800FBFA7D047F021237AEE4FF128223AC06B2
:104CC800AD07E4120B109003EF1211C790044C12B9
:104CD80011D345BB80009003EFE0FCA3E0FDA3E007
:104CE800FEA3E0FF126C179003EB1211C79003EBC1
:104CF800E0FCA3E0FDA3E0FEA3E0FF90044C747881
:104D0800F01265169003EB1211C79003EBE0FCA3B9
:104D1800E0FDA3E0FEA3E0FF125E299003EB121171
:104D2800C79003EBE0FCA3E0FDA3E0FEA3E0FF9047
:104D38000447E025E025E024F3F582E43403F58315
:104D48001211C7900447E004F0E0C3941450030222
:104D58004CB27B017A0379F390044C1211D3477F4C
:104D6800FF009004501211D3000000007D1412427D
:104D7800BF9004431211C79003EFE0FCA3E0FDA32A
:104D8800E0FEA3E0FF90044C7401F0125463900419
:104D980043E0FCA3E0FDA3E0FEA3E0FF90044C7415
:104DA80002F01254637F737EAF7DB97C3A9003EFB3
:104DB800E0F8A3E0F9A3E0FAA3E0FB1208F8E4FBAB
:104DC800FAF97840120A0190044C7403F012546303
:104DD8007F737EAF7DB97C3A900443E0F8A3E0F995
:104DE800A3E0FAA3E0FB1208F8E4FBFAF978401212
:104DF8000A0190044C7404F01254637F041277B7CC
:0D4E0800E4FBFA7D1E7F021237AE024CADB6
:1081BD00125328EF60031284CBE4FBFA7D057F0296
:0581CD001237AE80EB4B
:10716600535443313577346B353873342773205590
:1071760041525431206973206F70656E200D0A00EC
:1071860074686973206973206120746573740D0ACD
:107196000025642D25642D25642D2564200D0A0007
:0771A60048656C6C6F2100CD
:1076B6009002907440F0A37401F0A31211C79002D7
:1076C600977401F0E4A3F0A304F0A3F0E4A3F0A3FD
:1076D600F07B017A0279907F0112130D7BFF7A719C
:0576E6007966028190AD
:106C7A00E4FF1200007BFF7A7179861231F07F08F7
:106C8A009000007401F0A3DFFC7F081200007BFF74
:106C9A007A717997900000E0FF900741E4F0A3EF42
:106CAA00F0900000E0FF900743E4F0A3EFF09000BB
:106CBA0000E0FF900745E4F0A3EFF0900000E0FF4A
:106CCA00900747E4F0A3EFF01231F07FC81284274F
:026CDA0080B97F
:106DF6007F807E257D007C001276B61267B51278FC
:106E0600FC1272C37BFF7A7179A6E4FDFF126EAFA6
:106E1600E4FBFA7DFA7F021237AE127C3F128179CB
:106E2600127AA9E4FD7F01127F201280781271F494
:106E3600E4FF128327E4FF1283157F011283157F77
:096E4600021283157F030283157B
:0185D3002285
:0185D4002284
:0185D5002283
:0185D6002282
:0185D7002281
:0C59770044047B00000000420613000006
:0E42BF00900448EBF0A3EAF0A3E9F0A3EDF0C1
:1042CD009004551211D300000000900450E0FCA39F
:1042DD00E0FDA3E0FEA3E0FF9004591211C7900486
:1042ED004CE0FCA3E0FDA3E0FEA3E0FF90045D1213
:1042FD0011C7E4900454F090044BE0FF900454E097
:10430D00C39F40030243EF900448E0FBA3E0FAA3F0
:10431D00E0F9900454E075F004A4F58285F0831261
:10432D001167900459E0F8A3E0F9A3E0FAA3E0FBCC
:10433D00120A9E5021900448E0FBA3E0FAA3E0F995
:10434D00900454E075F004A4F58285F08312116792
:10435D009004591211C7900448E0FBA3E0FAA3E0C2
:10436D00F9900454E075F004A4F58285F0831211E0
:10437D006790045DE0F8A3E0F9A3E0FAA3E0FB1277
:10438D000A9E60234021900448E0FBA3E0FAA3E0DD
:10439D00F9900454E075F004A4F58285F0831211B0
:1043AD006790045D1211C7900455E0FCA3E0FDA3D6
:1043BD00E0FEA3E0FF900448E0FBA3E0FAA3E0F9E0
:1043CD00900454E075F004A4F58285F083121197E2
:1043DD001208079004551211C7900454E004F0021E
:1043ED004304900455E0FCA3E0FDA3E0FEA3E0FF31
:1043FD00C004C005C006C00790045DE0FCA3E0FD4D
:10440D00A3E0FEA3E0FF900459E0F8A3E0F9A3E0D8
:10441D00FAA3E0FB120807A804A905AA06AB07D06A
:10442D0007D006D005D0041208039004551211C709
:10443D00900455E0FCA3E0FDA3E0FEA3E0FFC00463
:10444D00C005C006C00790044BE024FEFDE434FF18
:10445D00FCE4120B10A804A905AA06AB07D007D0DF
:10446D0006D005D004120A019004551211C790040C
:0C447D0055E0FCA3E0FDA3E0FEA3E0FF7F
:014489002210
:064E15009003C31211C757
:104E1B009003CBE0FCA3E0FDA3E0FEA3E0FF900337
:104E2B00D31211C79003C7E0FCA3E0FDA3E0FEA3E0
:104E3B00E0FF9003D71211C7900473E0FCA3E0FDD1
:104E4B00A3E0FEA3E0FF9003DB1211C7900473E015
:104E5B00FCA3E0FDA3E0FEA3E0FF9003DB1211C770
:104E6B009003D7E0FCA3E0FDA3E0FEA3E0FF9004DA
:104E7B0077E0F8A3E0F9A3E0FAA3E0FB12080790B0
:104E8B0003E31211C79003D3E0FCA3E0FDA3E0FE04
:104E9B00A3E0FF9003E3E0F8A3E0F9A3E0FAA3E0BB
:104EAB00FB120807A804A905AA06AB079003E3E0C9
:104EBB00FCA3E0FDA3E0FEA3E0FF120A019003E7D1
:104ECB001211C79003DBE0F8A3E0F9A3E0FAA3E02B
:104EDB00FB9003C3E0FCA3E0FDA3E0FEA3E0FF1205
:104EEB0008039003E7E0F8A3E0F9A3E0FAA3E0FBE3
:104EFB001208F89003DBE0F8A3E0F9A3E0FAA3E0D3
:104F0B00FB1208079003DF1211C79003E7E0F8A329
:104F1B00E0F9A3E0FAA3E0FBE4FFFE7D807C3F1207
:104F2B0008039003E3E0F8A3E0F9A3E0FAA3E0FBA6
:104F3B001208F89004771211C79003DFE0FCA3E08E
:104F4B00FDA3E0FEA3E0FF9004731211C79003DFF3
:0B4F5B00E0FCA3E0FDA3E0FEA3E0FFEC
:014F66002228
:066C17009004481211C7B1
:106C1D0090047BE0F8A3E0F9A3E0FAA3E0FB900475
:106C2D0048E0FCA3E0FDA3E0FEA3E0FF1208031281
:106C3D0084A690044CE0F8A3E0F9A3E0FAA3E0FBEE
:106C4D00120A9E500590047B8017900448E0FCA327
:106C5D00E0FDA3E0FEA3E0FF90047B1211C79004BA
:0C6C6D0048E0FCA3E0FDA3E0FEA3E0FF74
:016C790022F8
:065E29009004481211C7AD
:105E2F0090044D1211D300000000900448E0FCA331
:105E3F00E0FDA3E0FEA3E0FF90060F1211C7E49070
:105E4F00044CF090044CE0FBC39464506875F0046C
:105E5F00EBA42483F582E5F03404F583E0FCA3E0A2
:105E6F00FDA3E0FEA3E0FF75F004EBA4247FF58211
:105E7F00E5F03404F5831211C790044DE0FCA3E064
:105E8F00FDA3E0FEA3E0FF90044CE075F004A42412
:105E9F007FF582E5F03404F583E0F8A3E0F9A3E0A1
:105EAF00FAA3E0FB12080790044D1211C790044C9F
:105EBF00E004F0808EE4FBFA79C8784290044DE05C
:0D5ECF00FCA3E0FDA3E0FEA3E0FF120A012A
:015EDC0022A3
:10651600120B4990044DEEF0A3EFF0FDAC06EC1221
:106526000B10900615E0F8A3E0F9A3E0FAA3E0FB50
:106536001208031284A67B177AB779D17838120A23
:106546009E60054003D38001C34039900614E004E1
:10655600F07006900613E004F090044CE0FFD39030
:106566000614E09F900613E09400401FE4F0A3F0A9
:1065760090044DE0FCA3E0FDEC120B109006151202
:1065860011C78007E4900613F0A3F0900615E0FC0F
:09659600A3E0FDA3E0FEA3E0FF79
:01659F0022D9
:104F6700AB07EB75F041A424C4F582E43406F5835E
:104F77001211D300000000EB75F041A424C8F5829C
:104F8700E43406F5831211D300000000EB75F041FD
:104F9700A424CCF582E43406F5831211D300000073
:104FA70000EB75F041A424E0F582E43406F58312A2
:104FB70011D300000000EB75F041A424DCF582E476
:104FC7003406F5831211D3000000009009B0E0FC0D
:104FD700A3E0FDA3E0FEA3E0FFEB75F041A424D01E
:104FE700F582E43406F5831211C79009B4E0FCA3F7
:104FF700E0FDA3E0FEA3E0FFEB75F041A424D4F5A8
:1050070082E43406F5831211C79009B8E0FCA3E0E7
:10501700FDA3E0FEA3E0FFEB75F041A424D8F582E1
:10502700E43406F5831211C7EB75F041A424D0F5DB
:1050370082E43406F583E0FCA3E0FDA3E0FEA3E0F1
:10504700FFEB75F041A424E8F582E43406F58312FA
:1050570011C7EB75F041A424D4F582E43406F58337
:10506700E0FCA3E0FDA3E0FEA3E0FFEB75F041A4A5
:1050770024E4F582E43406F5831211C7EB75F04199
:10508700A424D8F582E43406F583E0FCA3E0FDA36D
:10509700E0FEA3E0FFEB75F041A424ECF582E434D5
:0650A70006F5830211C7AB
:1082BB00EF75F041A424FCF582E43406F5837401D8
:0282CB00F0229F
:10834B00EF75F041A424FCF582E43406F583E4F0E8
:01835B0022FF
:103F0F00900A95EFF075F041A424FCF582E4340695
:103F1F00F583E070030240E9900A95E0FF75F041E8
:103F2F00A424C0F582E43406F583E0F8A3E0F9A3F6
:103F3F00E0FAA3E0FBEF75F041A424BCF582E43472
:103F4F0006F583E0FCA3E0FDA3E0FEA3E0FF12086B
:103F5F0003900A95E0FB75F041A424C4F582E43484
:103F6F0006F5831211C7EB75F041A424DCF582E44A
:103F7F003406F583C083C082E0FCA3E0FDA3E0FE1E
:103F8F00A3E0FF900A95E075F041A424C4F582E404
:103F9F003406F583E0F8A3E0F9A3E0FAA3E0FB12FF
:103FAF000807D082D0831211C7900A95E0FF75F0F1
:103FBF0041A424DCF582E43406F583E0F8A3E0F9AC
:103FCF00A3E0FAA3E0FBEF75F041A424D4F582E45B
:103FDF003406F583E0FCA3E0FDA3E0FEA3E0FF12AF
:103FEF0008F8C004C005C006C007900A95E0FF7529
:103FFF00F041A424C4F582E43406F583E0F8A3E08D
:10400F00F9A3E0FAA3E0FBEF75F041A424D0F58209
:10401F00E43406F583E0FCA3E0FDA3E0FEA3E0FF9C
:10402F001208F8D003D002D001D000120807C00444
:10403F00C005C006C007900A95E0FF75F041A424A3
:10404F00C8F582E43406F583E0F8A3E0F9A3E0FABB
:10405F00A3E0FBEF75F041A424C4F582E43406F528
:10406F0083E0FCA3E0FDA3E0FEA3E0FF12080390B2
:10407F000A95E075F041A424D8F582E43406F5835F
:10408F00E0F8A3E0F9A3E0FAA3E0FB1208F8D003ED
:10409F00D002D001D000120807900A95E0FB75F00E
:1040AF0041A424E0F582E43406F5831211C7EB75C1
:1040BF00F041A424C4F582E43406F583E0FCA3E0C8
:1040CF00FDA3E0FEA3E0FFEB75F041A424C8F58249
:0C40DF00E43406F5831211C7D322C3227B
:053CC900900A77EFF006
:103CCE00E0FF75F041A424C0F582E43406F583E0EC
:103CDE00F8A3E0F9A3E0FAA3E0FBEF75F041A4240A
:103CEE00BCF582E43406F583E0FCA3E0FDA3E0FE20
:103CFE00A3E0FF120803900A77E0FB75F041A424BD
:103D0E00C4F582E43406F5831211C7EB75F041A4B5
:103D1E0024FCF582E43406F583E07003023F0DEBDC
:103D2E0075F041A424F8F582E43406F583E0FCA393
:103D3E00E0FDA3E0FEA3E0FFEB75F041A424C4F583
:103D4E0082E43406F583E0F8A3E0F9A3E0FAA3E0F9
:103D5E00FB120A9E600B4009E4900A78F0A3F080F3
:103D6E004E900A78E4F0A304F0900A77E075F041E3
:103D7E00A424DCF582E43406F583C083C082E0FC23
:103D8E00A3E0FDA3E0FEA3E0FF900A77E075F0410B
:103D9E00A424C4F582E43406F583E0F8A3E0F9A385
:103DAE00E0FAA3E0FB120807D082D0831211C7906D
:103DBE000A77E0FF75F041A424DCF582E43406F5C1
:103DCE0083E0F8A3E0F9A3E0FAA3E0FBEF75F0417E
:103DDE00A424D4F582E43406F583E0FCA3E0FDA32D
:103DEE00E0FEA3E0FF1208F8C004C005C006C0073D
:103DFE00900A78E0FCA3E0FDE4120B10D003D00291
:103E0E00D001D0001208F8C004C005C006C007904B
:103E1E000A77E0FF75F041A424C4F582E43406F578
:103E2E0083E0F8A3E0F9A3E0FAA3E0FBEF75F0411D
:103E3E00A424D0F582E43406F583E0FCA3E0FDA3D0
:103E4E00E0FEA3E0FF1208F8D003D002D001D000AC
:103E5E00120807C004C005C006C007900A77E0FF2D
:103E6E0075F041A424C8F582E43406F583E0F8A386
:103E7E00E0F9A3E0FAA3E0FBEF75F041A424C4F54A
:103E8E0082E43406F583E0FCA3E0FDA3E0FEA3E0AC
:103E9E00FF120803900A77E075F041A424D8F5824A
:103EAE00E43406F583E0F8A3E0F9A3E0FAA3E0FB1F
:103EBE001208F8D003D002D001D000120807900AE1
:103ECE0077E0FB75F041A424E0F582E43406F58337
:103EDE001211C7EB75F041A424C4F582E43406F543
:103EEE0083E0FCA3E0FDA3E0FEA3E0FFEB75F04151
:103EFE00A424C8F582E43406F5831211C7D322C375
:013F0E002290
:0526EB00900A7AEFF0F7
:1026F000E0FF75F041A424C0F582E43406F583E0E0
:10270000F8A3E0F9A3E0FAA3E0FBEF75F041A424FD
:10271000BCF582E43406F583E0FCA3E0FDA3E0FE13
:10272000A3E0FF120803900A7AE0FB75F041A424AD
:10273000C4F582E43406F5831211C7EB75F041A4A9
:1027400024FCF582E43406F583E07003022AC1EB31
:1027500075F041A424F0F582E43406F583E0FCA38F
:10276000E0FDA3E0FEA3E0FFEB75F041A424C0F57B
:1027700082E43406F583E0F8A3E0F9A3E0FAA3E0ED
:10278000FB120A9E6002500302280F900A7AE0753D
:10279000F041A424C4F582E43406F583E0FCA3E010
:1027A000FDA3E0FEA3E0FF120B491284BFAC06AD0F
:1027B00007EC120B10900A7AE075F041A424F8F5AA
:1027C00082E43406F583E0F8A3E0F9A3E0FAA3E09D
:1027D000FB120A9E500302291A900A7BE4F0A3041C
:1027E000F0900A7AE075F041A424C4F582E434063E
:1027F000F583E0FCA3E0FDA3E0FEA3E0FFE4FBFA29
:10280000F9F8120A9E6002500302297102292B90E6
:102810000A7AE0FF75F041A424F0F582E43406F56D
:1028200083E0F8A3E0F9A3E0FAA3E0FBEF75F04141
:10283000A424C0F582E43406F583E0FCA3E0FDA304
:10284000E0FEA3E0FF120A9E600250030228CF9030
:102850000A7AE075F041A424C4F582E43406F583D5
:10286000E0FCA3E0FDA3E0FEA3E0FF120B4912840D
:10287000BFAC06AD07EC120B10900A7AE075F04180
:10288000A424F8F582E43406F583E0F8A3E0F9A384
:10289000E0FAA3E0FB120A9E5002807E900A7BE4DD
:1028A000F0A304F0900A7AE075F041A424C4F58204
:1028B000E43406F583E0FCA3E0FDA3E0FEA3E0FF23
:1028C000E4FBFAF9F8120A9E4003022971805C9039
:1028D0000A7AE075F041A424C4F582E43406F58355
:1028E000E0FCA3E0FDA3E0FEA3E0FF120B4912848D
:1028F000BFAC06AD07EC120B10900A7AE075F04100
:10290000A424F8F582E43406F583E0F8A3E0F9A303
:10291000E0FAA3E0FB120A9E5009E4900A7BF0A3C0
:10292000F0804E900A7BE4F0A304F0900A7AE07500
:10293000F041A424DCF582E43406F583C083C08230
:10294000E0FCA3E0FDA3E0FEA3E0FF900A7AE075BF
:10295000F041A424C4F582E43406F583E0F8A3E052
:10296000F9A3E0FAA3E0FB120807D082D08312118A
:10297000C7900A7AE0FF75F041A424DCF582E434C4
:1029800006F583E0F8A3E0F9A3E0FAA3E0FBEF7516
:10299000F041A424D4F582E43406F583E0FCA3E0FE
:1029A000FDA3E0FEA3E0FF1208F8C004C005C006C6
:1029B000C007900A7BE0FCA3E0FDE4120B10D003FB
:1029C000D002D001D0001208F8C004C005C006C073
:1029D00007900A7AE0FF75F041A424C4F582E4343C
:1029E00006F583E0F8A3E0F9A3E0FAA3E0FBEF75B6
:1029F000F041A424D0F582E43406F583E0FCA3E0A2
:102A0000FDA3E0FEA3E0FF1208F8D003D002D0013E
:102A1000D000120807C004C005C006C007900A7A9B
:102A2000E0FF75F041A424C8F582E43406F583E0A4
:102A3000F8A3E0F9A3E0FAA3E0FBEF75F041A424CA
:102A4000C4F582E43406F583E0FCA3E0FDA3E0FED8
:102A5000A3E0FF120803900A7AE075F041A424D89D
:102A6000F582E43406F583E0F8A3E0F9A3E0FAA3E5
:102A7000E0FB1208F8D003D002D001D00012080702
:102A8000900A7AE0FB75F041A424E0F582E4340674
:102A9000F5831211C7EB75F041A424C4F582E43428
:102AA00006F583E0FCA3E0FDA3E0FEA3E0FFEB75E9
:102AB000F041A424C8F582E43406F5831211C7D38B
:022AC00022C32F
:012AC20022F1
:05230A00900A7DEFF0D8
:10230F00E0FF75F041A424C0F582E43406F583E0C4
:10231F00F8A3E0F9A3E0FAA3E0FBEF75F041A424E2
:10232F00BCF582E43406F583E0FCA3E0FDA3E0FEF8
:10233F00A3E0FF120803900A7DE0FB75F041A4248F
:10234F00C4F582E43406F5831211C7EB75F041A48E
:10235F0024FCF582E43406F583E070030226E9EBF2
:10236F0075F041A424F0F582E43406F583E0FCA374
:10237F00E0FDA3E0FEA3E0FFEB75F041A424C0F560
:10238F0082E43406F583E0F8A3E0F9A3E0FAA3E0D2
:10239F00FB120A9E6002500302242E900A7DE07504
:1023AF00F041A424C4F582E43406F583E0FCA3E0F5
:1023BF00FDA3E0FEA3E0FF120B491284BFAC06ADF4
:1023CF0007EC120B10900A7DE075F041A424F8F58C
:1023DF0082E43406F583E0F8A3E0F9A3E0FAA3E082
:1023EF00FB120A9E5003022539900A7EE4F0A304E3
:1023FF00F0900A7DE075F041A424C4F582E4340620
:10240F00F583E0FCA3E0FDA3E0FEA3E0FFE4FBFA0D
:10241F00F9F8120A9E6002500302259002254A9095
:10242F000A7DE0FF75F041A424F0F582E43406F54F
:10243F0083E0F8A3E0F9A3E0FAA3E0FBEF75F04126
:10244F00A424C0F582E43406F583E0FCA3E0FDA3E9
:10245F00E0FEA3E0FF120A9E600250030224EE90FA
:10246F000A7DE075F041A424C4F582E43406F583B7
:10247F00E0FCA3E0FDA3E0FEA3E0FF120B491284F2
:10248F00BFAC06AD07EC120B10900A7DE075F04162
:10249F00A424F8F582E43406F583E0F8A3E0F9A369
:1024AF00E0FAA3E0FB120A9E5002807E900A7EE4BF
:1024BF00F0A304F0900A7DE075F041A424C4F582E6
:1024CF00E43406F583E0FCA3E0FDA3E0FEA3E0FF08
:1024DF00E4FBFAF9F8120A9E4003022590805C9003
:1024EF000A7DE075F041A424C4F582E43406F58337
:1024FF00E0FCA3E0FDA3E0FEA3E0FF120B49128472
:10250F00BFAC06AD07EC120B10900A7DE075F041E1
:10251F00A424F8F582E43406F583E0F8A3E0F9A3E8
:10252F00E0FAA3E0FB120A9E5009E4900A7EF0A3A2
:10253F00F0804E900A7EE4F0A304F0900A7DE075DF
:10254F00F041A424DCF582E43406F583C083C08215
:10255F00E0FCA3E0FDA3E0FEA3E0FF900A7DE075A1
:10256F00F041A424C4F582E43406F583E0F8A3E037
:10257F00F9A3E0FAA3E0FB120807D082D08312116F
:10258F00C7900A7DE0FF75F041A424DCF582E434A6
:10259F0006F583E0F8A3E0F9A3E0FAA3E0FBEF75FB
:1025AF00F041A424D4F582E43406F583E0FCA3E0E3
:1025BF00FDA3E0FEA3E0FF1208F8C004C005C006AB
:1025CF00C007900A7EE0FCA3E0FDE4120B10D003DD
:1025DF00D002D001D0001208F8E4FBFAF9784012CB
:1025EF000A01C004C005C006C007900A7DE0FF7550
:1025FF00F041A424C4F582E43406F583E0F8A3E0A7
:10260F00F9A3E0FAA3E0FBEF75F041A424D0F58223
:10261F00E43406F583E0FCA3E0FDA3E0FEA3E0FFB6
:10262F001208F8D003D002D001D000120807C0045E
:10263F00C005C006C007900A7DE0FF75F041A424D5
:10264F00C8F582E43406F583E0F8A3E0F9A3E0FAD5
:10265F00A3E0FBEF75F041A424C4F582E43406F542
:10266F0083E0FCA3E0FDA3E0FEA3E0FF12080390CC
:10267F000A7DE075F041A424D8F582E43406F58391
:10268F00E0F8A3E0F9A3E0FAA3E0FB1208F8D00307
:10269F00D002D001D000120807900A7DE0FB75F040
:1026AF0041A424E0F582E43406F5831211C7EB75DB
:1026BF00F041A424C4F582E43406F583E0FCA3E0E2
:1026CF00FDA3E0FEA3E0FFEB75F041A424C8F58263
:0B26DF00E43406F5831211C7D322C3B8
:0126EA0022CD
:10464E00900A96EFF075F041A424FCF582E434064E
:10465E00F583E070030247EC900A96E0FF75F04197
:10466E00A424C0F582E43406F583E0F8A3E0F9A3B0
:10467E00E0FAA3E0FBEF75F041A424BCF582E4342C
:10468E0006F583E0FCA3E0FDA3E0FEA3E0FF120825
:10469E0003900A96E0FB75F041A424C4F582E4343D
:1046AE0006F5831211C7EB75F041A424C8F582E418
:1046BE003406F583E0FCA3E0FDA3E0FEA3E0FFEBF0
:1046CE0075F041A424D4F582E43406F583E0F8A312
:1046DE00E0F9A3E0FAA3E0FB1208F8C004C005C09D
:1046EE0006C007900A96E0FF75F041A424C4F58237
:1046FE00E43406F583E0F8A3E0F9A3E0FAA3E0FBC7
:10470E00EF75F041A424D0F582E43406F583E0FC85
:10471E00A3E0FDA3E0FEA3E0FF1208F8D003D00251
:10472E00D001D000120803C004C005C006C0079017
:10473E000A96E0FF75F041A424CCF582E43406F528
:10474E0083E0F8A3E0F9A3E0FAA3E0FBEF75F041F4
:10475E00A424D8F582E43406F583E0FCA3E0FDA39F
:10476E00E0FEA3E0FF1208F8D003D002D001D00083
:10477E00120807900A96E0FB75F041A424E0F5823A
:10478E00E43406F5831211C7EB75F041A424C8F585
:10479E0082E43406F583E0FCA3E0FDA3E0FEA3E093
:1047AE00FFEB75F041A424CCF582E43406F58312B8
:1047BE0011C7EB75F041A424C4F582E43406F583E9
:1047CE00E0FCA3E0FDA3E0FEA3E0FFEB75F041A447
:1047DE0024C8F582E43406F5831211C7D322C3220E
:107B3700AB07900A30E0FCA3E0FDA3E0FEA3E0FF63
:107B4700EB75F041A424F4F582E43406F5830211C1
:017B5700C766
:107B5800AB07900A35E0FCA3E0FDA3E0FEA3E0FF3D
:107B6800EB75F041A424F0F582E43406F5830211A4
:017B7800C745
:107B7900AB07900A3AE0FCA3E0FDA3E0FEA3E0FF17
:107B8900EB75F041A424C0F582E43406F5830211B3
:017B9900C724
:107B9A00AB07900A3FE0FCA3E0FDA3E0FEA3E0FFF1
:107BAA00EB75F041A424D4F582E43406F58302117E
:017BBA00C703
:107BBB00AB07900A44E0FCA3E0FDA3E0FEA3E0FFCB
:107BCB00EB75F041A424D0F582E43406F583021161
:017BDB00C7E2
:107BDC00AB07900A49E0FCA3E0FDA3E0FEA3E0FFA5
:107BEC00EB75F041A424D8F582E43406F583021138
:017BFC00C7C1
:107BFD00AB07900A4EE0FCA3E0FDA3E0FEA3E0FF7F
:107C0D00EB75F041A424BCF582E43406F583021132
:017C1D00C79F
:107F8E00EF75F041A424BCF582E43406F583E0FCE1
:0A7F9E00A3E0FDA3E0FEA3E0FF2234
:107FA800EF75F041A424C4F582E43406F583E0FCBF
:0A7FB800A3E0FDA3E0FEA3E0FF221A
:107FC200EF75F041A424C8F582E43406F583E0FCA1
:0A7FD200A3E0FDA3E0FEA3E0FF2200
:107FDC00EF75F041A424D0F582E43406F583E0FC7F
:0A7FEC00A3E0FDA3E0FEA3E0FF22E6
:107FF600EF75F041A424D4F582E43406F583E0FC61
:0A800600A3E0FDA3E0FEA3E0FF22CB
:10801000EF75F041A424D8F582E43406F583E0FC42
:0A802000A3E0FDA3E0FEA3E0FF22B1
:10802A00EF75F041A424E0F582E43406F583E0FC20
:0A803A00A3E0FDA3E0FEA3E0FF2297
:10804400EF75F041A424DCF582E43406F583E0FC0A
:0A805400A3E0FDA3E0FEA3E0FF227D
:107C1E00AB07900A53E0FCA3E0FDA3E0FEA3E0FF58
:107C2E00EB75F041A424F8F582E43406F5830211D5
:017C3E00C77E
:10723A00900A97EFF075F041A424FCF582E4340635
:10724A00F583E0602FED24FE601214601714601CB1
:10725A0024047020900A97E0FF023F0F900A97E0FB
:10726A00FF023CC9900A97E0FF0226EB900A97E0DA
:05727A00FF12230A22AF
:10812E00EF75F041A424FCF582E43406F583E0609B
:09813E0007ED14700312464E22F5
:10598300602A08450000000000000000000000003D
:105993000000000000000000000000000000000004
:0E59A3000000000000000000000000000000F6
:10603A00900454EBF0A3EAF0A3E9F0900003120EE7
:10604A008BFF900450E0FBA3E0FAA3E0F9A3E0FE83
:10605A00F582758300EF120ECA900454E0FBA3E0A8
:10606A00FAA3E0F9900002120E8BFFEE2401FDE480
:10607A0033FC900450E0FBA3E0FAA3E0F98D828C94
:10608A0083EF120ECA900454E0FBA3E0FAA3E0F9EE
:10609A00900001120E8BFFEE2402FDE433FC900403
:1060AA0050E0FBA3E0FAA3E0F98D828C83EF120E95
:1060BA00CA900454E0FBA3E0FAA3E0F9120E72FFBF
:1060CA00EE2403FDE433FC900450E0FBA3E0FAA3C2
:0A60DA00E0F98D828C83EF020ECAFC
:0577B700900448EFF012
:1077BC00E4A3F0900448E0FF1260E4900449E0FE7A
:1077CC00C39F501774452EF582E43408F583E0FF0F
:0B77DC001279EB900449E004F080D823
:0177E700227F
:105463009004481211C790044CE0FFD3940A400300
:10547300025596EF7003025596EF14B40A004003E9
:1054830002559690549475F003A4C58325F0C58303
:10549300730254B20254C80254DF0254F602550D8B
:1054A30002552302553902554F02556502557B902B
:1054B30004507401F0A37408F0A37445F0A37401BD
:1054C300F0FB02558F9004507401F0A37408F0A30D
:1054D3007445F0A37405F07B0102558F900450745A
:1054E30001F0A37408F0A37445F0A37409F07B01E1
:1054F30002558F9004507401F0A37408F0A374450F
:10550300F0A3740DF07B0102558F9004507401F0E9
:10551300A37408F0A37445F0A37411F07B01806CAD
:105523009004507401F0A37408F0A37445F0A374BD
:1055330015F07B0180569004507401F0A37408F0B9
:10554300A37445F0A37419F07B0180409004507458
:1055530001F0A37408F0A37445F0A3741DF07B015C
:10556300802A9004507401F0A37408F0A37445F0EA
:10557300A37421F07B0180149004507401F0A37490
:1055830008F0A37445F0A37425F07B017A047948ED
:0455930012603A2246
:1060E400EFD3940A5003EF70037F002290084574A5
:1060F40024F0EF14B40A00400302618690610E7527
:10610400F003A4C58325F0C5837302612C026135B5
:1061140002613E02614702615002615902616202FA
:10612400616B02617402617D90084A7405F07F0618
:106134002290084E7409F07F0A22900852740DF0E0
:106144007F0E229008567411F07F122290085A7420
:1061540015F07F162290085E7419F07F1A229008B9
:1061640062741DF07F1E229008667421F07F222243
:1061740090086A7425F07F262290086E7429F07FB7
:056184002A227F002229
:1059B100500973000000000000000000000000001A
:0359C100000000E3
:10817900E4900290F0A37407F07B017A0279907F72
:078189000412448A02784948
:107F580074732FF582E43409F583E0FE74732FF50A
:0A7F680082E43409F583E4F0AF066B
:017F720022EC
:1075DD00125328900321EFF0D39400402AE0247237
:1075ED00F582E43409F5837401F0125328EF600835
:1075FD00125328EF601180F8900321E02472F58278
:07760D00E43409F583E4F009
:017614002253
:10380D0020252034640020252034660000000000AF
:10381D0000000000004F000000000700070000142A
:10382D007F147F1400242A7F2A1200231308646258
:10383D0000364955225000000503000000001C22EF
:10384D004100000041221C000014083E081400082D
:10385D00083E08080000503000000008080808085D
:10386D00000060600000002010080402003E514975
:10387D00453E0000427F4000004261514946002113
:10388D0041454B31001814127F100027454545392D
:10389D00003C4A4949300001710905030036494988
:1038AD00493600064949291E000036360000000041
:1038BD00563600000008142241000014141414148C
:1038CD000000412214080002015109060032497915
:1038DD00413E007E1111117E007F4949493E003E57
:1038ED0041414122007F4141221C007F494949410C
:1038FD00007F09090901003E4149497A007F080806
:10390D00087F0000417F4100002040413F01007FC2
:10391D0008142241007F40404040007F0204027F96
:10392D00007F0408107F003E4141413E007F0909A0
:10393D000906003E4151215E007F091929460046C6
:10394D00494949310001017F0101003F4040403F9D
:10395D00001F2040201F003F4038403F00631408E7
:10396D0014630003047804030061514945430000CA
:10397D007F4141000015167C1615000041417F0066
:10398D0000040201020400404040404000000102DA
:10399D000400002054545478007F484444380038C3
:1039AD004444442000384444487F0038545454184B
:1039BD0000087E090102000C5252523E007F08049D
:1039CD0004780000447D4000002040443D00007F0D
:1039DD00102844000000417F4000007E020C027C54
:1039ED00007E0402027C003844444438007C1414E8
:1039FD00140800081414187C007C080404080048FE
:103A0D005454542000043F444020003C4040207C4E
:103A1D00001C2040201C003C4030403C004428103D
:103A2D002844000C5050503C004464544C44000059
:103A3D00083641000000007F0000000041360800FC
:103A4D000008040810080008082A1C0800081C2A91
:103A5D0008080004027F02040010207F2010001CC3
:0A3A6D002A322A1C001C2244221CED
:107CC300C2C9ED24FF92CA7E08EF30E704D2CB800D
:0F7CD30002C2CBC2CCEF25E0FFD2CCDEECD2C98F
:017CE200227F
:107C3F00E4FD7F80127CC37F40127CC37BF87A0106
:107C4F007D01E4FF127CC3EB1B70011AEB4A70F04D
:017C5F002202
:10824A00AD07E4FF1281E77C547D01E4FF127CC391
:02825A00DCF74F
:01825C0022FF
:1081E700AC05EF4480FFEC4440FCE4FD127CC3AFD8
:0481F70004027CC33F
:07740400E0FF04F0A3E0FD2E
:10740B0074E02BFBEF75F006A4FF1281E7E4FC752B
:10741B00F006EBA42419F582E5F03438F583E58208
:10742B002CF582E43583F583E493FF7D01127CC355
:05743B000CECB406DAC0
:017440002229
:1074B900900A57EFF0A3EDF0A3EBF0A3EAF0A3E9EC
:1074C900F0900A59E0FBA3E0FAA3E0F9120E72FB6F
:1074D9006018900A57E0C3940E500F127404900A72
:0B74E9005AE475F001120F5380D72207
:096EA600FDE0FBA3E0FAA3E0F912
:106EAF0090032AEFF0A3EDF0A3EBF0A3EAF0A3E930
:106EBF00F090032CE0FBA3E0FAA3E0F9120E72FBB3
:106ECF00602890032A12740490032DE475F00112C8
:106EDF000F5390032AE0B40E06E4F0A3E004F09001
:0B6EEF00032BE0B406CBE4F080C722C8
:0E6B4D009002C0EFF0A3EDF0A3EAF0A3EBF08E
:106B5B00A3E02402FFE433FE125A4BAA06A9077BDB
:106B6B00019002C5EBF0A3EAF0A3E9F09002CB741D
:106B7B00FFF0A37438F0A3740DF09002C2E0FFA3F2
:106B8B00E09002CECFF0A3EFF0121EEC9002C0E02B
:106B9B00FFA3E09002C5126EA69002C5A3E0FAA374
:076BAB00E0AE02FF0250AD55
:0869A0009009BCEFF0A3EDF03B
:1069A8009009C3E0FF9009C2E02FFFE433CF24032E
:1069B800CF3400FE125A4BAA06A9077B019009C4DE
:1069C800EBF0A3EAF0A3E9F09002CB74FFF0A37414
:1069D80038F0A37413F09009BEE0FCA3E0FDA3E037
:1069E800FEA3E0FF9002CE1211C7121EEC9009BC64
:1069F800E0FFA3E09009C4126EA69009C4A3E0FAD0
:086A0800A3E0AE02FF0250AD55
:1072C300E4900290F0A304F0FB7A0279907F051218
:1072D300448AC2C8D2C8E4FD7F21127CC37F061250
:1072E3007CC37F13127CC37FC8127CC37F20127CB4
:1072F300C37F0C127CC37F40127CC37F80127CC38C
:03730300027C3FCA
:0259C400C11709
:1078FC009002917405F0E4900290F07B017A027989
:10790C00907F0512448A1285B17FC8128427128594
:07791C00B67FC8128427D3D7
:017923002241
:0585B100C2CDD217222B
:0585B600D2CDC2172226
:107B1500900290EFF0900290E0FF14F0EF601212E7
:107B250085B17FC81284271285B67FC81284278045
:027B3500E42248
:0385C400A21722D9
:06857B00900A98EFF022C7
:1063F800900A5CEFF07F337E337D737C3FA3E0F837
:10640800A3E0F9A3E0FAA3E0FB120A9E600C400A9D
:10641800900A5D1211D33F7333337FCD7ECC7D4C10
:106428007C3D900A5DE0F8A3E0F9A3E0FAA3E0FB65
:10643800120A9E500A900A5D1211D33D4CCCCD90A1
:106448000A5CE02404FFC007A3E0FCA3E0FDA3E08E
:10645800FEA3E0FF900A621211C7D007125893906A
:106468000A5DE0FCA3E0FDA3E0FEA3E0FF120B49F8
:10647800900A5CE025E0246CF582E4340AF583EFA9
:02648800F02200
:107DFC00900A99EFF02404FF127924900A99E02557
:0E7E0C00E0246BF582E4340AF5837401F02261
:107E7400900A9AEFF02404FF127A84900A9AE0257B
:0D7E8400E0246BF582E4340AF583E4F0227B
:10841700EF25E0246BF582E4340AF583E024FF229C
:106A1000E4900961F0A37408F07B017A0979617F41
:106A20000212448A9009627404F07B017A09796148
:106A30007F0212448AD2A2D2A343BA80E4900963AF
:106A4000F0A3F0A3F0A304F0E4A3F0A3F0A3F0A359
:106A5000F0A3F0A3F0A3F0A3F0A3F0A3F0A3F0A39E
:106A6000F07B017A0979637F02122AC37B017A09DC
:0A6A700079637F03122AC353BA7F33
:016A7A0022F9
:0540EB0090086FEFF0EA
:1040F000E490087EF0A37480F07B017A08797E7FDB
:104100000312448AD2B743BA80E4900880F0A3F047
:10411000A3F0A304F0E4A3F0A3F0A3F0A3F0A3F0B2
:10412000A3F0A3740FF0E4A3F0A3F0A3F0A3F0A313
:10413000F090086FE0FF7B017A087980122AC35360
:10414000BA7F90086FE0FF7D101283D390086FE074
:10415000FF7D327C00126CDC900870E0FCA3E0FD77
:10416000A3E0FEA3E0FF90086FE0FB75F025A42418
:1041700096F582E43407F5831211C7900874E0FCC9
:10418000A3E0FDA3E0FEA3E0FFEB75F025A4249AD5
:10419000F582E43407F5831211C7900878E0FCA398
:1041A000E0FDA3E0FEA3E0FFEB75F025A424A8F555
:1041B00082E43407F5831211C790087CE0FEA3E087
:1041C000FFEB75F025A424A2F582E43407F583EE15
:1041D000F0A3EFF0EB75F025A42496F582E4340704
:1041E000F583E0F8A3E0F9A3E0FAA3E0FB90086F01
:1041F000E075F025A4249AF582E43407F583E0FC09
:10420000A3E0FDA3E0FEA3E0FF120803C004C00585
:10421000C006C00790086FE075F025A424A2F582BF
:10422000E43407F583E0FCA3E0FDE4120B10A804DE
:10423000A905AA06AB07D007D006D005D004120AFC
:104240000190086FE0FB75F025A4249EF582E4340C
:1042500007F5831211C7EB75F025A424A2F582E4BB
:104260003407F583E0FCA3E0FDE4120B10A804A9D9
:1042700005AA06AB0790086FE075F025A424A8F501
:1042800082E43407F583E0FCA3E0FDA3E0FEA3E0B5
:10429000FF120A0190086FE0FB75F025A424ACF52D
:1042A00082E43407F5831211C7EB75F025A424A42A
:0E42B000F582E43407F5831211D300000000FC
:0142BE0022DD
:055597009009DBEFF0BC
:10559C00A3E0FCA3E0FDA3E0FEA3E0FF9009DBE0A9
:1055AC00FB75F025A42491F582E43407F5831211E0
:1055BC00C7EB75F025A424ACF582E43407F583E041
:1055CC00F8A3E0F9A3E0FAA3E0FB9009DCE0FCA36C
:1055DC00E0FDA3E0FEA3E0FF120A019009DBE075F9
:1055EC00F025A4249EF582E43407F583E0F8A3E0CB
:1055FC00F9A3E0FAA3E0FB1208F89009DBE075F0E0
:10560C0025A42496F582E43407F583E0F8A3E0F9A9
:10561C00A3E0FAA3E0FB1208079009DBE0FB75F0AE
:10562C0025A424B2F582E43407F5831211C7EB7577
:10563C00F025A424B2F582E43407F583E0FCA3E062
:10564C00FDA3E0FEA3E0FFE4FBFA79A07841120A87
:10565C00019009E01211C79009E0E0FCA3E0FDA362
:10566C00E0FEA3E0FF900A621211C79009DBE0FF95
:10567C001258939009DBE0FB75F025A42491F58278
:10568C00E43407F583E0FCA3E0FDA3E0FEA3E0FF18
:10569C00EB75F025A424A4F582E43407F5830211FC
:0156AC00C736
:10805E00EF75F025A424A4F582E43407F583E0FC43
:0A806E00A3E0FDA3E0FEA3E0FF2263
:107CE300900A9BEFF0127924900A9BE075F025A48B
:107CF30024B0F582E43407F583E4F0A304F0D3223F
:107D4200900A9CEFF0127A84900A9CE075F025A4C8
:0F7D520024B0F582E43407F583E4F0A3F0D322E4
:107A5F00C0079009F5E0FCA3E0FDA3E0FEA3E0FF63
:107A6F0090046B1211C79009F9E0FCA3E0FDD00759
:057A7F001257A7D322FD
:105BEA009009FBEFF0C007E4FFFE7DB47C43A3E01D
:105BFA00F8A3E0F9A3E0FAA3E0FB1208F8C004C096
:105C0A0005C006C0079009FBE075F00EA424B5F59F
:105C1A0082E43408F583E0FCE4120B15D003D002C9
:105C2A00D001D0001208F8C004C005C006C0079011
:105C3A0009FBE075F00EA424B9F582E43408F58373
:105C4A00E0FCA3E0FDA3E0FEA3E0FF7B567A0E7919
:105C5A004978401208F89009FBE075F00EA424B1C7
:105C6A00F582E43408F583E0F8A3E0F9A3E0FAA3A7
:105C7A00E0FB1208F8A804A905AA06AB07D007D0CA
:105C8A0006D005D004120A01120B499009F5121127
:105C9A00C7900A00E0FFA3E09009F9CFF0A3EFF064
:075CAA00D007127A5FD3223C
:106BB200900A02EFF0E0FEFFC00775F00EA424B5C4
:106BC200F582E43408F583E0FCE4120B15900A0325
:106BD200E0F8A3E0F9A3E0FAA3E0FB1208F8900AB8
:106BE20002E075F00EA424B1F582E43408F583E0E6
:106BF200F8A3E0F9A3E0FAA3E0FB120A01120B49A1
:106C020090046B1211C7900A07E0FCA3E0FDD007C5
:056C12001257A7D32278
:1075A400900A89EAF0A3EBF0C007AE04AF057C01B2
:1075B4007D68120EECAC06AD07E4120B10900A03C2
:1075C4001211C7900A89E0FFA3E0900A07CFF0A345
:0975D400EFF0D007126BB2D322D4
:0F844600EF70069008BDEDF0229008CBEDF0220C
:10835C00EF75F00EA424BDF582E43408F583E0FF3C
:01836C0022EE
:107F7300EF7009201804C2A78002D2A7EFB4010949
:0B7F8300201804C2A58002D2A5D32262
:107E9100900A9DEFF0127EAE900A9DE075F00EA45F
:0D7EA10024BDF582E43408F5837401F0225D
:10825D00EF75F00EA424BDF582E43408F583E4F047
:03826D00027E1A74
:107EE800EF7004C2A68002C2A4EF75F00EA424BDF0
:0C7EF800F582E43408F5837401F0D32215
:107F0400EF7004D2A68002D2A4EF75F00EA424BDB3
:0C7F1400F582E43408F5837402F0D322F7
:05622C00900993EFF062
:10623100E490099FF0A374F0F07B017A09799F7FC4
:106241000212448A900994E0FCA3E0FDA3E0FEA3BE
:10625100E0FF900993E0FB75F00EA424B1F582E410
:106261003408F5831211C7900998E0FFEB75F00E21
:10627100A424B5F582E43408F583EFF0900999E0A0
:10628100FEA3E0FFEB75F00EA424B6F582E434081A
:10629100F583EEF0A3EFF090099BE0FCA3E0FDA3F2
:1062A100E0FEA3E0FFEB75F00EA424B9F582E4341F
:1062B10008F5831211C7EB75F00EA424BDF582E435
:0A62C1003408F5837401F00278A69A
:107F2000900290EFF0A3EDF0A37401F0E4A3F0A3AE
:0C7F3000F0A3F07B017A027990026EFA57
:10692700E4900924F0301962F0E4FF126D3D9009FC
:1069370024E025E02410F582E43409F583EEF0A382
:10694700EFF0900924E004F0E0C3940A40DB7B01F8
:106957007A09791090044C1211D3448000009004F6
:10696700501211D3000000007D0A1242BF9009E4C3
:106977001211C79009E4E0FCA3E0FDA3E0FEA3E049
:10698700FFA31211C79009E480039009E8E0FCA374
:08699700E0FDA3E0FEA3E0FF18
:01699F0022D5
:0984FE00900A8BEEF0A3EFF022CE
:09850700900A8DEEF0A3EFF022C2
:06858100900A9EEFF022BB
:06858700900A9FEFF022B4
:085CB1007F8A7D647C007E0106
:105CB900900463ECF0A3EDF0900461EEF0FAA3EF29
:025CC900F0FBEE
:105CCB00A3E0FEA3E0FFAD03AC02120EECAC06ADFD
:105CDB0007E4120B10E4FBFA797A7844120A0112EA
:105CEB000B49900465EEF0A3EFF0900463E0FEA384
:105CFB00E0FF7C007DFF120EFE900467EFF07F014A
:105D0B00127EAE900465E0FEA3E0FFE4FCFD900480
:105D1B006B1211C7900461E0FCA3E0FD7F011257E9
:105D2B00A77F01127E1A900463E0FEA3E0FFC394E9
:105D3B00FFEE94005004AD078025900467E0FF143C
:105D4B00F0EF600CE4FBFA7DFF7F021237AE80EAC6
:105D5B00900463E0FEA3E0FF7C007DFF120EFEE4E7
:075D6B00FBFA7F021237AEC4
:015D7200220E
:107C60007D967C007F127E02125CB97D967C007F3F
:107C7000947E02125CB97D967C007F147E03025CC8
:017C8000B94A
:0B84CB007D967C007F127E02025CB9EF
:107C81007D967C007F147E03125CB97D967C007F1B
:107C9100947E02125CB97D967C007F127E02025CAA
:017CA100B929
:107AA9001278A67FBC125CB3125CB17D647C007F46
:107AB9005E7E01125CB9125CB17D907C017F127E01
:047AC90002025CB9A0
:1059C6004208D40000C115C1164208CC00004208A6
:0D59D600D000004208CE00004208D20000C0
:0A57A700900469ECF0A3EDF0AB07ED
:1057B100E490046FF0A3F0900469E0FEA3E0FFEB36
:1057C10075F007A424DAF582E43408F583EEF0A33A
:1057D100EFF090046BE0FCA3E0FDA3E0FEA3E0FF8B
:1057E100EB75F007A424D6F582E43408F583121191
:1057F100C7EB704F900469E0FEA3E0FFD39414EE71
:105801009400403BAB07AA06E4F9F87F807E847DD3
:105811001EFC12727FE47B02FAF9F812727FC3E474
:105821009FFFE49E900471F0A3EFF0C215438F0433
:10583100900471E0FCA3E0FDECF5D68DD78051D248
:1058410015804D900469E0FEA3E0FFD39414EE941B
:1058510000403BAB07AA06E4F9F87F807E847D1EF9
:10586100FC12727FE47B02FAF9F812727FC3E49FA3
:10587100FFE49E900471F0A3EFF0C21643D10190B2
:105881000471E0FCA3E0FDECF5D48DD58002D216C5
:01589100D343
:0158920022F3
:107E1A00EF75F007A424DCF582E43408F5837401D5
:0E7E2A00F0EF7005438E10800343D108D32281
:107EAE00EF7005538EEF800353D1F7EF75F007A4F3
:0D7EBE0024DCF582E43408F583E4F0D322DF
:1082CD00EF75F007A424DCF582E43408F583E0248F
:0282DD00FF227E
:1078A600E4900290F0A304F0FB7A0279907F031231
:1078B600448A9002917410F07B017A027990E4FF79
:0C78C60012448AE49008DCF09008E3F023
:0178D2002293
:03006300026831FF
:10683100C0E0C0F0C083C082C0D075D000C000C02D
:1068410001C002C003C004C005C006C007E47F0246
:10685100FEFDFC9008D6E0F8A3E0F9A3E0FAA3E07E
:10686100FB120FE2C006C0079008CCE475F00112DC
:106871000F53AFF0AB07FAE4F9F8D007D006C31213
:106881001123400CE4FF127EAE9008CCE4F0A3F09B
:10689100D007D006D005D004D003D002D001D0005B
:0B68A100D0D0D082D083D0F0D0E03205
:03009B000268AC4C
:1068AC00C0E0C0F0C083C082C0D075D000C000C0B2
:1068BC0001C002C003C004C005C006C007E47F02CB
:1068CC00FEFDFC9008DDE0F8A3E0F9A3E0FAA3E0FC
:1068DC00FB120FE2C006C0079008CEE475F001125F
:1068EC000F53AFF0AB07FAE4F9F8D007D006C31298
:1068FC001123400C7F01127EAE9008CEE4F0A3F081
:10690C00D007D006D005D004D003D002D001D000DF
:0B691C00D0D0D082D083D0F0D0E03289
:09851000D280C281C282D2832212
:09851900C280D281D282C2832209
:09852200C280C281C282C2832220
:09852B00D280C281C282C2832207
:09853400C280D281C282C28322FE
:09853D00D280C281D282C28322E5
:09854600C280C281C282D28322EC
:09854F00C280C281D282C28322E3
:09855800C280D281C282D28322CA
:0459E3004106250054
:1074F400EF75F04BA4246EF582E43406F583E4F0D2
:10750400EF75F04BA4246FF582E43406F583E4F0C0
:10751400EF75F04BA42470F582E43406F583E4F0AF
:0B7524007BFF7A1979EDAD07028406A9
:1082DF00EF75F04BA4246EF582E43406F583740138
:0282EF00F0227B
:10836D00EF75F04BA4246EF582E43406F583E4F04A
:01837D0022DD
:1082F100EF75F04BA4246FF582E43406F583740125
:02830100F02268
:10837E00EF75F04BA4246FF582E43406F583E4F038
:01838E0022CC
:10704200EF75F04BA42470F582E43406F583E06416
:10705200017031EF75F04BA4242EF582E43406F56D
:107062008375F002ED121204E0FCA3E0FDEC120BBA
:1070720010E4FBFAF97847120A01E4FBFA79807806
:0A708200410208F8E4FFFEFDFC22C5
:10708C00EF75F04BA42470F582E43406F583E064CC
:10709C00017031EF75F04BA42436F582E43406F51B
:1070AC008375F002ED121204E0FCA3E0FDEC120B70
:1070BC0010E4FBFAF97847120A01E4FBFA79FA7842
:0A70CC00440208F8E4FFFEFDFC2278
:10775300EF75F04BA4243EF582E43406F58375F00F
:1077630002ED121204E0FCA3E0FDEC120B10E4FBAB
:10777300FAF97847120A01E4FBFA793478431208DC
:02778300F822EA
:10761500EF75F04BA42470F582E43406F583E0B4ED
:10762500011EEF75F04BA42446F582E43406F5837C
:1076350075F002ED121204E0FCA3E0FDEC020B1064
:06764500E4FFFEFDFC2243
:10636500900A17EBF0A3EAF0A3E9F0A3E0FBA3E0A2
:10637500FAA3E0F9900003120E8BFF900A17E0FBD9
:10638500A3E0FAA3E0F9EF120EB8900A1AE0FBA316
:10639500E0FAA3E0F9900002120E8BFF900A17E0D5
:1063A500FBA3E0FAA3E0F9900001EF120ECA900AF0
:1063B5001AE0FBA3E0FAA3E0F9900001120E8BFFAF
:1063C500900A17E0FBA3E0FAA3E0F9900002EF12B0
:1063D5000ECA900A1AE0FBA3E0FAA3E0F9120E72C6
:1063E500FF900A17E0FBA3E0FAA3E0F9900003EFA2
:0363F500020ECACB
:0519ED00900817EFF067
:1019F20075F04BA4246EF582E43406F583E070039F
:101A0200021E86900817E0FF75F04BA4246FF58242
:101A1200E43406F583E07003021E86EF75F04BA4F2
:101A22002470F582E43406F583E4F090001CE0644F
:101A320055600AE4900004F0900625F0229000041C
:101A4200E0FF241CF582E43400F583E0FE74192FD4
:101A5200F582E43406F583EEF0900004E0C3940BC3
:101A62005003021E8690061AE024B0B40900400317
:101A7200021E69901A8375F003A4C58325F0C583FD
:101A820073021A9E021B3E021B9E021BFE021C7E5A
:101A9200021CFD021D84021DCC021E0190061BE0E9
:101AA200FF900817E0FE75F04BA42426F582E4347B
:101AB20006F583EFF090061CE0FFEE75F04BA424D0
:101AC20027F582E43406F583EFF090061DE0FFEE81
:101AD20075F04BA42428F582E43406F583EFF090E8
:101AE200061EE0FFEE75F04BA42429F582E43406CD
:101AF200F583EFF090061FE0FFEE75F04BA4242A69
:101B0200F582E43406F583EFF0900620E0FFEE75EF
:101B1200F04BA4242BF582E43406F583EFF0900613
:101B220022E0FE900621E0FDEDFF900817E075F03F
:101B32004BA4242CF582E43406021D7A90061CE0A4
:101B4200FE90061BE0FDEDFF900817E0FD75F04BDF
:101B5200A4242EF582E43406F583EEF0A3EFF09090
:101B6200061EE0FE90061DE0FBEBFFED75F04BA4B8
:101B72002430F582E43406F583EEF0A3EFF090060C
:101B820020E0FE90061FE0FDEDFF900817E075F0E3
:101B92004BA42432F582E43406021D7A90061CE03E
:101BA200FE90061BE0FDEDFF900817E0FD75F04B7F
:101BB200A42436F582E43406F583EEF0A3EFF09028
:101BC200061EE0FE90061DE0FBEBFFED75F04BA458
:101BD2002438F582E43406F583EEF0A3EFF09006A4
:101BE20020E0FE90061FE0FDEDFF900817E075F083
:101BF2004BA4243AF582E43406021D7A90061CE0D6
:101C0200FE90061BE0FDEDFF900817E0FD75F04B1E
:101C1200A4243EF582E43406F583EEF0A3EFF090BF
:101C2200061EE0FE90061DE0FBEBFFED75F04BA4F7
:101C32002440F582E43406F583EEF0A3EFF090063B
:101C420020E0FE90061FE0FDEDFF900817E0FD7515
:101C5200F04BA42442F582E43406F583EEF0A3EFC0
:101C6200F0900622E0FE900621E0FBEBFFED75F01E
:101C72004BA42444F582E43406021D7A90061CE04B
:101C8200FE90061BE0FDEDFF900817E0FD75F04B9E
:101C9200A42446F582E43406F583EEF0A3EFF09037
:101CA200061EE0FE90061DE0FBEBFFED75F04BA477
:101CB2002448F582E43406F583EEF0A3EFF09006B3
:101CC20020E0FE90061FE0FDEDFF900817E0FD7595
:101CD200F04BA4244AF582E43406F583EEF0A3EF38
:101CE200F0900622E0FE900621E0FBEBFFED75F09E
:101CF2004BA4244CF582E43406807D90061CE0FE61
:101D020090061BE0FDEDFF900817E0FD75F04BA477
:101D1200244EF582E43406F583EEF0A3EFF090064C
:101D22001EE0FE90061DE0FBEBFFED75F04BA424D8
:101D320050F582E43406F583EEF0A3EFF09006202E
:101D4200E0FE90061FE0FDEDFF900817E0FD75F044
:101D52004BA42452F582E43406F583EEF0A3EFF0AF
:101D6200900622E0FE900621E0FBEBFFED75F04BC2
:101D7200A42454F582E43406F583EEF0A3EFF002D6
:101D82001E6990061B7412F0A37434F0A37456F00B
:101D9200A37478F0900817E075F04BA42456F974F8
:101DA2000635F0FA7B01C003900A1AEBF0A3740621
:101DB200F0A3741BF0D003126365900817E075F06E
:101DC2004BA4245AF97406021E50900817E075F0CD
:101DD2004BA4245EF9740635F0FA7B01C003900A25
:101DE2001AEBF0A37406F0A3741BF0D00312636520
:101DF200900817E075F04BA42462F97406804F90A6
:101E0200061CE0FE90061BE0FDEDFF900817E0FDCA
:101E120075F04BA42466F582E43406F583EEF0A354
:101E2200EFF090061EE0FE90061DE0FBEBFFED7565
:101E3200F04BA42468F582E43406F583EEF0A3EFB8
:101E4200F0900817E075F04BA4246AF9740635F097
:101E5200FA7B01C003900A1AEBF0A37406F0A37494
:101E62001FF0D003126365E4900625F0900004F0A1
:101E7200900817E075F04BA42470F582E43406F55F
:041E8200837401F074
:011E86002239
:1081FB00E4900A8FF0A374F0F07B017A0A798F7FF9
:04820B000202448A9D
:1065A000ED14602814604314605E24037077EF7567
:1065B000F005A424C8F582E43409F583E5822DF5BD
:1065C00082E43583F583E024FF92A722EF75F0057E
:1065D000A424C8F582E43409F583E5822DF582E42C
:1065E0003583F583E024FF92A622EF75F005A424FD
:1065F000C8F582E43409F583E5822DF582E435831C
:10660000F583E024FF92A522EF75F005A424C8F5D8
:1066100082E43409F583E5822DF582E43583F58340
:06662000E024FF92A42219
:10830300EF75F005A424C7F582E43409F5837401FD
:02831300F02256
:02752F00AE07A5
:10753100EE75F005A424C7F582E43409F583E4F07F
:10754100FCEE75F005A424C8F582E43409F583E561
:10755100822CF582E43583F5837401F0AF06AD0426
:087561001265A00CECB404D982
:0175690022FF
:10781900EF75F005A424C7F582E43409F583E0B4D3
:10782900011DEF75F005A424C8F582E43409F58338
:10783900E5822DF582E43583F583E4F01265A02213
:1077E800EF75F005A424C7F582E43409F583E0B405
:1077F800011EEF75F005A424C8F582E43409F58369
:10780800E5822DF582E43583F5837401F01265A0D5
:01781800224D
:107E38003F065B4F666D7D077F6F777C395E797192
:0E7E480040EF000000000000000000000000FD
:0A59E700080E0000000000000000A0
:05744100900467EFF06C
:10744600E4A3F0C2C17F017E00127878900467E061
:10745600FF30E004D2C08002C2C0EFC313900467BD
:10746600F0D2C17F017E00127878900468E004F0C3
:06747600E0C3940840CDC4
:01747C0022ED
:1071AD00E4900468F0D2C0900467F0900468E0C3E6
:1071BD0013F0C2C17F017E0012787830C0079004B1
:1071CD0068E04480F0D2C17F017E0012787890048F
:1071DD0067E004F0E0C3940840D17F017E0012788F
:0671ED0078900468E0FF49
:0171F3002279
:107D6100900293EFF0C2C27F017E001278789002F8
:0F7D710093E0FF127441D2C27F017E0002787846
:1053280078617C047D017BFF7A7E794A7E007F0468
:10533800120E4CE4900466F0C2C27F421274417FA0
:10534800F47E01127878E4900465F01271AD90044F
:1053580065E02461F582E43404F583EFF090046598
:10536800E004F0E0C3940440E2D2C2900461E0FF9C
:10537800B404099004667401F002545DEFB4400966
:105388009004667402F002545D900462E0FFB40475
:10539800099004667403F002545DEFB44009900468
:1053A800667404F002545D900463E0FFB40409904D
:1053B80004667405F002545DEFB440099004667405
:1053C80006F002545D900464E0FFB404099004669A
:1053D8007407F002545DEFB440089004667408F056
:1053E8008073900461E0FFB402089004667409F0C9
:1053F8008063EFB42008900466740AF08057900424
:1054080062E0FFB40208900466740BF08047EFB4C2
:105418002008900466740CF0803B900463E0FFB4AD
:105428000208900466740DF0802BEFB420089004F5
:1054380066740EF0801F900464E0FFB402089004C4
:1054480066740FF0800FEFB420089004667410F0B3
:0A54580080037F0022900466E0FF4D
:015462002227
:107849007F8A127D617F8A127D617F40127D61C2CC
:10785900C27FC0127441E4900292F07FFF1274411A
:0E786900900292E004F0E0C3941040EFD2C20F
:0178770022EE
:102E5D00900955E090095EF0900954E090095FF0FB
:102E6D00900953E0900960F0900952E0F9900951F2
:102E7D00E0FAAE05AC06AD0790095FE0907E3893A1
:102E8D00540125E0FF90095EE0907E389354012FA8
:102E9D00FF900960E0907E3893540125E025E02FE6
:102EAD00FFE993540133333354F82FFFEA93540160
:102EBD00C454F02FFFEB935401C43354E02FFFECB7
:102ECD00935401C4333354C02FFFED935401C433D5
:102EDD00333354802F900956F090095EE0907E3880
:102EED00935402C313FF90095FE0907E3893540210
:102EFD002FFF900960E0907E3893540225E02FFF5C
:102F0D00E993540225E025E02FFFEA935402333371
:102F1D003354F82FFFEB935402C454F02FFFEC936E
:102F2D005402C43354E02FFFED935402C433335491
:102F3D00C02F900957F090095FE0907E38935404AC
:102F4D00C313FF90095EE0907E389354041313541D
:102F5D003F2FFF900960E0907E389354042FFFE9D6
:102F6D0093540425E02FFFEA93540425E025E02F28
:102F7D00FFEB93540433333354F82FFFEC93540485
:102F8D00C454F02FFFED935404C43354E02F900933
:102F9D0058F090095FE0907E389354081313543F16
:102FAD00FF90095EE0907E38935408131313541F5D
:102FBD002FFF900960E0907E38935408C3132FFFC4
:102FCD00E99354082FFFEA93540825E02FFFEB9364
:102FDD00540825E025E02FFFEC9354083333335488
:102FED00F82FFFED935408C454F02F900959F09029
:102FFD00095FE0907E38935410131313541FFF9004
:10300D00095EE0907E38935410C4540F2FFF900941
:10301D0060E0907E389354101313543F2FFFE993C3
:10302D005410C3132FFFEA9354102FFFEB9354103A
:10303D0025E02FFFEC93541025E025E02FFFED93B5
:10304D00541033333354F82F90095AF090095FE040
:10305D00907E38935420C4540FFF90095EE0907E0B
:10306D0038935420C41354072FFF900960E0907ECD
:10307D0038935420131313541F2FFFE99354201327
:10308D0013543F2FFFEA935420C3132FFFEB935498
:10309D00202FFFEC93542025E02FFFED9354202596
:1030AD00E025E02F90095BF090095FE0907E38936A
:1030BD005440C4135407FF90095EE0907E3893543A
:1030CD0040C4131354032FFF900960E0907E389392
:1030DD005440C4540F2FFFE9935440131313541F3E
:1030ED002FFFEA9354401313543F2FFFEB9354409B
:1030FD00C3132FFFEC9354402FFFED93544025E065
:10310D002F90095CF090095FE0907E38935480C455
:10311D0013135403FF90095EE0907E38935480C4DE
:10312D0013131354012FFF900960E0907E389354D0
:10313D0080C41354072FFFE9935480C4540F2FFFFD
:10314D00EA935480131313541F2FFFEB93548013E2
:10315D0013543F2FFFEC935480FEC3132FFFED93B9
:10316D0054802F90095DF07F8A127D617F40127D22
:10317D0061C2C27FC0127441900956E0FF127441C2
:10318D007F80127441900957E0FF127441E4FF12E1
:10319D007441900958E0FF127441E4FF127441909C
:1031AD000959E0FF127441E4FF12744190095AE08D
:1031BD00FF127441E4FF12744190095BE0FF127439
:1031CD0041E4FF12744190095CE0FF127441E4FF89
:1031DD0012744190095DE0FF127441E4FF127441D5
:0231ED00D2C24C
:0131EF0022BD
:06498D009009A11211C700
:1049930078A57C097D017BFF7A7E794E7E007F08B6
:1049A300120E4C7F817E697D677CFF9009A1E0F840
:1049B300A3E0F9A3E0FAA3E0FBD312110D50030225
:1049C3004B247FFF7EE07DF57C059009A1E0F8A3F1
:1049D300A3A3E012110D4003024B249009A1E0FCB4
:1049E300EC33405FE49009ADF0E47B0AFAF9F89008
:1049F30009A1E0FCA3E0FDA3E0FEA3E0FF12727FA8
:104A03009009AEEBF09009A1E0FCA3E0FDA3E0FE6A
:104A1300A3E0FFE47B0AFAF9F812727F9009A1126E
:104A230011C79009AEE0FF9009ADE024A5F582E43B
:104A33003409F583EFF09009ADE004F0E0B408A980
:104A4300024AEA9009A1E0FCA3E0FDA3E0FEA3E093
:104A5300FF1285739009A11211C7E49009ADF0E428
:104A6300FFFEFDFC9009A1E0F8A3E0F9A3E0FAA39F
:104A7300E0FBD312110D404FE47B0AFAF9F89009D9
:104A8300A1E0FCA3E0FDA3E0FEA3E0FF12727F9090
:104A930009AEEBF09009A1E0FCA3E0FDA3E0FEA3C7
:104AA300E0FFE47B0AFAF9F812727F9009A1121170
:104AB300C79009AEE0FF9009ADE024A5F582E43488
:104AC30009F583EFF080129009ADE024A5F582E4A7
:104AD3003409F5837410F0800E9009ADE004F0E022
:104AE30064086003024A629009ACE0FF9009ABE0FE
:104AF300FD9009AAE0FB9009A9E0900951F0900903
:104B0300A8E0900952F09009A7E0900953F09009AA
:104B1300A6E0900954F09009A5E0900955F0122EF3
:014B23005D34
:014B2400226E
:0585BB007F80027D61DC
:1070D6009002FAEFF01284D67F90127A391279C8AC
:1070E6007F01127A391279C89002FAE014600E1400
:1070F600600F146010240370117FC2800A7FD28053
:10710600067FE280027FF2127A391279C87FE31293
:087116007A391279C802858D57
:1081A7001284D67F90127A391279C8E4FF127A398D
:0681B7001279C802858D5B
:10772000E4900304F0A3F01284D67F91127A391208
:1077300079C8127ACD900304EFF012847F127ACDCB
:10774000900305EFF012858D900304E0FEA3E0FDA9
:02775000EDFF4B
:017752002214
:08807800900290EFF0A3EDF07F
:10808000E4A3F0A37430F07B017A0279927F0302BB
:02809000448A20
:107E5600EF25E025E02486F582E43409F583E07019
:0D7E660003FEFF221270D61281A7127720B2
:017E730022EC
:10831500EF25E025E02486F582E43409F583740130
:02832500F02244
:10838F00EF25E025E02486F582E43409F583E4F057
:01839F0022BB
:08814700900A6FECF0A3EDF0CB
:10814F00E4A3F0A3EFF07B017A0A7971E4FF024414
:01815F008A95
:0583A000900AA0EFF0BF
:0B83A500E4FF00000FEFB408F9000037
:0183B00022AA
:0459F1004108A800C1
:1071F400E4900290F0A37408F07B017A0279907F06
:107204000312448A9002907401F0A37404F07B0189
:107214007A0279907F0312448A9002947401F0E414
:10722400900292F0A304F0FB7A027992E4FF125DDB
:0572340073C2B2C2B3F9
:017239002232
:10832700EF75F007A424ADF582E43408F5837401F2
:02833700F02232
:1083B100EF75F007A424ADF582E43408F583E4F009
:0183C1002299
:1083C200EF75F007A424ADF582E43408F583E0FFED
:0183D2002288
:10820F00EF75F007A424AEF582E43408F583ECF0A3
:04821F00A3EDF022B9
:107CA200AB079003C4E0FCA3E0FDA3E0FEA3E0FF6A
:107CB200EB75F007A424A9F582E43408F5830211D8
:017CC200C7FA
:10822300EF75F007A424AEF582E43408F583E0FE8D
:04823300A3E0FF22A3
:107D8000EF75F007A424ADF582E43408F583E060D4
:0E7D90000DD2A8D2B37F057E00127878C2B360
:017D9E0022C2
:10809200EF75F007A424A9F582E43408F583E0FC27
:0A80A200A3E0FDA3E0FEA3E0FF222F
:03000300026AE4AA
:106AE400C0E0C083C082C0D075D000C004C005C05F
:106AF40006C00730B20A43D1809008A8E4F0803879
:106B040020B22D53D17FAFD29008AEE4F0A3EFF0C2
:106B1400E0FEADD37C00E42DFFEC3E9008AEF0A384
:106B2400EFF075D20075D3009008A87401F08008C6
:106B34009008A8E4F053D17FD007D006D005D00444
:096B4400D0D0D082D083D0E03221
:1059F5004509D634431010014509D134431010012F
:1056AD00900AA1EFF0703EC295D294C2917B017A1F
:1056BD000979D1900A2D7405F07F2A1273467D0168
:1056CD007F211283F57D017F221283F5E4FD7F2575
:1056DD001283F57D207F311283F57D077F2612839E
:1056ED00F57D0F8055900AA1E064017059C295D2E5
:1056FD0094C2917B017A0979D6900A2D7405F07FB9
:10570D00301273467B017A0979D1900A2D7405F018
:10571D007F2A1273467D017F211283F57D017F2241
:10572D001283F5E4FD7F251283F57D077F26128315
:10573D00F57D207F311283F57D0E7F201283F57F5D
:10574D00147E00027878900AA1E06402704BC29535
:10575D00D294C2917B017A0979D6900A2D7405F005
:10576D007F301273467B017A0979D1900A2D740529
:10577D00F07F2A1273467D017F211283F57D017F13
:10578D00221283F5E4FD7F251283F57D077F261216
:0A579D0083F57D207F311283F52291
:10778500900AA2EFF07FF47E01127878900AA2E0C9
:107795007006C2957D0F800B900AA2E0B40112C25B
:1077A500957D0E7F201283F5D2957F147E00127889
:0277B500782238
:0B6FA000900A73EBF0A3EAF0A3E9F005
:106FAB00E4A3F07F0712848C1285CA1285D0501E81
:106FBB00C295900A73E0FBA3E0FAA3E0F9900A6A8A
:106FCB007420F07F611276EB900A767401F01285D3
:106FDB00CDAD077F271283F5D2957FC87E0012783F
:066FEB0078900A76E0FF39
:016FF100227D
:10756A00900A80EBF0A3EAF0A3E9F07DFF7F2712EF
:10757A0083F57DFF7FE11283F5C295900A80E0FBD7
:10758A00A3E0FAA3E0F9900A2D7420F07FA0127309
:0A759A0046D2957FC87E0002787883
:106EFA00120E72F59D900001120E8BFFE5BC549F95
:106F0A004FF5BC900002120E8BB4010543BC808081
:106F1A000353BC7F900003120E8BB40105439720E4
:106F2A0080035397DF900005120E8BB40104D2AD93
:106F3A008002C2AD900004120E8BB40103D2BD22AE
:036F4A00C2BD22A3
:0C84B300EFB4010443BC802253BC7F22C4
:106D3D00EFD3940740028051E4F5BDF5BEE5BC5498
:106D4D00E044084FF5BC00000000E4FBE5BC30E476
:106D5D003353BCEFE59730E509E5BD5403ADBEFCFB
:106D6D00801DAFBD7C00AD07ED7E007802C333CE34
:106D7D0033CED8F9FFE5BE5403FDEEFCEF4DFDAF6C
:0D6D8D0005AE04220BEBB4FAC37E047F00B8
:016D9A0022D6
:03002B000285C08B
:0485C00053BCEF3287
:0F8427007D367C07ED1D70011C144C70F7DFF1E2
:018436002223
:10787800E4FCFDFB7A36796E7801120FE2E47B0CAA
:10788800FAF9F812727F7B407A42790F7800127207
:0D7898007FEF4E600800EF1F70F71E80F4B8
:0178A50022C0
:0E845500E4F5C7F5C5F5C675C3FF75C4FF2273
:10738600AD07AC06C2AF75C78075C501ECF5C3AFD6
:10739600058FC475C65A75C6A500E5C2120EB80D8E
:1073A600BD00010C740129F9E43AFA900A0E74FF43
:0F73B600F5F0120F5345F070D3128455D2AF2269
:107D0300AD07AC06C2AFECF5C3AF058FC475C78032
:107D130075C50375C65A75C6A500128455D2AF2220
:1073C500AD07AC06C2AF75C78075C502ECF5C3AF96
:1073D500058FC4120E72F5C275C65A75C6A5000D85
:1073E500BD00010C740129F9E43AFA900A1574FFFD
:0F73F500F5F0120F5345F070D3128455D2AF222A
:030013000285D88B
:0185D8003270
:030053000285D94A
:0185D900326F
:03005B000285DA41
:0185DA00326E
:030083000285DB18
:0185DB00326D
:105D7300EFD3940440037F0122EF702D90000212B1
:105D83000E8BB40104D2A88002C2A8900001120EA7
:105D93008BB40104D2B88002C2B8120E72B40104EB
:105DA300D2888002C2887F0022EF6401702D9000A8
:105DB30002120E8BB40104D2AA8002C2AA9000017F
:105DC300120E8BB40104D2BA8002C2BA120E72B49C
:105DD3000104D28A8002C28A7F0022EFB4021490A7
:105DE3000002120E8BB40105438F108003538FEF13
:105DF3007F0022EFB40314900002120E8BB401054E
:105E0300438F208003538FDF7F0022EFB40414906D
:105E13000002120E8BB40105438F408003538FBFE2
:065E23007F00227F022235
:0385C700A21A22D3
:10448A00EFD3940540037F0122120E72FED39403E8
:10449A0040037F0222EF7041EE700B900001120E72
:1044AA008BF452935294120E72B4010B90000112C3
:1044BA000E8B4293F45294120E72FEB4020A9000CA
:1044CA0001120E8B42934294EEB4030D9000011236
:1044DA000E8BFEF45293EE4294EF64017043120E77
:1044EA0072FE700B900001120E8BF452915292EEF2
:1044FA00B4010B900001120E8B4291F45292120EEB
:10450A0072B4020A900001120E8B42914292120E6C
:10451A0072B4030D900001120E8BFEF45291EE421A
:10452A0092EF64027043120E72FE700B9000011239
:10453A000E8BF452955296EEB4010B900001120EB6
:10454A008B4295F45296120E72B4020A900001122E
:10455A000E8B42954296120E72B4030D9000011210
:10456A000E8BFEF45295EE4296EF64037043120EE0
:10457A0072FE700B900001120E8BF452B152B2EE21
:10458A00B4010B900001120E8B42B1F452B2120E1A
:10459A0072B4020A900001120E8B42B142B2120E9C
:1045AA0072B4030D900001120E8BFEF452B1EE426A
:1045BA00B2EF64047043120E72FE700B9000011287
:1045CA000E8BF452B352B4EEB4010B900001120EEA
:1045DA008B42B3F452B4120E72B4020A9000011262
:1045EA000E8B42B342B4120E72B4030D9000011244
:1045FA000E8BFEF452B3EE42B4EF64057043120E12
:10460A0072FF700B900001120E8BF452C952CAEF5E
:10461A00B4010B900001120E8B42C9F452CA120E59
:10462A0072B4020A900001120E8B42C942CA120EDB
:10463A0072B4030D900001120E8BFFF452C9EF42BF
:04464A00CA7F002201
:07846300C2B512846AD2B415
:06846A0000007F39DFFE77
:0184700022E9
:0A84D600D2B5128465C2B502846AB3
:06858D00128463D2B52246
:0D847F00C2B4128463C2B412846AD2B52262
:0479C400FF127A39FB
:1079C800E4FEC2B412846AD2B5D2B412846A30B565
:1079D8000DEEC394FF50070EA2B5921180F0C2B409
:0279E800A211EA
:0179EA00227A
:0A84E000D2B5C2B4128465C2B42202
:107ACD00E4FEFDD2B412846AEE25E0FE12846A3023
:107ADD00B5054401FE8000C2B412846A0DEDB408F0
:037AED00E2AF06FF
:017AF0002273
:027A3900AE0796
:107A3B00E4FDC2B412846AEE5480FFC413131354D2
:107A4B000124FF92B5128465EE25E0FE0DEDB4081E
:037A5B00E1C2B4D1
:017A5E002205
:10816000AC05AE071284D6AF06127A391279C8AFC1
:0981700004127A391279C8D322F5
:0B764B00900A1FEBF0A3EAF0A3E9F0A7
:10765600128160E4FC900A22E0FFECC39F5019906F
:107666000A1FE0FBA3E475F001120F69A9F0FA12F4
:0B7676000E721279C40C80DD02858DBD
:106F4D00900A25EBF0A3EAF0A3E9F0900A23EFF005
:106F5D001281601284D6E044011279C4E4FC900AD7
:106F6D0028E0FFECC39F5025127ACD900A25E0FB57
:106F7D00A3E475F001120F69A9F0FAEF120EB890A3
:106F8D000A28E0146C600312847F0C80D11284E017
:036F9D0002858DDD
:105F8C00EF7034D3ED9498EC940340047C037D982B
:105F9C00C3ED9450EC940050047C007D50C2DE9014
:105FAC00092EECF0A3EDF0C374E89D900929F07470
:105FBC00039C9009288073EF64017034D3ED9468CE
:105FCC00EC940B40047C0B7D68C3ED9450EC940076
:105FDC0050047C007D50C2DE900930ECF0A3EDF053
:105FEC00C374B89D90092BF0740B9C90092A803ACD
:105FFC00EF64027038D3ED9480EC940740047C0776
:10600C007D80C3ED9450EC940050047C007D50C214
:10601C00DE900932ECF0A3EDF0AE04FFC374D09F18
:0E602C0090092DF074079E90092CF0D2DE2210
:1047EE00900A83EBF0A3EAF0A3E9F0AD07EDD394C2
:1047FE0003400302498CED6403704CC2DEF5F9F5FB
:10480E00E9900A83E0FBA3E0FAA3E0F9120E72FF2F
:10481E00E5A254CF4FF5A2900001120E8BFFE5D901
:10482E0054F14FF5D9900004120E8B5401FFE5D9C7
:10483E0054FE4FF5D9900005120E8BB40104D2BF71
:10484E008002C2BFD2DE22900A83E0FBA3E0FAA36D
:10485E00E02404F9E43AFA120E725431120EB890B2
:10486E000A83E0FBA3E0FAA3E0F9900002120E8B9C
:10487E00C39448400FE92404F9E43AFA120E725434
:10488E00CF120EB8ED704F900A83E0FBA3E0FAA3AF
:10489E00E0F9900004120E8BFF900002120E8BFEB8
:1048AE004FF5DA900003120E8BFFE5F2543F4FF5F1
:1048BE00F2900006120FAAFBAAF090092EEAF0A3BE
:1048CE00EBF0C212900925EEF0900934EAF0A3EB5A
:1048DE00F0F5EAEAF5FAED6401704F900A83E0FB19
:1048EE00A3E0FAA3E0F9900004120E8BFF900002F1
:1048FE00120E8BFE4FF5DB900003120E8BFFE5F3CD
:10490E00543F4FF5F3900006120FAAFBAAF0900940
:10491E0030EAF0A3EBF0C213900926EEF0900936C0
:10492E00EAF0A3EBF0F5EBEAF5FBED6402704F90C5
:10493E000A83E0FBA3E0FAA3E0F9900004120E8BC9
:10494E00FF900002120E8BFE4FF5DC900003120E4C
:10495E008BFFE5F4543F4FF5F4900006120FAAFDBD
:10496E00ACF0900932ECF0A3EDF0C214900927EEF2
:0F497E00F0900938ECF0A3EDF0F5ECECF5FC222D
:1051EB00900A87ECF0A3EDF0900A86EFF0705ED397
:1051FB00EB9464EA940040047A007B64C3EB940163
:10520B00EA940050047A007B01C2DE900A87E0FE2C
:10521B00A3E0FFAD03AC02120EEC7C007D64120E1A
:10522B00FE90092EEEF0A3EFF07C007D64AF03AE91
:10523B0002120EFEC374019FFFE49EFE900A87E0EC
:10524B00FCA3E0FD120EEC900928025320900A8675
:10525B00E06401705DD3EB9464EA940040047A003F
:10526B007B64C3EB9401EA940050047A007B01C287
:10527B00DE7C007D64AF03AE02120EFE900A87E067
:10528B00FCA3E0FD120EEC900930EEF0A3EFF07CE6
:10529B00007D64AF03AE02120EFEC374019FFFE4E8
:1052AB009EFE900A87E0FCA3E0FD120EEC90092A0B
:1052BB008063900A86E064027062D3EB9464EA9494
:1052CB000040047A007B64C3EB9401EA9400500421
:1052DB007A007B01C2DE7C007D64AF03AE02120E4E
:1052EB00FE900A87E0FCA3E0FD120EEC900932EE73
:1052FB00F0A3EFF0AE02AF037C007D64120EFEC391
:10530B0074019FFFE49EFE900A87E0FCA3E0FD1270
:0D531B000EEC90092CEEF0A3EFF0D2DE2294
:03003B00026189D6
:10618900C0E0C083C082C0D075D000C006C007304F
:10619900D82AC2D830A50590092E8003900928E095
:1061A900FEA3E0FF900935E02FF0900934E03EF0BE
:1061B900900934E0FEA3E0F5EAEEF5FA30D92AC2F7
:1061C900D930A605900930800390092AE0FEA3E0A2
:1061D900FF900937E02FF0900936E03EF09009363C
:1061E900E0FEA3E0F5EBEEF5FB30DA2AC2DA30A7E0
:1061F90005900932800390092CE0FEA3E0FF900985
:1062090039E02FF0900938E03EF0900938E0FEA31C
:10621900E0F5ECEEF5FCD007D006D0D0D082D083E3
:03622900D0E03290
:106CDC00900A91ECF0A3EDF0AB07900A91E0FEA3C3
:106CEC00E0FFE4FCFDEB75F00AA424DBF582E43450
:106CFC0007F5831211C743BA8053F57FEB75F00A81
:106D0C00A424E4F582E43407F583E0FF7E00900AC6
:106D1C0091E0FCA3E0FD120EECAB07AA06E4F9F837
:106D2C00FF7E367D6E7C0112727F127D9F53BA7F7F
:016D3C002234
:1080AC00EF75F00AA424DBF582E43407F583E0FCD9
:0A80BC00A3E0FDA3E0FEA3E0FF2215
:10589300900A61EFF07F337E337D737C3FA3E0F8A2
:1058A300A3E0F9A3E0FAA3E0FB120A9E600C400A0E
:1058B300900A621211D33F7333337FCD7ECC7DCCFC
:1058C3007C3C900A62E0F8A3E0F9A3E0FAA3E0FBD2
:1058D300120A9E500A900A621211D33CCCCCCD908E
:1058E3000A62E0FCA3E0FDA3E0FEA3E0FF900A61EF
:1058F300E0FB75F00AA424E0F582E43407F5831293
:1059030011C743BA80EB75F00AA424E4F582E434AA
:1059130007F583E0FFE4FCFDFEEB75F00AA424DB4E
:10592300F582E43407F583E0F8A3E0F9A3E0FAA3F2
:10593300E0FB120FE2A804A905AA06AB077F007ECD
:10594300367D6E7C0112106DE4120B0B900A62E03F
:10595300F8A3E0F9A3E0FAA3E0FB1208F8120B495D
:10596300AB07AA06900A61E0FF7D0A7C001262CBB6
:0459730053BA7F2282
:1080C600EF75F00AA424E0F582E43407F583E0FCBA
:0A80D600A3E0FDA3E0FEA3E0FF22FB
:1083D300EF75F00AA424E4F582E43407F583EDF0A5
:0183E3002277
:1083E400EF75F00AA424E4F582E43407F583E0FF92
:0183F4002266
:0A84EA0043BA8043F58053BA7F22A5
:0A84F40043BA8053F57F53BA7F228C
:1079240043BA807401A807088002C333D8FC42F527
:10793400EF75F00AA424DFF582E43407F5837401BB
:08794400F043F58053BA7F22E5
:107A840043BA807401A807088002C333D8FCF452B7
:107A9400F5EF75F00AA424DFF582E43407F583E4F6
:057AA400F053BA7F223F
:10833900EF75F00AA424DFF582E43407F583E0241D
:02834900FF2211
:052AC300900A93EFF002
:102AC800E4A3F0900A94E0FFC39406505AEF75F01F
:102AD8000AA424DBF582E43407F5831211D300003D
:102AE8000000900A94E0FF75F00AA424DFF582E460
:102AF8003407F583E4F0EF75F00AA424E0F582E4E6
:102B08003407F5831211D300000000900A94E07591
:102B1800F00AA424E4F582E43407F5837401F09004
:102B28000A94E004F0809C43BA80120E72B4010546
:102B380043F180800353F17F900001120E8BB401A2
:102B480014900A93E0FF7401A807088002C333D8E1
:102B5800FC42F18013900A93E0FF7401A8070880F3
:102B680002C333D8FCF452F1900002120E8BB40168
:102B78000543F540800353F5BF900003120E8BB454
:102B88000114900A93E0FF7401A807088002C33378
:102B9800D8FC42F58013900A93E0FF7401A8070857
:102BA8008002C333D8FCF452F5900004120E8BB4A3
:102BB800010575F720800353F7DF900005120E8B8F
:102BC800B4010575F710800353F7EF900006120E55
:102BD8008BB4010575F708800353F7F790000712C7
:102BE8000E8BB4010575F704800353F7FB900008BA
:102BF800120E8BB4010575F702800353F7FD9000A0
:102C080009120E8B90FFF27006E054EFF08004E09A
:102C18004410F090FFF2C083C082E0FF90000A12D7
:102C28000E8BFEEF4ED082D083F0900A93E01460B2
:102C380072147003022CFE147003022D51147003D9
:102C4800022DA4147003022DF524056003022E4CF6
:102C580090000B120E8B90FF047006E054F7F08082
:102C680004E04408F090000C120E8B90FF04B401AD
:102C780006E04404F08004E054FBF090000D120ECE
:102C88008B90FF04B40106E04402F08004E054FD98
:102C9800F090000E120E8B90FF04B40103022E4236
:102CA800022E4890000B120E8B90FF147006E05411
:102CB800F7F08004E04408F090000C120E8B90FFAF
:102CC80014B40106E04404F08004E054FBF09000E2
:102CD8000D120E8B90FF14B40106E04402F080043C
:102CE800E054FDF090000E120E8B90FF14B4010317
:102CF800022E42022E4890000B120E8B90FF247079
:102D080006E054F7F08004E04408F090000C120E3E
:102D18008B90FF24B40106E04404F08004E054FBE7
:102D2800F090000D120E8B90FF24B40106E04402CF
:102D3800F08004E054FDF090000E120E8B90FF24FA
:102D4800B40103022E42022E4890000B120E8B9003
:102D5800FF347006E054F7F08004E04408F0900077
:102D68000C120E8B90FF34B40106E04404F080048A
:102D7800E054FBF090000D120E8B90FF34B4010666
:102D8800E04402F08004E054FDF090000E120E8B37
:102D980090FF34B40103022E42022E4890000B1219
:102DA8000E8B90FF447006E054F7F08004E044086E
:102DB800F090000C120E8B90FF44B40106E044041E
:102DC800F08004E054FBF090000D120E8B90FF444D
:102DD800B40106E04402F08004E054FDF090000ED7
:102DE800120E8B90FF44B40102804F805390000B69
:102DF800120E8B90FF547006E054F7F08004E04404
:102E080008F090000C120E8B90FF54B40106E044B9
:102E180004F08004E054FBF090000D120E8B90FF3C
:102E280054B40106E04402F08004E054FDF0900040
:102E38000E120E8B90FF54B40106E04401F080049A
:102E4800E054FEF090000F120E8BB4010443F5809D
:042E58002253F57F8D
:012E5C002253
:056E4F009008E6EBF0E5
:106E5400E49008E8F0A3EDF07B017A0879E81244A5
:106E64008A43BA80E49008EAF0A3F0A3F0A304F004
:106E7400E4A3F0A3F0A3F0A3F0A3F0A3F09008E739
:106E8400E09008F4F0E4A3F0A3F0A3F0A3F0A3F0DF
:106E94009008E6E0FF7B017A0879EA122AC353BA24
:016EA4007F6E
:016EA50022CA
:107D9F00D3E49F74809E90FFF1400AEFF0EE90FFC6
:0F7DAF00F0F07F002274FFF090FFF0747FF0225D
:1062CB00EF14602814603A14604C14605E14607014
:1062DB002405600302636290FF01EDF0EC90FF0078
:1062EB00F090FF03EBF0EA90FF02806790FF11ED57
:1062FB00F0EC90FF10F090FF13EBF0EA90FF1280A0
:10630B005290FF21EDF0EC90FF20F090FF23EBF08B
:10631B00EA90FF22803D90FF31EDF0EC90FF30F0E2
:10632B0090FF33EBF0EA90FF32802890FF41EDF0C5
:10633B00EC90FF40F090FF43EBF0EA90FF428013AC
:10634B0090FF51EDF0EC90FF50F090FF53EBF0EA23
:0A635B0090FF52F07F00227F012224
:0A7AF100EBF0A3EAF0A3E9F0C29461
:107AFB00E4FEEF339293EF25E0FFD291A292E433B1
:097B0B004FFFC2910EEEB408E92F
:017B1400224E
:0C848C00C294127AFBE4FF127AFBD29437
:0184980022C1
:1083F500C294127AFBAC07AF05127AFBD294AF0494
:018405002254
:0376EB00900A679B
:1076EE00127AF1AD07E4FC900A6AE0FFECC39F50FA
:1076FE001CE4FF127AFB900A67E0FBA3E0FAA3E01A
:10770E00F98C82758300EF120ECA0C80DAD294AF18
:01771E000565
:01771F002247
:03734600900A2A80
:10734900127AF1900A2EEFF07F0A7E00127878E423
:10735900FD900A2DE0FFEDC39F501A900A2AE0FB29
:10736900A3E475F001120F69A9F0FA120E72FF1267
:0C7379007AFB0D80DCD294900A2EE0FF1D
:0173850022E5
:0385CA008F2022DD
:0385CD00AF2022BA
:06859300EF24FF92062216
:0385D000A20622DE
:105A0500410901004109020042090300004209055C
:105A150000004208FD00004208FB000041090F009C
:105A25004108FA00410900004108FF004409070048
:0A5A350000000044090B000000000F
:1067B500E49002B0F0900290F0A304F0A3F0E4A3FB
:1067C500F0A3F0900297F090029574A2F0A37440A4
:1067D500F0E49002A8F0A304F0E4A3F0A3F0A3F082
:1067E5009002AFF074FF9002ADF0A3F0E490029830
:1067F500F0A304F0A3F0A3F0E490029FF0A3F0A3AC
:1068050004F0A3F0A3F0E49002A7F07B017A0279EB
:10681500A87F04123A777B017A0279987F02123AAF
:0C682500777B017A0279A07F03023A77AA
:1078D300900901E064026020A3E06402601AEF24CF
:1078E300FE600B047012900907ECF0A3EDF0AF05F6
:0978F30090090BECF0A3EFF02268
:1080E000EF24FE600804700E900907800390090BCE
:0A80F000E0FEA3E0FF22E4FEFF2201
:107F3C00EF24FE600C047013900909ECF0A3EDF033
:0C7F4C0022AF0590090DECF0A3EFF0222D
:1080FA00EF24FE600804700E900909800390090DB0
:0A810A00E0FEA3E0FF22E4FEFF22E6
:0D849900EF14700853D17FE4900901F02228
:107DBE00EF24FE600E047016900901E0B40202D3A7
:0F7DCE0022C322900902E0B40203D38001C32232
:107DDD00EF24FE600E047016900901E0B40102D389
:0F7DED0022C322900902E0B40103D38001C32214
:107ECB00EF24FE600D047014900901E07002D322C0
:0D7EDB00C322900902E07003D38001C3228E
:1081D200AE07127DBE400DEF14700943D1809009A5
:0581E200017402F0220F
:0E847100AE07127DDD50051281D2D322C32248
:098561009008FDE0FEA3E0FF22FA
:09856A009008FBE0FEA3E0FF22F3
:0685990090090FE0FF2233
:06859F009008FAE0FF2243
:0685A500900900E0FF2236
:0685AB009008FFE0FF2232
:0300A30002711EC9
:10711E00C0E0C0F0C083C082C0D075D000C000C037
:10712E0006900903E475F001120F53FED39009087F
:10713E00E095F0900907E09E500F53D17F90090320
:10714E00E4F0A3F090090104F0D006D000D0D0D026
:08715E0082D083D0F0D0E032B2
:103A7700AD07EDD3940440037F0122ED7073120E5E
:103A870072FED3940340037F0222C28CC2A9C2B93B
:103A97005389F0538E7F538FFE900002120E8BB422
