:024DDB004D9CED
:084D9C00124DDE7F04024623E4
:104499009004A77440F0A37401F0A3120E7890045D
:1044A900AE7401F0E4A3F0A304F0A3F0E4A3F0A335
:0C44B900F07B017A0479A77F01020EEB72
:014DDD0022B3
:014DDE0022B2
:014DDF0022B1
:014DE00022B0
:014DE10022AF
:014DE20022AE
:014DE30022AD
:03000B00022A5C6A
:102A5700C2AF80FE32122A5B85D00B75D008AAE080
:102A6700C28CE58A2443F58AE58C34F6F58CD28C42
:102A7700EC2419F8E6BC000274FFC39581B4140076
:102A870040CE7901781616E608700BC2AFE630E142
:102A9700034418F6D2AF08D9EDEA8BD030090122EA
:102AA700D50DFCC0E0C0D0C0F0C083C082C000C05C
:102AB70001C002C003C004C005C006C007E50C235F
:102AC7002417F87440C2AF46F6D2AFD209E50CFF1F
:102AD700232417F80F0808BF01047F007817E63092
:102AE700E4F200E50CC39F5020050C7418250CF880
:102AF700E6FDA68108E6AE0CBE000274FFCDF8E83D
:102B07006D60E008E6C0E080F6E50CD39F4027E55E
:102B17000C2419F8E6AE0CBE000274FFFD18E6CDD2
:102B2700F8E5816D6006D0E0F61880F5E50C24180D
:102B3700C8F6150C80D3750D0AE50C232417F87F0A
:102B470004C2AFE610E61E30E00310E20C7F00304F
:102B5700E10730E3047F0854F4547CC6D2AF5480B5
:102B67004207C20922F6D2AFD007D006D005D0045B
:102B7700D003D002D001D000D082D083D0F0D0D003
:0E2B8700D0E0C209227818A68174006006FF13
:102B95000876FFDFFB7F01E47816F608F608DFFA12
:102BA50078177630904DDB740193C0E0E493C0E074
:102BB500750D0A438901758A3C758CF6D28CD2AFA6
:042BC500D2A922006F
:102BC900AB07EB75F03DA42494F582E43402F58358
:102BD900120E8400000000EB75F03DA42498F582E4
:102BE900E43402F583120E8400000000EB75F03D19
:102BF900A4249CF582E43402F583120E84000000BB
:102C090000EB75F03DA424B0F582E43402F583129B
:102C19000E8400000000EB75F03DA424ACF582E4BD
:102C29003402F583120E84000000009004B5E0FC24
:102C3900A3E0FDA3E0FEA3E0FFEB75F03DA424A013
:102C4900F582E43402F583120E789004B9E0FCA30E
:102C5900E0FDA3E0FEA3E0FFEB75F03DA424A4F59D
:102C690082E43402F583120E789004BDE0FCA3E0FF
:102C7900FDA3E0FEA3E0FFEB75F03DA424A8F582D7
:102C8900E43402F583120E78EB75F03DA424A0F527
:102C990082E43402F583E0FCA3E0FDA3E0FEA3E0B7
:102CA900FFEB75F03DA424B8F582E43402F58312F4
:102CB9000E78EB75F03DA424A4F582E43402F58383
:102CC900E0FCA3E0FDA3E0FEA3E0FFEB75F03DA46B
:102CD90024B4F582E43402F583120E78EB75F03DE5
:102CE900A424A8F582E43402F583E0FCA3E0FDA363
:102CF900E0FEA3E0FFEB75F03DA424BCF582E434CB
:062D090002F583020E78C2
:104C3B00EF75F03DA424C8F582E43402F5837401CA
:024C4B00F02255
:104C9500EF75F03DA424C8F582E43402F583E4F011
:014CA50022EC
:1021A80090058CEFF075F03DA424C8F582E4340264
:1021B800F583E0700302238190058CE0FF75F03D04
:1021C800A42490F582E43402F583E0F8A3E0F9A3AF
:1021D800E0FAA3E0FBEF75F03DA4248CF582E4342B
:1021E80002F583E0FCA3E0FDA3E0FEA3E0FF1208F4
:1021F8000390058CE0FB75F03DA42494F582E4344B
:1022080002F583120E78EB75F03DA424ACF582E458
:102218003402F583C083C082E0FCA3E0FDA3E0FEA6
:10222800A3E0FF90058CE075F03DA42494F582E4CA
:102238003402F583E0F8A3E0F9A3E0FAA3E0FB1287
:102248000807D082D083120E7890058CE0FF75F0D5
:102258003DA424ACF582E43402F583E0F8A3E0F968
:10226800A3E0FAA3E0FBEF75F03DA424A4F582E413
:102278003402F583E0FCA3E0FDA3E0FEA3E0FF1237
:1022880008F8C004C005C006C00790058CE0FF75BB
:10229800F03DA42494F582E43402F583E0F8A3E049
:1022A800F9A3E0FAA3E0FBEF75F03DA424A0F582C2
:1022B800E43402F583E0FCA3E0FDA3E0FEA3E0FF25
:1022C8001208F8D003D002D001D000120807C004C9
:1022D800C005C006C00790058CE0FF75F03DA4243A
:1022E80098F582E43402F583E0F8A3E0F9A3E0FA74
:1022F800A3E0FBEF75F03DA42494F582E43402F5E5
:1023080083E0FCA3E0FDA3E0FEA3E0FF1208039036
:10231800058CE075F03DA424A8F582E43402F58329
:10232800E0F8A3E0F9A3E0FAA3E0FB1208F8D00371
:10233800D002D001D00012080790058CE0FB75F0A0
:102348003DA424B0F582E43402F583120E78EB75CF
:10235800F03DA42494F582E43402F583E0FCA3E084
:10236800FDA3E0FEA3E0FFEB75F03DA42498F58201
:0A237800E43402F583120E78D3223C
:1028B90090058DEFF075F03DA424C8F582E434024B
:1028C900F583E07003022A5690058DE0FF75F03D0F
:1028D900A42490F582E43402F583E0F8A3E0F9A397
:1028E900E0FAA3E0FBEF75F03DA4248CF582E43413
:1028F90002F583E0FCA3E0FDA3E0FEA3E0FF1208DC
:102909000390058DE0FB75F03DA42494F582E43431
:1029190002F583120E78EB75F03DA42498F582E454
:102929003402F583E0FCA3E0FDA3E0FEA3E0FFEBA6
:1029390075F03DA424A4F582E43402F583E0F8A3FC
:10294900E0F9A3E0FAA3E0FB1208F8C004C005C04F
:1029590006C00790058DE0FF75F03DA42494F5822B
:10296900E43402F583E0F8A3E0F9A3E0FAA3E0FB7D
:10297900EF75F03DA424A0F582E43402F583E0FC70
:10298900A3E0FDA3E0FEA3E0FF1208F8D003D00204
:10299900D001D000120803C004C005C006C00790CA
:1029A900058DE0FF75F03DA4249CF582E43402F521
:1029B90083E0F8A3E0F9A3E0FAA3E0FBEF75F03DAB
:1029C900A424A8F582E43402F583E0FCA3E0FDA386
:1029D900E0FEA3E0FF1208F8D003D002D001D00036
:1029E90012080790058DE0FB75F03DA424B0F5822F
:1029F900E43402F583120E78EB75F03DA42498F5C2
:102A090082E43402F583E0FCA3E0FDA3E0FEA3E049
:102A1900FFEB75F03DA4249CF582E43402F58312A2
:102A29000E78EB75F03DA42494F582E43402F58325
:102A3900E0FCA3E0FDA3E0FEA3E0FFEB75F03DA4FD
:0E2A49002498F582E43402F583120E78D3222D
:10464500AB07900526E0FCA3E0FDA3E0FEA3E0FF99
:10465500EB75F03DA424C4F582E43402F583020E23
:0146650078DC
:10466600AB0790052BE0FCA3E0FDA3E0FEA3E0FF73
:10467600EB75F03DA424C0F582E43402F583020E06
:0146860078BB
:10468700AB07900530E0FCA3E0FDA3E0FEA3E0FF4D
:10469700EB75F03DA42490F582E43402F583020E15
:0146A700789A
:1046A800AB07900535E0FCA3E0FDA3E0FEA3E0FF27
:1046B800EB75F03DA424A4F582E43402F583020EE0
:0146C8007879
:1046C900AB0790053AE0FCA3E0FDA3E0FEA3E0FF01
:1046D900EB75F03DA424A0F582E43402F583020EC3
:0146E9007858
:1046EA00AB0790053FE0FCA3E0FDA3E0FEA3E0FFDB
:1046FA00EB75F03DA424A8F582E43402F583020E9A
:01470A007836
:10470B00AB07900544E0FCA3E0FDA3E0FEA3E0FFB4
:10471B00EB75F03DA4248CF582E43402F583020E94
:01472B007815
:104A3200EF75F03DA4248CF582E43402F583E0FCAA
:0A4A4200A3E0FDA3E0FEA3E0FF22C5
:104A4C00EF75F03DA42494F582E43402F583E0FC88
:0A4A5C00A3E0FDA3E0FEA3E0FF22AB
:104A6600EF75F03DA42498F582E43402F583E0FC6A
:0A4A7600A3E0FDA3E0FEA3E0FF2291
:104A8000EF75F03DA424A0F582E43402F583E0FC48
:0A4A9000A3E0FDA3E0FEA3E0FF2277
:104A9A00EF75F03DA424A4F582E43402F583E0FC2A
:0A4AAA00A3E0FDA3E0FEA3E0FF225D
:104AB400EF75F03DA424A8F582E43402F583E0FC0C
:0A4AC400A3E0FDA3E0FEA3E0FF2243
:104ACE00EF75F03DA424B0F582E43402F583E0FCEA
:0A4ADE00A3E0FDA3E0FEA3E0FF2229
:104AE800EF75F03DA424ACF582E43402F583E0FCD4
:0A4AF800A3E0FDA3E0FEA3E0FF220F
:052E4C0090048CEDF084
:102E5100E4900493F0A3F090048FE0FFA3E09004CA
:102E610095CFF0A3EFF090048DE0FFA3E0900497DD
:102E7100CFF0A3EFF0E4900491F0A3F090048CE084
:102E8100FF900491E0FCA3E0FDC39F7480F8EC6423
:102E910080984003022F46ED25E0FFEC338F82F549
:102EA10083120CC1FFC3900496E09F900495E095B6
:102EB100F0501D900492E025E0FF900491E0338FE3
:102EC10082F583120CC1FF900495E5F0F0A3EFF0B9
:102ED100900492E025E0FF900491E0338F82F58326
:102EE100120CC1FFD3900498E09F900497E095F0F5
:102EF100401D900492E025E0FF900491E0338F8221
:102F0100F583120CC1FF900497E5F0F0A3EFF09068
:102F11000492E025E0FF900491E0338F82F5831263
:102F21000CC1FFAEF0900494E02FF0900493E03ECA
:102F3100F0900492E004F06003022E7D900491E091
:102F410004F0022E7D900497E0FEA3E0FF9004962A
:102F5100E02FFF900495E03EFEC3900494E09FFFB4
:102F6100900493E09EFEF0A3EFF090048CE024FE29
:102F7100FDE434FFFC120C56900493EEF0A3EFF045
:012F8100222D
:1038CD00602A038C000000000000000000000000D2
:1038DD0000000000000000000000000000000000DB
:0E38ED000000000000000000000000000000CD
:10363C009004D3EBF0A3EAF0A3E9F0900003120B93
:10364C00E3FF9004CFE0FBA3E0FAA3E0F9A3E0FED4
:10365C00F582758300EF120C229004D3E0FBA3E0FB
:10366C00FAA3E0F9900002120BE3FFEE2401FDE453
:10367C0033FC9004CFE0FBA3E0FAA3E0F98D828C3D
:10368C0083EF120C229004D3E0FBA3E0FAA3E0F941
:10369C00900001120BE3FFEE2402FDE433FC9004D6
:1036AC00CFE0FBA3E0FAA3E0F98D828C83EF120C40
:1036BC00229004D3E0FBA3E0FAA3E0F9120BCAFFBB
:1036CC00EE2403FDE433FC9004CFE0FBA3E0FAA36B
:0A36DC00E0F98D828C83EF020C22CE
:10436E00900517E090054CF0122F82E4900518F09E
:10437E00900517E0FF1236E6900518E0FEC39F5039
:10438E0017748C2EF582E43403F583E0FF12458D0D
:08439E00900518E004F080D83E
:0143A60022F4
:102F8200900548120E7890054CE0FFD3940A400356
:102F92000230B5EF70030230B5EF14B40A004003FB
:102FA2000230B5902FB375F003A4C58325F0C58315
:102FB20073022FD1022FE7022FFE02301502302CAE
:102FC20002304202305802306E02308402309A904F
:102FD20004CF7401F0A37403F0A3748CF0A3740102
:102FE200F0FB0230AE9004CF7401F0A37403F0A39F
:102FF200748CF0A37405F07B010230AE9004CF74A0
:1030020001F0A37403F0A3748CF0A37409F07B01A4
:103012000230AE9004CF7401F0A37403F0A3748C59
:10302200F0A3740DF07B010230AE9004CF7401F076
:10303200A37403F0A3748CF0A37411F07B01806C71
:103042009004CF7401F0A37403F0A3748CF0A37402
:1030520015F07B0180569004CF7401F0A37403F045
:10306200A3748CF0A37419F07B0180409004CF7498
:1030720001F0A37403F0A3748CF0A3741DF07B0120
:10308200802A9004CF7401F0A37403F0A3748CF02F
:10309200A37421F07B0180149004CF7401F0A37417
:1030A20003F0A3748CF0A37425F07B017A057948B0
:0430B20012363C2274
:1036E600EFD3940A5003EF70037F002290038C748B
:1036F60024F0EF14B40A004003023788903710759F
:10370600F003A4C58325F0C5837302372E0237372D
:1037160002374002374902375202375B02376402EA
:10372600376D02377602377F9003917405F07F0676
:10373600229003957409F07F0A22900399740DF084
:103746007F0E2290039D7411F07F12229003A174C4
:1037560015F07F16229003A57419F07F1A229003A4
:10376600A9741DF07F1E229003AD7421F07F2222E2
:103776009003B17425F07F26229003B57429F07F5B
:053786002A227F002251
:104C4D0090054DEEF0A3EFF0A3EBF0A3EAF0A3E98E
:024C5D00F02243
:0838FB00C100C101C102C103BB
:1047AD0090057B7478F0E490057AF07B017A0579B9
:0E47BD007A7F02122556D2A3D2A4D2A5D2A68C
:0147CB0022CB
:0A4D6C00EF4E7005EE4F24FFB32256
:1048C100EF24F0600F24F0600E24E0600D243870B6
:0D48D1000BA20022A20122A20222A20322B9
:10402C00A2A3E4FE33FF124D6C500EA2A3E433FFA7
:10403C00124D6C5006D2008002C200A2A4E4FE33E2
:10404C00FF124D6C5007200106D2018002C201A262
:10405C00A5E4FE33FF124D6C5007200206D20280FD
:10406C0002C202A2A6E4FE33FF124D6C50062003DE
:07407C0005D20322C203225A
:02390300C10AF7
:1044C50090057D7405F0E490057CF07B017A057913
:1044D5007C7F05122556124DC27FC8124CFA124D2B
:0744E500C77FC8124CFAD397
:0144EC0022AD
:054DC200C2CDD20A225F
:054DC700D2CDC20A225A
:10462300900599EFF0900599E0FF14F0EF601212F6
:104633004DC27FC8124CFA124DC77FC8124CFA8084
:02464300E4226F
:034DD500A20A220D
:064DA40090058EEFF022E5
:103A0100900552EFF07F337E337D737C3FA3E0F866
:103A1100A3E0F9A3E0FAA3E0FB120A9E600C400ABE
:103A2100900553120E843F7333337FCD7ECC7D4C92
:103A31007C3D900553E0F8A3E0F9A3E0FAA3E0FB95
:103A4100120A9E500A900553120E843D4CCCCD9023
:103A51000552E02404FFC007A3E0FCA3E0FDA3E0BE
:103A6100FEA3E0FF900562120E78D0071233E390B7
:103A71000553E0FCA3E0FDA3E0FEA3E0FF120B4928
:103A8100900552E025E02467F582E43405F583EFE3
:023A9100F02221
:1048670090058FEFF02404FF1244ED90058FE025AB
:0E487700E02466F582E43405F5837401F02236
:1048DE00900590EFF02404FF1245D9900590E02545
:0D48EE00E02466F582E43405F583E4F02251
:104CEA00EF25E02466F582E43405F583E024FF220B
:103E9D00E4900477F0A37408F07B017A0479777FBE
:103EAD00021225569004787404F07B017A04797718
:103EBD007F02122556D2A2D2A343BA80E490047990
:103ECD00F0A3F0A3F0A304F0E4A3F0A3F0A3F0A3F8
:103EDD00F0A3F0A3F0A3F0A3F0A3F0A3F0A3F0A33D
:103EED00F07B017A0479797F021215CB7B017A047C
:0A3EFD0079797F031215CB53BA7FC9
:013F07002297
:052382009003B6EFF02E
:10238700E49003C5F0A37480F07B017A0379C57FDD
:1023970003122556D2B743BA80E49003C7F0A3F0DF
:1023A700A3F0A304F0E4A3F0A3F0A3F0A3F0A3F039
:1023B700A3F0A3740FF0E4A3F0A3F0A3F0A3F0A39A
:1023C700F09003B6E0FF7B017A0379C71215CB5370
:1023D700BA7F9003B6E0FF7D10124CC89003B6E0B9
:1023E700FF7D327C00123F6D9003B7E0FCA3E0FD58
:1023F700A3E0FEA3E0FF9003B6E0FB75F025A4245D
:102407000BF582E43403F583120E789003BBE0FCEE
:10241700A3E0FDA3E0FEA3E0FFEB75F025A4240FE6
:10242700F582E43403F583120E789003BFE0FCA332
:10243700E0FDA3E0FEA3E0FFEB75F025A4241DF566
:1024470082E43403F583120E789003C3E0FEA3E021
:10245700FFEB75F025A42417F582E43403F583EE2A
:10246700F0A3EFF0EB75F025A4240BF582E4340319
:10247700F583E0F8A3E0F9A3E0FAA3E0FB9003B645
:10248700E075F025A4240FF582E43403F583E0FC1E
:10249700A3E0FDA3E0FEA3E0FF120803C004C0050C
:1024A700C006C0079003B6E075F025A42417F5828F
:1024B700E43403F583E0FCA3E0FDE4120B10A80469
:1024C700A905AA06AB07D007D006D005D004120A83
:1024D700019003B6E0FB75F025A42413F582E434DC
:1024E70003F583120E78EB75F025A42417F582E423
:1024F7003403F583E0FCA3E0FDE4120B10A804A964
:1025070005AA06AB079003B6E075F025A4241DF5D0
:1025170082E43403F583E0FCA3E0FDA3E0FEA3E03F
:10252700FF120A019003B6E0FB75F025A42421F5FC
:1025370082E43403F583120E78EB75F025A4241991
:0E254700F582E43403F583120E8400000000D8
:012555002263
:0531E1009004D6EFF0A0
:1031E600A3E0FCA3E0FDA3E0FEA3E0FF9004D6E08D
:1031F600FB75F025A42406F582E43403F583120E4C
:1032060078EB75F025A42421F582E43403F583E0F8
:10321600F8A3E0F9A3E0FAA3E0FB9004D7E0FCA34F
:10322600E0FDA3E0FEA3E0FF120A019004D6E075DC
:10323600F025A42413F582E43403F583E0F8A3E033
:10324600F9A3E0FAA3E0FB1208F89004D6E075F0C3
:1032560025A4240BF582E43403F583E0F8A3E0F912
:10326600A3E0FAA3E0FB1208079004D6E0FB75F092
:1032760025A42427F582E43403F583120E78EB7532
:10328600F025A42427F582E43403F583E0FCA3E0CB
:10329600FDA3E0FEA3E0FFE4FBFA79A07841120A61
:1032A600019004DB120E789004DBE0FCA3E0FDA3A2
:1032B600E0FEA3E0FF900562120E789004D6E0FFD0
:1032C6001233E39004D6E0FB75F025A42406F582BC
:1032D600E43403F583E0FCA3E0FDA3E0FEA3E0FFF6
:1032E600EB75F025A42419F582E43403F583020E68
:0132F600785F
:104B0200EF75F025A42419F582E43403F583E0FC63
:0A4B1200A3E0FDA3E0FEA3E0FF22F4
:10474D00900591EFF01244ED900591E075F025A4E0
:10475D002425F582E43403F583E4F0A304F0D32299
:1047CC00900592EFF01245D9900592E075F025A472
:0F47DC002425F582E43403F583E4F0A3F0D3221F
:1045B400C0079004F1E0FCA3E0FDA3E0FEA3E0FF4C
:1045C4009004C4120E789004F5E0FCA3E0FDD0073B
:0545D4001232F7D322B2
:1034C7009004F7EFF0C007E4FFFE7DB47C43A3E070
:1034D700F8A3E0F9A3E0FAA3E0FB1208F8C004C0E0
:1034E70005C006C0079004F7E075F00EA424DCF5CC
:1034F70082E43403F583E0FCE4120B15D003D00219
:10350700D001D0001208F8C004C005C006C007905B
:1035170004F7E075F00EA424E0F582E43403F583A4
:10352700E0FCA3E0FDA3E0FEA3E0FF7B567A0E7963
:103537004978401208F89004F7E075F00EA424D8F3
:10354700F582E43403F583E0F8A3E0F9A3E0FAA3F6
:10355700E0FB1208F8A804A905AA06AB07D007D014
:1035670006D005D004120A01120B499004F1120E7D
:10357700789004FCE0FFA3E09004F5CFF0A3EFF010
:07358700D0071245B4D32266
:103F08009004FEEFF0E0FEFFC00775F00EA424DC7D
:103F1800F582E43403F583E0FCE4120B159004FF0A
:103F2800E0F8A3E0F9A3E0FAA3E0FB1208F8900494
:103F3800FEE075F00EA424D8F582E43403F583E09E
:103F4800F8A3E0F9A3E0FAA3E0FB120A01120B4977
:103F58009004C4120E78900503E0FCA3E0FDD0079E
:053F68001232F7D32224
:1043A70090057EEAF0A3EBF0C007AE04AF057C01F1
:1043B7007D68120C44AC06AD07E4120B109004FFA5
:1043C700120E7890057EE0FFA3E0900503CFF0A3DF
:0943D700EFF0D007123F08D322D9
:0F4D0A00EF70069003E4EDF0229003F2EDF0223B
:104CA600EF75F00EA424E4F582E43403F583E0FF07
:014CB60022DB
:104A1700EF7009200B04C2A78002D2A7EFB40109E7
:0B4A2700200B04C2A58002D2A5D32200
:1048FB00900593EFF0124935900593E075F00EA4F7
:0D490B0024E4F582E43403F5837401F02206
:104BDC00EF75F00EA424E4F582E43403F583E4F0DD
:034BEC000248A3D9
:10496F00EF7004C2A68002C2A4EF75F00EA424E477
:0C497F00F582E43403F5837401F0D322C8
:10498B00EF7004D2A68002D2A4EF75F00EA424E43B
:0C499B00F582E43403F5837402F0D322AB
:05382E00900499EFF089
:10383300E49004A5F0A374F0F07B017A0479A57FEA
:103843000212255690049AE0FCA3E0FDA3E0FEA338
:10385300E0FF900499E0FB75F00EA424D8F582E410
:103863003403F583120E7890049EE0FFEB75F00E9F
:10387300A424DCF582E43403F583EFF090049FE0A5
:10388300FEA3E0FFEB75F00EA424DDF582E4340320
:10389300F583EEF0A3EFF09004A1E0FCA3E0FDA319
:1038A300E0FEA3E0FFEB75F00EA424E0F582E43420
:1038B30003F583120E78EB75F00EA424E4F582E48D
:0A38C3003403F5837401F002446C35
:0F4D1900746E2FF582E43405F5837401F0D32214
:0E4D2800746E2FF582E43405F583E4F0D32297
:014DE40022AC
:1049A700900519EFF0A3EDF0A37401F0E4A3F0A3D1
:0C49B700F0A3F07B017A0579190240D7CB
:103E2300E490044EF0300C63F0E4FF123FCE9004B4
:103E33004EE025E0243AF582E43404F583EEF0A362
:103E4300EFF090044EE004F0E0C3940A40DB7B0102
:103E53007A04793A90048D7404F0A3E4F0A3F0A3F8
:103E6300F07D0A122E4CAC06AD07E4120B10900441
:103E7300E8120E789004E8E0FCA3E0FDA3E0FEA3C3
:103E8300E0FFA3120E789004E880039004ECE0FCBA
:093E9300A3E0FDA3E0FEA3E0FFA3
:013E9C002203
:1049C300900594EFF0D2C87F01124CFA900594E061
:0C49D300F5C0D2CA7F01124CFAC2CA2201
:1043E000900571EBF0A3EAF0A3E9F0900571E0FB12
:1043F000A3E0FAA3E0F9120BCAFFD39400400F1216
:0F44000049C3900572E475F001120CAB80DD2208
:10491800124885D2CCC2CAC2C97F381249DF7F0C7F
:0D4928001249DF7F061249DF7F010249DFDF
:1049DF00900595EFF0C2C87F01124CFAD2CA90052C
:0C49EF0095E0F5C07F01124CFAC2CA220C
:1048850053C9EF43CA1053C9FE53CAFE53C9FD535A
:0E489500CAFD53C9FB53CAFBE4F5B3F5B422C8
:084B840090056AECF0A3EDF0CE
:104B8C00E4A3F0A3EFF07B017A05796CE4FF022536
:014B9C0056C2
:054CB700900596EFF0EE
:0B4CBC00E4FF00000FEFB408F9000057
:014CC70022CA
:101CF8000000000000000000004F00000000070086
:101D0800070000147F147F1400242A7F2A1200235E
:101D1800130864620036495522500000050300008C
:101D280000001C224100000041221C000014083E53
:101D380008140008083E0808000050300000000899
:101D4800080808080000606000000020100804026D
:101D5800003E5149453E0000427F4000004261512B
:101D68004946002141454B31001814127F100027C5
:101D780045454539003C4A49493000017109050388
:101D880000364949493600064949291E00003636B9
:101D9800000000005636000000081422410000141C
:101DA80014141414000041221408000201510906F9
:101DB80000324979413E007E1111117E007F494968
:101DC800493E003E41414122007F4141221C007FA3
:101DD80049494941007F09090901003E4149497AB9
:101DE800007F0808087F0000417F41000020404133
:101DF8003F01007F08142241007F40404040007F9F
:101E08000204027F007F0408107F003E4141413EEA
:101E1800007F09090906003E4151215E007F09192A
:101E280029460046494949310001017F0101003F27
:101E38004040403F001F2040201F003F4038403FA7
:101E48000063140814630003047804030061514913
:101E5800454300007F4141000015167C161500001F
:101E680041417F000004020102040040404040401C
:101E7800000001020400002054545478007F4844B4
:101E8800443800384444442000384444487F0038EB
:101E98005454541800087E090102000C5252523E54
:101EA800007F080404780000447D4000002040447E
:101EB8003D00007F102844000000417F4000007E64
:101EC800020C027C007E0402027C00384444443840
:101ED800007C1414140800081414187C007C0804EE
:101EE800040800485454542000043F444020003C57
:101EF8004040207C001C2040201C003C4030403CDE
:101F0800004428102844000C5050503C00446454AD
:101F18004C440000083641000000007F000000002B
:101F2800413608000008040810080008082A1C08A0
:101F380000081C2A08080004027F02040010207F01
:0E1F48002010001C2A322A1C001C2244221CDD
:10476D00C2CBED24FF92CA7E08EF30E704D2C98098
:0F477D0002C2C9C2C8EF25E0FFD2C8DEECD2CB22
:01478C00220A
:10472C00E4FD7F8012476D7F4012476D7BF87A0164
:10473C007D01E4FF12476DEB1B70011AEB4A70F020
:01474C00224A
:104BEF00AD07E4FF124BB47C547D01E4FF12476D17
:024BFF00DCF7E1
:014C01002290
:104BB400AC05EF4480FFEC4440FCE4FD12476DAFCC
:044BC4000402476D33
:0742BA00E0FF04F0A3E0FDAA
:1042C10074E02BFBEF75F006A4FF124BB4E4FC7510
:1042D100F006EBA424F8F582E5F0341CF583E582C1
:1042E1002CF582E43583F583E493FF7D0112476D5C
:0542F1000CECB406DA3C
:0142F60022A5
:10433300900557EFF0A3EDF0A3EBF0A3EAF0A3E9A8
:10434300F0900559E0FBA3E0FAA3E0F9120BCAFBD6
:104353006018900557E0C3940E500F1242BA9005AF
:0B4363005AE475F001120CAB80D72269
:10412A0090055CEFF0A3EDF0A3EBF0A3EAF0A3E9AE
:10413A00F090055EE0FBA3E0FAA3E0F9120BCAFBDC
:10414A00602890055C1242BA90055FE475F001128E
:10415A000CAB90055CE0B40E06E4F0A3E004F0902A
:0B416A00055DE0B406CBE4F080C72246
:1041B900E4900580F0A304F0FB7A0579807F05126D
:1041C9002556C2CCD2CCE4FD7F2112476D7F061261
:1041D900476D7F1312476D7FC812476D7F201247C5
:1041E9006D7F0C12476D7F4012476D7F8012476DBE
:0341F90002472C4E
:104C5F003F065B4F666D7D077F6F777C395E79719D
:024C6F0040EF14
:0A390500080E0000000000000000A2
:0542F700900582EFF0CC
:1042FC00E4A3F0C2917F017E0012443E900582E05F
:10430C00FF30E004D2908002C290EFC3139005827C
:10431C00F0D2917F017E0012443E900583E004F0C0
:06432C00E0C3940840CD3F
:014332002268
:1041FC00E4900585F0D290900584F0900585E0C39D
:10420C0013F0C2917F017E0012443E30900790055E
:10421C0085E04480F0D2917F017E0012443E9005EF
:0F422C0084E004F0E0C3940840D1900585E0FFE2
:01423B002260
:1047EB00900597EFF0C2927F017E0012443E900538
:0F47FB0097E0FF1242F7D2927F017E0002443E08
:1030B600E4900524F0C2927F421242F77F64124CDC
:1030C600FAE4900523F01241FC900523E0241FF555
:1030D60082E43405F583EFF0900523E004F0E0C3C5
:1030E600940440E2D29290051FE0FFB404099005D3
:1030F600247401F00231D6EFB4400990052474021D
:10310600F00231D6900520E0FFB40409900524743E
:1031160003F00231D6EFB440099005247404F0029E
:1031260031D6900521E0FFB404099005247405F01A
:103136000231D6EFB440099005247406F00231D668
:10314600900522E0FFB404099005247407F00231CB
:10315600D6EFB440089005247408F0807390051FDC
:10316600E0FFB402089005247409F08063EFB420F0
:1031760008900524740AF08057900520E0FFB402F9
:1031860008900524740BF08047EFB42008900524BE
:10319600740CF0803B900521E0FFB40208900524F2
:1031A600740DF0802BEFB42008900524740EF08087
:1031B6001F900522E0FFB40208900524740FF080EA
:1031C6000FEFB420089005247410F080037F0022CE
:0A31D6007F64124CFA900524E0FF1C
:0131E00022CC
:10440F007F8A1247EB7F8A1247EB7F401247EBC23E
:10441F00927FC01242F7E4900598F07FFF1242F7A7
:0E442F00900598E004F0E0C3941040EFD292A4
:01443D00225C
:1019650090046BE0900474F090046AE0900475F0C4
:10197500900469E0900476F0900468E0F9900467BB
:10198500E0FAAE05AC06AD07900475E0904C5F93A8
:10199500540125E0FF900474E0904C5F9354012FAF
:1019A500FF900476E0904C5F93540125E025E02FED
:1019B500FFE993540133333354F82FFFEA9354016D
:1019C500C454F02FFFEB935401C43354E02FFFECC4
:1019D500935401C4333354C02FFFED935401C433E2
:1019E500333354802F90046CF0900474E0904C5F76
:1019F500935402C313FF900475E0904C5F93540217
:101A05002FFF900476E0904C5F93540225E02FFF62
:101A1500E993540225E025E02FFFEA93540233337E
:101A25003354F82FFFEB935402C454F02FFFEC937B
:101A35005402C43354E02FFFED935402C43333549E
:101A4500C02F90046DF0900475E0904C5F935404A2
:101A5500C313FF900474E0904C5F93540413135424
:101A65003F2FFF900476E0904C5F9354042FFFE9DD
:101A750093540425E02FFFEA93540425E025E02F35
:101A8500FFEB93540433333354F82FFFEC93540492
:101A9500C454F02FFFED935404C43354E02F900445
:101AA5006EF0900475E0904C5F9354081313543F07
:101AB500FF900474E0904C5F935408131313541F64
:101AC5002FFF900476E0904C5F935408C3132FFFCB
:101AD500E99354082FFFEA93540825E02FFFEB9371
:101AE500540825E025E02FFFEC9354083333335495
:101AF500F82FFFED935408C454F02F90046FF09025
:101B05000475E0904C5F935410131313541FFF900A
:101B15000474E0904C5F935410C4540F2FFF90044D
:101B250076E0904C5F9354101313543F2FFFE993C5
:101B35005410C3132FFFEA9354102FFFEB93541047
:101B450025E02FFFEC93541025E025E02FFFED93C2
:101B5500541033333354F82F900470F0900475E02B
:101B6500904C5F935420C4540FFF900474E0904C44
:101B75005F935420C41354072FFF900476E0904CD4
:101B85005F935420131313541F2FFFE9935420130D
:101B950013543F2FFFEA935420C3132FFFEB9354A5
:101BA500202FFFEC93542025E02FFFED93542025A3
:101BB500E025E02F900471F0900475E0904C5F9360
:101BC5005440C4135407FF900474E0904C5F935441
:101BD50040C4131354032FFF900476E0904C5F9399
:101BE5005440C4540F2FFFE9935440131313541F4B
:101BF5002FFFEA9354401313543F2FFFEB935440A8
:101C0500C3132FFFEC9354402FFFED93544025E071
:101C15002F900472F0900475E0904C5F935480C44B
:101C250013135403FF900474E0904C5F935480C4E5
:101C350013131354012FFF900476E0904C5F9354D7
:101C450080C41354072FFFE9935480C4540F2FFF0A
:101C5500EA935480131313541F2FFFEB93548013EF
:101C650013543F2FFFEC935480FEC3132FFFED93C6
:101C750054802F900473F07F8A1247EB7F40124700
:101C8500EBC2927FC01242F790046CE0FF1242F75C
:101C95007F801242F790046DE0FF1242F7E4FF12D5
:101CA50042F790046EE0FF1242F7E4FF1242F7900C
:101CB500046FE0FF1242F7E4FF1242F7900470E070
:101CC500FF1242F7E4FF1242F7900471E0FF12425F
:101CD500F7E4FF1242F7900472E0FF1242F7E4FFC7
:101CE5001242F7900473E0FF1242F7E4FF1242F745
:021CF500D29289
:011CF70022CA
:054DCC007F800247EBAF
:10390F004204140000C107C10842040C0000420425
:0D391F0010000042040E00004204120000DF
:0A32F7009004C2ECF0A3EDF0AB0769
:10330100E49004C8F0A3F09004C2E0FEA3E0FFEB58
:1033110075F007A4241AF582E43404F583EEF0A3D2
:10332100EFF09004C4E0FCA3E0FDA3E0FEA3E0FF06
:10333100EB75F007A42416F582E43404F583120E2C
:1033410078EB704F9004C2E0FEA3E0FFD39414EE3B
:103351009400403BAB07AA06E4F9F87F807E847DA8
:103361001EFC124175E47B02FAF9F8124175C3E4BF
:103371009FFFE49E9004CAF0A3EFF0C207438F04BD
:103381009004CAE0FCA3E0FDECF5D68DD78051D2C4
:1033910007804D9004C2E0FEA3E0FFD39414EE94A5
:1033A10000403BAB07AA06E4F9F87F807E847D1ECE
:1033B100FC124175E47B02FAF9F8124175C3E49FEE
:1033C100FFE49E9004CAF0A3EFF0C20843D101903C
:1033D10004CAE0FCA3E0FDECF5D48DD58002D2084F
:0133E100D318
:0133E20022C8
:1048A300EF75F007A4241CF582E43404F583740146
:0E48B300F0EF7005438E10800343D108D3222E
:10493500EF7005538EEF800353D1F7EF75F007A4A1
:0D494500241CF582E43404F583E4F0D32251
:104C7100EF75F007A4241CF582E43404F583E024E5
:024C8100FF2210
:10446C00E4900586F0A304F0FB7A0579867F0312AD
:10447C0025569005877410F07B017A057986E4FF48
:0C448C00122556E490041CF0900423F06C
:014498002201
:03006300023D2D2E
:103D2D00C0E0C0F0C083C082C0D075D000C000C05C
:103D3D0001C002C003C004C005C006C007E47F0275
:103D4D00FEFDFC900416E0F8A3E0F9A3E0FAA3E071
:103D5D00FB120CF9C006C00790040CE475F00112BB
:103D6D000CABAFF0AB07FAE4F9F8D007D006C312ED
:103D7D000E24400CE4FF12493590040CE4F0A3F03E
:103D8D00D007D006D005D004D003D002D001D0008A
:0B3D9D00D0D0D082D083D0F0D0E03234
:03009B00023DA87B
:103DA800C0E0C0F0C083C082C0D075D000C000C0E1
:103DB80001C002C003C004C005C006C007E47F02FA
:103DC800FEFDFC90041DE0F8A3E0F9A3E0FAA3E0EF
:103DD800FB120CF9C006C00790040EE475F001123E
:103DE8000CABAFF0AB07FAE4F9F8D007D006C31272
:103DF8000E24400C7F0112493590040EE4F0A3F024
:103E0800D007D006D005D004D003D002D001D0000E
:0B3E1800D0D0D082D083D0F0D0E032B8
:1040D700120BCAF59D900001120BE3FFE5BC549F3C
:1040E7004FF5BC900002120BE3B4010543BC80807E
:1040F7000353BC7F900003120BE3B40105439720E1
:1041070080035397DF900005120BE3B40104D2AD8F
:104117008002C2AD900004120BE3B40103D2BD22AA
:03412700C2BD22F4
:0C4D6000EFB4010443BC802253BC7F224E
:103FCE00EFD3940740028051E4F5BDF5BEE5BC5435
:103FDE00E044084FF5BC00000000E4FBE5BC30E413
:103FEE003353BCEFE59730E509E5BD5403ADBEFC98
:103FFE00801DAFBD7C00AD07ED7E007802C333CED1
:10400E0033CED8F9FFE5BE5403FDEEFCEF4DFDAF08
:0D401E0005AE04220BEBB4FAC37E047F0054
:01402B002272
:03002B00024DD1B2
:044DD10053BCEF32AE
:0F4CFA007D367C07ED1D70011C144C70F7DFF147
:014D09002287
:10443E00E4FCFDFB7A36796E7801120CF9E47B0C04
:10444E00FAF9F81241757B407A42790F78001241E1
:0D445E0075EF4E600800EF1F70F71E80F430
:01446B00222E
:034DD800A20D2207
:10255600EFD3940540037F0122120BCAFED39403E6
:1025660040037F0222EF7041EE700B900001120BC8
:10257600E3F452935294120BCAB4010B9000011269
:102586000BE34293F45294120BCAFEB4020A900073
:1025960001120BE342934294EEB4030D9000011234
:1025A6000BE3FEF45293EE4294EF64017043120B78
:1025B600CAFE700B900001120BE3F452915292EE98
:1025C600B4010B900001120BE34291F45292120BEC
:1025D600CAB4020A900001120BE342914292120B16
:1025E600CAB4030D900001120BE3FEF45291EE42C1
:1025F60092EF64027043120BCAFE700B9000011238
:102606000BE3F452955296EEB4010B900001120BB7
:10261600E34295F45296120BCAB4020A90000112D4
:102626000BE342954296120BCAB4030D90000112B9
:102636000BE3FEF45295EE4296EF64037043120BE1
:10264600CAFE700B900001120BE3F452B152B2EEC7
:10265600B4010B900001120BE342B1F452B2120B1B
:10266600CAB4020A900001120BE342B142B2120B45
:10267600CAB4030D900001120BE3FEF452B1EE4210
:10268600B2EF64047043120BCAFE700B9000011285
:102696000BE3F452B352B4EEB4010B900001120BEB
:1026A600E342B3F452B4120BCAB4020A9000011208
:1026B6000BE342B342B4120BCAB4030D90000112ED
:1026C6000BE3FEF452B3EE42B4EF64057043120B13
:1026D600CAFF700B900001120BE3F452C952CAEF05
:1026E600B4010B900001120BE342C9F452CA120B5B
:1026F600CAB4020A900001120BE342C942CA120B85
:10270600CAB4030D900001120BE3FFF452C9EF4265
:04271600CA7F002254
:10358E00EF7034D3ED9498EC940340047C037D9853
:10359E00C3ED9450EC940050047C007D50C2DE903C
:1035AE000458ECF0A3EDF0C374E89D900453F0744E
:1035BE00039C9004528073EF64017034D3ED9468D1
:1035CE00EC940B40047C0B7D68C3ED9450EC94009E
:1035DE0050047C007D50C2DE90045AECF0A3EDF056
:1035EE00C374B89D900455F0740B9C900454803AAB
:1035FE00EF64027038D3ED9480EC940740047C079E
:10360E007D80C3ED9450EC940050047C007D50C23C
:10361E00DE90045CECF0A3EDF0AE04FFC374D09F1B
:0E362E00900457F074079E900456F0D2DE22EE
:10271A00900574EBF0A3EAF0A3E9F0AD07EDD394CA
:10272A000340030228B8ED6403704CC2DEF5F9F5E4
:10273A00E9900574E0FBA3E0FAA3E0F9120BCAFFE3
:10274A00E5A254CF4FF5A2900001120BE3FFE5D9A1
:10275A0054F14FF5D9900004120BE35401FFE5D967
:10276A0054FE4FF5D9900005120BE3B40104D2BF11
:10277A008002C2BFD2DE22900574E0FBA3E0FAA376
:10278A00E02404F9E43AFA120BCA5431120C1090FC
:10279A000574E0FBA3E0FAA3E0F9900002120BE350
:1027AA00C39448400FE92404F9E43AFA120BCA54D4
:1027BA00CF120C10ED704F900574E0FBA3E0FAA362
:1027CA00E0F9900004120BE3FF900002120BE3FE03
:1027DA004FF5DA900003120BE3FFE5F2543F4FF591
:1027EA00F2900006120CC1FBAAF0900458EAF0A37A
:1027FA00EBF0C20490044FEEF090045EEAF0A3EB13
:10280A00F0F5EAEAF5FAED6401704F900574E0FB21
:10281A00A3E0FAA3E0F9900004120BE3FF90000290
:10282A00120BE3FE4FF5DB900003120BE3FFE5F317
:10283A00543F4FF5F3900006120CC1FBAAF0900426
:10284A005AEAF0A3EBF0C205900450EEF09004604F
:10285A00EAF0A3EBF0F5EBEAF5FBED6402704F90BA
:10286A000574E0FBA3E0FAA3E0F9900004120BE37D
:10287A00FF900002120BE3FE4FF5DC900003120BEF
:10288A00E3FFE5F4543F4FF5F4900006120CC1FD46
:10289A00ACF090045CECF0A3EDF0C206900451EEAB
:0F28AA00F0900462ECF0A3EDF0F5ECECF5FC22FD
:102D0F00900578ECF0A3EDF0900577EFF0705ED3BF
:102D1F00EB9464EA940040047A007B64C3EB940163
:102D2F00EA940050047A007B01C2DE900578E0FE41
:102D3F00A3E0FFAD03AC02120C447C007D64120CC7
:102D4F0056900458EEF0A3EFF07C007D64AF03AE15
:102D5F0002120C56C374019FFFE49EFE900578E0AB
:102D6F00FCA3E0FD120C44900452022E4490057710
:102D7F00E06401705DD3EB9464EA940040047A0040
:102D8F007B64C3EB9401EA940050047A007B01C288
:102D9F00DE7C007D64AF03AE02120C56900578E026
:102DAF00FCA3E0FD120C4490045AEEF0A3EFF07C6C
:102DBF00007D64AF03AE02120C56C374019FFFE493
:102DCF009EFE900578E0FCA3E0FD120C44900454A5
:102DDF008063900577E064027062D3EB9464EA94A9
:102DEF000040047A007B64C3EB9401EA9400500422
:102DFF007A007B01C2DE7C007D64AF03AE02120C51
:102E0F0056900578E0FCA3E0FD120C4490045CEEB4
:102E1F00F0A3EFF0AE02AF037C007D64120C56C33B
:102E2F0074019FFFE49EFE900578E0FCA3E0FD1285
:0D2E3F000C44900456EEF0A3EFF0D2DE221A
:03003B0002378BFE
:10378B00C0E0C083C082C0D075D000C006C0073077
:10379B00D82AC2D830A5059004588003900452E073
:1037AB00FEA3E0FF90045FE02FF090045EE03EF09C
:1037BB0090045EE0FEA3E0F5EAEEF5FA30D92AC2FA
:1037CB00D930A60590045A8003900454E0FEA3E080
:1037DB00FF900461E02FF0900460E03EF0900460F5
:1037EB00E0FEA3E0F5EBEEF5FB30DA2AC2DA30A708
:1037FB000590045C8003900456E0FEA3E0FF900468
:10380B0063E02FF0900462E03EF0900462E0FEA3D0
:10381B00E0F5ECEEF5FCD007D006D0D0D082D0830B
:03382B00D0E032B8
:103F6D00900588ECF0A3EDF0AB07900588E0FEA37B
:103F7D00E0FFE4FCFDEB75F00AA42450F582E43477
:103F8D0003F583120E7843BA8053F57FEB75F00A73
:103F9D00A42459F582E43403F583E0FF7E009005F7
:103FAD0088E0FCA3E0FD120C44AB07AA06E4F9F887
:103FBD00FF7E367D6E7C0112417512480A53BA7F21
:013FCD0022D1
:104B1C00EF75F00AA42450F582E43403F583E0FC2D
:0A4B2C00A3E0FDA3E0FEA3E0FF22DA
:1033E300900561EFF07F337E337D737C3FA3E0F87C
:1033F300A3E0F9A3E0FAA3E0FB120A9E600C400AE3
:10340300900562120E843F7333337FCD7ECC7DCC27
:103413007C3C900562E0F8A3E0F9A3E0FAA3E0FBAB
:10342300120A9E500A900562120E843CCCCCCD90B9
:103433000562E0FCA3E0FDA3E0FEA3E0FF900561CD
:10344300E0FB75F00AA42455F582E43403F58312F6
:103453000E7843BA80EB75F00AA42459F582E4345C
:1034630003F583E0FFE4FCFDFEEB75F00AA42450B2
:10347300F582E43403F583E0F8A3E0F9A3E0FAA3CB
:10348300E0FB120CF9A804A905AA06AB077F007E8E
:10349300367D6E7C01120D84E4120B0B900562E005
:1034A300F8A3E0F9A3E0FAA3E0FB1208F8120B4932
:1034B300AB07AA06900561E0FF7D0A7C001239671D
:0434C30053BA7F2257
:104B3600EF75F00AA42455F582E43403F583E0FC0E
:0A4B4600A3E0FDA3E0FEA3E0FF22C0
:104CC800EF75F00AA42459F582E43403F583EDF076
:014CD80022B9
:104CD900EF75F00AA42459F582E43403F583E0FF63
:014CE90022A8
:0A4D760043BA8043F58053BA7F2250
:0A4D800043BA8053F57F53BA7F2237
:1044ED0043BA807401A807088002C333D8FC42F593
:1044FD00EF75F00AA42454F582E43403F5837401B6
:08450D00F043F58053BA7F2250
:1045D90043BA807401A807088002C333D8FCF45297
:1045E900F5EF75F00AA42454F582E43403F583E465
:0545F900F053BA7F221F
:104C8300EF75F00AA42454F582E43403F583E02499
:024C9300FF22FE
:0515CB0090058AEFF01D
:1015D000E4A3F090058BE0FFC39406505AEF75F03A
:1015E0000AA42450F582E43403F583120E8400002B
:1015F000000090058BE0FF75F00AA42454F582E406
:101600003403F583E4F0EF75F00AA42455F582E481
:101610003403F583120E840000000090058BE07502
:10162000F00AA42459F582E43403F5837401F090A0
:10163000058BE004F0809C43BA80120BCAB401050C
:1016400043F180800353F17F900001120BE3B4015A
:101650001490058AE0FF7401A807088002C333D8FC
:10166000FC42F1801390058AE0FF7401A80708800E
:1016700002C333D8FCF452F1900002120BE3B40120
:101680000543F540800353F5BF900003120BE3B40C
:10169000011490058AE0FF7401A807088002C33393
:1016A000D8FC42F5801390058AE0FF7401A8070872
:1016B0008002C333D8FCF452F5900004120BE3B45B
:1016C000010575F720800353F7DF900005120BE347
:1016D000B4010575F710800353F7EF900006120B65
:1016E000E3B4010575F708800353F7F7900007127C
:1016F0000BE3B4010575F704800353F7FB90000872
:10170000120BE3B4010575F702800353F7FD900057
:1017100009120BE390FFF27006E054EFF08004E052
:101720004410F090FFF2C083C082E0FF90000A12E4
:101730000BE3FEEF4ED082D083F090058AE0146078
:1017400072147003021806147003021859147003FF
:101750000218AC1470030218FD240560030219542A
:1017600090000B120BE390FF047006E054F7F0803A
:1017700004E04408F090000C120BE390FF04B40165
:1017800006E04404F08004E054FBF090000D120BDE
:10179000E390FF04B40106E04402F08004E054FD4D
:1017A000F090000E120BE390FF04B4010302194AFB
:1017B00002195090000B120BE390FF147006E054D6
:1017C000F7F08004E04408F090000C120BE390FF67
:1017D00014B40106E04404F08004E054FBF09000EF
:1017E0000D120BE390FF14B40106E04402F08004F4
:1017F000E054FDF090000E120BE390FF14B40103CF
:1018000002194A02195090000B120BE390FF24704A
:1018100006E054F7F08004E04408F090000C120B4E
:10182000E390FF24B40106E04404F08004E054FB9C
:10183000F090000D120BE390FF24B40106E0440287
:10184000F08004E054FDF090000E120BE390FF24B2
:10185000B4010302194A02195090000B120BE390D5
:10186000FF347006E054F7F08004E04408F0900084
:101870000C120BE390FF34B40106E04404F0800442
:10188000E054FBF090000D120BE390FF34B401061E
:10189000E04402F08004E054FDF090000E120BE3EF
:1018A00090FF34B4010302194A02195090000B1240
:1018B0000BE390FF447006E054F7F08004E0440826
:1018C000F090000C120BE390FF44B40106E04404D6
:1018D000F08004E054FBF090000D120BE390FF4405
:1018E000B40106E04402F08004E054FDF090000EE4
:1018F000120BE390FF44B40102804F805390000B21
:10190000120BE390FF547006E054F7F08004E044BB
:1019100008F090000C120BE390FF54B40106E04471
:1019200004F08004E054FBF090000D120BE390FFF4
:1019300054B40106E04402F08004E054FDF090004D
:101940000E120BE390FF54B40106E04401F0800452
:10195000E054FEF090000F120BE3B4010443F58055
:041960002253F57F9A
:011964002260
:10480A00D3E49F74809E90FFF1400AEFF0EE90FF90
:0F481A00F0F07F002274FFF090FFF0747FF02227
:10396700EF14602814603A14604C14605E146070A1
:10397700240560030239FE90FF01EDF0EC90FF0093
:10398700F090FF03EBF0EA90FF02806790FF11EDE4
:10399700F0EC90FF10F090FF13EBF0EA90FF12802D
:1039A7005290FF21EDF0EC90FF20F090FF23EBF019
:1039B700EA90FF22803D90FF31EDF0EC90FF30F070
:1039C70090FF33EBF0EA90FF32802890FF41EDF053
:1039D700EC90FF40F090FF43EBF0EA90FF4280133A
:1039E70090FF51EDF0EC90FF50F090FF53EBF0EAB1
:0A39F70090FF52F07F00227F0122B2
:10392C0041042B0241042C0242042D000042042FBE
:10393C000000420427000042042500004104390025
:10394C004104240041042A004104290044043100AC
:0A395C0000000044043500000000E4
:10408300E490040BF09003F3F0A3F0A3F0A3F0A3E8
:10409300F09003FAF09003F874A2F0A37440F0E4F4
:1040A3009003FBF0A304F0A3F0A3F0E4900402F068
:1040B300A3F0A304F0A3F0A3F0E490040AF07B01BF
:1040C3007A0379FB7F02121F567B017A0479037FFF
:0440D30003021F566F
:1045FE0090042BE0601EA3E0601AEF24FE600B0413
:10460E007012900431ECF0A3EDF0AF05900435EC90
:05461E00F0A3EFF02203
:104B5000EF24FE600804700E900431800390043549
:0A4B6000E0FEA3E0FF22E4FEFF22C6
:1049FB00EF24FE600C047013900433ECF0A3EDF085
:0C4A0B0022AF05900437ECF0A3EFF0227E
:104B6A00EF24FE600804700E90043380039004372B
:0A4B7A00E0FEA3E0FF22E4FEFF22AC
:0E4D3600EF14700953D17F90042B7402F02209
:10495200EF24FE600D04701490042BE07002D32249
:0D496200C32290042CE07003D38001C32217
:10482900EF24FE600E04701690042BE0B40102D34D
:0F48390022C32290042CE0B40103D38001C322D8
:10484800EF24FE600E04701690042BE0B40202D32D
:0F48580022C32290042CE0B40203D38001C322B8
:104BC800AE07124952400CEF14700843D180E490AC
:044BD800042BF02298
:0E4D4400AE071248295005124BC8D322C322D5
:094D8A00900427E0FEA3E0FF22E3
:094D9300900425E0FEA3E0FF22DC
:064DAA00900439E0FF2235
:064DB000900424E0FF2244
:064DB60090042AE0FF2238
:064DBC00900429E0FF2233
:101F5600AD07EDD3940440037F0122ED7073120B9D
:101F6600CAFED3940340037F0222C28CC2A9C2B91F
:101F76005389F0538E7F538FFE900002120BE3B409
:101F86000102D2A9900001120BE3B40102D2B9EE0C
:101F96004289900003120BE3FF7003438E80EFB477
:101FA6000203438904900004120BE3B40103438F38
:101FB60001900005120CC1E5F0F58C900005120C9D
:101FC600C1F58A900007120BE3B40102D28C7F00A0
:101FD60022ED64016003022062C28E900002120BA1
:101FE600E3B40104D2AB8002C2AB900001120BE352
:101FF600B40104D2BB8002C2BB120BCAFEC3940357
:1020060040037F0222E58954CF4EF58990000312E2
:102016000BE3FFB40103538EBFEF7003438E40EF13
:10202600B4020543894080035389BF900004120B14
:10203600E3B40105438F028003538FFD9000051220
:102046000CC1E5F0F58D900005120CC1F58B9000E2
:1020560007120BE3B40102D28E7F0022ED640270F8
:1020660078538EEF900002120BE3B4010543AF04E0
:10207600800353AFFB900003120BE3FED3940240A0
:10208600037F0222EEB40103538EFB900003120B72
:10209600E37003438E04900003120BE3B40205437E
:1020A6008E088003538EF7900004120BE3B40105EB
:1020B600438F048003538FFB900005120CC1E5F09B
:1020C600F5D6900005120CC1F5D7900007120BE368
:1020D600B40103438E107F0022ED6403706090000C
:1020E60003120BE3FED3940240037F022253D1F086
:1020F60053AFDF900002120BE3B4010343AF20EEAF
:10210600700343D102900003120BE3B4020343D1E0
:1021160006900004120BE3B4010343D101900005BD
:10212600120CC1E5F0F5D4900005120CC1F5D5905E
:102136000007120BE3B4010343D1087F0022ED64CC
:1021460004705C900003120BE3FED3940240037FFD
:10215600022253D10F53AFBF900002120BE3B4011A
:102166000343AF40EE700343D120900003120BE30C
:10217600B4020343D160900005120CC1FDACF0EC33
:10218600F5D28DD3900007120BE3B4010343D1803F
:10219600900004120BE3B4010343D1107F00227FA9
:0221A600022213
:100EEB009004E0EBF0A3EAF0A3E9F09004DFEFF05D
:100EFB00640160030210FD90000004F0E4A3F0A372
:100F0B00F0A3F0A3F0A3F0A3F09004E3F09004E3BC
:100F1B00E0FFC39480501474382FF582E43401F54C
:100F2B0083E4F09004E3E004F080E2E49004E3F067
:100F3B009004E3E0FFC394805014741C2FF582E4FB
:100F4B003400F583E4F09004E3E004F080E29004D5
:100F5B00E0E0FBA3E0FAA3E0F9120BCAD394C04084
:100F6B00037F022290000A120BE3B40104D2BC806F
:100F7B0002C2BC120BCAFFE598543F4FF598EF64C1
:100F8B00C06008EF64406003021077900002120EFD
:100F9B00487F807E8D7D5B7C00120D849004E41273
:100FAB000E78E4FFFE7D01FC9004E4E0F8A3E0F989
:100FBB00A3E0FAA3E0FBC3120E2440037F022290AE
:100FCB0004E4E0F8A3E0F9A3E0FAA3E0FBC3E49B9D
:100FDB00FFE49AFE740199FDE498FC9004E4120E70
:100FEB00789004E0E0FBA3E0FAA3E0F99000011293
:100FFB000BE3FB64017038C28E538EFE5389BF53D3
:10100B0089CF438E409004E4E0FCA3E0FDA3E0FE17
:10101B00A3E0FF7808120E358F8D9004E4A3A3A3F1
:10102B00E0F58BC2AB5389BF538FFDD28E8076EB2D
:10103B0064027035538EEF438E01538EF7438E044B
:10104B009004E4E0FCA3E0FDA3E0FEA3E0FF78083E
:10105B00120E358FD69004E4A3A3A3E0F5D753AFBC
:10106B00FB538EF7438E10803C7F02229004E0E00E
:10107B00FBA3E0FAA3E0F9120BCAFF701390000870
:10108B00120BE3B40105438E20801A538EDF8015BB
:10109B00EFB48011900008120BE3B4010543878075
:1010AB00800353877F9004E0E0FBA3E0FAA3E0F911
:1010BB00900009120BE3B40104D2AC8002C2AC90D5
:1010CB000007120BE3B40104D29C8002C29C900077
:1010DB000B120BE354C0FFE5A2543F4FF5A2900057
:1010EB000C120BE3B4010543971080035397EF7F6A
:1010FB0000229004DFE06402600302125F9000079D
:10110B007402F0E4A3F0A3F0A3F0A3F0A3F0A3F018
:10111B009004E3F09004E3E0FFC39480501474D484
:10112B002FF582E43401F583E4F09004E3E004F05E
:10113B0080E2E49004E3F09004E3E0FFC39480507A
:10114B0014749C2FF582E43400F583E4F09004E3EF
:10115B00E004F080E29004E0E0FBA3E0FAA3E0F906
:10116B00120BCAFF64C06008EF6440600302121FD9
:10117B0090000A120BE3B4010543B501800353B58C
:10118B00FE120BCAB4C005439A808003539A7F901A
:10119B000002120E487F807E8D7D5B7C00120D84D9
:1011AB009004E4120E78E4FFFE7D01FC9004E4E071
:1011BB00F8A3E0F9A3E0FAA3E0FBC3120E2440036B
:1011CB007F02229004E4E0F8A3E0F9A3E0FAA3E0A5
:1011DB00FBC3E49BFFE49AFE740199FDE498FC9039
:1011EB0004E4120E78538EEF538EF7438E04900463
:1011FB00E4E0FCA3E0FDA3E0FEA3E0FF7808120E01
:10120B00358FD69004E4A3A3A3E0F5D753AFFB43EC
:10121B008E1080037F02229004E0E0FBA3E0FAA390
:10122B00E0F9900009120BE3B4010543AF01800311
:10123B0053AFFE900007120BE3B40105439A1080E5
:10124B0003539AEF90000B120BE35401FFE5BA54D2
:10125B00FE4FF5BA9004DFE06403600302141290B2
:10126B00000E7402F0E4A3F0A3F0A3F0A3F0A3F03C
:10127B00A3F09004E3F09004E3E0FFC3941C50143C
:10128B0074542FF582E43402F583E4F09004E3E028
:10129B0004F080E2E49004E3F09004E3E0FFC394F5
:1012AB001C5014741C2FF582E43401F583E4F09088
:1012BB0004E3E004F080E29004E0E0FBA3E0FAA397
:1012CB00E0F9120BCAFF64C06008EF6440600302D0
:1012DB0013D253ACDFEFB4C00543AC80800353ACE7
:1012EB007F9004E0E0FBA3E0FAA3E0F99000021288
:1012FB000E487F807E8D7D5B7C00120D849004E414
:10130B00120E78E4FFFE7D01FC9004E4E0F8A3E00C
:10131B00F9A3E0FAA3E0FBC3120E2440037F0222E1
:10132B009004E4E0F8A3E0F9A3E0FAA3E0FBC3E444
:10133B009BFFE49AFE740199FDE498FC9004E4127F
:10134B000E789004E0E0FBA3E0FAA3E0F990000133
:10135B00120BE3FB6402703253ACBF538EEF538E10
:10136B00F7438E049004E4E0FCA3E0FDA3E0FEA3AE
:10137B00E0FF7808120E358FD69004E4A3A3A3E008
:10138B00F5D753AFFB438E108040EB6401703543B0
:10139B00AC4053D1F053AFDF43D10253D1FB53D108
:1013AB00FE9004E4E0FCA3E0FDA3E0FEA3E0FF78E5
:1013BB0008120E358FD49004E4A3A3A3E0F5D54314
:1013CB00D10880067F02227F02229004E0E0FBA37B
:1013DB00E0FAA3E0F9900009120BE3B4010543AF67
:1013EB0008800353AFF7900007120BE3B4010543DA
:1013FB00AC10800353ACEF90000B120BE35402FFC5
:10140B00E5BA54FD0215C29004DFE06404600302E8
:10141B0015C89000157402F0E4A3F0A3F0A3F0A399
:10142B00F0A3F0A3F09004E3F09004E3E0FFC39487
:10143B001C501474702FF582E43402F583E4F090A1
:10144B0004E3E004F080E2E49004E3F09004E3E0D2
:10145B00FFC3941C501474B82FF582E43401F58348
:10146B00E4F09004E3E004F080E29004E0E0FBA3FE
:10147B00E0FAA3E0F9120BCAFF64C06008EF644006
:10148B0060030215855384DFEFB4C005438480806D
:10149B000353847F9004E0E0FBA3E0FAA3E0F99010
:1014AB000002120E487F807E8D7D5B7C00120D84C6
:1014BB009004E4120E78E4FFFE7D01FC9004E4E05E
:1014CB00F8A3E0F9A3E0FAA3E0FBC3120E24400358
:1014DB007F02229004E4E0F8A3E0F9A3E0FAA3E092
:1014EB00FBC3E49BFFE49AFE740199FDE498FC9026
:1014FB0004E4120E789004E0E0FBA3E0FAA3E0F919
:10150B00900001120BE3FB640270325384BF538EC5
:10151B00EF538EF7438E049004E4E0FCA3E0FDA3AD
:10152B00E0FEA3E0FF7808120E358FD69004E4A3FB
:10153B00A3A3E0F5D753AFFB438E108040EB6402BF
:10154B00703543844053D10F53AFBF43D12053D198
:10155B00BF53D1EF9004E4E0FCA3E0FDA3E0FEA3B6
:10156B00E0FF7808120E358FD29004E4A3A3A3E01A
:10157B00F5D343D18080067F02227F02229004E0C4
:10158B00E0FBA3E0FAA3E0F9900009120BE3B4012E
:10159B000543AF10800353AFEF900007120BE3B47A
:1015AB00010543841080035384EF90000B120BE36F
:0F15BB005404FFE5BA54FB4FF5BA7F00227F03BB
:0115CA0022FE
:10458D00900002E02438F582E43401F583EFF090D9
:10459D000002E004F0C394804002E4F0900003E0D8
:0745AD00700404F0D2992212
:10451500900009E024D4F582E43401F583EFF090AE
:104525000009E004F0C394804002E4F090000AE042
:08453500700504F0439A022214
:10453D00900010E02454F582E43402F583EFF090FE
:10454D000010E004F0C3941C4002E4F0900011E070
:08455D00700504F043AC0222DA
:10456500900017E02470F582E43402F583EFF090B3
:104575000017E004F0C3941C4002E4F0900018E03A
:08458500700504F043840222DA
:104B9D00C2AF120BCAFF600C12458D740129F9E4E6
:074BAD003AFA80EED2AF22BC
:104C0200120BCAFF600C124515740129F9E43AFA35
:034C120080EE220F
:104C1500120BCAFF600C12453D740129F9E43AFAFA
:034C250080EE22FC
:104C2800120BCAFF600C124565740129F9E43AFABF
:034C380080EE22E9
:03002300023CAEEE
:103CAE00C0E0C083C082C0D075D000C006C007304F
:103CBE00982DC298900006E07025900004E0C39401
:103CCE00804002E4F0900004E0FF04F0741C2FF535
:103CDE0082E43400F583E599F09000057405F03028
:103CEE009930C299900002E0FF900001E0FE6F60F3
:103CFE001C74382EF582E43401F583E0F5999000BA
:103D0E0001E004F0C394804009E4F08005900003C4
:0F3D1E00E4F0D007D006D0D0D082D083D0E032EE
:03004300023B1F5E
:103B1F00C0E0C083C082C0D075D000C006C007E52A
:103B2F009A30E02E539AFE90000DE0702590000B16
:103B3F00E0C394804002E4F090000BE0FF04F074C7
:103B4F009C2FF582E43400F583E59BF090000C7414
:103B5F0005F0E59A30E131539AFD900009E0FF90AE
:103B6F000008E0FE6F601C74D42EF582E43401F57A
:103B7F0083E0F59B900008E004F0C394804009E4D3
:103B8F00F0800590000AE4F0D007D006D0D0D082A4
:053B9F00D083D0E032EC
:03008B00023BA491
:103BA400C0E0C083C082C0D075D000C006C007E5A5
:103BB400AC30E02E53ACFE900014E070259000125F
:103BC400E0C3941C4002E4F0900012E0FF04F0749F
:103BD4001C2FF582E43401F583E5ADF090001374F5
:103BE40005F0E5AC30E13153ACFD900010E0FF90FE
:103BF400000FE0FE6F601C74542EF582E43402F56D
:103C040083E0F5AD90000FE004F0C3941C4009E498
:103C1400F08005900011E4F0D007D006D0D0D08217
:053C2400D083D0E03266
:03009300023C2903
:103C2900C0E0C083C082C0D075D000C006C007E51F
:103C39008430E02E5384FE90001BE070259000191B
:103C4900E0C3941C4002E4F0900019E0FF04F07412
:103C5900B82FF582E43401F583E585F090001A74F4
:103C690005F0E58430E1315384FD900017E0FF90C1
:103C79000016E0FE6F601C74542EF582E43402F5E0
:103C890083E0F585900016E004F0C3941C4009E434
:103C9900F08005900018E4F0D007D006D0D0D0828B
:053CA900D083D0E032E1
:0E4D5200E4F5C7F5C5F5C675C3FF75C4FF22AD
:10423C00AD07AC06C2AF75C78075C501ECF5C3AF51
:10424C00058FC475C65A75C6A500E5C2120C100DB3
:10425C00BD00010C740129F9E43AFA90050A74FFC7
:0F426C00F5F0120CAB45F070D3124D52D2AF22C9
:10478D00AD07AC06C2AFECF5C3AF058FC475C780DE
:10479D0075C50375C65A75C6A500124D52D2AF2206
:10427B00AD07AC06C2AF75C78075C502ECF5C3AF11
:10428B00058FC4120BCAF5C275C65A75C6A5000DAB
:10429B00BD00010C740129F9E43AFA90051174FF81
:0F42AB00F5F0120CAB45F070D3124D52D2AF228A
:10080000020BB5E86480F8E933E83360110460F066
:10081000ED33EC337009E8FCE9FDEAFEEBFF22045E
:1008200060DED3EB9FEA9EE99DE8C2E78CF0C2F759
:1008300095F0400CE8CCF8E9CDF9EACEFAEBCFFB25
:10084000120B8085D0F05804700320D5B3E80470F3
:10085000075002B2D5020BBF92D5EC0460F7E4CC8E
:10086000C0E0C398F8603B94186008400DD0E0FBEE
:10087000020B97E4FBFAC9FC8028E830E406E4C9DF
:10088000FBE4CAFCE830E305E4C9CACBFCE8540742
:100890006010F8C3E913F9EA13FAEB13FBEC13FC4D
:1008A000D8F130F52FC3E49CFCEF9BFFEE9AFEEDF0
:1008B00099FDD0E0FBEF4E4D4C701222DB03020B92
:1008C000BCEC2CFCEF33FFEE33FEED33FDED30E7F7
:1008D000EB020B97EF2BFFEE3AFEED39FDD0E0FB7C
:1008E00050130BBB0003020BBFED13FDEE13FEEF25
:0808F00013FFEC13FC020B974F
:1008F800EC4D6011E8497017ED33EC3304600DE4FA
:10090800FCFFFEFD22E933E8330470F8020BB51250
:100918000B8058046009E4CC248150062850090251
:100928000BBF284003020BBCC0E0EB4A7044B980FF
:1009380006D0E0FB020BABEF4E701CBD8008EBFF4E
:10094800EAFEE9FD80EBE98DF0A4FEE5F00209E19D
:10095800E9CDF9EAFEEBFFEF89F0A4FCE5F0CE89DA
:10096800F0A42EFFE435F0CD89F0A42DFEE435F097
:100978008067EF4E7005BD80D780C3EF8BF0A4ACC5
:10098800F0EE8BF0A42CFCE435F0F8EF8AF0A42C00
:10099800E5F038FCE433CB8DF0A42CFCE5F03BF813
:1009A800EE8AF0A42CFCE5F038F8E433CF89F0A403
:1009B8002CFCE5F038CF3400CE89F0A42FFFE5F009
:1009C8003EFEE433C98DF0A42EFEE5F039CD8AF061
:1009D800A42FFFE5F03EFEE43DFD33D0E0FB5007D9
:1009E8000BBB000F020BBFEC2CFCEF33FFEE33FE0A
:0609F800ED33FD020B9738
:1009FE00020BBFEC5D046005E859047003020BB5F1
:100A0E00120B80580460F6EC4860F2EC7004FDFEA8
:100A1E00FF22C860DB2481C85009C39860025006CB
:100A2E00020BBC9850CAF582E9294B4A7005AB827D
:100A3E00020BAB75F0007C1A7880C3EF9BEE9AED3B
:100A4E0099400DC3EF9BFFEE9AFEED99FDE842F043
:100A5E00DC23ACF0D0E0FFD0E0FED0E0FDAB822096
:100A6E00E7101BEB60BAEC2CFCEF33FFEE33FEED20
:100A7E0033FD020B97E803F830E705C0F075F00080
:100A8E00EF2FFFEE33FEED33FD40B830E7C280AA04
:100A9E0074F8CC6480CCC86480C8F582046043C30B
:100AAE00EB9FF5F0EA9E42F0E99D42F0E89C45F09E
:100ABE0060305018E5825FFFE582F42B5582FB50C3
:100ACE00210ABA001D09B90019088016E5825BFBE0
:100ADE00E582F42F5582FF50090EBE00050DBD00B4
:100AEE00010CC3EB9FF5F0EA9E42F0E99D42F0E85F
:0D0AFE009C45F06007CC4820E701B3EC22D6
:100B0B0075F020800E75F010800575F0087D007E65
:100B1B00007F003392D530D503120E16EC33401004
:100B2B00EF33FFEE33FEED33FDEC33FCD5F0ED226E
:0E0B3B00E5F0247EA2D513CC92E7CDCEFF22AA
:100B4900EDD2E7CD33EC3392D524814006E4FFFEA4
:100B5900FDFC22FCE4CFCECDCC24E0501174FF8003
:100B6900EDC3CC13CCCD13CDCE13CECF13CF0470A0
:070B7900F030D5DE020E167C
:100B8000E9D2E7C933E833F892D5EDD2E7CD33ECBB
:070B900033FC5002B2D52234
:100B9700EC30E7100FBF000C0EBE00080DBD0004BF
:100BA7000BEB6014A2D5EB13FCED92E7FD2274FF6B
:100BB700FCFDFEFF22E480F8A2D574FF13FC7D80C4
:030BC700E480EFD8
:03000000023A932E
:0C3A9300787FE4F6D8FD758121023ADA54
:100BCA00BB010689828A83E0225002E722BBFE0229
:090BDA00E32289828A83E493225C
:100BE300BB010CE58229F582E5833AF583E02250C7
:100BF30006E92582F8E622BBFE06E92582F8E22211
:0D0C0300E58229F582E5833AF583E493222A
:100C1000BB010689828A83F0225002F722BBFE01C3
:020C2000F322BD
:100C2200F8BB010DE58229F582E5833AF583E8F008
:100C3200225006E92582C8F622BBFE05E92582C8B4
:020C4200F2229C
:100C4400EF8DF0A4A8F0CF8CF0A428CE8DF0A42EC4
:020C5400FE227E
:100C5600BC000BBE0029EF8DF084FFADF022E4CC82
:100C6600F875F008EF2FFFEE33FEEC33FCEE9DEC4B
:100C7600984005FCEE9DFE0FD5F0E9E4CEFD22ED91
:100C8600F8F5F0EE8420D21CFEADF075F008EF2FDB
:100C9600FFED33FD4007985006D5F0F222C398FDCC
:050CA6000FD5F0EA2269
:100CAB00C5F0F8A3E028F0C5F0F8E58215827002D4
:060CBB001583E038F02271
:100CC100BB0110E58229F582E5833AF583E0F5F071
:100CD100A3E0225009E92582F886F008E622BBFE4E
:100CE1000AE92582F8E2F5F008E222E5832AF58394
:080CF100E993F5F0A3E9932259
:100CF900E88FF0A4CC8BF0A42CFCE98EF0A42CFC9A
:100D09008AF0EDA42CFCEA8EF0A4CDA8F08BF0A417
:100D19002DCC3825F0FDE98FF0A42CCD35F0FCEB76
:100D29008EF0A4FEA9F0EB8FF0A4CFC5F02ECD393B
:0F0D3900FEE43CFCEAA42DCE35F0FDE43CFC22A8
:100D480075F008758200EF2FFFEE33FECD33CDCC62
:100D580033CCC58233C5829BED9AEC99E5829840E5
:100D68000CF582EE9BFEED9AFDEC99FC0FD5F0D6C2
:100D7800E4CEFBE4CDFAE4CCF9A88222B800C1B9EC
:100D88000059BA002DEC8BF084CFCECDFCE5F0CB2A
:100D9800F97818EF2FFFEE33FEED33FDEC33FCEB63
:100DA80033FB10D703994004EB99FB0FD8E5E4F91E
:100DB800FA227818EF2FFFEE33FEED33FDEC33FC0B
:100DC800C933C910D7059BE99A4007EC9BFCE99AFF
:100DD800F90FD8E0E4C9FAE4CCFB2275F010EF2F44
:100DE800FFEE33FEED33FDCC33CCC833C810D70744
:100DF8009BEC9AE899400AED9BFDEC9AFCE899F87F
:0E0E08000FD5F0DAE4CDFBE4CCFAE4C8F92211
:10417500C2D5E830E70FB2D5E4C39BFBE49AFAE475
:1041850099F9E498F8EC30E717B2D51241AB120D66
:1041950084E4C39BFBE49AFAE499F9E498F8800374
:1041A500120D8430D50DE4C39FFFE49EFEE49DFD12
:0441B500E49CFC2268
:0E0E1600C3E49FFFE49EFEE49DFDE49CFC22ED
:100E2400EB9FF5F0EA9E42F0E99D42F0E89C45F024
:010E3400229B
:100E3500E8600FECC313FCED13FDEE13FEEF13FF9B
:030E4500D8F122BF
:100E4800BB010DE58229F582E5833AF583020EC2DE
:100E58005007E92582F8020EB5BBFE07E92582F89E
:100E6800020ECEE58229F582E5833AF583020EDB90
:0C0E7800ECF0A3EDF0A3EEF0A3EFF022ED
:100E8400A8828583F0D083D082120E9B120E9B120F
:100E94000E9B120E9BE473E493A3C583C5F0C58334
:100EA400C8C582C8F0A3C583C5F0C583C8C582C8B8
:010EB400221B
:103A9F00022B8CE493A3F8E493A34003F68001F286
:103AAF0008DFF48029E493A3F85407240CC8C33328
:103ABF00C4540F4420C8834004F456800146F6DFF7
:103ACF00E4800B01020408102040809038CDE47E82
:103ADF00019360BCA3FF543F30E509541FFEE493EC
:103AEF00A360010ECF54C025E060A840B8E493A3B3
:103AFF00FAE493A3F8E493A3C8C582C8CAC583CADE
:103B0F00F0A3C8C582C8CAC583CADFE9DEE780BE95
:013966000060
:0D0EB500E6FB08E6F908E6FA08E6CBF822AD
:0C0EC200E0F8A3E0F9A3E0FAA3E0FB22B3
:0D0ECE00E2FB08E2F908E2FA08E2CBF822A4
:100EDB00E493F8740193F9740293FA740393FB226D
:00000001FF
