:02678000665D54
:0D665D00125FC97F04125E9FE4FF022E8DC4
:105BC900535443313577346B353873342773205543
:105BD90041525431206973206F70656E200D0A009F
:0F5BE9006C636435313130206973206F6B21009C
:105B63009004EE7440F0A37401F0A3121076900435
:105B7300F57401F0E4A3F0A304F0A3F0E4A3F0A30D
:105B8300F07B017A0479EE7F0112113B7BFF7A5B94
:055B930079C902645213
:0167820022F4
:105FC9007F007EC27D017C00125B63125601125C68
:105FD9008212581D7BFF7A5B79E9E4FDFF025A10B2
:0167830022F3
:0167840022F2
:0167850022F1
:0167860022F0
:0167870022EF
:053CD80090059FEDF0D6
:103CDD00E49005A6F0A3F09005A2E0FFA3E0900507
:103CED00A8CFF0A3EFF09005A0E0FFA3E09005AA08
:103CFD00CFF0A3EFF0E49005A4F0A3F090059FE0C2
:103D0D00FF9005A4E0FCA3E0FDC39F7480F8EC6474
:103D1D0080984003023DD2ED25E0FFEC338F82F514
:103D2D0083120EBFFFC39005A9E09F9005A8E095F3
:103D3D00F0501D9005A5E025E0FF9005A4E0338F20
:103D4D0082F583120EBFFF9005A8E5F0F0A3EFF00A
:103D5D009005A5E025E0FF9005A4E0338F82F58363
:103D6D00120EBFFFD39005ABE09F9005AAE095F032
:103D7D00401D9005A5E025E0FF9005A4E0338F825E
:103D8D00F583120EBFFF9005AAE5F0F0A3EFF090BA
:103D9D0005A5E025E0FF9005A4E0338F82F58312A1
:103DAD000EBFFFAEF09005A7E02FF09005A6E03E08
:103DBD00F09005A5E004F06003023D099005A4E034
:103DCD0004F0023D099005AAE0FEA3E0FF9005A9CD
:103DDD00E02FFF9005A8E03EFEC39005A7E09FFFF2
:103DED009005A6E09EFEF0A3EFF090059FE024FE67
:103DFD00FDE434FFFC120E089005A6EEF0A3EFF0E3
:013E0D002292
:0637C50090048912107649
:1037CB00900491E0FCA3E0FDA3E0FEA3E0FF9004D6
:1037DB009912107690048DE0FCA3E0FDA3E0FEA30C
:1037EB00E0FF90049D1210769005F0E0FCA3E0FD45
:1037FB00A3E0FEA3E0FF9004A11210769005F0E089
:10380B00FCA3E0FDA3E0FEA3E0FF9004A112107661
:10381B0090049DE0FCA3E0FDA3E0FEA3E0FF900578
:10382B00F4E0F8A3E0F9A3E0FAA3E0FB1208079099
:10383B0004A9121076900499E0FCA3E0FDA3E0FE2E
:10384B00A3E0FF9004A9E0F8A3E0F9A3E0FAA3E05A
:10385B00FB120807A804A905AA06AB079004A9E068
:10386B00FCA3E0FDA3E0FEA3E0FF120A019004AD70
:10387B001210769004A1E0F8A3E0F9A3E0FAA3E01C
:10388B00FB900489E0FCA3E0FDA3E0FEA3E0FF12A4
:10389B0008039004ADE0F8A3E0F9A3E0FAA3E0FB82
:1038AB001208F89004A1E0F8A3E0F9A3E0FAA3E072
:1038BB00FB1208079004A51210769004ADE0F8A354
:1038CB00E0F9A3E0FAA3E0FBE4FFFE7D807C3F126E
:1038DB0008039004A9E0F8A3E0F9A3E0FAA3E0FB46
:1038EB001208F89005F41210769004A5E0FCA3E002
:1038FB00FDA3E0FEA3E0FF9005F01210769004A567
:0B390B00E0FCA3E0FDA3E0FEA3E0FF52
:01391600228E
:10391700AB07EB75F03DA42437F582E43403F58358
:1039270012108200000000EB75F03DA4243BF582E5
:10393700E43403F58312108200000000EB75F03DBC
:10394700A4243FF582E43403F583121082000000BB
:1039570000EB75F03DA42453F582E43403F583129C
:10396700108200000000EB75F03DA4244FF582E4BF
:103977003403F583121082000000009005BBE0FCC1
:10398700A3E0FDA3E0FEA3E0FFEB75F03DA4244315
:10399700F582E43403F5831210769005BFE0FCA3AB
:1039A700E0FDA3E0FEA3E0FFEB75F03DA42447F59F
:1039B70082E43403F5831210769005C3E0FCA3E09C
:1039C700FDA3E0FEA3E0FFEB75F03DA4244BF582D9
:1039D700E43403F583121076EB75F03DA42443F528
:1039E70082E43403F583E0FCA3E0FDA3E0FEA3E05B
:1039F700FFEB75F03DA4245BF582E43403F58312F5
:103A07001076EB75F03DA42447F582E43403F58383
:103A1700E0FCA3E0FDA3E0FEA3E0FFEB75F03DA40F
:103A27002457F582E43403F583121076EB75F03DE5
:103A3700A4244BF582E43403F583E0FCA3E0FDA363
:103A4700E0FEA3E0FFEB75F03DA4245FF582E434CC
:063A570003F58302107666
:10650400EF75F03DA4246BF582E43403F583740144
:02651400F02273
:10657000EF75F03DA4246BF582E43403F583E4F079
:0165800022F8
:102F16009006C9EFF075F03DA4246BF582E4340306
:102F2600F583E070030230EF9006C9E0FF75F03DCF
:102F3600A42433F582E43403F583E0F8A3E0F9A38F
:102F4600E0FAA3E0FBEF75F03DA4242FF582E4340C
:102F560003F583E0FCA3E0FDA3E0FEA3E0FF120877
:102F6600039006C9E0FB75F03DA42437F582E434EE
:102F760003F583121076EB75F03DA4244FF582E439
:102F86003403F583C083C082E0FCA3E0FDA3E0FE2A
:102F9600A3E0FF9006C9E075F03DA42437F582E46E
:102FA6003403F583E0F8A3E0F9A3E0FAA3E0FB120B
:102FB6000807D082D0831210769006C9E0FF75F01C
:102FC6003DA4244FF582E43403F583E0F8A3E0F949
:102FD600A3E0FAA3E0FBEF75F03DA42447F582E4F5
:102FE6003403F583E0FCA3E0FDA3E0FEA3E0FF12BB
:102FF60008F8C004C005C006C0079006C9E0FF7502
:10300600F03DA42437F582E43403F583E0F8A3E029
:10301600F9A3E0FAA3E0FBEF75F03DA42443F582A3
:10302600E43403F583E0FCA3E0FDA3E0FEA3E0FFA8
:103036001208F8D003D002D001D000120807C0044D
:10304600C005C006C0079006C9E0FF75F03DA42480
:103056003BF582E43403F583E0F8A3E0F9A3E0FA54
:10306600A3E0FBEF75F03DA42437F582E43403F5C5
:1030760083E0FCA3E0FDA3E0FEA3E0FF12080390BB
:1030860006C9E075F03DA4244BF582E43403F583CC
:10309600E0F8A3E0F9A3E0FAA3E0FB1208F8D003F6
:1030A600D002D001D0001208079006C9E0FB75F0E7
:1030B6003DA42453F582E43403F583121076EB75B0
:1030C600F03DA42437F582E43403F583E0FCA3E065
:1030D600FDA3E0FEA3E0FFEB75F03DA4243BF582E3
:0A30E600E43403F583121076D322C0
:103627009006CAEFF075F03DA4246BF582E43403ED
:10363700F583E070030237C49006CAE0FF75F03DDA
:10364700A42433F582E43403F583E0F8A3E0F9A377
:10365700E0FAA3E0FBEF75F03DA4242FF582E434F4
:1036670003F583E0FCA3E0FDA3E0FEA3E0FF12085F
:10367700039006CAE0FB75F03DA42437F582E434D5
:1036870003F583121076EB75F03DA4243BF582E435
:103697003403F583E0FCA3E0FDA3E0FEA3E0FFEB2A
:1036A70075F03DA42447F582E43403F583E0F8A3DD
:1036B700E0F9A3E0FAA3E0FB1208F8C004C005C0D4
:1036C70006C0079006CAE0FF75F03DA42437F582CF
:1036D700E43403F583E0F8A3E0F9A3E0FAA3E0FB01
:1036E700EF75F03DA42443F582E43403F583E0FC51
:1036F700A3E0FDA3E0FEA3E0FF1208F8D003D00289
:10370700D001D000120803C004C005C006C007904E
:1037170006CAE0FF75F03DA4243FF582E43403F5C3
:1037270083E0F8A3E0F9A3E0FAA3E0FBEF75F03D2F
:10373700A4244BF582E43403F583E0FCA3E0FDA366
:10374700E0FEA3E0FF1208F8D003D002D001D000BA
:103757001208079006CAE0FB75F03DA42453F582D2
:10376700E43403F583121076EB75F03DA4243BF5A2
:1037770082E43403F583E0FCA3E0FDA3E0FEA3E0CD
:10378700FFEB75F03DA4243FF582E43403F5831283
:103797001076EB75F03DA42437F582E43403F58306
:1037A700E0FCA3E0FDA3E0FEA3E0FFEB75F03DA482
:0E37B700243BF582E43403F583121076D3220E
:105EC100AB07900664E0FCA3E0FDA3E0FEA3E0FFC6
:105ED100EB75F03DA42467F582E43403F5830210E9
:015EE100764A
:105EE200AB07900669E0FCA3E0FDA3E0FEA3E0FFA0
:105EF200EB75F03DA42463F582E43403F5830210CC
:015F02007628
:105F0300AB0790066EE0FCA3E0FDA3E0FEA3E0FF79
:105F1300EB75F03DA42433F582E43403F5830210DA
:015F23007607
:105F2400AB07900673E0FCA3E0FDA3E0FEA3E0FF53
:105F3400EB75F03DA42447F582E43403F5830210A5
:015F440076E6
:105F4500AB07900678E0FCA3E0FDA3E0FEA3E0FF2D
:105F5500EB75F03DA42443F582E43403F583021088
:015F650076C5
:105F6600AB0790067DE0FCA3E0FDA3E0FEA3E0FF07
:105F7600EB75F03DA4244BF582E43403F58302105F
:015F860076A4
:105F8700AB07900682E0FCA3E0FDA3E0FEA3E0FFE1
:105F9700EB75F03DA4242FF582E43403F58302105A
:015FA7007683
:1062CE00EF75F03DA4242FF582E43403F583E0FC52
:0A62DE00A3E0FDA3E0FEA3E0FF2211
:1062E800EF75F03DA42437F582E43403F583E0FC30
:0A62F800A3E0FDA3E0FEA3E0FF22F7
:10630200EF75F03DA4243BF582E43403F583E0FC11
:0A631200A3E0FDA3E0FEA3E0FF22DC
:10631C00EF75F03DA42443F582E43403F583E0FCEF
:0A632C00A3E0FDA3E0FEA3E0FF22C2
:10633600EF75F03DA42447F582E43403F583E0FCD1
:0A634600A3E0FDA3E0FEA3E0FF22A8
:10635000EF75F03DA4244BF582E43403F583E0FCB3
:0A636000A3E0FDA3E0FEA3E0FF228E
:10636A00EF75F03DA42453F582E43403F583E0FC91
:0A637A00A3E0FDA3E0FEA3E0FF2274
:10638400EF75F03DA4244FF582E43403F583E0FC7B
:0A639400A3E0FDA3E0FEA3E0FF225A
:1048E700602A045F000000000000000000000000D4
:1048F70000000000000000000000000000000000B1
:0E4907000000000000000000000000000000A2
:10483D009005E4EBF0A3EAF0A3E9F0900003120D6C
:10484D0095FF9005E0E0FBA3E0FAA3E0F9A3E0FEFD
:10485D00F582758300EF120DD49005E4E0FBA3E023
:10486D00FAA3E0F9900002120D95FFEE2401FDE48C
:10487D0033FC9005E0E0FBA3E0FAA3E0F98D828C18
:10488D0083EF120DD49005E4E0FBA3E0FAA3E0F969
:10489D00900001120D95FFEE2402FDE433FC90050E
:1048AD00E0E0FBA3E0FAA3E0F98D828C83EF120D1B
:1048BD00D49005E4E0FBA3E0FAA3E0F9120D7CFF30
:1048CD00EE2403FDE433FC9005E0E0FBA3E0FAA346
:0A48DD00E0F98D828C83EF020DD408
:105A8500900637E090068AF0123E0EE4900638F054
:105A9500900637E0FF124990900638E0FEC39F500C
:105AA50017745F2EF582E43404F583E0FF125D98E8
:085AB500900638E004F080D8EF
:015ABD0022C6
:103E0E0090068612107690068AE0FFD3940A40033D
:103E1E00023F41EF7003023F41EF14B40A0040032A
:103E2E00023F41903E3F75F003A4C58325F0C58344
:103E3E0073023E5D023E73023E8A023EA1023EB80E
:103E4E00023ECE023EE4023EFA023F10023F2690B0
:103E5E0005E07401F0A37404F0A3745FF0A3740181
:103E6E00F0FB023F3A9005E07401F0A37404F0A356
:103E7E00745FF0A37405F07B01023F3A9005E07485
:103E8E0001F0A37404F0A3745FF0A37409F07B0136
:103E9E00023F3A9005E07401F0A37404F0A3745F3E
:103EAE00F0A3740DF07B01023F3A9005E07401F02F
:103EBE00A37404F0A3745FF0A37411F07B01806C03
:103ECE009005E07401F0A37404F0A3745FF0A37482
:103EDE0015F07B0180569005E07401F0A37404F098
:103EEE00A3745FF0A37419F07B0180409005E07419
:103EFE0001F0A37404F0A3745FF0A3741DF07B01B2
:103F0E00802A9005E07401F0A37404F0A3745FF0AE
:103F1E00A37421F07B0180149005E07401F0A3746A
:103F2E0004F0A3745FF0A37425F07B017A06798602
:043F3E0012483D22C6
:10499000EFD3940A5003EF70037F002290045F74FA
:1049A00024F0EF14B40A004003024A329049BA7569
:1049B000F003A4C58325F0C583730249D80249E1F9
:1049C0000249EA0249F30249FC024A05024A0E0280
:1049D0004A17024A20024A299004647405F07F06AF
:1049E000229004687409F07F0A2290046C740DF020
:1049F0007F0E229004707411F07F12229004747460
:104A000015F07F16229004787419F07F1A22900412
:104A10007C741DF07F1E229004807421F07F22227E
:104A20009004847425F07F26229004887429F07FF6
:054A30002A227F002294
:03000B00022D20A3
:102D1B00C2AF80FE32122D1F85D00B75D008AAE0F2
:102D2B00C28CE58A2443F58AE58C34F6F58CD28C7B
:102D3B00EC241EF8E6BC000274FFC39581B41400AA
:102D4B0040CE7901781B16E608700BC2AFE630E176
:102D5B00034418F6D2AF08D9EDEA8BD0301201221A
:102D6B00D50DFCC0E0C0D0C0F0C083C082C000C095
:102D7B0001C002C003C004C005C006C007E50C2398
:102D8B00241CF87440C2AF46F6D2AFD212E50CFF4A
:102D9B0023241CF80F0808BF01047F00781CE630C1
:102DAB00E4F200E50CC39F5020050C741D250CF8B4
:102DBB00E6FDA68108E6AE0CBE000274FFCDF8E876
:102DCB006D60E008E6C0E080F6E50CD39F4027E598
:102DDB000C241EF8E6AE0CBE000274FFFD18E6CD07
:102DEB00F8E5816D6006D0E0F61880F5E50C241D42
:102DFB00C8F6150C80D3750D0AE50C23241CF87F3F
:102E0B0004C2AFE610E61E30E00310E20C7F003088
:102E1B00E10730E3047F0854F4547CC6D2AF5480EE
:102E2B004207C21222F6D2AFD007D006D005D0048B
:102E3B00D003D002D001D000D082D083D0F0D0D03C
:0E2E4B00D0E0C21222781DA68174006006FF3E
:102E59000876FFDFFB7F01E4781BF608F608DFFA46
:102E6900781C7630906780740193C0E0E493C0E0E9
:102E7900750D0A438901758A3C758CF6D28CD2AFDF
:042E8900D2A92200A8
:08491500C109C10AC10BC10C6C
:106049009006BA7478F0E49006B9F07B017A067983
:0E605900B97F021232C4D2A3D2A4D2A5D2A61D
:016067002216
:0A66A800EF4E7005EE4F24FFB32201
:10617C00EF24F0600F24F0600E24E0600D243870E2
:0D618C000BA20922A20A22A20B22A20C22C1
:1054AD00A2A3E4FE33FF1266A8500EA2A3E433FFBD
:1054BD001266A85006D2098002C209A2A4E4FE33E6
:1054CD00FF1266A85007200A06D20A8002C20AA25D
:1054DD00A5E4FE33FF1266A85007200B06D20B8001
:1054ED0002C20BA2A6E4FE33FF1266A85006200CE2
:0754FD0005D20C22C20C22B3
:102865002564002566000000000000000000004F00
:10287500000000000700070000147F147F140024E7
:102885002A7F2A1200231308646200364955225014
:1028950000000503000000001C2241000000412249
:1028A5001C000014083E08140008083E0808000033
:1028B50050300000000808080808000060600000AB
:1028C500002010080402003E5149453E0000427FA9
:1028D5004000004261514946002141454B310018F5
:1028E50014127F10002745454539003C4A494930B7
:1028F5000001710905030036494949360006494971
:10290500291E00003636000000005636000000087B
:102915001422410000141414141400004122140858
:1029250000020151090600324979413E007E11112C
:10293500117E007F4949493E003E41414122007FC9
:102945004141221C007F49494941007F090909018C
:10295500003E4149497A007F0808087F0000417F11
:102965004100002040413F01007F08142241007FC3
:1029750040404040007F0204027F007F0408107F32
:10298500003E4141413E007F09090906003E415193
:10299500215E007F09192946004649494931000150
:1029A500017F0101003F4040403F001F2040201FA4
:1029B500003F4038403F0063140814630003047867
:1029C500040300615149454300007F414100001562
:1029D500167C1615000041417F0000040201020427
:1029E50000404040404000000102040000205454D3
:1029F5005478007F48444438003844444420003823
:102A05004444487F00385454541800087E09010294
:102A1500000C5252523E007F080404780000447DA9
:102A25004000002040443D00007F10284400000085
:102A3500417F4000007E020C027C007E0402027C85
:102A4500003844444438007C141414080008141455
:102A5500187C007C080404080048545454200004E1
:102A65003F444020003C4040207C001C2040201C6E
:102A7500003C4030403C004428102844000C505095
:102A8500503C004464544C440000083641000000AA
:102A9500007F000000004136080000080408100807
:102AA5000008082A1C0800081C2A08080004027FE0
:102AB50002040010207F2010001C2A322A1C001C52
:042AC5002244221C69
:105FE900C2CBED24FF92CA7E08EF30E704D2C98004
:0F5FF90002C2C9C2C8EF25E0FFD2C8DEECD2CB8E
:016008002275
:105FA800E4FD7F80125FE97F40125FE97BF87A01A8
:105FB8007D01E4FF125FE9EB1B70011AEB4A70F0F8
:015FC80022B6
:1064A500AD07E4FF1264697C547D01E4FF125FE9E6
:0264B500DCF712
:0164B70022C2
:10646900AC05EF4480FFEC4440FCE4FD125FE9AF6A
:0464790004025FE9D1
:07591E00E0FF04F0A3E0FD2F
:1059250074E02BFBEF75F006A4FF126469E4FC75C7
:10593500F006EBA4246BF582E5F03428F583E582C7
:105945002CF582E43583F583E493FF7D01125FE94D
:055955000CECB406DAC1
:01595A00222A
:105A10009004EEEFF0A3EDF0A3EBF0A3EAF0A3E91E
:105A2000F09004F0E0FBA3E0FAA3E0F9120D7CFB98
:105A300060189004EEE0C3940E500F12591E9004AB
:0B5A4000F1E475F001120E9380D722F4
:09555900FDE0FBA3E0FAA3E0F978
:1055620090068BEFF0A3EDF0A3EBF0A3EAF0A3E932
:10557200F090068DE0FBA3E0FAA3E0F9120D7CFBAC
:10558200602890068B12591E90068EE475F0011267
:105592000E9390068BE0B40E06E4F0A3E004F090C4
:0B55A200068CE0B406CBE4F080C722CA
:0E5331009005F8EFF0A3EDF0A3EAF0A3EBF087
:10533F00A3E0FF7E00124480AA06A9077B01900517
:10534F00FDEBF0A3EAF0A3E9F090043274FFF0A3B1
:10535F007428F0A37465F09005FAE0FFA3E09004C1
:10536F0035CFF0A3EFF0121D1A9005F8E0FFA3E080
:10537F009005FD1255599005FDA3E0FAA3E0AE028A
:04538F00FF023A5D82
:0851F1009005C7EFF0A3EDF0FB
:1051F9009005CEE0FF9005CDE02FFFE433CF2401E9
:10520900CF3400FE124480AA06A9077B019005CF7E
:10521900EBF0A3EAF0A3E9F090043274FFF0A37471
:1052290028F0A37468F09005C9E0FCA3E0FDA3E0B1
:10523900FEA3E0FF900435121076121D1A9005C7DF
:10524900E0FFA3E09005CF1255599005CFA3E0FAEE
:08525900A3E0AE02FF023A5D82
:10581D00E49004EEF0A304F0FB7A0479EE7F051218
:10582D0032C4C2CCD2CCE4FD7F21125FE97F0612D7
:10583D005FE97F13125FE97FC8125FE97F20125F76
:10584D00E97F0C125FE97F40125FE97F80125FE90B
:03585D00025FA83F
:02491D00C113C4
:105C82009004EF7405F0E49004EEF07B017A04795D
:105C9200EE7F051232C41267677FC81265F712677A
:075CA2006C7FC81265F7D307
:015CA90022D8
:05676700C2CDD2132297
:05676C00D2CDC2132292
:105E9F009004EEEFF09004EEE0FF14F0EF601212BA
:105EAF0067677FC81265F712676C7FC81265F78046
:025EBF00E422DB
:03677A00A2132245
:06673D009006CBEFF022F4
:104D3E00900690EFF07F337E337D737C3FA3E0F8D7
:104D4E00A3E0F9A3E0FAA3E0FB120A9E600C400A6E
:104D5E009006911210823F7333337FCD7ECC7D4C03
:104D6E007C3D900691E0F8A3E0F9A3E0FAA3E0FB06
:104D7E00120A9E500A9006911210823D4CCCCD9094
:104D8E000690E02404FFC007A3E0FCA3E0FDA3E02F
:104D9E00FEA3E0FF900696121076D00712439C9069
:104DAE000691E0FCA3E0FDA3E0FEA3E0FF120B4999
:104DBE00900690E025E0249BF582E43406F583EF1F
:024DCE00F022D1
:106122009006CCEFF02404FF125CAA9006CCE02586
:0E613200E0249AF582E43406F5837401F0222D
:106199009006CDEFF02404FF125E319006CDE02584
:0D61A900E0249AF582E43406F583E4F02248
:1065E700EF25E0249AF582E43406F583E024FF22C0
:10526100E490058AF0A37408F07B017A05798A7FBE
:10527100021232C490058B7404F07B017A05798A9D
:105281007F021232C4D2A2D2A343BA80E490058C29
:10529100F0A3F0A3F0A304F0E4A3F0A3F0A3F0A320
:1052A100F0A3F0A3F0A3F0A3F0A3F0A3F0A3F0A365
:1052B100F07B017A05798C7F021221387B017A0516
:0A52C100798C7F0312213853BA7F65
:0152CB0022C0
:0530F0009004B1EFF0B7
:1030F500E49004C0F0A37480F07B017A0479C07F6A
:10310500031232C4D2B743BA80E49004C2F0A3F0EC
:10311500A3F0A304F0E4A3F0A3F0A3F0A3F0A3F0BD
:10312500A3F0A3740FF0E4A3F0A3F0A3F0A3F0A31E
:10313500F09004B1E0FF7B017A0479C21221385383
:10314500BA7F9004B1E0FF7D101265C59004B1E02F
:10315500FF7D327C001253939004B2E0FCA3E0FDA6
:10316500A3E0FEA3E0FF9004B1E0FB75F025A424E5
:10317500AEF582E43403F5831210769004B6E0FCD4
:10318500A3E0FDA3E0FEA3E0FFEB75F025A424B2C8
:10319500F582E43403F5831210769004BAE0FCA3BB
:1031A500E0FDA3E0FEA3E0FFEB75F025A424C0F548
:1031B50082E43403F5831210769004BEE0FEA3E0AA
:1031C500FFEB75F025A424BAF582E43403F583EE0C
:1031D500F0A3EFF0EB75F025A424AEF582E43403FB
:1031E500F583E0F8A3E0F9A3E0FAA3E0FB9004B1CE
:1031F500E075F025A424B2F582E43403F583E0FC00
:10320500A3E0FDA3E0FEA3E0FF120803C004C00590
:10321500C006C0079004B1E075F025A424BAF58274
:10322500E43403F583E0FCA3E0FDE4120B10A804ED
:10323500A905AA06AB07D007D006D005D004120A07
:10324500019004B1E0FB75F025A424B6F582E434C1
:1032550003F583121076EB75F025A424BAF582E404
:103265003403F583E0FCA3E0FDE4120B10A804A9E8
:1032750005AA06AB079004B1E075F025A424C0F5B6
:1032850082E43403F583E0FCA3E0FDA3E0FEA3E0C4
:10329500FF120A019004B1E0FB75F025A424C4F5E2
:1032A50082E43403F583121076EB75F025A424BC73
:0E32B500F582E43403F583121082000000005D
:0132C30022E8
:05419A009005E7EFF0C5
:10419F00A3E0FCA3E0FDA3E0FEA3E0FF9005E7E0B2
:1041AF00FB75F025A424A9F582E43403F5831210DE
:1041BF0076EB75F025A424C4F582E43403F583E08F
:1041CF00F8A3E0F9A3E0FAA3E0FB9005E8E0FCA375
:1041DF00E0FDA3E0FEA3E0FF120A019005E7E07502
:1041EF00F025A424B6F582E43403F583E0F8A3E0C8
:1041FF00F9A3E0FAA3E0FB1208F89005E7E075F0E9
:10420F0025A424AEF582E43403F583E0F8A3E0F9A6
:10421F00A3E0FAA3E0FB1208079005E7E0FB75F0B7
:10422F0025A424CAF582E43403F583121076EB75C6
:10423F00F025A424CAF582E43403F583E0FCA3E05F
:10424F00FDA3E0FEA3E0FFE4FBFA79A07841120A98
:10425F00019005EC1210769005ECE0FCA3E0FDA3B5
:10426F00E0FEA3E0FF9006961210769005E7E0FFC0
:10427F0012439C9005E7E0FB75F025A424A9F58275
:10428F00E43403F583E0FCA3E0FDA3E0FEA3E0FF2D
:10429F00EB75F025A424BCF582E43403F5830210FA
:0142AF007698
:10639E00EF75F025A424BCF582E43403F583E0FC0C
:0A63AE00A3E0FDA3E0FEA3E0FF2240
:106009009006CEEFF0125CAA9006CEE075F025A4BA
:1060190024C8F582E43403F583E4F0A304F0D32221
:106068009006CFEFF0125E319006CFE075F025A4D0
:0F60780024C8F582E43403F583E4F0A3F0D322C7
:105E0C00C007900611E0FCA3E0FDA3E0FEA3E0FFB9
:105E1C009005D5121076900615E0FCA3E0FDD00796
:055E2C001242B0D32278
:10455100900617EFF0C007E4FFFE7DB47C43A3E0B3
:10456100F8A3E0F9A3E0FAA3E0FB1208F8C004C045
:1045710005C006C007900617E075F00EA424D7F514
:1045810082E43404F583E0FCE4120B15D003D0027D
:10459100D001D0001208F8C004C005C006C00790C1
:1045A1000617E075F00EA424DBF582E43404F583EC
:1045B100E0FCA3E0FDA3E0FEA3E0FF7B567A0E79C9
:1045C1004978401208F8900617E075F00EA424D33C
:1045D100F582E43404F583E0F8A3E0F9A3E0FAA35B
:1045E100E0FB1208F8A804A905AA06AB07D007D07A
:1045F10006D005D004120A01120B499006111210BF
:104601007690061CE0FFA3E0900615CFF0A3EFF033
:07461100D007125E0CD3225A
:1052CC0090061EEFF0E0FEFFC00775F00EA424D789
:1052DC00F582E43404F583E0FCE4120B1590061F10
:1052EC00E0F8A3E0F9A3E0FAA3E0FB1208F89006BB
:1052FC001EE075F00EA424D3F582E43404F583E0AB
:10530C00F8A3E0F9A3E0FAA3E0FB120A01120B499F
:10531C009005D5121076900623E0FCA3E0FDD00793
:05532C001242B0D32283
:105ABE009006BBEAF0A3EBF0C007AE04AF057C0185
:105ACE007D68120DF6AC06AD07E4120B1090061FA2
:105ADE001210769006BBE0FFA3E0900623CFF0A352
:095AEE00EFF0D0071252CCD322D4
:0F660700EF70069004DFEDF0229004EDEDF0222D
:10658100EF75F00EA424DFF582E43404F583E0FF17
:0165910022E7
:10627D00EF7009201404C2A78002D2A7EFB4010960
:0B628D00201404C2A58002D2A5D32279
:1061B6009006D0EFF01261D39006D0E075F00EA4F1
:0D61C60024DFF582E43404F5837401F02237
:1064B800EF75F00EA424DFF582E43404F583E4F0EC
:0364C8000261402E
:10620D00EF7004C2A68002C2A4EF75F00EA424DFC5
:0C621D00F582E43404F5837401F0D32210
:10622900EF7004D2A68002D2A4EF75F00EA424DF89
:0C623900F582E43404F5837402F0D322F3
:054AD8009005ACEFF0B9
:104ADD00E49005B8F0A374F0F07B017A0579B87F06
:104AED00021232C49005ADE0FCA3E0FDA3E0FEA3ED
:104AFD00E0FF9005ACE0FB75F00EA424D3F582E445
:104B0D003404F5831210769005B1E0FFEB75F00ECD
:104B1D00A424D7F582E43404F583EFF09005B2E0D8
:104B2D00FEA3E0FFEB75F00EA424D8F582E4340467
:104B3D00F583EEF0A3EFF09005B4E0FCA3E0FDA348
:104B4D00E0FEA3E0FFEB75F00EA424DBF582E43468
:104B5D0004F583121076EB75F00EA424DFF582E4D4
:0A4B6D003404F5837401F0025C5576
:10624500900639EFF0A3EDF0A37401F0E4A3F0A3F9
:0C625500F0A3F07B017A0679390256555F
:1055AD00E4900561F030153DF0E4FF1253F49005E1
:1055BD0061E025E0244DF582E43405F583EEF0A39A
:1055CD00EFF0900561E004F0E0C3940A40DB900633
:1055DD0000E0FCA3E0FDA3E0FEA3E0FFA312107624
:1055ED009006008003900604E0FCA3E0FDA3E0FE1E
:0355FD00A3E0FF29
:015600002287
:0864200090069EECF0A3EDF0E4
:10642800E4A3F0A3EFF07B017A0679A0E4FF02323F
:01643800C49F
:056592009006D1EFF0BE
:0B659700E4FF00000FEFB408F9000063
:0165A20022D6
:10491F0042050F0000C110C11142050700004205FA
:0D492F000B0000420509000042050D0000CC
:0A42B0009005D3ECF0A3EDF0AB078E
:1042BA00E49005D9F0A3F09005D3E0FEA3E0FFEB6C
:1042CA0075F007A42415F582E43405F583EEF0A30E
:1042DA00EFF09005D5E0FCA3E0FDA3E0FEA3E0FF2C
:1042EA00EB75F007A42411F582E43405F583121066
:1042FA0076EB704F9005D3E0FEA3E0FFD39414EE63
:10430A009400403BAB07AA06E4F9F87F807E847DDF
:10431A001EFC1257D9E47B02FAF9F81257D9C3E402
:10432A009FFFE49E9005DBF0A3EFF0C210438F04D9
:10433A009005DBE0FCA3E0FDECF5D68DD78051D2E9
:10434A0010804D9005D3E0FEA3E0FFD39414EE94C1
:10435A0000403BAB07AA06E4F9F87F807E847D1E05
:10436A00FC1257D9E47B02FAF9F81257D9C3E49F31
:10437A00FFE49E9005DBF0A3EFF0C21143D1019058
:10438A0005DBE0FCA3E0FDECF5D48DD58002D2116B
:01439A00D34F
:01439B0022FF
:10614000EF75F007A42417F582E43405F583740194
:0E615000F0EF7005438E10800343D108D32278
:1061D300EF7005538EEF800353D1F7EF75F007A4EB
:0D61E3002417F582E43405F583E4F0D3229F
:10651600EF75F007A42417F582E43405F583E0242B
:02652600FF2252
:105C5500E49006BDF0A304F0FB7A0679BD7F03123C
:105C650032C49006BE7410F07B017A0679BDE4FF5C
:0C5C75001232C4E4900517F090051EF0F8
:015C81002200
:030063000250FB4D
:1050FB00C0E0C0F0C083C082C0D075D000C000C07B
:10510B0001C002C003C004C005C006C007E47F0293
:10511B00FEFDFC900511E0F8A3E0F9A3E0FAA3E093
:10512B00FB120EF7C006C007900507E475F00112DD
:10513B000E93AFF0AB07FAE4F9F8D007D006C31221
:10514B001022400CE4FF1261D3900507E4F0A3F0AA
:10515B00D007D006D005D004D003D002D001D000A8
:0B516B00D0D0D082D083D0F0D0E03252
:03009B0002517699
:10517600C0E0C0F0C083C082C0D075D000C000C0FF
:1051860001C002C003C004C005C006C007E47F0218
:10519600FEFDFC900518E0F8A3E0F9A3E0FAA3E011
:1051A600FB120EF7C006C007900509E475F0011260
:1051B6000E93AFF0AB07FAE4F9F8D007D006C312A6
:1051C6001022400C7F011261D3900509E4F0A3F090
:1051D600D007D006D005D004D003D002D001D0002D
:0B51E600D0D0D082D083D0F0D0E032D7
:0966DA00D280C281C282D2832267
:0966E300C280D281D282C283225E
:0966EC00C280C281C282C2832275
:0966F500D280C281C282C283225C
:0966FE00C280D281C282C2832253
:09670700D280C281D282C2832239
:09671000C280C281C282D2832240
:09671900C280C281D282C2832237
:09672200C280D281C282D283221E
:0167880022EE
:056298009006BFEDF0CF
:10629D001267439006C0EFF09006BFE0FF12674310
:0562AD009006C0E0FFB7
:0162B20022C9
:0C666A00EF4480FF1267437FFF1267437C
:016676002201
:10545200E4FD7F6B1262987D077F1A1262987D309D
:105462007F371262987D4D7F241262987D207F6A79
:105472001262987D017F671262987D817F27126296
:10548200987D077F191262987D187F1B1262987DA2
:10549200187F1C1262987D087F1D1262987D017F21
:0B54A2000B125A4B7D127F0A025A4B7E
:104B77007F3C12666A900531EFF07F3B12666A90C0
:104B87000532EFF0FE900531E0FDEDFF90051FEED9
:104B9700F0A3EFF07C007DA4120E5D90051FEEF0F0
:104BA700A3EFF07F3E12666A900533EFF07F3D1268
:104BB700666A900534EFF0FE900533E0FDEDFF9057
:104BC7000521EEF0A3EFF07C007DA4120E5D9005A9
:104BD70021EEF0A3EFF07F4012666A900535EFF003
:104BE7007F3F12666A900536EFF0FE900535E0FDCF
:104BF700EDFF900523EEF0A3EFF07C007DA4120EED
:0A4C07005D900523EEF0A3EFF0220C
:104618007F4412666A900531EFF07F4312666A9014
:104628000532EFF0FE900531E0FDEDFF900525EE37
:10463800F0A3EFF0AC06EC120B107B337A337983DE
:104648007841120A01120B49900525EEF0A3EFF00C
:104658007F4612666A900533EFF07F4512666A90CE
:104668000534EFF0FE900533E0FDEDFF900527EEF1
:10467800F0A3EFF0AC06EC120B107B337A3379839E
:104688007841120A01120B49900527EEF0A3EFF0CA
:104698007F4812666A900535EFF07F4712666A9088
:1046A8000536EFF0FE900535E0FDEDFF900529EEAB
:1046B800F0A3EFF0AC06EC120B107B337A3379835E
:1046C8007841120A01120B49900529EEF0A3EFF088
:0146D80022BF
:103F42007F1012595F9006AAEFF07F1112595F900D
:103F520006ABEFF07F1212595F9006ACEFF07F02D2
:103F620012595FEF30E10302406E7F0312595F90F6
:103F7200053112595BEF5408FFBF010A7F03125942
:103F82005F900531EFF07F0412595F9005321259AC
:103F92005BEF5408FFBF010A7F0412595F9005329C
:103FA200EFF0900532E0FE900531E0FDEEFCE424F6
:103FB20001FFE433FE120DF690052BEEF0A3EFF0B5
:103FC2007F0512595F90053312595BEF5408FFBF0A
:103FD200010A7F0512595F900533EFF07F061259EF
:103FE2005F90053412595BEF5408FFBF010A7F0648
:103FF20012595F900534EFF0900534E0FE900533DE
:10400200E0FDEEFCE42401FFE433FE120DF6900520
:104012002DEEF0A3EFF07F0712595F90053512598C
:104022005BEF5408FFBF010A7F0712595F90053505
:10403200EFF07F0812595F90053612595BEF540872
:10404200FFBF010A7F0812595F900536EFF0900515
:1040520036E0FE900535E0FDEEFCE42401FFE4339A
:0C406200FE120DF690052FEEF0A3EFF01B
:01406E00222F
:066743009006D2EFF022E7
:04595B00EFF07F09E1
:05595F009006ADEFF021
:10596400A37413F0A37488F07D8C7F251262989041
:1059740006ADE0FD7F261262987DFF7F6312629878
:105984009006AE74FFF5F0120EA945F070F27F494F
:0359940012666A2E
:0159970022ED
:085A4B009006A2EFF0A3EDF0BC
:105A5300A37401F0A374F4F07D0C7F251262989077
:105A630006A2E0FD7F261262989006A3E0FD7F6305
:105A73001262989006A474FFF5F0120EA945F07017
:015A8300F230
:015A840022FF
:04493C00410298009C
:105B9800EF75F04BA424E1F582E43402F583E4F0D8
:105BA800EF75F04BA424E2F582E43402F583E4F0C7
:105BB800EF75F04BA424E3F582E43402F583E4F0B6
:015BC80022BA
:10652800EF75F04BA424E1F582E43402F58374019D
:02653800F0224F
:1065A300EF75F04BA424E1F582E43402F583E4F0C3
:0165B30022C5
:10653A00EF75F04BA424E2F582E43402F58374018A
:02654A00F0223D
:1065B400EF75F04BA424E2F582E43402F583E4F0B1
:0165C40022B4
:1056FB00EF75F04BA424E3F582E43402F583E06408
:10570B00017031EF75F04BA424A1F582E43402F55E
:10571B008375F002ED1210B3E0FCA3E0FDEC120B6D
:10572B0010E4FBFAF97847120A01E4FBFA79807866
:0A573B00410208F8E4FFFEFDFC2225
:10574500EF75F04BA424E3F582E43402F583E064BD
:10575500017031EF75F04BA424A9F582E43402F50C
:105765008375F002ED1210B3E0FCA3E0FDEC120B23
:1057750010E4FBFAF97847120A01E4FBFA79FA78A2
:0A578500440208F8E4FFFEFDFC22D8
:10578F00EF75F04BA424E3F582E43402F583E06473
:10579F00017031EF75F04BA424B1F582E43402F5BA
:1057AF008375F002ED1210B3E0FCA3E0FDEC120BD9
:1057BF0010E4FBFAF97847120A01E4FBFA7934781E
:0A57CF00430208F8E4FFFEFDFC228F
:105AF700EF75F04BA424E3F582E43402F583E0B4B8
:105B0700011EEF75F04BA424B9F582E43402F58346
:105B170075F002ED1210B3E0FCA3E0FDEC020B10F0
:065B2700E4FFFEFDFC227C
:104CAB0090063FEBF0A3EAF0A3E9F0A3E0FBA3E04F
:104CBB00FAA3E0F9900003120D95FF90063FE0FB7D
:104CCB00A3E0FAA3E0F9EF120DC2900642E0FBA3BA
:104CDB00E0FAA3E0F9900002120D95FF90063FE079
:104CEB00FBA3E0FAA3E0F9900001EF120DD49006BC
:104CFB0042E0FBA3E0FAA3E0F9900001120D95FF4F
:104D0B0090063FE0FBA3E0FAA3E0F9900002EF125C
:104D1B000DD4900642E0FBA3E0FAA3E0F9120D7C60
:104D2B00FF90063FE0FBA3E0FAA3E0F9900003EF4E
:034D3B00020DD492
:05181B009006D3EFF080
:1018200075F04BA424E1F582E43402F583E0700303
:10183000021CB49006D3E0FF75F04BA424E2F582BD
:10184000E43402F583E07003021CB4EF75F04BA49E
:1018500024E3F582E43402F583E4F090001CE064B4
:1018600055600AE4900004F0900298F02290000481
:10187000E0FF241CF582E43400F583E0FE748C2F35
:10188000F582E43402F583EEF0900004E0C3940B9B
:101890005003021CB490028DE024B0B40900400350
:1018A000021C979018B175F003A4C58325F0C58379
:1018B000730218CC02196C0219CC021A2C021AAC51
:1018C000021B2B021BB2021BFA021C2F90028EE09D
:1018D000FF9006D3E0FE75F04BA42499F582E43422
:1018E00002F583EFF090028FE0FFEE75F04BA42439
:1018F0009AF582E43402F583EFF0900290E0FFEE77
:1019000075F04BA4249BF582E43402F583EFF0904C
:101910000291E0FFEE75F04BA4249CF582E43402C2
:10192000F583EFF0900292E0FFEE75F04BA4249D5A
:10193000F582E43402F583EFF0900293E0FFEE7558
:10194000F04BA4249EF582E43402F583EFF090027C
:1019500095E0FE900294E0FDEDFF9006D3E075F077
:101960004BA4249FF582E43402021BA890028FE06E
:10197000FE90028EE0FDEDFF9006D3E0FD75F04B8A
:10198000A424A1F582E43402F583EEF0A3EFF090F5
:101990000291E0FE900290E0FBEBFFED75F04BA4AE
:1019A00024A3F582E43402F583EEF0A3EFF0900275
:1019B00093E0FE900292E0FDEDFF9006D3E075F01B
:1019C0004BA424A5F582E43402021BA890028FE008
:1019D000FE90028EE0FDEDFF9006D3E0FD75F04B2A
:1019E000A424A9F582E43402F583EEF0A3EFF0908D
:1019F0000291E0FE900290E0FBEBFFED75F04BA44E
:101A000024ABF582E43402F583EEF0A3EFF090020C
:101A100093E0FE900292E0FDEDFF9006D3E075F0BA
:101A20004BA424ADF582E43402021BA890028FE09F
:101A3000FE90028EE0FDEDFF9006D3E0FD75F04BC9
:101A4000A424B1F582E43402F583EEF0A3EFF09024
:101A50000291E0FE900290E0FBEBFFED75F04BA4ED
:101A600024B3F582E43402F583EEF0A3EFF09002A4
:101A700093E0FE900292E0FDEDFF9006D3E0FD754D
:101A8000F04BA424B5F582E43402F583EEF0A3EF25
:101A9000F0900295E0FE900294E0FBEBFFED75F014
:101AA0004BA424B7F582E43402021BA890028FE015
:101AB000FE90028EE0FDEDFF9006D3E0FD75F04B49
:101AC000A424B9F582E43402F583EEF0A3EFF0909C
:101AD0000291E0FE900290E0FBEBFFED75F04BA46D
:101AE00024BBF582E43402F583EEF0A3EFF090021C
:101AF00093E0FE900292E0FDEDFF9006D3E0FD75CD
:101B0000F04BA424BDF582E43402F583EEF0A3EF9C
:101B1000F0900295E0FE900294E0FBEBFFED75F093
:101B20004BA424BFF582E43402807D90028FE0FE56
:101B300090028EE0FDEDFF9006D3E0FD75F04BA422
:101B400024C1F582E43402F583EEF0A3EFF09002B5
:101B500091E0FE900290E0FBEBFFED75F04BA424CA
:101B6000C3F582E43402F583EEF0A3EFF090029324
:101B7000E0FE900292E0FDEDFF9006D3E0FD75F0EF
:101B80004BA424C5F582E43402F583EEF0A3EFF014
:101B9000900295E0FE900294E0FBEBFFED75F04BB8
:101BA000A424C7F582E43402F583EEF0A3EFF0023B
:101BB0001C9790028E7412F0A37434F0A37456F044
:101BC000A37478F09006D3E075F04BA424C9F9749F
:101BD0000235F0FA7B01C003900642EBF0A37402D9
:101BE000F0A3748EF0D003124CAB9006D3E075F0E6
:101BF0004BA424CDF97402021C7E9006D3E075F04C
:101C00004BA424D1F9740235F0FA7B01C00390068D
:101C100042EBF0A37402F0A3748EF0D003124CAB2D
:101C20009006D3E075F04BA424D5F97402804F9050
:101C3000028FE0FE90028EE0FDEDFF9006D3E0FD06
:101C400075F04BA424D9F582E43402F583EEF0A3B9
:101C5000EFF0900291E0FE900290E0FBEBFFED755B
:101C6000F04BA424DBF582E43402F583EEF0A3EF1D
:101C7000F09006D3E075F04BA424DDF9740235F042
:101C8000FA7B01C003900642EBF0A37402F0A37448
:101C900092F0D003124CABE4900298F0900004F064
:101CA0009006D3E075F04BA424E3F582E43402F50A
:041CB000837401F048
:011CB400220D
:0F66160074B02FF582E43406F5837401F0D322BB
:0E66250074B02FF582E43406F583E4F0D3223E
:0167890022ED
:10654C003F065B4F666D7D077F6F777C395E797197
:02655C0040EF0E
:0A494000080E000000000000000057
:055998009006C1EFF0D4
:10599D00E4A3F0C2917F017E00125C279006C1E066
:1059AD00FF30E004D2908002C290EFC3139006C185
:1059BD00F0D2917F017E00125C279006C2E004F0C8
:0659CD00E0C3940840CD88
:0159D30022B1
:10586000E49006C4F0D2909006C3F09006C4E0C362
:1058700013F0C2917F017E00125C273090079006E2
:10588000C4E04480F0D2917F017E00125C27900634
:0F589000C3E004F0E0C3940840D19006C4E0FFE9
:01589F0022E6
:106087009006D4EFF0C2927F017E00125C27900643
:0F609700D4E0FF125998D2927F017E00025C275D
:10406F00E490064AF0C2927F421259987F6412651B
:10407F00F7E4900649F0125860900649E02445F5A0
:10408F0082E43406F583EFF0900649E004F0E0C3D4
:10409F00940440E2D292900645E0FFB404099006E2
:1040AF004A7401F002418FEFB4400990064A74023E
:1040BF00F002418F900646E0FFB4040990064A745F
:1040CF0003F002418FEFB4400990064A7404F002E6
:1040DF00418F900647E0FFB4040990064A7405F03B
:1040EF0002418FEFB4400990064A7406F002418FE7
:1040FF00900648E0FFB4040990064A7407F00241A5
:10410F008FEFB4400890064A7408F080739006450C
:10411F00E0FFB4020890064A7409F08063EFB42000
:10412F000890064A740AF08057900646E0FFB402E2
:10413F000890064A740BF08047EFB4200890064AA7
:10414F00740CF0803B900647E0FFB4020890064ADB
:10415F00740DF0802BEFB4200890064A740EF08097
:10416F001F900648E0FFB4020890064A740FF080D3
:10417F000FEFB4200890064A7410F080037F0022DE
:0A418F007F641265F790064AE0FF16
:014199002203
:105BF8007F8A1260877F8A1260877F40126087C21F
:105C0800927FC0125998E49006D5F07FFF125998F8
:0E5C18009006D5E004F0E0C3941040EFD29265
:015C2600225B
:1024D20090057EE0900587F090057DE0900588F0FC
:1024E20090057CE0900589F090057BE0F990057AF3
:1024F200E0FAAE05AC06AD07900588E090654C9316
:10250200540125E0FF900587E090654C9354012F1C
:10251200FF900589E090654C93540125E025E02F5A
:10252200FFE993540133333354F82FFFEA935401F4
:10253200C454F02FFFEB935401C43354E02FFFEC4B
:10254200935401C4333354C02FFFED935401C43369
:10255200333354802F90057FF0900587E090654CCF
:10256200935402C313FF900588E090654C93540284
:102572002FFF900589E090654C93540225E02FFFD0
:10258200E993540225E025E02FFFEA935402333306
:102592003354F82FFFEB935402C454F02FFFEC9303
:1025A2005402C43354E02FFFED935402C433335426
:1025B200C02F900580F0900588E090654C935404FC
:1025C200C313FF900587E090654C93540413135492
:1025D2003F2FFF900589E090654C9354042FFFE94B
:1025E20093540425E02FFFEA93540425E025E02FBD
:1025F200FFEB93540433333354F82FFFEC9354041A
:10260200C454F02FFFED935404C43354E02F9005CB
:1026120081F0900588E090654C9354081313543F61
:10262200FF900587E090654C935408131313541FD1
:102632002FFF900589E090654C935408C3132FFF38
:10264200E99354082FFFEA93540825E02FFFEB93F8
:10265200540825E025E02FFFEC935408333333541C
:10266200F82FFFED935408C454F02F900582F09098
:102672000588E090654C935410131313541FFF9078
:102682000587E090654C935410C4540F2FFF9005BA
:1026920089E090654C9354101313543F2FFFE99334
:1026A2005410C3132FFFEA9354102FFFEB935410CF
:1026B20025E02FFFEC93541025E025E02FFFED934A
:1026C200541033333354F82F900583F0900588E08B
:1026D20090654C935420C4540FFF900587E0906599
:1026E2004C935420C41354072FFF900589E0906542
:1026F2004C935420131313541F2FFFE993542013A8
:1027020013543F2FFFEA935420C3132FFFEB93542C
:10271200202FFFEC93542025E02FFFED935420252A
:10272200E025E02F900584F0900588E090654C93B9
:102732005440C4135407FF900587E090654C9354AE
:1027420040C4131354032FFF900589E090654C9306
:102752005440C4540F2FFFE9935440131313541FD2
:102762002FFFEA9354401313543F2FFFEB9354402F
:10277200C3132FFFEC9354402FFFED93544025E0F9
:102782002F900585F0900588E090654C935480C4A5
:1027920013135403FF900587E090654C935480C453
:1027A20013131354012FFF900589E090654C935445
:1027B20080C41354072FFFE9935480C4540F2FFF92
:1027C200EA935480131313541F2FFFEB9354801377
:1027D20013543F2FFFEC935480FEC3132FFFED934E
:1027E20054802F900586F07F8A1260877F401260A6
:1027F20087C2927FC012599890057FE0FF125998C4
:102802007F80125998900580E0FF125998E4FF12D8
:102812005998900581E0FF125998E4FF1259989057
:102822000582E0FF125998E4FF125998900583E05F
:10283200FF125998E4FF125998900584E0FF12594B
:1028420098E4FF125998900585E0FF125998E4FF29
:10285200125998900586E0FF125998E4FF12599890
:02286200D29210
:012864002251
:056771007F800260873B
:10565500120D7CF59D900001120D95FFE5BC549F40
:105665004FF5BC900002120D95B4010543BC808036
:105675000353BC7F900003120D95B4010543972099
:1056850080035397DF900005120D95B40104D2AD48
:105695008002C2AD900004120D95B40103D2BD2263
:0356A500C2BD2261
:0C669100EFB4010443BC802253BC7F2204
:1053F400EFD3940740028051E4F5BDF5BEE5BC54FB
:10540400E044084FF5BC00000000E4FBE5BC30E4D8
:105414003353BCEFE59730E509E5BD5403ADBEFC5D
:10542400801DAFBD7C00AD07ED7E007802C333CE96
:1054340033CED8F9FFE5BE5403FDEEFCEF4DFDAFCE
:0D54440005AE04220BEBB4FAC37E047F001A
:015451002238
:03002B00026776F3
:0467760053BCEF32EF
:0F65F7007D367C07ED1D70011C144C70F7DFF131
:016606002271
:105C2700E4FCFDFB7A36796E7801120EF7E47B0C03
:105C3700FAF9F81257D97B407A42790F7800125750
:0D5C4700D9EF4E600800EF1F70F71E80F4CB
:015C5400222D
:0E663300E4F5C7F5C5F5C675C3FF75C4FF22B3
:1058A000AD07AC06C2AF75C78075C501ECF5C3AFD7
:1058B000058FC475C65A75C6A500E5C2120DC20D86
:1058C000BD00010C740129F9E43AFA90062A74FF2C
:0F58D000F5F0120E9345F070D3126633D2AF226B
:10602900AD07AC06C2AFECF5C3AF058FC475C78029
:1060390075C50375C65A75C6A500126633D2AF2257
:1058DF00AD07AC06C2AF75C78075C502ECF5C3AF97
:1058EF00058FC4120D7CF5C275C65A75C6A5000D7D
:1058FF00BD00010C740129F9E43AFA90063174FFE6
:0F590F00F5F0120E9345F070D3126633D2AF222B
:0300030002678A07
:01678A0032DC
:0300130002678BF6
:01678B0032DB
:0300530002678CB5
:01678C0032DA
:03005B0002678DAC
:01678D0032D9
:0300830002678E83
:01678E0032D8
:1046D900EFD3940440037F0122EF702D9000021262
:1046E9000D95B40104D2A88002C2A8900001120D50
:1046F90095B40104D2B88002C2B8120D7CB4010489
:10470900D2888002C2887F0022EF6401702D900058
:1047190002120D95B40104D2AA8002C2AA90000126
:10472900120D95B40104D2BA8002C2BA120D7CB43A
:104739000104D28A8002C28A7F0022EFB402149057
:104749000002120D95B40105438F108003538FEFBA
:104759007F0022EFB40314900002120D95B40105F5
:10476900438F208003538FDF7F0022EFB40414901E
:104779000002120D95B40105438F408003538FBF8A
:064789007F00227F0222E6
:03677D00A216223F
:1032C400EFD3940540037F0122120D7CFED39403B7
:1032D40040037F0222EF7041EE700B900001120D4B
:1032E40095F452935294120D7CB4010B9000011288
:1032F4000D954293F45294120D7CFEB4020A900090
:1033040001120D9542934294EEB4030D9000011204
:103314000D95FEF45293EE4294EF64017043120D46
:103324007CFE700B900001120D95F452915292EEB6
:10333400B4010B900001120D954291F45292120DBA
:103344007CB4020A900001120D9542914292120D32
:103354007CB4030D900001120D95FEF45291EE42DF
:1033640092EF64027043120D7CFE700B9000011208
:103374000D95F452955296EEB4010B900001120D86
:10338400954295F45296120D7CB4020A90000112F3
:103394000D9542954296120D7CB4030D90000112D6
:1033A4000D95FEF45295EE4296EF64037043120DB0
:1033B4007CFE700B900001120D95F452B152B2EEE6
:1033C400B4010B900001120D9542B1F452B2120DEA
:1033D4007CB4020A900001120D9542B142B2120D62
:1033E4007CB4030D900001120D95FEF452B1EE422F
:1033F400B2EF64047043120D7CFE700B9000011256
:103404000D95F452B352B4EEB4010B900001120DB9
:103414009542B3F452B4120D7CB4020A9000011226
:103424000D9542B342B4120D7CB4030D9000011209
:103434000D95FEF452B3EE42B4EF64057043120DE1
:103444007CFF700B900001120D95F452C952CAEF23
:10345400B4010B900001120D9542C9F452CA120D29
:103464007CB4020A900001120D9542C942CA120DA1
:103474007CB4030D900001120D95FFF452C9EF4284
:04348400CA7F0022D9
:07667700C2A212667ED2A050
:05667E00007F0BDFFEB0
:0166830022F4
:0A66B200D2A2126679C2A202667E2F
:06674900126677D2A222C5
:0D668400C2A0126677C2A012667ED2A222CA
:045D4A00FF125DE601
:105D4E00E4FEC2A012667ED2A2D2A012667E30A25D
:105D5E000DEEC394FF50070EA2A2921780F0C2A0C0
:025D6E00A2177A
:015D70002210
:0A66BC00D2A2C2A0126679C2A02289
:10615E00E4FED2A2FDC2A0126679EE25E0FE30A2C8
:0D616E00034401FE0DEDB408ECC2A0AF0625
:01617B002201
:025DE600AE0706
:105DE800E4FDC2A012667EEE5480FFC41313135460
:105DF8000124FF92A2126679EE25E0FE0DEDB408AB
:035E0800E1C2A054
:015E0B002274
:10643900AC05AE071266B2AF06125DE6125D4EAF4D
:0964490004125DE6125D4ED3223F
:0B5B2D0090064DEBF0A3EAF0A3E9F0B6
:105B3800126439E4FC900650E0FFECC39F501990C2
:105B4800064DE0FBA3E475F001120EA9A9F0FA12C4
:0B5B58000D7C125D4A0C80DD026749E5
:1056A800900653EBF0A3EAF0A3E9F0900651EFF06F
:1056B8001264391266B2E04401125D4AE4FC9006B5
:1056C80056E0FFECC39F502512615E900653E0FB45
:1056D800A3E475F001120EA9A9F0FAEF120DC29019
:1056E8000656E0146C60031266840C80D11266BC06
:0356F800026749FD
:10478F00EF7034D3ED9498EC940340047C037D9840
:10479F00C3ED9450EC940050047C007D50C2DE9029
:1047AF00056BECF0A3EDF0C374E89D900566F07413
:1047BF00039C9005658073EF64017034D3ED9468AA
:1047CF00EC940B40047C0B7D68C3ED9450EC94008B
:1047DF0050047C007D50C2DE90056DECF0A3EDF02F
:1047EF00C374B89D900568F0740B9C900567803A70
:1047FF00EF64027038D3ED9480EC940740047C078B
:10480F007D80C3ED9450EC940050047C007D50C229
:10481F00DE90056FECF0A3EDF0AE04FFC374D09FF4
:0E482F0090056AF074079E900569F0D2DE22B3
:103488009006B3EBF0A3EAF0A3E9F0AD07EDD3940F
:10349800034003023626ED6403704CC2DEF5F9F5ED
:1034A800E99006B3E0FBA3E0FAA3E0F9120D7CFF74
:1034B800E5A254CF4FF5A2900001120D95FFE5D972
:1034C80054F14FF5D9900004120D955401FFE5D938
:1034D80054FE4FF5D9900005120D95B40104D2BFE2
:1034E8008002C2BFD2DE229006B3E0FBA3E0FAA3BB
:1034F800E02404F9E43AFA120D7C5431120DC2901A
:1035080006B3E0FBA3E0FAA3E0F9900002120D95E0
:10351800C39448400FE92404F9E43AFA120D7C54A4
:10352800CF120DC2ED704F9006B3E0FBA3E0FAA3F3
:10353800E0F9900004120D95FF900002120D95FE1F
:103548004FF5DA900003120D95FFE5F2543F4FF561
:10355800F2900006120EBFFBAAF090056BEAF0A3EA
:10356800EBF0C20D900562EEF0900571EAF0A3EB66
:10357800F0F5EAEAF5FAED6401704F9006B3E0FB66
:10358800A3E0FAA3E0F9900004120D95FF90000261
:10359800120D95FE4FF5DB900003120D95FFE5F334
:1035A800543F4FF5F3900006120EBFFBAAF09005AA
:1035B8006DEAF0A3EBF0C20E900563EEF090057390
:1035C800EAF0A3EBF0F5EBEAF5FBED6402704F903F
:1035D80006B3E0FBA3E0FAA3E0F9900004120D950E
:1035E800FF900002120D95FE4FF5DC900003120DBE
:1035F80095FFE5F4543F4FF5F4900006120EBFFD19
:10360800ACF090056FECF0A3EDF0C20F900564EEFE
:0F361800F0900575ECF0A3EDF0F5ECECF5FC226D
:103B9B009006B7ECF0A3EDF09006B6EFF0705ED3A5
:103BAB00EB9464EA940040047A007B64C3EB9401C9
:103BBB00EA940050047A007B01C2DE9006B7E0FE67
:103BCB00A3E0FFAD03AC02120DF67C007D64120E78
:103BDB000890056BEEF0A3EFF07C007D64AF03AEB5
:103BEB0002120E08C374019FFFE49EFE9006B7E01D
:103BFB00FCA3E0FD120DF6900565023CD09006B6D5
:103C0B00E06401705DD3EB9464EA940040047A00A5
:103C1B007B64C3EB9401EA940050047A007B01C2ED
:103C2B00DE7C007D64AF03AE02120E089006B7E097
:103C3B00FCA3E0FD120DF690056DEEF0A3EFF07C0A
:103C4B00007D64AF03AE02120E08C374019FFFE444
:103C5B009EFE9006B7E0FCA3E0FD120DF690056703
:103C6B0080639006B6E064027062D3EB9464EA94CE
:103C7B000040047A007B64C3EB9401EA9400500487
:103C8B007A007B01C2DE7C007D64AF03AE02120EB4
:103C9B00089006B7E0FCA3E0FD120DF690056FEE61
:103CAB00F0A3EFF0AE02AF037C007D64120E08C3ED
:103CBB0074019FFFE49EFE9006B7E0FCA3E0FD12AB
:0D3CCB000DF6900569EEF0A3EFF0D2DE22B9
:03003B00024A3541
:104A3500C0E0C083C082C0D075D000C006C00730BA
:104A4500D82AC2D830A50590056B8003900565E08E
:104A5500FEA3E0FF900572E02FF0900571E03EF0B7
:104A6500900571E0FEA3E0F5EAEEF5FA30D92AC229
:104A7500D930A60590056D8003900567E0FEA3E09B
:104A8500FF900574E02FF0900573E03EF0900573FC
:104A9500E0FEA3E0F5EBEEF5FB30DA2AC2DA30A74B
:104AA5000590056F8003900569E0FEA3E0FF900582
:104AB50076E02FF0900575E03EF0900575E0FEA3D9
:104AC500E0F5ECEEF5FCD007D006D0D0D082D0834F
:034AD500D0E032FC
:105393009006C5ECF0A3EDF0AB079006C5E0FEA3C5
:1053A300E0FFE4FCFDEB75F00AA424F3F582E4349A
:1053B30003F58312107643BA8053F57FEB75F00A39
:1053C300A424FCF582E43403F583E0FF7E00900619
:1053D300C5E0FCA3E0FD120DF6AB07AA06E4F9F85D
:1053E300FF7E367D6E7C011257D91260A653BA7FB9
:0153F3002297
:1063B800EF75F00AA424F3F582E43403F583E0FCD6
:0A63C800A3E0FDA3E0FEA3E0FF2226
:10439C00900695EFF07F337E337D737C3FA3E0F87E
:1043AC00A3E0F9A3E0FAA3E0FB120A9E600C400A1A
:1043BC009006961210823F7333337FCD7ECC7DCC2A
:1043CC007C3C900696E0F8A3E0F9A3E0FAA3E0FBAE
:1043DC00120A9E500A9006961210823CCCCCCD90BC
:1043EC000696E0FCA3E0FDA3E0FEA3E0FF9006959B
:1043FC00E0FB75F00AA424F8F582E43403F583128B
:10440C00107643BA80EB75F00AA424FCF582E434F0
:10441C0003F583E0FFE4FCFDFEEB75F00AA424F346
:10442C00F582E43403F583E0F8A3E0F9A3E0FAA302
:10443C00E0FB120EF7A804A905AA06AB077F007EC5
:10444C00367D6E7C01120F82E4120B0B900696E007
:10445C00F8A3E0F9A3E0FAA3E0FB1208F8120B4969
:10446C00AB07AA06900695E0FF7D0A7C00124C1162
:04447C0053BA7F228E
:1063D200EF75F00AA424F8F582E43403F583E0FCB7
:0A63E200A3E0FDA3E0FEA3E0FF220C
:1065C500EF75F00AA424FCF582E43403F583EDF0BD
:0165D50022A3
:1065D600EF75F00AA424FCF582E43403F583E0FFAA
:0165E6002292
:0A66C60043BA8043F58053BA7F22E7
:0A66D00043BA8053F57F53BA7F22CE
:105CAA0043BA807401A807088002C333D8FC42F5BE
:105CBA00EF75F00AA424F7F582E43403F58374013E
:085CCA00F043F58053BA7F227C
:105E310043BA807401A807088002C333D8FCF45226
:105E4100F5EF75F00AA424F7F582E43403F583E451
:055E5100F053BA7F22AE
:10655E00EF75F00AA424F7F582E43403F583E02402
:02656E00FF220A
:052138009006C7EFF066
:10213D00E4A3F09006C8E0FFC39406505AEF75F083
:10214D000AA424F3F582E43403F58312108200000F
:10215D0000009006C8E0FF75F00AA424F7F582E4AC
:10216D003403F583E4F0EF75F00AA424F8F582E466
:10217D003403F583121082000000009006C8E0754C
:10218D00F00AA424FCF582E43403F5837401F09085
:10219D0006C8E004F0809C43BA80120D7CB40105A2
:1021AD0043F180800353F17F900001120D95B4012E
:1021BD00149006C7E0FF7401A807088002C333D846
:1021CD00FC42F180139006C7E0FF7401A807088058
:1021DD0002C333D8FCF452F1900002120D95B401F4
:1021ED000543F540800353F5BF900003120D95B4E0
:1021FD0001149006C7E0FF7401A807088002C333DD
:10220D00D8FC42F580139006C7E0FF7401A80708BB
:10221D008002C333D8FCF452F5900004120D95B42E
:10222D00010575F720800353F7DF900005120D951A
:10223D00B4010575F710800353F7EF900006120DEA
:10224D0095B4010575F708800353F7F79000071251
:10225D000D95B4010575F704800353F7FB90000845
:10226D00120D95B4010575F702800353F7FD90002B
:10227D0009120D9590FFF27006E054EFF08004E026
:10228D004410F090FFF2C083C082E0FF90000A126C
:10229D000D95FEEF4ED082D083F09006C7E014600E
:1022AD00721470030223731470030223C614700397
:1022BD0002241914700302246A240560030224C148
:1022CD0090000B120D9590FF047006E054F7F0800E
:1022DD0004E04408F090000C120D9590FF04B40139
:1022ED0006E04404F08004E054FBF090000D120D64
:1022FD009590FF04B40106E04402F08004E054FD23
:10230D00F090000E120D9590FF04B401030224B756
:10231D000224BD90000B120D9590FF147006E05431
:10232D00F7F08004E04408F090000C120D9590FF3A
:10233D0014B40106E04404F08004E054FBF0900076
:10234D000D120D9590FF14B40106E04402F08004C7
:10235D00E054FDF090000E120D9590FF14B40103A2
:10236D000224B70224BD90000B120D9590FF24702E
:10237D0006E054F7F08004E04408F090000C120DD4
:10238D009590FF24B40106E04404F08004E054FB72
:10239D00F090000D120D9590FF24B40106E044025B
:1023AD00F08004E054FDF090000E120D9590FF2486
:1023BD00B401030224B70224BD90000B120D9590B9
:1023CD00FF347006E054F7F08004E04408F090000C
:1023DD000C120D9590FF34B40106E04404F0800416
:1023ED00E054FBF090000D120D9590FF34B40106F2
:1023FD00E04402F08004E054FDF090000E120D95C3
:10240D0090FF34B401030224B70224BD90000B12D7
:10241D000D9590FF447006E054F7F08004E04408F9
:10242D00F090000C120D9590FF44B40106E04404A9
:10243D00F08004E054FBF090000D120D9590FF44D8
:10244D00B40106E04402F08004E054FDF090000E6B
:10245D00120D9590FF44B40102804F805390000BF4
:10246D00120D9590FF547006E054F7F08004E0448F
:10247D0008F090000C120D9590FF54B40106E04445
:10248D0004F08004E054FBF090000D120D9590FFC8
:10249D0054B40106E04402F08004E054FDF09000D5
:1024AD000E120D9590FF54B40106E04401F0800426
:1024BD00E054FEF090000F120D95B4010443F58029
:0424CD002253F57F22
:0124D10022E8
:1060A600D3E49F74809E90FFF1400AEFF0EE90FFDC
:0F60B600F0F07F002274FFF090FFF0747FF02273
:104C1100EF14602814603A14604C14605E146070E4
:104C210024056003024CA890FF01EDF0EC90FF0019
:104C3100F090FF03EBF0EA90FF02806790FF11ED27
:104C4100F0EC90FF10F090FF13EBF0EA90FF128070
:104C51005290FF21EDF0EC90FF20F090FF23EBF05C
:104C6100EA90FF22803D90FF31EDF0EC90FF30F0B3
:104C710090FF33EBF0EA90FF32802890FF41EDF096
:104C8100EC90FF40F090FF43EBF0EA90FF4280137D
:104C910090FF51EDF0EC90FF50F090FF53EBF0EAF4
:0A4CA10090FF52F07F00227F0122F5
:104DD000900001120D95B4010553CE7F800343CEA0
:104DE00080120D7CB4010543CE40800353CEBF90AA
:104DF0000002120D95B4010543CE20800353CEDF8F
:104E0000900003120D95700553CEEF800343CE1032
:104E1000900004120D95B4010543CE08800353CED3
:104E2000F7900005120D95700543CE04800353CE14
:104E3000FB900006120D95B4010543AF02800353A9
:104E4000AFFD900007120D955403FFE5CE54FC4FC3
:104E5000F5CE900008120D95FFE5A254F34FF5A290
:014E6000222F
:0B669D00EF700453CEEF2243CE10221A
:10647D009006A9E02443F8A607E004F0C394204059
:04648D0002E4F02213
:1060C500EDD394205018E4FEEEC39D5011120D7CC3
:0E60D500FF12647D740129F9E43AFA0E80EAA4
:0160E300229A
:105D71009006A9E0FF9006A7E06F601A7F01126606
:105D81009D9006A7E02443F8E6FFE004F0C39420C9
:065D91004002E4F08FCF98
:015D970022E9
:105E7B009006A8E0FF9006A6E0FEB507037F002280
:105E8B0074232EF8E6FF9006A6E004F0C39420409E
:035E9B0002E4F02E
:015E9E0022E1
:1062B300AD07EDD3942040037F0022EDD39401403A
:0A62C30006125E7B1D80F4125E7B64
:0162CD0022AE
:03004B0002550457
:10550400C0E0C083C082C0D075D000C000C006C057
:10551400079006A9E0FF9006A7E0FE6F6025A3E0D0
:105524002423F8A6CFE004F0C394204002E4F074EE
:10553400432EF8E6F5CF9006A7E004F0C39420408C
:1055440002E4F075CDC0D007D006D000D0D0D08210
:05555400D083D0E0321D
:10494A0041053E0241053F02420540000042054240
:10495A00000042053A0000420538000041054C00BB
:10496A004105370041053D0041053C00440544002E
:0A497A0000000044054800000000A2
:10560100E4900506F09004EEF0A3F0A3F0A3F0A35C
:10561100F09004F5F09004F374A2F0A37440F0E468
:105621009004F6F0A304F0A3F0A3F0E49004FDF0DD
:10563100A3F0A304F0A3F0A3F0E4900505F07B012F
:105641007A0479F67F02122AC97B017A0479FE7FF6
:0456510003022AC95D
:105E560090053EE0601EA3E0601AEF24FE600B048E
:105E66007012900544ECF0A3EDF0AF05900548ECF8
:055E7600F0A3EFF02293
:1063EC00EF24FE600804700E90054480039005486D
:0A63FC00E0FEA3E0FF22E4FEFF2212
:10626100EF24FE600C047013900546ECF0A3EDF0F2
:0C62710022AF0590054AECF0A3EFF022EC
:10640600EF24FE600804700E900546800390054A4E
:0A641600E0FEA3E0FF22E4FEFF22F7
:0E664100EF14700953D17F90053E7402F022D1
:1061F000EF24FE600D04701490053EE07002D3227F
:0D620000C32290053FE07003D38001C3224C
:1060E400EF24FE600E04701690053EE0B40102D366
:0F60F40022C32290053FE0B40103D38001C322F1
:10610300EF24FE600E04701690053EE0B40202D345
:0F61130022C32290053FE0B40203D38001C322D0
:10649100AE071261F0400CEF14700843D180E49014
:0464A100053EF022A2
:0E664F00AE071260E45005126491D322C322FC
:09672B0090053AE0FEA3E0FF2214
:09673400900538E0FEA3E0FF220D
:06674F0090054CE0FF2262
:06675500900537E0FF2271
:06675B0090053DE0FF2265
:0667610090053CE0FF2260
:102AC900AD07EDD3940440037F0122ED7073120D1D
:102AD9007CFED3940340037F0222C28CC2A9C2B9EF
:102AE9005389F0538E7F538FFE900002120D95B4D7
:102AF9000102D2A9900001120D95B40102D2B9EEDA
:102B09004289900003120D95FF7003438E80EFB444
:102B19000203438904900004120D95B40103438F05
:102B290001900005120EBFE5F0F58C900005120E1C
:102B3900BFF58A900007120D95B40102D28C7F006F
:102B490022ED64016003022BD5C28E900002120DA2
:102B590095B40104D2AB8002C2AB900001120D956D
:102B6900B40104D2BB8002C2BB120D7CFEC3940324
:102B790040037F0222E58954CF4EF5899000031264
:102B89000D95FFB40103538EBFEF7003438E40EFE1
:102B9900B4020543894080035389BF900004120D94
:102BA90095B40105438F028003538FFD90000512F0
:102BB9000EBFE5F0F58D900005120EBFF58B900064
:102BC90007120D95B40102D28E7F0022ED640270C6
:102BD90078538EEF900002120D95B4010543AF04AE
:102BE900800353AFFB900003120D95FED39402406E
:102BF900037F0222EEB40103538EFB900003120DF2
:102C0900957003438E04900003120D95B402054399
:102C19008E088003538EF7900004120D95B40105B8
:102C2900438F048003538FFB900005120EBFE5F01C
:102C3900F5D6900005120EBFF5D7900007120D9535
:102C4900B40103438E107F0022ED6403706090008D
:102C590003120D95FED3940240037F022253D1F053
:102C690053AFDF900002120D95B4010343AF20EE7C
:102C7900700343D102900003120D95B4020343D1AE
:102C890006900004120D95B4010343D1019000058B
:102C9900120EBFE5F0F5D4900005120EBFF5D590E0
:102CA9000007120D95B4010343D1087F0022ED649A
:102CB90004705C900003120D95FED3940240037FCB
:102CC900022253D10F53AFBF900002120D95B401E8
:102CD9000343AF40EE700343D120900003120D95DA
:102CE900B4020343D160900005120EBFFDACF0ECB5
:102CF900F5D28DD3900007120D95B4010343D1800D
:102D0900900004120D95B4010343D1107F00227F76
:022D1900022294
:10113B009004FCEBF0A3EAF0A3E9F09004FBEFF0D2
:10114B006401600302134D90000004F0E4A3F0A3CC
:10115B00F0A3F0A3F0A3F0A3F09004FFF09004FF32
:10116B00E0FFC39480501474382FF582E43401F5FA
:10117B0083E4F09004FFE004F080E2E49004FFF0DD
:10118B009004FFE0FFC394805014741C2FF582E48D
:10119B003400F583E4F09004FFE004F080E2900467
:1011AB00FCE0FBA3E0FAA3E0F9120D7CD394C04062
:1011BB00037F022290000A120D95B40104D2BC8069
:1011CB0002C2BC120D7CFFE598543F4FF598EF64BB
:1011DB00C06008EF644060030212C7900002121057
:1011EB00467F807E8D7D5B7C00120F829005001206
:1011FB001076E4FFFE7D01FC900500E0F8A3E0F91A
:10120B00A3E0FAA3E0FBC312102240037F0222905B
:10121B000500E0F8A3E0F9A3E0FAA3E0FBC3E49B2D
:10122B00FFE49AFE740199FDE498FC9005001210FE
:10123B00769004FCE0FBA3E0FAA3E0F99000011226
:10124B000D95FB64017038C28E538EFE5389BF53CC
:10125B0089CF438E40900500E0FCA3E0FDA3E0FEA8
:10126B00A3E0FF78081210338F8D900500A3A3A382
:10127B00E0F58BC2AB5389BF538FFDD28E8076EBDB
:10128B0064027035538EEF438E01538EF7438E04F9
:10129B00900500E0FCA3E0FDA3E0FEA3E0FF7808CF
:1012AB001210338FD6900500A3A3A3E0F5D753AF4D
:1012BB00FB538EF7438E10803C7F02229004FCE0A0
:1012CB00FBA3E0FAA3E0F9120D7CFF70139000086A
:1012DB00120D95B40105438E20801A538EDF8015B5
:1012EB00EFB48011900008120D95B401054387806F
:1012FB00800353877F9004FCE0FBA3E0FAA3E0F9A3
:10130B00900009120D95B40104D2AC8002C2AC90CE
:10131B000007120D95B40104D29C8002C29C900070
:10132B000B120D9554C0FFE5A2543F4FF5A2900050
:10133B000C120D95B4010543971080035397EF7F63
:10134B0000229004FBE0640260030214AF900007DC
:10135B007402F0E4A3F0A3F0A3F0A3F0A3F0A3F0C6
:10136B009004FFF09004FFE0FFC39480501474D4FA
:10137B002FF582E43401F583E4F09004FFE004F0F0
:10138B0080E2E49004FFF09004FFE0FFC3948050F0
:10139B0014749C2FF582E43400F583E4F09004FF81
:1013AB00E004F080E29004FCE0FBA3E0FAA3E0F998
:1013BB00120D7CFF64C06008EF6440600302146F81
:1013CB0090000A120D95B4010543B501800353B586
:1013DB00FE120D7CB4C005439A808003539A7F9014
:1013EB0000021210467F807E8D7D5B7C00120F8287
:1013FB00900500121076E4FFFE7D01FC900500E0E5
:10140B00F8A3E0F9A3E0FAA3E0FBC3121022400318
:10141B007F0222900500E0F8A3E0F9A3E0FAA3E035
:10142B00FBC3E49BFFE49AFE740199FDE498FC90E6
:10143B000500121076538EEF538EF7438E049005F2
:10144B0000E0FCA3E0FDA3E0FEA3E0FF7808121090
:10145B00338FD6900500A3A3A3E0F5D753AFFB437F
:10146B008E1080037F02229004FCE0FBA3E0FAA322
:10147B00E0F9900009120D95B4010543AF0180030B
:10148B0053AFFE900007120D95B40105439A1080DF
:10149B0003539AEF90000B120D955401FFE5BA54CC
:1014AB00FE4FF5BA9004FBE06403600302166290F2
:1014BB00000E7402F0E4A3F0A3F0A3F0A3F0A3F0EA
:1014CB00A3F09004FFF09004FFE0FFC3941C5014B2
:1014DB0074542FF582E43402F583E4F09004FFE0BA
:1014EB0004F080E2E49004FFF09004FFE0FFC3946B
:1014FB001C5014741C2FF582E43401F583E4F09036
:10150B0004FFE004F080E29004FCE0FBA3E0FAA30C
:10151B00E0F9120D7CFF64C06008EF6440600302C9
:10152B00162253ACDFEFB4C00543AC80800353AC41
:10153B007F9004FCE0FBA3E0FAA3E0F99000021219
:10154B0010467F807E8D7D5B7C00120F82900500A4
:10155B00121076E4FFFE7D01FC900500E0F8A3E09D
:10156B00F9A3E0FAA3E0FBC312102240037F02228F
:10157B00900500E0F8A3E0F9A3E0FAA3E0FBC3E4D5
:10158B009BFFE49AFE740199FDE498FC9005001210
:10159B0010769004FCE0FBA3E0FAA3E0F9900001C5
:1015AB00120D95FB6402703253ACBF538EEF538E0A
:1015BB00F7438E04900500E0FCA3E0FDA3E0FEA33F
:1015CB00E0FF78081210338FD6900500A3A3A3E099
:1015DB00F5D753AFFB438E108040EB64017035435E
:1015EB00AC4053D1F053AFDF43D10253D1FB53D1B6
:1015FB00FE900500E0FCA3E0FDA3E0FEA3E0FF7876
:10160B00081210338FD4900500A3A3A3E0F5D543A4
:10161B00D10880067F02227F02229004FCE0FBA30C
:10162B00E0FAA3E0F9900009120D95B4010543AF60
:10163B0008800353AFF7900007120D95B4010543D3
:10164B00AC10800353ACEF90000B120D955402FFBE
:10165B00E5BA54FD0218129004FBE0640460030227
:10166B0018189000157402F0E4A3F0A3F0A3F0A3F4
:10167B00F0A3F0A3F09004FFF09004FFE0FFC394FD
:10168B001C501474702FF582E43402F583E4F0904F
:10169B0004FFE004F080E2E49004FFF09004FFE02C
:1016AB00FFC3941C501474B82FF582E43401F583F6
:1016BB00E4F09004FFE004F080E29004FCE0FBA374
:1016CB00E0FAA3E0F9120D7CFF64C06008EF644000
:1016DB0060030217D55384DFEFB4C00543848080C9
:1016EB000353847F9004FCE0FBA3E0FAA3E0F990A2
:1016FB0000021210467F807E8D7D5B7C00120F8274
:10170B00900500121076E4FFFE7D01FC900500E0D1
:10171B00F8A3E0F9A3E0FAA3E0FBC3121022400305
:10172B007F0222900500E0F8A3E0F9A3E0FAA3E022
:10173B00FBC3E49BFFE49AFE740199FDE498FC90D3
:10174B0005001210769004FCE0FBA3E0FAA3E0F98D
:10175B00900001120D95FB640270325384BF538EBF
:10176B00EF538EF7438E04900500E0FCA3E0FDA33E
:10177B00E0FEA3E0FF78081210338FD6900500A38C
:10178B00A3A3E0F5D753AFFB438E108040EB64026D
:10179B00703543844053D10F53AFBF43D12053D146
:1017AB00BF53D1EF900500E0FCA3E0FDA3E0FEA347
:1017BB00E0FF78081210338FD2900500A3A3A3E0AB
:1017CB00F5D343D18080067F02227F02229004FC56
:1017DB00E0FBA3E0FAA3E0F9900009120D95B40128
:1017EB000543AF10800353AFEF900007120D95B474
:1017FB00010543841080035384EF90000B120D9569
:0F180B005404FFE5BA54FB4FF5BA7F00227F0368
:01181A0022AB
:105D9800900002E02438F582E43401F583EFF090B6
:105DA8000002E004F0C394804002E4F0900003E0B5
:075DB800700404F0D29922EF
:105CD200900009E024D4F582E43401F583EFF090DA
:105CE2000009E004F0C394804002E4F090000AE06E
:085CF200700504F0439A022240
:105CFA00900010E02454F582E43402F583EFF0902A
:105D0A000010E004F0C3941C4002E4F0900011E09B
:085D1A00700504F043AC022205
:105D2200900017E02470F582E43402F583EFF090DE
:105D32000017E004F0C3941C4002E4F0900018E065
:085D4200700504F04384022205
:10645200C2AF120D7CFF600C125D98740129F9E441
:076462003AFA80EED2AF22EE
:1064CB00120D7CFF600C125CD2740129F9E43AFACC
:0364DB0080EE222E
:1064DE00120D7CFF600C125CFA740129F9E43AFA91
:0364EE0080EE221B
:1064F100120D7CFF600C125D22740129F9E43AFA55
:0365010080EE2207
:0300230002507C0C
:10507C00C0E0C083C082C0D075D000C006C007306D
:10508C00982DC298900006E07025900004E0C3941F
:10509C00804002E4F0900004E0FF04F0741C2FF553
:1050AC0082E43400F583E599F09000057405F03046
:1050BC009930C299900002E0FF900001E0FE6F6011
:1050CC001C74382EF582E43401F583E0F5999000D8
:1050DC0001E004F0C394804009E4F08005900003E3
:0F50EC00E4F0D007D006D0D0D082D083D0E0320D
:03004300024EED7D
:104EED00C0E0C083C082C0D075D000C006C007E549
:104EFD009A30E02E539AFE90000DE0702590000B35
:104F0D00E0C394804002E4F090000BE0FF04F074E5
:104F1D009C2FF582E43400F583E59BF090000C7432
:104F2D0005F0E59A30E131539AFD900009E0FF90CC
:104F3D000008E0FE6F601C74D42EF582E43401F598
:104F4D0083E0F59B900008E004F0C394804009E4F1
:104F5D00F0800590000AE4F0D007D006D0D0D082C2
:054F6D00D083D0E0320A
:03008B00024F72AF
:104F7200C0E0C083C082C0D075D000C006C007E5C3
:104F8200AC30E02E53ACFE900014E070259000127D
:104F9200E0C3941C4002E4F0900012E0FF04F074BD
:104FA2001C2FF582E43401F583E5ADF09000137413
:104FB20005F0E5AC30E13153ACFD900010E0FF901C
:104FC200000FE0FE6F601C74542EF582E43402F58B
:104FD20083E0F5AD90000FE004F0C3941C4009E4B7
:104FE200F08005900011E4F0D007D006D0D0D08236
:054FF200D083D0E03285
:03009300024FF722
:104FF700C0E0C083C082C0D075D000C006C007E53E
:105007008430E02E5384FE90001BE0702590001939
:10501700E0C3941C4002E4F0900019E0FF04F07430
:10502700B82FF582E43401F583E585F090001A7412
:1050370005F0E58430E1315384FD900017E0FF90DF
:105047000016E0FE6F601C74542EF582E43402F5FE
:1050570083E0F585900016E004F0C3941C4009E452
:10506700F08005900018E4F0D007D006D0D0D082A9
:05507700D083D0E032FF
:102E8D00EFD3940040037FFF22EF23241CF8E6309C
:102E9D00E5F4C2AFE6548CF6D2AFE50CB5070A7473
:102EAD001D2FF8E6F581022D96502E741E2FF8E693
:102EBD00BF000274FFFD18E6F9741D2FF8FBE6FC48
:102ECD00E96C6008A805E7F61D1980F4A803A605AE
:102EDD001FE50CB507E37F0022741E2FF8E6FD18E1
:102EED0086010F741D2FF8A601088604E50CB507A1
:102EFD0002AC81ED6C60080D09A805E6F780F4E5DC
:092F0D000CB507DE89817F00226A
:10080000020BB5E86480F8E933E83360110460F066
:10081000ED33EC337009E8FCE9FDEAFEEBFF22045E
:1008200060DED3EB9FEA9EE99DE8C2E78CF0C2F759
:1008300095F0400CE8CCF8E9CDF9EACEFAEBCFFB25
:10084000120B8085D0F05804700320D5B3E80470F3
:10085000075002B2D5020BBF92D5EC0460F7E4CC8E
:10086000C0E0C398F8603B94186008400DD0E0FBEE
:10087000020B97E4FBFAC9FC8028E830E406E4C9DF
:10088000FBE4CAFCE830E305E4C9CACBFCE8540742
:100890006010F8C3E913F9EA13FAEB13FBEC13FC4D
:1008A000D8F130F52FC3E49CFCEF9BFFEE9AFEEDF0
:1008B00099FDD0E0FBEF4E4D4C701222DB03020B92
:1008C000BCEC2CFCEF33FFEE33FEED33FDED30E7F7
:1008D000EB020B97EF2BFFEE3AFEED39FDD0E0FB7C
:1008E00050130BBB0003020BBFED13FDEE13FEEF25
:0808F00013FFEC13FC020B974F
:1008F800EC4D6011E8497017ED33EC3304600DE4FA
:10090800FCFFFEFD22E933E8330470F8020BB51250
:100918000B8058046009E4CC248150062850090251
:100928000BBF284003020BBCC0E0EB4A7044B980FF
:1009380006D0E0FB020BABEF4E701CBD8008EBFF4E
:10094800EAFEE9FD80EBE98DF0A4FEE5F00209E19D
:10095800E9CDF9EAFEEBFFEF89F0A4FCE5F0CE89DA
:10096800F0A42EFFE435F0CD89F0A42DFEE435F097
:100978008067EF4E7005BD80D780C3EF8BF0A4ACC5
:10098800F0EE8BF0A42CFCE435F0F8EF8AF0A42C00
:10099800E5F038FCE433CB8DF0A42CFCE5F03BF813
:1009A800EE8AF0A42CFCE5F038F8E433CF89F0A403
:1009B8002CFCE5F038CF3400CE89F0A42FFFE5F009
:1009C8003EFEE433C98DF0A42EFEE5F039CD8AF061
:1009D800A42FFFE5F03EFEE43DFD33D0E0FB5007D9
:1009E8000BBB000F020BBFEC2CFCEF33FFEE33FE0A
:0609F800ED33FD020B9738
:1009FE00020BBFEC5D046005E859047003020BB5F1
:100A0E00120B80580460F6EC4860F2EC7004FDFEA8
:100A1E00FF22C860DB2481C85009C39860025006CB
:100A2E00020BBC9850CAF582E9294B4A7005AB827D
:100A3E00020BAB75F0007C1A7880C3EF9BEE9AED3B
:100A4E0099400DC3EF9BFFEE9AFEED99FDE842F043
:100A5E00DC23ACF0D0E0FFD0E0FED0E0FDAB822096
:100A6E00E7101BEB60BAEC2CFCEF33FFEE33FEED20
:100A7E0033FD020B97E803F830E705C0F075F00080
:100A8E00EF2FFFEE33FEED33FD40B830E7C280AA04
:100A9E0074F8CC6480CCC86480C8F582046043C30B
:100AAE00EB9FF5F0EA9E42F0E99D42F0E89C45F09E
:100ABE0060305018E5825FFFE582F42B5582FB50C3
:100ACE00210ABA001D09B90019088016E5825BFBE0
:100ADE00E582F42F5582FF50090EBE00050DBD00B4
:100AEE00010CC3EB9FF5F0EA9E42F0E99D42F0E85F
:0D0AFE009C45F06007CC4820E701B3EC22D6
:100B0B0075F020800E75F010800575F0087D007E65
:100B1B00007F003392D530D503121014EC33401004
:100B2B00EF33FFEE33FEED33FDEC33FCD5F0ED226E
:0E0B3B00E5F0247EA2D513CC92E7CDCEFF22AA
:100B4900EDD2E7CD33EC3392D524814006E4FFFEA4
:100B5900FDFC22FCE4CFCECDCC24E0501174FF8003
:100B6900EDC3CC13CCCD13CDCE13CECF13CF0470A0
:070B7900F030D5DE0210147C
:101CB500E5162432F582E43404F583E00516229016
:101CC500042F300703900432E475F0011210BF02AF
:101CD5000D7C2000E97F2ED2008018EF540F249050
:101CE500D43440D4FF30040BEF24BFB41A005003A2
:101CF5002461FFE51760021517051AE51A7002053C
:101D05001930070E90042FE475F0011210BFEF0291
:101D15000DC2025DBF7403D2078003E4C207F51646
:101D250090042F1210D6E4F517F519F51AE517608A
:101D3500077F20121CF880F57518FFC201C200C28A
:101D450002C203C205C206C208121CC4FF700D30D0
:101D550007057F00121D09AF1AAE1922B4255FC20F
:101D6500D5C204121CC4FF24D0B40A00501A75F061
:101D75000A781730D50508B6FF0106C6A426F62051
:101D8500D5047002D20380D924CFB41A00EF5004D1
:101D9500C2E5D204021FFBD20180C6D20080C0D2A8
:101DA5000280BCD2D580BAD20580B47F20121CF83F
:101DB5002002077401B5170040F1121CB5FF121C73
:101DC500F8021D32D208D2068095121CB5FB121CF2
:101DD500B5FA121CB5F94A4B700679F97A207BFFE2
:101DE50020022EE517602A7E008E82758300120D73
:101DF5009560060EEE651870F0C2D5EBC0E0EAC03E
:101E0500E0E9C0E0EE12205CD0E0F9D0E0FAD0E0E5
:101E1500FB120D7CFF60AAEBC0E0EAC0E0E9C0E080
:101E2500121CF8D0E02401F9D0E03400FAD0E0FB30
:101E3500E5180460DCD518D98087D20280A212206B
:101E45003E60F7E518700104120BCAA918600DE58C
:101E550018600914F5181220E6EF60F3EA30E7027E
:101E6500F404C3995079EAF425180430E701E40431
:101E7500F518800D12203E60C1EA05182518120BD1
:101E8500CAEA90045EF030E701E4251804D5180489
:101E95002005011412205CE4C0E01220E690045EE7
:101EA500E0601320E70714F0121CE0802204F0D054
:101EB500E014C0E07F00121CE0E5186007121CD793
:101EC5001518800B300503121CD7D0E0021D32D047
:101ED500E00480C412203E609EE51804120BCA90EF
:101EE500045EEAF0E51820050260010424041220CE
:011EF5005C90
:101EF60074FF04C0E01220E6121CE0E5182005027B
:101F06006003121CD7D0E0B518E87F45121CEA9092
:101F1600045EE07F2B30E7047F2DF404C0E0121C42
:101F2600F8D0E075F00A84C0F0121CE1D0E0121C73
:101F3600E1021D32791080027908C206C2088008C3
:101F4600D2D5790A8004790AC2D5E518047002F55B
:101F560018E4FAFDFEFF121CB5FC7B0820011312E3
:101F66001CB5FD7B1030000A121CB5FE121CB5FF15
:101F76007B20EC3382D592D55013C3E43000069F04
:101F8600FFE49EFEE42001039DFDE49CFCE4CBF807
:101F9600C201EC700CCFCECDCCE824F8F870F380FB
:101FA60017C3EF33FFEE33FEED33FDEC33FCEB33BB
:101FB600FB994002FB0FD8E9EB300105F8D0E0C4ED
:101FC60048B201C0E00AEC4D4E4F78207B0070C24B
:101FD600EAB5180040BCC0E012205ED0F0D0E02088
:101FE6000104C4C0E0C4B201C0F0121CE1D0F0D5B7
:101FF600F0EB021D321210DF1DCF531F3A581DA001
:102006004C1D9C421F3E4F1F46441F46491DB5436B
:102016001F4C551E79461ED9451E43472119501D92
:10202600A42D1DA82E1DCB2B1DAC231DC9202102BE
:102036002A1D644800001DC3E518B4FF0375180681
:10204600121CB5FC121CB5FD121CB5FE121CB5FF08
:10205600900457020C07790AA2D52003143005090B
:10206600B910020404B9080104A2D52006025001E1
:10207600042002689202B517005034C0E07F203079
:1020860003197F30A20272067205500F1220B5C2E4
:1020960002C206C205C2087F30800F300503E9C0C0
:1020A600E0121CF8300503D0E0F9D0E0B517CC30CB
:1020B60005177F30B9100C121CF87F583004077FC3
:1020C600788003B90803121CF83002057F2D021C24
:1020D600F87F202008F87F2B2006F322920280CF7B
:1020E6007F00B40700500B2457F582E43404F583CF
:1020F600E0FF22286E756C6C2900D201121CB530E7
:1021060001F8C201781730D50108F6021D642D507A
:10211600434958121CB52403B405004001E490213C
:102126001493121CE9743A121CE9D20375170402BF
:022136001F3A4E
:100B8000E9D2E7C933E833F892D5EDD2E7CD33ECBB
:070B900033FC5002B2D52234
:100B9700EC30E7100FBF000C0EBE00080DBD0004BF
:100BA7000BEB6014A2D5EB13FCED92E7FD2274FF6B
:100BB700FCFDFEFF22E480F8A2D574FF13FC7D80C4
:030BC700E480EFD8
:100BCA00F920E73624F950037907E4F42402FBE517
:100BDA0082158270021583DBF6E024FB501BE96064
:100BEA0014E4F0E582158270021583E004F0B40A79
:0D0BFA0008E4F0D9EE7401F00A22C2D52201
:100C0700ED33EC3392D5FA602AB4FF33EDC2E77BBC
:100C1700FF60067A0C792CE4227A0C793520D5040A
:100C27007A0C7930224E614E002B494E46002D49F1
:100C37004E4600E47A08F0A3DAFC7B00740722C072
:100C470083C082ECC0E0EDC0E0EEC0E0EFC0E0EAB8
:100C570075F010A4CAABF075F04DA42BFBE435F08A
:100C6700FCEA2410FAEB34C5FBEC34D9FCEDC2E7FF
