:024282003B5DA2
:024284004329CC
:024286004437BB
:02428800423BB7
:02428C0041F0FF
:02429000406983
:024292003C7777
:02429400408464
:0A34F7004205B400004205B60000D3
:103B5D001232DF7F04123CE67F01121AD97F031265
:103B6D001AD97F05121AD97F07121AD97F08121A8E
:0B3B7D00D97F09121AD9E4FF021B6275
:10432900E49002B4F0E4FBFA7D287F80121BEB8055
:01433900F48F
:014437002262
:10423B00900341740AF0900341E004F0E4FBFA7D33
:08424B00C87F80121BEB80EE1E
:1041F000900342120E9A0000000012379FE4FBFA6F
:094200007D027F80121BEB80F1AE
:104069007F08123F4C50051244208003124425E476
:0B407900FBFA7D057F80121BEB80E549
:103C7700D2081235F8E4FBFA79487842120A9E50C6
:103C8700051244208003124425E4FBFA7D017F805E
:053C9700121BEB80DBB5
:10408400D2081235F890036F7401F0123A98E4FBE9
:0A409400FA7D287F80121BEB80E606
:103B310090029E7440F0A37402F0A3120E8E9002C4
:103B4100A57401F0E4A3F0A304F0A3F0E4A3F0A3AF
:0C3B5100F07B017A02799E7F01020F01D7
:1032DF007F007EC27D017C00123B31123B88123E83
:1032EF00B3E4FD7F01123FF9123FA3E490028CF08B
:1032FF00A37480F07B017A02798C7F03122057D25E
:10330F00B743BA80E490028EF0A3F0A3F0A304F0C9
:10331F00E4A3F0A3F0A3F0A3F0A3F0A3F0A3740F22
:10332F00F0E4A3F0A3F0A3F0A3F0A3F07B017A02E3
:10333F00798EFF1215E153BA7F7D327C00E4FF12C4
:10334F0037F690029F120E9A3F333333E4FF122B5E
:08335F0079E4FF123BB0D2AF8C
:013367002243
:014438002261
:014439002260
:01443A00225F
:01443B00225E
:01443C00225D
:03000B0002196C6B
:10196700C2AF80FE3212196B85D00B75D008AAE082
:10197700C28CE58A2443F58AE58C34F6F58CD28C43
:10198700EC240FF8E6BC090274FFC39581B4140078
:1019970040CE790A782216E608700BC2AFE630E12E
:1019A700034418F6D2AF08D9EDEA8BD030090122EB
:1019B700D50DFCC0E0C0D0C0F0C083C082C000C05D
:1019C70001C002C003C004C005C006C007E50C2360
:1019D7002423F87440C2AF46F6D2AFD209E50CFF14
:1019E700232423F80F0808BF0A047F007823E63072
:1019F700E4F200E50CC39F5020050C740E250CF88B
:101A0700E6FDA68108E6AE0CBE090274FFCDF8E834
:101A17006D60E008E6C0E080F6E50CD39F4027E55F
:101A27000C240FF8E6AE0CBE090274FFFD18E6CDD4
:101A3700F8E5816D6006D0E0F61880F5E50C240E18
:101A4700C8F6150C80D3750D0AE50C232423F87FFF
:101A570004C2AFE610E61E30E00310E20C7F003050
:101A6700E10730E3047F0854F4547CC6D2AF5480B6
:101A77004207C20922F6D2AFD007D006D005D0045C
:101A8700D003D002D001D000D082D083D0F0D0D004
:0E1A9700D0E0C20922780EA68174096006FF15
:101AA5000876FFDFFB7F0AE47822F608F608DFFAFE
:101AB50078237630904282740193C0E0E493C0E0CD
:101AC500750D0A438901758A3C758CF6D28CD2AFA7
:041AD500D2A9220967
:102A4800AB07EB75F039A42498F582E43403F583D9
:102A5800120E9A00000000EB75F039A4249CF58250
:102A6800E43403F583120E9A00000000EB75F03988
:102A7800A424B0F582E43403F583120E9A00000012
:102A880000EB75F039A424ACF582E43403F5831225
:102A98000E9A0000000090053FE0FCA3E0FDA3E0D3
:102AA800FEA3E0FFEB75F039A424A0F582E434031B
:102AB800F583120E8E900543E0FCA3E0FDA3E0FE33
:102AC800A3E0FFEB75F039A424A4F582E43403F500
:102AD80083120E8E900547E0FCA3E0FDA3E0FEA361
:102AE800E0FFEB75F039A424A8F582E43403F583FC
:102AF800120E8EEB75F039A424A0F582E43403F5A8
:102B080083E0FCA3E0FDA3E0FEA3E0FFEB75F03952
:102B1800A424B8F582E43403F583120E8EEB75F025
:102B280039A424A4F582E43403F583E0FCA3E0FD92
:102B3800A3E0FEA3E0FFEB75F039A424B4F582E42A
:102B48003403F583120E8EEB75F039A424A8F582B0
:102B5800E43403F583E0FCA3E0FDA3E0FEA3E0FF7B
:102B6800EB75F039A424BCF582E43403F583020E36
:012B78008ECE
:1042CF00EF75F039A424C8F582E43403F583740143
:0242DF00F022CB
:10433A00EF75F039A424C8F582E43403F583E4F078
:01434A002250
:101E7D009005D0EFF075F039A424C8F582E4340351
:101E8D00F583E070030220569005D0E0FF75F03920
:101E9D00A42494F582E43403F583E0F8A3E0F9A3D8
:101EAD00E0FAA3E0FBEF75F039A42490F582E43459
:101EBD0003F583E0FCA3E0FDA3E0FEA3E0FF120821
:101ECD00039005D0E0FB75F039A42498F582E43435
:101EDD0003F583120E8EEB75F039A424ACF582E474
:101EED003403F583C083C082E0FCA3E0FDA3E0FED4
:101EFD00A3E0FF9005D0E075F039A42498F582E4B5
:101F0D003403F583E0F8A3E0F9A3E0FAA3E0FB12B4
:101F1D000807D082D083120E8E9005D0E0FF75F0A9
:101F2D0039A424ACF582E43403F583E0F8A3E0F999
:101F3D00A3E0FAA3E0FBEF75F039A424A4F582E445
:101F4D003403F583E0FCA3E0FDA3E0FEA3E0FF1264
:101F5D0008F8C004C005C006C0079005D0E0FF75A5
:101F6D00F039A42498F582E43403F583E0F8A3E076
:101F7D00F9A3E0FAA3E0FBEF75F039A424A0F582F4
:101F8D00E43403F583E0FCA3E0FDA3E0FEA3E0FF52
:101F9D001208F8D003D002D001D000120807C004F7
:101FAD00C005C006C0079005D0E0FF75F039A42428
:101FBD009CF582E43403F583E0F8A3E0F9A3E0FA9D
:101FCD00A3E0FBEF75F039A42498F582E43403F512
:101FDD0083E0FCA3E0FDA3E0FEA3E0FF1208039065
:101FED0005D0E075F039A424A8F582E43403F58317
:101FFD00E0F8A3E0F9A3E0FAA3E0FB1208F8D003A0
:10200D00D002D001D0001208079005D0E0FB75F08A
:10201D0039A424B0F582E43403F583120E8EEB75EA
:10202D00F039A42498F582E43403F583E0FCA3E0B1
:10203D00FDA3E0FEA3E0FFEB75F039A4249CF5822F
:0A204D00E43403F583120E8ED32253
:103D2A00AB07900583E0FCA3E0FDA3E0FEA3E0FF60
:103D3A00EB75F039A424C4F582E43403F583020E4A
:013D4A008EEA
:103D4B00AB07900588E0FCA3E0FDA3E0FEA3E0FF3A
:103D5B00EB75F039A424C0F582E43403F583020E2D
:013D6B008EC9
:103D6C00AB0790058DE0FCA3E0FDA3E0FEA3E0FF14
:103D7C00EB75F039A42494F582E43403F583020E38
:013D8C008EA8
:103D8D00AB07900592E0FCA3E0FDA3E0FEA3E0FFEE
:103D9D00EB75F039A424A4F582E43403F583020E07
:013DAD008E87
:103DAE00AB07900597E0FCA3E0FDA3E0FEA3E0FFC8
:103DBE00EB75F039A424A0F582E43403F583020EEA
:013DCE008E66
:103DCF00AB0790059CE0FCA3E0FDA3E0FEA3E0FFA2
:103DDF00EB75F039A424A8F582E43403F583020EC1
:013DEF008E45
:103DF000AB079005A1E0FCA3E0FDA3E0FEA3E0FF7C
:103E0000EB75F039A42490F582E43403F583020EB7
:013E10008E23
:10409E00EF75F039A42490F582E43403F583E0FC47
:0A40AE00A3E0FDA3E0FEA3E0FF2263
:1040B800EF75F039A42498F582E43403F583E0FC25
:0A40C800A3E0FDA3E0FEA3E0FF2249
:1040D200EF75F039A4249CF582E43403F583E0FC07
:0A40E200A3E0FDA3E0FEA3E0FF222F
:1040EC00EF75F039A424A0F582E43403F583E0FCE9
:0A40FC00A3E0FDA3E0FEA3E0FF2215
:10410600EF75F039A424A4F582E43403F583E0FCCA
:0A411600A3E0FDA3E0FEA3E0FF22FA
:10412000EF75F039A424A8F582E43403F583E0FCAC
:0A413000A3E0FDA3E0FEA3E0FF22E0
:10413A00EF75F039A424B0F582E43403F583E0FC8A
:0A414A00A3E0FDA3E0FEA3E0FF22C6
:10415400EF75F039A424ACF582E43403F583E0FC74
:0A416400A3E0FDA3E0FEA3E0FF22AC
:0527DE00900383EDF003
:1027E300E490038AF0A3F0900386E0FFA3E0900354
:1027F3008CCFF0A3EFF0900384E0FFA3E090038E6F
:10280300CFF0A3EFF0E4900388F0A3F0900383E00C
:10281300FF900388E0FCA3E0FDC39F7480F8EC64A1
:10282300809840030228D8ED25E0FFEC338F82F532
:1028330083120CD7FFC390038DE09F90038CE09528
:10284300F0501D900389E025E0FF900388E0338F6B
:1028530082F583120CD7FF90038CE5F0F0A3EFF021
:10286300900389E025E0FF900388E0338F82F583AE
:10287300120CD7FFD390038FE09F90038EE095F067
:10288300401D900389E025E0FF900388E0338F82A9
:10289300F583120CD7FF90038EE5F0F0A3EFF090D1
:1028A3000389E025E0FF900388E0338F82F58312EC
:1028B3000CD7FFAEF090038BE02FF090038AE03E3D
:1028C300F0900389E004F0600302280F900388E08E
:1028D30004F002280F90038EE0FEA3E0FF90038D27
:1028E300E02FFF90038CE03EFEC390038BE09FFF3D
:1028F30090038AE09EFEF0A3EFF0900383E024FEB2
:10290300FDE434FFFC120C5690038AEEF0A3EFF0C3
:0129130022A1
:10350100602A049500000000000000000000000097
:1035110000000000000000000000000000000000AA
:0E35210000000000000000000000000000009C
:102E9C0090037DEBF0A3EAF0A3E9F0900003120B92
:102EAC00E3FF900379E0FBA3E0FAA3E0F9A3E0FED3
:102EBC00F582758300EF120C2290037DE0FBA3E0FA
:102ECC00FAA3E0F9900002120BE3FFEE2401FDE4FB
:102EDC0033FC900379E0FBA3E0FAA3E0F98D828C3C
:102EEC0083EF120C2290037DE0FBA3E0FAA3E0F940
:102EFC00900001120BE3FFEE2402FDE433FC90037F
:102F0C0079E0FBA3E0FAA3E0F98D828C83EF120C3D
:102F1C002290037DE0FBA3E0FAA3E0F9120BCAFFB9
:102F2C00EE2403FDE433FC900379E0FBA3E0FAA369
:0A2F3C00E0F98D828C83EF020C2275
:103A980090036FE0900375F0122914E4900370F01E
:103AA80090036FE0FF122FEF900370E0FEC39F506A
:103AB8001774952EF582E43404F583E0FF123C5028
:083AC800900370E004F080D8C7
:013AD00022D3
:10291400900371120E8E900375E0FFD3940A400366
:10292400022A47EF7003022A47EF14B40A00400357
:10293400022A4790294575F003A4C58325F0C58371
:10294400730229630229790229900229A70229BE68
:102954000229D40229EA022A00022A16022A2C9009
:1029640003797401F0A37404F0A37495F0A37401C3
:10297400F0FB022A409003797401F0A37404F0A3DD
:102984007495F0A37405F07B01022A4090037974D6
:1029940001F0A37404F0A37495F0A37409F07B010F
:1029A400022A409003797401F0A37404F0A374958F
:1029B400F0A3740DF07B01022A409003797401F0B6
:1029C400A37404F0A37495F0A37411F07B01806CDC
:1029D4009003797401F0A37404F0A37495F0A374C4
:1029E40015F07B0180569003797401F0A37404F010
:1029F400A37495F0A37419F07B018040900379745B
:102A040001F0A37404F0A37495F0A3741DF07B018A
:102A1400802A9003797401F0A37404F0A37495F0F0
:102A2400A37421F07B0180149003797401F0A374E2
:102A340004F0A37495F0A37425F07B017A037971F3
:042A4400122E9C2290
:102FEF00EFD3940A5003EF70037F0022900495747F
:102FFF0024F0EF14B40A0040030230919030197599
:10300F00F003A4C58325F0C5837302303702304027
:10301F0002304902305202305B02306402306D02DE
:10302F00307602307F02308890049A7405F07F0664
:10303F002290049E7409F07F0A229004A2740DF06E
:10304F007F0E229004A67411F07F12229004AA74AE
:10305F0015F07F16229004AE7419F07F1A22900497
:10306F00B2741DF07F1E229004B67421F07F2222CD
:10307F009004BA7425F07F26229004BE7429F07F45
:05308F002A227F00224F
:1042E1009005A5EEF0A3EFF0A3EBF0A3EAF0A3E9AC
:0242F100F022B9
:08352F00C100C101C102C1038A
:103EB30090029F7478F0E490029EF07B017A02797D
:0E3EC3009E7F02122057D2A3D2A4D2A5D2A66F
:013ED10022CE
:0A43D200EF4E7005EE4F24FFB322FA
:103F4C00EF24F0600F24F0600E24E0600D24387034
:0D3F5C000BA20022A20122A20222A2032237
:10379F00A2A3E4FE33FF1243D2500EA2A3E433FFE1
:1037AF001243D25006D2008002C200A2A4E4FE331C
:1037BF00FF1243D25007200106D2018002C201A29C
:1037CF00A5E4FE33FF1243D25007200206D2028037
:1037DF0002C202A2A6E4FE33FF1243D25006200318
:0737EF0005D20322C20322F0
:02353700C10AC7
:103B880090029F7405F0E490029EF07B017A02791E
:103B98009E7F051220571244207FC812437D12448D
:073BA800257FC812437DD305
:013BAF0022F3
:05442000C2CDD20A220A
:05442500D2CDC20A2205
:103CE60090028CEFF090028CE0FF14F0EF6012125D
:103CF60044207FC812437D1244257FC812437D802D
:023D0600E422B5
:03442E00A20A22BD
:064402009005D1EFF0224D
:103137009005AAEFF07F337E337D737C3FA3E0F8E1
:10314700A3E0F9A3E0FAA3E0FB120A9E600C400A91
:103157009005AB120E9A3F7333337FCD7ECC7D4CF7
:103167007C3D9005ABE0F8A3E0F9A3E0FAA3E0FB10
:10317700120A9E500A9005AB120E9A3D4CCCCD9088
:1031870005AAE02404FFC007A3E0FCA3E0FDA3E039
:10319700FEA3E0FF90029F120E8ED007122B7990AC
:1031A70005ABE0FCA3E0FDA3E0FEA3E0FF120B49A3
:1031B7009005AAE025E024B9F582E43405F583EF0C
:0231C700F022F4
:103F10009005D2EFF02404FF123BB09005D2E025CB
:0E3F2000E024B8F582E43405F5837401F02244
:103F69009005D3EFF02404FF123C9C9005D3E02583
:0D3F7900E024B8F582E43405F583E4F0227D
:10436D00EF25E024B8F582E43405F583E024FF223F
:10367200E490050BF0A37408F07B017A05790B7FC7
:103682000212205790050C7404F07B017A05790B25
:103692007F02122057D2A2D2A343BA80E490050D32
:1036A200F0A3F0A3F0A304F0E4A3F0A3F0A3F0A32B
:1036B200F0A3F0A3F0A3F0A3F0A3F0A3F0A3F0A370
:1036C200F07B017A05790D7F021215E17B017A0503
:0A36D200790D7F031215E153BA7F52
:0136DC0022CB
:05221B009004BFEFF08C
:10222000E49004CEF0A37480F07B017A0479CE7F31
:1022300003122057D2B743BA80E49004D0F0A3F041
:10224000A3F0A304F0E4A3F0A3F0A3F0A3F0A3F0A1
:10225000A3F0A3F0A3F0A3F0A3F0A3F0A3F07B01FD
:102260007A0479D0FF1215E153BA7F9004C0E0FCE4
:10227000A3E0FDA3E0FEA3E0FF9004BFE0FB75F048
:102280001FA42407F582E43404F583120E8E900413
:10229000C4E0FCA3E0FDA3E0FEA3E0FFEB75F01FAC
:1022A000A4240BF582E43404F583120E8E9004C846
:1022B000E0FCA3E0FDA3E0FEA3E0FFEB75F01FA4AC
:1022C0002417F582E43404F583120E8E9004CCE0DA
:1022D000FEA3E0FFEB75F01FA42411F582E43404A3
:1022E000F583EEF0A3EFF0EB75F01FA42407F58261
:1022F000E43404F583E0F8A3E0F9A3E0FAA3E0FBFB
:102300009004BFE075F01FA4240BF582E43404F5BB
:1023100083E0FCA3E0FDA3E0FEA3E0FF12080312AC
:102320000B497C037DE8120C449004BFE0FB75F080
:102330001FA42411F582E43404F583E0FCA3E0FD3E
:10234000120C56EB75F01FA4240FF582E43404F54B
:1023500083EEF0A3EFF09004BFE075F01FA424110A
:10236000F582E43404F583E0FCA3E0FDE4120B10F5
:10237000A804A905AA06AB079004BFE075F01FA446
:102380002417F582E43404F583E0FCA3E0FDA3E028
:10239000FEA3E0FF120A019004BFE0FB75F01FA44A
:1023A000241BF582E43404F583120E8EEB75F01FC6
:1023B000A42413F582E43404F583120E9A0000007D
:0B23C00000E4FF123C9C7F320237F665
:052C5F00900563EFF099
:102C6400A3E0FCA3E0FDA3E0FEA3E0FF900563E086
:102C7400FB75F01FA42402F582E43404F583120EDC
:102C84008EEB75F01FA4241BF582E43404F583E075
:102C9400F8A3E0F9A3E0FAA3E0FB900564E0FCA349
:102CA400E0FDA3E0FEA3E0FF120A01120B49900528
:102CB40063E075F01FA4240FF582E43404F583E087
:102CC400FCA3E0FD120C44AC06AD07E4120B10E4C7
:102CD400FBFAF9783F120807E4FBFA79A07841126D
:102CE4000A01900568120E8EE4FF123C9C90056860
:102CF400E0FCA3E0FDA3E0FEA3E0FF90029F120E20
:102D04008EE4FF122B79E4FF123BB0900563E0FBE5
:102D140075F01FA42402F582E43404F583E0FCA3D7
:102D2400E0FDA3E0FEA3E0FFEB75F01FA42413F580
:092D340082E43404F583020E8EE2
:10416E00EF75F01FA42413F582E43404F583E0FC0C
:0A417E00A3E0FDA3E0FEA3E0FF2292
:103D08009005D4EFF0E4FF123BB09005D4E075F0D5
:103D18001FA4241FF582E43404F583E4F0A304F01F
:023D2800D322A4
:103E11009005D5EFF0E4FF123C9C9005D5E075F0DC
:103E21001FA4241FF582E43404F583E4F0A3F0D346
:013E3100226E
:10434B008D828C83EBFD7C00AA83AB8212384CD31D
:01435B00223F
:103AD1009005BCEFF0A3ECF0A3EDF0A3EBF09005A3
:103AE100BD74FFF5F0120CC145F060139005BCE008
:103AF100FF9005BFE0FB7D687C0112434B80DFD363
:013B010022A1
:1042F300EF75F006A4244DF582E43405F583E0243C
:02430300FF2297
:103FDD009005D6EFF0123E539005D6E075F006A48D
:0C3FED00244DF582E43405F583E4F02255
:103F86009005D7EFF0123E329005D7E075F006A403
:0D3F9600244DF582E43405F5837401F0221A
:034431000236DD73
:0F438D0074C42FF582E43405F5837401F0D32254
:0E439C0074C42FF582E43405F583E4F0D322D7
:01443D00225C
:103FF90090029EEFF0A3EDF0A37401F0E4A3F0A307
:0C400900F0A3F07B017A02799E0238F4EB
:1035F800E490037FF0300863F0E4FF123741900352
:103608007FE025E0246BF582E43403F583EEF0A334
:10361800EFF090037FE004F0E0C3940A40DB7B0105
:103628007A03796B9003847404F0A3E4F0A3F0A305
:10363800F07D0A1227DEAC06AD07E4120B109005E8
:103648006C120E8E90056CE0FCA3E0FDA3E0FEA3D7
:10365800E0FFA3120E8E90056C8003900570E0FCCD
:09366800A3E0FDA3E0FEA3E0FFD6
:013671002236
:104015009005D8EFF0D2C87F0112437D9005D8E016
:0C402500F5C0D2CA7F0112437DC2CA223E
:103B02009005C7EBF0A3EAF0A3E9F09005C7E0FB4C
:103B1200A3E0FAA3E0F9120BCAFFD39400400F12FC
:0F3B220040159005C8E475F001120CAB80DD2250
:103FA300123F2ED2CCC2CAC2C97F381240317F0C15
:0D3FB3001240317F061240317F0102403183
:1040310090029EEFF0C2C87F0112437DD2CA900266
:0C4041009EE0F5C07F0112437DC2CA2240
:103F2E0053C9EF43CA1053C9FE53CAFE53C9FD53BA
:0E3F3E00CAFD53C9FB53CAFBE4F5B3F5B42228
:084209009005C0ECF0A3EDF0FC
:10421100E4A3F0A3EFF07B017A0579C2E4FF022069
:014221005745
:05435C009005D9EFF00F
:0B436100E4FF00000FEFB408F90000BB
:01436C00222E
:053539004205570000EF
:10384C009005AFEFF09005B2EAF0A3EBF09005B065
:10385C00ECF0A3EDF0FF1237F69005B0E0FEA3E01C
:10386C00FF9005AFE0FD75F005A4245BF582E43410
:10387C0005F583EEF0A3EFF09005B2E0FEA3E0FFB8
:10388C00ED75F005A42459F582E43405F583EEF0CA
:05389C00A3EFF0D322B0
:103E32009005DAEFF02405FF123BB09005DAE07549
:103E4200F005A4245DF582E43405F5837401F0D312
:013E5200224D
:103E53009005DBEFF02405FF123C9C9005DBE07539
:103E6300F005A4245DF582E43405F583E4F0D32260
:10430500EF75F005A4245DF582E43405F583E0241A
:02431500FF2285
:1036DD0090029F120E9A3F0000007F05122B7990E9
:1036ED00029F120E9A3F0000007F04122B7943BAFD
:1036FD0080E490052EF0A3F0A3F0A304F0E4A3F072
:10370D00A3F0A3F0A3F0A3F0A3F0A3F0A3F0A30400
:10371D00F0E4A3F0A304F0E4A3F07B017A05792E85
:10372D007F041215E17B017A05792E7F051215E1D3
:03373D0053BA7FFD
:013740002266
:0300B3000238A16F
:1038A100C0E0C0F0C083C082C0D075D000C000C0ED
:1038B10006C007AFF6E4B50729E4B48025900557A3
:1038C10075F001120CC1FED390055AE095F09005F8
:1038D10059E09E500DE4F0A3F043BA8053F57F53B5
:1038E100BA7FD007D006D000D0D0D082D083D0F01C
:0338F100D0E032F2
:1038F400120BCAF59D900001120BE3FFE5BC549F27
:103904004FF5BC900002120BE3B4010543BC808068
:103914000353BC7F900003120BE3B40105439720CB
:1039240080035397DF900005120BE3B40104D2AD7A
:103934008002C2AD900004120BE3B40103D2BD2295
:03394400C2BD22DF
:0C43C600EFB4010443BC802253BC7F22F2
:10374100EFD3940740028051E4F5BDF5BEE5BC54CA
:10375100E044084FF5BC00000000E4FBE5BC30E4A8
:103761003353BCEFE59730E509E5BD5403ADBEFC2D
:10377100801DAFBD7C00AD07ED7E007802C333CE66
:1037810033CED8F9FFE5BE5403FDEEFCEF4DFDAF9E
:0D37910005AE04220BEBB4FAC37E047F00EA
:01379E002208
:03002B0002442A62
:04442A0053BCEF325E
:0F437D007D367C07ED1D70011C144C70F7DFF1CD
:01438C00220E
:03443400A20B22B6
:10205700EFD3940540037F0122120BCAFED39403EA
:1020670040037F0222EF7041EE700B900001120BCC
:10207700E3F452935294120BCAB4010B900001126D
:102087000BE34293F45294120BCAFEB4020A900077
:1020970001120BE342934294EEB4030D9000011238
:1020A7000BE3FEF45293EE4294EF64017043120B7C
:1020B700CAFE700B900001120BE3F452915292EE9C
:1020C700B4010B900001120BE34291F45292120BF0
:1020D700CAB4020A900001120BE342914292120B1A
:1020E700CAB4030D900001120BE3FEF45291EE42C5
:1020F70092EF64027043120BCAFE700B900001123C
:102107000BE3F452955296EEB4010B900001120BBB
:10211700E34295F45296120BCAB4020A90000112D8
:102127000BE342954296120BCAB4030D90000112BD
:102137000BE3FEF45295EE4296EF64037043120BE5
:10214700CAFE700B900001120BE3F452B152B2EECB
:10215700B4010B900001120BE342B1F452B2120B1F
:10216700CAB4020A900001120BE342B142B2120B49
:10217700CAB4030D900001120BE3FEF452B1EE4214
:10218700B2EF64047043120BCAFE700B9000011289
:102197000BE3F452B352B4EEB4010B900001120BEF
:1021A700E342B3F452B4120BCAB4020A900001120C
:1021B7000BE342B342B4120BCAB4030D90000112F1
:1021C7000BE3FEF452B3EE42B4EF64057043120B17
:1021D700CAFF700B900001120BE3F452C952CAEF09
:1021E700B4010B900001120BE342C9F452CA120B5F
:1021F700CAB4020A900001120BE342C942CA120B89
:10220700CAB4030D900001120BE3FFF452C9EF4269
:04221700CA7F002258
:102DEE00EF7034D3ED9498EC940340047C037D98FB
:102DFE00C3ED9450EC940050047C007D50C2DE90E4
:102E0E0004FFECF0A3EDF0C374E89D9004FAF074A7
:102E1E00039C9004F98073EF64017034D3ED9468D1
:102E2E00EC940B40047C0B7D68C3ED9450EC940045
:102E3E0050047C007D50C2DE900501ECF0A3EDF055
:102E4E00C374B89D9004FCF0740B9C9004FB803A04
:102E5E00EF64027038D3ED9480EC940740047C0745
:102E6E007D80C3ED9450EC940050047C007D50C2E4
:102E7E00DE900503ECF0A3EDF0AE04FFC374D09F1B
:0E2E8E009004FEF074079E9004FDF0D2DE2248
:1023CB009005CAEBF0A3EAF0A3E9F0AD07EDD394C7
:1023DB00034003022569ED6403704CC2DEF5F9F589
:1023EB00E99005CAE0FBA3E0FAA3E0F9120BCAFFE0
:1023FB00E5A254CF4FF5A2900001120BE3FFE5D9F4
:10240B0054F14FF5D9900004120BE35401FFE5D9B9
:10241B0054FE4FF5D9900005120BE3B40104D2BF63
:10242B008002C2BFD2DE229005CAE0FBA3E0FAA372
:10243B00E02404F9E43AFA120BCA5431120C10904E
:10244B0005CAE0FBA3E0FAA3E0F9900002120BE34C
:10245B00C39448400FE92404F9E43AFA120BCA5426
:10246B00CF120C10ED704F9005CAE0FBA3E0FAA35E
:10247B00E0F9900004120BE3FF900002120BE3FE55
:10248B004FF5DA900003120BE3FFE5F2543F4FF5E3
:10249B00F2900006120CD7FBAAF09004FFEAF0A30F
:1024AB00EBF0C2049004F6EEF0900505EAF0A3EB16
:1024BB00F0F5EAEAF5FAED6401704F9005CAE0FB1E
:1024CB00A3E0FAA3E0F9900004120BE3FF900002E3
:1024DB00120BE3FE4FF5DB900003120BE3FFE5F36A
:1024EB00543F4FF5F3900006120CD7FBAAF0900562
:1024FB0001EAF0A3EBF0C2059004F7EEF0900507AC
:10250B00EAF0A3EBF0F5EBEAF5FBED6402704F900C
:10251B0005CAE0FBA3E0FAA3E0F9900004120BE379
:10252B00FF900002120BE3FE4FF5DC900003120B41
:10253B00E3FFE5F4543F4FF5F4900006120CD7FD82
:10254B00ACF0900503ECF0A3EDF0C2069004F8EEAE
:0F255B00F0900509ECF0A3EDF0F5ECECF5FC22A7
:10256A009005CEECF0A3EDF09005CDEFF0705ED3C0
:10257A00EB9464EA940040047A007B64C3EB940110
:10258A00EA940050047A007B01C2DE9005CEE0FE98
:10259A00A3E0FFAD03AC02120C447C007D64120C74
:1025AA00569004FFEEF0A3EFF07C007D64AF03AE1B
:1025BA0002120C56C374019FFFE49EFE9005CEE002
:1025CA00FCA3E0FD120C449004F902269F9005CD6D
:1025DA00E06401705DD3EB9464EA940040047A00ED
:1025EA007B64C3EB9401EA940050047A007B01C235
:1025FA00DE7C007D64AF03AE02120C569005CEE07D
:10260A00FCA3E0FD120C44900501EEF0A3EFF07C70
:10261A00007D64AF03AE02120C56C374019FFFE43F
:10262A009EFE9005CEE0FCA3E0FD120C449004FB54
:10263A0080639005CDE064027062D3EB9464EA94FF
:10264A000040047A007B64C3EB9401EA94005004CE
:10265A007A007B01C2DE7C007D64AF03AE02120CFD
:10266A00569005CEE0FCA3E0FD120C44900503EE63
:10267A00F0A3EFF0AE02AF037C007D64120C56C3E8
:10268A0074019FFFE49EFE9005CEE0FCA3E0FD12DC
:0D269A000C449004FDEEF0A3EFF0D2DE2220
:03003B00023094FC
:10309400C0E0C083C082C0D075D000C006C0073075
:1030A400D82AC2D830A5059004FF80039004F9E023
:1030B400FEA3E0FF900506E02FF0900505E03EF04A
:1030C400900505E0FEA3E0F5EAEEF5FA30D92AC250
:1030D400D930A60590050180039004FBE0FEA3E02F
:1030E400FF900508E02FF0900507E03EF0900507FB
:1030F400E0FEA3E0F5EBEEF5FB30DA2AC2DA30A706
:103104000590050380039004FDE0FEA3E0FF900515
:103114000AE02FF0900509E03EF0900509E0FEA3D7
:10312400E0F5ECEEF5FCD007D006D0D0D082D08309
:03313400D0E032B6
:0515E10090029EEFF0F6
:1015E600E4A3F090029FE0FFC394065046EF75F027
:1015F60009A4245FF582E43404F583120E9A0000F0
:10160600000090029FE0FF75F009A42463F582E4D0
:101616003404F583E4F0EF75F009A42464F582E45C
:101626003404F583120E9A0000000090029FE00435
:10163600F080B043BA80120BCAB4010543F1808032
:101646000353F17F900001120BE3B4011490029E44
:10165600E0FF7401A807088002C333D8FC42F1807A
:101666001390029EE0FF7401A807088002C333D8D6
:10167600FCF452F1900002120BE3B4010543F5406D
:10168600800353F5BF900003120BE3B401149002DC
:101696009EE0FF7401A807088002C333D8FC42F518
:1016A600801390029EE0FF7401A807088002C333EE
:1016B600D8FCF452F5900004120BE3B4010575F75B
:1016C60020800353F7DF900005120BE3B401057584
:1016D600F710800353F7EF900006120BE3B40105F1
:1016E60075F708800353F7F7900007120BE3B40170
:1016F6000575F704800353F7FB900008120BE3B45B
:10170600010575F702800353F7FD900009120BE3FC
:1017160090FFF27006E054EFF08004E04410F09081
:10172600FFF2C083C082E0FF90000A120BE3FEEFD7
:101736004ED082D083F090029EE014607214700343
:1017460002180814700302185B1470030218AE1412
:1017560070030218FF2405600302195690000B124D
:101766000BE390FF047006E054F7F08004E04408B1
:10177600F090000C120BE390FF04B40106E0440461
:10178600F08004E054FBF090000D120BE390FF0490
:10179600B40106E04402F08004E054FDF090000E2F
:1017A600120BE390FF04B4010302194C0219529084
:1017B600000B120BE390FF147006E054F7F0800460
:1017C600E04408F090000C120BE390FF14B40106FD
:1017D600E04404F08004E054FBF090000D120BE3AB
:1017E60090FF14B40106E04402F08004E054FDF0DA
:1017F60090000E120BE390FF14B4010302194C0281
:10180600195290000B120BE390FF247006E054F778
:10181600F08004E04408F090000C120BE390FF24E3
:10182600B40106E04404F08004E054FBF090000D9F
:10183600120BE390FF24B40106E04402F08004E0BA
:1018460054FDF090000E120BE390FF24B401030246
:10185600194C02195290000B120BE390FF347006DC
:10186600E054F7F08004E04408F090000C120BE31B
:1018760090FF34B40106E04404F08004E054FBF029
:1018860090000D120BE390FF34B40106E04402F021
:101896008004E054FDF090000E120BE390FF34B488
:1018A600010302194C02195290000B120BE390FF30
:1018B600447006E054F7F08004E04408F090000C11
:1018C600120BE390FF44B40106E04404F08004E008
:1018D60054FBF090000D120BE390FF44B40106E0B8
:1018E6004402F08004E054FDF090000E120BE390E9
:1018F600FF44B40102804F805390000B120BE3901B
:10190600FF547006E054F7F08004E04408F09000BD
:101916000C120BE390FF54B40106E04404F080047B
:10192600E054FBF090000D120BE390FF54B4010657
:10193600E04402F08004E054FDF090000E120BE348
:1019460090FF54B40106E04401F08004E054FEF038
:1019560090000F120BE3B4010443F5802253F57F88
:01196600225E
:10418800EF75F009A4245FF582E43404F583E0FCBC
:0A419800A3E0FDA3E0FEA3E0FF2278
:1041A200EF75F009A42464F582E43404F583E0FC9D
:0A41B200A3E0FDA3E0FEA3E0FF225E
:1037F60090029EECF0A3EDF0AB0790029EE0FEA3D4
:10380600E0FFE4FCFDEB75F009A4245FF582E434E7
:1038160004F583120E8E43BA8053F57F90029FE023
:10382600C4F8540FC868FF90029EE0C454F048AB39
:1038360007FAE4F9F8FF7E367D6E7C011239D6125E
:06384600425353BA7F2239
:102B790090029EEFF07F337E337D737C3FA3E0F8B4
:102B8900A3E0F9A3E0FAA3E0FB120A9E600C400A55
:102B990090029F120E9A3F7333337FCD7ECC7D4CCA
:102BA9007C3D90029FE0F8A3E0F9A3E0FAA3E0FBE3
:102BB900120A9E500A90029F120E9A3D4CCCCD905B
:102BC900029FE0FCA3E0FDA3E0FEA3E0FF90029ECC
:102BD900E0FB75F009A42464F582E43404F583125A
:102BE9000E8E43BA80AF03C007EB75F009A4245FCA
:102BF900F582E43404F583E0FCA3E0FDA3E0FEA341
:102C0900E0FFE47B10FAF9F8120D0FA804A905AA50
:102C190006AB077F007E367D6E7C01120D9AE412A9
:102C29000B0B90029EE075F009A42464F582E4344C
:102C390004F583E0F8A3E0F9A3E0FAA3E0FB1208A6
:102C4900F8120B499002A6120E8ED007E4FDFC1271
:062C590026A753BA7F22FA
:0A43DC0043BA8043F58053BA7F22F4
:0A43E60043BA8053F57F53BA7F22DB
:103BB00043BA807401A807088002C333D8FC42F5D9
:103BC000EF75F009A42463F582E43404F5837401ED
:083BD000F043F58053BA7F2297
:103C9C0043BA807401A807088002C333D8FCF452DD
:103CAC00F5EF75F009A42463F582E43404F583E49C
:053CBC00F053BA7F2265
:10431700EF75F009A42463F582E43404F583E024FF
:02432700FF2273
:10425300D3E49F74809E400D90FFF1EFF0EE90FF4A
:08426300F0F07F00227F012230
:1026A700EF14604A14607514700302275114700305
:1026B70002277E1470030227AB240560030227DB81
:1026C70090FF01EDF0EC90FF00F09002A6A3A3A30A
:1026D700E090FF03F09002A6E0FCA3E0FDA3E0FE7C
:1026E700A3E0FF7808120E4B90FF020227D690FF57
:1026F70011EDF0EC90FF10F09002A6A3A3A3E090D9
:10270700FF13F09002A6E0FCA3E0FDA3E0FEA3E028
:10271700FF7808120E4B90FF120227D690FF21ED8B
:10272700F0EC90FF20F09002A6A3A3A3E090FF2374
:10273700F09002A6E0FCA3E0FDA3E0FEA3E0FF7893
:1027470008120E4B90FF220227D690FF31EDF0ECD6
:1027570090FF30F09002A6A3A3A3E090FF33F09080
:1027670002A6E0FCA3E0FDA3E0FEA3E0FF780812C9
:102777000E4B90FF32805890FF41EDF0EC90FF40F8
:10278700F09002A6A3A3A3E090FF43F09002A6E077
:10279700FCA3E0FDA3E0FEA3E0FF7808120E4B9038
:1027A700FF42802B90FF51EDF0EC90FF50F090022C
:1027B700A6A3A3A3E090FF53F09002A6E0FCA3E03A
:1027C700FDA3E0FEA3E0FF7808120E4B90FF52EF47
:0727D700F07F00227F0122C8
:102D3D0054696D65723120696E697469616C697A67
:102D4D00696E672073756363656564200A00546955
:102D5D006D65723120696E697469616C697A696E2D
:102D6D0067206661696C6564200A0054696D65723F
:102D7D003320696E697469616C697A696E67207355
:102D8D00756363656564200A0054696D657233204F
:102D9D00696E697469616C697A696E6720666169CB
:102DAD006C6564200A0054696D65723420696E6922
:102DBD007469616C697A696E6720737563636565A3
:102DCD0064200A0054696D65723420696E697469F6
:102DDD00616C697A696E67206661696C6564200A49
:012DED0000E5
:10353E004104E7024104E8024204E900004204EBC0
:10354E0000004204E300004204E100004104F500E3
:10355E004104E0004104E6004104E5004404ED00AE
:0A356E000000004404F1000000001A
:102F4600E490052DF090051DF0A3F0A304F0E4A392
:102F5600F0A3F0900524F090052274A2F0A374402B
:102F6600F0E4900525F0A3F0A304F0E4A3F0A3F0A9
:102F760090052C04F090052A74FFF0A37410F07FDE
:102F860001121C4A90052DEFF070087BFF7A2D790F
:102F96003D800A90052DE07BFF7A2D795B12426B0E
:102FA6007F03121C4A90052DEFF070087BFF7A2DE7
:102FB6007978800A90052DE07BFF7A2D799612426A
:102FC6006B7B017A0579257F04121C5090052DEF45
:102FD600F070087BFF7A2D79B3800A90052DE07B8F
:082FE600FF7A2D79D112426B34
:012FEE0022C0
:103CC1009004E7E0601EA3E0601AEF24FE600B049D
:103CD10070129004EDECF0A3EDF0AF059004F1EC5F
:053CE100F0A3EFF0224A
:1041BC00EF24FE600804700E9004ED80039004F16F
:0A41CC00E0FEA3E0FF22E4FEFF2264
:10404D00EF24FE600C0470139004EFECF0A3EDF080
:0C405D0022AF059004F3ECF0A3EFF0227A
:1041D600EF24FE600804700E9004EF80039004F351
:0A41E600E0FEA3E0FF22E4FEFF224A
:10422200EF24FE600A047010C28E9004E7800653E9
:09423200D1F79004E87402F022B7
:103FC000EF24FE600D0470149004E7E07002D32229
:0D3FD000C3229004E8E07003D38001C322F7
:103ED200EF24FE600E0470169004E7E0B40102D3F2
:0F3EE20022C3229004E8E0B40103D38001C3227D
:103EF100EF24FE600E0470169004E7E0B40202D3D2
:0F3F010022C3229004E8E0B40203D38001C3225C
:103E7300AE07123FC04018EF24FE600B047010D24F
:103E83008EE49004E7F02243D108E49004E8F022A2
:0E43AA00AE07123ED25005123E73D322C3223C
:0943F0009004E3E0FEA3E0FF22CB
:0943F9009004E1E0FEA3E0FF22C4
:064408009004F5E0FF2224
:06440E009004E0E0FF2233
:064414009004E6E0FF2227
:06441A009004E5E0FF2222
:03001B0002398F18
:10398F00C0E0C0F0C083C082C0D075D000C000C0FE
:10399F00069004E9E475F001120CABFED39004EE2F
:1039AF00E095F09004EDE09E500EC28E9004E9E495
:1039BF00F0A3F09004E704F0D006D000D0D0D0826E
:0739CF00D083D0F0D0E032FC
:03009B00023947E0
:10394700C0E0C0F0C083C082C0D075D000C000C046
:10395700069004EBE475F001120CABFED39004F271
:10396700E095F09004F1E09E500F53D1F79004EBEF
:10397700E4F0A3F09004E804F0D006D000D0D0D053
:0839870082D083D0F0D0E032C1
:0300A300023255D1
:10325500C0E0C0F0C083C082C0D075D000C000C03F
:1032650006C2AF9004E3E475F00A120CABFEC3E5A9
:10327500F094E8EE940340519004E3E4F0A3F09059
:1032850004E175F001120CABFEC3E5F094E8EE9491
:103295000340369004E1E4F0A3F09004F5E004F077
:1032A500943C4025E4F09004E0E004F0943C40199F
:1032B500E4F09004E6E004F09418400DE4F0900486
:1032C500E5E004F0B4FF02E4F0D2AFD006D000D0C0
:0A32D500D0D082D083D0F0D0E032D8
:061C4A007B017A05791D03
:101C5000AD07EDD3940440037F0122ED7073120BA6
:101C6000CAFED3940340037F0222C28CC2A9C2B928
:101C70005389F0538E7F538FFE900002120BE3B412
:101C80000102D2A9900001120BE3B40102D2B9EE15
:101C90004289900003120BE3FF7003438E80EFB480
:101CA0000203438904900004120BE3B40103438F41
:101CB00001900005120CD7E5F0F58C900005120C90
:101CC000D7F58A900007120BE3B40102D28C7F0093
:101CD00022ED64017076120BCAFEC3940340037FA9
:101CE0000222C28EC2ABC2BB53890F538EBF538F29
:101CF000FD900002120BE3B40102D2AB900001127E
:101D00000BE3B40102D2BBEEC454F042899000034D
:101D1000120BE3FF7003438E40EFB402034389408C
:101D2000900004120BE3B40103438F0290000512EC
:101D30000CD7E5F0F58D900005120CD7F58B9000CF
:101D400007120BE3B40102D28E7F0022ED64027011
:101D500063900003120BE3FED3940240037F022240
:101D6000538EE353AFFB538FFB900002120BE3B48F
:101D7000010343AF04EE7003438E04900003120B83
:101D8000E3B40203438E08900004120BE3B4010392
:101D9000438F04900005120CD7E5F0F5D6900005AE
:101DA000120CD7F5D7900007120BE3B40103438E52
:101DB000107F0022ED64037060900003120BE3FEBD
:101DC000D3940240037F022253D1F053AFDF90003F
:101DD00002120BE3B4010343AF20EE700343D102C0
:101DE000900003120BE3B4020343D10690000412E7
:101DF0000BE3B4010343D101900005120CD7E5F0C9
:101E0000F5D4900005120CD7F5D5900007120BE31E
:101E1000B4010343D1087F0022ED6404705C90009C
:101E200003120BE3FED3940240037F022253D10F2F
:101E300053AFBF900002120BE3B4010343AF40EE77
:101E4000700343D120900003120BE3B4020343D18B
:101E500060900004120BE3B4010343D1109000051D
:101E6000120CD7FDACF0ECF5D28DD3900007120B1D
:0D1E7000E3B4010343D1807F00227F0222F2
:100F01009002ACEBF0A3EAF0A3E9F09002ABEFF0B2
:100F11006401600302111390000004F0E4A3F0A344
:100F2100F0A3F0A3F0A3F0A3F09002AFF09002AF12
:100F3100E0FFC39480501474382FF582E43401F536
:100F410083E4F09002AFE004F080E2E49002AFF0BD
:100F51009002AFE0FFC394805014741C2FF582E41B
:100F61003400F583E4F09002AFE004F080E29002F7
:100F7100ACE0FBA3E0FAA3E0F9120BCAD394C040A2
:100F8100037F022290000A120BE3B40104D2BC8059
:100F910002C2BC120BCAFFE598543F4FF598EF64AB
:100FA100C06008EF6440600302108D900002120ED1
:100FB1005E7F807E8D7D5B7C00120D9A9002B01267
:100FC1000E8EE4FFFE7D01FC9002B0E0F8A3E0F993
:100FD100A3E0FAA3E0FBC3120E3A40037F02229082
:100FE10002B0E0F8A3E0F9A3E0FAA3E0FBC3E49BBD
:100FF100FFE49AFE740199FDE498FC9002B0120E90
:101001008E9002ACE0FBA3E0FAA3E0F9900001129C
:101011000BE3FB64017038C28E538EFE5389BF53BC
:1010210089CF438E409002B0E0FCA3E0FDA3E0FE37
:10103100A3E0FF7808120E4B8F8D9002B0A3A3A3FB
:10104100E0F58BC2AB5389BF538FFDD28E8076EB17
:1010510064027035538EEF438E01538EF7438E0435
:101061009002B0E0FCA3E0FDA3E0FEA3E0FF78085E
:10107100120E4B8FD69002B0A3A3A3E0F5D753AFC6
:10108100FB538EF7438E10803C7F02229002ACE02E
:10109100FBA3E0FAA3E0F9120BCAFF70139000085A
:1010A100120BE3B40105438E20801A538EDF8015A5
:1010B100EFB48011900008120BE3B401054387805F
:1010C100800353877F9002ACE0FBA3E0FAA3E0F931
:1010D100900009120BE3B40104D2AC8002C2AC90BF
:1010E1000007120BE3B40104D29C8002C29C900061
:1010F1000B120BE354C0FFE5A2543F4FF5A2900041
:101101000C120BE3B4010543971080035397EF7F53
:1011110000229002ABE064026003021275900007A6
:101121007402F0E4A3F0A3F0A3F0A3F0A3F0A3F002
:101131009002AFF09002AFE0FFC39480501474D4DA
:101141002FF582E43401F583E4F09002AFE004F07E
:1011510080E2E49002AFF09002AFE0FFC3948050D0
:1011610014749C2FF582E43400F583E4F09002AF0F
:10117100E004F080E29002ACE0FBA3E0FAA3E0F926
:10118100120BCAFF64C06008EF64406003021235AD
:1011910090000A120BE3B4010543B501800353B576
:1011A100FE120BCAB4C005439A808003539A7F9004
:1011B1000002120E5E7F807E8D7D5B7C00120D9A97
:1011C1009002B0120E8EE4FFFE7D01FC9002B0E0B1
:1011D100F8A3E0F9A3E0FAA3E0FBC3120E3A40033F
:1011E1007F02229002B0E0F8A3E0F9A3E0FAA3E0C5
:1011F100FBC3E49BFFE49AFE740199FDE498FC9023
:1012010002B0120E8E538EEF538EF7438E0490026E
:10121100B0E0FCA3E0FDA3E0FEA3E0FF7808120E1E
:101221004B8FD69002B0A3A3A3E0F5D753AFFB43F6
:101231008E1080037F02229002ACE0FBA3E0FAA3B0
:10124100E0F9900009120BE3B4010543AF018003FB
:1012510053AFFE900007120BE3B40105439A1080CF
:1012610003539AEF90000B120BE35401FFE5BA54BC
:10127100FE4FF5BA9002ABE06403600302142890BC
:10128100000E7402F0E4A3F0A3F0A3F0A3F0A3F026
:10129100A3F09002AFF09002AFE0FFC3941C501492
:1012A10074542FF582E43402F583E4F09002AFE048
:1012B10004F080E2E49002AFF09002AFE0FFC3944B
:1012C1001C5014741C2FF582E43401F583E4F09072
:1012D10002AFE004F080E29002ACE0FBA3E0FAA3ED
:1012E100E0F9120BCAFF64C06008EF6440600302BA
:1012F10013E853ACDFEFB4C00543AC80800353ACBB
:101301007F9002ACE0FBA3E0FAA3E0F990000212A7
:101311000E5E7F807E8D7D5B7C00120D9A9002B007
:10132100120E8EE4FFFE7D01FC9002B0E0F8A3E016
:10133100F9A3E0FAA3E0FBC3120E3A40037F0222B5
:101341009002B0E0F8A3E0F9A3E0FAA3E0FBC3E464
:101351009BFFE49AFE740199FDE498FC9002B0129F
:101361000E8E9002ACE0FBA3E0FAA3E0F99000013D
:10137100120BE3FB6402703253ACBF538EEF538EFA
:10138100F7438E049002B0E0FCA3E0FDA3E0FEA3CE
:10139100E0FF7808120E4B8FD69002B0A3A3A3E012
:1013A100F5D753AFFB438E108040EB64017035439A
:1013B100AC4053D1F053AFDF43D10253D1FB53D1F2
:1013C100FE9002B0E0FCA3E0FDA3E0FEA3E0FF7805
:1013D10008120E4B8FD49002B0A3A3A3E0F5D5431E
:1013E100D10880067F02227F02229002ACE0FBA39B
:1013F100E0FAA3E0F9900009120BE3B4010543AF51
:1014010008800353AFF7900007120BE3B4010543C3
:10141100AC10800353ACEF90000B120BE35402FFAE
:10142100E5BA54FD0215D89002ABE06404600302F2
:1014310015DE9000157402F0E4A3F0A3F0A3F0A36D
:10144100F0A3F0A3F09002AFF09002AFE0FFC394DD
:101451001C501474702FF582E43402F583E4F0908B
:1014610002AFE004F080E2E49002AFF09002AFE05E
:10147100FFC3941C501474B82FF582E43401F58332
:10148100E4F09002AFE004F080E29002ACE0FBA354
:10149100E0FAA3E0F9120BCAFF64C06008EF6440F0
:1014A100600302159B5384DFEFB4C0054384808041
:1014B1000353847F9002ACE0FBA3E0FAA3E0F99030
:1014C1000002120E5E7F807E8D7D5B7C00120D9A84
:1014D1009002B0120E8EE4FFFE7D01FC9002B0E09E
:1014E100F8A3E0F9A3E0FAA3E0FBC3120E3A40032C
:1014F1007F02229002B0E0F8A3E0F9A3E0FAA3E0B2
:10150100FBC3E49BFFE49AFE740199FDE498FC900F
:1015110002B0120E8E9002ACE0FBA3E0FAA3E0F958
:10152100900001120BE3FB640270325384BF538EAF
:10153100EF538EF7438E049002B0E0FCA3E0FDA3CD
:10154100E0FEA3E0FF7808120E4B8FD69002B0A305
:10155100A3A3E0F5D753AFFB438E108040EB6402A9
:10156100703543844053D10F53AFBF43D12053D182
:10157100BF53D1EF9002B0E0FCA3E0FDA3E0FEA3D6
:10158100E0FF7808120E4B8FD29002B0A3A3A3E024
:10159100F5D343D18080067F02227F02229002ACE4
:1015A100E0FBA3E0FAA3E0F9900009120BE3B40118
:1015B1000543AF10800353AFEF900007120BE3B464
:1015C100010543841080035384EF90000B120BE359
:0F15D1005404FFE5BA54FB4FF5BA7F00227F03A5
:0115E00022E8
:103C5000900002E02438F582E43401F583EFF0901F
:103C60000002E004F0C394804002E4F0900003E01E
:073C7000700404F0D2992258
:103BD800900009E024D4F582E43401F583EFF090F5
:103BE8000009E004F0C394804002E4F090000AE089
:083BF800700504F0439A02225B
:103C0000900010E02454F582E43402F583EFF09044
:103C10000010E004F0C3941C4002E4F0900011E0B6
:083C2000700504F043AC022220
:103C2800900017E02470F582E43402F583EFF090F9
:103C38000017E004F0C3941C4002E4F0900018E080
:083C4800700504F04384022220
:10426B00C2AF120BCAFF600C123C50740129F9E467
:07427B003AFA80EED2AF22F7
:10429600120BCAFF600C123BD8740129F9E43AFAF2
:0342A60080EE2285
:1042A900120BCAFF600C123C00740129F9E43AFAB6
:0342B90080EE2272
:1042BC00120BCAFF600C123C28740129F9E43AFA7B
:0342CC0080EE225F
:030023000235792A
:10357900C0E0C083C082C0D075D000C006C007308B
:10358900982DC298900006E07025900004E0C3943D
:10359900804002E4F0900004E0FF04F0741C2FF571
:1035A90082E43400F583E599F09000057405F03064
:1035B9009930C299900002E0FF900001E0FE6F602F
:1035C9001C74382EF582E43401F583E0F5999000F6
:1035D90001E004F0C394804009E4F0800590000301
:0F35E900E4F0D007D006D0D0D082D083D0E0322B
:030043000233681D
:10336800C0E0C083C082C0D075D000C006C007E5E9
:103378009A30E02E539AFE90000DE0702590000BD5
:10338800E0C394804002E4F090000BE0FF04F07486
:103398009C2FF582E43400F583E59BF090000C74D3
:1033A80005F0E59A30E131539AFD900009E0FF906D
:1033B8000008E0FE6F601C74D42EF582E43401F539
:1033C80083E0F59B900008E004F0C394804009E492
:1033D800F0800590000AE4F0D007D006D0D0D08263
:0533E800D083D0E032AB
:03008B000233ED50
:1033ED00C0E0C083C082C0D075D000C006C007E564
:1033FD00AC30E02E53ACFE900014E070259000121E
:10340D00E0C3941C4002E4F0900012E0FF04F0745D
:10341D001C2FF582E43401F583E5ADF090001374B3
:10342D0005F0E5AC30E13153ACFD900010E0FF90BC
:10343D00000FE0FE6F601C74542EF582E43402F52B
:10344D0083E0F5AD90000FE004F0C3941C4009E457
:10345D00F08005900011E4F0D007D006D0D0D082D6
:05346D00D083D0E03225
:03009300023472C2
:10347200C0E0C083C082C0D075D000C006C007E5DE
:103482008430E02E5384FE90001BE07025900019DA
:10349200E0C3941C4002E4F0900019E0FF04F074D1
:1034A200B82FF582E43401F583E585F090001A74B3
:1034B20005F0E58430E1315384FD900017E0FF9080
:1034C2000016E0FE6F601C74542EF582E43402F59F
:1034D20083E0F585900016E004F0C3941C4009E4F3
:1034E200F08005900018E4F0D007D006D0D0D0824A
:0534F200D083D0E032A0
:0E43B800E4F5C7F5C5F5C675C3FF75C4FF2251
:103A1A00AD07AC06C2AF75C78075C501ECF5C3AF7B
:103A2A00058FC475C65A75C6A500E5C2120C100DDD
:103A3A00BD00010C740129F9E43AFA90057974FF82
:0F3A4A00F5F0120CAB45F070D31243B8D2AF2297
:103E9300AD07AC06C2AFECF5C3AF058FC475C780E1
:103EA30075C50375C65A75C6A5001243B8D2AF22AD
:103A5900AD07AC06C2AF75C78075C502ECF5C3AF3B
:103A6900058FC4120BCAF5C275C65A75C6A5000DD5
:103A7900BD00010C740129F9E43AFA90058074FF3C
:0F3A8900F5F0120CAB45F070D31243B8D2AF2258
:101AD900EFD3940940037FFF2274232F2FF8E620C8
:101AE900E5F4C2AFE64430F6D2AFAE0CEEC39F5078
:101AF900210E740E2EF8E6F908E618BE090274FFE5
:101B0900FDED69600909E71919F7090980F3161646
:101B190080DAEED39F400405810581EED39F4022F0
:101B2900740E2EF808E6F9EEB50C02A9811806061E
:101B3900E6FDED6960091919E70909F71980F31E2E
:101B490080D9EF240EF8E604F8EF2F04904282932F
:091B5900F608EF2F93F67F00223D
:101B6200EFD3940940037FFF22EF232423F8E630CA
:101B7200E5F4C2AFE6548CF6D2AFE50CB5070A74B1
:101B82000E2FF8E6F5810219E2502E740F2FF8E6B7
:101B9200BF090274FFFD18E6F9740E2FF8FBE6FC8C
:101BA200E96C6008A805E7F61D1980F4A803A605EC
:101BB2001FE50CB507E37F0022740F2FF8E6FD182E
:101BC20086010F740E2FF8A601088604E50CB507EE
:101BD20002AC81ED6C60080D09A805E6F780F4E51A
:091BE2000CB507DE89817F0022A9
:101BEB008FF0E4FFFEE50C232422F8C2A930F70D99
:101BFB007F08E6600B2DF660325030800730F1061F
:101C0B00EDF660277E020830F010C2AFE610E72534
:101C1B000E30E20CD2AF7F048014C2AFE610E71592
:101C2B0054EC4EF6D2AFD2A90219E27F0808EF446A
:0F1C3B0083F4C2AF56C6D2AFD2A954804FFF2256
:10080000020BB5E86480F8E933E83360110460F066
:10081000ED33EC337009E8FCE9FDEAFEEBFF22045E
:1008200060DED3EB9FEA9EE99DE8C2E78CF0C2F759
:1008300095F0400CE8CCF8E9CDF9EACEFAEBCFFB25
:10084000120B8085D0F05804700320D5B3E80470F3
:10085000075002B2D5020BBF92D5EC0460F7E4CC8E
:10086000C0E0C398F8603B94186008400DD0E0FBEE
:10087000020B97E4FBFAC9FC8028E830E406E4C9DF
:10088000FBE4CAFCE830E305E4C9CACBFCE8540742
:100890006010F8C3E913F9EA13FAEB13FBEC13FC4D
:1008A000D8F130F52FC3E49CFCEF9BFFEE9AFEEDF0
:1008B00099FDD0E0FBEF4E4D4C701222DB03020B92
:1008C000BCEC2CFCEF33FFEE33FEED33FDED30E7F7
:1008D000EB020B97EF2BFFEE3AFEED39FDD0E0FB7C
:1008E00050130BBB0003020BBFED13FDEE13FEEF25
:0808F00013FFEC13FC020B974F
:1008F800EC4D6011E8497017ED33EC3304600DE4FA
:10090800FCFFFEFD22E933E8330470F8020BB51250
:100918000B8058046009E4CC248150062850090251
:100928000BBF284003020BBCC0E0EB4A7044B980FF
:1009380006D0E0FB020BABEF4E701CBD8008EBFF4E
:10094800EAFEE9FD80EBE98DF0A4FEE5F00209E19D
:10095800E9CDF9EAFEEBFFEF89F0A4FCE5F0CE89DA
:10096800F0A42EFFE435F0CD89F0A42DFEE435F097
:100978008067EF4E7005BD80D780C3EF8BF0A4ACC5
:10098800F0EE8BF0A42CFCE435F0F8EF8AF0A42C00
:10099800E5F038FCE433CB8DF0A42CFCE5F03BF813
:1009A800EE8AF0A42CFCE5F038F8E433CF89F0A403
:1009B8002CFCE5F038CF3400CE89F0A42FFFE5F009
:1009C8003EFEE433C98DF0A42EFEE5F039CD8AF061
:1009D800A42FFFE5F03EFEE43DFD33D0E0FB5007D9
:1009E8000BBB000F020BBFEC2CFCEF33FFEE33FE0A
:0609F800ED33FD020B9738
:1009FE00020BBFEC5D046005E859047003020BB5F1
:100A0E00120B80580460F6EC4860F2EC7004FDFEA8
:100A1E00FF22C860DB2481C85009C39860025006CB
:100A2E00020BBC9850CAF582E9294B4A7005AB827D
:100A3E00020BAB75F0007C1A7880C3EF9BEE9AED3B
:100A4E0099400DC3EF9BFFEE9AFEED99FDE842F043
:100A5E00DC23ACF0D0E0FFD0E0FED0E0FDAB822096
:100A6E00E7101BEB60BAEC2CFCEF33FFEE33FEED20
:100A7E0033FD020B97E803F830E705C0F075F00080
:100A8E00EF2FFFEE33FEED33FD40B830E7C280AA04
:100A9E0074F8CC6480CCC86480C8F582046043C30B
:100AAE00EB9FF5F0EA9E42F0E99D42F0E89C45F09E
:100ABE0060305018E5825FFFE582F42B5582FB50C3
:100ACE00210ABA001D09B90019088016E5825BFBE0
:100ADE00E582F42F5582FF50090EBE00050DBD00B4
:100AEE00010CC3EB9FF5F0EA9E42F0E99D42F0E85F
:0D0AFE009C45F06007CC4820E701B3EC22D6
:100B0B0075F020800E75F010800575F0087D007E65
:100B1B00007F003392D530D503120E2CEC334010EE
:100B2B00EF33FFEE33FEED33FDEC33FCD5F0ED226E
:0E0B3B00E5F0247EA2D513CC92E7CDCEFF22AA
:100B4900EDD2E7CD33EC3392D524814006E4FFFEA4
:100B5900FDFC22FCE4CFCECDCC24E0501174FF8003
:100B6900EDC3CC13CCCD13CDCE13CECF13CF0470A0
:070B7900F030D5DE020E2C66
:100B8000E9D2E7C933E833F892D5EDD2E7CD33ECBB
:070B900033FC5002B2D52234
:100B9700EC30E7100FBF000C0EBE00080DBD0004BF
:100BA7000BEB6014A2D5EB13FCED92E7FD2274FF6B
:100BB700FCFDFEFF22E480F8A2D574FF13FC7D80C4
:030BC700E480EFD8
:030000000231C901
:0C31C900787FE4F6D8FD758135023210E5
:100BCA00BB010689828A83E0225002E722BBFE0229
:090BDA00E32289828A83E493225C
:100BE300BB010CE58229F582E5833AF583E02250C7
:100BF30006E92582F8E622BBFE06E92582F8E22211
:0D0C0300E58229F582E5833AF583E493222A
:100C1000BB010689828A83F0225002F722BBFE01C3
:020C2000F322BD
:100C2200F8BB010DE58229F582E5833AF583E8F008
:100C3200225006E92582C8F622BBFE05E92582C8B4
:020C4200F2229C
:100C4400EF8DF0A4A8F0CF8CF0A428CE8DF0A42EC4
:020C5400FE227E
:100C5600BC000BBE0029EF8DF084FFADF022E4CC82
:100C6600F875F008EF2FFFEE33FEEC33FCEE9DEC4B
:100C7600984005FCEE9DFE0FD5F0E9E4CEFD22ED91
:100C8600F8F5F0EE8420D21CFEADF075F008EF2FDB
:100C9600FFED33FD4007985006D5F0F222C398FDCC
:050CA6000FD5F0EA2269
:100CAB00C5F0F8A3E028F0C5F0F8E58215827002D4
:060CBB001583E038F02271
:100CC100A3F8E0C5F025F0F0E582158270021583E6
:060CD100E0C838F0E82243
:100CD700BB0110E58229F582E5833AF583E0F5F05B
:100CE700A3E0225009E92582F886F008E622BBFE38
:100CF7000AE92582F8E2F5F008E222E5832AF5837E
:080D0700E993F5F0A3E9932242
:100D0F00E88FF0A4CC8BF0A42CFCE98EF0A42CFC83
:100D1F008AF0EDA42CFCEA8EF0A4CDA8F08BF0A401
:100D2F002DCC3825F0FDE98FF0A42CCD35F0FCEB60
:100D3F008EF0A4FEA9F0EB8FF0A4CFC5F02ECD3925
:0F0D4F00FEE43CFCEAA42DCE35F0FDE43CFC2292
:100D5E0075F008758200EF2FFFEE33FECD33CDCC4C
:100D6E0033CCC58233C5829BED9AEC99E5829840CF
:100D7E000CF582EE9BFEED9AFDEC99FC0FD5F0D6AC
:100D8E00E4CEFBE4CDFAE4CCF9A88222B800C1B9D6
:100D9E000059BA002DEC8BF084CFCECDFCE5F0CB14
:100DAE00F97818EF2FFFEE33FEED33FDEC33FCEB4D
:100DBE0033FB10D703994004EB99FB0FD8E5E4F908
:100DCE00FA227818EF2FFFEE33FEED33FDEC33FCF5
:100DDE00C933C910D7059BE99A4007EC9BFCE99AE9
:100DEE00F90FD8E0E4C9FAE4CCFB2275F010EF2F2E
:100DFE00FFEE33FEED33FDCC33CCC833C810D7072E
:100E0E009BEC9AE899400AED9BFDEC9AFCE899F868
:0E0E1E000FD5F0DAE4CDFBE4CCFAE4C8F922FB
:1039D600C2D5E830E70FB2D5E4C39BFBE49AFAE41C
:1039E60099F9E498F8EC30E717B2D5123A0C120DB3
:1039F6009AE4C39BFBE49AFAE499F9E498F8800305
:103A0600120D9A30D50DE4C39FFFE49EFEE49DFDA2
:043A1600E49CFC220E
:0E0E2C00C3E49FFFE49EFEE49DFDE49CFC22D7
:100E3A00EB9FF5F0EA9E42F0E99D42F0E89C45F00E
:010E4A002285
:100E4B00E8600FECC313FCED13FDEE13FEEF13FF85
:030E5B00D8F122A9
:100E5E00BB010DE58229F582E5833AF583020ED8B2
:100E6E005007E92582F8020ECBBBFE07E92582F872
:100E7E00020EE4E58229F582E5833AF583020EF14E
:0C0E8E00ECF0A3EDF0A3EEF0A3EFF022D7
:100E9A00A8828583F0D083D082120EB1120EB112CD
:100EAA000EB1120EB1E473E493A3C583C5F0C583F2
:100EBA00C8C582C8F0A3C583C5F0C583C8C582C8A2
:010ECA002205
:1031D500021A9CE493A3F8E493A34003F68001F25A
:1031E50008DFF48029E493A3F85407240CC8C333FB
:1031F500C4540F4420C8834004F456800146F6DFCA
:10320500E4800B01020408102040809034F7E47E2E
:10321500019360BCA3FF543F30E509541FFEE493BE
:10322500A360010ECF54C025E060A840B8E493A385
:10323500FAE493A3F8E493A3C8C582C8CAC583CAB0
:10324500F0A3C8C582C8CAC583CADFE9DEE780BE68
:013578000052
:0D0ECB00E6FB08E6F908E6FA08E6CBF82297
:0C0ED800E0F8A3E0F9A3E0FAA3E0FB229D
:0D0EE400E2FB08E2F908E2FA08E2CBF8228E
:100EF100E493F8740193F9740293FA740393FB2257
:00000001FF
