:0272A900705B18
:0272AB00624D32
:0272AD005E1E63
:0272AF0068E98C
:10705B001265BD7F041269A07F03123231E4FF0277
:02706B0032BA37
:10624D00E4FDFF1266239003B67401F012499D7DA3
:10625D0001E4FF1266239003B67402F012499D7D8E
:10626D0002E4FF1266239003B67403F012499D7F7A
:10627D0003126655E4FBFA7D1E7F0212334380C084
:105E1E00E4FDFF126623120B49AB07AA0690037A24
:105E2E007404F0E4FDFF1264377D01E4FF12662373
:105E3E00120B49AB07AA0690037A7404F07D01E4B5
:105E4E00FF1264377D02E4FF126623120B49AB0783
:105E5E00AA0690037A7404F07D02E4FF126437E41C
:0B5E6E00FBFA7D1E7F0212334380A56B
:1068E90012718DAC06AD07E4120B109003B674015A
:1068F900F012499D7F01126655E4FBFA7D1E7F0265
:0569090012334380DBA6
:106AEB00535443313577346B353873342773205512
:106AFB0041525431206973206F70656E200D0A006E
:106588009003337440F0A37401F0A312116C9003CC
:106598003A7401F0E4A3F0A304F0A3F0E4A3F0A399
:1065A800F07B017A0379337F011212377BFF7A6A15
:0565B80079EB026F68A1
:0172F4002277
:1065BD007F807E257D007C00126588125D5F1267ED
:1065CD003912620A126FC0E4FF1263FCE4FF12700D
:1065DD0091E4FF1270A3E4FD7F01126D0D126E9B0D
:0365ED000272F443
:0172F5002276
:0172F6002275
:0172F7002274
:0172F8002273
:0172F9002272
:054867009005F8EDF0E2
:10486C00E49005FFF0A3F09005FBE0FFA3E09006B9
:10487C0001CFF0A3EFF09005F9E0FFA3E090060361
:10488C00CFF0A3EFF0E49005FDF0A3F09005F8E075
:10489C00FF9005FDE0FCA3E0FDC39F7480F8EC6481
:1048AC0080984003024961ED25E0FFEC338F82F5DF
:1048BC0083120FB5FFC3900602E09F900601E095AE
:1048CC00F0501D9005FEE025E0FF9005FDE0338FD4
:1048DC0082F583120FB5FF900601E5F0F0A3EFF01F
:1048EC009005FEE025E0FF9005FDE0338F82F58317
:1048FC00120FB5FFD3900604E09F900603E095F0ED
:10490C00401D9005FEE025E0FF9005FDE0338F8211
:10491C00F583120FB5FF900603E5F0F0A3EFF090CE
:10492C0005FEE025E0FF9005FDE0338F82F5831254
:10493C000FB5FFAEF0900600E02FF09005FFE03EC3
:10494C00F09005FEE004F060030248989005FDE04D
:10495C0004F0024898900603E0FEA3E0FF900602E4
:10496C00E02FFF900601E03EFEC3900600E09FFFA3
:10497C009005FFE09EFEF0A3EFF09005F8E024FE1A
:10498C00FDE434FFFC120EFE9005FFEEF0A3EFF0F9
:01499C0022F8
:064357009004FB12116C42
:10435D00900503E0FCA3E0FDA3E0FEA3E0FF9005C4
:10436D000B12116C9004FFE0FCA3E0FDA3E0FEA393
:10437D00E0FF90050F12116C900653E0FCA3E0FDD9
:10438D00A3E0FEA3E0FF90051312116C900653E01D
:10439D00FCA3E0FDA3E0FEA3E0FF90051312116C5A
:1043AD0090050FE0FCA3E0FDA3E0FEA3E0FF900667
:1043BD0057E0F8A3E0F9A3E0FAA3E0FB1208079099
:1043CD00051B12116C90050BE0FCA3E0FDA3E0FEB4
:1043DD00A3E0FF90051BE0F8A3E0F9A3E0FAA3E04A
:1043ED00FB120807A804A905AA06AB0790051BE058
:1043FD00FCA3E0FDA3E0FEA3E0FF120A0190051F60
:10440D0012116C900513E0F8A3E0F9A3E0FAA3E014
:10441D00FB9004FBE0FCA3E0FDA3E0FEA3E0FF1294
:10442D00080390051FE0F8A3E0F9A3E0FAA3E0FB71
:10443D001208F8900513E0F8A3E0F9A3E0FAA3E061
:10444D00FB12080790051712116C90051FE0F8A3D9
:10445D00E0F9A3E0FAA3E0FBE4FFFE7D807C3F12D0
:10446D00080390051BE0F8A3E0F9A3E0FAA3E0FB35
:10447D001208F890065712116C900517E0FCA3E096
:10448D00FDA3E0FEA3E0FF90065312116C900517FB
:0B449D00E0FCA3E0FDA3E0FEA3E0FFB5
:0144A80022F1
:1044A900AB07EB75F041A424D1F582E43403F5831D
:1044B90012117800000000EB75F041A424D5F582B3
:1044C900E43403F58312117800000000EB75F04124
:1044D900A424D9F582E43403F5831211780000008D
:1044E90000EB75F041A424EDF582E43403F5831261
:1044F900117800000000EB75F041A424E9F582E48D
:104509003403F58312117800000000900633E0FCB3
:10451900A3E0FDA3E0FEA3E0FFEB75F041A424DDD9
:10452900F582E43403F58312116C900637E0FCA39D
:10453900E0FDA3E0FEA3E0FFEB75F041A424E1F563
:1045490082E43403F58312116C90063BE0FCA3E08E
:10455900FDA3E0FEA3E0FFEB75F041A424E5F5829D
:10456900E43403F58312116CEB75F041A424DDF5F5
:1045790082E43403F583E0FCA3E0FDA3E0FEA3E0BD
:10458900FFEB75F041A424F5F582E43403F58312B9
:10459900116CEB75F041A424E1F582E43403F58351
:1045A900E0FCA3E0FDA3E0FEA3E0FFEB75F041A46E
:1045B90024F1F582E43403F58312116CEB75F041B3
:1045C900A424E5F582E43403F583E0FCA3E0FDA32C
:1045D900E0FEA3E0FFEB75F041A424F9F582E43491
:0645E90003F58302116CD2
:10706D00EF75F041A42409F582E43404F58374012D
:02707D00F022FF
:1070C700EF75F041A42409F582E43404F583E4F074
:0170D7002296
:103AA400900707EFF075F041A42409F582E434048B
:103AB400F583E07003023C7E900707E0FF75F04158
:103AC400A424CDF582E43403F583E0F8A3E0F9A35C
:103AD400E0FAA3E0FBEF75F041A424C9F582E434D5
:103AE40003F583E0FCA3E0FDA3E0FEA3E0FF1208DE
:103AF40003900707E0FB75F041A424D1F582E43478
:103B040003F58312116CEB75F041A424E9F582E40A
:103B14003403F583C083C082E0FCA3E0FDA3E0FE90
:103B2400A3E0FF900707E075F041A424D1F582E4F7
:103B34003403F583E0F8A3E0F9A3E0FAA3E0FB1271
:103B44000807D082D08312116C900707E0FF75F04C
:103B540041A424E9F582E43403F583E0F8A3E0F911
:103B6400A3E0FAA3E0FBEF75F041A424E1F582E4BD
:103B74003403F583E0FCA3E0FDA3E0FEA3E0FF1221
:103B840008F8C004C005C006C007900707E0FF7529
:103B9400F041A424D1F582E43403F583E0F8A3E0F2
:103BA400F9A3E0FAA3E0FBEF75F041A424DDF5826C
:103BB400E43403F583E0FCA3E0FDA3E0FEA3E0FF0F
:103BC4001208F8D003D002D001D000120807C004B4
:103BD400C005C006C007900707E0FF75F041A424A4
:103BE400D5F582E43403F583E0F8A3E0F9A3E0FA21
:103BF400A3E0FBEF75F041A424D1F582E43403F58E
:103C040083E0FCA3E0FDA3E0FEA3E0FF1208039021
:103C14000707E075F041A424E5F582E43403F58355
:103C2400E0F8A3E0F9A3E0FAA3E0FB1208F8D0035C
:103C3400D002D001D000120807900707E0FB75F00E
:103C440041A424EDF582E43403F58312116CEB7581
:103C5400F041A424D1F582E43403F583E0FCA3E02D
:103C6400FDA3E0FEA3E0FFEB75F041A424D5F582AB
:0C3C7400E43403F58312116CD322C32248
:05385E009006DFEFF011
:10386300E0FF75F041A424CDF582E43403F583E051
:10387300F8A3E0F9A3E0FAA3E0FBEF75F041A42479
:10388300C9F582E43403F583E0FCA3E0FDA3E0FE85
:10389300A3E0FF1208039006DFE0FB75F041A424C8
:1038A300D1F582E43403F58312116CEB75F041A476
:1038B3002409F582E43404F583E07003023AA2EBB1
:1038C30075F041A42405F582E43404F583E0FCA3F8
:1038D300E0FDA3E0FEA3E0FFEB75F041A424D1F5E6
:1038E30082E43403F583E0F8A3E0F9A3E0FAA3E06C
:1038F300FB120A9E600B4009E49006E0F0A3F080FF
:103903004E9006E0E4F0A304F09006DFE075F0418A
:10391300A424E9F582E43403F583C083C082E0FC88
:10392300A3E0FDA3E0FEA3E0FF9006DFE075F04116
:10393300A424D1F582E43403F583E0F8A3E0F9A3EA
:10394300E0FAA3E0FB120807D082D08312116C9037
:1039530006DFE0FF75F041A424E9F582E43403F5C2
:1039630083E0F8A3E0F9A3E0FAA3E0FBEF75F041ED
:10397300A424E1F582E43403F583E0FCA3E0FDA392
:10398300E0FEA3E0FF1208F8C004C005C006C007AC
:103993009006E0E0FCA3E0FDE4120B10D003D0029C
:1039A300D001D0001208F8C004C005C006C00790BB
:1039B30006DFE0FF75F041A424D1F582E43403F57A
:1039C30083E0F8A3E0F9A3E0FAA3E0FBEF75F0418D
:1039D300A424DDF582E43403F583E0FCA3E0FDA336
:1039E300E0FEA3E0FF1208F8D003D002D001D0001C
:1039F300120807C004C005C006C0079006DFE0FF39
:103A030075F041A424D5F582E43403F583E0F8A3EB
:103A1300E0F9A3E0FAA3E0FBEF75F041A424D1F5AC
:103A230082E43403F583E0FCA3E0FDA3E0FEA3E01E
:103A3300FF1208039006DFE075F041A424E5F58248
:103A4300E43403F583E0F8A3E0F9A3E0FAA3E0FB91
:103A53001208F8D003D002D001D000120807900654
:103A6300DFE0FB75F041A424EDF582E43403F58334
:103A730012116CEB75F041A424D1F582E43403F503
:103A830083E0FCA3E0FDA3E0FEA3E0FFEB75F041C0
:103A9300A424D5F582E43403F58312116CD322C335
:013AA3002200
:052615009006E2EFF069
:10261A00E0FF75F041A424CDF582E43403F583E0AC
:10262A00F8A3E0F9A3E0FAA3E0FBEF75F041A424D4
:10263A00C9F582E43403F583E0FCA3E0FDA3E0FEE0
:10264A00A3E0FF1208039006E2E0FB75F041A42420
:10265A00D1F582E43403F58312116CEB75F041A4D1
:10266A002409F582E43404F583E070030229EBEBD4
:10267A0075F041A424FDF582E43403F583E0FCA35C
:10268A00E0FDA3E0FEA3E0FFEB75F041A424CDF545
:10269A0082E43403F583E0F8A3E0F9A3E0FAA3E0C7
:1026AA00FB120A9E600250030227399006E2E07587
:1026BA00F041A424D1F582E43403F583E0FCA3E0DD
:1026CA00FDA3E0FEA3E0FF120B49127207AC06ADB0
:1026DA0007EC120B109006E2E075F041A42405F510
:1026EA0082E43404F583E0F8A3E0F9A3E0FAA3E076
:1026FA00FB120A9E50030228449006E3E4F0A30466
:10270A00F09006E2E075F041A424D1F582E43403A6
:10271A00F583E0FCA3E0FDA3E0FEA3E0FFE4FBFAFF
:10272A00F9F8120A9E6002500302289B022855906B
:10273A0006E2E0FF75F041A424FDF582E43403F5D6
:10274A0083E0F8A3E0F9A3E0FAA3E0FBEF75F04118
:10275A00A424CDF582E43403F583E0FCA3E0FDA3D1
:10276A00E0FEA3E0FF120A9E600250030227F990DE
:10277A0006E2E075F041A424D1F582E43403F5833E
:10278A00E0FCA3E0FDA3E0FEA3E0FF120B491272F6
:10279A0007AC06AD07EC120B109006E2E075F041AB
:1027AA00A42405F582E43404F583E0F8A3E0F9A350
:1027BA00E0FAA3E0FB120A9E5002807E9006E3E450
:1027CA00F0A304F09006E2E075F041A424D1F5826A
:1027DA00E43403F583E0FCA3E0FDA3E0FEA3E0FFFD
:1027EA00E4FBFAF9F8120A9E400302289B805C90E7
:1027FA0006E2E075F041A424D1F582E43403F583BE
:10280A00E0FCA3E0FDA3E0FEA3E0FF120B49127275
:10281A0007AC06AD07EC120B109006E2E075F0412A
:10282A00A42405F582E43404F583E0F8A3E0F9A3CF
:10283A00E0FAA3E0FB120A9E5009E49006E3F0A333
:10284A00F0804E9006E3E4F0A304F09006E2E0750F
:10285A00F041A424E9F582E43403F583C083C082FD
:10286A00E0FCA3E0FDA3E0FEA3E0FF9006E2E07532
:10287A00F041A424D1F582E43403F583E0F8A3E01F
:10288A00F9A3E0FAA3E0FB120807D082D083121161
:10289A006C9006E2E0FF75F041A424E9F582E43485
:1028AA0003F583E0F8A3E0F9A3E0FAA3E0FBEF75F0
:1028BA00F041A424E1F582E43403F583E0FCA3E0CB
:1028CA00FDA3E0FEA3E0FF1208F8C004C005C0069D
:1028DA00C0079006E3E0FCA3E0FDE4120B10D0036E
:1028EA00D002D001D0001208F8C004C005C006C04A
:1028FA00079006E2E0FF75F041A424D1F582E434A2
:10290A0003F583E0F8A3E0F9A3E0FAA3E0FBEF758F
:10291A00F041A424DDF582E43403F583E0FCA3E06E
:10292A00FDA3E0FEA3E0FF1208F8D003D002D00115
:10293A00D000120807C004C005C006C0079006E20E
:10294A00E0FF75F041A424D5F582E43403F583E071
:10295A00F8A3E0F9A3E0FAA3E0FBEF75F041A424A1
:10296A00D1F582E43403F583E0FCA3E0FDA3E0FEA5
:10297A00A3E0FF1208039006E2E075F041A424E503
:10298A00F582E43403F583E0F8A3E0F9A3E0FAA3BF
:10299A00E0FB1208F8D003D002D001D000120807D9
:1029AA009006E2E0FB75F041A424EDF582E43403DD
:1029BA00F58312116CEB75F041A424D1F582E4344D
:1029CA0003F583E0FCA3E0FDA3E0FEA3E0FFEB75C3
:1029DA00F041A424D5F582E43403F58312116CD3B3
:0229EA0022C306
:0129EC0022C8
:052234009006E5EFF04B
:10223900E0FF75F041A424CDF582E43403F583E091
:10224900F8A3E0F9A3E0FAA3E0FBEF75F041A424B9
:10225900C9F582E43403F583E0FCA3E0FDA3E0FEC5
:10226900A3E0FF1208039006E5E0FB75F041A42402
:10227900D1F582E43403F58312116CEB75F041A4B6
:102289002409F582E43404F583E07003022613EB94
:1022990075F041A424FDF582E43403F583E0FCA341
:1022A900E0FDA3E0FEA3E0FFEB75F041A424CDF52A
:1022B90082E43403F583E0F8A3E0F9A3E0FAA3E0AC
:1022C900FB120A9E600250030223589006E5E0754E
:1022D900F041A424D1F582E43403F583E0FCA3E0C2
:1022E900FDA3E0FEA3E0FF120B49127207AC06AD95
:1022F90007EC120B109006E5E075F041A42405F5F2
:1023090082E43404F583E0F8A3E0F9A3E0FAA3E05A
:10231900FB120A9E50030224639006E6E4F0A3042C
:10232900F09006E5E075F041A424D1F582E4340388
:10233900F583E0FCA3E0FDA3E0FEA3E0FFE4FBFAE4
:10234900F9F8120A9E600250030224BA022474901A
:1023590006E5E0FF75F041A424FDF582E43403F5B8
:1023690083E0F8A3E0F9A3E0FAA3E0FBEF75F041FD
:10237900A424CDF582E43403F583E0FCA3E0FDA3B6
:10238900E0FEA3E0FF120A9E6002500302241890A7
:1023990006E5E075F041A424D1F582E43403F58320
:1023A900E0FCA3E0FDA3E0FEA3E0FF120B491272DB
:1023B90007AC06AD07EC120B109006E5E075F0418D
:1023C900A42405F582E43404F583E0F8A3E0F9A335
:1023D900E0FAA3E0FB120A9E5002807E9006E6E432
:1023E900F0A304F09006E5E075F041A424D1F5824C
:1023F900E43403F583E0FCA3E0FDA3E0FEA3E0FFE2
:10240900E4FBFAF9F8120A9E40030224BA805C90B0
:1024190006E5E075F041A424D1F582E43403F5839F
:10242900E0FCA3E0FDA3E0FEA3E0FF120B4912725A
:1024390007AC06AD07EC120B109006E5E075F0410C
:10244900A42405F582E43404F583E0F8A3E0F9A3B4
:10245900E0FAA3E0FB120A9E5009E49006E6F0A315
:10246900F0804E9006E6E4F0A304F09006E5E075EE
:10247900F041A424E9F582E43403F583C083C082E2
:10248900E0FCA3E0FDA3E0FEA3E0FF9006E5E07514
:10249900F041A424D1F582E43403F583E0F8A3E004
:1024A900F9A3E0FAA3E0FB120807D082D083121146
:1024B9006C9006E5E0FF75F041A424E9F582E43467
:1024C90003F583E0F8A3E0F9A3E0FAA3E0FBEF75D5
:1024D900F041A424E1F582E43403F583E0FCA3E0B0
:1024E900FDA3E0FEA3E0FF1208F8C004C005C00682
:1024F900C0079006E6E0FCA3E0FDE4120B10D00350
:10250900D002D001D0001208F8E4FBFAF9784012A1
:102519000A01C004C005C006C0079006E5E0FF75C2
:10252900F041A424D1F582E43403F583E0F8A3E073
:10253900F9A3E0FAA3E0FBEF75F041A424DDF582ED
:10254900E43403F583E0FCA3E0FDA3E0FEA3E0FF90
:102559001208F8D003D002D001D000120807C00435
:10256900C005C006C0079006E5E0FF75F041A42448
:10257900D5F582E43403F583E0F8A3E0F9A3E0FAA2
:10258900A3E0FBEF75F041A424D1F582E43403F50F
:1025990083E0FCA3E0FDA3E0FEA3E0FF12080390A3
:1025A90006E5E075F041A424E5F582E43403F583FA
:1025B900E0F8A3E0F9A3E0FAA3E0FB1208F8D003DE
:1025C900D002D001D0001208079006E5E0FB75F0B3
:1025D90041A424EDF582E43403F58312116CEB7503
:1025E900F041A424D1F582E43403F583E0FCA3E0AF
:1025F900FDA3E0FEA3E0FFEB75F041A424D5F5822D
:0B260900E43403F58312116CD322C3EC
:0126140022A3
:10401800900708EFF075F041A42409F582E4340410
:10402800F583E070030241B6900708E0FF75F041A0
:10403800A424CDF582E43403F583E0F8A3E0F9A3E2
:10404800E0FAA3E0FBEF75F041A424C9F582E4345B
:1040580003F583E0FCA3E0FDA3E0FEA3E0FF120864
:1040680003900708E0FB75F041A424D1F582E434FD
:1040780003F58312116CEB75F041A424D5F582E4A5
:104088003403F583E0FCA3E0FDA3E0FEA3E0FFEB2F
:1040980075F041A424E1F582E43403F583E0F8A344
:1040A800E0F9A3E0FAA3E0FB1208F8C004C005C0D9
:1040B80006C007900708E0FF75F041A424D1F582F7
:1040C800E43403F583E0F8A3E0F9A3E0FAA3E0FB06
:1040D800EF75F041A424DDF582E43403F583E0FCB8
:1040E800A3E0FDA3E0FEA3E0FF1208F8D003D0028E
:1040F800D001D000120803C004C005C006C0079054
:104108000708E0FF75F041A424D9F582E43403F5EB
:1041180083E0F8A3E0F9A3E0FAA3E0FBEF75F04130
:10412800A424E5F582E43403F583E0FCA3E0FDA3D1
:10413800E0FEA3E0FF1208F8D003D002D001D000BF
:10414800120807900708E0FB75F041A424EDF582FA
:10415800E43403F58312116CEB75F041A424D5F512
:1041680082E43403F583E0FCA3E0FDA3E0FEA3E0D2
:10417800FFEB75F041A424D9F582E43403F58312EA
:10418800116CEB75F041A424D1F582E43403F58376
:10419800E0FCA3E0FDA3E0FEA3E0FFEB75F041A483
:1041A80024D5F582E43403F58312116CD322C3229B
:1069C200AB07900699E0FCA3E0FDA3E0FEA3E0FF85
:1069D200EB75F041A42401F582E43404F58302113D
:0169E2006C48
:1069E300AB0790069EE0FCA3E0FDA3E0FEA3E0FF5F
:1069F300EB75F041A424FDF582E43403F583021121
:016A03006C26
:106A0400AB079006A3E0FCA3E0FDA3E0FEA3E0FF38
:106A1400EB75F041A424CDF582E43403F58302112F
:016A24006C05
:106A2500AB079006A8E0FCA3E0FDA3E0FEA3E0FF12
:106A3500EB75F041A424E1F582E43403F5830211FA
:016A45006CE4
:106A4600AB079006ADE0FCA3E0FDA3E0FEA3E0FFEC
:106A5600EB75F041A424DDF582E43403F5830211DD
:016A66006CC3
:106A6700AB079006B2E0FCA3E0FDA3E0FEA3E0FFC6
:106A7700EB75F041A424E5F582E43403F5830211B4
:016A87006CA2
:106A8800AB079006B7E0FCA3E0FDA3E0FEA3E0FFA0
:106A9800EB75F041A424C9F582E43403F5830211AF
:016AA8006C81
:106DB100EF75F041A424C9F582E43403F583E0FCC6
:0A6DC100A3E0FDA3E0FEA3E0FF2223
:106DCB00EF75F041A424D1F582E43403F583E0FCA4
:0A6DDB00A3E0FDA3E0FEA3E0FF2209
:106DE500EF75F041A424D5F582E43403F583E0FC86
:0A6DF500A3E0FDA3E0FEA3E0FF22EF
:106DFF00EF75F041A424DDF582E43403F583E0FC64
:0A6E0F00A3E0FDA3E0FEA3E0FF22D4
:106E1900EF75F041A424E1F582E43403F583E0FC45
:0A6E2900A3E0FDA3E0FEA3E0FF22BA
:106E3300EF75F041A424E5F582E43403F583E0FC27
:0A6E4300A3E0FDA3E0FEA3E0FF22A0
:106E4D00EF75F041A424EDF582E43403F583E0FC05
:0A6E5D00A3E0FDA3E0FEA3E0FF2286
:106E6700EF75F041A424E9F582E43403F583E0FCEF
:0A6E7700A3E0FDA3E0FEA3E0FF226C
:106AA900AB079006BCE0FCA3E0FDA3E0FEA3E0FF7A
:106AB900EB75F041A42405F582E43404F583021151
:016AC9006C60
:10613D00900709EFF075F041A42409F582E43404C9
:10614D00F583E0602FED24FE601214601714601CBF
:10615D0024047020900709E0FF023AA4900709E09B
:10616D00FF02385E900709E0FF022615900709E04F
:05617D00FF1222342294
:106F1D00EF75F041A42409F582E43404F583E060B3
:096F2D0007ED1470031240182254
:10532900602A04D100000000000000000000000015
:105339000000000000000000000000000000000064
:0E534900000000000000000000000000000056
:10527F009003BEEBF0A3EAF0A3E9F0900003120E47
:10528F008BFF9003BAE0FBA3E0FAA3E0F9A3E0FEE3
:10529F00F582758300EF120ECA9003BEE0FBA3E008
:1052AF00FAA3E0F9900002120E8BFFEE2401FDE449
:1052BF0033FC9003BAE0FBA3E0FAA3E0F98D828CF4
:1052CF0083EF120ECA9003BEE0FBA3E0FAA3E0F94E
:1052DF00900001120E8BFFEE2402FDE433FC9003CD
:1052EF00BAE0FBA3E0FAA3E0F98D828C83EF120EF4
:1052FF00CA9003BEE0FBA3E0FAA3E0F9120E72FF1F
:10530F00EE2403FDE433FC9003BAE0FBA3E0FAA321
:0A531F00E0F98D828C83EF020ECAC4
:056655009003B2EFF01C
:10665A00E4A3F09003B2E0FF1253D29003B3E0FE3A
:10666A00C39F501774D12EF582E43404F583E0FFFA
:0B667A0012684F9003B3E004F080D8DA
:0166850022F2
:10499D009003B212116C9003B6E0FFD3940A40035A
:1049AD00024AD0EF7003024AD0EF14B40A0040035C
:1049BD00024AD09049CE75F003A4C58325F0C58376
:1049CD00730249EC024A02024A19024A30024A476E
:1049DD00024A5D024A73024A89024A9F024AB59011
:1049ED0003BA7401F0A37404F0A374D1F0A374019D
:1049FD00F0FB024AC99003BA7401F0A37404F0A34A
:104A0D0074D1F0A37405F07B01024AC99003BA7406
:104A1D0001F0A37404F0A374D1F0A37409F07B0129
:104A2D00024AC99003BA7401F0A37404F0A374D1BF
:104A3D00F0A3740DF07B01024AC99003BA7401F022
:104A4D00A37404F0A374D1F0A37411F07B01806CF6
:104A5D009003BA7401F0A37404F0A374D1F0A3749D
:104A6D0015F07B0180569003BA7401F0A37404F025
:104A7D00A374D1F0A37419F07B0180409003BA7434
:104A8D0001F0A37404F0A374D1F0A3741DF07B01A5
:104A9D00802A9003BA7401F0A37404F0A374D1F0CA
:104AAD00A37421F07B0180149003BA7401F0A374F8
:104ABD0004F0A374D1F0A37425F07B017A0379B2CD
:044ACD0012527F22E0
:1053D200EFD3940A5003EF70037F00229004D1743C
:1053E20024F0EF14B40A0040030254749053FC7585
:1053F200F003A4C58325F0C5837302541A02542313
:1054020002542C02543502543E02544702545002B4
:10541200545902546202546B9004D67405F07F060C
:10542200229004DA7409F07F0A229004DE740DF0EF
:105432007F0E229004E27411F07F12229004E6742F
:1054420015F07F16229004EA7419F07F1A22900454
:10545200EE741DF07F1E229004F27421F07F22224E
:105462009004F67425F07F26229004FA7429F07FC6
:055472002A227F002248
:03000B0002311FA0
:10311A00C2AF80FE3212311E85D00B75D008AAE0EC
:10312A00C28CE58A2443F58AE58C34F6F58CD28C78
:10313A00EC241BF8E6BC030274FFC39581B41400A7
:10314A0040CE7904786316E608700BC2AFE630E128
:10315A00034418F6D2AF08D9EDEA8BD022E50CFF6A
:10316A00232464F80F0808BF04047F007864E6305B
:10317A00E4F200E50CC39F5020050C741A250CF8E4
:10318A00E6FDA68108E6AE0CBE030274FFCDF8E8A0
:10319A006D60E008E6C0E080F6E50CD39F4027E5C5
:1031AA000C241BF8E6AE0CBE030274FFFD18E6CD34
:1031BA00F8E5816D6006D0E0F61880F5E50C241A72
:1031CA00C8F6150C80D3E50C232464F87F04C2AF3B
:1031DA00E630E00310E20C7F0030E10730E3047FC1
:1031EA000854F4547CC6D2AF5480420722781AA6F7
:1031FA008174036006FF0876FFDFFB7F04E47863CF
:10320A00F608F608DFFA786476309072A9740193AA
:10321A00C0E0E493C0E0438901758A3C758CF6D21C
:07322A008CD2AFD2A92203F0
:1053570050060500000000000000000000000000EB
:0353670000000043
:106FC000E4900333F0A37407F07B017A0379337FF5
:046FD00001023E5428
:106D450074052FF582E43406F583E0FE74052FF50E
:0A6D550082E43406F583E4F0AF0693
:016D5F002211
:1064E40012472C9006F8EFF0D39400402AE02404DD
:1064F400F582E43406F5837401F012472CEF60084A
:1065040012472CEF601180F89006F8E02404F5821D
:07651400E43406F583E4F016
:01651B00225D
:1033A200202520346400202520346600000000001F
:1033B20000000000004F000000000700070000149A
:1033C2007F147F1400242A7F2A12002313086462C8
:1033D20000364955225000000503000000001C225F
:1033E2004100000041221C000014083E081400089D
:1033F200083E0808000050300000000808080808CD
:10340200000060600000002010080402003E5149E4
:10341200453E0000427F4000004261514946002182
:1034220041454B31001814127F100027454545399C
:10343200003C4A49493000017109050300364949F7
:10344200493600064949291E0000363600000000B0
:1034520056360000000814224100001414141414FB
:103462000000412214080002015109060032497984
:10347200413E007E1111117E007F4949493E003EC6
:1034820041414122007F4141221C007F494949417B
:10349200007F09090901003E4149497A007F080875
:1034A200087F0000417F4100002040413F01007F32
:1034B20008142241007F40404040007F0204027F06
:1034C200007F0408107F003E4141413E007F090910
:1034D2000906003E4151215E007F09192946004636
:1034E200494949310001017F0101003F4040403F0D
:1034F200001F2040201F003F4038403F0063140857
:103502001463000304780403006151494543000039
:103512007F4141000015167C1615000041417F00D5
:103522000004020102040040404040400000010249
:103532000400002054545478007F48444438003832
:103542004444442000384444487F003854545418BA
:1035520000087E090102000C5252523E007F08040C
:1035620004780000447D4000002040443D00007F7C
:10357200102844000000417F4000007E020C027CC3
:10358200007E0402027C003844444438007C141457
:10359200140800081414187C007C0804040800486D
:1035A2005454542000043F444020003C4040207CBE
:1035B200001C2040201C003C4030403C00442810AD
:1035C2002844000C5050503C004464544C440000C9
:1035D200083641000000007F00000000413608006C
:1035E2000008040810080008082A1C0800081C2A01
:1035F20008080004027F02040010207F2010001C33
:0A3602002A322A1C001C2244221C5C
:106B0B00C2CBED24FF92CA7E08EF30E704D2C980D6
:0F6B1B0002C2C9C2C8EF25E0FFD2C8DEECD2CB60
:016B2A002248
:106ACA00E4FD7F80126B0B7F40126B0B7BF87A011F
:106ADA007D01E4FF126B0BEB1B70011AEB4A70F09D
:016AEA002289
:106FFC00AD07E4FF126FD47C547D01E4FF126B0BE0
:02700C00DCF7AF
:01700E00225F
:106FD400AC05EF4480FFEC4440FCE4FD126B0BAFC6
:046FE40004026B0B2D
:07630B00E0FF04F0A3E0FD38
:1063120074E02BFBEF75F006A4FF126FD4E4FC755A
:10632200F006EBA424AEF582E5F03433F583E58282
:106332002CF582E43583F583E493FF7D01126B0B28
:056342000CECB406DACA
:016347002233
:1063C1009006C0EFF0A3EDF0A3EBF0A3EAF0A3E990
:1063D100F09006C2E0FBA3E0FAA3E0F9120E72FB13
:1063E10060189006C0E0C3940E500F12630B900624
:0B63F100C3E475F001120F8980D72271
:105FCF00900382EFF0A3EDF0A3EBF0A3EAF0A3E9C7
:105FDF00F0900384E0FBA3E0FAA3E0F9120E72FB4A
:105FEF00602890038212630B900385E475F0011211
:105FFF000F89900382E0B40E06E4F0A3E004F09062
:0B600F000383E0B406CBE4F080C7225E
:0C643700900376EFF0A3EDF0AF03AE028F
:1064430090038574FFF0A37433F0A374A2F0A3EE5A
:10645300F0A3EFF07B017A03797B121E169003768B
:0E646300E0FFA3E0FD7B017A03797B025FCFAF
:08618200900615EFF0A3EDF00B
:10618A0090038574FFF0A37433F0A374A8F090060B
:10619A0017E0FCA3E0FDA3E0FEA3E0FF9003881252
:1061AA00116C7B017A06791D121E16900615E0FF06
:0C61BA00A3E0FD7B017A06791D025FCF97
:10620A00E4900333F0A304F0FB7A0379337F051299
:10621A003E54C2CCD2CCE4FD7F21126B0B7F061216
:10622A006B0B7F13126B0B7FC8126B0B7F20126BE9
:10623A000B7F0C126B0B7F40126B0B7F80126B0B68
:03624A00026ACA1B
:02536A00C10F71
:106739009003347405F0E4900333F07B017A037914
:10674900337F05123E541272DB7FC812715F1272D9
:07675900E07FC812715FD35D
:016760002216
:0572DB00C2CDD20F221C
:0572E000D2CDC20F2217
:1069A000900333EFF0900333E0FF14F0EF60121226
:1069B00072DB7FC812715F1272E07FC812715F8054
:0269C000E422CF
:0372EE00A20F22CA
:0672B10090070AEFF02235
:105780009006C5EFF07F337E337D737C3FA3E0F856
:10579000A3E0F9A3E0FAA3E0FB120A9E600C400A22
:1057A0009006C61211783F7333337FCD7ECC7D4C8B
:1057B0007C3D9006C6E0F8A3E0F9A3E0FAA3E0FB85
:1057C000120A9E500A9006C61211783D4CCCCD901C
:1057D00006C5E02404FFC007A3E0FCA3E0FDA3E0AE
:1057E000FEA3E0FF9006CB12116CD007124E009082
:1057F00006C6E0FCA3E0FDA3E0FEA3E0FF120B4918
:105800009006C5E025E024D0F582E43406F583EF68
:02581000F02284
:106C250090070BEFF02404FF12676190070BE02536
:0E6C3500E024CFF582E43406F5837401F022EA
:106C610090070CEFF02404FF12693390070CE02524
:0D6C7100E024CFF582E43406F583E4F02240
:10714F00EF25E024CFF582E43406F583E024FF2217
:105C2E00E49005E3F0A37408F07B017A0579E37F35
:105C3E0002123E549005E47404F07B017A0579E378
:105C4E007F02123E54D2A2D2A343BA80E49005E55D
:105C5E00F0A3F0A3F0A304F0E4A3F0A3F0A3F0A349
:105C6E00F0A3F0A3F0A3F0A3F0A3F0A3F0A3F0A38E
:105C7E00F07B017A0579E57F021229ED7B017A0529
:0A5C8E0079E57F031229ED53BA7F78
:015C980022E9
:053C8000900523EFF0A8
:103C8500E4900532F0A37480F07B017A0579327FE8
:103C950003123E54D2B743BA80E4900534F0A3F042
:103CA500A3F0A304F0E4A3F0A3F0A3F0A3F0A3F022
:103CB500A3F0A3740FF0E4A3F0A3F0A3F0A3F0A383
:103CC500F0900523E0FF7B017A0579341229ED5345
:103CD500BA7F900523E0FF7D1012711C900523E04B
:103CE500FF7D327C00125CFE900524E0FCA3E0FD24
:103CF500A3E0FEA3E0FF900523E0FB75F025A424D7
:103D050050F582E43404F58312116C900528E0FC2B
:103D1500A3E0FDA3E0FEA3E0FFEB75F025A424548A
:103D2500F582E43404F58312116C90052CE0FCA3B4
:103D3500E0FDA3E0FEA3E0FFEB75F025A42462F50A
:103D450082E43404F58312116C900530E0FEA3E0A3
:103D5500FFEB75F025A4245CF582E43404F583EECD
:103D6500F0A3EFF0EB75F025A42450F582E43404BC
:103D7500F583E0F8A3E0F9A3E0FAA3E0FB900523BF
:103D8500E075F025A42454F582E43404F583E0FCC1
:103D9500A3E0FDA3E0FEA3E0FF120803C004C005F5
:103DA500C006C007900523E075F025A4245CF582C4
:103DB500E43404F583E0FCA3E0FDE4120B10A80451
:103DC500A905AA06AB07D007D006D005D004120A6C
:103DD50001900523E0FB75F025A42458F582E43411
:103DE50004F58312116CEB75F025A4245CF582E4CF
:103DF5003404F583E0FCA3E0FDE4120B10A804A94C
:103E050005AA06AB07900523E075F025A42462F505
:103E150082E43404F583E0FCA3E0FDA3E0FEA3E027
:103E2500FF120A01900523E0FB75F025A42466F531
:103E350082E43404F58312116CEB75F025A4245E3D
:0E3E4500F582E43404F58312117800000000C9
:013E5300224C
:054BFE0090064AEFF0F3
:104C0300A3E0FCA3E0FDA3E0FEA3E0FF90064AE0DF
:104C1300FB75F025A4244BF582E43404F5831211CB
:104C23006CEB75F025A42466F582E43404F583E087
:104C3300F8A3E0F9A3E0FAA3E0FB90064BE0FCA3A2
:104C4300E0FDA3E0FEA3E0FF120A0190064AE0752F
:104C5300F025A42458F582E43404F583E0F8A3E0B6
:104C6300F9A3E0FAA3E0FB1208F890064AE075F016
:104C730025A42450F582E43404F583E0F8A3E0F995
:104C8300A3E0FAA3E0FB12080790064AE0FB75F0E5
:104C930025A4246CF582E43404F58312116CEB75BE
:104CA300F025A4246CF582E43404F583E0FCA3E04E
:104CB300FDA3E0FEA3E0FFE4FBFA79A07841120A2A
:104CC3000190064F12116C90064FE0FCA3E0FDA388
:104CD300E0FEA3E0FF9006CB12116C90064AE0FFC2
:104CE300124E0090064AE0FB75F025A4244BF58292
:104CF300E43404F583E0FCA3E0FDA3E0FEA3E0FFBE
:104D0300EB75F025A4245EF582E43404F5830211E7
:014D13006C33
:106E8100EF75F025A4245EF582E43404F583E0FC7B
:0A6E9100A3E0FDA3E0FEA3E0FF2252
:106B2B0090070DEFF012676190070DE075F025A44B
:106B3B00246AF582E43404F583E4F0A304F0D32251
:106B6B0090070EEFF012693390070EE075F025A435
:0F6B7B00246AF582E43404F583E4F0A3F0D32216
:10690E00C007900664E0FCA3E0FDA3E0FEA3E0FF59
:10691E0090064212116C900668E0FCA3E0FDD007D1
:05692E00124D14D322FC
:104EE40090066AEFF0C007E4FFFE7DB47C43A3E0C4
:104EF400F8A3E0F9A3E0FAA3E0FB1208F8C004C0A9
:104F040005C006C00790066AE075F00EA42449F5B2
:104F140082E43405F583E0FCE4120B15D003D002DF
:104F2400D001D0001208F8C004C005C006C0079024
:104F3400066AE075F00EA4244DF582E43405F58389
:104F4400E0FCA3E0FDA3E0FEA3E0FF7B567A0E792C
:104F54004978401208F890066AE075F00EA42445DA
:104F6400F582E43405F583E0F8A3E0F9A3E0FAA3BD
:104F7400E0FB1208F8A804A905AA06AB07D007D0DD
:104F840006D005D004120A01120B499006641211CE
:104F94006C90066FE0FFA3E0900668CFF0A3EFF0FB
:074FA400D00712690ED322B1
:105C9900900671EFF0E0FEFFC00775F00EA42449ED
:105CA900F582E43405F583E0FCE4120B15900672E5
:105CB900E0F8A3E0F9A3E0FAA3E0FB1208F89006E4
:105CC90071E075F00EA42445F582E43405F583E00E
:105CD900F8A3E0F9A3E0FAA3E0FB120A01120B49C9
:105CE90090064212116C900676E0FCA3E0FDD00705
:055CF900124D14D3223E
:1064AB009006F9EAF0A3EBF0C007AE04AF057C0150
:1064BB007D68120EECAC06AD07E4120B1090067261
:1064CB0012116C9006F9E0FFA3E0900676CFF0A3D3
:0964DB00EFF0D007125C99D32206
:0F716F00EF7006900551EDF02290055FEDF022D4
:1070D800EF75F00EA42451F582E43405F583E0FF42
:0170E8002285
:106D6000EF7009201004C2A78002D2A7EFB4010976
:0B6D7000201004C2A58002D2A5D3228F
:106C7E0090070FEFF0126C9B90070FE075F00EA4CB
:0D6C8E002451F582E43405F5837401F022F1
:10700F00EF75F00EA42451F582E43405F583E4F016
:03701F00026C43BD
:106CD500EF7004C2A68002C2A4EF75F00EA4245181
:0C6CE500F582E43405F5837401F0D3223D
:106CF100EF7004D2A68002D2A4EF75F00EA4245145
:0C6D0100F582E43405F5837402F0D3221F
:05551A00900624EFF0F3
:10551F00E4900630F0A374F0F07B017A0679307FC7
:10552F0002123E54900625E0FCA3E0FDA3E0FEA38B
:10553F00E0FF900624E0FB75F00EA42445F582E40D
:10554F003405F58312116C900629E0FFEB75F00E10
:10555F00A42449F582E43405F583EFF090062AE0A0
:10556F00FEA3E0FFEB75F00EA4244AF582E43405A8
:10557F00F583EEF0A3EFF090062CE0FCA3E0FDA383
:10558F00E0FEA3E0FFEB75F00EA4244DF582E434AA
:10559F0005F58312116CEB75F00EA42451F582E41E
:0A55AF003405F5837401F00266E391
:106D0D00900333EFF0A3EDF0A37401F0E4A3F0A32F
:0C6D1D00F0A3F07B017A037933025F29B8
:105BB400E49005BAF0301163F0E4FF125DC0900583
:105BC400BAE025E024A6F582E43405F583EEF0A3DB
:105BD400EFF09005BAE004F0E0C3940A40DB7B01E7
:105BE4007A0579A69005F97404F0A3E4F0A3F0A370
:105BF400F07D0A124867AC06AD07E4120B1090065C
:105C04005B12116C90065BE0FCA3E0FDA3E0FEA335
:105C1400E0FFA312116C90065B800390065FE0FC2A
:095C2400A3E0FDA3E0FEA3E0FFF4
:015C2D002254
:086F36009006D3ECF0A3EDF08E
:106F3E00E4A3F0A3EFF07B017A0679D5E4FF023EDD
:016F4E0054EE
:0570E900900710EFF01C
:0B70EE00E4FF00000FEFB408F9000001
:0170F9002274
:10536C004205680000C10DC10E42056000004205F7
:0D537C00640000420562000042056600006A
:0A4D1400900640ECF0A3EDF0AB07B1
:104D1E00E4900646F0A3F0900640E0FEA3E0FFEB21
:104D2E0075F007A4246EF582E43405F583EEF0A346
:104D3E00EFF0900642E0FCA3E0FDA3E0FEA3E0FF4F
:104D4E00EB75F007A4246AF582E43405F58312119D
:104D5E006CEB704F900640E0FEA3E0FFD39414EE90
:104D6E009400403BAB07AA06E4F9F87F807E847D71
:104D7E001EFC1261C6E47B02FAF9F81261C6C3E4A6
:104D8E009FFFE49E900648F0A3EFF0C20D438F0400
:104D9E00900648E0FCA3E0FDECF5D68DD78051D20D
:104DAE000D804D900640E0FEA3E0FFD39414EE94E8
:104DBE0000403BAB07AA06E4F9F87F807E847D1E97
:104DCE00FC1261C6E47B02FAF9F81261C6C3E49FD5
:104DDE00FFE49E900648F0A3EFF0C20E43D101907F
:104DEE000648E0FCA3E0FDECF5D48DD58002D20E92
:014DFE00D3E1
:014DFF002291
:106C4300EF75F007A42470F582E43405F58374012D
:0E6C5300F0EF7005438E10800343D108D3226A
:106C9B00EF7005538EEF800353D1F7EF75F007A418
:0D6CAB002470F582E43405F583E4F0D32273
:10707F00EF75F007A42470F582E43405F583E0245E
:02708F00FF22DE
:1066E300E49006FBF0A304F0FB7A0679FB7F031228
:1066F3003E549006FC7410F07B017A0679FBE4FFAC
:0C670300123E54E4900570F0900577F011
:01670F002267
:03006300025ABE80
:105ABE00C0E0C0F0C083C082C0D075D000C000C0AE
:105ACE0001C002C003C004C005C006C007E47F02C7
:105ADE00FEFDFC90056AE0F8A3E0F9A3E0FAA3E06E
:105AEE00FB120FEDC006C007900560E475F00112C1
:105AFE000F89AFF0AB07FAE4F9F8D007D006C3125E
:105B0E001118400CE4FF126C9B900560E4F0A3F0BA
:105B1E00D007D006D005D004D003D002D001D000DB
:0B5B2E00D0D0D082D083D0F0D0E03285
:03009B00025B39CC
:105B3900C0E0C0F0C083C082C0D075D000C000C032
:105B490001C002C003C004C005C006C007E47F024B
:105B5900FEFDFC900571E0F8A3E0F9A3E0FAA3E0EB
:105B6900FB120FEDC006C007900562E475F0011243
:105B79000F89AFF0AB07FAE4F9F8D007D006C312E2
:105B89001118400C7F01126C9B900562E4F0A3F0A0
:105B9900D007D006D005D004D003D002D001D00060
:0B5BA900D0D0D082D083D0F0D0E0320A
:09724600D280C281C282D28322EF
:09724F00C280D281D282C28322E6
:09725800C280C281C282C28322FD
:09726100D280C281C282C28322E4
:09726A00C280D281C282C28322DB
:09727300D280C281D282C28322C2
:09727C00C280C281C282D28322C9
:09728500C280C281D282C28322C0
:09728E00C280D281C282D28322A7
:0172FA002271
:056D7B009006FDEDF0A3
:106D80001272B79006FEEFF09006FDE0FF1272B7A8
:056D90009006FEE0FF8B
:016D950022DB
:0C71D400EF4480FF1272B77FFF1272B709
:0171E000228C
:105E7900E4FD7F6B126D7B7D077F1A126D7B7D3090
:105E89007F37126D7B7D4D7F24126D7B7D207F6A6C
:105E9900126D7B7D017F67126D7B7D817F27126D7E
:105EA9007B7D077F19126D7B7D187F1B126D7B7DB2
:105EB900187F1C126D7B7D087F1D126D7B7D017F14
:0B5EC9000B1264717D127F0A026471ED
:1055B9007F3C1271D490058AEFF07F3B1271D49031
:1055C900058BEFF0FE90058AE0FDEDFF900578EE82
:1055D900F0A3EFF07C007DA4120F53900578EEF054
:1055E900A3EFF07F3E1271D490058CEFF07F3D124E
:1055F90071D490058DEFF0FE90058CE0FDEDFF90E4
:10560900057AEEF0A3EFF07C007DA4120F5390050C
:105619007AEEF0A3EFF07F401271D490058EEFF08F
:105629007F3F1271D490058FEFF0FE90058EE0FD5B
:10563900EDFF90057CEEF0A3EFF07C007DA4120F46
:0A5649005390057CEEF0A3EFF02271
:104FAB007F441271D490058AEFF07F431271D49035
:104FBB00058BEFF0FE90058AE0FDEDFF90057EEE90
:104FCB00F0A3EFF0AC06EC120B107B337A33798342
:104FDB007841120A01120B4990057EEEF0A3EFF017
:104FEB007F461271D490058CEFF07F451271D490EF
:104FFB00058DEFF0FE90058CE0FDEDFF900580EE4A
:10500B00F0A3EFF0AC06EC120B107B337A33798301
:10501B007841120A01120B49900580EEF0A3EFF0D4
:10502B007F481271D490058EEFF07F471271D490A8
:10503B00058FEFF0FE90058EE0FDEDFF900582EE03
:10504B00F0A3EFF0AC06EC120B107B337A337983C1
:10505B007841120A01120B49900582EEF0A3EFF092
:01506B002222
:104AD1007F1012634C9006E8EFF07F1112634C9047
:104AE10006E9EFF07F1212634C9006EAEFF07F02C5
:104AF10012634CEF30E103024BFD7F0312634C90D4
:104B0100058A126348EF5408FFBF010A7F0312634D
:104B11004C90058AEFF07F0412634C90058B126371
:104B210048EF5408FFBF010A7F0412634C90058BC4
:104B3100EFF090058BE0FE90058AE0FDEEFCE424A9
:104B410001FFE433FE120EEC900584EEF0A3EFF0CA
:104B51007F0512634C90058C126348EF5408FFBF28
:104B6100010A7F0512634C90058CEFF07F061263FA
:104B71004C90058D126348EF5408FFBF010A7F0670
:104B810012634C90058DEFF090058DE0FE90058C41
:104B9100E0FDEEFCE42401FFE433FE120EEC90058F
:104BA10086EEF0A3EFF07F0712634C90058E12633F
:104BB10048EF5408FFBF010A7F0712634C90058E2E
:104BC100EFF07F0812634C90058F126348EF540891
:104BD100FFBF010A7F0812634C90058FEFF090052B
:104BE1008FE0FE90058EE0FDEEFCE42401FFE4334E
:0C4BF100FE120EEC900588EEF0A3EFF031
:014BFD002295
:0672B700900711EFF02228
:04634800EFF07F09EA
:05634C009006EBEFF0EC
:10635100A37413F0A37488F07D8C7F25126D7B905C
:1063610006EBE0FD7F26126D7B7DFF7F63126D7B67
:106371009006EC74FFF5F0120F9F45F070F27F4923
:036381001271D4C2
:0163840022F6
:086471009006D7EFF0A3EDF057
:10647900A37401F0A374F4F07D0C7F25126D7B9059
:1064890006D7E0FD7F26126D7B9006D8E0FD7F637D
:10649900126D7B9006D974FFF5F0120F9F45F070CD
:0164A900F200
:0164AA0022CF
:0453890041029C0041
:1063FC00EF75F04BA424E5F582E43402F583E4F068
:10640C00EF75F04BA424E6F582E43402F583E4F056
:10641C00EF75F04BA424E7F582E43402F583E4F045
:0B642C007BFF7A197917AD0702713E63
:10709100EF75F04BA424E5F582E43402F583740125
:0270A100F022DB
:1070FA00EF75F04BA424E5F582E43402F583E4F05D
:01710A002262
:1070A300EF75F04BA424E6F582E43402F583740112
:0270B300F022C9
:10710B00EF75F04BA424E6F582E43402F583E4F04A
:01711B002251
:10601A00EF75F04BA424E7F582E43402F583E064DB
:10602A00017031EF75F04BA424A5F582E43402F532
:10603A008375F002ED1211A9E0FCA3E0FDEC120B4E
:10604A0010E4FBFAF97847120A01E4FBFA7980783E
:0A605A00410208F8E4FFFEFDFC22FD
:10606400EF75F04BA424E7F582E43402F583E06491
:10607400017031EF75F04BA424ADF582E43402F5E0
:106084008375F002ED1211A9E0FCA3E0FDEC120B04
:1060940010E4FBFAF97847120A01E4FBFA79FA787A
:0A60A400440208F8E4FFFEFDFC22B0
:10662300EF75F04BA424B5F582E43402F58375F0DD
:1066330002ED1211A9E0FCA3E0FDEC120B10E4FB48
:10664300FAF97847120A01E4FBFA7934784312081D
:02665300F8222B
:10651C00EF75F04BA424E7F582E43402F583E0B484
:10652C00011EEF75F04BA424BDF582E43402F58313
:10653C0075F002ED1211A9E0FCA3E0FDEC020B10CA
:06654C00E4FFFEFDFC224D
:1056ED00900361EBF0A3EAF0A3E9F0A3E0FBA3E0E4
:1056FD00FAA3E0F9900003120E8BFF900361E0FB1B
:10570D00A3E0FAA3E0F9EF120EB8900364E0FBA357
:10571D00E0FAA3E0F9900002120E8BFF900361E016
:10572D00FBA3E0FAA3E0F9900001EF120ECA90037B
:10573D0064E0FBA3E0FAA3E0F9900001120E8BFFE9
:10574D00900361E0FBA3E0FAA3E0F9900002EF12F1
:10575D000ECA900364E0FBA3E0FAA3E0F9120E7207
:10576D00FF900361E0FBA3E0FAA3E0F9900003EFE3
:03577D00020ECA4F
:05191700900333EFF026
:10191C0075F04BA424E5F582E43402F583E0700302
:10192C00021DB0900333E0FF75F04BA424E6F58262
:10193C00E43402F583E07003021DB0EF75F04BA4A4
:10194C0024E7F582E43402F583E4F090001CE064B3
:10195C0055600AE4900004F090029CF02290000480
:10196C00E0FF241CF582E43400F583E0FE74902F34
:10197C00F582E43402F583EEF0900004E0C3940B9E
:10198C005003021DB0900291E024B0B40900400352
:10199C00021D939019AD75F003A4C58325F0C58382
:1019AC00730219C8021A68021AC8021B28021BA863
:1019BC00021C27021CAE021CF6021D2B900292E0A8
:1019CC00FF900333E0FE75F04BA4249DF582E434C4
:1019DC0002F583EFF0900293E0FFEE75F04BA42438
:1019EC009EF582E43402F583EFF0900294E0FFEE72
:1019FC0075F04BA4249FF582E43402F583EFF0904C
:101A0C000295E0FFEE75F04BA424A0F582E43402BD
:101A1C00F583EFF0900296E0FFEE75F04BA424A155
:101A2C00F582E43402F583EFF0900297E0FFEE7557
:101A3C00F04BA424A2F582E43402F583EFF090027B
:101A4C0099E0FE900298E0FDEDFF900333E075F015
:101A5C004BA424A3F582E43402021CA4900293E06C
:101A6C00FE900292E0FDEDFF900333E0FD75F04B2C
:101A7C00A424A5F582E43402F583EEF0A3EFF090F4
:101A8C000295E0FE900294E0FBEBFFED75F04BA4A9
:101A9C0024A7F582E43402F583EEF0A3EFF0900274
:101AAC0097E0FE900296E0FDEDFF900333E075F0B9
:101ABC004BA424A9F582E43402021CA4900293E006
:101ACC00FE900292E0FDEDFF900333E0FD75F04BCC
:101ADC00A424ADF582E43402F583EEF0A3EFF0908C
:101AEC000295E0FE900294E0FBEBFFED75F04BA449
:101AFC0024AFF582E43402F583EEF0A3EFF090020C
:101B0C0097E0FE900296E0FDEDFF900333E075F058
:101B1C004BA424B1F582E43402021CA4900293E09D
:101B2C00FE900292E0FDEDFF900333E0FD75F04B6B
:101B3C00A424B5F582E43402F583EEF0A3EFF09023
:101B4C000295E0FE900294E0FBEBFFED75F04BA4E8
:101B5C0024B7F582E43402F583EEF0A3EFF09002A3
:101B6C0097E0FE900296E0FDEDFF900333E0FD75EB
:101B7C00F04BA424B9F582E43402F583EEF0A3EF24
:101B8C00F0900299E0FE900298E0FBEBFFED75F00F
:101B9C004BA424BBF582E43402021CA4900293E013
:101BAC00FE900292E0FDEDFF900333E0FD75F04BEB
:101BBC00A424BDF582E43402F583EEF0A3EFF0909B
:101BCC000295E0FE900294E0FBEBFFED75F04BA468
:101BDC0024BFF582E43402F583EEF0A3EFF090021B
:101BEC0097E0FE900296E0FDEDFF900333E0FD756B
:101BFC00F04BA424C1F582E43402F583EEF0A3EF9C
:101C0C00F0900299E0FE900298E0FBEBFFED75F08E
:101C1C004BA424C3F582E43402807D900293E0FE51
:101C2C00900292E0FDEDFF900333E0FD75F04BA4C4
:101C3C0024C5F582E43402F583EEF0A3EFF09002B4
:101C4C0095E0FE900294E0FBEBFFED75F04BA424C5
:101C5C00C7F582E43402F583EEF0A3EFF09002971F
:101C6C00E0FE900296E0FDEDFF900333E0FD75F091
:101C7C004BA424C9F582E43402F583EEF0A3EFF013
:101C8C00900299E0FE900298E0FBEBFFED75F04BB3
:101C9C00A424CBF582E43402F583EEF0A3EFF0023A
:101CAC001D939002927412F0A37434F0A37456F046
:101CBC00A37478F0900333E075F04BA424CDF97441
:101CCC000235F0FA7B01C003900364EBF0A37402BD
:101CDC00F0A37492F0D0031256ED900333E075F03C
:101CEC004BA424D1F97402021D7A900333E075F0F1
:101CFC004BA424D5F9740235F0FA7B01C003900390
:101D0C0064EBF0A37402F0A37492F0D0031256EDBE
:101D1C00900333E075F04BA424D9F97402804F90F2
:101D2C000293E0FE900292E0FDEDFF900333E0FDA4
:101D3C0075F04BA424DDF582E43402F583EEF0A3B8
:101D4C00EFF0900295E0FE900294E0FBEBFFED7556
:101D5C00F04BA424DFF582E43402F583EEF0A3EF1C
:101D6C00F0900333E075F04BA424E1F9740235F0E4
:101D7C00FA7B01C003900364EBF0A37402F0A3742C
:101D8C0096F0D0031256EDE490029CF0900004F013
:101D9C00900333E075F04BA424E7F582E43402F5AC
:041DAC00837401F04B
:011DB0002210
:0F717E0074EE2FF582E43406F5837401F0D3220A
:0E719C0074EE2FF582E43406F583E4F0D3227E
:0172FB002270
:106F7F003F065B4F666D7D077F6F777C395E79715A
:066F8F0040EF00000000CD
:0A538D00080D000000000000000001
:056385009006FFEFF09F
:10638A00E4A3F0C2917F017E001266B59006FFE099
:10639A00FF30E004D2908002C290EFC3139006FF50
:1063AA00F0D2917F017E001266B5900700E004F0FA
:0663BA00E0C3940840CD91
:0163C00022BA
:1060F600E4900702F0D290900701F0900702E0C307
:1061060013F0C2917F017E001266B53090079007AA
:1061160002E04480F0D2917F017E001266B59007BE
:1061260001E004F0E0C3940840D17F017E001266CE
:06613600B5900702E0FF36
:01613C002240
:106B8A00900712EFF0C2927F017E001266B590075D
:0F6B9A0012E0FF126385D2927F017E000266B582
:10472C0078867C067D017BFF7A6F79917E007F0411
:10473C00120E4CE490068BF0C2927F421263857F7E
:10474C00F47E011266B5E490068AF01260F69006CB
:10475C008AE02486F582E43406F583EFF090068A2D
:10476C00E004F0E0C3940440E2D292900686E0FFAD
:10477C00B4040990068B7401F0024861EFB440094F
:10478C0090068B7402F0024861900687E0FFB40437
:10479C000990068B7403F0024861EFB4400990064F
:1047AC008B7404F0024861900688E0FFB404099011
:1047BC00068B7405F0024861EFB4400990068B74C7
:1047CC0006F0024861900689E0FFB4040990068B5C
:1047DC007407F0024861EFB4400890068B7408F03F
:1047EC008073900686E0FFB4020890068B7409F083
:1047FC008063EFB4200890068B740AF08057900603
:10480C0087E0FFB4020890068B740BF08047EFB47E
:10481C00200890068B740CF0803B900688E0FFB467
:10482C00020890068B740DF0802BEFB420089006D4
:10483C008B740EF0801F900689E0FFB4020890067E
:10484C008B740FF0800FEFB4200890068B7410F06F
:0A485C0080037F002290068BE0FF2E
:01486600222F
:106686007F8A126B8A7F8A126B8A7F40126B8AC25C
:10669600927FC0126385E4900713F07FFF12638533
:0E66A600900713E004F0E0C3941040EFD2928E
:0166B40022C3
:102D87009005D7E09005E0F09005D6E09005E1F0DA
:102D97009005D5E09005E2F09005D4E0F99005D3D1
:102DA700E0FAAE05AC06AD079005E1E0906F7F93C2
:102DB700540125E0FF9005E0E0906F7F9354012FC9
:102DC700FF9005E2E0906F7F93540125E025E02F07
:102DD700FFE993540133333354F82FFFEA93540137
:102DE700C454F02FFFEB935401C43354E02FFFEC8E
:102DF700935401C4333354C02FFFED935401C433AC
:102E0700333354802F9005D8F09005E0E0906F7F22
:102E1700935402C313FF9005E1E0906F7F93540230
:102E27002FFF9005E2E0906F7F93540225E02FFF7C
:102E3700E993540225E025E02FFFEA935402333348
:102E47003354F82FFFEB935402C454F02FFFEC9345
:102E57005402C43354E02FFFED935402C433335468
:102E6700C02F9005D9F09005E1E0906F7F9354044F
:102E7700C313FF9005E0E0906F7F9354041313543E
:102E87003F2FFF9005E2E0906F7F9354042FFFE9F7
:102E970093540425E02FFFEA93540425E025E02FFF
:102EA700FFEB93540433333354F82FFFEC9354045C
:102EB700C454F02FFFED935404C43354E02F90050E
:102EC700DAF09005E1E0906F7F9354081313543FB5
:102ED700FF9005E0E0906F7F935408131313541F7E
:102EE7002FFF9005E2E0906F7F935408C3132FFFE5
:102EF700E99354082FFFEA93540825E02FFFEB933B
:102F0700540825E025E02FFFEC935408333333545E
:102F1700F82FFFED935408C454F02F9005DBF09081
:102F270005E1E0906F7F935410131313541FFF9024
:102F370005E0E0906F7F935410C4540F2FFF900566
:102F4700E2E0906F7F9354101313543F2FFFE993E0
:102F57005410C3132FFFEA9354102FFFEB93541011
:102F670025E02FFFEC93541025E025E02FFFED938C
:102F7700541033333354F82F9005DCF09005E1E01B
:102F8700906F7F935420C4540FFF9005E0E0906F3B
:102F97007F935420C41354072FFF9005E2E0906FEE
:102FA7007F935420131313541F2FFFE993542013B7
:102FB70013543F2FFFEA935420C3132FFFEB93546F
:102FC700202FFFEC93542025E02FFFED935420256D
:102FD700E025E02F9005DDF09005E1E0906F7F930D
:102FE7005440C4135407FF9005E0E0906F7F93545B
:102FF70040C4131354032FFF9005E2E0906F7F93B3
:103007005440C4540F2FFFE9935440131313541F14
:103017002FFFEA9354401313543F2FFFEB93544071
:10302700C3132FFFEC9354402FFFED93544025E03B
:103037002F9005DEF09005E1E0906F7F935480C4F8
:1030470013135403FF9005E0E0906F7F935480C4FF
:1030570013131354012FFF9005E2E0906F7F9354F1
:1030670080C41354072FFFE9935480C4540F2FFFD4
:10307700EA935480131313541F2FFFEB93548013B9
:1030870013543F2FFFEC935480FEC3132FFFED9390
:1030970054802F9005DFF07F8A126B8A7F40126B76
:1030A7008AC2927FC01263859005D8E0FF126385BC
:1030B7007F801263859005D9E0FF126385E4FF12D4
:1030C70063859005DAE0FF126385E4FF126385905C
:1030D70005DBE0FF126385E4FF1263859005DCE002
:1030E700FF126385E4FF1263859005DDE0FF12633D
:1030F70085E4FF1263859005DEE0FF126385E4FF38
:103107001263859005DFE0FF126385E4FF12638594
:02311700D29252
:013119002293
:0572E5007F80026B8AAE
:10689D0012721E7F901268C31268057F011268C3C1
:1068AD001268057FC21268C31268057FE31268C3C0
:0668BD001268050272BD25
:106F950012721E7F901268C3126805E4FF1268C35F
:066FA5001268050272BD36
:1065F000E49003BFF0A3F012721E7F911268C312E1
:1066000068051269589003BFEFF01271E1126958E2
:106610009003C0EFF01272BD9003BFE0FEA3E0FD57
:02662000EDFF8C
:016622002255
:086E9B00900333EFF0A3EDF0CA
:106EA300E4A3F0A37418F07B017A0379357F02021F
:026EB3003E544B
:05718D009003B2EFF0D9
:0971920012689D126F951265F060
:01719B0022D1
:105F2900120E72F59D900001120E8BFFE5BC549F75
:105F39004FF5BC900002120E8BB4010543BC808062
:105F49000353BC7F900003120E8BB40105439720C5
:105F590080035397DF900005120E8BB40104D2AD74
:105F69008002C2AD900004120E8BB40103D2BD228F
:035F7900C2BD2284
:0C71FB00EFB4010443BC802253BC7F228F
:105DC000EFD3940740028051E4F5BDF5BEE5BC5425
:105DD000E044084FF5BC00000000E4FBE5BC30E403
:105DE0003353BCEFE59730E509E5BD5403ADBEFC88
:105DF000801DAFBD7C00AD07ED7E007802C333CEC1
:105E000033CED8F9FFE5BE5403FDEEFCEF4DFDAFF8
:0D5E100005AE04220BEBB4FAC37E047F0044
:015E1D002262
:03002B000272EA74
:0472EA0053BCEF3270
:0F715F007D367C07ED1D70011C144C70F7DFF1BD
:01716E0022FE
:1066B500E4FCFDFB7A36796E7801120FEDE47B0C74
:1066C500FAF9F81261C67B407A42790F78001261B7
:0D66D500C6EF4E600800EF1F70F71E80F446
:0166E2002295
:0E71AA00E4F5C7F5C5F5C675C3FF75C4FF2231
:10628D00AD07AC06C2AF75C78075C501ECF5C3AFE0
:10629D00058FC475C65A75C6A500E5C2120EB80D98
:1062AD00BD00010C740129F9E43AFA90067D74FFE2
:0F62BD00F5F0120F8945F070D31271AAD2AF22FB
:106B4B00AD07AC06C2AFECF5C3AF058FC475C780FC
:106B5B0075C50375C65A75C6A5001271AAD2AF22A8
:1062CC00AD07AC06C2AF75C78075C502ECF5C3AFA0
:1062DC00058FC4120E72F5C275C65A75C6A5000D8F
:1062EC00BD00010C740129F9E43AFA90068474FF9C
:0F62FC00F5F0120F8945F070D31271AAD2AF22BC
:030003000272FC8A
:0172FC00325F
:030013000272FD79
:0172FD00325E
:030053000272FE38
:0172FE00325D
:03005B000272FF2F
:0172FF00325C
:0300830002730005
:01730000325A
:10506C00EFD3940440037F0122EF702D90000212C5
:10507C000E8BB40104D2A88002C2A8900001120EBB
:10508C008BB40104D2B88002C2B8120E72B40104FF
:10509C00D2888002C2887F0022EF6401702D9000BC
:1050AC0002120E8BB40104D2AA8002C2AA90000193
:1050BC00120E8BB40104D2BA8002C2BA120E72B4B0
:1050CC000104D28A8002C28A7F0022EFB4021490BB
:1050DC000002120E8BB40105438F108003538FEF27
:1050EC007F0022EFB40314900002120E8BB4010562
:1050FC00438F208003538FDF7F0022EFB404149082
:10510C000002120E8BB40105438F408003538FBFF6
:06511C007F00227F022249
:0372F100A21222C4
:103E5400EFD3940540037F0122120E72FED3940324
:103E640040037F0222EF7041EE700B900001120EAE
:103E74008BF452935294120E72B4010B90000112FF
:103E84000E8B4293F45294120E72FEB4020A900006
:103E940001120E8B42934294EEB4030D9000011272
:103EA4000E8BFEF45293EE4294EF64017043120EB3
:103EB40072FE700B900001120E8BF452915292EE2E
:103EC400B4010B900001120E8B4291F45292120E27
:103ED40072B4020A900001120E8B42914292120EA9
:103EE40072B4030D900001120E8BFEF45291EE4257
:103EF40092EF64027043120E72FE700B9000011276
:103F04000E8BF452955296EEB4010B900001120EF2
:103F14008B4295F45296120E72B4020A900001126A
:103F24000E8B42954296120E72B4030D900001124C
:103F34000E8BFEF45295EE4296EF64037043120E1C
:103F440072FE700B900001120E8BF452B152B2EE5D
:103F5400B4010B900001120E8B42B1F452B2120E56
:103F640072B4020A900001120E8B42B142B2120ED8
:103F740072B4030D900001120E8BFEF452B1EE42A6
:103F8400B2EF64047043120E72FE700B90000112C3
:103F94000E8BF452B352B4EEB4010B900001120E26
:103FA4008B42B3F452B4120E72B4020A900001129E
:103FB4000E8B42B342B4120E72B4030D9000011280
:103FC4000E8BFEF452B3EE42B4EF64057043120E4E
:103FD40072FF700B900001120E8BF452C952CAEF9B
:103FE400B4010B900001120E8B42C9F452CA120E96
:103FF40072B4020A900001120E8B42C942CA120E18
:1040040072B4030D900001120E8BFFF452C9EF42FB
:04401400CA7F00223D
:0771B800C2A31271BFD2A4B3
:0671BF0000007F39DFFE35
:0171C50022A7
:0A721E00D2A31271BAC2A30271BF1D
:0672BD001271B8D2A322F9
:0D71E100C2A41271B8C2A41271BFD2A322C1
:04680100FF1268C357
:10680500E4FEC2A41271BFD2A3D2A41271BF30A3F9
:106815000DEEC394FF50070EA2A3920980F0C2A407
:02682500A209C6
:01682700224E
:0A722800D2A3C2A41271BAC2A422BC
:10695800E4FEFDD2A41271BFEE25E0FE1271BF3035
:10696800A3054401FE8000C2A41271BF0DEDB40856
:03697800E2AF0685
:01697B0022F9
:0268C300AE071E
:1068C500E4FDC2A41271BFEE5480FFC41313135428
:1068D5000124FF92A31271BAEE25E0FE0DEDB40876
:0368E500E1C2A469
:0168E800228D
:106F4F00AC05AE0712721EAF061268C3126805AF0A
:096F5F00041268C3126805D32274
:0B65520090068EEBF0A3EAF0A3E9F046
:10655D00126F4FE4FC900691E0FFECC39F50199031
:10656D00068EE0FBA3E475F001120F9FA9F0FA125D
:0B657D000E721268010C80DD0272BD7E
:105F7C00900694EBF0A3EAF0A3E9F0900692EFF010
:105F8C00126F4F12721EE04401126801E4FC90067D
:105F9C0097E0FFECC39F5025126958900694E0FBE4
:105FAC00A3E475F001120F9FA9F0FAEF120EB8904E
:105FBC000697E0146C60031271E10C80D112722808
:035FCC000272BDA1
:1051D100EF7034D3ED9498EC940340047C037D98F4
:1051E100C3ED9450EC940050047C007D50C2DE90DD
:1051F10005C4ECF0A3EDF0C374E89D9005BFF07415
:10520100039C9005BE8073EF64017034D3ED946804
:10521100EC940B40047C0B7D68C3ED9450EC94003E
:1052210050047C007D50C2DE9005C6ECF0A3EDF089
:10523100C374B89D9005C1F0740B9C9005C0803A71
:10524100EF64027038D3ED9480EC940740047C073E
:105251007D80C3ED9450EC940050047C007D50C2DD
:10526100DE9005C8ECF0A3EDF0AE04FFC374D09F4F
:0E5271009005C3F074079E9005C2F0D2DE22B5
:1041B8009006F1EBF0A3EAF0A3E9F0AD07EDD39494
:1041C800034003024356ED6403704CC2DEF5F9F573
:1041D800E99006F1E0FBA3E0FAA3E0F9120E72FF02
:1041E800E5A254CF4FF5A2900001120E8BFFE5D93E
:1041F80054F14FF5D9900004120E8B5401FFE5D904
:1042080054FE4FF5D9900005120E8BB40104D2BFAD
:104218008002C2BFD2DE229006F1E0FBA3E0FAA33F
:10422800E02404F9E43AFA120E725431120EB890EE
:1042380006F1E0FBA3E0FAA3E0F9900002120E8B6E
:10424800C39448400FE92404F9E43AFA120E725470
:10425800CF120EB8ED704F9006F1E0FBA3E0FAA381
:10426800E0F9900004120E8BFF900002120E8BFEF4
:104278004FF5DA900003120E8BFFE5F2543F4FF52D
:10428800F2900006120FB5FBAAF09005C4EAF0A35D
:10429800EBF0C20A9005BBEEF09005CAEAF0A3EB7A
:1042A800F0F5EAEAF5FAED6401704F9006F1E0FBEB
:1042B800A3E0FAA3E0F9900004120E8BFF9000022D
:1042C800120E8BFE4FF5DB900003120E8BFFE5F309
:1042D800543F4FF5F3900006120FB5FBAAF0900576
:1042E800C6EAF0A3EBF0C20B9005BCEEF09005CC4B
:1042F800EAF0A3EBF0F5EBEAF5FBED6402704F9002
:1043080006F1E0FBA3E0FAA3E0F9900004120E8B9B
:10431800FF900002120E8BFE4FF5DC900003120E88
:104328008BFFE5F4543F4FF5F4900006120FB5FDEE
:10433800ACF09005C8ECF0A3EDF0C20C9005BDEE12
:0F434800F09005CEECF0A3EDF0F5ECECF5FC22D7
:1045EF009006F5ECF0A3EDF09006F4EFF0705ED3CB
:1045FF00EB9464EA940040047A007B64C3EB94016B
:10460F00EA940050047A007B01C2DE9006F5E0FECA
:10461F00A3E0FFAD03AC02120EEC7C007D64120E22
:10462F00FE9005C4EEF0A3EFF07C007D64AF03AE07
:10463F0002120EFEC374019FFFE49EFE9006F5E08A
:10464F00FCA3E0FD120EEC9005BE0247249006F489
:10465F00E06401705DD3EB9464EA940040047A0047
:10466F007B64C3EB9401EA940050047A007B01C28F
:10467F00DE7C007D64AF03AE02120EFE9006F5E005
:10468F00FCA3E0FD120EEC9005C6EEF0A3EFF07C5C
:10469F00007D64AF03AE02120EFEC374019FFFE4F0
:1046AF009EFE9006F5E0FCA3E0FD120EEC9005C017
:1046BF0080639006F4E064027062D3EB9464EA9432
:1046CF000040047A007B64C3EB9401EA9400500429
:1046DF007A007B01C2DE7C007D64AF03AE02120E56
:1046EF00FE9006F5E0FCA3E0FD120EEC9005C8EE7F
:1046FF00F0A3EFF0AE02AF037C007D64120EFEC399
:10470F0074019FFFE49EFE9006F5E0FCA3E0FD120E
:0D471F000EEC9005C2EEF0A3EFF0D2DE220A
:03003B00025477F5
:10547700C0E0C083C082C0D075D000C006C007306E
:10548700D82AC2D830A5059005C480039005BEE090
:10549700FEA3E0FF9005CBE02FF09005CAE03EF0B9
:1054A7009005CAE0FEA3E0F5EAEEF5FA30D92AC284
:1054B700D930A6059005C680039005C0E0FEA3E09D
:1054C700FF9005CDE02FF09005CCE03EF09005CCA5
:1054D700E0FEA3E0F5EBEEF5FB30DA2AC2DA30A7FF
:1054E700059005C880039005C2E0FEA3E0FF900584
:1054F700CFE02FF09005CEE03EF09005CEE0FEA382
:10550700E0F5ECEEF5FCD007D006D0D0D082D08302
:03551700D0E032AF
:105CFE00900703ECF0A3EDF0AB07900703E0FEA3D3
:105D0E00E0FFE4FCFDEB75F00AA42495F582E43483
:105D1E0004F58312116C43BA8053F57FEB75F00ACC
:105D2E00A4249EF582E43404F583E0FF7E00900700
:105D3E0003E0FCA3E0FD120EECAB07AA06E4F9F8B3
:105D4E00FF7E367D6E7C011261C6126BA953BA7F3F
:015D5E002222
:106EB500EF75F00AA42495F582E43404F583E0FC2B
:0A6EC500A3E0FDA3E0FEA3E0FF221E
:104E00009006CAEFF07F337E337D737C3FA3E0F8DA
:104E1000A3E0F9A3E0FAA3E0FB120A9E600C400AAB
:104E20009006CB1211783F7333337FCD7ECC7DCC8F
:104E30007C3C9006CBE0F8A3E0F9A3E0FAA3E0FB0A
:104E4000120A9E500A9006CB1211783CCCCCCD9021
:104E500006CBE0FCA3E0FDA3E0FEA3E0FF9006CAC2
:104E6000E0FB75F00AA4249AF582E43404F5831279
:104E7000116C43BA80EB75F00AA4249EF582E434E9
:104E800004F583E0FFE4FCFDFEEB75F00AA4249535
:104E9000F582E43404F583E0F8A3E0F9A3E0FAA393
:104EA000E0FB120FEDA804A905AA06AB077F007E60
:104EB000367D6E7C01121078E4120B0B9006CBE06D
:104EC000F8A3E0F9A3E0FAA3E0FB1208F8120B49FB
:104ED000AB07AA069006CAE0FF7D0A7C0012565373
:044EE00053BA7F2220
:106ECF00EF75F00AA4249AF582E43404F583E0FC0C
:0A6EDF00A3E0FDA3E0FEA3E0FF2204
:10711C00EF75F00AA4249EF582E43404F583EDF0B7
:01712C002240
:10712D00EF75F00AA4249EF582E43404F583E0FFA4
:01713D00222F
:0A72320043BA8043F58053BA7F226F
:0A723C0043BA8053F57F53BA7F2256
:1067610043BA807401A807088002C333D8FC42F5FC
:10677100EF75F00AA42499F582E43404F5837401D9
:08678100F043F58053BA7F22BA
:1069330043BA807401A807088002C333D8FCF45219
:10694300F5EF75F00AA42499F582E43404F583E4A1
:05695300F053BA7F22A1
:1070B500EF75F00AA42499F582E43404F583E024FD
:0270C500FF22A8
:0529ED00900705EFF06A
:1029F200E4A3F0900706E0FFC39406505AEF75F087
:102A02000AA42495F582E43404F5831211780000B7
:102A12000000900706E0FF75F00AA42499F582E40D
:102A22003404F583E4F0EF75F00AA4249AF582E405
:102A32003404F58312117800000000900706E07557
:102A4200F00AA4249EF582E43404F5837401F09024
:102A52000706E004F0809C43BA80120E72B40105AE
:102A620043F180800353F17F900001120E8BB40179
:102A720014900705E0FF7401A807088002C333D849
:102A8200FC42F18013900705E0FF7401A80708805B
:102A920002C333D8FCF452F1900002120E8BB4013F
:102AA2000543F540800353F5BF900003120E8BB42B
:102AB2000114900705E0FF7401A807088002C333E0
:102AC200D8FC42F58013900705E0FF7401A80708BF
:102AD2008002C333D8FCF452F5900004120E8BB47A
:102AE200010575F720800353F7DF900005120E8B66
:102AF200B4010575F710800353F7EF900006120E2C
:102B02008BB4010575F708800353F7F7900007129D
:102B12000E8BB4010575F704800353F7FB90000890
:102B2200120E8BB4010575F702800353F7FD900076
:102B320009120E8B90FFF27006E054EFF08004E071
:102B42004410F090FFF2C083C082E0FF90000A12AE
:102B52000E8BFEEF4ED082D083F0900705E014601A
:102B620072147003022C28147003022C7B1470035D
:102B7200022CCE147003022D1F24056003022D7651
:102B820090000B120E8B90FF047006E054F7F08059
:102B920004E04408F090000C120E8B90FF04B40184
:102BA20006E04404F08004E054FBF090000D120EA5
:102BB2008B90FF04B40106E04402F08004E054FD6F
:102BC200F090000E120E8B90FF04B40103022D6CE4
:102BD200022D7290000B120E8B90FF147006E054BF
:102BE200F7F08004E04408F090000C120E8B90FF86
:102BF20014B40106E04404F08004E054FBF09000B9
:102C02000D120E8B90FF14B40106E04402F0800412
:102C1200E054FDF090000E120E8B90FF14B40103ED
:102C2200022D6C022D7290000B120E8B90FF2470FD
:102C320006E054F7F08004E04408F090000C120E15
:102C42008B90FF24B40106E04404F08004E054FBBE
:102C5200F090000D120E8B90FF24B40106E04402A6
:102C6200F08004E054FDF090000E120E8B90FF24D1
:102C7200B40103022D6C022D7290000B120E8B9088
:102C8200FF347006E054F7F08004E04408F090004E
:102C92000C120E8B90FF34B40106E04404F0800461
:102CA200E054FBF090000D120E8B90FF34B401063D
:102CB200E04402F08004E054FDF090000E120E8B0E
:102CC20090FF34B40103022D6C022D7290000B129E
:102CD2000E8B90FF447006E054F7F08004E0440845
:102CE200F090000C120E8B90FF44B40106E04404F5
:102CF200F08004E054FBF090000D120E8B90FF4424
:102D0200B40106E04402F08004E054FDF090000EAD
:102D1200120E8B90FF44B40102804F805390000B3F
:102D2200120E8B90FF547006E054F7F08004E044DA
:102D320008F090000C120E8B90FF54B40106E04490
:102D420004F08004E054FBF090000D120E8B90FF13
:102D520054B40106E04402F08004E054FDF0900017
:102D62000E120E8B90FF54B40106E04401F0800471
:102D7200E054FEF090000F120E8BB4010443F58074
:042D82002253F57F64
:012D8600222A
:106BA900D3E49F74809E90FFF1400AEFF0EE90FFCE
:0F6BB900F0F07F002274FFF090FFF0747FF02265
:10565300EF14602814603A14604C14605E14607098
:10566300240560030256EA90FF01EDF0EC90FF0081
:10567300F090FF03EBF0EA90FF02806790FF11EDDB
:10568300F0EC90FF10F090FF13EBF0EA90FF128024
:105693005290FF21EDF0EC90FF20F090FF23EBF010
:1056A300EA90FF22803D90FF31EDF0EC90FF30F067
:1056B30090FF33EBF0EA90FF32802890FF41EDF04A
:1056C300EC90FF40F090FF43EBF0EA90FF42801331
:1056D30090FF51EDF0EC90FF50F090FF53EBF0EAA8
:0A56E30090FF52F07F00227F0122A9
:10581200900001120E8BB4010553CE7F800343CE5C
:1058220080120E72B4010543CE40800353CEBF9066
:105832000002120E8BB4010543CE20800353CEDF4B
:10584200900003120E8B700553CEEF800343CE10EF
:10585200900004120E8BB4010543CE08800353CE90
:10586200F7900005120E8B700543CE04800353CED1
:10587200FB900006120E8BB4010543AF0280035366
:10588200AFFD900007120E8B5403FFE5CE54FC4F80
:10589200F5CE900008120E8BFFE5A254F34FF5A24D
:0158A20022E3
:0B721300EF700453CEEF2243CE102298
:106FE8009006DEE02443F8A607E004F0C3942040AE
:046FF80002E4F0229D
:106BC800EDD394205018E4FEEEC39D5011120E72BE
:0E6BD800FF126FE8740129F9E43AFA0E80EA20
:016BE600228C
:106828009006DEE0FF9006DCE06F601A7F011272CE
:10683800139006DCE02443F8E6FFE004F0C394205C
:066848004002E4F08FCFD6
:01684E002227
:10697C009006DDE0FF9006DBE0FEB507037F00220A
:10698C0074232EF8E6FF9006DBE004F0C39420405D
:03699C0002E4F022
:01699F0022D5
:106D9600AD07EDD3942040037F0022EDD39401404C
:0A6DA6000612697C1D80F412697C5E
:016DB00022C0
:03004B00025ED47E
:105ED400C0E0C083C082C0D075D000C000C006C07E
:105EE400079006DEE0FF9006DCE0FE6F6025A3E08D
:105EF4002423F8A6CFE004F0C394204002E4F07415
:105F0400432EF8E6F5CF9006DCE004F0C39420407D
:105F140002E4F075CDC0D007D006D000D0D0D08236
:055F2400D083D0E03243
:105397004105970041059800420599000042059B89
:1053A7000000420593000042059100004105A50059
:1053B70041059000410596004105950044059D0073
:0A53C7000000004405A100000000F2
:105D5F00E490034BF0900333F0A304F0A3F0E4A31B
:105D6F00F0A3F090033AF090033874A2F0A37440BC
:105D7F00F0E490033BF0A304F0A3F0A3F0E490034E
:105D8F0042F0A3F0A304F0A3F0A3F0E490034AF0D1
:105D9F007B017A0379337F0412360C7B017A037906
:105DAF003B7F0212360C7B017A0379437F03023665
:015DBF000CD7
:10671000900597E064026020A3E06402601AEF2411
:10672000FE600B04701290059DECF0A3EDF0AF0538
:096730009005A1ECF0A3EFF022AA
:106EE900EF24FE600804700E90059D80039005A1B3
:0A6EF900E0FEA3E0FF22E4FEFF220A
:106D2900EF24FE600C04701390059FECF0A3EDF0C6
:0C6D390022AF059005A3ECF0A3EFF022C0
:106F0300EF24FE600804700E90059F80039005A394
:0A6F1300E0FEA3E0FF22E4FEFF22EF
:0D71EE00EF14700853D17FE4900597F02254
:106BE700EF24FE600E047016900597E0B40202D3FE
:0F6BF70022C322900598E0B40203D38001C32289
:106C0600EF24FE600E047016900597E0B40102D3DF
:0F6C160022C322900598E0B40103D38001C3226A
:106CB800EF24FE600D047014900597E07002D32253
:0D6CC800C322900598E07003D38001C32221
:106FAB00AE07126BE7400DEF14700943D1809005CB
:056FBB00977402F022B2
:0E71C600AE07126C065005126FABD322C32227
:09729700900593E0FEA3E0FF2244
:0972A000900591E0FEA3E0FF223D
:0672C3009005A5E0FF228A
:0672C900900590E0FF2299
:0672CF00900596E0FF228D
:0672D500900595E0FF2288
:0300A3000260AE4A
:1060AE00C0E0C0F0C083C082C0D075D000C000C0B8
:1060BE0006900599E475F001120F89FED390059EA6
:1060CE00E095F090059DE09E500F53D17F9005997D
:1060DE00E4F0A3F090059704F0D006D000D0D0D015
:0860EE0082D083D0F0D0E03233
:10360C00AD07EDD3940440037F0122ED7073120ECD
:10361C0072FED3940340037F0222C28CC2A9C2B9AA
:10362C005389F0538E7F538FFE900002120E8BB491
:10363C000102D2A9900001120E8BB40102D2B9EE94
:10364C004289900003120E8BFF7003438E80EFB4FF
:10365C000203438904900004120E8BB40103438FC0
:10366C0001900005120FB5E5F0F58C900005120FD6
:10367C00B5F58A900007120E8BB40102D28C7F0034
:10368C0022ED64016003023718C28E900002120E04
:10369C008BB40104D2AB8002C2AB900001120E8B32
:1036AC00B40104D2BB8002C2BB120E72FEC39403DF
:1036BC0040037F0222E58954CF4EF5899000031216
:1036CC000E8BFFB40103538EBFEF7003438E40EF9C
:1036DC00B4020543894080035389BF900004120E45
:1036EC008BB40105438F028003538FFD90000512AC
:1036FC000FB5E5F0F58D900005120FB5F58B900028
:10370C0007120E8BB40102D28E7F0022ED64027080
:10371C0078538EEF900002120E8BB4010543AF0468
:10372C00800353AFFB900003120E8BFED394024028
:10373C00037F0222EEB40103538EFB900003120EA2
:10374C008B7003438E04900003120E8BB40205435E
:10375C008E088003538EF7900004120E8BB4010573
:10376C00438F048003538FFB900005120FB5E5F0D7
:10377C00F5D6900005120FB5F5D7900007120E8BF9
:10378C00B40103438E107F0022ED6403706090003F
:10379C0003120E8BFED3940240037F022253D1F00E
:1037AC0053AFDF900002120E8BB4010343AF20EE37
:1037BC00700343D102900003120E8BB4020343D169
:1037CC0006900004120E8BB4010343D10190000546
:1037DC00120FB5E5F0F5D4900005120FB5F5D590A4
:1037EC000007120E8BB4010343D1087F0022ED6455
:1037FC0004705C900003120E8BFED3940240037F86
:10380C00022253D10F53AFBF900002120E8BB401A2
:10381C000343AF40EE700343D120900003120E8B94
:10382C00B4020343D160900005120FB5FDACF0EC6F
:10383C00F5D28DD3900007120E8BB4010343D180C7
:10384C00900004120E8BB4010343D1107F00227F31
:02385C00022246
:10713E0090028DEBF0A3EAF0A3E9F0900270EDF06F
:01714E00221E
:10123700900341EBF0A3EAF0A3E9F0900340EFF04D
:101247006401600302144990000004F0E4A3F0A3D2
:10125700F0A3F0A3F0A3F0A3F0900344F0900344AD
:10126700E0FFC39480501474382FF582E43401F5FD
:1012770083E4F0900344E004F080E2E4900344F058
:10128700900344E0FFC394805014741C2FF582E44C
:101297003400F583E4F0900344E004F080E2900327
:1012A70041E0FBA3E0FAA3E0F9120E72D394C04029
:1012B700037F022290000A120E8BB40104D2BC8075
:1012C70002C2BC120E72FFE598543F4FF598EF64C7
:1012D700C06008EF644060030213C390000212115C
:1012E7003C7F807E8D7D5B7C0012107890034512D9
:1012F700116CE4FFFE7D01FC900345E0F8A3E0F9E3
:10130700A3E0FAA3E0FBC312111840037F02229067
:101317000345E0F8A3E0F9A3E0FAA3E0FBC3E49BED
:10132700FFE49AFE740199FDE498FC9003451211BD
:101337006C900341E0FBA3E0FAA3E0F990000112EF
:101347000E8BFB64017038C28E538EFE5389BF53D8
:1013570089CF438E40900345E0FCA3E0FDA3E0FE68
:10136700A3E0FF78081211298F8D900345A3A3A34B
:10137700E0F58BC2AB5389BF538FFDD28E8076EBDE
:1013870064027035538EEF438E01538EF7438E04FC
:10139700900345E0FCA3E0FDA3E0FEA3E0FF78088F
:1013A7001211298FD6900345A3A3A3E0F5D753AF16
:1013B700FB538EF7438E10803C7F0222900341E05F
:1013C700FBA3E0FAA3E0F9120E72FF701390000876
:1013D700120E8BB40105438E20801A538EDF8015C1
:1013E700EFB48011900008120E8BB401054387807B
:1013F700800353877F900341E0FBA3E0FAA3E0F962
:10140700900009120E8BB40104D2AC8002C2AC90DA
:101417000007120E8BB40104D29C8002C29C90007C
:101427000B120E8B54C0FFE5A2543F4FF5A290005C
:101437000C120E8BB4010543971080035397EF7F6F
:101447000022900340E0640260030215AB9000079E
:101457007402F0E4A3F0A3F0A3F0A3F0A3F0A3F0C9
:10146700900344F0900344E0FFC39480501474D475
:101477002FF582E43401F583E4F0900344E004F0AF
:1014870080E2E4900344F0900344E0FFC39480506B
:1014970014749C2FF582E43400F583E4F090034440
:1014A700E004F080E2900341E0FBA3E0FAA3E0F957
:1014B700120E72FF64C06008EF6440600302156B90
:1014C70090000A120E8BB4010543B501800353B592
:1014D700FE120E72B4C005439A808003539A7F9020
:1014E700000212113C7F807E8D7D5B7C001210789C
:1014F70090034512116CE4FFFE7D01FC900345E06B
:10150700F8A3E0F9A3E0FAA3E0FBC3121118400324
:101517007F0222900345E0F8A3E0F9A3E0FAA3E0F5
:10152700FBC3E49BFFE49AFE740199FDE498FC90E9
:10153700034512116C538EEF538EF7438E049003BD
:1015470045E0FCA3E0FDA3E0FEA3E0FF780812114D
:10155700298FD6900345A3A3A3E0F5D753AFFB4349
:101567008E1080037F0222900341E0FBA3E0FAA3E1
:10157700E0F9900009120E8BB4010543AF01800317
:1015870053AFFE900007120E8BB40105439A1080EB
:1015970003539AEF90000B120E8B5401FFE5BA54D8
:1015A700FE4FF5BA900340E06403600302175E90B4
:1015B700000E7402F0E4A3F0A3F0A3F0A3F0A3F0ED
:1015C700A3F0900344F0900344E0FFC3941C50142D
:1015D70074542FF582E43402F583E4F0900344E079
:1015E70004F080E2E4900344F0900344E0FFC394E6
:1015F7001C5014741C2FF582E43401F583E4F09039
:101607000344E004F080E2900341E0FBA3E0FAA387
:10161700E0F9120E72FF64C06008EF6440600302D5
:10162700171E53ACDFEFB4C00543AC80800353AC47
:101637007F900341E0FBA3E0FAA3E0F990000212D8
:10164700113C7F807E8D7D5B7C0012107890034576
:1016570012116CE4FFFE7D01FC900345E0F8A3E066
:10166700F9A3E0FAA3E0FBC312111840037F02229B
:10167700900345E0F8A3E0F9A3E0FAA3E0FBC3E495
:101687009BFFE49AFE740199FDE498FC90034512D0
:10169700116C900341E0FBA3E0FAA3E0F99000018D
:1016A700120E8BFB6402703253ACBF538EEF538E16
:1016B700F7438E04900345E0FCA3E0FDA3E0FEA3FF
:1016C700E0FF78081211298FD6900345A3A3A3E062
:1016D700F5D753AFFB438E108040EB640170354361
:1016E700AC4053D1F053AFDF43D10253D1FB53D1B9
:1016F700FE900345E0FCA3E0FDA3E0FEA3E0FF7836
:10170700081211298FD4900345A3A3A3E0F5D5436D
:10171700D10880067F02227F0222900341E0FBA3CB
:10172700E0FAA3E0F9900009120E8BB4010543AF6C
:1017370008800353AFF7900007120E8BB4010543DF
:10174700AC10800353ACEF90000B120E8B5402FFCA
:10175700E5BA54FD02190E900340E06404600302E9
:1017670019149000157402F0E4A3F0A3F0A3F0A3FA
:10177700F0A3F0A3F0900344F0900344E0FFC39478
:101787001C501474712FF582E43402F583E4F09051
:101797000344E004F080E2E4900344F0900344E063
:1017A700FFC3941C501474B82FF582E43401F583F9
:1017B700E4F0900344E004F080E2900341E0FBA3EF
:1017C700E0FAA3E0F9120E72FF64C06008EF64400C
:1017D70060030218D15384DFEFB4C00543848080CF
:1017E7000353847F900341E0FBA3E0FAA3E0F99061
:1017F700000212113C7F807E8D7D5B7C0012107889
:1018070090034512116CE4FFFE7D01FC900345E057
:10181700F8A3E0F9A3E0FAA3E0FBC3121118400311
:101827007F0222900345E0F8A3E0F9A3E0FAA3E0E2
:10183700FBC3E49BFFE49AFE740199FDE498FC90D6
:10184700034512116C900341E0FBA3E0FAA3E0F912
:10185700900001120E8BFB640270325384BF538ECB
:10186700EF538EF7438E04900345E0FCA3E0FDA3FE
:10187700E0FEA3E0FF78081211298FD6900345A355
:10188700A3A3E0F5D753AFFB438E108040EB640270
:10189700703543844053D10F53AFBF43D12053D149
:1018A700BF53D1EF900345E0FCA3E0FDA3E0FEA307
:1018B700E0FF78081211298FD2900345A3A3A3E074
:1018C700F5D343D18080067F02227F022290034115
:1018D700E0FBA3E0FAA3E0F9900009120E8BB40134
:1018E7000543AF10800353AFEF900007120E8BB480
:1018F700010543841080035384EF90000B120E8B75
:0F1907005404FFE5BA54FB4FF5BA7F00227F036B
:0119160022AE
:10684F00900002E02438F582E43401F583EFF090F4
:10685F000002E004F0C394804002E4F0900003E0F3
:07686F00700404F0D299222D
:10678900900009E024D4F582E43401F583EFF09018
:106799000009E004F0C394804002E4F090000AE0AC
:0867A900700504F0439A02227E
:1067B100900010E02454F582E43402F583EFF09068
:1067C1000010E004F0C3941C4002E4F0900011E0DA
:0867D100700504F043AC022244
:1067D900900017E02471F582E43402F583EFF0901C
:1067E9000017E004F0C3941C4002E4F0900018E0A4
:0867F900700504F04384022244
:106F6800C2AF120E72FF600C12684F740129F9E467
:076F78003AFA80EED2AF22CD
:10702200120E72FF600C126789740129F9E43AFAB0
