:024252003C9B93
:0242540043EA3B
:0242560043EE35
:0242580043EC35
:02425C00420915
:02425E004266B6
:0242600040819B
:024262003CC15D
:0242640040B761
:0A344F004206550000420657000037
:103C9B00123F457F04123D9F7F03121AC07F05120E
:103CAB001AC07F07121AC07F08121AC07F09121A96
:063CBB00C0E4FF021B49FA
:0243EA0080FE53
:0143EE0022AC
:0243EC0080FE51
:1042090090032E120E8100000000123752E4FBFACF
:094219007D027F80121BD280F1AE
:10426600E490045EF0A3F0E4FBFA7DE87F80121B85
:03427600D280F4FF
:104081007F08123F8150051243D680031243DBE4BF
:0B409100FBFA7D057F80121BD280E54A
:103CC100D208123550E4FBFA79487842120A9E5024
:103CD100051243D680031243DBE4FBFA7D017F80AA
:053CE100121BD280DB84
:1040B700D2081235509004897401F0123A6DE4FB6E
:0A40C700FA7D147F80121BD280E600
:103B060090028C7440F0A37402F0A3120E7590021A
:103B1600937401F0E4A3F0A304F0A3F0E4A3F0A3EC
:0C3B2600F07B017A02798C7F01020EE82E
:103F45007F007EC27D017C00123B06122E8D123B46
:0E3F550086123EE8E4FD7F01124011D2AF2239
:0143EF0022AB
:0143F00022AA
:0143F10022A9
:0143F20022A8
:0143F30022A7
:03000B0002195384
:10194E00C2AF80FE3212195285D00B75D008AAE0B4
:10195E00C28CE58A2443F58AE58C34F6F58CD28C5C
:10196E00EC240FF8E6BC090274FFC39581B4140091
:10197E0040CE790A782216E608700BC2AFE630E147
:10198E00034418F6D2AF08D9EDEA8BD03009012204
:10199E00D50DFCC0E0C0D0C0F0C083C082C000C076
:1019AE0001C002C003C004C005C006C007E50C2379
:1019BE002423F87440C2AF46F6D2AFD209E50CFF2D
:1019CE00232423F80F0808BF0A047F007823E6308B
:1019DE00E4F200E50CC39F5020050C740E250CF8A4
:1019EE00E6FDA68108E6AE0CBE090274FFCDF8E84E
:1019FE006D60E008E6C0E080F6E50CD39F4027E579
:101A0E000C240FF8E6AE0CBE090274FFFD18E6CDED
:101A1E00F8E5816D6006D0E0F61880F5E50C240E31
:101A2E00C8F6150C80D3750D0AE50C232423F87F18
:101A3E0004C2AFE610E61E30E00310E20C7F003069
:101A4E00E10730E3047F0854F4547CC6D2AF5480CF
:101A5E004207C20922F6D2AFD007D006D005D00475
:101A6E00D003D002D001D000D082D083D0F0D0D01D
:0E1A7E00D0E0C20922780EA68174096006FF2E
:101A8C000876FFDFFB7F0AE47822F608F608DFFA17
:101A9C0078237630904252740193C0E0E493C0E016
:101AAC00750D0A438901758A3C758CF6D28CD2AFC0
:041ABC00D2A9220980
:10345900602A055200000000000000000000000082
:103469000000000000000000000000000000000053
:0E347900000000000000000000000000000045
:102DE300900497EBF0A3EAF0A3E9F0900003120B31
:102DF300E3FF900493E0FBA3E0FAA3E0F9A3E0FE72
:102E0300F582758300EF120C22900497E0FBA3E098
:102E1300FAA3E0F9900002120BE3FFEE2401FDE4B4
:102E230033FC900493E0FBA3E0FAA3E0F98D828CDA
:102E330083EF120C22900497E0FBA3E0FAA3E0F9DE
:102E4300900001120BE3FFEE2402FDE433FC900437
:102E530093E0FBA3E0FAA3E0F98D828C83EF120CDD
:102E630022900497E0FBA3E0FAA3E0F9120BCAFF58
:102E7300EE2403FDE433FC900493E0FBA3E0FAA308
:0A2E8300E0F98D828C83EF020C222F
:103A6D00900489E090048FF01228A6E490048AF067
:103A7D00900489E0FF122F3690048AE0FEC39F5018
:103A8D001774522EF582E43405F583E0FF123C7471
:083A9D0090048AE004F080D8D7
:013AA50022FE
:1028A60090048B120E7590048FE0FFD3940A4003B8
:1028B6000229D9EF70030229D9EF14B40A004003A4
:1028C6000229D99028D775F003A4C58325F0C583BE
:1028D600730228F502290B022922022939022950FE
:1028E60002296602297C0229920229A80229BE90A1
:1028F60004937401F0A37405F0A37452F0A3740159
:10290600F0FB0229D29004937401F0A37405F0A39E
:102916007452F0A37405F07B010229D290049374DB
:1029260001F0A37405F0A37452F0A37409F07B01BF
:102936000229D29004937401F0A37405F0A3745293
:10294600F0A3740DF07B010229D29004937401F078
:10295600A37405F0A37452F0A37411F07B01806C8C
:102966009004937401F0A37405F0A37452F0A37459
:1029760015F07B0180569004937401F0A37405F062
:10298600A37452F0A37419F07B01804090049374F1
:1029960001F0A37405F0A37452F0A3741DF07B013B
:1029A600802A9004937401F0A37405F0A37452F086
:1029B600A37421F07B0180149004937401F0A37436
:1029C60005F0A37452F0A37425F07B017A04798B89
:0429D600122DE322B9
:102F3600EFD3940A5003EF70037F0022900552747A
:102F460024F0EF14B40A004003022FD8902F6075C6
:102F5600F003A4C58325F0C58373022F7E022F8755
:102F6600022F90022F99022FA2022FAB022FB4023A
:102F76002FBD022FC6022FCF9005577405F07F068E
:102F86002290055B7409F07F0A2290055F740DF0AC
:102F96007F0E229005637411F07F122290056774EC
:102FA60015F07F162290056B7419F07F1A22900592
:102FB6006F741DF07F1E229005737421F07F22220C
:102FC6009005777425F07F262290057B7429F07F83
:052FD6002A227F002209
:08348700C100C101C102C10333
:103EE80090028D7478F0E490028CF07B017A02796C
:0E3EF8008C7F0212203ED2A3D2A4D2A5D2A665
:013F06002298
:0A438200EF4E7005EE4F24FFB3224A
:103F8100EF24F0600F24F0600E24E0600D243870FF
:0D3F91000BA20022A20122A20222A2032202
:10375200A2A3E4FE33FF124382500EA2A3E433FF7E
:103762001243825006D2008002C200A2A4E4FE33B9
:10377200FF1243825007200106D2018002C201A239
:10378200A5E4FE33FF1243825007200206D20280D4
:1037920002C202A2A6E4FE33FF12438250062003B5
:0737A20005D20322C203223D
:02348F00C10A70
:103B860090028D7405F0E490028CF07B017A027944
:103B96008C7F0512203E1243D67FC812433D124346
:073BA600DB7FC812433DD391
:013BAD0022F5
:0543D600C2CDD20A2255
:0543DB00D2CDC20A2250
:103D9F0090028CEFF090028CE0FF14F0EF601212A3
:103DAF0043D67FC812433D1243DB7FC812433D8089
:023DBF00E422FC
:0343E400A20A2208
:0643B200900678EFF022F6
:10311800900623EFF07F337E337D737C3FA3E0F886
:10312800A3E0F9A3E0FAA3E0FB120A9E600C400AB0
:10313800900624120E813F7333337FCD7ECC7D4CB5
:103148007C3D900624E0F8A3E0F9A3E0FAA3E0FBB5
:10315800120A9E500A900624120E813D4CCCCD9046
:103168000623E02404FFC007A3E0FCA3E0FDA3E0DE
:10317800FEA3E0FF90062E120E75D007122BC89002
:103188000624E0FCA3E0FDA3E0FEA3E0FF120B4948
:10319800900623E025E0245AF582E43406F583EF0F
:0231A800F02213
:103C260043BA80EF2404FE7401A806088002C33359
:103C3600D8FC42F553BA7FEF25E02459F582E434E7
:073C460006F5837401F02272
:103C4D0043BA80EF2404FE7401A806088002C33332
:103C5D00D8FCF452F553BA7FEF25E02459F582E4F0
:073C6D003406F583E4F022A8
:10432D00EF25E02459F582E43406F583E024FF22DD
:1035CA00E49005BFF0A37408F07B017A0579BF7F08
:1035DA000212203E9005C07404F07B017A0579BF7F
:1035EA007F0212203ED2A2D2A343BA80E49005C140
:1035FA00F0A3F0A3F0A304F0E4A3F0A3F0A3F0A3D4
:10360A00F0A3F0A3F0A3F0A3F0A3F0A3F0A3F0A318
:10361A00F07B017A0579C17F021215C87B017A0510
:0A362A0079C17F031215C853BA7F5F
:013634002273
:1042FA008D828C83EBFD7C00AA83AB821237A9D313
:01430A002290
:103AA60090065DEFF0A3ECF0A3EDF0A3EBF090062B
:103AB6005E74FFF5F0120CF745F0601390065DE0BA
:103AC600FF900660E0FB7D687C011242FA80DFD33E
:013AD60022CD
:1042B200EF75F006A424F0F582E43405F583E024DA
:0242C200FF22D9
:103FF500900679EFF0123B5C900679E075F006A427
:0C40050024F0F582E43405F583E4F02299
:103F9E0090067AEFF0123B3290067AE075F006A4A6
:0D3FAE0024F0F582E43405F5837401F0225F
:1040110090028CEFF0A3EDF0A37401F0E4A3F0A300
:0C402100F0A3F07B017A02798C02385287
:10355000E4900499F0300863F0E4FF123699900487
:1035600099E025E02485F582E43404F583EEF0A3A8
:10357000EFF0900499E004F0E0C3940A40DB7B0193
:103580007A04798590049E7404F0A3E4F0A3F0A378
:10359000F07D0A122770AC06AD07E4120B109006FE
:1035A00006120E75900606E0FCA3E0FDA3E0FEA364
:1035B000E0FFA3120E75900606800390060AE0FC59
:0935C000A3E0FDA3E0FEA3E0FF7F
:0135C90022DF
:10402D0090067BEFF0D2C87F0112433D90067BE0F6
:0C403D00F5C0D2CA7F0112433DC2CA2266
:103AD700900665EBF0A3EAF0A3E9F0900665E0FB3A
:103AE700A3E0FAA3E0F9120BCAFFD39400400F1228
:0F3AF700402D900666E475F001120CE180DD228F
:103FBB00123F63D2CCC2CAC2C97F381240497F0CB0
:0D3FCB001240497F061240497F0102404923
:1040490090067CEFF0C2C87F0112433DD2CA9006A8
:0C4059007CE0F5C07F0112433DC2CA228A
:103F630053C9EF43CA1053C9FE53CAFE53C9FD5385
:0E3F7300CAFD53C9FB53CAFBE4F5B3F5B422F3
:0143F40022A6
:05409C00900674EDF038
:1040A1001243B8900675EFF0900674E0FF1243B822
:0540B100900675E0FF20
:0140B60022E7
:0C436900EF4480FF1243B87FFF1243B8FE
:014375002225
:1036F700E4FD7F6B12409C7D077F1A12409C7D3052
:103707007F3712409C7D4D7F2412409C7D207F6A2D
:1037170012409C7D017F6712409C7D817F2712406C
:103727009C7D077F1912409C7D187F1B12409C7D52
:10373700187F1C12409C7D087F1D12409C7D017FD5
:0B3747000B123A337D127F0A023A3366
:10307E007F3C12436990058EEFF07F3B12436990BF
:10308E00058FEFF0FE90058EE0FDEDFF90057CEED6
:10309E00F0A3EFF07C007DA4120CAB90057CEEF05B
:1030AE00A3EFF07F3E124369900590EFF07F3D1243
:1030BE004369900591EFF0FE900590E0FDEDFF90D5
:1030CE00057EEEF0A3EFF07C007DA4120CAB900514
:1030DE007EEEF0A3EFF07F40124369900592EFF081
:1030EE007F3F124369900593EFF0FE900592E0FD4D
:1030FE00EDFF900580EEF0A3EFF07C007DA4120CA6
:0A310E00AB900580EEF0A3EFF02275
:102B07007F4412436990058EEFF07F43124369902B
:102B1700058FEFF0FE90058EE0FDEDFF900582EE4C
:102B2700F0A3EFF0AC06EC120B107B337A3379830A
:102B37007841120A01120B49900582EEF0A3EFF0DB
:102B47007F46124369900590EFF07F4512436990E5
:102B57000591EFF0FE900590E0FDEDFF900584EE06
:102B6700F0A3EFF0AC06EC120B107B337A337983CA
:102B77007841120A01120B49900584EEF0A3EFF099
:102B87007F48124369900592EFF07F47124369909F
:102B97000593EFF0FE900592E0FDEDFF900586EEC0
:102BA700F0A3EFF0AC06EC120B107B337A3379838A
:102BB7007841120A01120B49900586EEF0A3EFF057
:012BC70022EB
:1029DA007F101239FA900668EFF07F111239FA90D7
:1029EA000669EFF07F121239FA90066AEFF07F0259
:1029FA001239FAEF30E103022B067F031239FA90FB
:102A0A00058E1239F6EF5408FFBF010A7F03123907
:102A1A00FA90058EEFF07F041239FA90058F123979
:102A2A00F6EF5408FFBF010A7F041239FA90058FA6
:102A3A00EFF090058FE0FE90058EE0FDEEFCE424B9
:102A4A0001FFE433FE120C44900588EEF0A3EFF088
:102A5A007F051239FA9005901239F6EF5408FFBF34
:102A6A00010A7F051239FA900590EFF07F061239B4
:102A7A00FA9005911239F6EF5408FFBF010A7F0652
:102A8A001239FA900591EFF0900591E0FE900590C9
:102A9A00E0FDEEFCE42401FFE433FE120C44900551
:102AAA008AEEF0A3EFF07F071239FA9005921239F5
:102ABA00F6EF5408FFBF010A7F071239FA90059210
:102ACA00EFF07F081239FA9005931239F6EF54089D
:102ADA00FFBF010A7F081239FA900593EFF09005BB
:102AEA0093E0FE900592E0FDEEFCE42401FFE4335E
:0C2AFA00FE120C4490058CEEF0A3EFF0EF
:012B060022AC
:0643B80090067DEFF022EB
:0439F600EFF07F0966
:0539FA0090066BEFF0E8
:1039FF00A37413F0A37488F07D8C7F2512409C90E4
:103A0F00066BE0FD7F2612409C7DFF7F6312409C7A
:103A1F0090066C74FFF5F0120CF745F070F27F49C9
:033A2F00124369D6
:013A32002271
:083A3300900661EFF0A3EDF035
:103A3B00A37401F0A374F4F07D0C7F2512409C90CD
:103A4B000661E0FD7F2612409C900662E0FD7F63DD
:103A5B0012409C90066374FFF5F0120CF745F07062
:013A6B00F268
:013A6C002237
:0143F50022A5
:05430B0090067EEFF0BA
:0B431000E4FF00000FEFB408F900000C
:01431B00227F
:053491004205FA0000F5
:1037A900900628EFF090062BEAF0A3EBF09006299B
:1037B900ECF0FEA3EDF0FF123CE6900629E0FEA333
:1037C900E0FF900628E0FD75F005A424FEF582E4EB
:1037D9003405F583EEF0A3EFF090062BE0FEA3E0AD
:1037E900FFED75F005A424FCF582E43405F583EEBC
:0637F900F0A3EFF0D32263
:103B320043BA80EF2405FE7401A806088002C3334D
:103B4200D8FC42F553BA7FEF75F005A42400F58244
:0A3B5200E43406F5837401F0D32279
:103B5C0043BA80EF2405FE7401A806088002C33323
:103B6C00D8FCF452F553BA7FEF75F005A42400F598
:0A3B7C0082E43406F583E4F0D3225E
:1042C400EF75F005A42400F582E43406F583E024B8
:0242D400FF22C7
:0300B3000237FF12
:1037FF00C0E0C0F0C083C082C0D075D000C000C090
:10380F0006C007AFF6E4B50729E4B480259005FAA2
:10381F0075F001120CF7FED39005FDE095F09005C1
:10382F00FCE09E500DE4F0A3F043BA8053F57F53B4
:10383F00BA7FD007D006D000D0D0D082D083D0F0BE
:03384F00D0E03294
:1036350090062E120E813F0000007F05122BC890C8
:10364500062E120E813F0000007F04122BC843BADC
:1036550080E49005D1F0A3F0A3F0A304F0E4A3F077
:10366500A3F0A3F0A3F0A3F0A3F0A3F0A3F0A304A9
:10367500F0E4A3F0A304F0E4A3F07B017A0579D18B
:103685007F041215C87B017A0579D17F051215C80B
:0336950053BA7FA6
:01369800220F
:10385200120BCAF59D900001120BE3FFE5BC549FC9
:103862004FF5BC900002120BE3B4010543BC80800B
:103872000353BC7F900003120BE3B401054397206E
:1038820080035397DF900005120BE3B40104D2AD1D
:103892008002C2AD900004120BE3B40103D2BD2238
:0338A200C2BD2282
:0C437600EFB4010443BC802253BC7F2242
:10369900EFD3940740028051E4F5BDF5BEE5BC5473
:1036A900E044084FF5BC00000000E4FBE5BC30E451
:1036B9003353BCEFE59730E509E5BD5403ADBEFCD6
:1036C900801DAFBD7C00AD07ED7E007802C333CE0F
:1036D90033CED8F9FFE5BE5403FDEEFCEF4DFDAF47
:0D36E90005AE04220BEBB4FAC37E047F0093
:0136F60022B1
:03002B000243E0AD
:0443E00053BCEF32A9
:0F433D007D037C09ED1D70011C144C70F7DFF13E
:01434C00224E
:0343E700A20B2204
:10203E00EFD3940540037F0122120BCAFED3940303
:10204E0040037F0222EF7041EE700B900001120BE5
:10205E00E3F452935294120BCAB4010B9000011286
:10206E000BE34293F45294120BCAFEB4020A900090
:10207E0001120BE342934294EEB4030D9000011251
:10208E000BE3FEF45293EE4294EF64017043120B95
:10209E00CAFE700B900001120BE3F452915292EEB5
:1020AE00B4010B900001120BE34291F45292120B09
:1020BE00CAB4020A900001120BE342914292120B33
:1020CE00CAB4030D900001120BE3FEF45291EE42DE
:1020DE0092EF64027043120BCAFE700B9000011255
:1020EE000BE3F452955296EEB4010B900001120BD5
:1020FE00E34295F45296120BCAB4020A90000112F2
:10210E000BE342954296120BCAB4030D90000112D6
:10211E000BE3FEF45295EE4296EF64037043120BFE
:10212E00CAFE700B900001120BE3F452B152B2EEE4
:10213E00B4010B900001120BE342B1F452B2120B38
:10214E00CAB4020A900001120BE342B142B2120B62
:10215E00CAB4030D900001120BE3FEF452B1EE422D
:10216E00B2EF64047043120BCAFE700B90000112A2
:10217E000BE3F452B352B4EEB4010B900001120B08
:10218E00E342B3F452B4120BCAB4020A9000011225
:10219E000BE342B342B4120BCAB4030D900001120A
:1021AE000BE3FEF452B3EE42B4EF64057043120B30
:1021BE00CAFF700B900001120BE3F452C952CAEF22
:1021CE00B4010B900001120BE342C9F452CA120B78
:1021DE00CAB4020A900001120BE342C942CA120BA2
:1021EE00CAB4030D900001120BE3FFF452C9EF4283
:0421FE00CA7F002272
:102D3500EF7034D3ED9498EC940340047C037D98B4
:102D4500C3ED9450EC940050047C007D50C2DE909D
:102D550005B3ECF0A3EDF0C374E89D9005AEF074F7
:102D6500039C9005AD8073EF64017034D3ED9468D6
:102D7500EC940B40047C0B7D68C3ED9450EC9400FF
:102D850050047C007D50C2DE9005B5ECF0A3EDF05B
:102D9500C374B89D9005B0F0740B9C9005AF803A54
:102DA500EF64027038D3ED9480EC940740047C07FF
:102DB5007D80C3ED9450EC940050047C007D50C29E
:102DC500DE9005B7ECF0A3EDF0AE04FFC374D09F21
:0E2DD5009005B2F074079E9005B1F0D2DE2298
:1022020090066EEBF0A3EAF0A3E9F0AD07EDD394EC
:102212000340030223A0ED6403704CC2DEF5F9F51E
:10222200E990066EE0FBA3E0FAA3E0F9120BCAFF05
:10223200E5A254CF4FF5A2900001120BE3FFE5D9BE
:1022420054F14FF5D9900004120BE35401FFE5D984
:1022520054FE4FF5D9900005120BE3B40104D2BF2E
:102262008002C2BFD2DE2290066EE0FBA3E0FAA398
:10227200E02404F9E43AFA120BCA5431120C109019
:10228200066EE0FBA3E0FAA3E0F9900002120BE372
:10229200C39448400FE92404F9E43AFA120BCA54F1
:1022A200CF120C10ED704F90066EE0FBA3E0FAA384
:1022B200E0F9900004120BE3FF900002120BE3FE20
:1022C2004FF5DA900003120BE3FFE5F2543F4FF5AE
:1022D200F2900006120D0DFBAAF09005B3EAF0A3EE
:1022E200EBF0C2049005AAEEF09005B9EAF0A3EB78
:1022F200F0F5EAEAF5FAED6401704F90066EE0FB44
:10230200A3E0FAA3E0F9900004120BE3FF900002AD
:10231200120BE3FE4FF5DB900003120BE3FFE5F334
:10232200543F4FF5F3900006120D0DFBAAF09005F5
:10233200B5EAF0A3EBF0C2059005ABEEF09005BB59
:10234200EAF0A3EBF0F5EBEAF5FBED6402704F90D7
:10235200066EE0FBA3E0FAA3E0F9900004120BE39F
:10236200FF900002120BE3FE4FF5DC900003120B0C
:10237200E3FFE5F4543F4FF5F4900006120D0DFD16
:10238200ACF09005B7ECF0A3EDF0C2069005ACEE10
:0F239200F09005BDECF0A3EDF0F5ECECF5FC22BE
:1024FC00900672ECF0A3EDF0900671EFF0705ED3E5
:10250C00EB9464EA940040047A007B64C3EB94017E
:10251C00EA940050047A007B01C2DE900672E0FE61
:10252C00A3E0FFAD03AC02120C447C007D64120CE2
:10253C00569005B3EEF0A3EFF07C007D64AF03AED4
:10254C0002120C56C374019FFFE49EFE900672E0CB
:10255C00FCA3E0FD120C449005AD022631900671EF
:10256C00E06401705DD3EB9464EA940040047A005B
:10257C007B64C3EB9401EA940050047A007B01C2A3
:10258C00DE7C007D64AF03AE02120C56900672E046
:10259C00FCA3E0FD120C449005B5EEF0A3EFF07C2B
:1025AC00007D64AF03AE02120C56C374019FFFE4AE
:1025BC009EFE900672E0FCA3E0FD120C449005AF69
:1025CC008063900671E064027062D3EB9464EA94C9
:1025DC000040047A007B64C3EB9401EA940050043D
:1025EC007A007B01C2DE7C007D64AF03AE02120C6C
:1025FC0056900672E0FCA3E0FD120C449005B7EE79
:10260C00F0A3EFF0AE02AF037C007D64120C56C356
:10261C0074019FFFE49EFE900672E0FCA3E0FD12A5
:0D262C000C449005B1EEF0A3EFF0D2DE22D9
:03003B00022FDBB6
:102FDB00C0E0C083C082C0D075D000C006C007302F
:102FEB00D82AC2D830A5059005B380039005ADE073
:102FFB00FEA3E0FF9005BAE02FF09005B9E03EF09C
:10300B009005B9E0FEA3E0F5EAEEF5FA30D92AC255
:10301B00D930A6059005B580039005AFE0FEA3E07F
:10302B00FF9005BCE02FF09005BBE03EF09005BB98
:10303B00E0FEA3E0F5EBEEF5FB30DA2AC2DA30A7BF
:10304B00059005B780039005B1E0FEA3E0FF900566
:10305B00BEE02FF09005BDE03EF09005BDE0FEA375
:10306B00E0F5ECEEF5FCD007D006D0D0D082D083C3
:03307B00D0E03270
:0515C800900676EFF033
:1015CD00E4A3F0900677E0FFC394065046EF75F064
:1015DD0009A4241CF582E43405F583120E81000064
:1015ED000000900677E0FF75F009A42420F582E451
:1015FD003405F583E4F0EF75F009A42421F582E4B8
:10160D003405F583120E8100000000900677E0048A
:10161D00F080B043BA80120BCAB4010543F180804B
:10162D000353F17F900001120BE3B4011490067681
:10163D00E0FF7401A807088002C333D8FC42F18093
:10164D0013900676E0FF7401A807088002C333D813
:10165D00FCF452F1900002120BE3B4010543F54086
:10166D00800353F5BF900003120BE3B401149006F1
:10167D0076E0FF7401A807088002C333D8FC42F559
:10168D008013900676E0FF7401A807088002C3332B
:10169D00D8FCF452F5900004120BE3B4010575F774
:1016AD0020800353F7DF900005120BE3B40105759D
:1016BD00F710800353F7EF900006120BE3B401050A
:1016CD0075F708800353F7F7900007120BE3B40189
:1016DD000575F704800353F7FB900008120BE3B474
:1016ED00010575F702800353F7FD900009120BE316
:1016FD0090FFF27006E054EFF08004E04410F0909B
:10170D00FFF2C083C082E0FF90000A120BE3FEEFF0
:10171D004ED082D083F0900676E014607214700380
:10172D000217EF1470030218421470030218951477
:10173D0070030218E62405600302193D90000B1298
:10174D000BE390FF047006E054F7F08004E04408CA
:10175D00F090000C120BE390FF04B40106E044047A
:10176D00F08004E054FBF090000D120BE390FF04A9
:10177D00B40106E04402F08004E054FDF090000E48
:10178D00120BE390FF04B4010302193302193990CF
:10179D00000B120BE390FF147006E054F7F0800479
:1017AD00E04408F090000C120BE390FF14B4010616
:1017BD00E04404F08004E054FBF090000D120BE3C4
:1017CD0090FF14B40106E04402F08004E054FDF0F3
:1017DD0090000E120BE390FF14B4010302193302B3
:1017ED00193990000B120BE390FF247006E054F7AB
:1017FD00F08004E04408F090000C120BE390FF24FD
:10180D00B40106E04404F08004E054FBF090000DB8
:10181D00120BE390FF24B40106E04402F08004E0D3
:10182D0054FDF090000E120BE390FF24B40103025F
:10183D00193302193990000B120BE390FF34700627
:10184D00E054F7F08004E04408F090000C120BE334
:10185D0090FF34B40106E04404F08004E054FBF042
:10186D0090000D120BE390FF34B40106E04402F03A
:10187D008004E054FDF090000E120BE390FF34B4A1
:10188D00010302193302193990000B120BE390FF7B
:10189D00447006E054F7F08004E04408F090000C2A
:1018AD00120BE390FF44B40106E04404F08004E021
:1018BD0054FBF090000D120BE390FF44B40106E0D1
:1018CD004402F08004E054FDF090000E120BE39002
:1018DD00FF44B40102804F805390000B120BE39034
:1018ED00FF547006E054F7F08004E04408F09000D7
:1018FD000C120BE390FF54B40106E04404F0800495
:10190D00E054FBF090000D120BE390FF54B4010670
:10191D00E04402F08004E054FDF090000E120BE361
:10192D0090FF54B40106E04401F08004E054FEF051
:10193D0090000F120BE3B4010443F5802253F57FA1
:01194D002277
:1040D100EF75F009A4241CF582E43405F583E0FCB6
:0A40E100A3E0FDA3E0FEA3E0FF2230
:1040EB00EF75F009A42421F582E43405F583E0FC97
:0A40FB00A3E0FDA3E0FEA3E0FF2216
:103CE600AB07AA06E4FCFD90051C120E7543BA80CC
:103CF600E4F9F87F807EC37DC97C01123934123D18
:053D06005553BA7F22B5
:102BC80090062DEFF07F337E337D737C3FA3E0F8D2
:102BD800A3E0F9A3E0FAA3E0FB120A9E600C400A06
:102BE80090062E120E813F7333337FCD7ECC7D4C01
:102BF8007C3D90062EE0F8A3E0F9A3E0FAA3E0FB01
:102C0800120A9E500A90062E120E813D4CCCCD9091
:102C1800062EE0FCA3E0FDA3E0FEA3E0FF90062D56
:102C2800E0FB75F009A42421F582E43405F583124C
:102C38000E7543BA80AF03C007EB75F009A4241CD6
:102C4800F582E43405F583E0FCA3E0FDA3E0FEA3F0
:102C5800E0FFE4120B0B90062EE0F8A3E0F9A3E0E6
:102C6800FAA3E0FB1208F8120B49900611120E7530
:0C2C7800D007E4FDFC12263953BA7F227D
:0A438C0043BA8043F58053BA7F2244
:0A43960043BA8053F57F53BA7F222B
:103D0B0043BA807401A807088002C333D8FC42F57C
:103D1B00EF75F009A42420F582E43405F5837401D2
:053D2B00F053BA7F22F5
:103D300043BA807401A807088002C333D8FCF45248
:103D4000F5EF75F009A42420F582E43405F583E449
:053D5000F053BA7F22D0
:1042D600EF75F009A42420F582E43405F583E02483
:0242E600FF22B5
:103D5500AB07AA06D3E49B74809A4016E4FCFD9059
:103D6500051C120E7590FFF1EBF0EA90FFF0F07F65
:053D750000227F012285
:10263900EF14604A1460751470030226E3147003E2
:1026490002271014700302273D2405600302276D39
:1026590090FF01EDF0EC90FF00F0900611A3A3A309
:10266900E090FF03F0900611E0FCA3E0FDA3E0FE7B
:10267900A3E0FF7808120E3290FF0202276890FF4C
:1026890011EDF0EC90FF10F0900611A3A3A3E090D8
:10269900FF13F0900611E0FCA3E0FDA3E0FEA3E028
:1026A900FF7808120E3290FF1202276890FF21ED81
:1026B900F0EC90FF20F0900611A3A3A3E090FF2374
:1026C900F0900611E0FCA3E0FDA3E0FEA3E0FF7893
:1026D90008120E3290FF2202276890FF31EDF0ECCC
:1026E90090FF30F0900611A3A3A3E090FF33F09080
:1026F9000611E0FCA3E0FDA3E0FEA3E0FF780812C9
:102709000E3290FF32805890FF41EDF0EC90FF407F
:10271900F0900611A3A3A3E090FF43F0900611E007
:10272900FCA3E0FDA3E0FEA3E0FF7808120E3290BF
:10273900FF42802B90FF51EDF0EC90FF50F0900696
:1027490011A3A3A3E090FF53F0900611E0FCA3E0CE
:10275900FDA3E0FEA3E0FF7808120E3290FF52EFCE
:07276900F07F00227F012236
:102C840054696D65723120696E697469616C697A21
:102C9400696E672073756363656564200A0054690F
:102CA4006D65723120696E697469616C697A696EE7
:102CB40067206661696C6564200A0054696D6572F9
:102CC4003320696E697469616C697A696E6720730F
:102CD400756363656564200A0054696D6572332009
:102CE400696E697469616C697A696E672066616985
:102CF4006C6564200A0054696D65723420696E69DC
:102D04007469616C697A696E67207375636365655C
:102D140064200A0054696D65723420696E697469AF
:102D2400616C697A696E67206661696C6564200A02
:012D3400009E
:1034960041059B0241059C0242059D000042059F95
:1034A6000000420597000042059500004105A9006D
:1034B6004105940041059A00410599004405A10083
:0A34C6000000004405A5000000000E
:102E8D00E490029CF090028CF0A3F0A304F0E4A374
:102E9D00F0A3F0900293F0900291748AF0A374D095
:102EAD00F0E4900294F0A3F0A304F0E4A3F0A3F0F7
:102EBD0090029B04F090029974FEF0A374D4F07FFD
:102ECD0001121C3190029CEFF070087BFF7A2C7977
:102EDD0084800A90029CE07BFF7A2C79A212423BFF
:102EED007F03121C3190029CEFF070087BFF7A2C4F
:102EFD0079BF800A90029CE07BFF7A2C79DD12422B
:102F0D003B7B017A0279947F04121C3790029CEF6F
:102F1D00F070087BFF7A2C79FA800A90029CE07B96
:082F2D00FF7A2D791812423BD6
:012F35002279
:103D7A0090059BE0601EA3E0601AEF24FE600B042E
:103D8A0070129005A1ECF0A3EDF0AF059005A5EC3B
:053D9A00F0A3EFF02290
:10410500EF24FE600804700E9005A180039005A5BC
:0A411500E0FEA3E0FF22E4FEFF221B
:10406500EF24FE600C0470139005A3ECF0A3EDF0B3
:0C40750022AF059005A7ECF0A3EFF022AD
:10411F00EF24FE600804700E9005A380039005A79E
:0A412F00E0FEA3E0FF22E4FEFF2201
:10422200EF24FE600A047010C28E90059B80065334
:09423200D1F790059C7402F02202
:103FD800EF24FE600D04701490059BE07002D3225C
:0D3FE800C32290059CE07003D38001C3222A
:103F0700EF24FE600E04701690059BE0B40102D307
:0F3F170022C32290059CE0B40103D38001C32292
:103F2600EF24FE600E04701690059BE0B40202D3E7
:0F3F360022C32290059CE0B40203D38001C32272
:103EA800AE07123FD84018EF24FE600B047010D202
:103EB8008EE490059BF02243D108E490059CF02203
:0E434D00AE07123F075005123EA8D322C3222E
:0943A000900597E0FEA3E0FF2266
:0943A900900595E0FEA3E0FF225F
:0643BE009005A9E0FF22BA
:0643C400900594E0FF22C9
:0643CA0090059AE0FF22BD
:0643D000900599E0FF22B8
:03001B000238EDBB
:1038ED00C0E0C0F0C083C082C0D075D000C000C0A1
:1038FD000690059DE475F001120CE1FED39005A232
:10390D00E095F09005A1E09E500EC28E90059DE4CD
:10391D00F0A3F090059B04F0D006D000D0D0D0825B
:07392D00D083D0F0D0E0329E
:03009B000238A583
:1038A500C0E0C0F0C083C082C0D075D000C000C0E9
:1038B5000690059FE475F001120CE1FED39005A674
:1038C500E095F09005A5E09E500F53D1F790059F28
:1038D500E4F0A3F090059C04F0D006D000D0D0D041
:0838E50082D083D0F0D0E03264
:0300A300023236F0
:10323600C0E0C0F0C083C082C0D075D000C000C05E
:1032460006C2AF900597E475F00A120CE1FEC3E5DD
:10325600F094E8EE94034051900597E4F0A3F090C3
:10326600059575F001120CE1FEC3E5F094E8EE94C5
:10327600034036900595E4F0A3F09005A9E004F02C
:10328600943C4025E4F0900594E004F0943C401909
:10329600E4F090059AE004F09418400DE4F09005EF
:1032A60099E004F0B4FF02E4F0D2AFD006D000D02B
:0A32B600D0D082D083D0F0D0E032F7
:061C31007B017A02798CB0
:101C3700AD07EDD3940440037F0122ED7073120BBF
:101C4700CAFED3940340037F0222C28CC2A9C2B941
:101C57005389F0538E7F538FFE900002120BE3B42B
:101C67000102D2A9900001120BE3B40102D2B9EE2E
:101C77004289900003120BE3FF7003438E80EFB499
:101C87000203438904900004120BE3B40103438F5A
:101C970001900005120D0DE5F0F58C900005120D71
:101CA7000DF58A900007120BE3B40102D28C7F0076
:101CB70022ED64017076120BCAFEC3940340037FC2
:101CC7000222C28EC2ABC2BB53890F538EBF538F42
:101CD700FD900002120BE3B40102D2AB9000011297
:101CE7000BE3B40102D2BBEEC454F0428990000367
:101CF700120BE3FF7003438E40EFB40203438940A6
:101D0700900004120BE3B40103438F029000051205
:101D17000D0DE5F0F58D900005120D0DF58B90007A
:101D270007120BE3B40102D28E7F0022ED6402702A
:101D370063900003120BE3FED3940240037F022259
:101D4700538EE353AFFB538FFB900002120BE3B4A8
:101D5700010343AF04EE7003438E04900003120B9C
:101D6700E3B40203438E08900004120BE3B40103AB
:101D7700438F04900005120D0DE5F0F5D690000590
:101D8700120D0DF5D7900007120BE3B40103438E34
:101D9700107F0022ED64037060900003120BE3FED6
:101DA700D3940240037F022253D1F053AFDF900058
:101DB70002120BE3B4010343AF20EE700343D102D9
:101DC700900003120BE3B4020343D1069000041200
:101DD7000BE3B4010343D101900005120D0DE5F0AB
:101DE700F5D4900005120D0DF5D5900007120BE301
:101DF700B4010343D1087F0022ED6404705C9000B6
:101E070003120BE3FED3940240037F022253D10F48
:101E170053AFBF900002120BE3B4010343AF40EE90
:101E2700700343D120900003120BE3B4020343D1A4
:101E370060900004120BE3B4010343D11090000536
:101E4700120D0DFDACF0ECF5D28DD3900007120BFF
:0D1E5700E3B4010343D1807F00227F02220B
:100EE80090029AEBF0A3EAF0A3E9F0900299EFF0F0
:100EF800640160030210FA90000004F0E4A3F0A378
:100F0800F0A3F0A3F0A3F0A3F090029DF090029D4F
:100F1800E0FFC39480501474382FF582E43401F54F
:100F280083E4F090029DE004F080E2E490029DF0FA
:100F380090029DE0FFC394805014741C2FF582E446
:100F48003400F583E4F090029DE004F080E2900222
:100F58009AE0FBA3E0FAA3E0F9120BCAD394C040CD
:100F6800037F022290000A120BE3B40104D2BC8072
:100F780002C2BC120BCAFFE598543F4FF598EF64C4
:100F8800C06008EF64406003021074900002120E03
:100F9800457FE07E707D727C00120D8190029E126A
:100FA8000E75E4FFFE7D01FC90029EE0F8A3E0F9D7
:100FB800A3E0FAA3E0FBC3120E2140037F022290B4
:100FC800029EE0F8A3E0F9A3E0FAA3E0FBC3E49BE8
:100FD800FFE49AFE740199FDE498FC90029E120EBB
:100FE8007590029AE0FBA3E0FAA3E0F990000112E1
:100FF8000BE3FB64017038C28E538EFE5389BF53D6
:1010080089CF438E4090029EE0FCA3E0FDA3E0FE62
:10101800A3E0FF7808120E328F8D90029EA3A3A33F
:10102800E0F58BC2AB5389BF538FFDD28E8076EB30
:1010380064027035538EEF438E01538EF7438E044E
:1010480090029EE0FCA3E0FDA3E0FEA3E0FF780889
:10105800120E328FD690029EA3A3A3E0F5D753AF0A
:10106800FB538EF7438E10803C7F022290029AE059
:10107800FBA3E0FAA3E0F9120BCAFF701390000873
:10108800120BE3B40105438E20801A538EDF8015BE
:10109800EFB48011900008120BE3B4010543878078
:1010A800800353877F90029AE0FBA3E0FAA3E0F95C
:1010B800900009120BE3B40104D2AC8002C2AC90D8
:1010C8000007120BE3B40104D29C8002C29C90007A
:1010D8000B120BE354C0FFE5A2543F4FF5A290005A
:1010E8000C120BE3B4010543971080035397EF7F6D
:1010F8000022900299E06402600302125C900007EB
:101108007402F0E4A3F0A3F0A3F0A3F0A3F0A3F01B
:1011180090029DF090029DE0FFC39480501474D417
:101128002FF582E43401F583E4F090029DE004F0A9
:1011380080E2E490029DF090029DE0FFC39480500D
:1011480014749C2FF582E43400F583E4F090029D3A
:10115800E004F080E290029AE0FBA3E0FAA3E0F951
:10116800120BCAFF64C06008EF6440600302121CDF
:1011780090000A120BE3B4010543B501800353B58F
:10118800FE120BCAB4C005439A808003539A7F901D
:101198000002120E457FE07E707D727C00120D8188
:1011A80090029E120E75E4FFFE7D01FC90029EE007
:1011B800F8A3E0F9A3E0FAA3E0FBC3120E21400371
:1011C8007F022290029EE0F8A3E0F9A3E0FAA3E0F0
:1011D800FBC3E49BFFE49AFE740199FDE498FC903C
:1011E800029E120E75538EEF538EF7438E049002B3
:1011F8009EE0FCA3E0FDA3E0FEA3E0FF7808120E4A
:10120800328FD690029EA3A3A3E0F5D753AFFB433A
:101218008E1080037F022290029AE0FBA3E0FAA3DB
:10122800E0F9900009120BE3B4010543AF01800314
:1012380053AFFE900007120BE3B40105439A1080E8
:1012480003539AEF90000B120BE35401FFE5BA54D5
:10125800FE4FF5BA900299E06403600302140F9000
:10126800000E7402F0E4A3F0A3F0A3F0A3F0A3F03F
:10127800A3F090029DF090029DE0FFC3941C5014CF
:1012880074542FF582E43402F583E4F090029DE073
:1012980004F080E2E490029DF090029DE0FFC39488
:1012A8001C5014741C2FF582E43401F583E4F0908B
:1012B800029DE004F080E290029AE0FBA3E0FAA32A
:1012C800E0F9120BCAFF64C06008EF6440600302D3
:1012D80013CF53ACDFEFB4C00543AC80800353ACED
:1012E8007F90029AE0FBA3E0FAA3E0F990000212D3
:1012F8000E457FE07E707D727C00120D8190029E0B
:10130800120E75E4FFFE7D01FC90029EE0F8A3E05A
:10131800F9A3E0FAA3E0FBC3120E2140037F0222E7
:1013280090029EE0F8A3E0F9A3E0FAA3E0FBC3E48F
:101338009BFFE49AFE740199FDE498FC90029E12CA
:101348000E7590029AE0FBA3E0FAA3E0F990000181
:10135800120BE3FB6402703253ACBF538EEF538E13
:10136800F7438E0490029EE0FCA3E0FDA3E0FEA3F9
:10137800E0FF7808120E328FD690029EA3A3A3E056
:10138800F5D753AFFB438E108040EB6401703543B3
:10139800AC4053D1F053AFDF43D10253D1FB53D10B
:1013A800FE90029EE0FCA3E0FDA3E0FEA3E0FF7830
:1013B80008120E328FD490029EA3A3A3E0F5D54362
:1013C800D10880067F02227F022290029AE0FBA3C6
:1013D800E0FAA3E0F9900009120BE3B4010543AF6A
:1013E80008800353AFF7900007120BE3B4010543DD
:1013F800AC10800353ACEF90000B120BE35402FFC8
:10140800E5BA54FD0215BF900299E0640460030236
:1014180015C59000157402F0E4A3F0A3F0A3F0A39F
:10142800F0A3F0A3F090029DF090029DE0FFC3941A
:101438001C501474702FF582E43402F583E4F090A4
:10144800029DE004F080E2E490029DF090029DE0AD
:10145800FFC3941C501474B82FF582E43401F5834B
:10146800E4F090029DE004F080E290029AE0FBA391
:10147800E0FAA3E0F9120BCAFF64C06008EF644009
:1014880060030215825384DFEFB4C0054384808073
:101498000353847F90029AE0FBA3E0FAA3E0F9905B
:1014A8000002120E457FE07E707D727C00120D8175
:1014B80090029E120E75E4FFFE7D01FC90029EE0F4
:1014C800F8A3E0F9A3E0FAA3E0FBC3120E2140035E
:1014D8007F022290029EE0F8A3E0F9A3E0FAA3E0DD
:1014E800FBC3E49BFFE49AFE740199FDE498FC9029
:1014F800029E120E7590029AE0FBA3E0FAA3E0F9AF
:10150800900001120BE3FB640270325384BF538EC8
:10151800EF538EF7438E0490029EE0FCA3E0FDA3F8
:10152800E0FEA3E0FF7808120E328FD690029EA349
:10153800A3A3E0F5D753AFFB438E108040EB6402C2
:10154800703543844053D10F53AFBF43D12053D19B
:10155800BF53D1EF90029EE0FCA3E0FDA3E0FEA301
:10156800E0FF7808120E328FD290029EA3A3A3E068
:10157800F5D343D18080067F02227F022290029A0F
:10158800E0FBA3E0FAA3E0F9900009120BE3B40131
:101598000543AF10800353AFEF900007120BE3B47D
:1015A800010543841080035384EF90000B120BE372
:0F15B8005404FFE5BA54FB4FF5BA7F00227F03BE
:0115C7002201
:103C7400900002E02438F582E43401F583EFF090FB
:103C84000002E004F0C394804002E4F0900003E0FA
:073C9400700404F0D2992234
:103BAE00900009E024D4F582E43401F583EFF0901F
:103BBE000009E004F0C394804002E4F090000AE0B3
:083BCE00700504F0439A022285
:103BD600900010E02454F582E43402F583EFF0906F
:103BE6000010E004F0C3941C4002E4F0900011E0E1
:083BF600700504F043AC02224B
:103BFE00900017E02470F582E43402F583EFF09024
:103C0E000017E004F0C3941C4002E4F0900018E0AA
:083C1E00700504F0438402224A
:10423B00C2AF120BCAFF600C123C74740129F9E473
:07424B003AFA80EED2AF2227
:10427900120BCAFF600C123BAE740129F9E43AFA39
:0342890080EE22A2
:10428C00120BCAFF600C123BD6740129F9E43AFAFE
:03429C0080EE228F
:10429F00120BCAFF600C123BFE740129F9E43AFAC3
:0342AF0080EE227C
:030023000234D1D3
:1034D100C0E0C083C082C0D075D000C006C0073034
:1034E100982DC298900006E07025900004E0C394E6
:1034F100804002E4F0900004E0FF04F0741C2FF51A
:1035010082E43400F583E599F09000057405F0300C
:103511009930C299900002E0FF900001E0FE6F60D7
:103521001C74382EF582E43401F583E0F59990009E
:1035310001E004F0C394804009E4F08005900003A9
:0F354100E4F0D007D006D0D0D082D083D0E032D3
:030043000232C0C6
:1032C000C0E0C083C082C0D075D000C006C007E592
:1032D0009A30E02E539AFE90000DE0702590000B7E
:1032E000E0C394804002E4F090000BE0FF04F0742F
:1032F0009C2FF582E43400F583E59BF090000C747C
:1033000005F0E59A30E131539AFD900009E0FF9015
:103310000008E0FE6F601C74D42EF582E43401F5E1
:1033200083E0F59B900008E004F0C394804009E43A
:10333000F0800590000AE4F0D007D006D0D0D0820B
:05334000D083D0E03253
:03008B00023345F8
:10334500C0E0C083C082C0D075D000C006C007E50C
:10335500AC30E02E53ACFE900014E07025900012C6
:10336500E0C3941C4002E4F0900012E0FF04F07406
:103375001C2FF582E43401F583E5ADF0900013745C
:1033850005F0E5AC30E13153ACFD900010E0FF9065
:10339500000FE0FE6F601C74542EF582E43402F5D4
:1033A50083E0F5AD90000FE004F0C3941C4009E400
:1033B500F08005900011E4F0D007D006D0D0D0827F
:0533C500D083D0E032CE
:030093000233CA6B
:1033CA00C0E0C083C082C0D075D000C006C007E587
:1033DA008430E02E5384FE90001BE0702590001983
:1033EA00E0C3941C4002E4F0900019E0FF04F0747A
:1033FA00B82FF582E43401F583E585F090001A745C
:10340A0005F0E58430E1315384FD900017E0FF9028
:10341A000016E0FE6F601C74542EF582E43402F547
:10342A0083E0F585900016E004F0C3941C4009E49B
:10343A00F08005900018E4F0D007D006D0D0D082F2
:05344A00D083D0E03248
:0E435B00E4F5C7F5C5F5C675C3FF75C4FF22AE
:10397800AD07AC06C2AF75C78075C501ECF5C3AF1E
:10398800058FC475C65A75C6A500E5C2120C100D80
:10399800BD00010C740129F9E43AFA90061A74FF83
:0F39A800F5F0120CE145F070D312435BD2AF2261
:103EC800AD07AC06C2AFECF5C3AF058FC475C780AC
:103ED80075C50375C65A75C6A50012435BD2AF22D5
:1039B700AD07AC06C2AF75C78075C502ECF5C3AFDE
:1039C700058FC4120BCAF5C275C65A75C6A5000D78
:1039D700BD00010C740129F9E43AFA90062174FF3D
:0F39E700F5F0120CE145F070D312435BD2AF2222
:1023A100AB07EB75F039A424AAF582E43404F58374
:1023B100120E81428C0000EB75F039A424AEF58237
:1023C100E43404F583120E8141F00000EB75F0391D
:1023D100A424B2F582E43404F583120E81000000D6
:1023E10000EB75F039A424B6F582E43404F58312C8
:1023F1000E8100000000EB75F039A424CAF582E4D7
:102401003404F583120E8100000000EB75F039A44D
:1024110024C6F582E43404F583120E810000000025
:102421009005E2E0FCA3E0FDA3E0FEA3E0FFEB7575
:10243100F039A424BAF582E43404F583120E7590C0
:1024410005E6E0FCA3E0FDA3E0FEA3E0FFEB75F0F1
:1024510039A424BEF582E43404F583120E75900587
:10246100EAE0FCA3E0FDA3E0FEA3E0FFEB75F03999
:10247100A424C2F582E43404F583120E75EB75F0E1
:1024810039A424BAF582E43404F583E0FCA3E0FD29
:10249100A3E0FEA3E0FFEB75F039A424D2F582E4BA
:1024A1003404F583120E75EB75F039A424BEF58260
:1024B100E43404F583E0FCA3E0FDA3E0FEA3E0FF28
:1024C100EB75F039A424CEF582E43404F583120EC1
:1024D10075EB75F039A424C2F582E43404F583E088
:1024E100FCA3E0FDA3E0FEA3E0FFEB75F039A4241B
:0B24F100D6F582E43404F583020E757A
:1042E800EF75F039A424E2F582E43404F58374010F
:0242F800F022B2
:10431C00EF75F039A424E2F582E43404F583E4F07B
:01432C00226E
:101E640090067FEFF075F039A424E2F582E434049F
:101E7400F583E0700302203D90067FE0FF75F039A2
:101E8400A424AEF582E43404F583E0F8A3E0F9A3D6
:101E9400E0FAA3E0FBEF75F039A424AAF582E43458
:101EA40004F583E0FCA3E0FDA3E0FEA3E0FF120839
:101EB4000390067FE0FB75F039A424B2F582E43484
:101EC40004F583120E75EB75F039A424C6F582E48B
:101ED4003404F583C083C082E0FCA3E0FDA3E0FEEC
:101EE400A3E0FF90067FE075F039A424B2F582E404
:101EF4003404F583E0F8A3E0F9A3E0FAA3E0FB12CD
:101F04000807D082D083120E7590067FE0FF75F02B
:101F140039A424C6F582E43404F583E0F8A3E0F997
:101F2400A3E0FAA3E0FBEF75F039A424BEF582E444
:101F34003404F583E0FCA3E0FDA3E0FEA3E0FF127C
:101F440008F8C004C005C006C00790067FE0FF750E
:101F5400F039A424B2F582E43404F583E0F8A3E074
:101F6400F9A3E0FAA3E0FBEF75F039A424BAF582F3
:101F7400E43404F583E0FCA3E0FDA3E0FEA3E0FF6A
:101F84001208F8D003D002D001D000120807C00410
:101F9400C005C006C00790067FE0FF75F039A42491
:101FA400B6F582E43404F583E0F8A3E0F9A3E0FA9B
:101FB400A3E0FBEF75F039A424B2F582E43404F510
:101FC40083E0FCA3E0FDA3E0FEA3E0FF120803907E
:101FD400067FE075F039A424C2F582E43404F58365
:101FE400E0F8A3E0F9A3E0FAA3E0FB1208F8D003B9
:101FF400D002D001D00012080790067FE0FB75F0F4
:1020040039A424CAF582E43404F583120E75EB7501
:10201400F039A424B2F582E43404F583E0FCA3E0AF
:10202400FDA3E0FEA3E0FFEB75F039A424B6F5822E
:0A203400E43404F583120E75D32284
:103DC100AB07900633E0FCA3E0FDA3E0FEA3E0FF18
:103DD100EB75F039A424DEF582E43404F583020E98
:013DE100756C
:103DE200AB07900638E0FCA3E0FDA3E0FEA3E0FFF2
:103DF200EB75F039A424DAF582E43404F583020E7B
:013E0200754A
:103E0300AB0790063DE0FCA3E0FDA3E0FEA3E0FFCB
:103E1300EB75F039A424AEF582E43404F583020E85
:013E23007529
:103E2400AB07900642E0FCA3E0FDA3E0FEA3E0FFA5
:103E3400EB75F039A424BEF582E43404F583020E54
:013E44007508
:103E4500AB07900647E0FCA3E0FDA3E0FEA3E0FF7F
:103E5500EB75F039A424BAF582E43404F583020E37
:013E650075E7
:103E6600AB0790064CE0FCA3E0FDA3E0FEA3E0FF59
:103E7600EB75F039A424C2F582E43404F583020E0E
:013E860075C6
:103E8700AB07900651E0FCA3E0FDA3E0FEA3E0FF33
:103E9700EB75F039A424AAF582E43404F583020E05
:013EA70075A5
:10413900EF75F039A424AAF582E43404F583E0FC90
:0A414900A3E0FDA3E0FEA3E0FF22C7
:10415300EF75F039A424B2F582E43404F583E0FC6E
:0A416300A3E0FDA3E0FEA3E0FF22AD
:10416D00EF75F039A424B6F582E43404F583E0FC50
:0A417D00A3E0FDA3E0FEA3E0FF2293
:10418700EF75F039A424BAF582E43404F583E0FC32
:0A419700A3E0FDA3E0FEA3E0FF2279
:1041A100EF75F039A424BEF582E43404F583E0FC14
:0A41B100A3E0FDA3E0FEA3E0FF225F
:1041BB00EF75F039A424C2F582E43404F583E0FCF6
:0A41CB00A3E0FDA3E0FEA3E0FF2245
:1041D500EF75F039A424CAF582E43404F583E0FCD4
:0A41E500A3E0FDA3E0FEA3E0FF222B
:1041EF00EF75F039A424C6F582E43404F583E0FCBE
:0A41FF00A3E0FDA3E0FEA3E0FF2211
:0527700090049DEDF056
:10277500E49004A4F0A3F09004A0E0FFA3E090048B
:10278500A6CFF0A3EFF090049EE0FFA3E09004A88D
:10279500CFF0A3EFF0E49004A2F0A3F090049DE045
:1027A500FF9004A2E0FCA3E0FDC39F7480F8EC64F5
:1027B5008098400302286AED25E0FFEC338F82F50F
:1027C50083120D0DFFC39004A7E09F9004A6E0952A
:1027D500F0501D9004A3E025E0FF9004A2E0338FA4
:1027E50082F583120D0DFF9004A6E5F0F0A3EFF03E
:1027F5009004A3E025E0FF9004A2E0338F82F583E7
:10280500120D0DFFD39004A9E09F9004A8E095F068
:10281500401D9004A3E025E0FF9004A2E0338F82E1
:10282500F583120D0DFF9004A8E5F0F0A3EFF090ED
:1028350004A3E025E0FF9004A2E0338F82F5831224
:102845000D0DFFAEF09004A5E02FF09004A4E03E3E
:10285500F09004A3E004F060030227A19004A2E035
:1028650004F00227A19004A8E0FEA3E0FF9004A7CE
:10287500E02FFF9004A6E03EFEC39004A5E09FFF75
:102885009004A4E09EFEF0A3EFF090049DE024FEEA
:10289500FDE434FFFC120C569004A4EEF0A3EFF017
:0128A5002210
:101AC000EFD3940940037FFF2274232F2FF8E620E1
:101AD000E5F4C2AFE64430F6D2AFAE0CEEC39F5091
:101AE000210E740E2EF8E6F908E618BE090274FFFE
:101AF000FDED69600909E71919F7090980F3161660
:101B000080DAEED39F400405810581EED39F402209
:101B1000740E2EF808E6F9EEB50C02A98118060637
:101B2000E6FDED6960091919E70909F71980F31E47
:101B300080D9EF240EF8E604F8EF2F049042529378
:091B4000F608EF2F93F67F002256
:101B4900EFD3940940037FFF22EF232423F8E630E3
:101B5900E5F4C2AFE6548CF6D2AFE50CB5070A74CA
:101B69000E2FF8E6F5810219C9502E740F2FF8E6E9
:101B7900BF090274FFFD18E6F9740E2FF8FBE6FCA5
:101B8900E96C6008A805E7F61D1980F4A803A60505
:101B99001FE50CB507E37F0022740F2FF8E6FD1847
:101BA90086010F740E2FF8A601088604E50CB50707
:101BB90002AC81ED6C60080D09A805E6F780F4E533
:091BC9000CB507DE89817F0022C2
:101BD2008FF0E4FFFEE50C232422F8C2A930F70DB2
:101BE2007F08E6600B2DF660325030800730F10638
:101BF200EDF660277E020830F010C2AFE610E7254E
:101C02000E30E20CD2AF7F048014C2AFE610E715AB
:101C120054EC4EF6D2AFD2A90219C97F0808EF449C
:0F1C220083F4C2AF56C6D2AFD2A954804FFF226F
:10080000020BB5E86480F8E933E83360110460F066
:10081000ED33EC337009E8FCE9FDEAFEEBFF22045E
:1008200060DED3EB9FEA9EE99DE8C2E78CF0C2F759
:1008300095F0400CE8CCF8E9CDF9EACEFAEBCFFB25
:10084000120B8085D0F05804700320D5B3E80470F3
:10085000075002B2D5020BBF92D5EC0460F7E4CC8E
:10086000C0E0C398F8603B94186008400DD0E0FBEE
:10087000020B97E4FBFAC9FC8028E830E406E4C9DF
:10088000FBE4CAFCE830E305E4C9CACBFCE8540742
:100890006010F8C3E913F9EA13FAEB13FBEC13FC4D
:1008A000D8F130F52FC3E49CFCEF9BFFEE9AFEEDF0
:1008B00099FDD0E0FBEF4E4D4C701222DB03020B92
:1008C000BCEC2CFCEF33FFEE33FEED33FDED30E7F7
:1008D000EB020B97EF2BFFEE3AFEED39FDD0E0FB7C
:1008E00050130BBB0003020BBFED13FDEE13FEEF25
:0808F00013FFEC13FC020B974F
:1008F800EC4D6011E8497017ED33EC3304600DE4FA
:10090800FCFFFEFD22E933E8330470F8020BB51250
:100918000B8058046009E4CC248150062850090251
:100928000BBF284003020BBCC0E0EB4A7044B980FF
:1009380006D0E0FB020BABEF4E701CBD8008EBFF4E
:10094800EAFEE9FD80EBE98DF0A4FEE5F00209E19D
:10095800E9CDF9EAFEEBFFEF89F0A4FCE5F0CE89DA
:10096800F0A42EFFE435F0CD89F0A42DFEE435F097
:100978008067EF4E7005BD80D780C3EF8BF0A4ACC5
:10098800F0EE8BF0A42CFCE435F0F8EF8AF0A42C00
:10099800E5F038FCE433CB8DF0A42CFCE5F03BF813
:1009A800EE8AF0A42CFCE5F038F8E433CF89F0A403
:1009B8002CFCE5F038CF3400CE89F0A42FFFE5F009
:1009C8003EFEE433C98DF0A42EFEE5F039CD8AF061
:1009D800A42FFFE5F03EFEE43DFD33D0E0FB5007D9
:1009E8000BBB000F020BBFEC2CFCEF33FFEE33FE0A
:0609F800ED33FD020B9738
:1009FE00020BBFEC5D046005E859047003020BB5F1
:100A0E00120B80580460F6EC4860F2EC7004FDFEA8
:100A1E00FF22C860DB2481C85009C39860025006CB
:100A2E00020BBC9850CAF582E9294B4A7005AB827D
:100A3E00020BAB75F0007C1A7880C3EF9BEE9AED3B
:100A4E0099400DC3EF9BFFEE9AFEED99FDE842F043
:100A5E00DC23ACF0D0E0FFD0E0FED0E0FDAB822096
:100A6E00E7101BEB60BAEC2CFCEF33FFEE33FEED20
:100A7E0033FD020B97E803F830E705C0F075F00080
:100A8E00EF2FFFEE33FEED33FD40B830E7C280AA04
:100A9E0074F8CC6480CCC86480C8F582046043C30B
:100AAE00EB9FF5F0EA9E42F0E99D42F0E89C45F09E
:100ABE0060305018E5825FFFE582F42B5582FB50C3
:100ACE00210ABA001D09B90019088016E5825BFBE0
:100ADE00E582F42F5582FF50090EBE00050DBD00B4
:100AEE00010CC3EB9FF5F0EA9E42F0E99D42F0E85F
:0D0AFE009C45F06007CC4820E701B3EC22D6
:100B0B0075F020800E75F010800575F0087D007E65
:100B1B00007F003392D530D503120E13EC33401007
:100B2B00EF33FFEE33FEED33FDEC33FCD5F0ED226E
:0E0B3B00E5F0247EA2D513CC92E7CDCEFF22AA
:100B4900EDD2E7CD33EC3392D524814006E4FFFEA4
:100B5900FDFC22FCE4CFCECDCC24E0501174FF8003
:100B6900EDC3CC13CCCD13CDCE13CECF13CF0470A0
:070B7900F030D5DE020E137F
:100B8000E9D2E7C933E833F892D5EDD2E7CD33ECBB
:070B900033FC5002B2D52234
:100B9700EC30E7100FBF000C0EBE00080DBD0004BF
:100BA7000BEB6014A2D5EB13FCED92E7FD2274FF6B
:100BB700FCFDFEFF22E480F8A2D574FF13FC7D80C4
:030BC700E480EFD8
:030000000231AA20
:0C31AA00787FE4F6D8FD7581350231F124
:100BCA00BB010689828A83E0225002E722BBFE0229
:090BDA00E32289828A83E493225C
:100BE300BB010CE58229F582E5833AF583E02250C7
:100BF30006E92582F8E622BBFE06E92582F8E22211
:0D0C0300E58229F582E5833AF583E493222A
:100C1000BB010689828A83F0225002F722BBFE01C3
:020C2000F322BD
:100C2200F8BB010DE58229F582E5833AF583E8F008
:100C3200225006E92582C8F622BBFE05E92582C8B4
:020C4200F2229C
:100C4400EF8DF0A4A8F0CF8CF0A428CE8DF0A42EC4
:020C5400FE227E
:100C5600BC000BBE0029EF8DF084FFADF022E4CC82
:100C6600F875F008EF2FFFEE33FEEC33FCEE9DEC4B
:100C7600984005FCEE9DFE0FD5F0E9E4CEFD22ED91
:100C8600F8F5F0EE8420D21CFEADF075F008EF2FDB
:100C9600FFED33FD4007985006D5F0F222C398FDCC
:050CA6000FD5F0EA2269
:100CAB00C2D5EC30E709B2D5E4C39DFDE49CFCEE64
:100CBB0030E715B2D5E4C39FFFE49EFE120C56C37A
:100CCB00E49DFDE49CFC8003120C5630D507C3E475
:060CDB009FFFE49EFE22D3
:100CE100C5F0F8A3E028F0C5F0F8E582158270029E
:060CF1001583E038F0223B
:100CF700A3F8E0C5F025F0F0E582158270021583B0
:060D0700E0C838F0E8220C
:100D0D00BB0110E58229F582E5833AF583E0F5F024
:100D1D00A3E0225009E92582F886F008E622BBFE01
:100D2D000AE92582F8E2F5F008E222E5832AF58347
:080D3D00E993F5F0A3E993220C
:100D450075F008758200EF2FFFEE33FECD33CDCC65
:100D550033CCC58233C5829BED9AEC99E5829840E8
:100D65000CF582EE9BFEED9AFDEC99FC0FD5F0D6C5
:100D7500E4CEFBE4CDFAE4CCF9A88222B800C1B9EF
:100D85000059BA002DEC8BF084CFCECDFCE5F0CB2D
:100D9500F97818EF2FFFEE33FEED33FDEC33FCEB66
:100DA50033FB10D703994004EB99FB0FD8E5E4F921
:100DB500FA227818EF2FFFEE33FEED33FDEC33FC0E
:100DC500C933C910D7059BE99A4007EC9BFCE99A02
:100DD500F90FD8E0E4C9FAE4CCFB2275F010EF2F47
:100DE500FFEE33FEED33FDCC33CCC833C810D70747
:100DF5009BEC9AE899400AED9BFDEC9AFCE899F882
:0E0E05000FD5F0DAE4CDFBE4CCFAE4C8F92214
:10393400C2D5E830E70FB2D5E4C39BFBE49AFAE4BE
:1039440099F9E498F8EC30E717B2D512396A120DF8
:1039540081E4C39BFBE49AFAE499F9E498F88003C0
:10396400120D8130D50DE4C39FFFE49EFEE49DFD5E
:04397400E49CFC22B1
:0E0E1300C3E49FFFE49EFEE49DFDE49CFC22F0
:100E2100EB9FF5F0EA9E42F0E99D42F0E89C45F027
:010E3100229E
:100E3200E8600FECC313FCED13FDEE13FEEF13FF9E
:030E4200D8F122C2
:100E4500BB010DE58229F582E5833AF583020EBFE4
:100E55005007E92582F8020EB2BBFE07E92582F8A4
:100E6500020ECBE58229F582E5833AF583020ED899
:0C0E7500ECF0A3EDF0A3EEF0A3EFF022F0
:100E8100A8828583F0D083D082120E98120E981218
:100E91000E98120E98E473E493A3C583C5F0C5833D
:100EA100C8C582C8F0A3C583C5F0C583C8C582C8BB
:010EB100221E
:1031B600021A83E493A3F8E493A34003F68001F292
:1031C60008DFF48029E493A3F85407240CC8C3331A
:1031D600C4540F4420C8834004F456800146F6DFE9
:1031E600E4800B010204081020408090344FE47EF6
:1031F600019360BCA3FF543F30E509541FFEE493DE
:10320600A360010ECF54C025E060A840B8E493A3A4
:10321600FAE493A3F8E493A3C8C582C8CAC583CACF
:10322600F0A3C8C582C8CAC583CADFE9DEE780BE87
:0134D00000FB
:0D0EB200E6FB08E6F908E6FA08E6CBF822B0
:0C0EBF00E0F8A3E0F9A3E0FAA3E0FB22B6
:0D0ECB00E2FB08E2F908E2FA08E2CBF822A7
:100ED800E493F8740193F9740293FA740393FB2270
:00000001FF
