:0232400031CD8E
:023242003183D6
:023244003258FE
:02324600325AFA
:0D31CD001232377F01121861E4FF0218EA88
:0F318300122C0EE4FBFA7D0A7F8012197380F183
:0232580080FEF6
:02325A0080FEF4
:102C0E009000007401F07F007E007DF67C42120081
:102C1E00007F011200009002BFEFF0E49002BEF0C0
:102C2E009002BFE0FF9002BEE0FEC39F50177400FB
:102C3E002EF582E43400F583E0FF122EF09002BEF2
:052C4E00E004F080DB52
:012C5300225E
:102F8600535443313577346B3538733427732055B2
:102F960041525431206973206F70656E200D0A000E
:102D95009002A87440F0A37402F0A3121365900288
:102DA500AF7401F0E4A3F0A304F0A3F0E4A3F0A34F
:102DB500F07B017A0279A87F011208007BFF7A2F48
:052DC5007986023127B0
:09323700122D95120000022BBEBD
:01325C00224F
:01325D00224E
:01325E00224D
:01325F00224C
:01326000224B
:03000B000216F4E6
:1016EF00C2AF80FE321216F385D00B75D008AAE078
:1016FF00C28CE58A247FF58AE58C34ECF58CD28C8C
:10170F00EC2417F8E6BC030274FFC39581B41400F0
:10171F0040CE7904780E16E608700BC2AFE630E1C2
:10172F00034418F6D2AF08D9EDEA8BD0300301226B
:10173F00D50DFCC0E0C0D0C0F0C083C082C000C0D7
:10174F0001C002C003C004C005C006C007E50C23DA
:10175F00240FF87440C2AF46F6D2AFD203E50CFFA8
:10176F0023240FF80F0808BF04047F00780FE6301A
:10177F00E4F200E50CC39F5020050C7416250CF8FD
:10178F00E6FDA68108E6AE0CBE030274FFCDF8E8B5
:10179F006D60E008E6C0E080F6E50CD39F4027E5DA
:1017AF000C2417F8E6AE0CBE030274FFFD18E6CD4D
:1017BF00F8E5816D6006D0E0F61880F5E50C24168B
:1017CF00C8F6150C80D3750D05E50C23240FF87F93
:1017DF0004C2AFE610E61E30E00310E20C7F0030CB
:1017EF00E10730E3047F0854F4547CC6D2AF548031
:1017FF004207C20322F6D2AFD007D006D005D004DD
:10180F00D003D002D001D000D082D083D0F0D0D07E
:0E181F00D0E0C203227816A68174036006FF93
:10182D000876FFDFFB7F04E4780EF608F608DFFA92
:10183D00780F7630903240740193C0E0E493C0E0AD
:10184D00750D05438901758A78758CECD28CD2AFF4
:04185D00D2A92203E7
:102B1800121112F59D90000112112BFFE5BC549F74
:102B28004FF5BC90000212112BB4010543BC808004
:102B38000353BC7F90000312112BB4010543972067
:102B480080035397DF90000512112BB40104D2AD16
:102B58008002C2AD90000412112BB40103D2BD2231
:032B6800C2BD22C9
:0C31F400EFB4010443BC802253BC7F22D6
:102A6500EFD3940740028051E4F5BDF5BEE5BC54B3
:102A7500E044084FF5BC00000000E4FBE5BC30E491
:102A85003353BCEFE59730E509E5BD5403ADBEFC16
:102A9500801DAFBD7C00AD07ED7E007802C333CE4F
:102AA50033CED8F9FFE5BE5403FDEEFCEF4DFDAF87
:0D2AB50005AE04220BEBB4FAC37E047F00D3
:012AC20022F1
:03002B0002324E50
:04324E0053BCEF324C
:0F3173007D037C09ED1D70011C144C70F7DFF11A
:01318200222A
:03325200A20422B1
:101C0500EFD3940540037F0122121112FED39403F2
:101C150040037F0222EF7041EE700B90000112111C
:101C25002BF452935294121112B4010B900001122D
:101C3500112B4293F45294121112FEB4020A900031
:101C45000112112B42934294EEB4030D9000011240
:101C5500112BFEF45293EE4294EF6401704312117E
:101C650012FE700B90000112112BF452915292EE5C
:101C7500B4010B90000112112B4291F452921211F2
:101C850012B4020A90000112112B429142921211D4
:101C950012B4030D90000112112BFEF45291EE4285
:101CA50092EF64027043121112FE700B9000011244
:101CB500112BF452955296EEB4010B9000011211BE
:101CC5002B4295F45296121112B4020A9000011299
:101CD500112B42954296121112B4030D9000011278
:101CE500112BFEF45295EE4296EF640370431211E8
:101CF50012FE700B90000112112BF452B152B2EE8C
:101D0500B4010B90000112112B42B1F452B2121121
:101D150012B4020A90000112112B42B142B2121103
:101D250012B4030D90000112112BFEF452B1EE42D4
:101D3500B2EF64047043121112FE700B9000011291
:101D4500112BF452B352B4EEB4010B9000011211F1
:101D55002B42B3F452B4121112B4020A90000112CC
:101D6500112B42B342B4121112B4030D90000112AB
:101D7500112BFEF452B3EE42B4EF64057043121119
:101D850012FF700B90000112112BF452C952CAEFC9
:101D9500B4010B90000112112B42C9F452CA121161
:101DA50012B4020A90000112112B42C942CA121143
:101DB50012B4030D90000112112BFFF452C9EF422A
:041DC500CA7F0022AF
:1025E900EF7034D3ED9498EC940340047C037D9808
:1025F900C3ED9450EC940050047C007D50C2DE90F1
:1026090002DFECF0A3EDF0C374E89D9002DAF074F8
:10261900039C9002D98073EF64017034D3ED946800
:10262900EC940B40047C0B7D68C3ED9450EC940052
:1026390050047C007D50C2DE9002E1ECF0A3EDF085
:10264900C374B89D9002DCF0740B9C9002DB803A55
:10265900EF64027038D3ED9480EC940740047C0752
:102669007D80C3ED9450EC940050047C007D50C2F1
:10267900DE9002E3ECF0A3EDF0AE04FFC374D09F4B
:0E2689009002DEF074079E9002DDF0D2DE2299
:101F7B0090031EEBF0A3EAF0A3E9F0AD07EDD394C9
:101F8B00034003022119ED6403704CC2DEF5F9F531
:101F9B00E990031EE0FBA3E0FAA3E0F9121112FF94
:101FAB00E5A254CF4FF5A290000112112BFFE5D9FA
:101FBB0054F14FF5D990000412112B5401FFE5D9C0
:101FCB0054FE4FF5D990000512112BB40104D2BF6A
:101FDB008002C2BFD2DE2290031EE0FBA3E0FAA375
:101FEB00E02404F9E43AFA12111254311211589008
:101FFB00031EE0FBA3E0FAA3E0F990000212112B01
:10200B00C39448400FE92404F9E43AFA121112542C
:10201B00CF121158ED704F90031EE0FBA3E0FAA313
:10202B00E0F990000412112BFF90000212112BFE0D
:10203B004FF5DA90000312112BFFE5F2543F4FF5E9
:10204B00F29000061211FDFBAAF09002DFEAF0A35A
:10205B00EBF0C2009002D6EEF09002E5EAF0A3EBB3
:10206B00F0F5EAEAF5FAED6401704F90031EE0FB20
:10207B00A3E0FAA3E0F990000412112BFF900002E9
:10208B0012112BFE4FF5DB90000312112BFFE5F322
:10209B00543F4FF5F39000061211FDFBAAF090028E
:1020AB00E1EAF0A3EBF0C2019002D7EEF09002E769
:1020BB00EAF0A3EBF0F5EBEAF5FBED6402704F9061
:1020CB00031EE0FBA3E0FAA3E0F990000412112B2E
:1020DB00FF90000212112BFE4FF5DC900003121142
:1020EB002BFFE5F4543F4FF5F49000061211FDFD64
:1020FB00ACF09002E3ECF0A3EDF0C2029002D8EE4C
:0F210B00F09002E9ECF0A3EDF0F5ECECF5FC221E
:10211A00900322ECF0A3EDF0900321EFF0705ED370
:10212A00EB9464EA940040047A007B64C3EB940164
:10213A00EA940050047A007B01C2DE900322E0FE9A
:10214A00A3E0FFAD03AC0212116A7C007D64121198
:10215A007C9002DFEEF0A3EFF07C007D64AF03AE6B
:10216A000212117CC374019FFFE49EFE900322E0D9
:10217A00FCA3E0FD12116A9002D902224F900321BA
:10218A00E06401705DD3EB9464EA940040047A0041
:10219A007B64C3EB9401EA940050047A007B01C289
:1021AA00DE7C007D64AF03AE0212117C900322E054
:1021BA00FCA3E0FD12116A9002E1EEF0A3EFF07CBD
:1021CA00007D64AF03AE0212117CC374019FFFE469
:1021DA009EFE900322E0FCA3E0FD12116A9002DB4E
:1021EA008063900321E064027062D3EB9464EA9402
:1021FA000040047A007B64C3EB9401EA9400500423
:10220A007A007B01C2DE7C007D64AF03AE0212114C
:10221A007C900322E0FCA3E0FD12116A9002E3EE37
:10222A00F0A3EFF0AE02AF037C007D6412117CC311
:10223A0074019FFFE49EFE900322E0FCA3E0FD12DE
:0D224A00116A9002DDEEF0A3EFF0D2DE226B
:03003B0002269703
:10269700C0E0C083C082C0D075D000C006C007307C
:1026A700D82AC2D830A5059002DF80039002D9E06E
:1026B700FEA3E0FF9002E6E02FF09002E5E03EF097
:1026C7009002E5E0FEA3E0F5EAEEF5FA30D92AC27A
:1026D700D930A6059002E180039002DBE0FEA3E07B
:1026E700FF9002E8E02FF09002E7E03EF09002E76B
:1026F700E0FEA3E0F5EBEEF5FB30DA2AC2DA30A70D
:10270700059002E380039002DDE0FEA3E0FF900264
:10271700EAE02FF09002E9E03EF09002E9E0FEA344
:10272700E0F5ECEEF5FCD007D006D0D0D082D08310
:03273700D0E032BD
:0300030002326165
:01326100323A
:0300130002326254
:013262003239
:0300530002326313
:013263003238
:03005B000232640A
:013264003237
:03008300023265E1
:013265003236
:10248100EFD3940440037F0122EF702D90000212DC
:10249100112BB40104D2A88002C2A890000112112C
:1024A1002BB40104D2B88002C2B8121112B40104D3
:1024B100D2888002C2887F0022EF6401702D9000D3
:1024C1000212112BB40104D2AA8002C2AA90000107
:1024D10012112BB40104D2BA8002C2BA121112B481
:1024E1000104D28A8002C28A7F0022EFB4021490D2
:1024F100000212112BB40105438F108003538FEF9B
:102501007F0022EFB4031490000212112BB40105D5
:10251100438F208003538FDF7F0022EFB404149098
:10252100000212112BB40105438F408003538FBF6A
:062531007F00227F022260
:0731DA00C2A21231E1D2A0F4
:0531E100007F0BDFFE82
:0131E60022C6
:0A322300D2A21231DCC2A20231E196
:063248001231DAD2A222CD
:0D31E700C2A01231DAC2A01231E1D2A22240
:042EA200FF122F17D5
:102EA600E4FEC2A01231E1D2A2D2A01231E130A2D8
:102EB6000DEEC394FF50070EA2A2920580F0C2A0A9
:022EC600A20563
:012EC80022E7
:0A322D00D2A2C2A01231DCC2A0221E
:10302300E4FED2A2FDC2A01231DCEE25E0FE30A206
:0D303300034401FE0DEDB408ECC2A0AF0691
:01304000226D
:022F1700AE0703
:102F1900E4FDC2A01231E1EE5480FFC4131313542F
:102F29000124FF92A21231DCEE25E0FE0DEDB4087A
:032F3900E1C2A052
:012F3C002272
:1030C900AC05AE07123223AF06122F17122EA6AF88
:0930D90004122F17122EA6D322B7
:0B2D5F00900310EBF0A3EAF0A3E9F0F2
:102D6A001230C9E4FC900313E0FFECC39F501990A2
:102D7A000310E0FBA3E475F0011211E7A9F0FA12BF
:0B2D8A001112122EA20C80DD02324854
:102B6B00900316EBF0A3EAF0A3E9F0900314EFF057
:102B7B001230C9123223E04401122EA2E4FC90035E
:102B8B0019E0FFECC39F5025123023900316E0FB96
:102B9B00A3E475F0011211E7A9F0FAEF12115890A6
:102BAB000319E0146C60031231E70C80D112322D43
:032BBB000232489B
:022DCA00C10640
:1013D80043BA80121112B4010543F180800353F11E
:1013E8007F90000112112BB4010F7401A807088027
:1013F80002C333D8FC42F1800E7401A807088002AA
:10140800C333D8FCF452F190000212112BB4010539
:1014180043F540800353F5BF90000312112BB4012C
:101428000F7401A807088002C333D8FC42F5800E68
:101438007401A807088002C333D8FCF452F5900061
:101448000412112BB4010575F720800353F7DF90C0
:10145800000512112BB4010575F710800353F7EF3F
:1014680090000612112BB4010575F708800353F795
:10147800F790000712112BB4010575F70480035388
:10148800F7FB90000812112BB4010575F7028003D1
:1014980053F7FD90000912112B90FFF27006E054EB
:1014A800EFF08004E04410F090FFF2C083C082E0C7
:1014B800FE90000A12112BFDEE4DD082D083F0EF82
:1014C8001460721470030215901470030215E3146B
:1014D800700302163614700302168724056003028F
:1014E80016DE90000B12112B90FF047006E054F7E3
:1014F800F08004E04408F090000C12112B90FF04D7
:10150800B40106E04404F08004E054FBF090000DC0
:1015180012112B90FF04B40106E04402F08004E0AD
:1015280054FDF090000E12112B90FF04B401030239
:1015380016D40216DA90000B12112B90FF147006C5
:10154800E054F7F08004E04408F090000C12112BEE
:1015580090FF14B40106E04404F08004E054FBF06A
:1015680090000D12112B90FF14B40106E04402F014
:101578008004E054FDF090000E12112B90FF14B47B
:1015880001030216D40216DA90000B12112B90FFF9
:10159800247006E054F7F08004E04408F090000C52
:1015A80012112B90FF24B40106E04404F08004E0FB
:1015B80054FBF090000D12112B90FF24B40106E0AB
:1015C8004402F08004E054FDF090000E12112B90BC
:1015D800FF24B401030216D40216DA90000B12118C
:1015E8002B90FF347006E054F7F08004E04408F0D4
:1015F80090000C12112B90FF34B40106E04404F063
:101608008004E054FBF090000D12112B90FF34B4CD
:101618000106E04402F08004E054FDF090000E1250
:10162800112B90FF34B401030216D40216DA90008D
:101638000B12112B90FF447006E054F7F08004E081
:101648004408F090000C12112B90FF44B40106E0FE
:101658004404F08004E054FBF090000D12112B902C
:10166800FF44B40106E04402F08004E054FDF09029
:10167800000E12112B90FF44B40102804F8053904A
:10168800000B12112B90FF547006E054F7F0800401
:10169800E04408F090000C12112B90FF54B401069E
:1016A800E04404F08004E054FBF090000D12112B8C
:1016B80090FF54B40106E04402F08004E054FDF0C9
:1016C80090000E12112B90FF54B40106E04401F073
:1016D8008004E054FEF090000F12112BB401044373
:0716E800F5802253F57F227B
:05238E009002EBEFF0EE
:1023930014603114604814605F1460761470030293
:1023A300242F240560030224479002ED7480F0E497
:1023B3009002ECF07B017A0279EC7F03121C05D2C8
:1023C300B70224479002ED7402F0E49002ECF07B34
:1023D300017A0279EC7F02121C05D2A18066900279
:1023E300ED7404F0E49002ECF07B017A0279EC7F67
:1023F30002121C05D2A2804C9002ED7408F0E49006
:1024030002ECF07B017A0279EC7F02121C05D2A365
:1024130080329002ED7440F0E49002ECF07B017A9C
:102423000279EC7F01121C05D29680189002ED749C
:1024330080F0E49002ECF07B017A0279EC7F0112E8
:102443001C05D29743BA80E49002EEF0A3F0A3F008
:10245300A304F0E4A3F0A3F0A3F0A3F0A3F0A3F08C
:10246300A3F0A3F0A3F0A3F0A3F0A3F09002EBE09A
:0D247300FF7B017A0279EE1213D853BA7F75
:012480002239
:1030FB00D3E49F74809E400D90FFF1EFF0EE90FFB4
:08310B00F0F07F00227F012299
:10225700EF14604A146075147003022301147003AD
:1022670002232E14700302235B2405600302238BD1
:1022770090FF01EDF0EC90FF00F090030AA3A3A3F9
:10228700E090FF03F090030AE0FCA3E0FDA3E0FE6B
:10229700A3E0FF780812132290FF0202238690FF23
:1022A70011EDF0EC90FF10F090030AA3A3A3E090C8
:1022B700FF13F090030AE0FCA3E0FDA3E0FEA3E018
:1022C700FF780812132290FF1202238690FF21ED58
:1022D700F0EC90FF20F090030AA3A3A3E090FF2364
:1022E700F090030AE0FCA3E0FDA3E0FEA3E0FF7883
:1022F7000812132290FF2202238690FF31EDF0ECA3
:1023070090FF30F090030AA3A3A3E090FF33F0906F
:10231700030AE0FCA3E0FDA3E0FEA3E0FF780812B8
:10232700132290FF32805890FF41EDF0EC90FF4070
:10233700F090030AA3A3A3E090FF43F090030AE001
:10234700FCA3E0FDA3E0FEA3E0FF780812132290B0
:10235700FF42802B90FF51EDF0EC90FF50F090037F
:102367000AA3A3A3E090FF53F090030AE0FCA3E0C5
:10237700FDA3E0FEA3E0FF780812132290FF52EFBF
:07238700F07F00227F01221C
:0F31920090028CE0FCA3E0FDA3E0FEA3E0FF228F
:102D2300EF14601514601714601914601B14601DF0
:102D330024057027900290801790029480129002CD
:102D430098800D90029C80089002A080039002A4BA
:0C2D5300E0FCA3E0FDA3E0FEA3E0FF22F3
:102DFB00AB07AA06E4F9F87F807EC37DC97C01127C
:102E0B002CDFE4FCFD90028C12136543BA80900218
:0F2E1B008CA3A3E0FEA3E0FF1230FB53BA7F228B
:051DC9009002FEEFF0A6
:101DCE007F337E337D737C3FA3E0F8A3E0F9A3E07D
:101DDE00FAA3E0FB120FE6600C400A9002FF12130A
:101DEE00713F7333337FCD7ECC7D4C7C3D9002FFB3
:101DFE00E0F8A3E0F9A3E0FAA3E0FB120FE6500A25
:101E0E009002FF1213713D4CCCCD9002FEE0146097
:101E1E0048146071147003021EBF147003021EEA90
:101E2E00147003021F1524056003021F559002FF54
:101E3E00E0FCA3E0FDA3E0FEA3E0FF9002901213EE
:101E4E006590028CE0FCA3E0FDA3E0FEA3E0FFE4BE
:101E5E00121053900290021F3E9002FFE0FCA3E08E
:101E6E00FDA3E0FEA3E0FF90029412136590028C96
:101E7E00E0FCA3E0FDA3E0FEA3E0FFE4121053900C
:101E8E000294021F3E9002FFE0FCA3E0FDA3E0FEE1
:101E9E00A3E0FF90029812136590028CE0FCA3E081
:101EAE00FDA3E0FEA3E0FFE4121053900298021F80
:101EBE003E9002FFE0FCA3E0FDA3E0FEA3E0FF9056
:101ECE00029C12136590028CE0FCA3E0FDA3E0FEE1
:101EDE00A3E0FFE412105390029C80549002FFE0A6
:101EEE00FCA3E0FDA3E0FEA3E0FF9002A0121365A9
:101EFE0090028CE0FCA3E0FDA3E0FEA3E0FFE41261
:101F0E0010539002A080299002FFE0FCA3E0FDA3F5
:101F1E00E0FEA3E0FF9002A412136590028CE0FC99
:101F2E00A3E0FDA3E0FEA3E0FFE41210539002A095
:101F3E00E0F8A3E0F9A3E0FAA3E0FB120EE0121022
:101F4E009190030312136543BA80900303E0FCA340
:101F5E00E0FDA3E0FEA3E0FF90030A1213659002DA
:0C1F6E00FEE0FFE4FDFC12225753BA7F96
:011F7A002244
:0C32000043BA8043F580D20653BA7F2207
:0C320C0043BA8053F57FC20653BA7F22FC
:03325500A20622AC
:10273A0090000112112BB4010553CE7F800343CEC2
:10274A0080121112B4010543CE40800353CEBF90CC
:10275A00000212112BB4010543CE20800353CEDFB1
:10276A0090000312112B700553CEEF800343CE1055
:10277A0090000412112BB4010543CE08800353CEF6
:10278A00F790000512112B700543CE04800353CE37
:10279A00FB90000612112BB4010543AF02800353CC
:1027AA00AFFD90000712112B5403FFE5CE54FC4FE6
:1027BA00F5CE90000812112BFFE5A254F34FF5A2B3
:0127CA0022EC
:0B321800EF700453CEEF2243CE1022D3
:1031130090031DE02441F8A607E004F0C394204087
:0431230002E4F022B0
:102FC600EDD394205018E4FEEEC39D501112111259
:0E2FD600FF123113740129F9E43AFA0E80EA71
:012FE40022CA
:102EC90090031DE0FF90031BE06F601A7F0112322F
:102ED9001890031BE02441F8E6FFE004F0C39420B6
:062EE9004002E4F08FCF6F
:012EEF0022C0
:102F620090031CE0FF90031AE0FEB507037F0022E6
:102F720074212EF8E6FF90031AE004F0C394204077
:032F820002E4F076
:012F85002229
:10307A00AD07EDD3942040037F0022EDD3940140A5
:0A308A0006122F621D80F4122F625F
:013094002219
:03004B00022AC3C3
:102AC300C0E0C083C082C0D075D000C000C006C0C3
:102AD3000790031DE0FF90031BE0FE6F6025A3E05A
:102AE3002421F8A6CFE004F0C394204002E4F0745C
:102AF300412EF8E6F5CF90031BE004F0C394204089
:102B030002E4F075CDC0D007D006D000D0D0D0827B
:052B1300D083D0E03288
:102DCC004102C8024102C9024202CA00004202CCBE
:102DDC0000004402CE000000004402D200000000BB
:0E2DEC004402C4000000004402C000000000C9
:102BBE00E49002A8F0A3F0A304F0E4A3F0A3F09035
:102BCE0002AFF09002AD748AF0A374D0F0E49002DC
:102BDE00B0F0A3F0A304F0E4A3F0A3F09002B704C6
:102BEE00F09002B5748FF0A37420F07F011219D209
:102BFE007F031219D27B017A0279B07F040219D8B1
:0F31A1009002C4E0FCA3E0FDA3E0FEA3E0FF2248
:0F31B0009002C0E0FCA3E0FDA3E0FEA3E0FF223D
:10305E00EF24FE600C0470139002D0ECF0A3EDF0A0
:0C306E0022AF059002D4ECF0A3EFF0229A
:10309500EF24FE600804700E9002D080039002D4E5
:0A30A500E0FEA3E0FF22E4FEFF229C
:102F3D009002C8E0601EA3E0601AEF24FE600B044F
:102F4D0070129002CEECF0A3EDF0AF059002D2EC32
:052F5D00F0A3EFF022DB
:1030AF00EF24FE600804700E9002CE80039002D2CF
:0A30BF00E0FEA3E0FF22E4FEFF2282
:1030E200EF24FE600A047010C28E9002C88006535C
:0930F200D1F79002C97402F0222A
:10304100EF24FE600D0470149002C8E07002D322D8
:0D305100C3229002C9E07003D38001C322A6
:102FE500EF24FE600E0470169002C8E0B40102D30F
:0F2FF50022C3229002C9E0B40103D38001C3229A
:10300400EF24FE600E0470169002C8E0B40202D3EE
:0F30140022C3229002C9E0B40203D38001C32279
:102FA600AE071230044018EF24FE600B047010D2F6
:102FB6008EE49002C8F02243D108E49002C9F022C0
:0E31BF00AE07122FE55005122FA6D322C32211
:03001B00022C9A1A
:102C9A00C0E0C0F0C083C082C0D075D000C000C000
:102CAA00069002CAE475F0011211D1FE9002CEE03C
:102CBA00B50613A3E0B5F00EC28E9002CAE4F0A3E3
:102CCA00F09002C804F0D006D000D0D0D082D083D1
:052CDA00D0F0D0E03253
:03009B00022C54E0
:102C5400C0E0C0F0C083C082C0D075D000C000C046
:102C6400069002CCE475F0011211D1FE9002D2E07C
:102C7400B50614A3E0B5F00F53D1F79002CCE4F0FD
:102C8400A3F09002C904F0D006D000D0D0D082D0F6
:062C940083D0F0D0E03215
:0300A300022537FC
:10253700C0E0C0F0C083C082C0D075D000C000C06A
:1025470001C002C003C004C005C006C007E47BE8A1
:102557007A03F9F89002C4E0FCA3E0FDA3E0FEA330
:10256700E0FF12127174FF7BFAFAF9F8D312131114
:10257700E450047F018001FFFEFDFC9002C01213AE
:1025870065EC4D4E4F600A9002C0121371000000B7
:10259700009002C4E0FCA3E0FDA3E0FEA3E0240456
:1025A700FFE43EFEE43DFDE43CFC9002C4121365EB
:1025B70074FF7BFAFAF9F8D3121311500A9002C488
:1025C70012137100000000D007D006D005D004D048
:1025D70003D002D001D000D0D0D082D083D0F0D0A9
:0225E700E032E0
:0619D2007B017A0279A8F6
:1019D800AD07EDD3940440037F0122ED707312111B
:1019E80012FED3940340037F0222C28CC2A9C2B95B
:1019F8005389F0538E7F538FFE90000212112BB43F
:101A08000102D2A990000112112BB40102D2B9EE41
:101A1800428990000312112BFF7003438E80EFB4AC
:101A2800020343890490000412112BB40103438F6D
:101A3800019000051211FDE5F0F58C9000051211DA
:101A4800FDF58A90000712112BB40102D28C7F0099
:101A580022ED64017076121112FEC3940340037FD5
:101A68000222C28EC2ABC2BB53890F538EBF538FA3
:101A7800FD90000212112BB40102D2AB90000112AA
:101A8800112BB40102D2BBEEC454F042899000037A
:101A980012112BFF7003438E40EFB40203438940B9
:101AA80090000412112BB40103438F029000051219
:101AB80011FDE5F0F58D9000051211FDF58B9000F4
:101AC8000712112BB40102D28E7F0022ED6402703E
:101AD8006390000312112BFED3940240037F02226D
:101AE800538EE353AFFB538FFB90000212112BB4BC
:101AF800010343AF04EE7003438E049000031211F8
:101B08002BB40203438E0890000412112BB4010376
:101B1800438F049000051211FDE5F0F5D6900005FD
:101B28001211FDF5D790000712112BB40103438E53
:101B3800107F0022ED6403706090000312112BFEE9
:101B4800D3940240037F022253D1F053AFDF9000B9
:101B58000212112BB4010343AF20EE700343D102EC
:101B680090000312112BB4020343D1069000041213
:101B7800112BB4010343D1019000051211FDE5F0CA
:101B8800F5D49000051211FDF5D590000712112B20
:101B9800B4010343D1087F0022ED6404705C900017
:101BA8000312112BFED3940240037F022253D10F5C
:101BB80053AFBF90000212112BB4010343AF40EEA4
:101BC800700343D12090000312112BB4020343D1B8
:101BD8006090000412112BB4010343D1109000054A
:101BE8001211FDFDACF0ECF5D28DD3900007121167
:0D1BF8002BB4010343D1807F00227F022225
:100800009002B6EBF0A3EAF0A3E9F09002B5EFF0A6
:1008100064016003020A1290000004F0E4A3F0A354
:10082000F0A3F0A3F0A3F0A3F09002B9F09002B906
:10083000E0FFC39480501474382FF582E43401F53E
:1008400083E4F09002B9E004F080E2E49002B9F0B1
:100850009002B9E0FFC394805014741C2FF582E419
:100860003400F583E4F09002B9E004F080E29002F5
:10087000B6E0FBA3E0FAA3E0F9121112D394C04052
:10088000037F022290000A12112BB40104D2BC8013
:1008900002C2BC121112FFE598543F4FF598EF6465
:1008A000C06008EF6440600302098C9000021213DC
:1008B000357FE07E707D727C001212719002BA1258
:1008C0001365E4FFFE7D01FC9002BAE0F8A3E0F9B5
:1008D000A3E0FAA3E0FBC312131140037F022290AE
:1008E00002BAE0F8A3E0F9A3E0FAA3E0FBC3E49BBB
:1008F000FFE49AFE740199FDE498FC9002BA121389
:10090000659002B6E0FBA3E0FAA3E0F990000112C3
:10091000112BFB64017038C28E538EFE5389BF5376
:1009200089CF438E409002BAE0FCA3E0FDA3E0FE35
:10093000A3E0FF78081213228F8D9002BAA3A3A31D
:10094000E0F58BC2AB5389BF538FFDD28E8076EB1F
:1009500064027035538EEF438E01538EF7438E043D
:100960009002BAE0FCA3E0FDA3E0FEA3E0FF78085C
:100970001213228FD69002BAA3A3A3E0F5D753AFE8
:10098000FB538EF7438E10803C7F02229002B6E02C
:10099000FBA3E0FAA3E0F9121112FF701390000814
:1009A00012112BB40105438E20801A538EDF80155F
:1009B000EFB4801190000812112BB4010543878019
:1009C000800353877F9002B6E0FBA3E0FAA3E0F92F
:1009D00090000912112BB40104D2AC8002C2AC9079
:1009E000000712112BB40104D29C8002C29C90001B
:1009F0000B12112B54C0FFE5A2543F4FF5A29000FB
:100A00000C12112BB4010543971080035397EF7F0D
:100A100000229002B5E064026003020B74900007AC
:100A20007402F0E4A3F0A3F0A3F0A3F0A3F0A3F00A
:100A30009002B9F09002B9E0FFC39480501474D4CE
:100A40002FF582E43401F583E4F09002B9E004F07C
:100A500080E2E49002B9F09002B9E0FFC3948050C4
:100A600014749C2FF582E43400F583E4F09002B90D
:100A7000E004F080E29002B6E0FBA3E0FAA3E0F924
:100A8000121112FF64C06008EF64406003020B346F
:100A900090000A12112BB4010543B501800353B530
:100AA000FE121112B4C005439A808003539A7F90BE
:100AB00000021213357FE07E707D727C001212718D
:100AC0009002BA121365E4FFFE7D01FC9002BAE0C9
:100AD000F8A3E0F9A3E0FAA3E0FBC312131140036B
:100AE0007F02229002BAE0F8A3E0F9A3E0FAA3E0C3
:100AF000FBC3E49BFFE49AFE740199FDE498FC902B
:100B000002BA121365538EEF538EF7438E04900290
:100B1000BAE0FCA3E0FDA3E0FEA3E0FF7808121317
:100B2000228FD69002BAA3A3A3E0F5D753AFFB431D
:100B30008E1080037F02229002B6E0FBA3E0FAA3AE
:100B4000E0F990000912112BB4010543AF018003B5
:100B500053AFFE90000712112BB40105439A108089
:100B600003539AEF90000B12112B5401FFE5BA5476
:100B7000FE4FF5BA9002B5E064036003020D2790C2
:100B8000000E7402F0E4A3F0A3F0A3F0A3F0A3F02E
:100B9000A3F09002B9F09002B9E0FFC3941C501486
:100BA00074542FF582E43402F583E4F09002B9E046
:100BB00004F080E2E49002B9F09002B9E0FFC3943F
:100BC0001C5014741C2FF582E43401F583E4F0907A
:100BD00002B9E004F080E29002B6E0FBA3E0FAA3E1
:100BE000E0F9121112FF64C06008EF644060030274
:100BF0000CE753ACDFEFB4C00543AC80800353ACCB
:100C00007F9002B6E0FBA3E0FAA3E0F990000212A5
:100C100013357FE07E707D727C001212719002BAF3
:100C2000121365E4FFFE7D01FC9002BAE0F8A3E038
:100C3000F9A3E0FAA3E0FBC312131140037F0222E1
:100C40009002BAE0F8A3E0F9A3E0FAA3E0FBC3E462
:100C50009BFFE49AFE740199FDE498FC9002BA129D
:100C600013659002B6E0FBA3E0FAA3E0F99000015F
:100C700012112BFB6402703253ACBF538EEF538EB4
:100C8000F7438E049002BAE0FCA3E0FDA3E0FEA3CC
:100C9000E0FF78081213228FD69002BAA3A3A3E034
:100CA000F5D753AFFB438E108040EB6401703543A2
:100CB000AC4053D1F053AFDF43D10253D1FB53D1FA
:100CC000FE9002BAE0FCA3E0FDA3E0FEA3E0FF7803
:100CD000081213228FD49002BAA3A3A3E0F5D54340
:100CE000D10880067F02227F02229002B6E0FBA399
:100CF000E0FAA3E0F990000912112BB4010543AF0B
:100D000008800353AFF790000712112BB40105437D
:100D1000AC10800353ACEF90000B12112B5402FF68
:100D2000E5BA54FD020ED79002B5E06404600302F8
:100D30000EDD9000157402F0E4A3F0A3F0A3F0A37D
:100D4000F0A3F0A3F09002B9F09002B9E0FFC394D1
:100D50001C501474702FF582E43402F583E4F09093
:100D600002B9E004F080E2E49002B9F09002B9E048
:100D7000FFC3941C501474B82FF582E43401F5833A
:100D8000E4F09002B9E004F080E29002B6E0FBA348
:100D9000E0FAA3E0F9121112FF64C06008EF6440AA
:100DA0006003020E9A5384DFEFB4C0054384808051
:100DB0000353847F9002B6E0FBA3E0FAA3E0F9902E
:100DC00000021213357FE07E707D727C001212717A
:100DD0009002BA121365E4FFFE7D01FC9002BAE0B6
:100DE000F8A3E0F9A3E0FAA3E0FBC3121311400358
:100DF0007F02229002BAE0F8A3E0F9A3E0FAA3E0B0
:100E0000FBC3E49BFFE49AFE740199FDE498FC9017
:100E100002BA1213659002B6E0FBA3E0FAA3E0F970
:100E200090000112112BFB640270325384BF538E69
:100E3000EF538EF7438E049002BAE0FCA3E0FDA3CB
:100E4000E0FEA3E0FF78081213228FD69002BAA327
:100E5000A3A3E0F5D753AFFB438E108040EB6402B1
:100E6000703543844053D10F53AFBF43D12053D18A
:100E7000BF53D1EF9002BAE0FCA3E0FDA3E0FEA3D4
:100E8000E0FF78081213228FD29002BAA3A3A3E046
:100E9000F5D343D18080067F02227F02229002B6E2
:100EA000E0FBA3E0FAA3E0F990000912112BB401D2
:100EB0000543AF10800353AFEF90000712112BB41E
:100EC000010543841080035384EF90000B12112B13
:0F0ED0005404FFE5BA54FB4FF5BA7F00227F03AD
:010EDF0022F0
:102EF000900002E02438F582E43401F583EFF0908D
:102F00000002E004F0C394804002E4F0900003E08B
:072F1000700404F0D29922C5
:102E2A00900009E024D4F582E43401F583EFF090B0
:102E3A000009E004F0C394804002E4F090000AE044
:082E4A00700504F0439A022216
:102E5200900010E02454F582E43402F583EFF09000
:102E62000010E004F0C3941C4002E4F0900011E072
:082E7200700504F043AC0222DC
:102E7A00900017E02470F582E43402F583EFF090B5
:102E8A000017E004F0C3941C4002E4F0900018E03C
:082E9A00700504F043840222DC
:10312700121112FF600C122EF0740129F9E43AFA19
:0331370080EE2205
:10313A00121112FF600C122E2A740129F9E43AFACC
:03314A0080EE22F2
:10314D00121112FF600C122E52740129F9E43AFA91
:03315D0080EE22DF
:10316000121112FF600C122E7A740129F9E43AFA56
:0331700080EE22CC
:030023000229E6C9
:1029E600C0E0C083C082C0D075D000C006C007302A
:1029F600982DC298900006E07025900004E0C394DC
:102A0600804002E4F0900004E0FF04F0741C2FF50F
:102A160082E43400F583E599F09000057405F03002
:102A26009930C299900002E0FF900001E0FE6F60CD
:102A36001C74382EF582E43401F583E0F599900094
:102A460001E004F0C394804009E4F080059000039F
:0F2A5600E4F0D007D006D0D0D082D083D0E032C9
:0300430002285739
:10285700C0E0C083C082C0D075D000C006C007E505
:102867009A30E02E539AFE90000DE0702590000BF1
:10287700E0C394804002E4F090000BE0FF04F074A2
:102887009C2FF582E43400F583E59BF090000C74EF
:1028970005F0E59A30E131539AFD900009E0FF9089
:1028A7000008E0FE6F601C74D42EF582E43401F555
:1028B70083E0F59B900008E004F0C394804009E4AE
:1028C700F0800590000AE4F0D007D006D0D0D0827F
:0528D700D083D0E032C7
:03008B000228DC6C
:1028DC00C0E0C083C082C0D075D000C006C007E580
:1028EC00AC30E02E53ACFE900014E070259000123A
:1028FC00E0C3941C4002E4F0900012E0FF04F0747A
:10290C001C2FF582E43401F583E5ADF090001374CF
:10291C0005F0E5AC30E13153ACFD900010E0FF90D8
:10292C00000FE0FE6F601C74542EF582E43402F547
:10293C0083E0F5AD90000FE004F0C3941C4009E473
:10294C00F08005900011E4F0D007D006D0D0D082F2
:05295C00D083D0E03241
:03009300022961DE
:10296100C0E0C083C082C0D075D000C006C007E5FA
:102971008430E02E5384FE90001BE07025900019F6
:10298100E0C3941C4002E4F0900019E0FF04F074ED
:10299100B82FF582E43401F583E585F090001A74CF
:1029A10005F0E58430E1315384FD900017E0FF909C
:1029B1000016E0FE6F601C74542EF582E43402F5BB
:1029C10083E0F585900016E004F0C3941C4009E40F
:1029D100F08005900018E4F0D007D006D0D0D08266
:0529E100D083D0E032BC
:10186100EFD3940340037FFF22740F2F2FF8E6205C
:10187100E5F4C2AFE64430F6D2AFAE0CEEC39F50F2
:10188100210E74162EF8E6F908E618BE030274FF5D
:10189100FDED69600909E71919F7090980F31616C1
:1018A10080DAEED39F400405810581EED39F40226B
:1018B10074162EF808E6F9EEB50C02A98118060691
:1018C100E6FDED6960091919E70909F71980F31EA9
:1018D10080D9EF2416F8E604F8EF2F0490324093F4
:0918E100F608EF2F93F67F0022B8
:1018EA00EFD3940340037FFF22EF23240FF8E6305F
:1018FA00E5F4C2AFE6548CF6D2AFE50CB5070A742C
:10190A00162FF8E6F58102176A502E74172FF8E69B
:10191A00BF030274FFFD18E6F974162FF8FBE6FC04
:10192A00E96C6008A805E7F61D1980F4A803A60566
:10193A001FE50CB507E37F002274172FF8E6FD18A0
:10194A0086010F74162FF8A601088604E50CB50760
:10195A0002AC81ED6C60080D09A805E6F780F4E594
:09196A000CB507DE89817F002223
:101973008FF0E4FFFEE50C23240EF8C2A930F70D27
:101983007F08E6600B2DF660325030800730F10699
:10199300EDF660277E020830F010C2AFE610E725AF
:1019A3000E30E20CD2AF7F048014C2AFE610E7150D
:1019B30054EC4EF6D2AFD2A902176A7F0808EF445F
:0F19C30083F4C2AF56C6D2AFD2A954804FFF22D1
:100EE000EC4D6011E8497017ED33EC3304600DE40C
:100EF000FCFFFEFD22E933E8330470F80210FD1216
:100F000010C858046009E4CC248150062850090216
:100F10001107284003021104C0E0EB4A7044B98075
:100F200006D0E0FB0210F3EF4E701CBD8008EBFF13
:100F3000EAFEE9FD80EBE98DF0A4FEE5F0020FC9C1
:100F4000E9CDF9EAFEEBFFEF89F0A4FCE5F0CE89EC
:100F5000F0A42EFFE435F0CD89F0A42DFEE435F0A9
:100F60008067EF4E7005BD80D780C3EF8BF0A4ACD7
:100F7000F0EE8BF0A42CFCE435F0F8EF8AF0A42C12
:100F8000E5F038FCE433CB8DF0A42CFCE5F03BF825
:100F9000EE8AF0A42CFCE5F038F8E433CF89F0A415
:100FA0002CFCE5F038CF3400CE89F0A42FFFE5F01B
:100FB0003EFEE433C98DF0A42EFEE5F039CD8AF073
:100FC000A42FFFE5F03EFEE43DFD33D0E0FB5007EB
:100FD0000BBB000F021107EC2CFCEF33FFEE33FECE
:060FE000ED33FD0210DFFD
:100FE60074F8CC6480CCC86480C8F582046043C3BE
:100FF600EB9FF5F0EA9E42F0E99D42F0E89C45F051
:1010060060305018E5825FFFE582F42B5582FB5075
:10101600210ABA001D09B90019088016E5825BFB92
:10102600E582F42F5582FF50090EBE00050DBD0066
:10103600010CC3EB9FF5F0EA9E42F0E99D42F0E811
:0D1046009C45F06007CC4820E701B3EC2288
:1010530075F020800E75F010800575F0087D007E18
:10106300007F003392D530D503121303EC334010C5
:10107300EF33FFEE33FEED33FDEC33FCD5F0ED2221
:0E108300E5F0247EA2D513CC92E7CDCEFF225D
:10109100EDD2E7CD33EC3392D524814006E4FFFE57
:1010A100FDFC22FCE4CFCECDCC24E0501174FF80B6
:1010B100EDC3CC13CCCD13CDCE13CECF13CF047053
:0710C100F030D5DE0213033D
:1010C800E9D2E7C933E833F892D5EDD2E7CD33EC6E
:0710D80033FC5002B2D522E7
:1010DF00EC30E7100FBF000C0EBE00080DBD000472
:1010EF000BEB6014A2D5EB13FCED92E7FD2274FF1E
:1010FF00FCFDFEFF22E480F8A2D574FF13FC7D8077
:03110F00E480EF8A
:030000000227CB09
:0C27CB00787FE4F6D8FD758160022812CA
:10111200BB010689828A83E0225002E722BBFE02DB
:09112200E32289828A83E493220E
:10112B00BB010CE58229F582E5833AF583E0225079
:10113B0006E92582F8E622BBFE06E92582F8E222C3
:0D114B00E58229F582E5833AF583E49322DD
:10115800BB010689828A83F0225002F722BBFE0176
:02116800F32270
:10116A00EF8DF0A4A8F0CF8CF0A428CE8DF0A42E99
:02117A00FE2253
:10117C00BC000BBE0029EF8DF084FFADF022E4CC57
:10118C00F875F008EF2FFFEE33FEEC33FCEE9DEC20
:10119C00984005FCEE9DFE0FD5F0E9E4CEFD22ED66
:1011AC00F8F5F0EE8420D21CFEADF075F008EF2FB0
:1011BC00FFED33FD4007985006D5F0F222C398FDA1
:0511CC000FD5F0EA223E
:1011D100C5F0F8A3E028F0C5F0F8E58215827002A9
:0611E1001583E038F02246
:1011E700A3F8E0C5F025F0F0E582158270021583BB
:0611F700E0C838F0E82218
:1011FD00BB0110E58229F582E5833AF583E0F5F030
:10120D00A3E0225009E92582F886F008E622BBFE0C
:10121D000AE92582F8E2F5F008E222E5832AF58352
:08122D00E993F5F0A3E9932217
:1012350075F008758200EF2FFFEE33FECD33CDCC70
:1012450033CCC58233C5829BED9AEC99E5829840F3
:101255000CF582EE9BFEED9AFDEC99FC0FD5F0D6D0
:10126500E4CEFBE4CDFAE4CCF9A88222B800C1B9FA
:101275000059BA002DEC8BF084CFCECDFCE5F0CB38
:10128500F97818EF2FFFEE33FEED33FDEC33FCEB71
:1012950033FB10D703994004EB99FB0FD8E5E4F92C
:1012A500FA227818EF2FFFEE33FEED33FDEC33FC19
:1012B500C933C910D7059BE99A4007EC9BFCE99A0D
:1012C500F90FD8E0E4C9FAE4CCFB2275F010EF2F52
:1012D500FFEE33FEED33FDCC33CCC833C810D70752
:1012E5009BEC9AE899400AED9BFDEC9AFCE899F88D
:0E12F5000FD5F0DAE4CDFBE4CCFAE4C8F92220
:102CDF00C2D5E830E70FB2D5E4C39BFBE49AFAE420
:102CEF0099F9E498F8EC30E717B2D5122D151212B6
:102CFF0071E4C39BFBE49AFAE499F9E498F8800332
:102D0F0012127130D50DE4C39FFFE49EFEE49DFDCA
:042D1F00E49CFC2212
:0E130300C3E49FFFE49EFEE49DFDE49CFC22FB
:10131100EB9FF5F0EA9E42F0E99D42F0E89C45F032
:0113210022A9
:10132200E8600FECC313FCED13FDEE13FEEF13FFA9
:03133200D8F122CD
:10133500BB010DE58229F582E5833AF5830213AFFA
:101345005007E92582F80213A2BBFE07E92582F8BA
:101355000213BBE58229F582E5833AF5830213C8BA
:0C136500ECF0A3EDF0A3EEF0A3EFF022FB
:10137100A8828583F0D083D0821213881213881239
:101381001388121388E473E493A3C583C5F0C5835E
:10139100C8C582C8F0A3C583C5F0C583C8C582C8C6
:0113A1002229
:1027D700021824E493A3F8E493A34003F68001F2DC
:1027E70008DFF48029E493A3F85407240CC8C33303
:1027F700C4540F4420C8834004F456800146F6DFD2
:10280700E4800B0102040810204080902DCAE47E6A
:10281700019360BCA3FF543F30E509541FFEE493C6
:10282700A360010ECF54C025E060A840B8E493A38D
:10283700FAE493A3F8E493A3C8C582C8CAC583CAB8
:10284700F0A3C8C582C8CAC583CADFE9DEE780BE70
:012DFA0000D8
:0D13A200E6FB08E6F908E6FA08E6CBF822BB
:0C13AF00E0F8A3E0F9A3E0FAA3E0FB22C1
:0D13BB00E2FB08E2F908E2FA08E2CBF822B2
:1013C800E493F8740193F9740293FA740393FB227B
:00000001FF
